{
  "contractName": "ERC721A",
  "abi": [
    {
      "inputs": [
        {
          "internalType": "string",
          "name": "name_",
          "type": "string"
        },
        {
          "internalType": "string",
          "name": "symbol_",
          "type": "string"
        },
        {
          "internalType": "uint256",
          "name": "maxBatchSize_",
          "type": "uint256"
        },
        {
          "internalType": "uint256",
          "name": "collectionSize_",
          "type": "uint256"
        }
      ],
      "stateMutability": "nonpayable",
      "type": "constructor"
    },
    {
      "anonymous": false,
      "inputs": [
        {
          "indexed": true,
          "internalType": "address",
          "name": "owner",
          "type": "address"
        },
        {
          "indexed": true,
          "internalType": "address",
          "name": "approved",
          "type": "address"
        },
        {
          "indexed": true,
          "internalType": "uint256",
          "name": "tokenId",
          "type": "uint256"
        }
      ],
      "name": "Approval",
      "type": "event"
    },
    {
      "anonymous": false,
      "inputs": [
        {
          "indexed": true,
          "internalType": "address",
          "name": "owner",
          "type": "address"
        },
        {
          "indexed": true,
          "internalType": "address",
          "name": "operator",
          "type": "address"
        },
        {
          "indexed": false,
          "internalType": "bool",
          "name": "approved",
          "type": "bool"
        }
      ],
      "name": "ApprovalForAll",
      "type": "event"
    },
    {
      "anonymous": false,
      "inputs": [
        {
          "indexed": true,
          "internalType": "address",
          "name": "from",
          "type": "address"
        },
        {
          "indexed": true,
          "internalType": "address",
          "name": "to",
          "type": "address"
        },
        {
          "indexed": true,
          "internalType": "uint256",
          "name": "tokenId",
          "type": "uint256"
        }
      ],
      "name": "Transfer",
      "type": "event"
    },
    {
      "inputs": [],
      "name": "nextOwnerToExplicitlySet",
      "outputs": [
        {
          "internalType": "uint256",
          "name": "",
          "type": "uint256"
        }
      ],
      "stateMutability": "view",
      "type": "function"
    },
    {
      "inputs": [],
      "name": "totalSupply",
      "outputs": [
        {
          "internalType": "uint256",
          "name": "",
          "type": "uint256"
        }
      ],
      "stateMutability": "view",
      "type": "function"
    },
    {
      "inputs": [
        {
          "internalType": "uint256",
          "name": "index",
          "type": "uint256"
        }
      ],
      "name": "tokenByIndex",
      "outputs": [
        {
          "internalType": "uint256",
          "name": "",
          "type": "uint256"
        }
      ],
      "stateMutability": "view",
      "type": "function"
    },
    {
      "inputs": [
        {
          "internalType": "address",
          "name": "owner",
          "type": "address"
        },
        {
          "internalType": "uint256",
          "name": "index",
          "type": "uint256"
        }
      ],
      "name": "tokenOfOwnerByIndex",
      "outputs": [
        {
          "internalType": "uint256",
          "name": "",
          "type": "uint256"
        }
      ],
      "stateMutability": "view",
      "type": "function"
    },
    {
      "inputs": [
        {
          "internalType": "bytes4",
          "name": "interfaceId",
          "type": "bytes4"
        }
      ],
      "name": "supportsInterface",
      "outputs": [
        {
          "internalType": "bool",
          "name": "",
          "type": "bool"
        }
      ],
      "stateMutability": "view",
      "type": "function"
    },
    {
      "inputs": [
        {
          "internalType": "address",
          "name": "owner",
          "type": "address"
        }
      ],
      "name": "balanceOf",
      "outputs": [
        {
          "internalType": "uint256",
          "name": "",
          "type": "uint256"
        }
      ],
      "stateMutability": "view",
      "type": "function"
    },
    {
      "inputs": [
        {
          "internalType": "address",
          "name": "owner",
          "type": "address"
        }
      ],
      "name": "_numberMinted",
      "outputs": [
        {
          "internalType": "uint256",
          "name": "",
          "type": "uint256"
        }
      ],
      "stateMutability": "view",
      "type": "function"
    },
    {
      "inputs": [
        {
          "internalType": "uint256",
          "name": "tokenId",
          "type": "uint256"
        }
      ],
      "name": "ownerOf",
      "outputs": [
        {
          "internalType": "address",
          "name": "",
          "type": "address"
        }
      ],
      "stateMutability": "view",
      "type": "function"
    },
    {
      "inputs": [],
      "name": "name",
      "outputs": [
        {
          "internalType": "string",
          "name": "",
          "type": "string"
        }
      ],
      "stateMutability": "view",
      "type": "function"
    },
    {
      "inputs": [],
      "name": "symbol",
      "outputs": [
        {
          "internalType": "string",
          "name": "",
          "type": "string"
        }
      ],
      "stateMutability": "view",
      "type": "function"
    },
    {
      "inputs": [
        {
          "internalType": "uint256",
          "name": "tokenId",
          "type": "uint256"
        }
      ],
      "name": "tokenURI",
      "outputs": [
        {
          "internalType": "string",
          "name": "",
          "type": "string"
        }
      ],
      "stateMutability": "view",
      "type": "function"
    },
    {
      "inputs": [
        {
          "internalType": "address",
          "name": "to",
          "type": "address"
        },
        {
          "internalType": "uint256",
          "name": "tokenId",
          "type": "uint256"
        }
      ],
      "name": "approve",
      "outputs": [],
      "stateMutability": "nonpayable",
      "type": "function"
    },
    {
      "inputs": [
        {
          "internalType": "uint256",
          "name": "tokenId",
          "type": "uint256"
        }
      ],
      "name": "getApproved",
      "outputs": [
        {
          "internalType": "address",
          "name": "",
          "type": "address"
        }
      ],
      "stateMutability": "view",
      "type": "function"
    },
    {
      "inputs": [
        {
          "internalType": "address",
          "name": "operator",
          "type": "address"
        },
        {
          "internalType": "bool",
          "name": "approved",
          "type": "bool"
        }
      ],
      "name": "setApprovalForAll",
      "outputs": [],
      "stateMutability": "nonpayable",
      "type": "function"
    },
    {
      "inputs": [
        {
          "internalType": "address",
          "name": "owner",
          "type": "address"
        },
        {
          "internalType": "address",
          "name": "operator",
          "type": "address"
        }
      ],
      "name": "isApprovedForAll",
      "outputs": [
        {
          "internalType": "bool",
          "name": "",
          "type": "bool"
        }
      ],
      "stateMutability": "view",
      "type": "function"
    },
    {
      "inputs": [
        {
          "internalType": "address",
          "name": "from",
          "type": "address"
        },
        {
          "internalType": "address",
          "name": "to",
          "type": "address"
        },
        {
          "internalType": "uint256",
          "name": "tokenId",
          "type": "uint256"
        }
      ],
      "name": "transferFrom",
      "outputs": [],
      "stateMutability": "nonpayable",
      "type": "function"
    },
    {
      "inputs": [
        {
          "internalType": "address",
          "name": "from",
          "type": "address"
        },
        {
          "internalType": "address",
          "name": "to",
          "type": "address"
        },
        {
          "internalType": "uint256",
          "name": "tokenId",
          "type": "uint256"
        }
      ],
      "name": "safeTransferFrom",
      "outputs": [],
      "stateMutability": "nonpayable",
      "type": "function"
    },
    {
      "inputs": [
        {
          "internalType": "address",
          "name": "from",
          "type": "address"
        },
        {
          "internalType": "address",
          "name": "to",
          "type": "address"
        },
        {
          "internalType": "uint256",
          "name": "tokenId",
          "type": "uint256"
        },
        {
          "internalType": "bytes",
          "name": "_data",
          "type": "bytes"
        }
      ],
      "name": "safeTransferFrom",
      "outputs": [],
      "stateMutability": "nonpayable",
      "type": "function"
    }
  ],
  "bytecode": "0x60c06040526000805560006007553480156200001a57600080fd5b50604051620034f9380380620034f98339818101604052810190620000409190620003a0565b6000811162000086576040517f08c379a00000000000000000000000000000000000000000000000000000000081526004016200007d90620004d7565b60405180910390fd5b60008211620000cc576040517f08c379a0000000000000000000000000000000000000000000000000000000008152600401620000c3906200056f565b60405180910390fd5b8360019080519060200190620000e492919062000118565b508260029080519060200190620000fd92919062000118565b508160a08181525050806080818152505050505050620005f6565b8280546200012690620005c0565b90600052602060002090601f0160209004810192826200014a576000855562000196565b82601f106200016557805160ff191683800117855562000196565b8280016001018555821562000196579182015b828111156200019557825182559160200191906001019062000178565b5b509050620001a59190620001a9565b5090565b5b80821115620001c4576000816000905550600101620001aa565b5090565b6000604051905090565b600080fd5b600080fd5b600080fd5b600080fd5b6000601f19601f8301169050919050565b7f4e487b7100000000000000000000000000000000000000000000000000000000600052604160045260246000fd5b6200023182620001e6565b810181811067ffffffffffffffff82111715620002535762000252620001f7565b5b80604052505050565b600062000268620001c8565b905062000276828262000226565b919050565b600067ffffffffffffffff821115620002995762000298620001f7565b5b620002a482620001e6565b9050602081019050919050565b60005b83811015620002d1578082015181840152602081019050620002b4565b83811115620002e1576000848401525b50505050565b6000620002fe620002f8846200027b565b6200025c565b9050828152602081018484840111156200031d576200031c620001e1565b5b6200032a848285620002b1565b509392505050565b600082601f8301126200034a5762000349620001dc565b5b81516200035c848260208601620002e7565b91505092915050565b6000819050919050565b6200037a8162000365565b81146200038657600080fd5b50565b6000815190506200039a816200036f565b92915050565b60008060008060808587031215620003bd57620003bc620001d2565b5b600085015167ffffffffffffffff811115620003de57620003dd620001d7565b5b620003ec8782880162000332565b945050602085015167ffffffffffffffff81111562000410576200040f620001d7565b5b6200041e8782880162000332565b9350506040620004318782880162000389565b9250506060620004448782880162000389565b91505092959194509250565b600082825260208201905092915050565b7f455243373231413a20636f6c6c656374696f6e206d757374206861766520612060008201527f6e6f6e7a65726f20737570706c79000000000000000000000000000000000000602082015250565b6000620004bf602e8362000450565b9150620004cc8262000461565b604082019050919050565b60006020820190508181036000830152620004f281620004b0565b9050919050565b7f455243373231413a206d61782062617463682073697a65206d7573742062652060008201527f6e6f6e7a65726f00000000000000000000000000000000000000000000000000602082015250565b60006200055760278362000450565b91506200056482620004f9565b604082019050919050565b600060208201905081810360008301526200058a8162000548565b9050919050565b7f4e487b7100000000000000000000000000000000000000000000000000000000600052602260045260246000fd5b60006002820490506001821680620005d957607f821691505b60208210811415620005f057620005ef62000591565b5b50919050565b60805160a051612ed962000620600039600081816116a901526116d2015260005050612ed96000f3fe608060405234801561001057600080fd5b50600436106101165760003560e01c80634f6ccce7116100a2578063a22cb46511610071578063a22cb46514610319578063b88d4fde14610335578063c87b56dd14610351578063d7224ba014610381578063e985e9c51461039f57610116565b80634f6ccce71461026b5780636352211e1461029b57806370a08231146102cb57806395d89b41146102fb57610116565b806318160ddd116100e957806318160ddd146101b557806323b872dd146101d35780632f745c59146101ef57806342842e0e1461021f5780634d388a981461023b57610116565b806301ffc9a71461011b57806306fdde031461014b578063081812fc14610169578063095ea7b314610199575b600080fd5b61013560048036038101906101309190611c2c565b6103cf565b6040516101429190611c74565b60405180910390f35b610153610519565b6040516101609190611d28565b60405180910390f35b610183600480360381019061017e9190611d80565b6105ab565b6040516101909190611dee565b60405180910390f35b6101b360048036038101906101ae9190611e35565b610630565b005b6101bd610749565b6040516101ca9190611e84565b60405180910390f35b6101ed60048036038101906101e89190611e9f565b610752565b005b61020960048036038101906102049190611e35565b610762565b6040516102169190611e84565b60405180910390f35b61023960048036038101906102349190611e9f565b610960565b005b61025560048036038101906102509190611ef2565b610980565b6040516102629190611e84565b60405180910390f35b61028560048036038101906102809190611d80565b610a69565b6040516102929190611e84565b60405180910390f35b6102b560048036038101906102b09190611d80565b610abc565b6040516102c29190611dee565b60405180910390f35b6102e560048036038101906102e09190611ef2565b610ad2565b6040516102f29190611e84565b60405180910390f35b610303610bbb565b6040516103109190611d28565b60405180910390f35b610333600480360381019061032e9190611f4b565b610c4d565b005b61034f600480360381019061034a91906120c0565b610dce565b005b61036b60048036038101906103669190611d80565b610e2a565b6040516103789190611d28565b60405180910390f35b610389610ed1565b6040516103969190611e84565b60405180910390f35b6103b960048036038101906103b49190612143565b610ed7565b6040516103c69190611c74565b60405180910390f35b60007f80ac58cd000000000000000000000000000000000000000000000000000000007bffffffffffffffffffffffffffffffffffffffffffffffffffffffff1916827bffffffffffffffffffffffffffffffffffffffffffffffffffffffff1916148061049a57507f5b5e139f000000000000000000000000000000000000000000000000000000007bffffffffffffffffffffffffffffffffffffffffffffffffffffffff1916827bffffffffffffffffffffffffffffffffffffffffffffffffffffffff1916145b8061050257507f780e9d63000000000000000000000000000000000000000000000000000000007bffffffffffffffffffffffffffffffffffffffffffffffffffffffff1916827bffffffffffffffffffffffffffffffffffffffffffffffffffffffff1916145b80610512575061051182610f6b565b5b9050919050565b606060018054610528906121b2565b80601f0160208091040260200160405190810160405280929190818152602001828054610554906121b2565b80156105a15780601f10610576576101008083540402835291602001916105a1565b820191906000526020600020905b81548152906001019060200180831161058457829003601f168201915b5050505050905090565b60006105b682610fd5565b6105f5576040517f08c379a00000000000000000000000000000000000000000000000000000000081526004016105ec90612256565b60405180910390fd5b6005600083815260200190815260200160002060009054906101000a900473ffffffffffffffffffffffffffffffffffffffff169050919050565b600061063b82610abc565b90508073ffffffffffffffffffffffffffffffffffffffff168373ffffffffffffffffffffffffffffffffffffffff1614156106ac576040517f08c379a00000000000000000000000000000000000000000000000000000000081526004016106a3906122e8565b60405180910390fd5b8073ffffffffffffffffffffffffffffffffffffffff166106cb610fe2565b73ffffffffffffffffffffffffffffffffffffffff1614806106fa57506106f9816106f4610fe2565b610ed7565b5b610739576040517f08c379a00000000000000000000000000000000000000000000000000000000081526004016107309061237a565b60405180910390fd5b610744838383610fea565b505050565b60008054905090565b61075d83838361109c565b505050565b600061076d83610ad2565b82106107ae576040517f08c379a00000000000000000000000000000000000000000000000000000000081526004016107a59061240c565b60405180910390fd5b60006107b8610749565b905060008060005b8381101561091e576000600360008381526020019081526020016000206040518060400160405290816000820160009054906101000a900473ffffffffffffffffffffffffffffffffffffffff1673ffffffffffffffffffffffffffffffffffffffff1673ffffffffffffffffffffffffffffffffffffffff1681526020016000820160149054906101000a900467ffffffffffffffff1667ffffffffffffffff1667ffffffffffffffff16815250509050600073ffffffffffffffffffffffffffffffffffffffff16816000015173ffffffffffffffffffffffffffffffffffffffff16146108b257806000015192505b8773ffffffffffffffffffffffffffffffffffffffff168373ffffffffffffffffffffffffffffffffffffffff16141561090a57868414156108fb57819550505050505061095a565b83806109069061245b565b9450505b5080806109169061245b565b9150506107c0565b506040517f08c379a000000000000000000000000000000000000000000000000000000000815260040161095190612516565b60405180910390fd5b92915050565b61097b83838360405180602001604052806000815250610dce565b505050565b60008073ffffffffffffffffffffffffffffffffffffffff168273ffffffffffffffffffffffffffffffffffffffff1614156109f1576040517f08c379a00000000000000000000000000000000000000000000000000000000081526004016109e8906125a8565b60405180910390fd5b600460008373ffffffffffffffffffffffffffffffffffffffff1673ffffffffffffffffffffffffffffffffffffffff16815260200190815260200160002060000160109054906101000a90046fffffffffffffffffffffffffffffffff166fffffffffffffffffffffffffffffffff169050919050565b6000610a73610749565b8210610ab4576040517f08c379a0000000000000000000000000000000000000000000000000000000008152600401610aab9061263a565b60405180910390fd5b819050919050565b6000610ac782611655565b600001519050919050565b60008073ffffffffffffffffffffffffffffffffffffffff168273ffffffffffffffffffffffffffffffffffffffff161415610b43576040517f08c379a0000000000000000000000000000000000000000000000000000000008152600401610b3a906126cc565b60405180910390fd5b600460008373ffffffffffffffffffffffffffffffffffffffff1673ffffffffffffffffffffffffffffffffffffffff16815260200190815260200160002060000160009054906101000a90046fffffffffffffffffffffffffffffffff166fffffffffffffffffffffffffffffffff169050919050565b606060028054610bca906121b2565b80601f0160208091040260200160405190810160405280929190818152602001828054610bf6906121b2565b8015610c435780601f10610c1857610100808354040283529160200191610c43565b820191906000526020600020905b815481529060010190602001808311610c2657829003601f168201915b5050505050905090565b610c55610fe2565b73ffffffffffffffffffffffffffffffffffffffff168273ffffffffffffffffffffffffffffffffffffffff161415610cc3576040517f08c379a0000000000000000000000000000000000000000000000000000000008152600401610cba90612738565b60405180910390fd5b8060066000610cd0610fe2565b73ffffffffffffffffffffffffffffffffffffffff1673ffffffffffffffffffffffffffffffffffffffff16815260200190815260200160002060008473ffffffffffffffffffffffffffffffffffffffff1673ffffffffffffffffffffffffffffffffffffffff16815260200190815260200160002060006101000a81548160ff0219169083151502179055508173ffffffffffffffffffffffffffffffffffffffff16610d7d610fe2565b73ffffffffffffffffffffffffffffffffffffffff167f17307eab39ab6107e8899845ad3d59bd9653f200f220920489ca2b5937696c3183604051610dc29190611c74565b60405180910390a35050565b610dd984848461109c565b610de584848484611858565b610e24576040517f08c379a0000000000000000000000000000000000000000000000000000000008152600401610e1b906127ca565b60405180910390fd5b50505050565b6060610e3582610fd5565b610e74576040517f08c379a0000000000000000000000000000000000000000000000000000000008152600401610e6b9061285c565b60405180910390fd5b6000610e7e6119ef565b90506000815111610e9e5760405180602001604052806000815250610ec9565b80610ea884611a06565b604051602001610eb99291906128b8565b6040516020818303038152906040525b915050919050565b60075481565b6000600660008473ffffffffffffffffffffffffffffffffffffffff1673ffffffffffffffffffffffffffffffffffffffff16815260200190815260200160002060008373ffffffffffffffffffffffffffffffffffffffff1673ffffffffffffffffffffffffffffffffffffffff16815260200190815260200160002060009054906101000a900460ff16905092915050565b60007f01ffc9a7000000000000000000000000000000000000000000000000000000007bffffffffffffffffffffffffffffffffffffffffffffffffffffffff1916827bffffffffffffffffffffffffffffffffffffffffffffffffffffffff1916149050919050565b6000805482109050919050565b600033905090565b826005600084815260200190815260200160002060006101000a81548173ffffffffffffffffffffffffffffffffffffffff021916908373ffffffffffffffffffffffffffffffffffffffff160217905550818373ffffffffffffffffffffffffffffffffffffffff168273ffffffffffffffffffffffffffffffffffffffff167f8c5be1e5ebec7d5bd14f71427d1e84f3dd0314c0f7b2291e5b200ac8c7c3b92560405160405180910390a4505050565b60006110a782611655565b90506000816000015173ffffffffffffffffffffffffffffffffffffffff166110ce610fe2565b73ffffffffffffffffffffffffffffffffffffffff16148061112a57506110f3610fe2565b73ffffffffffffffffffffffffffffffffffffffff16611112846105ab565b73ffffffffffffffffffffffffffffffffffffffff16145b8061114657506111458260000151611140610fe2565b610ed7565b5b905080611188576040517f08c379a000000000000000000000000000000000000000000000000000000000815260040161117f9061294e565b60405180910390fd5b8473ffffffffffffffffffffffffffffffffffffffff16826000015173ffffffffffffffffffffffffffffffffffffffff16146111fa576040517f08c379a00000000000000000000000000000000000000000000000000000000081526004016111f1906129e0565b60405180910390fd5b600073ffffffffffffffffffffffffffffffffffffffff168473ffffffffffffffffffffffffffffffffffffffff16141561126a576040517f08c379a000000000000000000000000000000000000000000000000000000000815260040161126190612a72565b60405180910390fd5b6112778585856001611b67565b6112876000848460000151610fea565b6001600460008773ffffffffffffffffffffffffffffffffffffffff1673ffffffffffffffffffffffffffffffffffffffff16815260200190815260200160002060000160008282829054906101000a90046fffffffffffffffffffffffffffffffff166112f59190612aae565b92506101000a8154816fffffffffffffffffffffffffffffffff02191690836fffffffffffffffffffffffffffffffff1602179055506001600460008673ffffffffffffffffffffffffffffffffffffffff1673ffffffffffffffffffffffffffffffffffffffff16815260200190815260200160002060000160008282829054906101000a90046fffffffffffffffffffffffffffffffff166113999190612ae2565b92506101000a8154816fffffffffffffffffffffffffffffffff02191690836fffffffffffffffffffffffffffffffff16021790555060405180604001604052808573ffffffffffffffffffffffffffffffffffffffff1681526020014267ffffffffffffffff168152506003600085815260200190815260200160002060008201518160000160006101000a81548173ffffffffffffffffffffffffffffffffffffffff021916908373ffffffffffffffffffffffffffffffffffffffff16021790555060208201518160000160146101000a81548167ffffffffffffffff021916908367ffffffffffffffff160217905550905050600060018461149f9190612b28565b9050600073ffffffffffffffffffffffffffffffffffffffff166003600083815260200190815260200160002060000160009054906101000a900473ffffffffffffffffffffffffffffffffffffffff1673ffffffffffffffffffffffffffffffffffffffff1614156115e55761151581610fd5565b156115e4576040518060400160405280846000015173ffffffffffffffffffffffffffffffffffffffff168152602001846020015167ffffffffffffffff168152506003600083815260200190815260200160002060008201518160000160006101000a81548173ffffffffffffffffffffffffffffffffffffffff021916908373ffffffffffffffffffffffffffffffffffffffff16021790555060208201518160000160146101000a81548167ffffffffffffffff021916908367ffffffffffffffff1602179055509050505b5b838573ffffffffffffffffffffffffffffffffffffffff168773ffffffffffffffffffffffffffffffffffffffff167fddf252ad1be2c89b69c2b068fc378daa952ba7f163c4a11628f55a4df523b3ef60405160405180910390a461164d8686866001611b6d565b505050505050565b61165d611b86565b61166682610fd5565b6116a5576040517f08c379a000000000000000000000000000000000000000000000000000000000815260040161169c90612bf0565b60405180910390fd5b60007f000000000000000000000000000000000000000000000000000000000000000083106117095760017f0000000000000000000000000000000000000000000000000000000000000000846116fc9190612c10565b6117069190612b28565b90505b60008390505b818110611817576000600360008381526020019081526020016000206040518060400160405290816000820160009054906101000a900473ffffffffffffffffffffffffffffffffffffffff1673ffffffffffffffffffffffffffffffffffffffff1673ffffffffffffffffffffffffffffffffffffffff1681526020016000820160149054906101000a900467ffffffffffffffff1667ffffffffffffffff1667ffffffffffffffff16815250509050600073ffffffffffffffffffffffffffffffffffffffff16816000015173ffffffffffffffffffffffffffffffffffffffff161461180357809350505050611853565b50808061180f90612c44565b91505061170f565b506040517f08c379a000000000000000000000000000000000000000000000000000000000815260040161184a90612ce0565b60405180910390fd5b919050565b60006118798473ffffffffffffffffffffffffffffffffffffffff16611b73565b156119e2578373ffffffffffffffffffffffffffffffffffffffff1663150b7a026118a2610fe2565b8786866040518563ffffffff1660e01b81526004016118c49493929190612d55565b602060405180830381600087803b1580156118de57600080fd5b505af192505050801561190f57506040513d601f19601f8201168201806040525081019061190c9190612db6565b60015b611992573d806000811461193f576040519150601f19603f3d011682016040523d82523d6000602084013e611944565b606091505b5060008151141561198a576040517f08c379a0000000000000000000000000000000000000000000000000000000008152600401611981906127ca565b60405180910390fd5b805181602001fd5b63150b7a0260e01b7bffffffffffffffffffffffffffffffffffffffffffffffffffffffff1916817bffffffffffffffffffffffffffffffffffffffffffffffffffffffff1916149150506119e7565b600190505b949350505050565b606060405180602001604052806000815250905090565b60606000821415611a4e576040518060400160405280600181526020017f30000000000000000000000000000000000000000000000000000000000000008152509050611b62565b600082905060005b60008214611a80578080611a699061245b565b915050600a82611a799190612e12565b9150611a56565b60008167ffffffffffffffff811115611a9c57611a9b611f95565b5b6040519080825280601f01601f191660200182016040528015611ace5781602001600182028036833780820191505090505b5090505b60008514611b5b57600182611ae79190612c10565b9150600a85611af69190612e43565b6030611b029190612b28565b60f81b818381518110611b1857611b17612e74565b5b60200101907effffffffffffffffffffffffffffffffffffffffffffffffffffffffffffff1916908160001a905350600a85611b549190612e12565b9450611ad2565b8093505050505b919050565b50505050565b50505050565b600080823b905060008111915050919050565b6040518060400160405280600073ffffffffffffffffffffffffffffffffffffffff168152602001600067ffffffffffffffff1681525090565b6000604051905090565b600080fd5b600080fd5b60007fffffffff0000000000000000000000000000000000000000000000000000000082169050919050565b611c0981611bd4565b8114611c1457600080fd5b50565b600081359050611c2681611c00565b92915050565b600060208284031215611c4257611c41611bca565b5b6000611c5084828501611c17565b91505092915050565b60008115159050919050565b611c6e81611c59565b82525050565b6000602082019050611c896000830184611c65565b92915050565b600081519050919050565b600082825260208201905092915050565b60005b83811015611cc9578082015181840152602081019050611cae565b83811115611cd8576000848401525b50505050565b6000601f19601f8301169050919050565b6000611cfa82611c8f565b611d048185611c9a565b9350611d14818560208601611cab565b611d1d81611cde565b840191505092915050565b60006020820190508181036000830152611d428184611cef565b905092915050565b6000819050919050565b611d5d81611d4a565b8114611d6857600080fd5b50565b600081359050611d7a81611d54565b92915050565b600060208284031215611d9657611d95611bca565b5b6000611da484828501611d6b565b91505092915050565b600073ffffffffffffffffffffffffffffffffffffffff82169050919050565b6000611dd882611dad565b9050919050565b611de881611dcd565b82525050565b6000602082019050611e036000830184611ddf565b92915050565b611e1281611dcd565b8114611e1d57600080fd5b50565b600081359050611e2f81611e09565b92915050565b60008060408385031215611e4c57611e4b611bca565b5b6000611e5a85828601611e20565b9250506020611e6b85828601611d6b565b9150509250929050565b611e7e81611d4a565b82525050565b6000602082019050611e996000830184611e75565b92915050565b600080600060608486031215611eb857611eb7611bca565b5b6000611ec686828701611e20565b9350506020611ed786828701611e20565b9250506040611ee886828701611d6b565b9150509250925092565b600060208284031215611f0857611f07611bca565b5b6000611f1684828501611e20565b91505092915050565b611f2881611c59565b8114611f3357600080fd5b50565b600081359050611f4581611f1f565b92915050565b60008060408385031215611f6257611f61611bca565b5b6000611f7085828601611e20565b9250506020611f8185828601611f36565b9150509250929050565b600080fd5b600080fd5b7f4e487b7100000000000000000000000000000000000000000000000000000000600052604160045260246000fd5b611fcd82611cde565b810181811067ffffffffffffffff82111715611fec57611feb611f95565b5b80604052505050565b6000611fff611bc0565b905061200b8282611fc4565b919050565b600067ffffffffffffffff82111561202b5761202a611f95565b5b61203482611cde565b9050602081019050919050565b82818337600083830152505050565b600061206361205e84612010565b611ff5565b90508281526020810184848401111561207f5761207e611f90565b5b61208a848285612041565b509392505050565b600082601f8301126120a7576120a6611f8b565b5b81356120b7848260208601612050565b91505092915050565b600080600080608085870312156120da576120d9611bca565b5b60006120e887828801611e20565b94505060206120f987828801611e20565b935050604061210a87828801611d6b565b925050606085013567ffffffffffffffff81111561212b5761212a611bcf565b5b61213787828801612092565b91505092959194509250565b6000806040838503121561215a57612159611bca565b5b600061216885828601611e20565b925050602061217985828601611e20565b9150509250929050565b7f4e487b7100000000000000000000000000000000000000000000000000000000600052602260045260246000fd5b600060028204905060018216806121ca57607f821691505b602082108114156121de576121dd612183565b5b50919050565b7f455243373231413a20617070726f76656420717565727920666f72206e6f6e6560008201527f78697374656e7420746f6b656e00000000000000000000000000000000000000602082015250565b6000612240602d83611c9a565b915061224b826121e4565b604082019050919050565b6000602082019050818103600083015261226f81612233565b9050919050565b7f455243373231413a20617070726f76616c20746f2063757272656e74206f776e60008201527f6572000000000000000000000000000000000000000000000000000000000000602082015250565b60006122d2602283611c9a565b91506122dd82612276565b604082019050919050565b60006020820190508181036000830152612301816122c5565b9050919050565b7f455243373231413a20617070726f76652063616c6c6572206973206e6f74206f60008201527f776e6572206e6f7220617070726f76656420666f7220616c6c00000000000000602082015250565b6000612364603983611c9a565b915061236f82612308565b604082019050919050565b6000602082019050818103600083015261239381612357565b9050919050565b7f455243373231413a206f776e657220696e646578206f7574206f6620626f756e60008201527f6473000000000000000000000000000000000000000000000000000000000000602082015250565b60006123f6602283611c9a565b91506124018261239a565b604082019050919050565b60006020820190508181036000830152612425816123e9565b9050919050565b7f4e487b7100000000000000000000000000000000000000000000000000000000600052601160045260246000fd5b600061246682611d4a565b91507fffffffffffffffffffffffffffffffffffffffffffffffffffffffffffffffff8214156124995761249861242c565b5b600182019050919050565b7f455243373231413a20756e61626c6520746f2067657420746f6b656e206f662060008201527f6f776e657220627920696e646578000000000000000000000000000000000000602082015250565b6000612500602e83611c9a565b915061250b826124a4565b604082019050919050565b6000602082019050818103600083015261252f816124f3565b9050919050565b7f455243373231413a206e756d626572206d696e74656420717565727920666f7260008201527f20746865207a65726f2061646472657373000000000000000000000000000000602082015250565b6000612592603183611c9a565b915061259d82612536565b604082019050919050565b600060208201905081810360008301526125c181612585565b9050919050565b7f455243373231413a20676c6f62616c20696e646578206f7574206f6620626f7560008201527f6e64730000000000000000000000000000000000000000000000000000000000602082015250565b6000612624602383611c9a565b915061262f826125c8565b604082019050919050565b6000602082019050818103600083015261265381612617565b9050919050565b7f455243373231413a2062616c616e636520717565727920666f7220746865207a60008201527f65726f2061646472657373000000000000000000000000000000000000000000602082015250565b60006126b6602b83611c9a565b91506126c18261265a565b604082019050919050565b600060208201905081810360008301526126e5816126a9565b9050919050565b7f455243373231413a20617070726f766520746f2063616c6c6572000000000000600082015250565b6000612722601a83611c9a565b915061272d826126ec565b602082019050919050565b6000602082019050818103600083015261275181612715565b9050919050565b7f455243373231413a207472616e7366657220746f206e6f6e204552433732315260008201527f6563656976657220696d706c656d656e74657200000000000000000000000000602082015250565b60006127b4603383611c9a565b91506127bf82612758565b604082019050919050565b600060208201905081810360008301526127e3816127a7565b9050919050565b7f4552433732314d657461646174613a2055524920717565727920666f72206e6f60008201527f6e6578697374656e7420746f6b656e0000000000000000000000000000000000602082015250565b6000612846602f83611c9a565b9150612851826127ea565b604082019050919050565b6000602082019050818103600083015261287581612839565b9050919050565b600081905092915050565b600061289282611c8f565b61289c818561287c565b93506128ac818560208601611cab565b80840191505092915050565b60006128c48285612887565b91506128d08284612887565b91508190509392505050565b7f455243373231413a207472616e736665722063616c6c6572206973206e6f742060008201527f6f776e6572206e6f7220617070726f7665640000000000000000000000000000602082015250565b6000612938603283611c9a565b9150612943826128dc565b604082019050919050565b600060208201905081810360008301526129678161292b565b9050919050565b7f455243373231413a207472616e736665722066726f6d20696e636f727265637460008201527f206f776e65720000000000000000000000000000000000000000000000000000602082015250565b60006129ca602683611c9a565b91506129d58261296e565b604082019050919050565b600060208201905081810360008301526129f9816129bd565b9050919050565b7f455243373231413a207472616e7366657220746f20746865207a65726f20616460008201527f6472657373000000000000000000000000000000000000000000000000000000602082015250565b6000612a5c602583611c9a565b9150612a6782612a00565b604082019050919050565b60006020820190508181036000830152612a8b81612a4f565b9050919050565b60006fffffffffffffffffffffffffffffffff82169050919050565b6000612ab982612a92565b9150612ac483612a92565b925082821015612ad757612ad661242c565b5b828203905092915050565b6000612aed82612a92565b9150612af883612a92565b9250826fffffffffffffffffffffffffffffffff03821115612b1d57612b1c61242c565b5b828201905092915050565b6000612b3382611d4a565b9150612b3e83611d4a565b9250827fffffffffffffffffffffffffffffffffffffffffffffffffffffffffffffffff03821115612b7357612b7261242c565b5b828201905092915050565b7f455243373231413a206f776e657220717565727920666f72206e6f6e6578697360008201527f74656e7420746f6b656e00000000000000000000000000000000000000000000602082015250565b6000612bda602a83611c9a565b9150612be582612b7e565b604082019050919050565b60006020820190508181036000830152612c0981612bcd565b9050919050565b6000612c1b82611d4a565b9150612c2683611d4a565b925082821015612c3957612c3861242c565b5b828203905092915050565b6000612c4f82611d4a565b91506000821415612c6357612c6261242c565b5b600182039050919050565b7f455243373231413a20756e61626c6520746f2064657465726d696e652074686560008201527f206f776e6572206f6620746f6b656e0000000000000000000000000000000000602082015250565b6000612cca602f83611c9a565b9150612cd582612c6e565b604082019050919050565b60006020820190508181036000830152612cf981612cbd565b9050919050565b600081519050919050565b600082825260208201905092915050565b6000612d2782612d00565b612d318185612d0b565b9350612d41818560208601611cab565b612d4a81611cde565b840191505092915050565b6000608082019050612d6a6000830187611ddf565b612d776020830186611ddf565b612d846040830185611e75565b8181036060830152612d968184612d1c565b905095945050505050565b600081519050612db081611c00565b92915050565b600060208284031215612dcc57612dcb611bca565b5b6000612dda84828501612da1565b91505092915050565b7f4e487b7100000000000000000000000000000000000000000000000000000000600052601260045260246000fd5b6000612e1d82611d4a565b9150612e2883611d4a565b925082612e3857612e37612de3565b5b828204905092915050565b6000612e4e82611d4a565b9150612e5983611d4a565b925082612e6957612e68612de3565b5b828206905092915050565b7f4e487b7100000000000000000000000000000000000000000000000000000000600052603260045260246000fdfea264697066735822122039e094e7af29809628f3451d9f4c58c8ef8151e5890561932a83111458889f4d64736f6c63430008090033",
  "immutableReferences": {
    "938": [
      {
        "length": 32,
        "start": 5801
      },
      {
        "length": 32,
        "start": 5842
      }
    ]
  },
  "source": "// SPDX-License-Identifier: MIT\n\npragma solidity ^0.8.0;\n\nimport \"@openzeppelin/contracts/token/ERC721/IERC721.sol\";\nimport \"@openzeppelin/contracts/token/ERC721/IERC721Receiver.sol\";\nimport \"@openzeppelin/contracts/token/ERC721/extensions/IERC721Metadata.sol\";\nimport \"@openzeppelin/contracts/token/ERC721/extensions/IERC721Enumerable.sol\";\nimport \"@openzeppelin/contracts/utils/Address.sol\";\nimport \"@openzeppelin/contracts/utils/Context.sol\";\nimport \"@openzeppelin/contracts/utils/Strings.sol\";\nimport \"@openzeppelin/contracts/utils/introspection/ERC165.sol\";\n\n/**\n * @dev Implementation of https://eips.ethereum.org/EIPS/eip-721[ERC721] Non-Fungible Token Standard, including\n * the Metadata and Enumerable extension. Built to optimize for lower gas during batch mints.\n *\n * Assumes serials are sequentially minted starting at 0 (e.g. 0, 1, 2, 3..).\n *\n * Assumes the number of issuable tokens (collection size) is capped and fits in a uint128.\n *\n * Does not support burning tokens to address(0).\n */\ncontract ERC721A is\n    Context,\n    ERC165,\n    IERC721,\n    IERC721Metadata,\n    IERC721Enumerable\n{\n    using Address for address;\n    using Strings for uint256;\n\n    struct TokenOwnership {\n        address addr;\n        uint64 startTimestamp;\n    }\n\n    struct AddressData {\n        uint128 balance;\n        uint128 numberMinted;\n    }\n\n    uint256 private currentIndex = 0;\n\n    uint256 internal immutable collectionSize;\n    uint256 internal immutable maxBatchSize;\n\n    // Token name\n    string private _name;\n\n    // Token symbol\n    string private _symbol;\n\n    // Mapping from token ID to ownership details\n    // An empty struct value does not necessarily mean the token is unowned. See ownershipOf implementation for details.\n    mapping(uint256 => TokenOwnership) internal _ownerships;\n\n    // Mapping owner address to address data\n    mapping(address => AddressData) internal _addressData;\n\n    // Mapping from token ID to approved address\n    mapping(uint256 => address) private _tokenApprovals;\n\n    // Mapping from owner to operator approvals\n    mapping(address => mapping(address => bool)) private _operatorApprovals;\n\n    /**\n     * @dev\n     * `maxBatchSize` refers to how much a minter can mint at a time.\n     * `collectionSize_` refers to how many tokens are in the collection.\n     */\n    constructor(\n        string memory name_,\n        string memory symbol_,\n        uint256 maxBatchSize_,\n        uint256 collectionSize_\n    ) {\n        require(\n            collectionSize_ > 0,\n            \"ERC721A: collection must have a nonzero supply\"\n        );\n        require(maxBatchSize_ > 0, \"ERC721A: max batch size must be nonzero\");\n        _name = name_;\n        _symbol = symbol_;\n        maxBatchSize = maxBatchSize_;\n        collectionSize = collectionSize_;\n    }\n\n    /**\n     * @dev See {IERC721Enumerable-totalSupply}.\n     */\n    function totalSupply() public view override returns (uint256) {\n        return currentIndex;\n    }\n\n    /**\n     * @dev See {IERC721Enumerable-tokenByIndex}.\n     */\n    function tokenByIndex(uint256 index)\n        public\n        view\n        override\n        returns (uint256)\n    {\n        require(index < totalSupply(), \"ERC721A: global index out of bounds\");\n        return index;\n    }\n\n    /**\n     * @dev See {IERC721Enumerable-tokenOfOwnerByIndex}.\n     * This read function is O(collectionSize). If calling from a separate contract, be sure to test gas first.\n     * It may also degrade with extremely large collection sizes (e.g >> 10000), test for your use case.\n     */\n    function tokenOfOwnerByIndex(address owner, uint256 index)\n        public\n        view\n        override\n        returns (uint256)\n    {\n        require(index < balanceOf(owner), \"ERC721A: owner index out of bounds\");\n        uint256 numMintedSoFar = totalSupply();\n        uint256 tokenIdsIdx = 0;\n        address currOwnershipAddr = address(0);\n        for (uint256 i = 0; i < numMintedSoFar; i++) {\n            TokenOwnership memory ownership = _ownerships[i];\n            if (ownership.addr != address(0)) {\n                currOwnershipAddr = ownership.addr;\n            }\n            if (currOwnershipAddr == owner) {\n                if (tokenIdsIdx == index) {\n                    return i;\n                }\n                tokenIdsIdx++;\n            }\n        }\n        revert(\"ERC721A: unable to get token of owner by index\");\n    }\n\n    /**\n     * @dev See {IERC165-supportsInterface}.\n     */\n    function supportsInterface(bytes4 interfaceId)\n        public\n        view\n        virtual\n        override(ERC165, IERC165)\n        returns (bool)\n    {\n        return\n            interfaceId == type(IERC721).interfaceId ||\n            interfaceId == type(IERC721Metadata).interfaceId ||\n            interfaceId == type(IERC721Enumerable).interfaceId ||\n            super.supportsInterface(interfaceId);\n    }\n\n    /**\n     * @dev See {IERC721-balanceOf}.\n     */\n    function balanceOf(address owner) public view override returns (uint256) {\n        require(\n            owner != address(0),\n            \"ERC721A: balance query for the zero address\"\n        );\n        return uint256(_addressData[owner].balance);\n    }\n\n    function _numberMinted(address owner) public view returns (uint256) {\n        require(\n            owner != address(0),\n            \"ERC721A: number minted query for the zero address\"\n        );\n        return uint256(_addressData[owner].numberMinted);\n    }\n\n    function ownershipOf(uint256 tokenId)\n        internal\n        view\n        returns (TokenOwnership memory)\n    {\n        require(_exists(tokenId), \"ERC721A: owner query for nonexistent token\");\n\n        uint256 lowestTokenToCheck;\n        if (tokenId >= maxBatchSize) {\n            lowestTokenToCheck = tokenId - maxBatchSize + 1;\n        }\n\n        for (uint256 curr = tokenId; curr >= lowestTokenToCheck; curr--) {\n            TokenOwnership memory ownership = _ownerships[curr];\n            if (ownership.addr != address(0)) {\n                return ownership;\n            }\n        }\n\n        revert(\"ERC721A: unable to determine the owner of token\");\n    }\n\n    /**\n     * @dev See {IERC721-ownerOf}.\n     */\n    function ownerOf(uint256 tokenId) public view override returns (address) {\n        return ownershipOf(tokenId).addr;\n    }\n\n    /**\n     * @dev See {IERC721Metadata-name}.\n     */\n    function name() public view virtual override returns (string memory) {\n        return _name;\n    }\n\n    /**\n     * @dev See {IERC721Metadata-symbol}.\n     */\n    function symbol() public view virtual override returns (string memory) {\n        return _symbol;\n    }\n\n    /**\n     * @dev See {IERC721Metadata-tokenURI}.\n     */\n    function tokenURI(uint256 tokenId)\n        public\n        view\n        virtual\n        override\n        returns (string memory)\n    {\n        require(\n            _exists(tokenId),\n            \"ERC721Metadata: URI query for nonexistent token\"\n        );\n\n        string memory baseURI = _baseURI();\n        return\n            bytes(baseURI).length > 0\n                ? string(abi.encodePacked(baseURI, tokenId.toString()))\n                : \"\";\n    }\n\n    /**\n     * @dev Base URI for computing {tokenURI}. If set, the resulting URI for each\n     * token will be the concatenation of the `baseURI` and the `tokenId`. Empty\n     * by default, can be overriden in child contracts.\n     */\n    function _baseURI() internal view virtual returns (string memory) {\n        return \"\";\n    }\n\n    /**\n     * @dev See {IERC721-approve}.\n     */\n    function approve(address to, uint256 tokenId) public override {\n        address owner = ERC721A.ownerOf(tokenId);\n        require(to != owner, \"ERC721A: approval to current owner\");\n\n        require(\n            _msgSender() == owner || isApprovedForAll(owner, _msgSender()),\n            \"ERC721A: approve caller is not owner nor approved for all\"\n        );\n\n        _approve(to, tokenId, owner);\n    }\n\n    /**\n     * @dev See {IERC721-getApproved}.\n     */\n    function getApproved(uint256 tokenId)\n        public\n        view\n        override\n        returns (address)\n    {\n        require(\n            _exists(tokenId),\n            \"ERC721A: approved query for nonexistent token\"\n        );\n\n        return _tokenApprovals[tokenId];\n    }\n\n    /**\n     * @dev See {IERC721-setApprovalForAll}.\n     */\n    function setApprovalForAll(address operator, bool approved)\n        public\n        override\n    {\n        require(operator != _msgSender(), \"ERC721A: approve to caller\");\n\n        _operatorApprovals[_msgSender()][operator] = approved;\n        emit ApprovalForAll(_msgSender(), operator, approved);\n    }\n\n    /**\n     * @dev See {IERC721-isApprovedForAll}.\n     */\n    function isApprovedForAll(address owner, address operator)\n        public\n        view\n        virtual\n        override\n        returns (bool)\n    {\n        return _operatorApprovals[owner][operator];\n    }\n\n    /**\n     * @dev See {IERC721-transferFrom}.\n     */\n    function transferFrom(\n        address from,\n        address to,\n        uint256 tokenId\n    ) public override {\n        _transfer(from, to, tokenId);\n    }\n\n    /**\n     * @dev See {IERC721-safeTransferFrom}.\n     */\n    function safeTransferFrom(\n        address from,\n        address to,\n        uint256 tokenId\n    ) public override {\n        safeTransferFrom(from, to, tokenId, \"\");\n    }\n\n    /**\n     * @dev See {IERC721-safeTransferFrom}.\n     */\n    function safeTransferFrom(\n        address from,\n        address to,\n        uint256 tokenId,\n        bytes memory _data\n    ) public override {\n        _transfer(from, to, tokenId);\n        require(\n            _checkOnERC721Received(from, to, tokenId, _data),\n            \"ERC721A: transfer to non ERC721Receiver implementer\"\n        );\n    }\n\n    /**\n     * @dev Returns whether `tokenId` exists.\n     *\n     * Tokens can be managed by their owner or approved accounts via {approve} or {setApprovalForAll}.\n     *\n     * Tokens start existing when they are minted (`_mint`),\n     */\n    function _exists(uint256 tokenId) internal view returns (bool) {\n        return tokenId < currentIndex;\n    }\n\n    function _safeMint(address to, uint256 quantity) internal {\n        _safeMint(to, quantity, \"\");\n    }\n\n    /**\n     * @dev Mints `quantity` tokens and transfers them to `to`.\n     *\n     * Requirements:\n     *\n     * - there must be `quantity` tokens remaining unminted in the total collection.\n     * - `to` cannot be the zero address.\n     * - `quantity` cannot be larger than the max batch size.\n     *\n     * Emits a {Transfer} event.\n     */\n    function _safeMint(\n        address to,\n        uint256 quantity,\n        bytes memory _data\n    ) internal {\n        uint256 startTokenId = currentIndex;\n        require(to != address(0), \"ERC721A: mint to the zero address\");\n        // We know if the first token in the batch doesn't exist, the other ones don't as well, because of serial ordering.\n        require(!_exists(startTokenId), \"ERC721A: token already minted\");\n        require(quantity <= maxBatchSize, \"ERC721A: quantity to mint too high\");\n\n        _beforeTokenTransfers(address(0), to, startTokenId, quantity);\n\n        AddressData memory addressData = _addressData[to];\n        _addressData[to] = AddressData(\n            addressData.balance + uint128(quantity),\n            addressData.numberMinted + uint128(quantity)\n        );\n        _ownerships[startTokenId] = TokenOwnership(to, uint64(block.timestamp));\n\n        uint256 updatedIndex = startTokenId;\n\n        for (uint256 i = 0; i < quantity; i++) {\n            emit Transfer(address(0), to, updatedIndex);\n            require(\n                _checkOnERC721Received(address(0), to, updatedIndex, _data),\n                \"ERC721A: transfer to non ERC721Receiver implementer\"\n            );\n            updatedIndex++;\n        }\n\n        currentIndex = updatedIndex;\n        _afterTokenTransfers(address(0), to, startTokenId, quantity);\n    }\n\n    /**\n     * @dev Transfers `tokenId` from `from` to `to`.\n     *\n     * Requirements:\n     *\n     * - `to` cannot be the zero address.\n     * - `tokenId` token must be owned by `from`.\n     *\n     * Emits a {Transfer} event.\n     */\n    function _transfer(\n        address from,\n        address to,\n        uint256 tokenId\n    ) private {\n        TokenOwnership memory prevOwnership = ownershipOf(tokenId);\n\n        bool isApprovedOrOwner = (_msgSender() == prevOwnership.addr ||\n            getApproved(tokenId) == _msgSender() ||\n            isApprovedForAll(prevOwnership.addr, _msgSender()));\n\n        require(\n            isApprovedOrOwner,\n            \"ERC721A: transfer caller is not owner nor approved\"\n        );\n\n        require(\n            prevOwnership.addr == from,\n            \"ERC721A: transfer from incorrect owner\"\n        );\n        require(to != address(0), \"ERC721A: transfer to the zero address\");\n\n        _beforeTokenTransfers(from, to, tokenId, 1);\n\n        // Clear approvals from the previous owner\n        _approve(address(0), tokenId, prevOwnership.addr);\n\n        _addressData[from].balance -= 1;\n        _addressData[to].balance += 1;\n        _ownerships[tokenId] = TokenOwnership(to, uint64(block.timestamp));\n\n        // If the ownership slot of tokenId+1 is not explicitly set, that means the transfer initiator owns it.\n        // Set the slot of tokenId+1 explicitly in storage to maintain correctness for ownerOf(tokenId+1) calls.\n        uint256 nextTokenId = tokenId + 1;\n        if (_ownerships[nextTokenId].addr == address(0)) {\n            if (_exists(nextTokenId)) {\n                _ownerships[nextTokenId] = TokenOwnership(\n                    prevOwnership.addr,\n                    prevOwnership.startTimestamp\n                );\n            }\n        }\n\n        emit Transfer(from, to, tokenId);\n        _afterTokenTransfers(from, to, tokenId, 1);\n    }\n\n    /**\n     * @dev Approve `to` to operate on `tokenId`\n     *\n     * Emits a {Approval} event.\n     */\n    function _approve(\n        address to,\n        uint256 tokenId,\n        address owner\n    ) private {\n        _tokenApprovals[tokenId] = to;\n        emit Approval(owner, to, tokenId);\n    }\n\n    uint256 public nextOwnerToExplicitlySet = 0;\n\n    /**\n     * @dev Explicitly set `owners` to eliminate loops in future calls of ownerOf().\n     */\n    function _setOwnersExplicit(uint256 quantity) internal {\n        uint256 oldNextOwnerToSet = nextOwnerToExplicitlySet;\n        require(quantity > 0, \"quantity must be nonzero\");\n        uint256 endIndex = oldNextOwnerToSet + quantity - 1;\n        if (endIndex > collectionSize - 1) {\n            endIndex = collectionSize - 1;\n        }\n        // We know if the last one in the group exists, all in the group exist, due to serial ordering.\n        require(_exists(endIndex), \"not enough minted yet for this cleanup\");\n        for (uint256 i = oldNextOwnerToSet; i <= endIndex; i++) {\n            if (_ownerships[i].addr == address(0)) {\n                TokenOwnership memory ownership = ownershipOf(i);\n                _ownerships[i] = TokenOwnership(\n                    ownership.addr,\n                    ownership.startTimestamp\n                );\n            }\n        }\n        nextOwnerToExplicitlySet = endIndex + 1;\n    }\n\n    /**\n     * @dev Internal function to invoke {IERC721Receiver-onERC721Received} on a target address.\n     * The call is not executed if the target address is not a contract.\n     *\n     * @param from address representing the previous owner of the given token ID\n     * @param to target address that will receive the tokens\n     * @param tokenId uint256 ID of the token to be transferred\n     * @param _data bytes optional data to send along with the call\n     * @return bool whether the call correctly returned the expected magic value\n     */\n    function _checkOnERC721Received(\n        address from,\n        address to,\n        uint256 tokenId,\n        bytes memory _data\n    ) private returns (bool) {\n        if (to.isContract()) {\n            try\n                IERC721Receiver(to).onERC721Received(\n                    _msgSender(),\n                    from,\n                    tokenId,\n                    _data\n                )\n            returns (bytes4 retval) {\n                return retval == IERC721Receiver(to).onERC721Received.selector;\n            } catch (bytes memory reason) {\n                if (reason.length == 0) {\n                    revert(\n                        \"ERC721A: transfer to non ERC721Receiver implementer\"\n                    );\n                } else {\n                    assembly {\n                        revert(add(32, reason), mload(reason))\n                    }\n                }\n            }\n        } else {\n            return true;\n        }\n    }\n\n    /**\n     * @dev Hook that is called before a set of serially-ordered token ids are about to be transferred. This includes minting.\n     *\n     * startTokenId - the first token id to be transferred\n     * quantity - the amount to be transferred\n     *\n     * Calling conditions:\n     *\n     * - When `from` and `to` are both non-zero, ``from``'s `tokenId` will be\n     * transferred to `to`.\n     * - When `from` is zero, `tokenId` will be minted for `to`.\n     */\n    function _beforeTokenTransfers(\n        address from,\n        address to,\n        uint256 startTokenId,\n        uint256 quantity\n    ) internal virtual {}\n\n    /**\n     * @dev Hook that is called after a set of serially-ordered token ids have been transferred. This includes\n     * minting.\n     *\n     * startTokenId - the first token id to be transferred\n     * quantity - the amount to be transferred\n     *\n     * Calling conditions:\n     *\n     * - when `from` and `to` are both non-zero.\n     * - `from` and `to` are never both zero.\n     */\n    function _afterTokenTransfers(\n        address from,\n        address to,\n        uint256 startTokenId,\n        uint256 quantity\n    ) internal virtual {}\n}\n",
  "sourcePath": "/Users/christopherfoley/nft/YetiPunks/src/contracts/ERC721A.sol",
  "compiler": {
    "name": "solc",
    "version": "0.8.9+commit.e5eed63a.Emscripten.clang"
  },
  "schemaVersion": "3.4.4",
  "updatedAt": "2022-02-12T17:41:41.502Z",
  "devdoc": {
    "details": "Implementation of https://eips.ethereum.org/EIPS/eip-721[ERC721] Non-Fungible Token Standard, including the Metadata and Enumerable extension. Built to optimize for lower gas during batch mints. Assumes serials are sequentially minted starting at 0 (e.g. 0, 1, 2, 3..). Assumes the number of issuable tokens (collection size) is capped and fits in a uint128. Does not support burning tokens to address(0).",
    "kind": "dev",
    "methods": {
      "approve(address,uint256)": {
        "details": "See {IERC721-approve}."
      },
      "balanceOf(address)": {
        "details": "See {IERC721-balanceOf}."
      },
      "constructor": {
        "details": "`maxBatchSize` refers to how much a minter can mint at a time. `collectionSize_` refers to how many tokens are in the collection."
      },
      "getApproved(uint256)": {
        "details": "See {IERC721-getApproved}."
      },
      "isApprovedForAll(address,address)": {
        "details": "See {IERC721-isApprovedForAll}."
      },
      "name()": {
        "details": "See {IERC721Metadata-name}."
      },
      "ownerOf(uint256)": {
        "details": "See {IERC721-ownerOf}."
      },
      "safeTransferFrom(address,address,uint256)": {
        "details": "See {IERC721-safeTransferFrom}."
      },
      "safeTransferFrom(address,address,uint256,bytes)": {
        "details": "See {IERC721-safeTransferFrom}."
      },
      "setApprovalForAll(address,bool)": {
        "details": "See {IERC721-setApprovalForAll}."
      },
      "supportsInterface(bytes4)": {
        "details": "See {IERC165-supportsInterface}."
      },
      "symbol()": {
        "details": "See {IERC721Metadata-symbol}."
      },
      "tokenByIndex(uint256)": {
        "details": "See {IERC721Enumerable-tokenByIndex}."
      },
      "tokenOfOwnerByIndex(address,uint256)": {
        "details": "See {IERC721Enumerable-tokenOfOwnerByIndex}. This read function is O(collectionSize). If calling from a separate contract, be sure to test gas first. It may also degrade with extremely large collection sizes (e.g >> 10000), test for your use case."
      },
      "tokenURI(uint256)": {
        "details": "See {IERC721Metadata-tokenURI}."
      },
      "totalSupply()": {
        "details": "See {IERC721Enumerable-totalSupply}."
      },
      "transferFrom(address,address,uint256)": {
        "details": "See {IERC721-transferFrom}."
      }
    },
    "version": 1
  },
  "userdoc": {
    "kind": "user",
    "methods": {},
    "version": 1
  }
}