{
  "contractName": "ERC721A",
  "abi": [
    {
      "inputs": [
        {
          "internalType": "string",
          "name": "name_",
          "type": "string"
        },
        {
          "internalType": "string",
          "name": "symbol_",
          "type": "string"
        },
        {
          "internalType": "uint256",
          "name": "maxBatchSize_",
          "type": "uint256"
        },
        {
          "internalType": "uint256",
          "name": "collectionSize_",
          "type": "uint256"
        }
      ],
      "stateMutability": "nonpayable",
      "type": "constructor"
    },
    {
      "anonymous": false,
      "inputs": [
        {
          "indexed": true,
          "internalType": "address",
          "name": "owner",
          "type": "address"
        },
        {
          "indexed": true,
          "internalType": "address",
          "name": "approved",
          "type": "address"
        },
        {
          "indexed": true,
          "internalType": "uint256",
          "name": "tokenId",
          "type": "uint256"
        }
      ],
      "name": "Approval",
      "type": "event"
    },
    {
      "anonymous": false,
      "inputs": [
        {
          "indexed": true,
          "internalType": "address",
          "name": "owner",
          "type": "address"
        },
        {
          "indexed": true,
          "internalType": "address",
          "name": "operator",
          "type": "address"
        },
        {
          "indexed": false,
          "internalType": "bool",
          "name": "approved",
          "type": "bool"
        }
      ],
      "name": "ApprovalForAll",
      "type": "event"
    },
    {
      "anonymous": false,
      "inputs": [
        {
          "indexed": true,
          "internalType": "address",
          "name": "from",
          "type": "address"
        },
        {
          "indexed": true,
          "internalType": "address",
          "name": "to",
          "type": "address"
        },
        {
          "indexed": true,
          "internalType": "uint256",
          "name": "tokenId",
          "type": "uint256"
        }
      ],
      "name": "Transfer",
      "type": "event"
    },
    {
      "inputs": [],
      "name": "nextOwnerToExplicitlySet",
      "outputs": [
        {
          "internalType": "uint256",
          "name": "",
          "type": "uint256"
        }
      ],
      "stateMutability": "view",
      "type": "function"
    },
    {
      "inputs": [],
      "name": "totalSupply",
      "outputs": [
        {
          "internalType": "uint256",
          "name": "",
          "type": "uint256"
        }
      ],
      "stateMutability": "view",
      "type": "function"
    },
    {
      "inputs": [
        {
          "internalType": "uint256",
          "name": "index",
          "type": "uint256"
        }
      ],
      "name": "tokenByIndex",
      "outputs": [
        {
          "internalType": "uint256",
          "name": "",
          "type": "uint256"
        }
      ],
      "stateMutability": "view",
      "type": "function"
    },
    {
      "inputs": [
        {
          "internalType": "address",
          "name": "owner",
          "type": "address"
        },
        {
          "internalType": "uint256",
          "name": "index",
          "type": "uint256"
        }
      ],
      "name": "tokenOfOwnerByIndex",
      "outputs": [
        {
          "internalType": "uint256",
          "name": "",
          "type": "uint256"
        }
      ],
      "stateMutability": "view",
      "type": "function"
    },
    {
      "inputs": [
        {
          "internalType": "bytes4",
          "name": "interfaceId",
          "type": "bytes4"
        }
      ],
      "name": "supportsInterface",
      "outputs": [
        {
          "internalType": "bool",
          "name": "",
          "type": "bool"
        }
      ],
      "stateMutability": "view",
      "type": "function"
    },
    {
      "inputs": [
        {
          "internalType": "address",
          "name": "owner",
          "type": "address"
        }
      ],
      "name": "balanceOf",
      "outputs": [
        {
          "internalType": "uint256",
          "name": "",
          "type": "uint256"
        }
      ],
      "stateMutability": "view",
      "type": "function"
    },
    {
      "inputs": [
        {
          "internalType": "uint256",
          "name": "tokenId",
          "type": "uint256"
        }
      ],
      "name": "ownerOf",
      "outputs": [
        {
          "internalType": "address",
          "name": "",
          "type": "address"
        }
      ],
      "stateMutability": "view",
      "type": "function"
    },
    {
      "inputs": [],
      "name": "name",
      "outputs": [
        {
          "internalType": "string",
          "name": "",
          "type": "string"
        }
      ],
      "stateMutability": "view",
      "type": "function"
    },
    {
      "inputs": [],
      "name": "symbol",
      "outputs": [
        {
          "internalType": "string",
          "name": "",
          "type": "string"
        }
      ],
      "stateMutability": "view",
      "type": "function"
    },
    {
      "inputs": [
        {
          "internalType": "uint256",
          "name": "tokenId",
          "type": "uint256"
        }
      ],
      "name": "tokenURI",
      "outputs": [
        {
          "internalType": "string",
          "name": "",
          "type": "string"
        }
      ],
      "stateMutability": "view",
      "type": "function"
    },
    {
      "inputs": [
        {
          "internalType": "address",
          "name": "to",
          "type": "address"
        },
        {
          "internalType": "uint256",
          "name": "tokenId",
          "type": "uint256"
        }
      ],
      "name": "approve",
      "outputs": [],
      "stateMutability": "nonpayable",
      "type": "function"
    },
    {
      "inputs": [
        {
          "internalType": "uint256",
          "name": "tokenId",
          "type": "uint256"
        }
      ],
      "name": "getApproved",
      "outputs": [
        {
          "internalType": "address",
          "name": "",
          "type": "address"
        }
      ],
      "stateMutability": "view",
      "type": "function"
    },
    {
      "inputs": [
        {
          "internalType": "address",
          "name": "operator",
          "type": "address"
        },
        {
          "internalType": "bool",
          "name": "approved",
          "type": "bool"
        }
      ],
      "name": "setApprovalForAll",
      "outputs": [],
      "stateMutability": "nonpayable",
      "type": "function"
    },
    {
      "inputs": [
        {
          "internalType": "address",
          "name": "owner",
          "type": "address"
        },
        {
          "internalType": "address",
          "name": "operator",
          "type": "address"
        }
      ],
      "name": "isApprovedForAll",
      "outputs": [
        {
          "internalType": "bool",
          "name": "",
          "type": "bool"
        }
      ],
      "stateMutability": "view",
      "type": "function"
    },
    {
      "inputs": [
        {
          "internalType": "address",
          "name": "from",
          "type": "address"
        },
        {
          "internalType": "address",
          "name": "to",
          "type": "address"
        },
        {
          "internalType": "uint256",
          "name": "tokenId",
          "type": "uint256"
        }
      ],
      "name": "transferFrom",
      "outputs": [],
      "stateMutability": "nonpayable",
      "type": "function"
    },
    {
      "inputs": [
        {
          "internalType": "address",
          "name": "from",
          "type": "address"
        },
        {
          "internalType": "address",
          "name": "to",
          "type": "address"
        },
        {
          "internalType": "uint256",
          "name": "tokenId",
          "type": "uint256"
        }
      ],
      "name": "safeTransferFrom",
      "outputs": [],
      "stateMutability": "nonpayable",
      "type": "function"
    },
    {
      "inputs": [
        {
          "internalType": "address",
          "name": "from",
          "type": "address"
        },
        {
          "internalType": "address",
          "name": "to",
          "type": "address"
        },
        {
          "internalType": "uint256",
          "name": "tokenId",
          "type": "uint256"
        },
        {
          "internalType": "bytes",
          "name": "_data",
          "type": "bytes"
        }
      ],
      "name": "safeTransferFrom",
      "outputs": [],
      "stateMutability": "nonpayable",
      "type": "function"
    }
  ],
  "bytecode": "0x60c06040526000805560006007553480156200001a57600080fd5b5060405162003343380380620033438339818101604052810190620000409190620003a0565b6000811162000086576040517f08c379a00000000000000000000000000000000000000000000000000000000081526004016200007d90620004d7565b60405180910390fd5b60008211620000cc576040517f08c379a0000000000000000000000000000000000000000000000000000000008152600401620000c3906200056f565b60405180910390fd5b8360019080519060200190620000e492919062000118565b508260029080519060200190620000fd92919062000118565b508160a08181525050806080818152505050505050620005f6565b8280546200012690620005c0565b90600052602060002090601f0160209004810192826200014a576000855562000196565b82601f106200016557805160ff191683800117855562000196565b8280016001018555821562000196579182015b828111156200019557825182559160200191906001019062000178565b5b509050620001a59190620001a9565b5090565b5b80821115620001c4576000816000905550600101620001aa565b5090565b6000604051905090565b600080fd5b600080fd5b600080fd5b600080fd5b6000601f19601f8301169050919050565b7f4e487b7100000000000000000000000000000000000000000000000000000000600052604160045260246000fd5b6200023182620001e6565b810181811067ffffffffffffffff82111715620002535762000252620001f7565b5b80604052505050565b600062000268620001c8565b905062000276828262000226565b919050565b600067ffffffffffffffff821115620002995762000298620001f7565b5b620002a482620001e6565b9050602081019050919050565b60005b83811015620002d1578082015181840152602081019050620002b4565b83811115620002e1576000848401525b50505050565b6000620002fe620002f8846200027b565b6200025c565b9050828152602081018484840111156200031d576200031c620001e1565b5b6200032a848285620002b1565b509392505050565b600082601f8301126200034a5762000349620001dc565b5b81516200035c848260208601620002e7565b91505092915050565b6000819050919050565b6200037a8162000365565b81146200038657600080fd5b50565b6000815190506200039a816200036f565b92915050565b60008060008060808587031215620003bd57620003bc620001d2565b5b600085015167ffffffffffffffff811115620003de57620003dd620001d7565b5b620003ec8782880162000332565b945050602085015167ffffffffffffffff81111562000410576200040f620001d7565b5b6200041e8782880162000332565b9350506040620004318782880162000389565b9250506060620004448782880162000389565b91505092959194509250565b600082825260208201905092915050565b7f455243373231413a20636f6c6c656374696f6e206d757374206861766520612060008201527f6e6f6e7a65726f20737570706c79000000000000000000000000000000000000602082015250565b6000620004bf602e8362000450565b9150620004cc8262000461565b604082019050919050565b60006020820190508181036000830152620004f281620004b0565b9050919050565b7f455243373231413a206d61782062617463682073697a65206d7573742062652060008201527f6e6f6e7a65726f00000000000000000000000000000000000000000000000000602082015250565b60006200055760278362000450565b91506200056482620004f9565b604082019050919050565b600060208201905081810360008301526200058a8162000548565b9050919050565b7f4e487b7100000000000000000000000000000000000000000000000000000000600052602260045260246000fd5b60006002820490506001821680620005d957607f821691505b60208210811415620005f057620005ef62000591565b5b50919050565b60805160a051612d23620006206000396000818161158501526115ae015260005050612d236000f3fe608060405234801561001057600080fd5b506004361061010b5760003560e01c80634f6ccce7116100a2578063a22cb46511610071578063a22cb465146102de578063b88d4fde146102fa578063c87b56dd14610316578063d7224ba014610346578063e985e9c5146103645761010b565b80634f6ccce7146102305780636352211e1461026057806370a082311461029057806395d89b41146102c05761010b565b806318160ddd116100de57806318160ddd146101aa57806323b872dd146101c85780632f745c59146101e457806342842e0e146102145761010b565b806301ffc9a71461011057806306fdde0314610140578063081812fc1461015e578063095ea7b31461018e575b600080fd5b61012a60048036038101906101259190611b08565b610394565b6040516101379190611b50565b60405180910390f35b6101486104de565b6040516101559190611c04565b60405180910390f35b61017860048036038101906101739190611c5c565b610570565b6040516101859190611cca565b60405180910390f35b6101a860048036038101906101a39190611d11565b6105f5565b005b6101b261070e565b6040516101bf9190611d60565b60405180910390f35b6101e260048036038101906101dd9190611d7b565b610717565b005b6101fe60048036038101906101f99190611d11565b610727565b60405161020b9190611d60565b60405180910390f35b61022e60048036038101906102299190611d7b565b610925565b005b61024a60048036038101906102459190611c5c565b610945565b6040516102579190611d60565b60405180910390f35b61027a60048036038101906102759190611c5c565b610998565b6040516102879190611cca565b60405180910390f35b6102aa60048036038101906102a59190611dce565b6109ae565b6040516102b79190611d60565b60405180910390f35b6102c8610a97565b6040516102d59190611c04565b60405180910390f35b6102f860048036038101906102f39190611e27565b610b29565b005b610314600480360381019061030f9190611f9c565b610caa565b005b610330600480360381019061032b9190611c5c565b610d06565b60405161033d9190611c04565b60405180910390f35b61034e610dad565b60405161035b9190611d60565b60405180910390f35b61037e6004803603810190610379919061201f565b610db3565b60405161038b9190611b50565b60405180910390f35b60007f80ac58cd000000000000000000000000000000000000000000000000000000007bffffffffffffffffffffffffffffffffffffffffffffffffffffffff1916827bffffffffffffffffffffffffffffffffffffffffffffffffffffffff1916148061045f57507f5b5e139f000000000000000000000000000000000000000000000000000000007bffffffffffffffffffffffffffffffffffffffffffffffffffffffff1916827bffffffffffffffffffffffffffffffffffffffffffffffffffffffff1916145b806104c757507f780e9d63000000000000000000000000000000000000000000000000000000007bffffffffffffffffffffffffffffffffffffffffffffffffffffffff1916827bffffffffffffffffffffffffffffffffffffffffffffffffffffffff1916145b806104d757506104d682610e47565b5b9050919050565b6060600180546104ed9061208e565b80601f01602080910402602001604051908101604052809291908181526020018280546105199061208e565b80156105665780601f1061053b57610100808354040283529160200191610566565b820191906000526020600020905b81548152906001019060200180831161054957829003601f168201915b5050505050905090565b600061057b82610eb1565b6105ba576040517f08c379a00000000000000000000000000000000000000000000000000000000081526004016105b190612132565b60405180910390fd5b6005600083815260200190815260200160002060009054906101000a900473ffffffffffffffffffffffffffffffffffffffff169050919050565b600061060082610998565b90508073ffffffffffffffffffffffffffffffffffffffff168373ffffffffffffffffffffffffffffffffffffffff161415610671576040517f08c379a0000000000000000000000000000000000000000000000000000000008152600401610668906121c4565b60405180910390fd5b8073ffffffffffffffffffffffffffffffffffffffff16610690610ebe565b73ffffffffffffffffffffffffffffffffffffffff1614806106bf57506106be816106b9610ebe565b610db3565b5b6106fe576040517f08c379a00000000000000000000000000000000000000000000000000000000081526004016106f590612256565b60405180910390fd5b610709838383610ec6565b505050565b60008054905090565b610722838383610f78565b505050565b6000610732836109ae565b8210610773576040517f08c379a000000000000000000000000000000000000000000000000000000000815260040161076a906122e8565b60405180910390fd5b600061077d61070e565b905060008060005b838110156108e3576000600360008381526020019081526020016000206040518060400160405290816000820160009054906101000a900473ffffffffffffffffffffffffffffffffffffffff1673ffffffffffffffffffffffffffffffffffffffff1673ffffffffffffffffffffffffffffffffffffffff1681526020016000820160149054906101000a900467ffffffffffffffff1667ffffffffffffffff1667ffffffffffffffff16815250509050600073ffffffffffffffffffffffffffffffffffffffff16816000015173ffffffffffffffffffffffffffffffffffffffff161461087757806000015192505b8773ffffffffffffffffffffffffffffffffffffffff168373ffffffffffffffffffffffffffffffffffffffff1614156108cf57868414156108c057819550505050505061091f565b83806108cb90612337565b9450505b5080806108db90612337565b915050610785565b506040517f08c379a0000000000000000000000000000000000000000000000000000000008152600401610916906123f2565b60405180910390fd5b92915050565b61094083838360405180602001604052806000815250610caa565b505050565b600061094f61070e565b8210610990576040517f08c379a000000000000000000000000000000000000000000000000000000000815260040161098790612484565b60405180910390fd5b819050919050565b60006109a382611531565b600001519050919050565b60008073ffffffffffffffffffffffffffffffffffffffff168273ffffffffffffffffffffffffffffffffffffffff161415610a1f576040517f08c379a0000000000000000000000000000000000000000000000000000000008152600401610a1690612516565b60405180910390fd5b600460008373ffffffffffffffffffffffffffffffffffffffff1673ffffffffffffffffffffffffffffffffffffffff16815260200190815260200160002060000160009054906101000a90046fffffffffffffffffffffffffffffffff166fffffffffffffffffffffffffffffffff169050919050565b606060028054610aa69061208e565b80601f0160208091040260200160405190810160405280929190818152602001828054610ad29061208e565b8015610b1f5780601f10610af457610100808354040283529160200191610b1f565b820191906000526020600020905b815481529060010190602001808311610b0257829003601f168201915b5050505050905090565b610b31610ebe565b73ffffffffffffffffffffffffffffffffffffffff168273ffffffffffffffffffffffffffffffffffffffff161415610b9f576040517f08c379a0000000000000000000000000000000000000000000000000000000008152600401610b9690612582565b60405180910390fd5b8060066000610bac610ebe565b73ffffffffffffffffffffffffffffffffffffffff1673ffffffffffffffffffffffffffffffffffffffff16815260200190815260200160002060008473ffffffffffffffffffffffffffffffffffffffff1673ffffffffffffffffffffffffffffffffffffffff16815260200190815260200160002060006101000a81548160ff0219169083151502179055508173ffffffffffffffffffffffffffffffffffffffff16610c59610ebe565b73ffffffffffffffffffffffffffffffffffffffff167f17307eab39ab6107e8899845ad3d59bd9653f200f220920489ca2b5937696c3183604051610c9e9190611b50565b60405180910390a35050565b610cb5848484610f78565b610cc184848484611734565b610d00576040517f08c379a0000000000000000000000000000000000000000000000000000000008152600401610cf790612614565b60405180910390fd5b50505050565b6060610d1182610eb1565b610d50576040517f08c379a0000000000000000000000000000000000000000000000000000000008152600401610d47906126a6565b60405180910390fd5b6000610d5a6118cb565b90506000815111610d7a5760405180602001604052806000815250610da5565b80610d84846118e2565b604051602001610d95929190612702565b6040516020818303038152906040525b915050919050565b60075481565b6000600660008473ffffffffffffffffffffffffffffffffffffffff1673ffffffffffffffffffffffffffffffffffffffff16815260200190815260200160002060008373ffffffffffffffffffffffffffffffffffffffff1673ffffffffffffffffffffffffffffffffffffffff16815260200190815260200160002060009054906101000a900460ff16905092915050565b60007f01ffc9a7000000000000000000000000000000000000000000000000000000007bffffffffffffffffffffffffffffffffffffffffffffffffffffffff1916827bffffffffffffffffffffffffffffffffffffffffffffffffffffffff1916149050919050565b6000805482109050919050565b600033905090565b826005600084815260200190815260200160002060006101000a81548173ffffffffffffffffffffffffffffffffffffffff021916908373ffffffffffffffffffffffffffffffffffffffff160217905550818373ffffffffffffffffffffffffffffffffffffffff168273ffffffffffffffffffffffffffffffffffffffff167f8c5be1e5ebec7d5bd14f71427d1e84f3dd0314c0f7b2291e5b200ac8c7c3b92560405160405180910390a4505050565b6000610f8382611531565b90506000816000015173ffffffffffffffffffffffffffffffffffffffff16610faa610ebe565b73ffffffffffffffffffffffffffffffffffffffff1614806110065750610fcf610ebe565b73ffffffffffffffffffffffffffffffffffffffff16610fee84610570565b73ffffffffffffffffffffffffffffffffffffffff16145b806110225750611021826000015161101c610ebe565b610db3565b5b905080611064576040517f08c379a000000000000000000000000000000000000000000000000000000000815260040161105b90612798565b60405180910390fd5b8473ffffffffffffffffffffffffffffffffffffffff16826000015173ffffffffffffffffffffffffffffffffffffffff16146110d6576040517f08c379a00000000000000000000000000000000000000000000000000000000081526004016110cd9061282a565b60405180910390fd5b600073ffffffffffffffffffffffffffffffffffffffff168473ffffffffffffffffffffffffffffffffffffffff161415611146576040517f08c379a000000000000000000000000000000000000000000000000000000000815260040161113d906128bc565b60405180910390fd5b6111538585856001611a43565b6111636000848460000151610ec6565b6001600460008773ffffffffffffffffffffffffffffffffffffffff1673ffffffffffffffffffffffffffffffffffffffff16815260200190815260200160002060000160008282829054906101000a90046fffffffffffffffffffffffffffffffff166111d191906128f8565b92506101000a8154816fffffffffffffffffffffffffffffffff02191690836fffffffffffffffffffffffffffffffff1602179055506001600460008673ffffffffffffffffffffffffffffffffffffffff1673ffffffffffffffffffffffffffffffffffffffff16815260200190815260200160002060000160008282829054906101000a90046fffffffffffffffffffffffffffffffff16611275919061292c565b92506101000a8154816fffffffffffffffffffffffffffffffff02191690836fffffffffffffffffffffffffffffffff16021790555060405180604001604052808573ffffffffffffffffffffffffffffffffffffffff1681526020014267ffffffffffffffff168152506003600085815260200190815260200160002060008201518160000160006101000a81548173ffffffffffffffffffffffffffffffffffffffff021916908373ffffffffffffffffffffffffffffffffffffffff16021790555060208201518160000160146101000a81548167ffffffffffffffff021916908367ffffffffffffffff160217905550905050600060018461137b9190612972565b9050600073ffffffffffffffffffffffffffffffffffffffff166003600083815260200190815260200160002060000160009054906101000a900473ffffffffffffffffffffffffffffffffffffffff1673ffffffffffffffffffffffffffffffffffffffff1614156114c1576113f181610eb1565b156114c0576040518060400160405280846000015173ffffffffffffffffffffffffffffffffffffffff168152602001846020015167ffffffffffffffff168152506003600083815260200190815260200160002060008201518160000160006101000a81548173ffffffffffffffffffffffffffffffffffffffff021916908373ffffffffffffffffffffffffffffffffffffffff16021790555060208201518160000160146101000a81548167ffffffffffffffff021916908367ffffffffffffffff1602179055509050505b5b838573ffffffffffffffffffffffffffffffffffffffff168773ffffffffffffffffffffffffffffffffffffffff167fddf252ad1be2c89b69c2b068fc378daa952ba7f163c4a11628f55a4df523b3ef60405160405180910390a46115298686866001611a49565b505050505050565b611539611a62565b61154282610eb1565b611581576040517f08c379a000000000000000000000000000000000000000000000000000000000815260040161157890612a3a565b60405180910390fd5b60007f000000000000000000000000000000000000000000000000000000000000000083106115e55760017f0000000000000000000000000000000000000000000000000000000000000000846115d89190612a5a565b6115e29190612972565b90505b60008390505b8181106116f3576000600360008381526020019081526020016000206040518060400160405290816000820160009054906101000a900473ffffffffffffffffffffffffffffffffffffffff1673ffffffffffffffffffffffffffffffffffffffff1673ffffffffffffffffffffffffffffffffffffffff1681526020016000820160149054906101000a900467ffffffffffffffff1667ffffffffffffffff1667ffffffffffffffff16815250509050600073ffffffffffffffffffffffffffffffffffffffff16816000015173ffffffffffffffffffffffffffffffffffffffff16146116df5780935050505061172f565b5080806116eb90612a8e565b9150506115eb565b506040517f08c379a000000000000000000000000000000000000000000000000000000000815260040161172690612b2a565b60405180910390fd5b919050565b60006117558473ffffffffffffffffffffffffffffffffffffffff16611a4f565b156118be578373ffffffffffffffffffffffffffffffffffffffff1663150b7a0261177e610ebe565b8786866040518563ffffffff1660e01b81526004016117a09493929190612b9f565b602060405180830381600087803b1580156117ba57600080fd5b505af19250505080156117eb57506040513d601f19601f820116820180604052508101906117e89190612c00565b60015b61186e573d806000811461181b576040519150601f19603f3d011682016040523d82523d6000602084013e611820565b606091505b50600081511415611866576040517f08c379a000000000000000000000000000000000000000000000000000000000815260040161185d90612614565b60405180910390fd5b805181602001fd5b63150b7a0260e01b7bffffffffffffffffffffffffffffffffffffffffffffffffffffffff1916817bffffffffffffffffffffffffffffffffffffffffffffffffffffffff1916149150506118c3565b600190505b949350505050565b606060405180602001604052806000815250905090565b6060600082141561192a576040518060400160405280600181526020017f30000000000000000000000000000000000000000000000000000000000000008152509050611a3e565b600082905060005b6000821461195c57808061194590612337565b915050600a826119559190612c5c565b9150611932565b60008167ffffffffffffffff81111561197857611977611e71565b5b6040519080825280601f01601f1916602001820160405280156119aa5781602001600182028036833780820191505090505b5090505b60008514611a37576001826119c39190612a5a565b9150600a856119d29190612c8d565b60306119de9190612972565b60f81b8183815181106119f4576119f3612cbe565b5b60200101907effffffffffffffffffffffffffffffffffffffffffffffffffffffffffffff1916908160001a905350600a85611a309190612c5c565b94506119ae565b8093505050505b919050565b50505050565b50505050565b600080823b905060008111915050919050565b6040518060400160405280600073ffffffffffffffffffffffffffffffffffffffff168152602001600067ffffffffffffffff1681525090565b6000604051905090565b600080fd5b600080fd5b60007fffffffff0000000000000000000000000000000000000000000000000000000082169050919050565b611ae581611ab0565b8114611af057600080fd5b50565b600081359050611b0281611adc565b92915050565b600060208284031215611b1e57611b1d611aa6565b5b6000611b2c84828501611af3565b91505092915050565b60008115159050919050565b611b4a81611b35565b82525050565b6000602082019050611b656000830184611b41565b92915050565b600081519050919050565b600082825260208201905092915050565b60005b83811015611ba5578082015181840152602081019050611b8a565b83811115611bb4576000848401525b50505050565b6000601f19601f8301169050919050565b6000611bd682611b6b565b611be08185611b76565b9350611bf0818560208601611b87565b611bf981611bba565b840191505092915050565b60006020820190508181036000830152611c1e8184611bcb565b905092915050565b6000819050919050565b611c3981611c26565b8114611c4457600080fd5b50565b600081359050611c5681611c30565b92915050565b600060208284031215611c7257611c71611aa6565b5b6000611c8084828501611c47565b91505092915050565b600073ffffffffffffffffffffffffffffffffffffffff82169050919050565b6000611cb482611c89565b9050919050565b611cc481611ca9565b82525050565b6000602082019050611cdf6000830184611cbb565b92915050565b611cee81611ca9565b8114611cf957600080fd5b50565b600081359050611d0b81611ce5565b92915050565b60008060408385031215611d2857611d27611aa6565b5b6000611d3685828601611cfc565b9250506020611d4785828601611c47565b9150509250929050565b611d5a81611c26565b82525050565b6000602082019050611d756000830184611d51565b92915050565b600080600060608486031215611d9457611d93611aa6565b5b6000611da286828701611cfc565b9350506020611db386828701611cfc565b9250506040611dc486828701611c47565b9150509250925092565b600060208284031215611de457611de3611aa6565b5b6000611df284828501611cfc565b91505092915050565b611e0481611b35565b8114611e0f57600080fd5b50565b600081359050611e2181611dfb565b92915050565b60008060408385031215611e3e57611e3d611aa6565b5b6000611e4c85828601611cfc565b9250506020611e5d85828601611e12565b9150509250929050565b600080fd5b600080fd5b7f4e487b7100000000000000000000000000000000000000000000000000000000600052604160045260246000fd5b611ea982611bba565b810181811067ffffffffffffffff82111715611ec857611ec7611e71565b5b80604052505050565b6000611edb611a9c565b9050611ee78282611ea0565b919050565b600067ffffffffffffffff821115611f0757611f06611e71565b5b611f1082611bba565b9050602081019050919050565b82818337600083830152505050565b6000611f3f611f3a84611eec565b611ed1565b905082815260208101848484011115611f5b57611f5a611e6c565b5b611f66848285611f1d565b509392505050565b600082601f830112611f8357611f82611e67565b5b8135611f93848260208601611f2c565b91505092915050565b60008060008060808587031215611fb657611fb5611aa6565b5b6000611fc487828801611cfc565b9450506020611fd587828801611cfc565b9350506040611fe687828801611c47565b925050606085013567ffffffffffffffff81111561200757612006611aab565b5b61201387828801611f6e565b91505092959194509250565b6000806040838503121561203657612035611aa6565b5b600061204485828601611cfc565b925050602061205585828601611cfc565b9150509250929050565b7f4e487b7100000000000000000000000000000000000000000000000000000000600052602260045260246000fd5b600060028204905060018216806120a657607f821691505b602082108114156120ba576120b961205f565b5b50919050565b7f455243373231413a20617070726f76656420717565727920666f72206e6f6e6560008201527f78697374656e7420746f6b656e00000000000000000000000000000000000000602082015250565b600061211c602d83611b76565b9150612127826120c0565b604082019050919050565b6000602082019050818103600083015261214b8161210f565b9050919050565b7f455243373231413a20617070726f76616c20746f2063757272656e74206f776e60008201527f6572000000000000000000000000000000000000000000000000000000000000602082015250565b60006121ae602283611b76565b91506121b982612152565b604082019050919050565b600060208201905081810360008301526121dd816121a1565b9050919050565b7f455243373231413a20617070726f76652063616c6c6572206973206e6f74206f60008201527f776e6572206e6f7220617070726f76656420666f7220616c6c00000000000000602082015250565b6000612240603983611b76565b915061224b826121e4565b604082019050919050565b6000602082019050818103600083015261226f81612233565b9050919050565b7f455243373231413a206f776e657220696e646578206f7574206f6620626f756e60008201527f6473000000000000000000000000000000000000000000000000000000000000602082015250565b60006122d2602283611b76565b91506122dd82612276565b604082019050919050565b60006020820190508181036000830152612301816122c5565b9050919050565b7f4e487b7100000000000000000000000000000000000000000000000000000000600052601160045260246000fd5b600061234282611c26565b91507fffffffffffffffffffffffffffffffffffffffffffffffffffffffffffffffff82141561237557612374612308565b5b600182019050919050565b7f455243373231413a20756e61626c6520746f2067657420746f6b656e206f662060008201527f6f776e657220627920696e646578000000000000000000000000000000000000602082015250565b60006123dc602e83611b76565b91506123e782612380565b604082019050919050565b6000602082019050818103600083015261240b816123cf565b9050919050565b7f455243373231413a20676c6f62616c20696e646578206f7574206f6620626f7560008201527f6e64730000000000000000000000000000000000000000000000000000000000602082015250565b600061246e602383611b76565b915061247982612412565b604082019050919050565b6000602082019050818103600083015261249d81612461565b9050919050565b7f455243373231413a2062616c616e636520717565727920666f7220746865207a60008201527f65726f2061646472657373000000000000000000000000000000000000000000602082015250565b6000612500602b83611b76565b915061250b826124a4565b604082019050919050565b6000602082019050818103600083015261252f816124f3565b9050919050565b7f455243373231413a20617070726f766520746f2063616c6c6572000000000000600082015250565b600061256c601a83611b76565b915061257782612536565b602082019050919050565b6000602082019050818103600083015261259b8161255f565b9050919050565b7f455243373231413a207472616e7366657220746f206e6f6e204552433732315260008201527f6563656976657220696d706c656d656e74657200000000000000000000000000602082015250565b60006125fe603383611b76565b9150612609826125a2565b604082019050919050565b6000602082019050818103600083015261262d816125f1565b9050919050565b7f4552433732314d657461646174613a2055524920717565727920666f72206e6f60008201527f6e6578697374656e7420746f6b656e0000000000000000000000000000000000602082015250565b6000612690602f83611b76565b915061269b82612634565b604082019050919050565b600060208201905081810360008301526126bf81612683565b9050919050565b600081905092915050565b60006126dc82611b6b565b6126e681856126c6565b93506126f6818560208601611b87565b80840191505092915050565b600061270e82856126d1565b915061271a82846126d1565b91508190509392505050565b7f455243373231413a207472616e736665722063616c6c6572206973206e6f742060008201527f6f776e6572206e6f7220617070726f7665640000000000000000000000000000602082015250565b6000612782603283611b76565b915061278d82612726565b604082019050919050565b600060208201905081810360008301526127b181612775565b9050919050565b7f455243373231413a207472616e736665722066726f6d20696e636f727265637460008201527f206f776e65720000000000000000000000000000000000000000000000000000602082015250565b6000612814602683611b76565b915061281f826127b8565b604082019050919050565b6000602082019050818103600083015261284381612807565b9050919050565b7f455243373231413a207472616e7366657220746f20746865207a65726f20616460008201527f6472657373000000000000000000000000000000000000000000000000000000602082015250565b60006128a6602583611b76565b91506128b18261284a565b604082019050919050565b600060208201905081810360008301526128d581612899565b9050919050565b60006fffffffffffffffffffffffffffffffff82169050919050565b6000612903826128dc565b915061290e836128dc565b92508282101561292157612920612308565b5b828203905092915050565b6000612937826128dc565b9150612942836128dc565b9250826fffffffffffffffffffffffffffffffff0382111561296757612966612308565b5b828201905092915050565b600061297d82611c26565b915061298883611c26565b9250827fffffffffffffffffffffffffffffffffffffffffffffffffffffffffffffffff038211156129bd576129bc612308565b5b828201905092915050565b7f455243373231413a206f776e657220717565727920666f72206e6f6e6578697360008201527f74656e7420746f6b656e00000000000000000000000000000000000000000000602082015250565b6000612a24602a83611b76565b9150612a2f826129c8565b604082019050919050565b60006020820190508181036000830152612a5381612a17565b9050919050565b6000612a6582611c26565b9150612a7083611c26565b925082821015612a8357612a82612308565b5b828203905092915050565b6000612a9982611c26565b91506000821415612aad57612aac612308565b5b600182039050919050565b7f455243373231413a20756e61626c6520746f2064657465726d696e652074686560008201527f206f776e6572206f6620746f6b656e0000000000000000000000000000000000602082015250565b6000612b14602f83611b76565b9150612b1f82612ab8565b604082019050919050565b60006020820190508181036000830152612b4381612b07565b9050919050565b600081519050919050565b600082825260208201905092915050565b6000612b7182612b4a565b612b7b8185612b55565b9350612b8b818560208601611b87565b612b9481611bba565b840191505092915050565b6000608082019050612bb46000830187611cbb565b612bc16020830186611cbb565b612bce6040830185611d51565b8181036060830152612be08184612b66565b905095945050505050565b600081519050612bfa81611adc565b92915050565b600060208284031215612c1657612c15611aa6565b5b6000612c2484828501612beb565b91505092915050565b7f4e487b7100000000000000000000000000000000000000000000000000000000600052601260045260246000fd5b6000612c6782611c26565b9150612c7283611c26565b925082612c8257612c81612c2d565b5b828204905092915050565b6000612c9882611c26565b9150612ca383611c26565b925082612cb357612cb2612c2d565b5b828206905092915050565b7f4e487b7100000000000000000000000000000000000000000000000000000000600052603260045260246000fdfea2646970667358221220d77e111c76e31a9be1ba8ba6b04cf4a24e0c252581d23514f7c6659ab2623c6764736f6c63430008090033",
  "immutableReferences": {
    "1191": [
      {
        "length": 32,
        "start": 5509
      },
      {
        "length": 32,
        "start": 5550
      }
    ]
  },
  "source": "// SPDX-License-Identifier: MIT\n\npragma solidity ^0.8.0;\n\nimport \"@openzeppelin/contracts/token/ERC721/IERC721.sol\";\nimport \"@openzeppelin/contracts/token/ERC721/IERC721Receiver.sol\";\nimport \"@openzeppelin/contracts/token/ERC721/extensions/IERC721Metadata.sol\";\nimport \"@openzeppelin/contracts/token/ERC721/extensions/IERC721Enumerable.sol\";\nimport \"@openzeppelin/contracts/utils/Address.sol\";\nimport \"@openzeppelin/contracts/utils/Context.sol\";\nimport \"@openzeppelin/contracts/utils/Strings.sol\";\nimport \"@openzeppelin/contracts/utils/introspection/ERC165.sol\";\n\n/**\n * @dev Implementation of https://eips.ethereum.org/EIPS/eip-721[ERC721] Non-Fungible Token Standard, including\n * the Metadata and Enumerable extension. Built to optimize for lower gas during batch mints.\n *\n * Assumes serials are sequentially minted starting at 0 (e.g. 0, 1, 2, 3..).\n *\n * Assumes the number of issuable tokens (collection size) is capped and fits in a uint128.\n *\n * Does not support burning tokens to address(0).\n */\ncontract ERC721A is\n    Context,\n    ERC165,\n    IERC721,\n    IERC721Metadata,\n    IERC721Enumerable\n{\n    using Address for address;\n    using Strings for uint256;\n\n    struct TokenOwnership {\n        address addr;\n        uint64 startTimestamp;\n    }\n\n    struct AddressData {\n        uint128 balance;\n        uint128 numberMinted;\n    }\n\n    uint256 private currentIndex = 0;\n\n    uint256 internal immutable collectionSize;\n    uint256 internal immutable maxBatchSize;\n\n    // Token name\n    string private _name;\n\n    // Token symbol\n    string private _symbol;\n\n    // Mapping from token ID to ownership details\n    // An empty struct value does not necessarily mean the token is unowned. See ownershipOf implementation for details.\n    mapping(uint256 => TokenOwnership) internal _ownerships;\n\n    // Mapping owner address to address data\n    mapping(address => AddressData) internal _addressData;\n\n    // Mapping from token ID to approved address\n    mapping(uint256 => address) private _tokenApprovals;\n\n    // Mapping from owner to operator approvals\n    mapping(address => mapping(address => bool)) private _operatorApprovals;\n\n    /**\n     * @dev\n     * `maxBatchSize` refers to how much a minter can mint at a time.\n     * `collectionSize_` refers to how many tokens are in the collection.\n     */\n    constructor(\n        string memory name_,\n        string memory symbol_,\n        uint256 maxBatchSize_,\n        uint256 collectionSize_\n    ) {\n        require(\n            collectionSize_ > 0,\n            \"ERC721A: collection must have a nonzero supply\"\n        );\n        require(maxBatchSize_ > 0, \"ERC721A: max batch size must be nonzero\");\n        _name = name_;\n        _symbol = symbol_;\n        maxBatchSize = maxBatchSize_;\n        collectionSize = collectionSize_;\n    }\n\n    /**\n     * @dev See {IERC721Enumerable-totalSupply}.\n     */\n    function totalSupply() public view override returns (uint256) {\n        return currentIndex;\n    }\n\n    /**\n     * @dev See {IERC721Enumerable-tokenByIndex}.\n     */\n    function tokenByIndex(uint256 index)\n        public\n        view\n        override\n        returns (uint256)\n    {\n        require(index < totalSupply(), \"ERC721A: global index out of bounds\");\n        return index;\n    }\n\n    /**\n     * @dev See {IERC721Enumerable-tokenOfOwnerByIndex}.\n     * This read function is O(collectionSize). If calling from a separate contract, be sure to test gas first.\n     * It may also degrade with extremely large collection sizes (e.g >> 10000), test for your use case.\n     */\n    function tokenOfOwnerByIndex(address owner, uint256 index)\n        public\n        view\n        override\n        returns (uint256)\n    {\n        require(index < balanceOf(owner), \"ERC721A: owner index out of bounds\");\n        uint256 numMintedSoFar = totalSupply();\n        uint256 tokenIdsIdx = 0;\n        address currOwnershipAddr = address(0);\n        for (uint256 i = 0; i < numMintedSoFar; i++) {\n            TokenOwnership memory ownership = _ownerships[i];\n            if (ownership.addr != address(0)) {\n                currOwnershipAddr = ownership.addr;\n            }\n            if (currOwnershipAddr == owner) {\n                if (tokenIdsIdx == index) {\n                    return i;\n                }\n                tokenIdsIdx++;\n            }\n        }\n        revert(\"ERC721A: unable to get token of owner by index\");\n    }\n\n    /**\n     * @dev See {IERC165-supportsInterface}.\n     */\n    function supportsInterface(bytes4 interfaceId)\n        public\n        view\n        virtual\n        override(ERC165, IERC165)\n        returns (bool)\n    {\n        return\n            interfaceId == type(IERC721).interfaceId ||\n            interfaceId == type(IERC721Metadata).interfaceId ||\n            interfaceId == type(IERC721Enumerable).interfaceId ||\n            super.supportsInterface(interfaceId);\n    }\n\n    /**\n     * @dev See {IERC721-balanceOf}.\n     */\n    function balanceOf(address owner) public view override returns (uint256) {\n        require(\n            owner != address(0),\n            \"ERC721A: balance query for the zero address\"\n        );\n        return uint256(_addressData[owner].balance);\n    }\n\n    function _numberMinted(address owner) internal view returns (uint256) {\n        require(\n            owner != address(0),\n            \"ERC721A: number minted query for the zero address\"\n        );\n        return uint256(_addressData[owner].numberMinted);\n    }\n\n    function ownershipOf(uint256 tokenId)\n        internal\n        view\n        returns (TokenOwnership memory)\n    {\n        require(_exists(tokenId), \"ERC721A: owner query for nonexistent token\");\n\n        uint256 lowestTokenToCheck;\n        if (tokenId >= maxBatchSize) {\n            lowestTokenToCheck = tokenId - maxBatchSize + 1;\n        }\n\n        for (uint256 curr = tokenId; curr >= lowestTokenToCheck; curr--) {\n            TokenOwnership memory ownership = _ownerships[curr];\n            if (ownership.addr != address(0)) {\n                return ownership;\n            }\n        }\n\n        revert(\"ERC721A: unable to determine the owner of token\");\n    }\n\n    /**\n     * @dev See {IERC721-ownerOf}.\n     */\n    function ownerOf(uint256 tokenId) public view override returns (address) {\n        return ownershipOf(tokenId).addr;\n    }\n\n    /**\n     * @dev See {IERC721Metadata-name}.\n     */\n    function name() public view virtual override returns (string memory) {\n        return _name;\n    }\n\n    /**\n     * @dev See {IERC721Metadata-symbol}.\n     */\n    function symbol() public view virtual override returns (string memory) {\n        return _symbol;\n    }\n\n    /**\n     * @dev See {IERC721Metadata-tokenURI}.\n     */\n    function tokenURI(uint256 tokenId)\n        public\n        view\n        virtual\n        override\n        returns (string memory)\n    {\n        require(\n            _exists(tokenId),\n            \"ERC721Metadata: URI query for nonexistent token\"\n        );\n\n        string memory baseURI = _baseURI();\n        return\n            bytes(baseURI).length > 0\n                ? string(abi.encodePacked(baseURI, tokenId.toString()))\n                : \"\";\n    }\n\n    /**\n     * @dev Base URI for computing {tokenURI}. If set, the resulting URI for each\n     * token will be the concatenation of the `baseURI` and the `tokenId`. Empty\n     * by default, can be overriden in child contracts.\n     */\n    function _baseURI() internal view virtual returns (string memory) {\n        return \"\";\n    }\n\n    /**\n     * @dev See {IERC721-approve}.\n     */\n    function approve(address to, uint256 tokenId) public override {\n        address owner = ERC721A.ownerOf(tokenId);\n        require(to != owner, \"ERC721A: approval to current owner\");\n\n        require(\n            _msgSender() == owner || isApprovedForAll(owner, _msgSender()),\n            \"ERC721A: approve caller is not owner nor approved for all\"\n        );\n\n        _approve(to, tokenId, owner);\n    }\n\n    /**\n     * @dev See {IERC721-getApproved}.\n     */\n    function getApproved(uint256 tokenId)\n        public\n        view\n        override\n        returns (address)\n    {\n        require(\n            _exists(tokenId),\n            \"ERC721A: approved query for nonexistent token\"\n        );\n\n        return _tokenApprovals[tokenId];\n    }\n\n    /**\n     * @dev See {IERC721-setApprovalForAll}.\n     */\n    function setApprovalForAll(address operator, bool approved)\n        public\n        override\n    {\n        require(operator != _msgSender(), \"ERC721A: approve to caller\");\n\n        _operatorApprovals[_msgSender()][operator] = approved;\n        emit ApprovalForAll(_msgSender(), operator, approved);\n    }\n\n    /**\n     * @dev See {IERC721-isApprovedForAll}.\n     */\n    function isApprovedForAll(address owner, address operator)\n        public\n        view\n        virtual\n        override\n        returns (bool)\n    {\n        return _operatorApprovals[owner][operator];\n    }\n\n    /**\n     * @dev See {IERC721-transferFrom}.\n     */\n    function transferFrom(\n        address from,\n        address to,\n        uint256 tokenId\n    ) public override {\n        _transfer(from, to, tokenId);\n    }\n\n    /**\n     * @dev See {IERC721-safeTransferFrom}.\n     */\n    function safeTransferFrom(\n        address from,\n        address to,\n        uint256 tokenId\n    ) public override {\n        safeTransferFrom(from, to, tokenId, \"\");\n    }\n\n    /**\n     * @dev See {IERC721-safeTransferFrom}.\n     */\n    function safeTransferFrom(\n        address from,\n        address to,\n        uint256 tokenId,\n        bytes memory _data\n    ) public override {\n        _transfer(from, to, tokenId);\n        require(\n            _checkOnERC721Received(from, to, tokenId, _data),\n            \"ERC721A: transfer to non ERC721Receiver implementer\"\n        );\n    }\n\n    /**\n     * @dev Returns whether `tokenId` exists.\n     *\n     * Tokens can be managed by their owner or approved accounts via {approve} or {setApprovalForAll}.\n     *\n     * Tokens start existing when they are minted (`_mint`),\n     */\n    function _exists(uint256 tokenId) internal view returns (bool) {\n        return tokenId < currentIndex;\n    }\n\n    function _safeMint(address to, uint256 quantity) internal {\n        _safeMint(to, quantity, \"\");\n    }\n\n    /**\n     * @dev Mints `quantity` tokens and transfers them to `to`.\n     *\n     * Requirements:\n     *\n     * - there must be `quantity` tokens remaining unminted in the total collection.\n     * - `to` cannot be the zero address.\n     * - `quantity` cannot be larger than the max batch size.\n     *\n     * Emits a {Transfer} event.\n     */\n    function _safeMint(\n        address to,\n        uint256 quantity,\n        bytes memory _data\n    ) internal {\n        uint256 startTokenId = currentIndex;\n        require(to != address(0), \"ERC721A: mint to the zero address\");\n        // We know if the first token in the batch doesn't exist, the other ones don't as well, because of serial ordering.\n        require(!_exists(startTokenId), \"ERC721A: token already minted\");\n        require(quantity <= maxBatchSize, \"ERC721A: quantity to mint too high\");\n\n        _beforeTokenTransfers(address(0), to, startTokenId, quantity);\n\n        AddressData memory addressData = _addressData[to];\n        _addressData[to] = AddressData(\n            addressData.balance + uint128(quantity),\n            addressData.numberMinted + uint128(quantity)\n        );\n        _ownerships[startTokenId] = TokenOwnership(to, uint64(block.timestamp));\n\n        uint256 updatedIndex = startTokenId;\n\n        for (uint256 i = 0; i < quantity; i++) {\n            emit Transfer(address(0), to, updatedIndex);\n            require(\n                _checkOnERC721Received(address(0), to, updatedIndex, _data),\n                \"ERC721A: transfer to non ERC721Receiver implementer\"\n            );\n            updatedIndex++;\n        }\n\n        currentIndex = updatedIndex;\n        _afterTokenTransfers(address(0), to, startTokenId, quantity);\n    }\n\n    /**\n     * @dev Transfers `tokenId` from `from` to `to`.\n     *\n     * Requirements:\n     *\n     * - `to` cannot be the zero address.\n     * - `tokenId` token must be owned by `from`.\n     *\n     * Emits a {Transfer} event.\n     */\n    function _transfer(\n        address from,\n        address to,\n        uint256 tokenId\n    ) private {\n        TokenOwnership memory prevOwnership = ownershipOf(tokenId);\n\n        bool isApprovedOrOwner = (_msgSender() == prevOwnership.addr ||\n            getApproved(tokenId) == _msgSender() ||\n            isApprovedForAll(prevOwnership.addr, _msgSender()));\n\n        require(\n            isApprovedOrOwner,\n            \"ERC721A: transfer caller is not owner nor approved\"\n        );\n\n        require(\n            prevOwnership.addr == from,\n            \"ERC721A: transfer from incorrect owner\"\n        );\n        require(to != address(0), \"ERC721A: transfer to the zero address\");\n\n        _beforeTokenTransfers(from, to, tokenId, 1);\n\n        // Clear approvals from the previous owner\n        _approve(address(0), tokenId, prevOwnership.addr);\n\n        _addressData[from].balance -= 1;\n        _addressData[to].balance += 1;\n        _ownerships[tokenId] = TokenOwnership(to, uint64(block.timestamp));\n\n        // If the ownership slot of tokenId+1 is not explicitly set, that means the transfer initiator owns it.\n        // Set the slot of tokenId+1 explicitly in storage to maintain correctness for ownerOf(tokenId+1) calls.\n        uint256 nextTokenId = tokenId + 1;\n        if (_ownerships[nextTokenId].addr == address(0)) {\n            if (_exists(nextTokenId)) {\n                _ownerships[nextTokenId] = TokenOwnership(\n                    prevOwnership.addr,\n                    prevOwnership.startTimestamp\n                );\n            }\n        }\n\n        emit Transfer(from, to, tokenId);\n        _afterTokenTransfers(from, to, tokenId, 1);\n    }\n\n    /**\n     * @dev Approve `to` to operate on `tokenId`\n     *\n     * Emits a {Approval} event.\n     */\n    function _approve(\n        address to,\n        uint256 tokenId,\n        address owner\n    ) private {\n        _tokenApprovals[tokenId] = to;\n        emit Approval(owner, to, tokenId);\n    }\n\n    uint256 public nextOwnerToExplicitlySet = 0;\n\n    /**\n     * @dev Explicitly set `owners` to eliminate loops in future calls of ownerOf().\n     */\n    function _setOwnersExplicit(uint256 quantity) internal {\n        uint256 oldNextOwnerToSet = nextOwnerToExplicitlySet;\n        require(quantity > 0, \"quantity must be nonzero\");\n        uint256 endIndex = oldNextOwnerToSet + quantity - 1;\n        if (endIndex > collectionSize - 1) {\n            endIndex = collectionSize - 1;\n        }\n        // We know if the last one in the group exists, all in the group exist, due to serial ordering.\n        require(_exists(endIndex), \"not enough minted yet for this cleanup\");\n        for (uint256 i = oldNextOwnerToSet; i <= endIndex; i++) {\n            if (_ownerships[i].addr == address(0)) {\n                TokenOwnership memory ownership = ownershipOf(i);\n                _ownerships[i] = TokenOwnership(\n                    ownership.addr,\n                    ownership.startTimestamp\n                );\n            }\n        }\n        nextOwnerToExplicitlySet = endIndex + 1;\n    }\n\n    /**\n     * @dev Internal function to invoke {IERC721Receiver-onERC721Received} on a target address.\n     * The call is not executed if the target address is not a contract.\n     *\n     * @param from address representing the previous owner of the given token ID\n     * @param to target address that will receive the tokens\n     * @param tokenId uint256 ID of the token to be transferred\n     * @param _data bytes optional data to send along with the call\n     * @return bool whether the call correctly returned the expected magic value\n     */\n    function _checkOnERC721Received(\n        address from,\n        address to,\n        uint256 tokenId,\n        bytes memory _data\n    ) private returns (bool) {\n        if (to.isContract()) {\n            try\n                IERC721Receiver(to).onERC721Received(\n                    _msgSender(),\n                    from,\n                    tokenId,\n                    _data\n                )\n            returns (bytes4 retval) {\n                return retval == IERC721Receiver(to).onERC721Received.selector;\n            } catch (bytes memory reason) {\n                if (reason.length == 0) {\n                    revert(\n                        \"ERC721A: transfer to non ERC721Receiver implementer\"\n                    );\n                } else {\n                    assembly {\n                        revert(add(32, reason), mload(reason))\n                    }\n                }\n            }\n        } else {\n            return true;\n        }\n    }\n\n    /**\n     * @dev Hook that is called before a set of serially-ordered token ids are about to be transferred. This includes minting.\n     *\n     * startTokenId - the first token id to be transferred\n     * quantity - the amount to be transferred\n     *\n     * Calling conditions:\n     *\n     * - When `from` and `to` are both non-zero, ``from``'s `tokenId` will be\n     * transferred to `to`.\n     * - When `from` is zero, `tokenId` will be minted for `to`.\n     */\n    function _beforeTokenTransfers(\n        address from,\n        address to,\n        uint256 startTokenId,\n        uint256 quantity\n    ) internal virtual {}\n\n    /**\n     * @dev Hook that is called after a set of serially-ordered token ids have been transferred. This includes\n     * minting.\n     *\n     * startTokenId - the first token id to be transferred\n     * quantity - the amount to be transferred\n     *\n     * Calling conditions:\n     *\n     * - when `from` and `to` are both non-zero.\n     * - `from` and `to` are never both zero.\n     */\n    function _afterTokenTransfers(\n        address from,\n        address to,\n        uint256 startTokenId,\n        uint256 quantity\n    ) internal virtual {}\n}\n",
  "sourcePath": "/Users/christopherfoley/nft/YetiPunks/src/contracts/ERC721A.sol",
  "compiler": {
    "name": "solc",
    "version": "0.8.9+commit.e5eed63a.Emscripten.clang"
  },
  "schemaVersion": "3.4.4",
  "updatedAt": "2022-02-07T01:35:59.639Z",
  "devdoc": {
    "details": "Implementation of https://eips.ethereum.org/EIPS/eip-721[ERC721] Non-Fungible Token Standard, including the Metadata and Enumerable extension. Built to optimize for lower gas during batch mints. Assumes serials are sequentially minted starting at 0 (e.g. 0, 1, 2, 3..). Assumes the number of issuable tokens (collection size) is capped and fits in a uint128. Does not support burning tokens to address(0).",
    "kind": "dev",
    "methods": {
      "approve(address,uint256)": {
        "details": "See {IERC721-approve}."
      },
      "balanceOf(address)": {
        "details": "See {IERC721-balanceOf}."
      },
      "constructor": {
        "details": "`maxBatchSize` refers to how much a minter can mint at a time. `collectionSize_` refers to how many tokens are in the collection."
      },
      "getApproved(uint256)": {
        "details": "See {IERC721-getApproved}."
      },
      "isApprovedForAll(address,address)": {
        "details": "See {IERC721-isApprovedForAll}."
      },
      "name()": {
        "details": "See {IERC721Metadata-name}."
      },
      "ownerOf(uint256)": {
        "details": "See {IERC721-ownerOf}."
      },
      "safeTransferFrom(address,address,uint256)": {
        "details": "See {IERC721-safeTransferFrom}."
      },
      "safeTransferFrom(address,address,uint256,bytes)": {
        "details": "See {IERC721-safeTransferFrom}."
      },
      "setApprovalForAll(address,bool)": {
        "details": "See {IERC721-setApprovalForAll}."
      },
      "supportsInterface(bytes4)": {
        "details": "See {IERC165-supportsInterface}."
      },
      "symbol()": {
        "details": "See {IERC721Metadata-symbol}."
      },
      "tokenByIndex(uint256)": {
        "details": "See {IERC721Enumerable-tokenByIndex}."
      },
      "tokenOfOwnerByIndex(address,uint256)": {
        "details": "See {IERC721Enumerable-tokenOfOwnerByIndex}. This read function is O(collectionSize). If calling from a separate contract, be sure to test gas first. It may also degrade with extremely large collection sizes (e.g >> 10000), test for your use case."
      },
      "tokenURI(uint256)": {
        "details": "See {IERC721Metadata-tokenURI}."
      },
      "totalSupply()": {
        "details": "See {IERC721Enumerable-totalSupply}."
      },
      "transferFrom(address,address,uint256)": {
        "details": "See {IERC721-transferFrom}."
      }
    },
    "version": 1
  },
  "userdoc": {
    "kind": "user",
    "methods": {},
    "version": 1
  }
}