{
  "contractName": "YetiPunks",
  "abi": [
    {
      "inputs": [],
      "stateMutability": "nonpayable",
      "type": "constructor"
    },
    {
      "anonymous": false,
      "inputs": [
        {
          "indexed": true,
          "internalType": "address",
          "name": "owner",
          "type": "address"
        },
        {
          "indexed": true,
          "internalType": "address",
          "name": "approved",
          "type": "address"
        },
        {
          "indexed": true,
          "internalType": "uint256",
          "name": "tokenId",
          "type": "uint256"
        }
      ],
      "name": "Approval",
      "type": "event"
    },
    {
      "anonymous": false,
      "inputs": [
        {
          "indexed": true,
          "internalType": "address",
          "name": "owner",
          "type": "address"
        },
        {
          "indexed": true,
          "internalType": "address",
          "name": "operator",
          "type": "address"
        },
        {
          "indexed": false,
          "internalType": "bool",
          "name": "approved",
          "type": "bool"
        }
      ],
      "name": "ApprovalForAll",
      "type": "event"
    },
    {
      "anonymous": false,
      "inputs": [
        {
          "indexed": true,
          "internalType": "address",
          "name": "previousOwner",
          "type": "address"
        },
        {
          "indexed": true,
          "internalType": "address",
          "name": "newOwner",
          "type": "address"
        }
      ],
      "name": "OwnershipTransferred",
      "type": "event"
    },
    {
      "anonymous": false,
      "inputs": [
        {
          "indexed": true,
          "internalType": "address",
          "name": "from",
          "type": "address"
        },
        {
          "indexed": true,
          "internalType": "address",
          "name": "to",
          "type": "address"
        },
        {
          "indexed": true,
          "internalType": "uint256",
          "name": "tokenId",
          "type": "uint256"
        }
      ],
      "name": "Transfer",
      "type": "event"
    },
    {
      "anonymous": false,
      "inputs": [
        {
          "indexed": false,
          "internalType": "uint16",
          "name": "amount",
          "type": "uint16"
        }
      ],
      "name": "yetiMintedAmount",
      "type": "event"
    },
    {
      "inputs": [
        {
          "internalType": "address",
          "name": "to",
          "type": "address"
        },
        {
          "internalType": "uint256",
          "name": "tokenId",
          "type": "uint256"
        }
      ],
      "name": "approve",
      "outputs": [],
      "stateMutability": "nonpayable",
      "type": "function"
    },
    {
      "inputs": [
        {
          "internalType": "address",
          "name": "owner",
          "type": "address"
        }
      ],
      "name": "balanceOf",
      "outputs": [
        {
          "internalType": "uint256",
          "name": "",
          "type": "uint256"
        }
      ],
      "stateMutability": "view",
      "type": "function",
      "constant": true
    },
    {
      "inputs": [],
      "name": "baseURI",
      "outputs": [
        {
          "internalType": "string",
          "name": "",
          "type": "string"
        }
      ],
      "stateMutability": "view",
      "type": "function",
      "constant": true
    },
    {
      "inputs": [
        {
          "internalType": "uint256",
          "name": "tokenId",
          "type": "uint256"
        }
      ],
      "name": "getApproved",
      "outputs": [
        {
          "internalType": "address",
          "name": "",
          "type": "address"
        }
      ],
      "stateMutability": "view",
      "type": "function",
      "constant": true
    },
    {
      "inputs": [
        {
          "internalType": "address",
          "name": "owner",
          "type": "address"
        },
        {
          "internalType": "address",
          "name": "operator",
          "type": "address"
        }
      ],
      "name": "isApprovedForAll",
      "outputs": [
        {
          "internalType": "bool",
          "name": "",
          "type": "bool"
        }
      ],
      "stateMutability": "view",
      "type": "function",
      "constant": true
    },
    {
      "inputs": [],
      "name": "name",
      "outputs": [
        {
          "internalType": "string",
          "name": "",
          "type": "string"
        }
      ],
      "stateMutability": "view",
      "type": "function",
      "constant": true
    },
    {
      "inputs": [],
      "name": "owner",
      "outputs": [
        {
          "internalType": "address",
          "name": "",
          "type": "address"
        }
      ],
      "stateMutability": "view",
      "type": "function",
      "constant": true
    },
    {
      "inputs": [
        {
          "internalType": "uint256",
          "name": "tokenId",
          "type": "uint256"
        }
      ],
      "name": "ownerOf",
      "outputs": [
        {
          "internalType": "address",
          "name": "",
          "type": "address"
        }
      ],
      "stateMutability": "view",
      "type": "function",
      "constant": true
    },
    {
      "inputs": [],
      "name": "renounceOwnership",
      "outputs": [],
      "stateMutability": "nonpayable",
      "type": "function"
    },
    {
      "inputs": [
        {
          "internalType": "address",
          "name": "from",
          "type": "address"
        },
        {
          "internalType": "address",
          "name": "to",
          "type": "address"
        },
        {
          "internalType": "uint256",
          "name": "tokenId",
          "type": "uint256"
        }
      ],
      "name": "safeTransferFrom",
      "outputs": [],
      "stateMutability": "nonpayable",
      "type": "function"
    },
    {
      "inputs": [
        {
          "internalType": "address",
          "name": "from",
          "type": "address"
        },
        {
          "internalType": "address",
          "name": "to",
          "type": "address"
        },
        {
          "internalType": "uint256",
          "name": "tokenId",
          "type": "uint256"
        },
        {
          "internalType": "bytes",
          "name": "_data",
          "type": "bytes"
        }
      ],
      "name": "safeTransferFrom",
      "outputs": [],
      "stateMutability": "nonpayable",
      "type": "function"
    },
    {
      "inputs": [
        {
          "internalType": "address",
          "name": "operator",
          "type": "address"
        },
        {
          "internalType": "bool",
          "name": "approved",
          "type": "bool"
        }
      ],
      "name": "setApprovalForAll",
      "outputs": [],
      "stateMutability": "nonpayable",
      "type": "function"
    },
    {
      "inputs": [],
      "name": "symbol",
      "outputs": [
        {
          "internalType": "string",
          "name": "",
          "type": "string"
        }
      ],
      "stateMutability": "view",
      "type": "function",
      "constant": true
    },
    {
      "inputs": [],
      "name": "totalSupply",
      "outputs": [
        {
          "internalType": "uint16",
          "name": "",
          "type": "uint16"
        }
      ],
      "stateMutability": "view",
      "type": "function",
      "constant": true
    },
    {
      "inputs": [
        {
          "internalType": "address",
          "name": "from",
          "type": "address"
        },
        {
          "internalType": "address",
          "name": "to",
          "type": "address"
        },
        {
          "internalType": "uint256",
          "name": "tokenId",
          "type": "uint256"
        }
      ],
      "name": "transferFrom",
      "outputs": [],
      "stateMutability": "nonpayable",
      "type": "function"
    },
    {
      "inputs": [
        {
          "internalType": "address",
          "name": "newOwner",
          "type": "address"
        }
      ],
      "name": "transferOwnership",
      "outputs": [],
      "stateMutability": "nonpayable",
      "type": "function"
    },
    {
      "inputs": [],
      "name": "withdraw",
      "outputs": [],
      "stateMutability": "nonpayable",
      "type": "function"
    },
    {
      "inputs": [
        {
          "internalType": "string",
          "name": "base",
          "type": "string"
        }
      ],
      "name": "setBaseURI",
      "outputs": [],
      "stateMutability": "nonpayable",
      "type": "function"
    },
    {
      "inputs": [
        {
          "internalType": "uint16",
          "name": "numberOfTokens",
          "type": "uint16"
        }
      ],
      "name": "mint",
      "outputs": [],
      "stateMutability": "payable",
      "type": "function",
      "payable": true
    },
    {
      "inputs": [
        {
          "internalType": "uint256",
          "name": "tokenId",
          "type": "uint256"
        }
      ],
      "name": "tokenURI",
      "outputs": [
        {
          "internalType": "string",
          "name": "",
          "type": "string"
        }
      ],
      "stateMutability": "view",
      "type": "function",
      "constant": true
    },
    {
      "inputs": [
        {
          "internalType": "bytes4",
          "name": "interfaceId",
          "type": "bytes4"
        }
      ],
      "name": "supportsInterface",
      "outputs": [
        {
          "internalType": "bool",
          "name": "",
          "type": "bool"
        }
      ],
      "stateMutability": "view",
      "type": "function",
      "constant": true
    }
  ],
  "bytecode": "0x60806040526000600860006101000a81548161ffff021916908361ffff160217905550612710600860026101000a81548161ffff021916908361ffff1602179055503480156200004e57600080fd5b506040518060400160405280600981526020017f5965746950756e6b7300000000000000000000000000000000000000000000008152506040518060400160405280600481526020017f59455449000000000000000000000000000000000000000000000000000000008152508160009080519060200190620000d3929190620001e3565b508060019080519060200190620000ec929190620001e3565b5050506200010f620001036200011560201b60201c565b6200011d60201b60201c565b620002f8565b600033905090565b6000600660009054906101000a900473ffffffffffffffffffffffffffffffffffffffff16905081600660006101000a81548173ffffffffffffffffffffffffffffffffffffffff021916908373ffffffffffffffffffffffffffffffffffffffff1602179055508173ffffffffffffffffffffffffffffffffffffffff168173ffffffffffffffffffffffffffffffffffffffff167f8be0079c531659141344cd1fd0a4f28419497f9722a3daafe3b4186f6b6457e060405160405180910390a35050565b828054620001f190620002c2565b90600052602060002090601f01602090048101928262000215576000855562000261565b82601f106200023057805160ff191683800117855562000261565b8280016001018555821562000261579182015b828111156200026057825182559160200191906001019062000243565b5b50905062000270919062000274565b5090565b5b808211156200028f57600081600090555060010162000275565b5090565b7f4e487b7100000000000000000000000000000000000000000000000000000000600052602260045260246000fd5b60006002820490506001821680620002db57607f821691505b60208210811415620002f257620002f162000293565b5b50919050565b61347980620003086000396000f3fe60806040526004361061012a5760003560e01c80636352211e116100ab57806395d89b411161006f57806395d89b41146103bd578063a22cb465146103e8578063b88d4fde14610411578063c87b56dd1461043a578063e985e9c514610477578063f2fde38b146104b45761012a565b80636352211e146102d65780636c0360eb1461031357806370a082311461033e578063715018a61461037b5780638da5cb5b146103925761012a565b806323b872dd116100f257806323b872dd1461022857806323cf0a22146102515780633ccfd60b1461026d57806342842e0e1461028457806355f804b3146102ad5761012a565b806301ffc9a71461012f57806306fdde031461016c578063081812fc14610197578063095ea7b3146101d457806318160ddd146101fd575b600080fd5b34801561013b57600080fd5b5061015660048036038101906101519190612001565b6104dd565b6040516101639190612049565b60405180910390f35b34801561017857600080fd5b506101816104ef565b60405161018e91906120fd565b60405180910390f35b3480156101a357600080fd5b506101be60048036038101906101b99190612155565b610581565b6040516101cb91906121c3565b60405180910390f35b3480156101e057600080fd5b506101fb60048036038101906101f6919061220a565b610606565b005b34801561020957600080fd5b5061021261071e565b60405161021f9190612267565b60405180910390f35b34801561023457600080fd5b5061024f600480360381019061024a9190612282565b610732565b005b61026b60048036038101906102669190612301565b610792565b005b34801561027957600080fd5b5061028261093f565b005b34801561029057600080fd5b506102ab60048036038101906102a69190612282565b610a0a565b005b3480156102b957600080fd5b506102d460048036038101906102cf9190612463565b610a2a565b005b3480156102e257600080fd5b506102fd60048036038101906102f89190612155565b610ac0565b60405161030a91906121c3565b60405180910390f35b34801561031f57600080fd5b50610328610b72565b60405161033591906120fd565b60405180910390f35b34801561034a57600080fd5b50610365600480360381019061036091906124ac565b610c00565b60405161037291906124e8565b60405180910390f35b34801561038757600080fd5b50610390610cb8565b005b34801561039e57600080fd5b506103a7610d40565b6040516103b491906121c3565b60405180910390f35b3480156103c957600080fd5b506103d2610d6a565b6040516103df91906120fd565b60405180910390f35b3480156103f457600080fd5b5061040f600480360381019061040a919061252f565b610dfc565b005b34801561041d57600080fd5b5061043860048036038101906104339190612610565b610f7d565b005b34801561044657600080fd5b50610461600480360381019061045c9190612155565b610fdf565b60405161046e91906120fd565b60405180910390f35b34801561048357600080fd5b5061049e60048036038101906104999190612693565b610ff1565b6040516104ab9190612049565b60405180910390f35b3480156104c057600080fd5b506104db60048036038101906104d691906124ac565b611085565b005b60006104e88261117d565b9050919050565b6060600080546104fe90612702565b80601f016020809104026020016040519081016040528092919081815260200182805461052a90612702565b80156105775780601f1061054c57610100808354040283529160200191610577565b820191906000526020600020905b81548152906001019060200180831161055a57829003601f168201915b5050505050905090565b600061058c8261125f565b6105cb576040517f08c379a00000000000000000000000000000000000000000000000000000000081526004016105c2906127a6565b60405180910390fd5b6004600083815260200190815260200160002060009054906101000a900473ffffffffffffffffffffffffffffffffffffffff169050919050565b600061061182610ac0565b90508073ffffffffffffffffffffffffffffffffffffffff168373ffffffffffffffffffffffffffffffffffffffff161415610682576040517f08c379a000000000000000000000000000000000000000000000000000000000815260040161067990612838565b60405180910390fd5b8073ffffffffffffffffffffffffffffffffffffffff166106a16112cb565b73ffffffffffffffffffffffffffffffffffffffff1614806106d057506106cf816106ca6112cb565b610ff1565b5b61070f576040517f08c379a0000000000000000000000000000000000000000000000000000000008152600401610706906128ca565b60405180910390fd5b61071983836112d3565b505050565b600860009054906101000a900461ffff1681565b61074361073d6112cb565b8261138c565b610782576040517f08c379a00000000000000000000000000000000000000000000000000000000081526004016107799061295c565b60405180910390fd5b61078d83838361146a565b505050565b600860029054906101000a900461ffff1661ffff166001600860009054906101000a900461ffff166107c491906129ab565b61ffff1610610808576040517f08c379a00000000000000000000000000000000000000000000000000000000081526004016107ff90612a55565b60405180910390fd5b600860029054906101000a900461ffff1661ffff1681600860009054906101000a900461ffff1661083991906129ab565b61ffff16111561087e576040517f08c379a000000000000000000000000000000000000000000000000000000000815260040161087590612b0d565b60405180910390fd5b60005b8161ffff16811015610904576108b7336001600860009054906101000a900461ffff166108ae91906129ab565b61ffff166116c6565b6001600860008282829054906101000a900461ffff166108d791906129ab565b92506101000a81548161ffff021916908361ffff16021790555080806108fc90612b2d565b915050610881565b507f412e63455210b097d853957c72a8c7e71e063f5f727cae1b9de7342c0ee3553b816040516109349190612267565b60405180910390a150565b6109476112cb565b73ffffffffffffffffffffffffffffffffffffffff16610965610d40565b73ffffffffffffffffffffffffffffffffffffffff16146109bb576040517f08c379a00000000000000000000000000000000000000000000000000000000081526004016109b290612bc2565b60405180910390fd5b60004790503373ffffffffffffffffffffffffffffffffffffffff166108fc829081150290604051600060405180830381858888f19350505050158015610a06573d6000803e3d6000fd5b5050565b610a2583838360405180602001604052806000815250610f7d565b505050565b610a326112cb565b73ffffffffffffffffffffffffffffffffffffffff16610a50610d40565b73ffffffffffffffffffffffffffffffffffffffff1614610aa6576040517f08c379a0000000000000000000000000000000000000000000000000000000008152600401610a9d90612bc2565b60405180910390fd5b8060079080519060200190610abc929190611ef2565b5050565b6000806002600084815260200190815260200160002060009054906101000a900473ffffffffffffffffffffffffffffffffffffffff169050600073ffffffffffffffffffffffffffffffffffffffff168173ffffffffffffffffffffffffffffffffffffffff161415610b69576040517f08c379a0000000000000000000000000000000000000000000000000000000008152600401610b6090612c54565b60405180910390fd5b80915050919050565b60078054610b7f90612702565b80601f0160208091040260200160405190810160405280929190818152602001828054610bab90612702565b8015610bf85780601f10610bcd57610100808354040283529160200191610bf8565b820191906000526020600020905b815481529060010190602001808311610bdb57829003601f168201915b505050505081565b60008073ffffffffffffffffffffffffffffffffffffffff168273ffffffffffffffffffffffffffffffffffffffff161415610c71576040517f08c379a0000000000000000000000000000000000000000000000000000000008152600401610c6890612ce6565b60405180910390fd5b600360008373ffffffffffffffffffffffffffffffffffffffff1673ffffffffffffffffffffffffffffffffffffffff168152602001908152602001600020549050919050565b610cc06112cb565b73ffffffffffffffffffffffffffffffffffffffff16610cde610d40565b73ffffffffffffffffffffffffffffffffffffffff1614610d34576040517f08c379a0000000000000000000000000000000000000000000000000000000008152600401610d2b90612bc2565b60405180910390fd5b610d3e60006116e4565b565b6000600660009054906101000a900473ffffffffffffffffffffffffffffffffffffffff16905090565b606060018054610d7990612702565b80601f0160208091040260200160405190810160405280929190818152602001828054610da590612702565b8015610df25780601f10610dc757610100808354040283529160200191610df2565b820191906000526020600020905b815481529060010190602001808311610dd557829003601f168201915b5050505050905090565b610e046112cb565b73ffffffffffffffffffffffffffffffffffffffff168273ffffffffffffffffffffffffffffffffffffffff161415610e72576040517f08c379a0000000000000000000000000000000000000000000000000000000008152600401610e6990612d52565b60405180910390fd5b8060056000610e7f6112cb565b73ffffffffffffffffffffffffffffffffffffffff1673ffffffffffffffffffffffffffffffffffffffff16815260200190815260200160002060008473ffffffffffffffffffffffffffffffffffffffff1673ffffffffffffffffffffffffffffffffffffffff16815260200190815260200160002060006101000a81548160ff0219169083151502179055508173ffffffffffffffffffffffffffffffffffffffff16610f2c6112cb565b73ffffffffffffffffffffffffffffffffffffffff167f17307eab39ab6107e8899845ad3d59bd9653f200f220920489ca2b5937696c3183604051610f719190612049565b60405180910390a35050565b610f8e610f886112cb565b8361138c565b610fcd576040517f08c379a0000000000000000000000000000000000000000000000000000000008152600401610fc49061295c565b60405180910390fd5b610fd9848484846117aa565b50505050565b6060610fea82611806565b9050919050565b6000600560008473ffffffffffffffffffffffffffffffffffffffff1673ffffffffffffffffffffffffffffffffffffffff16815260200190815260200160002060008373ffffffffffffffffffffffffffffffffffffffff1673ffffffffffffffffffffffffffffffffffffffff16815260200190815260200160002060009054906101000a900460ff16905092915050565b61108d6112cb565b73ffffffffffffffffffffffffffffffffffffffff166110ab610d40565b73ffffffffffffffffffffffffffffffffffffffff1614611101576040517f08c379a00000000000000000000000000000000000000000000000000000000081526004016110f890612bc2565b60405180910390fd5b600073ffffffffffffffffffffffffffffffffffffffff168173ffffffffffffffffffffffffffffffffffffffff161415611171576040517f08c379a000000000000000000000000000000000000000000000000000000000815260040161116890612de4565b60405180910390fd5b61117a816116e4565b50565b60007f80ac58cd000000000000000000000000000000000000000000000000000000007bffffffffffffffffffffffffffffffffffffffffffffffffffffffff1916827bffffffffffffffffffffffffffffffffffffffffffffffffffffffff1916148061124857507f5b5e139f000000000000000000000000000000000000000000000000000000007bffffffffffffffffffffffffffffffffffffffffffffffffffffffff1916827bffffffffffffffffffffffffffffffffffffffffffffffffffffffff1916145b806112585750611257826118ad565b5b9050919050565b60008073ffffffffffffffffffffffffffffffffffffffff166002600084815260200190815260200160002060009054906101000a900473ffffffffffffffffffffffffffffffffffffffff1673ffffffffffffffffffffffffffffffffffffffff1614159050919050565b600033905090565b816004600083815260200190815260200160002060006101000a81548173ffffffffffffffffffffffffffffffffffffffff021916908373ffffffffffffffffffffffffffffffffffffffff160217905550808273ffffffffffffffffffffffffffffffffffffffff1661134683610ac0565b73ffffffffffffffffffffffffffffffffffffffff167f8c5be1e5ebec7d5bd14f71427d1e84f3dd0314c0f7b2291e5b200ac8c7c3b92560405160405180910390a45050565b60006113978261125f565b6113d6576040517f08c379a00000000000000000000000000000000000000000000000000000000081526004016113cd90612e76565b60405180910390fd5b60006113e183610ac0565b90508073ffffffffffffffffffffffffffffffffffffffff168473ffffffffffffffffffffffffffffffffffffffff16148061145057508373ffffffffffffffffffffffffffffffffffffffff1661143884610581565b73ffffffffffffffffffffffffffffffffffffffff16145b8061146157506114608185610ff1565b5b91505092915050565b8273ffffffffffffffffffffffffffffffffffffffff1661148a82610ac0565b73ffffffffffffffffffffffffffffffffffffffff16146114e0576040517f08c379a00000000000000000000000000000000000000000000000000000000081526004016114d790612f08565b60405180910390fd5b600073ffffffffffffffffffffffffffffffffffffffff168273ffffffffffffffffffffffffffffffffffffffff161415611550576040517f08c379a000000000000000000000000000000000000000000000000000000000815260040161154790612f9a565b60405180910390fd5b61155b838383611917565b6115666000826112d3565b6001600360008573ffffffffffffffffffffffffffffffffffffffff1673ffffffffffffffffffffffffffffffffffffffff16815260200190815260200160002060008282546115b69190612fba565b925050819055506001600360008473ffffffffffffffffffffffffffffffffffffffff1673ffffffffffffffffffffffffffffffffffffffff168152602001908152602001600020600082825461160d9190612fee565b92505081905550816002600083815260200190815260200160002060006101000a81548173ffffffffffffffffffffffffffffffffffffffff021916908373ffffffffffffffffffffffffffffffffffffffff160217905550808273ffffffffffffffffffffffffffffffffffffffff168473ffffffffffffffffffffffffffffffffffffffff167fddf252ad1be2c89b69c2b068fc378daa952ba7f163c4a11628f55a4df523b3ef60405160405180910390a4505050565b6116e0828260405180602001604052806000815250611927565b5050565b6000600660009054906101000a900473ffffffffffffffffffffffffffffffffffffffff16905081600660006101000a81548173ffffffffffffffffffffffffffffffffffffffff021916908373ffffffffffffffffffffffffffffffffffffffff1602179055508173ffffffffffffffffffffffffffffffffffffffff168173ffffffffffffffffffffffffffffffffffffffff167f8be0079c531659141344cd1fd0a4f28419497f9722a3daafe3b4186f6b6457e060405160405180910390a35050565b6117b584848461146a565b6117c184848484611982565b611800576040517f08c379a00000000000000000000000000000000000000000000000000000000081526004016117f7906130b6565b60405180910390fd5b50505050565b60606118118261125f565b611850576040517f08c379a000000000000000000000000000000000000000000000000000000000815260040161184790613148565b60405180910390fd5b600061185a611b19565b9050600081511161187a57604051806020016040528060008152506118a5565b8061188484611bab565b6040516020016118959291906131a4565b6040516020818303038152906040525b915050919050565b60007f01ffc9a7000000000000000000000000000000000000000000000000000000007bffffffffffffffffffffffffffffffffffffffffffffffffffffffff1916827bffffffffffffffffffffffffffffffffffffffffffffffffffffffff1916149050919050565b611922838383611d0c565b505050565b6119318383611d11565b61193e6000848484611982565b61197d576040517f08c379a0000000000000000000000000000000000000000000000000000000008152600401611974906130b6565b60405180910390fd5b505050565b60006119a38473ffffffffffffffffffffffffffffffffffffffff16611edf565b15611b0c578373ffffffffffffffffffffffffffffffffffffffff1663150b7a026119cc6112cb565b8786866040518563ffffffff1660e01b81526004016119ee949392919061321d565b602060405180830381600087803b158015611a0857600080fd5b505af1925050508015611a3957506040513d601f19601f82011682018060405250810190611a36919061327e565b60015b611abc573d8060008114611a69576040519150601f19603f3d011682016040523d82523d6000602084013e611a6e565b606091505b50600081511415611ab4576040517f08c379a0000000000000000000000000000000000000000000000000000000008152600401611aab906130b6565b60405180910390fd5b805181602001fd5b63150b7a0260e01b7bffffffffffffffffffffffffffffffffffffffffffffffffffffffff1916817bffffffffffffffffffffffffffffffffffffffffffffffffffffffff191614915050611b11565b600190505b949350505050565b606060078054611b2890612702565b80601f0160208091040260200160405190810160405280929190818152602001828054611b5490612702565b8015611ba15780601f10611b7657610100808354040283529160200191611ba1565b820191906000526020600020905b815481529060010190602001808311611b8457829003601f168201915b5050505050905090565b60606000821415611bf3576040518060400160405280600181526020017f30000000000000000000000000000000000000000000000000000000000000008152509050611d07565b600082905060005b60008214611c25578080611c0e90612b2d565b915050600a82611c1e91906132da565b9150611bfb565b60008167ffffffffffffffff811115611c4157611c40612338565b5b6040519080825280601f01601f191660200182016040528015611c735781602001600182028036833780820191505090505b5090505b60008514611d0057600182611c8c9190612fba565b9150600a85611c9b919061330b565b6030611ca79190612fee565b60f81b818381518110611cbd57611cbc61333c565b5b60200101907effffffffffffffffffffffffffffffffffffffffffffffffffffffffffffff1916908160001a905350600a85611cf991906132da565b9450611c77565b8093505050505b919050565b505050565b600073ffffffffffffffffffffffffffffffffffffffff168273ffffffffffffffffffffffffffffffffffffffff161415611d81576040517f08c379a0000000000000000000000000000000000000000000000000000000008152600401611d78906133b7565b60405180910390fd5b611d8a8161125f565b15611dca576040517f08c379a0000000000000000000000000000000000000000000000000000000008152600401611dc190613423565b60405180910390fd5b611dd660008383611917565b6001600360008473ffffffffffffffffffffffffffffffffffffffff1673ffffffffffffffffffffffffffffffffffffffff1681526020019081526020016000206000828254611e269190612fee565b92505081905550816002600083815260200190815260200160002060006101000a81548173ffffffffffffffffffffffffffffffffffffffff021916908373ffffffffffffffffffffffffffffffffffffffff160217905550808273ffffffffffffffffffffffffffffffffffffffff16600073ffffffffffffffffffffffffffffffffffffffff167fddf252ad1be2c89b69c2b068fc378daa952ba7f163c4a11628f55a4df523b3ef60405160405180910390a45050565b600080823b905060008111915050919050565b828054611efe90612702565b90600052602060002090601f016020900481019282611f205760008555611f67565b82601f10611f3957805160ff1916838001178555611f67565b82800160010185558215611f67579182015b82811115611f66578251825591602001919060010190611f4b565b5b509050611f749190611f78565b5090565b5b80821115611f91576000816000905550600101611f79565b5090565b6000604051905090565b600080fd5b600080fd5b60007fffffffff0000000000000000000000000000000000000000000000000000000082169050919050565b611fde81611fa9565b8114611fe957600080fd5b50565b600081359050611ffb81611fd5565b92915050565b60006020828403121561201757612016611f9f565b5b600061202584828501611fec565b91505092915050565b60008115159050919050565b6120438161202e565b82525050565b600060208201905061205e600083018461203a565b92915050565b600081519050919050565b600082825260208201905092915050565b60005b8381101561209e578082015181840152602081019050612083565b838111156120ad576000848401525b50505050565b6000601f19601f8301169050919050565b60006120cf82612064565b6120d9818561206f565b93506120e9818560208601612080565b6120f2816120b3565b840191505092915050565b6000602082019050818103600083015261211781846120c4565b905092915050565b6000819050919050565b6121328161211f565b811461213d57600080fd5b50565b60008135905061214f81612129565b92915050565b60006020828403121561216b5761216a611f9f565b5b600061217984828501612140565b91505092915050565b600073ffffffffffffffffffffffffffffffffffffffff82169050919050565b60006121ad82612182565b9050919050565b6121bd816121a2565b82525050565b60006020820190506121d860008301846121b4565b92915050565b6121e7816121a2565b81146121f257600080fd5b50565b600081359050612204816121de565b92915050565b6000806040838503121561222157612220611f9f565b5b600061222f858286016121f5565b925050602061224085828601612140565b9150509250929050565b600061ffff82169050919050565b6122618161224a565b82525050565b600060208201905061227c6000830184612258565b92915050565b60008060006060848603121561229b5761229a611f9f565b5b60006122a9868287016121f5565b93505060206122ba868287016121f5565b92505060406122cb86828701612140565b9150509250925092565b6122de8161224a565b81146122e957600080fd5b50565b6000813590506122fb816122d5565b92915050565b60006020828403121561231757612316611f9f565b5b6000612325848285016122ec565b91505092915050565b600080fd5b600080fd5b7f4e487b7100000000000000000000000000000000000000000000000000000000600052604160045260246000fd5b612370826120b3565b810181811067ffffffffffffffff8211171561238f5761238e612338565b5b80604052505050565b60006123a2611f95565b90506123ae8282612367565b919050565b600067ffffffffffffffff8211156123ce576123cd612338565b5b6123d7826120b3565b9050602081019050919050565b82818337600083830152505050565b6000612406612401846123b3565b612398565b90508281526020810184848401111561242257612421612333565b5b61242d8482856123e4565b509392505050565b600082601f83011261244a5761244961232e565b5b813561245a8482602086016123f3565b91505092915050565b60006020828403121561247957612478611f9f565b5b600082013567ffffffffffffffff81111561249757612496611fa4565b5b6124a384828501612435565b91505092915050565b6000602082840312156124c2576124c1611f9f565b5b60006124d0848285016121f5565b91505092915050565b6124e28161211f565b82525050565b60006020820190506124fd60008301846124d9565b92915050565b61250c8161202e565b811461251757600080fd5b50565b60008135905061252981612503565b92915050565b6000806040838503121561254657612545611f9f565b5b6000612554858286016121f5565b92505060206125658582860161251a565b9150509250929050565b600067ffffffffffffffff82111561258a57612589612338565b5b612593826120b3565b9050602081019050919050565b60006125b36125ae8461256f565b612398565b9050828152602081018484840111156125cf576125ce612333565b5b6125da8482856123e4565b509392505050565b600082601f8301126125f7576125f661232e565b5b81356126078482602086016125a0565b91505092915050565b6000806000806080858703121561262a57612629611f9f565b5b6000612638878288016121f5565b9450506020612649878288016121f5565b935050604061265a87828801612140565b925050606085013567ffffffffffffffff81111561267b5761267a611fa4565b5b612687878288016125e2565b91505092959194509250565b600080604083850312156126aa576126a9611f9f565b5b60006126b8858286016121f5565b92505060206126c9858286016121f5565b9150509250929050565b7f4e487b7100000000000000000000000000000000000000000000000000000000600052602260045260246000fd5b6000600282049050600182168061271a57607f821691505b6020821081141561272e5761272d6126d3565b5b50919050565b7f4552433732313a20617070726f76656420717565727920666f72206e6f6e657860008201527f697374656e7420746f6b656e0000000000000000000000000000000000000000602082015250565b6000612790602c8361206f565b915061279b82612734565b604082019050919050565b600060208201905081810360008301526127bf81612783565b9050919050565b7f4552433732313a20617070726f76616c20746f2063757272656e74206f776e6560008201527f7200000000000000000000000000000000000000000000000000000000000000602082015250565b600061282260218361206f565b915061282d826127c6565b604082019050919050565b6000602082019050818103600083015261285181612815565b9050919050565b7f4552433732313a20617070726f76652063616c6c6572206973206e6f74206f7760008201527f6e6572206e6f7220617070726f76656420666f7220616c6c0000000000000000602082015250565b60006128b460388361206f565b91506128bf82612858565b604082019050919050565b600060208201905081810360008301526128e3816128a7565b9050919050565b7f4552433732313a207472616e736665722063616c6c6572206973206e6f74206f60008201527f776e6572206e6f7220617070726f766564000000000000000000000000000000602082015250565b600061294660318361206f565b9150612951826128ea565b604082019050919050565b6000602082019050818103600083015261297581612939565b9050919050565b7f4e487b7100000000000000000000000000000000000000000000000000000000600052601160045260246000fd5b60006129b68261224a565b91506129c18361224a565b92508261ffff038211156129d8576129d761297c565b5b828201905092915050565b7f416c6c20796574692070756e6b73206861766520616c7265616479206265656e60008201527f206d696e74656421000000000000000000000000000000000000000000000000602082015250565b6000612a3f60288361206f565b9150612a4a826129e3565b604082019050919050565b60006020820190508181036000830152612a6e81612a32565b9050919050565b7f596f752061726520747279696e6720746f206d696e74206d6f7265205965746960008201527f73207468616e20617265206c6566742c20646563726561736520746865206e7560208201527f6d626572206f6620796574697320616e642074727920616761696e2e00000000604082015250565b6000612af7605c8361206f565b9150612b0282612a75565b606082019050919050565b60006020820190508181036000830152612b2681612aea565b9050919050565b6000612b388261211f565b91507fffffffffffffffffffffffffffffffffffffffffffffffffffffffffffffffff821415612b6b57612b6a61297c565b5b600182019050919050565b7f4f776e61626c653a2063616c6c6572206973206e6f7420746865206f776e6572600082015250565b6000612bac60208361206f565b9150612bb782612b76565b602082019050919050565b60006020820190508181036000830152612bdb81612b9f565b9050919050565b7f4552433732313a206f776e657220717565727920666f72206e6f6e657869737460008201527f656e7420746f6b656e0000000000000000000000000000000000000000000000602082015250565b6000612c3e60298361206f565b9150612c4982612be2565b604082019050919050565b60006020820190508181036000830152612c6d81612c31565b9050919050565b7f4552433732313a2062616c616e636520717565727920666f7220746865207a6560008201527f726f206164647265737300000000000000000000000000000000000000000000602082015250565b6000612cd0602a8361206f565b9150612cdb82612c74565b604082019050919050565b60006020820190508181036000830152612cff81612cc3565b9050919050565b7f4552433732313a20617070726f766520746f2063616c6c657200000000000000600082015250565b6000612d3c60198361206f565b9150612d4782612d06565b602082019050919050565b60006020820190508181036000830152612d6b81612d2f565b9050919050565b7f4f776e61626c653a206e6577206f776e657220697320746865207a65726f206160008201527f6464726573730000000000000000000000000000000000000000000000000000602082015250565b6000612dce60268361206f565b9150612dd982612d72565b604082019050919050565b60006020820190508181036000830152612dfd81612dc1565b9050919050565b7f4552433732313a206f70657261746f7220717565727920666f72206e6f6e657860008201527f697374656e7420746f6b656e0000000000000000000000000000000000000000602082015250565b6000612e60602c8361206f565b9150612e6b82612e04565b604082019050919050565b60006020820190508181036000830152612e8f81612e53565b9050919050565b7f4552433732313a207472616e73666572206f6620746f6b656e2074686174206960008201527f73206e6f74206f776e0000000000000000000000000000000000000000000000602082015250565b6000612ef260298361206f565b9150612efd82612e96565b604082019050919050565b60006020820190508181036000830152612f2181612ee5565b9050919050565b7f4552433732313a207472616e7366657220746f20746865207a65726f2061646460008201527f7265737300000000000000000000000000000000000000000000000000000000602082015250565b6000612f8460248361206f565b9150612f8f82612f28565b604082019050919050565b60006020820190508181036000830152612fb381612f77565b9050919050565b6000612fc58261211f565b9150612fd08361211f565b925082821015612fe357612fe261297c565b5b828203905092915050565b6000612ff98261211f565b91506130048361211f565b9250827fffffffffffffffffffffffffffffffffffffffffffffffffffffffffffffffff038211156130395761303861297c565b5b828201905092915050565b7f4552433732313a207472616e7366657220746f206e6f6e20455243373231526560008201527f63656976657220696d706c656d656e7465720000000000000000000000000000602082015250565b60006130a060328361206f565b91506130ab82613044565b604082019050919050565b600060208201905081810360008301526130cf81613093565b9050919050565b7f4552433732314d657461646174613a2055524920717565727920666f72206e6f60008201527f6e6578697374656e7420746f6b656e0000000000000000000000000000000000602082015250565b6000613132602f8361206f565b915061313d826130d6565b604082019050919050565b6000602082019050818103600083015261316181613125565b9050919050565b600081905092915050565b600061317e82612064565b6131888185613168565b9350613198818560208601612080565b80840191505092915050565b60006131b08285613173565b91506131bc8284613173565b91508190509392505050565b600081519050919050565b600082825260208201905092915050565b60006131ef826131c8565b6131f981856131d3565b9350613209818560208601612080565b613212816120b3565b840191505092915050565b600060808201905061323260008301876121b4565b61323f60208301866121b4565b61324c60408301856124d9565b818103606083015261325e81846131e4565b905095945050505050565b60008151905061327881611fd5565b92915050565b60006020828403121561329457613293611f9f565b5b60006132a284828501613269565b91505092915050565b7f4e487b7100000000000000000000000000000000000000000000000000000000600052601260045260246000fd5b60006132e58261211f565b91506132f08361211f565b925082613300576132ff6132ab565b5b828204905092915050565b60006133168261211f565b91506133218361211f565b925082613331576133306132ab565b5b828206905092915050565b7f4e487b7100000000000000000000000000000000000000000000000000000000600052603260045260246000fd5b7f4552433732313a206d696e7420746f20746865207a65726f2061646472657373600082015250565b60006133a160208361206f565b91506133ac8261336b565b602082019050919050565b600060208201905081810360008301526133d081613394565b9050919050565b7f4552433732313a20746f6b656e20616c7265616479206d696e74656400000000600082015250565b600061340d601c8361206f565b9150613418826133d7565b602082019050919050565b6000602082019050818103600083015261343c81613400565b905091905056fea2646970667358221220c710cdea49f01f61865afe60b3cfc5aa701728aa9a45a719e22d15753be89eb864736f6c63430008090033",
  "immutableReferences": {},
  "source": "// SPDX-License-Identifier: MIT\npragma solidity ^0.8.9;\n\nimport \"@openzeppelin/contracts/token/ERC721/ERC721.sol\";\nimport \"@openzeppelin/contracts/access/Ownable.sol\";\n\ncontract YetiPunks is ERC721, Ownable {\n    \n    string public baseURI;\n    uint16 public totalSupply = 0;\n    uint16 MAX_YETIS = 10000;\n    event yetiMintedAmount(uint16 amount);\n\n    constructor() ERC721(\"YetiPunks\", \"YETI\") {\n     \n    }\n\n    function withdraw() public onlyOwner {\n        uint256 balance = address(this).balance;\n        payable(msg.sender).transfer(balance);\n\n    }\n\n    function setBaseURI(string memory base) public onlyOwner {\n        baseURI = base;\n    }\n\n    function _baseURI() internal view virtual override returns (string memory) {\n        return baseURI;\n    }\n\n    // Despite the function being payable, I've removed any functionality for that here for the simplicity of the example.\n    function mint(uint16 numberOfTokens) public payable {\n        require(totalSupply + 1 < MAX_YETIS, \"All yeti punks have already been minted!\");\n        require(totalSupply + numberOfTokens <= MAX_YETIS, \"You are trying to mint more Yetis than are left, decrease the number of yetis and try again.\");\n        \n        for (uint i = 0; i < numberOfTokens; i++) {\n            _safeMint(msg.sender, totalSupply + 1);\n            totalSupply += 1;\n        }\n\n        emit yetiMintedAmount(numberOfTokens);\n    }\n\n    function tokenURI(uint256 tokenId) public view virtual override(ERC721) returns (string memory) {\n        return super.tokenURI(tokenId);\n    }\n\n    function _beforeTokenTransfer(address from, address to, uint256 tokenId) internal override(ERC721) {\n        super._beforeTokenTransfer(from, to, tokenId);\n    }\n\n    function _burn(uint256 tokenId) internal override(ERC721) {\n        super._burn(tokenId);\n    }\n\n    function supportsInterface(bytes4 interfaceId) public view override(ERC721) returns (bool) {\n        return super.supportsInterface(interfaceId);\n    }\n}",
  "sourcePath": "/Users/christopherfoley/nft/YetiPunks/src/contracts/YetiPunks.sol",
  "compiler": {
    "name": "solc",
    "version": "0.8.9+commit.e5eed63a.Emscripten.clang"
  },
  "schemaVersion": "3.4.4",
  "updatedAt": "2022-01-06T01:31:42.912Z",
  "networkType": "ethereum",
  "devdoc": {
    "kind": "dev",
    "methods": {
      "approve(address,uint256)": {
        "details": "See {IERC721-approve}."
      },
      "balanceOf(address)": {
        "details": "See {IERC721-balanceOf}."
      },
      "getApproved(uint256)": {
        "details": "See {IERC721-getApproved}."
      },
      "isApprovedForAll(address,address)": {
        "details": "See {IERC721-isApprovedForAll}."
      },
      "name()": {
        "details": "See {IERC721Metadata-name}."
      },
      "owner()": {
        "details": "Returns the address of the current owner."
      },
      "ownerOf(uint256)": {
        "details": "See {IERC721-ownerOf}."
      },
      "renounceOwnership()": {
        "details": "Leaves the contract without owner. It will not be possible to call `onlyOwner` functions anymore. Can only be called by the current owner. NOTE: Renouncing ownership will leave the contract without an owner, thereby removing any functionality that is only available to the owner."
      },
      "safeTransferFrom(address,address,uint256)": {
        "details": "See {IERC721-safeTransferFrom}."
      },
      "safeTransferFrom(address,address,uint256,bytes)": {
        "details": "See {IERC721-safeTransferFrom}."
      },
      "setApprovalForAll(address,bool)": {
        "details": "See {IERC721-setApprovalForAll}."
      },
      "supportsInterface(bytes4)": {
        "details": "See {IERC165-supportsInterface}."
      },
      "symbol()": {
        "details": "See {IERC721Metadata-symbol}."
      },
      "tokenURI(uint256)": {
        "details": "See {IERC721Metadata-tokenURI}."
      },
      "transferFrom(address,address,uint256)": {
        "details": "See {IERC721-transferFrom}."
      },
      "transferOwnership(address)": {
        "details": "Transfers ownership of the contract to a new account (`newOwner`). Can only be called by the current owner."
      }
    },
    "version": 1
  },
  "userdoc": {
    "kind": "user",
    "methods": {},
    "version": 1
  }
}