{
  "contractName": "YetiPunks",
  "abi": [
    {
      "inputs": [],
      "stateMutability": "nonpayable",
      "type": "constructor"
    },
    {
      "anonymous": false,
      "inputs": [
        {
          "indexed": true,
          "internalType": "address",
          "name": "owner",
          "type": "address"
        },
        {
          "indexed": true,
          "internalType": "address",
          "name": "approved",
          "type": "address"
        },
        {
          "indexed": true,
          "internalType": "uint256",
          "name": "tokenId",
          "type": "uint256"
        }
      ],
      "name": "Approval",
      "type": "event"
    },
    {
      "anonymous": false,
      "inputs": [
        {
          "indexed": true,
          "internalType": "address",
          "name": "owner",
          "type": "address"
        },
        {
          "indexed": true,
          "internalType": "address",
          "name": "operator",
          "type": "address"
        },
        {
          "indexed": false,
          "internalType": "bool",
          "name": "approved",
          "type": "bool"
        }
      ],
      "name": "ApprovalForAll",
      "type": "event"
    },
    {
      "anonymous": false,
      "inputs": [
        {
          "indexed": true,
          "internalType": "address",
          "name": "previousOwner",
          "type": "address"
        },
        {
          "indexed": true,
          "internalType": "address",
          "name": "newOwner",
          "type": "address"
        }
      ],
      "name": "OwnershipTransferred",
      "type": "event"
    },
    {
      "anonymous": false,
      "inputs": [
        {
          "indexed": true,
          "internalType": "address",
          "name": "from",
          "type": "address"
        },
        {
          "indexed": true,
          "internalType": "address",
          "name": "to",
          "type": "address"
        },
        {
          "indexed": true,
          "internalType": "uint256",
          "name": "tokenId",
          "type": "uint256"
        }
      ],
      "name": "Transfer",
      "type": "event"
    },
    {
      "inputs": [
        {
          "internalType": "address",
          "name": "to",
          "type": "address"
        },
        {
          "internalType": "uint256",
          "name": "tokenId",
          "type": "uint256"
        }
      ],
      "name": "approve",
      "outputs": [],
      "stateMutability": "nonpayable",
      "type": "function"
    },
    {
      "inputs": [
        {
          "internalType": "address",
          "name": "owner",
          "type": "address"
        }
      ],
      "name": "balanceOf",
      "outputs": [
        {
          "internalType": "uint256",
          "name": "",
          "type": "uint256"
        }
      ],
      "stateMutability": "view",
      "type": "function",
      "constant": true
    },
    {
      "inputs": [
        {
          "internalType": "uint256",
          "name": "tokenId",
          "type": "uint256"
        }
      ],
      "name": "getApproved",
      "outputs": [
        {
          "internalType": "address",
          "name": "",
          "type": "address"
        }
      ],
      "stateMutability": "view",
      "type": "function",
      "constant": true
    },
    {
      "inputs": [
        {
          "internalType": "address",
          "name": "owner",
          "type": "address"
        },
        {
          "internalType": "address",
          "name": "operator",
          "type": "address"
        }
      ],
      "name": "isApprovedForAll",
      "outputs": [
        {
          "internalType": "bool",
          "name": "",
          "type": "bool"
        }
      ],
      "stateMutability": "view",
      "type": "function",
      "constant": true
    },
    {
      "inputs": [],
      "name": "name",
      "outputs": [
        {
          "internalType": "string",
          "name": "",
          "type": "string"
        }
      ],
      "stateMutability": "view",
      "type": "function",
      "constant": true
    },
    {
      "inputs": [],
      "name": "owner",
      "outputs": [
        {
          "internalType": "address",
          "name": "",
          "type": "address"
        }
      ],
      "stateMutability": "view",
      "type": "function",
      "constant": true
    },
    {
      "inputs": [
        {
          "internalType": "uint256",
          "name": "tokenId",
          "type": "uint256"
        }
      ],
      "name": "ownerOf",
      "outputs": [
        {
          "internalType": "address",
          "name": "",
          "type": "address"
        }
      ],
      "stateMutability": "view",
      "type": "function",
      "constant": true
    },
    {
      "inputs": [],
      "name": "renounceOwnership",
      "outputs": [],
      "stateMutability": "nonpayable",
      "type": "function"
    },
    {
      "inputs": [
        {
          "internalType": "address",
          "name": "from",
          "type": "address"
        },
        {
          "internalType": "address",
          "name": "to",
          "type": "address"
        },
        {
          "internalType": "uint256",
          "name": "tokenId",
          "type": "uint256"
        }
      ],
      "name": "safeTransferFrom",
      "outputs": [],
      "stateMutability": "nonpayable",
      "type": "function"
    },
    {
      "inputs": [
        {
          "internalType": "address",
          "name": "from",
          "type": "address"
        },
        {
          "internalType": "address",
          "name": "to",
          "type": "address"
        },
        {
          "internalType": "uint256",
          "name": "tokenId",
          "type": "uint256"
        },
        {
          "internalType": "bytes",
          "name": "_data",
          "type": "bytes"
        }
      ],
      "name": "safeTransferFrom",
      "outputs": [],
      "stateMutability": "nonpayable",
      "type": "function"
    },
    {
      "inputs": [
        {
          "internalType": "address",
          "name": "operator",
          "type": "address"
        },
        {
          "internalType": "bool",
          "name": "approved",
          "type": "bool"
        }
      ],
      "name": "setApprovalForAll",
      "outputs": [],
      "stateMutability": "nonpayable",
      "type": "function"
    },
    {
      "inputs": [],
      "name": "symbol",
      "outputs": [
        {
          "internalType": "string",
          "name": "",
          "type": "string"
        }
      ],
      "stateMutability": "view",
      "type": "function",
      "constant": true
    },
    {
      "inputs": [],
      "name": "totalSupply",
      "outputs": [
        {
          "internalType": "uint16",
          "name": "",
          "type": "uint16"
        }
      ],
      "stateMutability": "view",
      "type": "function",
      "constant": true
    },
    {
      "inputs": [
        {
          "internalType": "address",
          "name": "from",
          "type": "address"
        },
        {
          "internalType": "address",
          "name": "to",
          "type": "address"
        },
        {
          "internalType": "uint256",
          "name": "tokenId",
          "type": "uint256"
        }
      ],
      "name": "transferFrom",
      "outputs": [],
      "stateMutability": "nonpayable",
      "type": "function"
    },
    {
      "inputs": [
        {
          "internalType": "address",
          "name": "newOwner",
          "type": "address"
        }
      ],
      "name": "transferOwnership",
      "outputs": [],
      "stateMutability": "nonpayable",
      "type": "function"
    },
    {
      "inputs": [
        {
          "internalType": "string",
          "name": "base",
          "type": "string"
        }
      ],
      "name": "setBaseURI",
      "outputs": [],
      "stateMutability": "nonpayable",
      "type": "function"
    },
    {
      "inputs": [
        {
          "internalType": "uint16",
          "name": "numberOfTokens",
          "type": "uint16"
        }
      ],
      "name": "mint",
      "outputs": [],
      "stateMutability": "payable",
      "type": "function",
      "payable": true
    },
    {
      "inputs": [
        {
          "internalType": "uint256",
          "name": "tokenId",
          "type": "uint256"
        }
      ],
      "name": "tokenURI",
      "outputs": [
        {
          "internalType": "string",
          "name": "",
          "type": "string"
        }
      ],
      "stateMutability": "view",
      "type": "function",
      "constant": true
    },
    {
      "inputs": [
        {
          "internalType": "bytes4",
          "name": "interfaceId",
          "type": "bytes4"
        }
      ],
      "name": "supportsInterface",
      "outputs": [
        {
          "internalType": "bool",
          "name": "",
          "type": "bool"
        }
      ],
      "stateMutability": "view",
      "type": "function",
      "constant": true
    },
    {
      "inputs": [],
      "name": "withdrawBalance",
      "outputs": [],
      "stateMutability": "nonpayable",
      "type": "function"
    }
  ],
  "bytecode": "0x60806040526000600860006101000a81548161ffff021916908361ffff160217905550600a600860026101000a81548161ffff021916908361ffff1602179055503480156200004d57600080fd5b506040518060400160405280600a81526020017f596574692050756e6b73000000000000000000000000000000000000000000008152506040518060400160405280600281526020017f59500000000000000000000000000000000000000000000000000000000000008152508160009080519060200190620000d2929190620001e2565b508060019080519060200190620000eb929190620001e2565b5050506200010e620001026200011460201b60201c565b6200011c60201b60201c565b620002f7565b600033905090565b6000600660009054906101000a900473ffffffffffffffffffffffffffffffffffffffff16905081600660006101000a81548173ffffffffffffffffffffffffffffffffffffffff021916908373ffffffffffffffffffffffffffffffffffffffff1602179055508173ffffffffffffffffffffffffffffffffffffffff168173ffffffffffffffffffffffffffffffffffffffff167f8be0079c531659141344cd1fd0a4f28419497f9722a3daafe3b4186f6b6457e060405160405180910390a35050565b828054620001f090620002c1565b90600052602060002090601f01602090048101928262000214576000855562000260565b82601f106200022f57805160ff191683800117855562000260565b8280016001018555821562000260579182015b828111156200025f57825182559160200191906001019062000242565b5b5090506200026f919062000273565b5090565b5b808211156200028e57600081600090555060010162000274565b5090565b7f4e487b7100000000000000000000000000000000000000000000000000000000600052602260045260246000fd5b60006002820490506001821680620002da57607f821691505b60208210811415620002f157620002f062000292565b5b50919050565b6135bc80620003076000396000f3fe60806040526004361061011f5760003560e01c80636352211e116100a0578063a22cb46511610064578063a22cb465146103b2578063b88d4fde146103db578063c87b56dd14610404578063e985e9c514610441578063f2fde38b1461047e5761011f565b80636352211e146102cb57806370a0823114610308578063715018a6146103455780638da5cb5b1461035c57806395d89b41146103875761011f565b806323b872dd116100e757806323b872dd1461021d57806323cf0a221461024657806342842e0e1461026257806355f804b31461028b5780635fd8c710146102b45761011f565b806301ffc9a71461012457806306fdde0314610161578063081812fc1461018c578063095ea7b3146101c957806318160ddd146101f2575b600080fd5b34801561013057600080fd5b5061014b600480360381019061014691906120a4565b6104a7565b60405161015891906120ec565b60405180910390f35b34801561016d57600080fd5b506101766104b9565b60405161018391906121a0565b60405180910390f35b34801561019857600080fd5b506101b360048036038101906101ae91906121f8565b61054b565b6040516101c09190612266565b60405180910390f35b3480156101d557600080fd5b506101f060048036038101906101eb91906122ad565b6105d0565b005b3480156101fe57600080fd5b506102076106e8565b604051610214919061230a565b60405180910390f35b34801561022957600080fd5b50610244600480360381019061023f9190612325565b6106fc565b005b610260600480360381019061025b91906123a4565b61075c565b005b34801561026e57600080fd5b5061028960048036038101906102849190612325565b6108d2565b005b34801561029757600080fd5b506102b260048036038101906102ad9190612506565b6108f2565b005b3480156102c057600080fd5b506102c9610988565b005b3480156102d757600080fd5b506102f260048036038101906102ed91906121f8565b610bef565b6040516102ff9190612266565b60405180910390f35b34801561031457600080fd5b5061032f600480360381019061032a919061254f565b610ca1565b60405161033c919061258b565b60405180910390f35b34801561035157600080fd5b5061035a610d59565b005b34801561036857600080fd5b50610371610de1565b60405161037e9190612266565b60405180910390f35b34801561039357600080fd5b5061039c610e0b565b6040516103a991906121a0565b60405180910390f35b3480156103be57600080fd5b506103d960048036038101906103d491906125d2565b610e9d565b005b3480156103e757600080fd5b5061040260048036038101906103fd91906126b3565b610eb3565b005b34801561041057600080fd5b5061042b600480360381019061042691906121f8565b610f15565b60405161043891906121a0565b60405180910390f35b34801561044d57600080fd5b5061046860048036038101906104639190612736565b610f27565b60405161047591906120ec565b60405180910390f35b34801561048a57600080fd5b506104a560048036038101906104a0919061254f565b610fbb565b005b60006104b2826110b3565b9050919050565b6060600080546104c8906127a5565b80601f01602080910402602001604051908101604052809291908181526020018280546104f4906127a5565b80156105415780601f1061051657610100808354040283529160200191610541565b820191906000526020600020905b81548152906001019060200180831161052457829003601f168201915b5050505050905090565b600061055682611195565b610595576040517f08c379a000000000000000000000000000000000000000000000000000000000815260040161058c90612849565b60405180910390fd5b6004600083815260200190815260200160002060009054906101000a900473ffffffffffffffffffffffffffffffffffffffff169050919050565b60006105db82610bef565b90508073ffffffffffffffffffffffffffffffffffffffff168373ffffffffffffffffffffffffffffffffffffffff16141561064c576040517f08c379a0000000000000000000000000000000000000000000000000000000008152600401610643906128db565b60405180910390fd5b8073ffffffffffffffffffffffffffffffffffffffff1661066b611201565b73ffffffffffffffffffffffffffffffffffffffff16148061069a575061069981610694611201565b610f27565b5b6106d9576040517f08c379a00000000000000000000000000000000000000000000000000000000081526004016106d09061296d565b60405180910390fd5b6106e38383611209565b505050565b600860009054906101000a900461ffff1681565b61070d610707611201565b826112c2565b61074c576040517f08c379a0000000000000000000000000000000000000000000000000000000008152600401610743906129ff565b60405180910390fd5b6107578383836113a0565b505050565b600860029054906101000a900461ffff1661ffff166001600860009054906101000a900461ffff1661078e9190612a4e565b61ffff16106107d2576040517f08c379a00000000000000000000000000000000000000000000000000000000081526004016107c990612af8565b60405180910390fd5b600860029054906101000a900461ffff1661ffff1681600860009054906101000a900461ffff166108039190612a4e565b61ffff161115610848576040517f08c379a000000000000000000000000000000000000000000000000000000000815260040161083f90612bb0565b60405180910390fd5b60005b8161ffff168110156108ce57610881336001600860009054906101000a900461ffff166108789190612a4e565b61ffff166115fc565b6001600860008282829054906101000a900461ffff166108a19190612a4e565b92506101000a81548161ffff021916908361ffff16021790555080806108c690612bd0565b91505061084b565b5050565b6108ed83838360405180602001604052806000815250610eb3565b505050565b6108fa611201565b73ffffffffffffffffffffffffffffffffffffffff16610918610de1565b73ffffffffffffffffffffffffffffffffffffffff161461096e576040517f08c379a000000000000000000000000000000000000000000000000000000000815260040161096590612c65565b60405180910390fd5b8060079080519060200190610984929190611f95565b5050565b610990611201565b73ffffffffffffffffffffffffffffffffffffffff166109ae610de1565b73ffffffffffffffffffffffffffffffffffffffff1614610a04576040517f08c379a00000000000000000000000000000000000000000000000000000000081526004016109fb90612c65565b60405180910390fd5b60007349cf0af1ce6a50e822a91a427b3e29007f9c6c0973ffffffffffffffffffffffffffffffffffffffff166064602247610a409190612c85565b610a4a9190612d0e565b604051610a5690612d70565b60006040518083038185875af1925050503d8060008114610a93576040519150601f19603f3d011682016040523d82523d6000602084013e610a98565b606091505b5050905080610aa657600080fd5b600073d61adc48afe9402b4411805ce6026ef74f94e71373ffffffffffffffffffffffffffffffffffffffff166064602147610ae29190612c85565b610aec9190612d0e565b604051610af890612d70565b60006040518083038185875af1925050503d8060008114610b35576040519150601f19603f3d011682016040523d82523d6000602084013e610b3a565b606091505b5050905080610b4857600080fd5b600073e3ce04b3bcbdfa219407870ca617e18fbf503f2873ffffffffffffffffffffffffffffffffffffffff166064602147610b849190612c85565b610b8e9190612d0e565b604051610b9a90612d70565b60006040518083038185875af1925050503d8060008114610bd7576040519150601f19603f3d011682016040523d82523d6000602084013e610bdc565b606091505b5050905080610bea57600080fd5b505050565b6000806002600084815260200190815260200160002060009054906101000a900473ffffffffffffffffffffffffffffffffffffffff169050600073ffffffffffffffffffffffffffffffffffffffff168173ffffffffffffffffffffffffffffffffffffffff161415610c98576040517f08c379a0000000000000000000000000000000000000000000000000000000008152600401610c8f90612df7565b60405180910390fd5b80915050919050565b60008073ffffffffffffffffffffffffffffffffffffffff168273ffffffffffffffffffffffffffffffffffffffff161415610d12576040517f08c379a0000000000000000000000000000000000000000000000000000000008152600401610d0990612e89565b60405180910390fd5b600360008373ffffffffffffffffffffffffffffffffffffffff1673ffffffffffffffffffffffffffffffffffffffff168152602001908152602001600020549050919050565b610d61611201565b73ffffffffffffffffffffffffffffffffffffffff16610d7f610de1565b73ffffffffffffffffffffffffffffffffffffffff1614610dd5576040517f08c379a0000000000000000000000000000000000000000000000000000000008152600401610dcc90612c65565b60405180910390fd5b610ddf600061161a565b565b6000600660009054906101000a900473ffffffffffffffffffffffffffffffffffffffff16905090565b606060018054610e1a906127a5565b80601f0160208091040260200160405190810160405280929190818152602001828054610e46906127a5565b8015610e935780601f10610e6857610100808354040283529160200191610e93565b820191906000526020600020905b815481529060010190602001808311610e7657829003601f168201915b5050505050905090565b610eaf610ea8611201565b83836116e0565b5050565b610ec4610ebe611201565b836112c2565b610f03576040517f08c379a0000000000000000000000000000000000000000000000000000000008152600401610efa906129ff565b60405180910390fd5b610f0f8484848461184d565b50505050565b6060610f20826118a9565b9050919050565b6000600560008473ffffffffffffffffffffffffffffffffffffffff1673ffffffffffffffffffffffffffffffffffffffff16815260200190815260200160002060008373ffffffffffffffffffffffffffffffffffffffff1673ffffffffffffffffffffffffffffffffffffffff16815260200190815260200160002060009054906101000a900460ff16905092915050565b610fc3611201565b73ffffffffffffffffffffffffffffffffffffffff16610fe1610de1565b73ffffffffffffffffffffffffffffffffffffffff1614611037576040517f08c379a000000000000000000000000000000000000000000000000000000000815260040161102e90612c65565b60405180910390fd5b600073ffffffffffffffffffffffffffffffffffffffff168173ffffffffffffffffffffffffffffffffffffffff1614156110a7576040517f08c379a000000000000000000000000000000000000000000000000000000000815260040161109e90612f1b565b60405180910390fd5b6110b08161161a565b50565b60007f80ac58cd000000000000000000000000000000000000000000000000000000007bffffffffffffffffffffffffffffffffffffffffffffffffffffffff1916827bffffffffffffffffffffffffffffffffffffffffffffffffffffffff1916148061117e57507f5b5e139f000000000000000000000000000000000000000000000000000000007bffffffffffffffffffffffffffffffffffffffffffffffffffffffff1916827bffffffffffffffffffffffffffffffffffffffffffffffffffffffff1916145b8061118e575061118d82611950565b5b9050919050565b60008073ffffffffffffffffffffffffffffffffffffffff166002600084815260200190815260200160002060009054906101000a900473ffffffffffffffffffffffffffffffffffffffff1673ffffffffffffffffffffffffffffffffffffffff1614159050919050565b600033905090565b816004600083815260200190815260200160002060006101000a81548173ffffffffffffffffffffffffffffffffffffffff021916908373ffffffffffffffffffffffffffffffffffffffff160217905550808273ffffffffffffffffffffffffffffffffffffffff1661127c83610bef565b73ffffffffffffffffffffffffffffffffffffffff167f8c5be1e5ebec7d5bd14f71427d1e84f3dd0314c0f7b2291e5b200ac8c7c3b92560405160405180910390a45050565b60006112cd82611195565b61130c576040517f08c379a000000000000000000000000000000000000000000000000000000000815260040161130390612fad565b60405180910390fd5b600061131783610bef565b90508073ffffffffffffffffffffffffffffffffffffffff168473ffffffffffffffffffffffffffffffffffffffff16148061138657508373ffffffffffffffffffffffffffffffffffffffff1661136e8461054b565b73ffffffffffffffffffffffffffffffffffffffff16145b8061139757506113968185610f27565b5b91505092915050565b8273ffffffffffffffffffffffffffffffffffffffff166113c082610bef565b73ffffffffffffffffffffffffffffffffffffffff1614611416576040517f08c379a000000000000000000000000000000000000000000000000000000000815260040161140d9061303f565b60405180910390fd5b600073ffffffffffffffffffffffffffffffffffffffff168273ffffffffffffffffffffffffffffffffffffffff161415611486576040517f08c379a000000000000000000000000000000000000000000000000000000000815260040161147d906130d1565b60405180910390fd5b6114918383836119ba565b61149c600082611209565b6001600360008573ffffffffffffffffffffffffffffffffffffffff1673ffffffffffffffffffffffffffffffffffffffff16815260200190815260200160002060008282546114ec91906130f1565b925050819055506001600360008473ffffffffffffffffffffffffffffffffffffffff1673ffffffffffffffffffffffffffffffffffffffff16815260200190815260200160002060008282546115439190613125565b92505081905550816002600083815260200190815260200160002060006101000a81548173ffffffffffffffffffffffffffffffffffffffff021916908373ffffffffffffffffffffffffffffffffffffffff160217905550808273ffffffffffffffffffffffffffffffffffffffff168473ffffffffffffffffffffffffffffffffffffffff167fddf252ad1be2c89b69c2b068fc378daa952ba7f163c4a11628f55a4df523b3ef60405160405180910390a4505050565b6116168282604051806020016040528060008152506119ca565b5050565b6000600660009054906101000a900473ffffffffffffffffffffffffffffffffffffffff16905081600660006101000a81548173ffffffffffffffffffffffffffffffffffffffff021916908373ffffffffffffffffffffffffffffffffffffffff1602179055508173ffffffffffffffffffffffffffffffffffffffff168173ffffffffffffffffffffffffffffffffffffffff167f8be0079c531659141344cd1fd0a4f28419497f9722a3daafe3b4186f6b6457e060405160405180910390a35050565b8173ffffffffffffffffffffffffffffffffffffffff168373ffffffffffffffffffffffffffffffffffffffff16141561174f576040517f08c379a0000000000000000000000000000000000000000000000000000000008152600401611746906131c7565b60405180910390fd5b80600560008573ffffffffffffffffffffffffffffffffffffffff1673ffffffffffffffffffffffffffffffffffffffff16815260200190815260200160002060008473ffffffffffffffffffffffffffffffffffffffff1673ffffffffffffffffffffffffffffffffffffffff16815260200190815260200160002060006101000a81548160ff0219169083151502179055508173ffffffffffffffffffffffffffffffffffffffff168373ffffffffffffffffffffffffffffffffffffffff167f17307eab39ab6107e8899845ad3d59bd9653f200f220920489ca2b5937696c318360405161184091906120ec565b60405180910390a3505050565b6118588484846113a0565b61186484848484611a25565b6118a3576040517f08c379a000000000000000000000000000000000000000000000000000000000815260040161189a90613259565b60405180910390fd5b50505050565b60606118b482611195565b6118f3576040517f08c379a00000000000000000000000000000000000000000000000000000000081526004016118ea906132eb565b60405180910390fd5b60006118fd611bbc565b9050600081511161191d5760405180602001604052806000815250611948565b8061192784611c4e565b604051602001611938929190613347565b6040516020818303038152906040525b915050919050565b60007f01ffc9a7000000000000000000000000000000000000000000000000000000007bffffffffffffffffffffffffffffffffffffffffffffffffffffffff1916827bffffffffffffffffffffffffffffffffffffffffffffffffffffffff1916149050919050565b6119c5838383611daf565b505050565b6119d48383611db4565b6119e16000848484611a25565b611a20576040517f08c379a0000000000000000000000000000000000000000000000000000000008152600401611a1790613259565b60405180910390fd5b505050565b6000611a468473ffffffffffffffffffffffffffffffffffffffff16611f82565b15611baf578373ffffffffffffffffffffffffffffffffffffffff1663150b7a02611a6f611201565b8786866040518563ffffffff1660e01b8152600401611a9194939291906133c0565b602060405180830381600087803b158015611aab57600080fd5b505af1925050508015611adc57506040513d601f19601f82011682018060405250810190611ad99190613421565b60015b611b5f573d8060008114611b0c576040519150601f19603f3d011682016040523d82523d6000602084013e611b11565b606091505b50600081511415611b57576040517f08c379a0000000000000000000000000000000000000000000000000000000008152600401611b4e90613259565b60405180910390fd5b805181602001fd5b63150b7a0260e01b7bffffffffffffffffffffffffffffffffffffffffffffffffffffffff1916817bffffffffffffffffffffffffffffffffffffffffffffffffffffffff191614915050611bb4565b600190505b949350505050565b606060078054611bcb906127a5565b80601f0160208091040260200160405190810160405280929190818152602001828054611bf7906127a5565b8015611c445780601f10611c1957610100808354040283529160200191611c44565b820191906000526020600020905b815481529060010190602001808311611c2757829003601f168201915b5050505050905090565b60606000821415611c96576040518060400160405280600181526020017f30000000000000000000000000000000000000000000000000000000000000008152509050611daa565b600082905060005b60008214611cc8578080611cb190612bd0565b915050600a82611cc19190612d0e565b9150611c9e565b60008167ffffffffffffffff811115611ce457611ce36123db565b5b6040519080825280601f01601f191660200182016040528015611d165781602001600182028036833780820191505090505b5090505b60008514611da357600182611d2f91906130f1565b9150600a85611d3e919061344e565b6030611d4a9190613125565b60f81b818381518110611d6057611d5f61347f565b5b60200101907effffffffffffffffffffffffffffffffffffffffffffffffffffffffffffff1916908160001a905350600a85611d9c9190612d0e565b9450611d1a565b8093505050505b919050565b505050565b600073ffffffffffffffffffffffffffffffffffffffff168273ffffffffffffffffffffffffffffffffffffffff161415611e24576040517f08c379a0000000000000000000000000000000000000000000000000000000008152600401611e1b906134fa565b60405180910390fd5b611e2d81611195565b15611e6d576040517f08c379a0000000000000000000000000000000000000000000000000000000008152600401611e6490613566565b60405180910390fd5b611e79600083836119ba565b6001600360008473ffffffffffffffffffffffffffffffffffffffff1673ffffffffffffffffffffffffffffffffffffffff1681526020019081526020016000206000828254611ec99190613125565b92505081905550816002600083815260200190815260200160002060006101000a81548173ffffffffffffffffffffffffffffffffffffffff021916908373ffffffffffffffffffffffffffffffffffffffff160217905550808273ffffffffffffffffffffffffffffffffffffffff16600073ffffffffffffffffffffffffffffffffffffffff167fddf252ad1be2c89b69c2b068fc378daa952ba7f163c4a11628f55a4df523b3ef60405160405180910390a45050565b600080823b905060008111915050919050565b828054611fa1906127a5565b90600052602060002090601f016020900481019282611fc3576000855561200a565b82601f10611fdc57805160ff191683800117855561200a565b8280016001018555821561200a579182015b82811115612009578251825591602001919060010190611fee565b5b509050612017919061201b565b5090565b5b8082111561203457600081600090555060010161201c565b5090565b6000604051905090565b600080fd5b600080fd5b60007fffffffff0000000000000000000000000000000000000000000000000000000082169050919050565b6120818161204c565b811461208c57600080fd5b50565b60008135905061209e81612078565b92915050565b6000602082840312156120ba576120b9612042565b5b60006120c88482850161208f565b91505092915050565b60008115159050919050565b6120e6816120d1565b82525050565b600060208201905061210160008301846120dd565b92915050565b600081519050919050565b600082825260208201905092915050565b60005b83811015612141578082015181840152602081019050612126565b83811115612150576000848401525b50505050565b6000601f19601f8301169050919050565b600061217282612107565b61217c8185612112565b935061218c818560208601612123565b61219581612156565b840191505092915050565b600060208201905081810360008301526121ba8184612167565b905092915050565b6000819050919050565b6121d5816121c2565b81146121e057600080fd5b50565b6000813590506121f2816121cc565b92915050565b60006020828403121561220e5761220d612042565b5b600061221c848285016121e3565b91505092915050565b600073ffffffffffffffffffffffffffffffffffffffff82169050919050565b600061225082612225565b9050919050565b61226081612245565b82525050565b600060208201905061227b6000830184612257565b92915050565b61228a81612245565b811461229557600080fd5b50565b6000813590506122a781612281565b92915050565b600080604083850312156122c4576122c3612042565b5b60006122d285828601612298565b92505060206122e3858286016121e3565b9150509250929050565b600061ffff82169050919050565b612304816122ed565b82525050565b600060208201905061231f60008301846122fb565b92915050565b60008060006060848603121561233e5761233d612042565b5b600061234c86828701612298565b935050602061235d86828701612298565b925050604061236e868287016121e3565b9150509250925092565b612381816122ed565b811461238c57600080fd5b50565b60008135905061239e81612378565b92915050565b6000602082840312156123ba576123b9612042565b5b60006123c88482850161238f565b91505092915050565b600080fd5b600080fd5b7f4e487b7100000000000000000000000000000000000000000000000000000000600052604160045260246000fd5b61241382612156565b810181811067ffffffffffffffff82111715612432576124316123db565b5b80604052505050565b6000612445612038565b9050612451828261240a565b919050565b600067ffffffffffffffff821115612471576124706123db565b5b61247a82612156565b9050602081019050919050565b82818337600083830152505050565b60006124a96124a484612456565b61243b565b9050828152602081018484840111156124c5576124c46123d6565b5b6124d0848285612487565b509392505050565b600082601f8301126124ed576124ec6123d1565b5b81356124fd848260208601612496565b91505092915050565b60006020828403121561251c5761251b612042565b5b600082013567ffffffffffffffff81111561253a57612539612047565b5b612546848285016124d8565b91505092915050565b60006020828403121561256557612564612042565b5b600061257384828501612298565b91505092915050565b612585816121c2565b82525050565b60006020820190506125a0600083018461257c565b92915050565b6125af816120d1565b81146125ba57600080fd5b50565b6000813590506125cc816125a6565b92915050565b600080604083850312156125e9576125e8612042565b5b60006125f785828601612298565b9250506020612608858286016125bd565b9150509250929050565b600067ffffffffffffffff82111561262d5761262c6123db565b5b61263682612156565b9050602081019050919050565b600061265661265184612612565b61243b565b905082815260208101848484011115612672576126716123d6565b5b61267d848285612487565b509392505050565b600082601f83011261269a576126996123d1565b5b81356126aa848260208601612643565b91505092915050565b600080600080608085870312156126cd576126cc612042565b5b60006126db87828801612298565b94505060206126ec87828801612298565b93505060406126fd878288016121e3565b925050606085013567ffffffffffffffff81111561271e5761271d612047565b5b61272a87828801612685565b91505092959194509250565b6000806040838503121561274d5761274c612042565b5b600061275b85828601612298565b925050602061276c85828601612298565b9150509250929050565b7f4e487b7100000000000000000000000000000000000000000000000000000000600052602260045260246000fd5b600060028204905060018216806127bd57607f821691505b602082108114156127d1576127d0612776565b5b50919050565b7f4552433732313a20617070726f76656420717565727920666f72206e6f6e657860008201527f697374656e7420746f6b656e0000000000000000000000000000000000000000602082015250565b6000612833602c83612112565b915061283e826127d7565b604082019050919050565b6000602082019050818103600083015261286281612826565b9050919050565b7f4552433732313a20617070726f76616c20746f2063757272656e74206f776e6560008201527f7200000000000000000000000000000000000000000000000000000000000000602082015250565b60006128c5602183612112565b91506128d082612869565b604082019050919050565b600060208201905081810360008301526128f4816128b8565b9050919050565b7f4552433732313a20617070726f76652063616c6c6572206973206e6f74206f7760008201527f6e6572206e6f7220617070726f76656420666f7220616c6c0000000000000000602082015250565b6000612957603883612112565b9150612962826128fb565b604082019050919050565b600060208201905081810360008301526129868161294a565b9050919050565b7f4552433732313a207472616e736665722063616c6c6572206973206e6f74206f60008201527f776e6572206e6f7220617070726f766564000000000000000000000000000000602082015250565b60006129e9603183612112565b91506129f48261298d565b604082019050919050565b60006020820190508181036000830152612a18816129dc565b9050919050565b7f4e487b7100000000000000000000000000000000000000000000000000000000600052601160045260246000fd5b6000612a59826122ed565b9150612a64836122ed565b92508261ffff03821115612a7b57612a7a612a1f565b5b828201905092915050565b7f416c6c20796574692070756e6b73206861766520616c7265616479206265656e60008201527f206d696e74656421000000000000000000000000000000000000000000000000602082015250565b6000612ae2602883612112565b9150612aed82612a86565b604082019050919050565b60006020820190508181036000830152612b1181612ad5565b9050919050565b7f596f752061726520747279696e6720746f206d696e74206d6f7265205965746960008201527f73207468616e20617265206c6566742c20646563726561736520746865206e7560208201527f6d626572206f6620796574697320616e642074727920616761696e2e00000000604082015250565b6000612b9a605c83612112565b9150612ba582612b18565b606082019050919050565b60006020820190508181036000830152612bc981612b8d565b9050919050565b6000612bdb826121c2565b91507fffffffffffffffffffffffffffffffffffffffffffffffffffffffffffffffff821415612c0e57612c0d612a1f565b5b600182019050919050565b7f4f776e61626c653a2063616c6c6572206973206e6f7420746865206f776e6572600082015250565b6000612c4f602083612112565b9150612c5a82612c19565b602082019050919050565b60006020820190508181036000830152612c7e81612c42565b9050919050565b6000612c90826121c2565b9150612c9b836121c2565b9250817fffffffffffffffffffffffffffffffffffffffffffffffffffffffffffffffff0483118215151615612cd457612cd3612a1f565b5b828202905092915050565b7f4e487b7100000000000000000000000000000000000000000000000000000000600052601260045260246000fd5b6000612d19826121c2565b9150612d24836121c2565b925082612d3457612d33612cdf565b5b828204905092915050565b600081905092915050565b50565b6000612d5a600083612d3f565b9150612d6582612d4a565b600082019050919050565b6000612d7b82612d4d565b9150819050919050565b7f4552433732313a206f776e657220717565727920666f72206e6f6e657869737460008201527f656e7420746f6b656e0000000000000000000000000000000000000000000000602082015250565b6000612de1602983612112565b9150612dec82612d85565b604082019050919050565b60006020820190508181036000830152612e1081612dd4565b9050919050565b7f4552433732313a2062616c616e636520717565727920666f7220746865207a6560008201527f726f206164647265737300000000000000000000000000000000000000000000602082015250565b6000612e73602a83612112565b9150612e7e82612e17565b604082019050919050565b60006020820190508181036000830152612ea281612e66565b9050919050565b7f4f776e61626c653a206e6577206f776e657220697320746865207a65726f206160008201527f6464726573730000000000000000000000000000000000000000000000000000602082015250565b6000612f05602683612112565b9150612f1082612ea9565b604082019050919050565b60006020820190508181036000830152612f3481612ef8565b9050919050565b7f4552433732313a206f70657261746f7220717565727920666f72206e6f6e657860008201527f697374656e7420746f6b656e0000000000000000000000000000000000000000602082015250565b6000612f97602c83612112565b9150612fa282612f3b565b604082019050919050565b60006020820190508181036000830152612fc681612f8a565b9050919050565b7f4552433732313a207472616e73666572206f6620746f6b656e2074686174206960008201527f73206e6f74206f776e0000000000000000000000000000000000000000000000602082015250565b6000613029602983612112565b915061303482612fcd565b604082019050919050565b600060208201905081810360008301526130588161301c565b9050919050565b7f4552433732313a207472616e7366657220746f20746865207a65726f2061646460008201527f7265737300000000000000000000000000000000000000000000000000000000602082015250565b60006130bb602483612112565b91506130c68261305f565b604082019050919050565b600060208201905081810360008301526130ea816130ae565b9050919050565b60006130fc826121c2565b9150613107836121c2565b92508282101561311a57613119612a1f565b5b828203905092915050565b6000613130826121c2565b915061313b836121c2565b9250827fffffffffffffffffffffffffffffffffffffffffffffffffffffffffffffffff038211156131705761316f612a1f565b5b828201905092915050565b7f4552433732313a20617070726f766520746f2063616c6c657200000000000000600082015250565b60006131b1601983612112565b91506131bc8261317b565b602082019050919050565b600060208201905081810360008301526131e0816131a4565b9050919050565b7f4552433732313a207472616e7366657220746f206e6f6e20455243373231526560008201527f63656976657220696d706c656d656e7465720000000000000000000000000000602082015250565b6000613243603283612112565b915061324e826131e7565b604082019050919050565b6000602082019050818103600083015261327281613236565b9050919050565b7f4552433732314d657461646174613a2055524920717565727920666f72206e6f60008201527f6e6578697374656e7420746f6b656e0000000000000000000000000000000000602082015250565b60006132d5602f83612112565b91506132e082613279565b604082019050919050565b60006020820190508181036000830152613304816132c8565b9050919050565b600081905092915050565b600061332182612107565b61332b818561330b565b935061333b818560208601612123565b80840191505092915050565b60006133538285613316565b915061335f8284613316565b91508190509392505050565b600081519050919050565b600082825260208201905092915050565b60006133928261336b565b61339c8185613376565b93506133ac818560208601612123565b6133b581612156565b840191505092915050565b60006080820190506133d56000830187612257565b6133e26020830186612257565b6133ef604083018561257c565b81810360608301526134018184613387565b905095945050505050565b60008151905061341b81612078565b92915050565b60006020828403121561343757613436612042565b5b60006134458482850161340c565b91505092915050565b6000613459826121c2565b9150613464836121c2565b92508261347457613473612cdf565b5b828206905092915050565b7f4e487b7100000000000000000000000000000000000000000000000000000000600052603260045260246000fd5b7f4552433732313a206d696e7420746f20746865207a65726f2061646472657373600082015250565b60006134e4602083612112565b91506134ef826134ae565b602082019050919050565b60006020820190508181036000830152613513816134d7565b9050919050565b7f4552433732313a20746f6b656e20616c7265616479206d696e74656400000000600082015250565b6000613550601c83612112565b915061355b8261351a565b602082019050919050565b6000602082019050818103600083015261357f81613543565b905091905056fea2646970667358221220c5fff375ae372910ec2460c18b66a4d93be2e2c19ff4b3e4d148945f2651052564736f6c63430008090033",
  "immutableReferences": {},
  "source": "// SPDX-License-Identifier: MIT\npragma solidity ^0.8.9;\n\nimport \"@openzeppelin/contracts/token/ERC721/ERC721.sol\";\nimport \"@openzeppelin/contracts/access/Ownable.sol\";\n\ncontract YetiPunks is ERC721, Ownable {\n    \n    string private baseURI;\n    uint16 public totalSupply = 0;\n    uint16 MAX_YETIS = 10;\n\n    constructor() ERC721(\"Yeti Punks\", \"YP\") {\n\n    }\n\n    function setBaseURI(string memory base) public onlyOwner {\n        baseURI = base;\n    }\n\n    function _baseURI() internal view virtual override returns (string memory) {\n        return baseURI;\n    }\n\n    // Despite the function being payable, I've removed any functionality for that here for the simplicity of the example.\n    function mint(uint16 numberOfTokens) public payable {\n        require(totalSupply + 1 < MAX_YETIS, \"All yeti punks have already been minted!\");\n        require(totalSupply + numberOfTokens <= MAX_YETIS, \"You are trying to mint more Yetis than are left, decrease the number of yetis and try again.\");\n        \n        for (uint i = 0; i < numberOfTokens; i++) {\n            _safeMint(msg.sender, totalSupply + 1);\n            totalSupply += 1;\n        }\n    }\n\n    function tokenURI(uint256 tokenId) public view virtual override(ERC721) returns (string memory) {\n        return super.tokenURI(tokenId);\n    }\n\n    function _beforeTokenTransfer(address from, address to, uint256 tokenId) internal override(ERC721) {\n        super._beforeTokenTransfer(from, to, tokenId);\n    }\n\n    function _burn(uint256 tokenId) internal override(ERC721) {\n        super._burn(tokenId);\n    }\n\n    function supportsInterface(bytes4 interfaceId) public view override(ERC721) returns (bool) {\n        return super.supportsInterface(interfaceId);\n    }\n\n    function withdrawBalance() public onlyOwner {\n        (bool tokiMoriSuccess, ) = payable(0x49Cf0aF1cE6a50e822A91a427B3E29007f9C6C09).call{value: address(this).balance * 34 / 100}(\"\");\n        require(tokiMoriSuccess);\n        (bool manduSuccess, ) = payable(0xD61ADc48afE9402B4411805Ce6026eF74F94E713).call{value: address(this).balance * 33 / 100}(\"\");\n        require(manduSuccess);\n        (bool tenzingSuccess, ) = payable(0xE3Ce04B3BcbdFa219407870Ca617e18fBF503F28).call{value: address(this).balance * 33 / 100}(\"\");\n        require(tenzingSuccess);\n    }\n}",
  "sourcePath": "/Users/christopherfoley/nft/YetiPunks/src/contracts/YetiPunks.sol",
  "compiler": {
    "name": "solc",
    "version": "0.8.9+commit.e5eed63a.Emscripten.clang"
  },
  "schemaVersion": "3.4.4",
  "updatedAt": "2022-01-07T03:42:29.032Z",
  "networkType": "ethereum",
  "devdoc": {
    "kind": "dev",
    "methods": {
      "approve(address,uint256)": {
        "details": "See {IERC721-approve}."
      },
      "balanceOf(address)": {
        "details": "See {IERC721-balanceOf}."
      },
      "getApproved(uint256)": {
        "details": "See {IERC721-getApproved}."
      },
      "isApprovedForAll(address,address)": {
        "details": "See {IERC721-isApprovedForAll}."
      },
      "name()": {
        "details": "See {IERC721Metadata-name}."
      },
      "owner()": {
        "details": "Returns the address of the current owner."
      },
      "ownerOf(uint256)": {
        "details": "See {IERC721-ownerOf}."
      },
      "renounceOwnership()": {
        "details": "Leaves the contract without owner. It will not be possible to call `onlyOwner` functions anymore. Can only be called by the current owner. NOTE: Renouncing ownership will leave the contract without an owner, thereby removing any functionality that is only available to the owner."
      },
      "safeTransferFrom(address,address,uint256)": {
        "details": "See {IERC721-safeTransferFrom}."
      },
      "safeTransferFrom(address,address,uint256,bytes)": {
        "details": "See {IERC721-safeTransferFrom}."
      },
      "setApprovalForAll(address,bool)": {
        "details": "See {IERC721-setApprovalForAll}."
      },
      "supportsInterface(bytes4)": {
        "details": "See {IERC165-supportsInterface}."
      },
      "symbol()": {
        "details": "See {IERC721Metadata-symbol}."
      },
      "tokenURI(uint256)": {
        "details": "See {IERC721Metadata-tokenURI}."
      },
      "transferFrom(address,address,uint256)": {
        "details": "See {IERC721-transferFrom}."
      },
      "transferOwnership(address)": {
        "details": "Transfers ownership of the contract to a new account (`newOwner`). Can only be called by the current owner."
      }
    },
    "version": 1
  },
  "userdoc": {
    "kind": "user",
    "methods": {},
    "version": 1
  }
}