{
  "contractName": "YetiPunks",
  "abi": [
    {
      "inputs": [
        {
          "internalType": "uint256",
          "name": "maxBatchSize_",
          "type": "uint256"
        },
        {
          "internalType": "uint256",
          "name": "collectionSize_",
          "type": "uint256"
        },
        {
          "internalType": "uint256",
          "name": "amountForGiveaway_",
          "type": "uint256"
        },
        {
          "internalType": "uint256",
          "name": "amountForDevs_",
          "type": "uint256"
        },
        {
          "internalType": "string",
          "name": "_initNotRevealedUri",
          "type": "string"
        }
      ],
      "stateMutability": "nonpayable",
      "type": "constructor"
    },
    {
      "anonymous": false,
      "inputs": [
        {
          "indexed": true,
          "internalType": "address",
          "name": "owner",
          "type": "address"
        },
        {
          "indexed": true,
          "internalType": "address",
          "name": "approved",
          "type": "address"
        },
        {
          "indexed": true,
          "internalType": "uint256",
          "name": "tokenId",
          "type": "uint256"
        }
      ],
      "name": "Approval",
      "type": "event"
    },
    {
      "anonymous": false,
      "inputs": [
        {
          "indexed": true,
          "internalType": "address",
          "name": "owner",
          "type": "address"
        },
        {
          "indexed": true,
          "internalType": "address",
          "name": "operator",
          "type": "address"
        },
        {
          "indexed": false,
          "internalType": "bool",
          "name": "approved",
          "type": "bool"
        }
      ],
      "name": "ApprovalForAll",
      "type": "event"
    },
    {
      "anonymous": false,
      "inputs": [
        {
          "indexed": true,
          "internalType": "address",
          "name": "previousOwner",
          "type": "address"
        },
        {
          "indexed": true,
          "internalType": "address",
          "name": "newOwner",
          "type": "address"
        }
      ],
      "name": "OwnershipTransferred",
      "type": "event"
    },
    {
      "anonymous": false,
      "inputs": [
        {
          "indexed": true,
          "internalType": "address",
          "name": "from",
          "type": "address"
        },
        {
          "indexed": true,
          "internalType": "address",
          "name": "to",
          "type": "address"
        },
        {
          "indexed": true,
          "internalType": "uint256",
          "name": "tokenId",
          "type": "uint256"
        }
      ],
      "name": "Transfer",
      "type": "event"
    },
    {
      "inputs": [
        {
          "internalType": "address",
          "name": "owner",
          "type": "address"
        }
      ],
      "name": "_numberMinted",
      "outputs": [
        {
          "internalType": "uint256",
          "name": "",
          "type": "uint256"
        }
      ],
      "stateMutability": "view",
      "type": "function",
      "constant": true
    },
    {
      "inputs": [],
      "name": "amountForDevs",
      "outputs": [
        {
          "internalType": "uint256",
          "name": "",
          "type": "uint256"
        }
      ],
      "stateMutability": "view",
      "type": "function",
      "constant": true
    },
    {
      "inputs": [],
      "name": "amountForGiveaway",
      "outputs": [
        {
          "internalType": "uint256",
          "name": "",
          "type": "uint256"
        }
      ],
      "stateMutability": "view",
      "type": "function",
      "constant": true
    },
    {
      "inputs": [
        {
          "internalType": "address",
          "name": "to",
          "type": "address"
        },
        {
          "internalType": "uint256",
          "name": "tokenId",
          "type": "uint256"
        }
      ],
      "name": "approve",
      "outputs": [],
      "stateMutability": "nonpayable",
      "type": "function"
    },
    {
      "inputs": [
        {
          "internalType": "address",
          "name": "owner",
          "type": "address"
        }
      ],
      "name": "balanceOf",
      "outputs": [
        {
          "internalType": "uint256",
          "name": "",
          "type": "uint256"
        }
      ],
      "stateMutability": "view",
      "type": "function",
      "constant": true
    },
    {
      "inputs": [
        {
          "internalType": "uint256",
          "name": "tokenId",
          "type": "uint256"
        }
      ],
      "name": "getApproved",
      "outputs": [
        {
          "internalType": "address",
          "name": "",
          "type": "address"
        }
      ],
      "stateMutability": "view",
      "type": "function",
      "constant": true
    },
    {
      "inputs": [
        {
          "internalType": "address",
          "name": "owner",
          "type": "address"
        },
        {
          "internalType": "address",
          "name": "operator",
          "type": "address"
        }
      ],
      "name": "isApprovedForAll",
      "outputs": [
        {
          "internalType": "bool",
          "name": "",
          "type": "bool"
        }
      ],
      "stateMutability": "view",
      "type": "function",
      "constant": true
    },
    {
      "inputs": [],
      "name": "maxPerAddressDuringPresale",
      "outputs": [
        {
          "internalType": "uint256",
          "name": "",
          "type": "uint256"
        }
      ],
      "stateMutability": "view",
      "type": "function",
      "constant": true
    },
    {
      "inputs": [],
      "name": "maxPerAddressDuringPublicSale",
      "outputs": [
        {
          "internalType": "uint256",
          "name": "",
          "type": "uint256"
        }
      ],
      "stateMutability": "view",
      "type": "function",
      "constant": true
    },
    {
      "inputs": [],
      "name": "name",
      "outputs": [
        {
          "internalType": "string",
          "name": "",
          "type": "string"
        }
      ],
      "stateMutability": "view",
      "type": "function",
      "constant": true
    },
    {
      "inputs": [],
      "name": "nextOwnerToExplicitlySet",
      "outputs": [
        {
          "internalType": "uint256",
          "name": "",
          "type": "uint256"
        }
      ],
      "stateMutability": "view",
      "type": "function",
      "constant": true
    },
    {
      "inputs": [],
      "name": "notRevealedUri",
      "outputs": [
        {
          "internalType": "string",
          "name": "",
          "type": "string"
        }
      ],
      "stateMutability": "view",
      "type": "function",
      "constant": true
    },
    {
      "inputs": [],
      "name": "owner",
      "outputs": [
        {
          "internalType": "address",
          "name": "",
          "type": "address"
        }
      ],
      "stateMutability": "view",
      "type": "function",
      "constant": true
    },
    {
      "inputs": [
        {
          "internalType": "uint256",
          "name": "tokenId",
          "type": "uint256"
        }
      ],
      "name": "ownerOf",
      "outputs": [
        {
          "internalType": "address",
          "name": "",
          "type": "address"
        }
      ],
      "stateMutability": "view",
      "type": "function",
      "constant": true
    },
    {
      "inputs": [],
      "name": "renounceOwnership",
      "outputs": [],
      "stateMutability": "nonpayable",
      "type": "function"
    },
    {
      "inputs": [
        {
          "internalType": "address",
          "name": "from",
          "type": "address"
        },
        {
          "internalType": "address",
          "name": "to",
          "type": "address"
        },
        {
          "internalType": "uint256",
          "name": "tokenId",
          "type": "uint256"
        }
      ],
      "name": "safeTransferFrom",
      "outputs": [],
      "stateMutability": "nonpayable",
      "type": "function"
    },
    {
      "inputs": [
        {
          "internalType": "address",
          "name": "from",
          "type": "address"
        },
        {
          "internalType": "address",
          "name": "to",
          "type": "address"
        },
        {
          "internalType": "uint256",
          "name": "tokenId",
          "type": "uint256"
        },
        {
          "internalType": "bytes",
          "name": "_data",
          "type": "bytes"
        }
      ],
      "name": "safeTransferFrom",
      "outputs": [],
      "stateMutability": "nonpayable",
      "type": "function"
    },
    {
      "inputs": [
        {
          "internalType": "address",
          "name": "operator",
          "type": "address"
        },
        {
          "internalType": "bool",
          "name": "approved",
          "type": "bool"
        }
      ],
      "name": "setApprovalForAll",
      "outputs": [],
      "stateMutability": "nonpayable",
      "type": "function"
    },
    {
      "inputs": [
        {
          "internalType": "bytes4",
          "name": "interfaceId",
          "type": "bytes4"
        }
      ],
      "name": "supportsInterface",
      "outputs": [
        {
          "internalType": "bool",
          "name": "",
          "type": "bool"
        }
      ],
      "stateMutability": "view",
      "type": "function",
      "constant": true
    },
    {
      "inputs": [],
      "name": "symbol",
      "outputs": [
        {
          "internalType": "string",
          "name": "",
          "type": "string"
        }
      ],
      "stateMutability": "view",
      "type": "function",
      "constant": true
    },
    {
      "inputs": [
        {
          "internalType": "uint256",
          "name": "index",
          "type": "uint256"
        }
      ],
      "name": "tokenByIndex",
      "outputs": [
        {
          "internalType": "uint256",
          "name": "",
          "type": "uint256"
        }
      ],
      "stateMutability": "view",
      "type": "function",
      "constant": true
    },
    {
      "inputs": [
        {
          "internalType": "address",
          "name": "owner",
          "type": "address"
        },
        {
          "internalType": "uint256",
          "name": "index",
          "type": "uint256"
        }
      ],
      "name": "tokenOfOwnerByIndex",
      "outputs": [
        {
          "internalType": "uint256",
          "name": "",
          "type": "uint256"
        }
      ],
      "stateMutability": "view",
      "type": "function",
      "constant": true
    },
    {
      "inputs": [],
      "name": "totalSupply",
      "outputs": [
        {
          "internalType": "uint256",
          "name": "",
          "type": "uint256"
        }
      ],
      "stateMutability": "view",
      "type": "function",
      "constant": true
    },
    {
      "inputs": [
        {
          "internalType": "address",
          "name": "from",
          "type": "address"
        },
        {
          "internalType": "address",
          "name": "to",
          "type": "address"
        },
        {
          "internalType": "uint256",
          "name": "tokenId",
          "type": "uint256"
        }
      ],
      "name": "transferFrom",
      "outputs": [],
      "stateMutability": "nonpayable",
      "type": "function"
    },
    {
      "inputs": [
        {
          "internalType": "address",
          "name": "newOwner",
          "type": "address"
        }
      ],
      "name": "transferOwnership",
      "outputs": [],
      "stateMutability": "nonpayable",
      "type": "function"
    },
    {
      "inputs": [
        {
          "internalType": "uint256",
          "name": "quantity",
          "type": "uint256"
        }
      ],
      "name": "publicSaleMint",
      "outputs": [],
      "stateMutability": "payable",
      "type": "function",
      "payable": true
    },
    {
      "inputs": [
        {
          "internalType": "address[]",
          "name": "receiverAddresses",
          "type": "address[]"
        },
        {
          "internalType": "uint256",
          "name": "mintAmount",
          "type": "uint256"
        }
      ],
      "name": "devMint",
      "outputs": [],
      "stateMutability": "nonpayable",
      "type": "function"
    },
    {
      "inputs": [
        {
          "internalType": "string",
          "name": "_notRevealedURI",
          "type": "string"
        }
      ],
      "name": "setNotRevealedURI",
      "outputs": [],
      "stateMutability": "nonpayable",
      "type": "function"
    },
    {
      "inputs": [
        {
          "internalType": "string",
          "name": "baseURI",
          "type": "string"
        }
      ],
      "name": "setBaseURI",
      "outputs": [],
      "stateMutability": "nonpayable",
      "type": "function"
    },
    {
      "inputs": [
        {
          "internalType": "uint256",
          "name": "tokenId",
          "type": "uint256"
        }
      ],
      "name": "tokenURI",
      "outputs": [
        {
          "internalType": "string",
          "name": "",
          "type": "string"
        }
      ],
      "stateMutability": "view",
      "type": "function",
      "constant": true
    },
    {
      "inputs": [],
      "name": "withdrawBalance",
      "outputs": [],
      "stateMutability": "nonpayable",
      "type": "function"
    },
    {
      "inputs": [
        {
          "internalType": "uint256",
          "name": "quantity",
          "type": "uint256"
        }
      ],
      "name": "setOwnersExplicit",
      "outputs": [],
      "stateMutability": "nonpayable",
      "type": "function"
    },
    {
      "inputs": [
        {
          "internalType": "address",
          "name": "owner",
          "type": "address"
        }
      ],
      "name": "numberMinted",
      "outputs": [
        {
          "internalType": "uint256",
          "name": "",
          "type": "uint256"
        }
      ],
      "stateMutability": "view",
      "type": "function",
      "constant": true
    },
    {
      "inputs": [
        {
          "internalType": "uint256",
          "name": "tokenId",
          "type": "uint256"
        }
      ],
      "name": "getOwnershipData",
      "outputs": [
        {
          "components": [
            {
              "internalType": "address",
              "name": "addr",
              "type": "address"
            },
            {
              "internalType": "uint64",
              "name": "startTimestamp",
              "type": "uint64"
            }
          ],
          "internalType": "struct ERC721A.TokenOwnership",
          "name": "",
          "type": "tuple"
        }
      ],
      "stateMutability": "view",
      "type": "function",
      "constant": true
    }
  ],
  "bytecode": "0x61014060405260006001556000600855600360e0908152503480156200002457600080fd5b5060405162006c8238038062006c8283398181016040528101906200004a919062001048565b6040518060400160405280600b81526020017f5065747479204d6f6e6b730000000000000000000000000000000000000000008152506040518060400160405280600281526020017f504d0000000000000000000000000000000000000000000000000000000000008152508686620000d8620000cc620003c660201b60201c565b620003ce60201b60201c565b600081116200011e576040517f08c379a0000000000000000000000000000000000000000000000000000000008152600401620001159062001176565b60405180910390fd5b6000821162000164576040517f08c379a00000000000000000000000000000000000000000000000000000000081526004016200015b906200120e565b60405180910390fd5b83600290805190602001906200017c92919062000dc0565b5082600390805190602001906200019592919062000dc0565b508160a0818152505080608081815250505050505060016009819055508460c081815250508261012081815250508161010081815250508383111562000212576040517f08c379a0000000000000000000000000000000000000000000000000000000008152600401620002099062001280565b60405180910390fd5b62000223816200049260201b60201c565b6000600367ffffffffffffffff81111562000243576200024262000eda565b5b604051908082528060200260200182016040528015620002725781602001602082028036833780820191505090505b50905073d61adc48afe9402b4411805ce6026ef74f94e71381600081518110620002a157620002a0620012a2565b5b602002602001019073ffffffffffffffffffffffffffffffffffffffff16908173ffffffffffffffffffffffffffffffffffffffff168152505073e3ce04b3bcbdfa219407870ca617e18fbf503f2881600181518110620003075762000306620012a2565b5b602002602001019073ffffffffffffffffffffffffffffffffffffffff16908173ffffffffffffffffffffffffffffffffffffffff16815250507349cf0af1ce6a50e822a91a427b3e29007f9c6c09816002815181106200036d576200036c620012a2565b5b602002602001019073ffffffffffffffffffffffffffffffffffffffff16908173ffffffffffffffffffffffffffffffffffffffff1681525050620003ba8160076200053d60201b60201c565b50505050505062001953565b600033905090565b60008060009054906101000a900473ffffffffffffffffffffffffffffffffffffffff169050816000806101000a81548173ffffffffffffffffffffffffffffffffffffffff021916908373ffffffffffffffffffffffffffffffffffffffff1602179055508173ffffffffffffffffffffffffffffffffffffffff168173ffffffffffffffffffffffffffffffffffffffff167f8be0079c531659141344cd1fd0a4f28419497f9722a3daafe3b4186f6b6457e060405160405180910390a35050565b620004a2620003c660201b60201c565b73ffffffffffffffffffffffffffffffffffffffff16620004c86200068860201b60201c565b73ffffffffffffffffffffffffffffffffffffffff161462000521576040517f08c379a0000000000000000000000000000000000000000000000000000000008152600401620005189062001321565b60405180910390fd5b80600a90805190602001906200053992919062000dc0565b5050565b6200054d620003c660201b60201c565b73ffffffffffffffffffffffffffffffffffffffff16620005736200068860201b60201c565b73ffffffffffffffffffffffffffffffffffffffff1614620005cc576040517f08c379a0000000000000000000000000000000000000000000000000000000008152600401620005c39062001321565b60405180910390fd5b6101005181620005e1620006b160201b60201c565b620005ed919062001372565b111562000631576040517f08c379a0000000000000000000000000000000000000000000000000000000008152600401620006289062001445565b60405180910390fd5b60005b825181101562000683576200066d838281518110620006585762000657620012a2565b5b602002602001015183620006bb60201b60201c565b80806200067a9062001467565b91505062000634565b505050565b60008060009054906101000a900473ffffffffffffffffffffffffffffffffffffffff16905090565b6000600154905090565b620006dd828260405180602001604052806000815250620006e160201b60201c565b5050565b60006001549050600073ffffffffffffffffffffffffffffffffffffffff168473ffffffffffffffffffffffffffffffffffffffff1614156200075b576040517f08c379a000000000000000000000000000000000000000000000000000000000815260040162000752906200152b565b60405180910390fd5b6200076c8162000bd960201b60201c565b15620007af576040517f08c379a0000000000000000000000000000000000000000000000000000000008152600401620007a6906200159d565b60405180910390fd5b60a051831115620007f7576040517f08c379a0000000000000000000000000000000000000000000000000000000008152600401620007ee9062001635565b60405180910390fd5b6200080c600085838662000be760201b60201c565b6000600560008673ffffffffffffffffffffffffffffffffffffffff1673ffffffffffffffffffffffffffffffffffffffff1681526020019081526020016000206040518060400160405290816000820160009054906101000a90046fffffffffffffffffffffffffffffffff166fffffffffffffffffffffffffffffffff166fffffffffffffffffffffffffffffffff1681526020016000820160109054906101000a90046fffffffffffffffffffffffffffffffff166fffffffffffffffffffffffffffffffff166fffffffffffffffffffffffffffffffff1681525050905060405180604001604052808583600001516200090b919062001673565b6fffffffffffffffffffffffffffffffff16815260200185836020015162000934919062001673565b6fffffffffffffffffffffffffffffffff16815250600560008773ffffffffffffffffffffffffffffffffffffffff1673ffffffffffffffffffffffffffffffffffffffff16815260200190815260200160002060008201518160000160006101000a8154816fffffffffffffffffffffffffffffffff02191690836fffffffffffffffffffffffffffffffff16021790555060208201518160000160106101000a8154816fffffffffffffffffffffffffffffffff02191690836fffffffffffffffffffffffffffffffff16021790555090505060405180604001604052808673ffffffffffffffffffffffffffffffffffffffff1681526020014267ffffffffffffffff168152506004600084815260200190815260200160002060008201518160000160006101000a81548173ffffffffffffffffffffffffffffffffffffffff021916908373ffffffffffffffffffffffffffffffffffffffff16021790555060208201518160000160146101000a81548167ffffffffffffffff021916908367ffffffffffffffff160217905550905050600082905060005b8581101562000bb457818773ffffffffffffffffffffffffffffffffffffffff16600073ffffffffffffffffffffffffffffffffffffffff167fddf252ad1be2c89b69c2b068fc378daa952ba7f163c4a11628f55a4df523b3ef60405160405180910390a462000b4c600088848862000bed60201b60201c565b62000b8e576040517f08c379a000000000000000000000000000000000000000000000000000000000815260040162000b859062001736565b60405180910390fd5b818062000b9b9062001467565b925050808062000bab9062001467565b91505062000ad2565b508060018190555062000bd1600087858862000da760201b60201c565b505050505050565b600060015482109050919050565b50505050565b600062000c1b8473ffffffffffffffffffffffffffffffffffffffff1662000dad60201b62001e7f1760201c565b1562000d9a578373ffffffffffffffffffffffffffffffffffffffff1663150b7a0262000c4d620003c660201b60201c565b8786866040518563ffffffff1660e01b815260040162000c7194939291906200180b565b602060405180830381600087803b15801562000c8c57600080fd5b505af192505050801562000cc057506040513d601f19601f8201168201806040525081019062000cbd9190620018bc565b60015b62000d49573d806000811462000cf3576040519150601f19603f3d011682016040523d82523d6000602084013e62000cf8565b606091505b5060008151141562000d41576040517f08c379a000000000000000000000000000000000000000000000000000000000815260040162000d389062001736565b60405180910390fd5b805181602001fd5b63150b7a0260e01b7bffffffffffffffffffffffffffffffffffffffffffffffffffffffff1916817bffffffffffffffffffffffffffffffffffffffffffffffffffffffff19161491505062000d9f565b600190505b949350505050565b50505050565b600080823b905060008111915050919050565b82805462000dce906200191d565b90600052602060002090601f01602090048101928262000df2576000855562000e3e565b82601f1062000e0d57805160ff191683800117855562000e3e565b8280016001018555821562000e3e579182015b8281111562000e3d57825182559160200191906001019062000e20565b5b50905062000e4d919062000e51565b5090565b5b8082111562000e6c57600081600090555060010162000e52565b5090565b6000604051905090565b600080fd5b600080fd5b6000819050919050565b62000e998162000e84565b811462000ea557600080fd5b50565b60008151905062000eb98162000e8e565b92915050565b600080fd5b600080fd5b6000601f19601f8301169050919050565b7f4e487b7100000000000000000000000000000000000000000000000000000000600052604160045260246000fd5b62000f148262000ec9565b810181811067ffffffffffffffff8211171562000f365762000f3562000eda565b5b80604052505050565b600062000f4b62000e70565b905062000f59828262000f09565b919050565b600067ffffffffffffffff82111562000f7c5762000f7b62000eda565b5b62000f878262000ec9565b9050602081019050919050565b60005b8381101562000fb457808201518184015260208101905062000f97565b8381111562000fc4576000848401525b50505050565b600062000fe162000fdb8462000f5e565b62000f3f565b905082815260208101848484011115620010005762000fff62000ec4565b5b6200100d84828562000f94565b509392505050565b600082601f8301126200102d576200102c62000ebf565b5b81516200103f84826020860162000fca565b91505092915050565b600080600080600060a0868803121562001067576200106662000e7a565b5b6000620010778882890162000ea8565b95505060206200108a8882890162000ea8565b94505060406200109d8882890162000ea8565b9350506060620010b08882890162000ea8565b925050608086015167ffffffffffffffff811115620010d457620010d362000e7f565b5b620010e28882890162001015565b9150509295509295909350565b600082825260208201905092915050565b7f455243373231413a20636f6c6c656374696f6e206d757374206861766520612060008201527f6e6f6e7a65726f20737570706c79000000000000000000000000000000000000602082015250565b60006200115e602e83620010ef565b91506200116b8262001100565b604082019050919050565b6000602082019050818103600083015262001191816200114f565b9050919050565b7f455243373231413a206d61782062617463682073697a65206d7573742062652060008201527f6e6f6e7a65726f00000000000000000000000000000000000000000000000000602082015250565b6000620011f6602783620010ef565b9150620012038262001198565b604082019050919050565b600060208201905081810360008301526200122981620011e7565b9050919050565b7f6c617267657220636f6c6c656374696f6e2073697a65206e6565646564000000600082015250565b600062001268601d83620010ef565b9150620012758262001230565b602082019050919050565b600060208201905081810360008301526200129b8162001259565b9050919050565b7f4e487b7100000000000000000000000000000000000000000000000000000000600052603260045260246000fd5b7f4f776e61626c653a2063616c6c6572206973206e6f7420746865206f776e6572600082015250565b600062001309602083620010ef565b91506200131682620012d1565b602082019050919050565b600060208201905081810360008301526200133c81620012fa565b9050919050565b7f4e487b7100000000000000000000000000000000000000000000000000000000600052601160045260246000fd5b60006200137f8262000e84565b91506200138c8362000e84565b9250827fffffffffffffffffffffffffffffffffffffffffffffffffffffffffffffffff03821115620013c457620013c362001343565b5b828201905092915050565b7f746f6f206d616e7920616c7265616479206d696e746564206265666f7265206460008201527f6576206d696e7400000000000000000000000000000000000000000000000000602082015250565b60006200142d602783620010ef565b91506200143a82620013cf565b604082019050919050565b6000602082019050818103600083015262001460816200141e565b9050919050565b6000620014748262000e84565b91507fffffffffffffffffffffffffffffffffffffffffffffffffffffffffffffffff821415620014aa57620014a962001343565b5b600182019050919050565b7f455243373231413a206d696e7420746f20746865207a65726f2061646472657360008201527f7300000000000000000000000000000000000000000000000000000000000000602082015250565b600062001513602183620010ef565b91506200152082620014b5565b604082019050919050565b60006020820190508181036000830152620015468162001504565b9050919050565b7f455243373231413a20746f6b656e20616c7265616479206d696e746564000000600082015250565b600062001585601d83620010ef565b915062001592826200154d565b602082019050919050565b60006020820190508181036000830152620015b88162001576565b9050919050565b7f455243373231413a207175616e7469747920746f206d696e7420746f6f20686960008201527f6768000000000000000000000000000000000000000000000000000000000000602082015250565b60006200161d602283620010ef565b91506200162a82620015bf565b604082019050919050565b6000602082019050818103600083015262001650816200160e565b9050919050565b60006fffffffffffffffffffffffffffffffff82169050919050565b6000620016808262001657565b91506200168d8362001657565b9250826fffffffffffffffffffffffffffffffff03821115620016b557620016b462001343565b5b828201905092915050565b7f455243373231413a207472616e7366657220746f206e6f6e204552433732315260008201527f6563656976657220696d706c656d656e74657200000000000000000000000000602082015250565b60006200171e603383620010ef565b91506200172b82620016c0565b604082019050919050565b6000602082019050818103600083015262001751816200170f565b9050919050565b600073ffffffffffffffffffffffffffffffffffffffff82169050919050565b6000620017858262001758565b9050919050565b620017978162001778565b82525050565b620017a88162000e84565b82525050565b600081519050919050565b600082825260208201905092915050565b6000620017d782620017ae565b620017e38185620017b9565b9350620017f581856020860162000f94565b620018008162000ec9565b840191505092915050565b60006080820190506200182260008301876200178c565b6200183160208301866200178c565b6200184060408301856200179d565b8181036060830152620018548184620017ca565b905095945050505050565b60007fffffffff0000000000000000000000000000000000000000000000000000000082169050919050565b62001896816200185f565b8114620018a257600080fd5b50565b600081519050620018b6816200188b565b92915050565b600060208284031215620018d557620018d462000e7a565b5b6000620018e584828501620018a5565b91505092915050565b7f4e487b7100000000000000000000000000000000000000000000000000000000600052602260045260246000fd5b600060028204905060018216806200193657607f821691505b602082108114156200194d576200194c620018ee565b5b50919050565b60805160a05160c05160e05161010051610120516152b5620019cd6000396000611923015260008181611b7e0152611e5d015260006117350152600081816118480152611ade01526000818161285f015281816128880152612fe90152600081816117d3015281816125e7015261261b01526152b56000f3fe6080604052600436106101f95760003560e01c80638da5cb5b1161010d578063c87b56dd116100a0578063e9566bf61161006f578063e9566bf61461074c578063e985e9c514610775578063f2c4ce1e146107b2578063f2fde38b146107db578063fbe1aa5114610804576101f9565b8063c87b56dd1461067c578063d7224ba0146106b9578063dc33e681146106e4578063e686801e14610721576101f9565b8063abdb297a116100dc578063abdb297a146105e1578063b3ab66b01461060c578063b5148d4314610628578063b88d4fde14610653576101f9565b80638da5cb5b146105255780639231ab2a1461055057806395d89b411461058d578063a22cb465146105b8576101f9565b80632f745c591161019057806355f804b31161015f57806355f804b3146104545780635fd8c7101461047d5780636352211e1461049457806370a08231146104d1578063715018a61461050e576101f9565b80632f745c591461037457806342842e0e146103b15780634d388a98146103da5780634f6ccce714610417576101f9565b8063095ea7b3116101cc578063095ea7b3146102ce57806318160ddd146102f757806323b872dd146103225780632d20fb601461034b576101f9565b806301ffc9a7146101fe57806306fdde031461023b578063081812fc14610266578063081c8c44146102a3575b600080fd5b34801561020a57600080fd5b50610225600480360381019061022091906135d6565b61082f565b604051610232919061361e565b60405180910390f35b34801561024757600080fd5b50610250610979565b60405161025d91906136d2565b60405180910390f35b34801561027257600080fd5b5061028d6004803603810190610288919061372a565b610a0b565b60405161029a9190613798565b60405180910390f35b3480156102af57600080fd5b506102b8610a90565b6040516102c591906136d2565b60405180910390f35b3480156102da57600080fd5b506102f560048036038101906102f091906137df565b610b1e565b005b34801561030357600080fd5b5061030c610c37565b604051610319919061382e565b60405180910390f35b34801561032e57600080fd5b5061034960048036038101906103449190613849565b610c41565b005b34801561035757600080fd5b50610372600480360381019061036d919061372a565b610c51565b005b34801561038057600080fd5b5061039b600480360381019061039691906137df565b610d2f565b6040516103a8919061382e565b60405180910390f35b3480156103bd57600080fd5b506103d860048036038101906103d39190613849565b610f2d565b005b3480156103e657600080fd5b5061040160048036038101906103fc919061389c565b610f4d565b60405161040e919061382e565b60405180910390f35b34801561042357600080fd5b5061043e6004803603810190610439919061372a565b611036565b60405161044b919061382e565b60405180910390f35b34801561046057600080fd5b5061047b6004803603810190610476919061392e565b611089565b005b34801561048957600080fd5b5061049261111b565b005b3480156104a057600080fd5b506104bb60048036038101906104b6919061372a565b611358565b6040516104c89190613798565b60405180910390f35b3480156104dd57600080fd5b506104f860048036038101906104f3919061389c565b61136e565b604051610505919061382e565b60405180910390f35b34801561051a57600080fd5b50610523611457565b005b34801561053157600080fd5b5061053a6114df565b6040516105479190613798565b60405180910390f35b34801561055c57600080fd5b506105776004803603810190610572919061372a565b611508565b60405161058491906139dc565b60405180910390f35b34801561059957600080fd5b506105a2611520565b6040516105af91906136d2565b60405180910390f35b3480156105c457600080fd5b506105df60048036038101906105da9190613a23565b6115b2565b005b3480156105ed57600080fd5b506105f6611733565b604051610603919061382e565b60405180910390f35b6106266004803603810190610621919061372a565b611757565b005b34801561063457600080fd5b5061063d611921565b60405161064a919061382e565b60405180910390f35b34801561065f57600080fd5b5061067a60048036038101906106759190613b93565b611945565b005b34801561068857600080fd5b506106a3600480360381019061069e919061372a565b6119a1565b6040516106b091906136d2565b60405180910390f35b3480156106c557600080fd5b506106ce611ac4565b6040516106db919061382e565b60405180910390f35b3480156106f057600080fd5b5061070b6004803603810190610706919061389c565b611aca565b604051610718919061382e565b60405180910390f35b34801561072d57600080fd5b50610736611adc565b604051610743919061382e565b60405180910390f35b34801561075857600080fd5b50610773600480360381019061076e9190613cd9565b611b00565b005b34801561078157600080fd5b5061079c60048036038101906107979190613d35565b611c39565b6040516107a9919061361e565b60405180910390f35b3480156107be57600080fd5b506107d960048036038101906107d49190613e16565b611ccd565b005b3480156107e757600080fd5b5061080260048036038101906107fd919061389c565b611d63565b005b34801561081057600080fd5b50610819611e5b565b604051610826919061382e565b60405180910390f35b60007f80ac58cd000000000000000000000000000000000000000000000000000000007bffffffffffffffffffffffffffffffffffffffffffffffffffffffff1916827bffffffffffffffffffffffffffffffffffffffffffffffffffffffff191614806108fa57507f5b5e139f000000000000000000000000000000000000000000000000000000007bffffffffffffffffffffffffffffffffffffffffffffffffffffffff1916827bffffffffffffffffffffffffffffffffffffffffffffffffffffffff1916145b8061096257507f780e9d63000000000000000000000000000000000000000000000000000000007bffffffffffffffffffffffffffffffffffffffffffffffffffffffff1916827bffffffffffffffffffffffffffffffffffffffffffffffffffffffff1916145b80610972575061097182611e92565b5b9050919050565b60606002805461098890613e8e565b80601f01602080910402602001604051908101604052809291908181526020018280546109b490613e8e565b8015610a015780601f106109d657610100808354040283529160200191610a01565b820191906000526020600020905b8154815290600101906020018083116109e457829003601f168201915b5050505050905090565b6000610a1682611efc565b610a55576040517f08c379a0000000000000000000000000000000000000000000000000000000008152600401610a4c90613f32565b60405180910390fd5b6006600083815260200190815260200160002060009054906101000a900473ffffffffffffffffffffffffffffffffffffffff169050919050565b600a8054610a9d90613e8e565b80601f0160208091040260200160405190810160405280929190818152602001828054610ac990613e8e565b8015610b165780601f10610aeb57610100808354040283529160200191610b16565b820191906000526020600020905b815481529060010190602001808311610af957829003601f168201915b505050505081565b6000610b2982611358565b90508073ffffffffffffffffffffffffffffffffffffffff168373ffffffffffffffffffffffffffffffffffffffff161415610b9a576040517f08c379a0000000000000000000000000000000000000000000000000000000008152600401610b9190613fc4565b60405180910390fd5b8073ffffffffffffffffffffffffffffffffffffffff16610bb9611f0a565b73ffffffffffffffffffffffffffffffffffffffff161480610be85750610be781610be2611f0a565b611c39565b5b610c27576040517f08c379a0000000000000000000000000000000000000000000000000000000008152600401610c1e90614056565b60405180910390fd5b610c32838383611f12565b505050565b6000600154905090565b610c4c838383611fc4565b505050565b610c59611f0a565b73ffffffffffffffffffffffffffffffffffffffff16610c776114df565b73ffffffffffffffffffffffffffffffffffffffff1614610ccd576040517f08c379a0000000000000000000000000000000000000000000000000000000008152600401610cc4906140c2565b60405180910390fd5b60026009541415610d13576040517f08c379a0000000000000000000000000000000000000000000000000000000008152600401610d0a9061412e565b60405180910390fd5b6002600981905550610d248161257d565b600160098190555050565b6000610d3a8361136e565b8210610d7b576040517f08c379a0000000000000000000000000000000000000000000000000000000008152600401610d72906141c0565b60405180910390fd5b6000610d85610c37565b905060008060005b83811015610eeb576000600460008381526020019081526020016000206040518060400160405290816000820160009054906101000a900473ffffffffffffffffffffffffffffffffffffffff1673ffffffffffffffffffffffffffffffffffffffff1673ffffffffffffffffffffffffffffffffffffffff1681526020016000820160149054906101000a900467ffffffffffffffff1667ffffffffffffffff1667ffffffffffffffff16815250509050600073ffffffffffffffffffffffffffffffffffffffff16816000015173ffffffffffffffffffffffffffffffffffffffff1614610e7f57806000015192505b8773ffffffffffffffffffffffffffffffffffffffff168373ffffffffffffffffffffffffffffffffffffffff161415610ed75786841415610ec8578195505050505050610f27565b8380610ed39061420f565b9450505b508080610ee39061420f565b915050610d8d565b506040517f08c379a0000000000000000000000000000000000000000000000000000000008152600401610f1e906142ca565b60405180910390fd5b92915050565b610f4883838360405180602001604052806000815250611945565b505050565b60008073ffffffffffffffffffffffffffffffffffffffff168273ffffffffffffffffffffffffffffffffffffffff161415610fbe576040517f08c379a0000000000000000000000000000000000000000000000000000000008152600401610fb59061435c565b60405180910390fd5b600560008373ffffffffffffffffffffffffffffffffffffffff1673ffffffffffffffffffffffffffffffffffffffff16815260200190815260200160002060000160109054906101000a90046fffffffffffffffffffffffffffffffff166fffffffffffffffffffffffffffffffff169050919050565b6000611040610c37565b8210611081576040517f08c379a0000000000000000000000000000000000000000000000000000000008152600401611078906143ee565b60405180910390fd5b819050919050565b611091611f0a565b73ffffffffffffffffffffffffffffffffffffffff166110af6114df565b73ffffffffffffffffffffffffffffffffffffffff1614611105576040517f08c379a00000000000000000000000000000000000000000000000000000000081526004016110fc906140c2565b60405180910390fd5b8181600b9190611116929190613407565b505050565b611123611f0a565b73ffffffffffffffffffffffffffffffffffffffff166111416114df565b73ffffffffffffffffffffffffffffffffffffffff1614611197576040517f08c379a000000000000000000000000000000000000000000000000000000000815260040161118e906140c2565b60405180910390fd5b600060646021476111a8919061440e565b6111b29190614497565b9050600073d61adc48afe9402b4411805ce6026ef74f94e71373ffffffffffffffffffffffffffffffffffffffff16826040516111ee906144f9565b60006040518083038185875af1925050503d806000811461122b576040519150601f19603f3d011682016040523d82523d6000602084013e611230565b606091505b505090508061123e57600080fd5b600073e3ce04b3bcbdfa219407870ca617e18fbf503f2873ffffffffffffffffffffffffffffffffffffffff1683604051611278906144f9565b60006040518083038185875af1925050503d80600081146112b5576040519150601f19603f3d011682016040523d82523d6000602084013e6112ba565b606091505b50509050806112c857600080fd5b60007349cf0af1ce6a50e822a91a427b3e29007f9c6c0973ffffffffffffffffffffffffffffffffffffffff1647604051611302906144f9565b60006040518083038185875af1925050503d806000811461133f576040519150601f19603f3d011682016040523d82523d6000602084013e611344565b606091505b505090508061135257600080fd5b50505050565b60006113638261280b565b600001519050919050565b60008073ffffffffffffffffffffffffffffffffffffffff168273ffffffffffffffffffffffffffffffffffffffff1614156113df576040517f08c379a00000000000000000000000000000000000000000000000000000000081526004016113d690614580565b60405180910390fd5b600560008373ffffffffffffffffffffffffffffffffffffffff1673ffffffffffffffffffffffffffffffffffffffff16815260200190815260200160002060000160009054906101000a90046fffffffffffffffffffffffffffffffff166fffffffffffffffffffffffffffffffff169050919050565b61145f611f0a565b73ffffffffffffffffffffffffffffffffffffffff1661147d6114df565b73ffffffffffffffffffffffffffffffffffffffff16146114d3576040517f08c379a00000000000000000000000000000000000000000000000000000000081526004016114ca906140c2565b60405180910390fd5b6114dd6000612a0e565b565b60008060009054906101000a900473ffffffffffffffffffffffffffffffffffffffff16905090565b61151061348d565b6115198261280b565b9050919050565b60606003805461152f90613e8e565b80601f016020809104026020016040519081016040528092919081815260200182805461155b90613e8e565b80156115a85780601f1061157d576101008083540402835291602001916115a8565b820191906000526020600020905b81548152906001019060200180831161158b57829003601f168201915b5050505050905090565b6115ba611f0a565b73ffffffffffffffffffffffffffffffffffffffff168273ffffffffffffffffffffffffffffffffffffffff161415611628576040517f08c379a000000000000000000000000000000000000000000000000000000000815260040161161f906145ec565b60405180910390fd5b8060076000611635611f0a565b73ffffffffffffffffffffffffffffffffffffffff1673ffffffffffffffffffffffffffffffffffffffff16815260200190815260200160002060008473ffffffffffffffffffffffffffffffffffffffff1673ffffffffffffffffffffffffffffffffffffffff16815260200190815260200160002060006101000a81548160ff0219169083151502179055508173ffffffffffffffffffffffffffffffffffffffff166116e2611f0a565b73ffffffffffffffffffffffffffffffffffffffff167f17307eab39ab6107e8899845ad3d59bd9653f200f220920489ca2b5937696c3183604051611727919061361e565b60405180910390a35050565b7f000000000000000000000000000000000000000000000000000000000000000081565b3373ffffffffffffffffffffffffffffffffffffffff163273ffffffffffffffffffffffffffffffffffffffff16146117c5576040517f08c379a00000000000000000000000000000000000000000000000000000000081526004016117bc90614658565b60405180910390fd5b6000665543df729c000090507f0000000000000000000000000000000000000000000000000000000000000000826117fb610c37565b6118059190614678565b1115611846576040517f08c379a000000000000000000000000000000000000000000000000000000000815260040161183d9061471a565b60405180910390fd5b7f00000000000000000000000000000000000000000000000000000000000000008261187133611aca565b61187b9190614678565b11156118bc576040517f08c379a00000000000000000000000000000000000000000000000000000000081526004016118b3906147ac565b60405180910390fd5b803410156118ff576040517f08c379a00000000000000000000000000000000000000000000000000000000081526004016118f690614818565b60405180910390fd5b6119093383612ad2565b61191d8282611918919061440e565b612af0565b5050565b7f000000000000000000000000000000000000000000000000000000000000000081565b611950848484611fc4565b61195c84848484612b91565b61199b576040517f08c379a0000000000000000000000000000000000000000000000000000000008152600401611992906148aa565b60405180910390fd5b50505050565b60606119ab611f0a565b73ffffffffffffffffffffffffffffffffffffffff166119c96114df565b73ffffffffffffffffffffffffffffffffffffffff1614611a1f576040517f08c379a0000000000000000000000000000000000000000000000000000000008152600401611a16906140c2565b60405180910390fd5b611a2882611efc565b611a67576040517f08c379a0000000000000000000000000000000000000000000000000000000008152600401611a5e9061493c565b60405180910390fd5b6000611a71612d28565b90506000815111611a915760405180602001604052806000815250611abc565b80611a9b84612dba565b604051602001611aac929190614998565b6040516020818303038152906040525b915050919050565b60085481565b6000611ad582610f4d565b9050919050565b7f000000000000000000000000000000000000000000000000000000000000000081565b611b08611f0a565b73ffffffffffffffffffffffffffffffffffffffff16611b266114df565b73ffffffffffffffffffffffffffffffffffffffff1614611b7c576040517f08c379a0000000000000000000000000000000000000000000000000000000008152600401611b73906140c2565b60405180910390fd5b7f000000000000000000000000000000000000000000000000000000000000000081611ba6610c37565b611bb09190614678565b1115611bf1576040517f08c379a0000000000000000000000000000000000000000000000000000000008152600401611be890614a2e565b60405180910390fd5b60005b8251811015611c3457611c21838281518110611c1357611c12614a4e565b5b602002602001015183612ad2565b8080611c2c9061420f565b915050611bf4565b505050565b6000600760008473ffffffffffffffffffffffffffffffffffffffff1673ffffffffffffffffffffffffffffffffffffffff16815260200190815260200160002060008373ffffffffffffffffffffffffffffffffffffffff1673ffffffffffffffffffffffffffffffffffffffff16815260200190815260200160002060009054906101000a900460ff16905092915050565b611cd5611f0a565b73ffffffffffffffffffffffffffffffffffffffff16611cf36114df565b73ffffffffffffffffffffffffffffffffffffffff1614611d49576040517f08c379a0000000000000000000000000000000000000000000000000000000008152600401611d40906140c2565b60405180910390fd5b80600a9080519060200190611d5f9291906134c7565b5050565b611d6b611f0a565b73ffffffffffffffffffffffffffffffffffffffff16611d896114df565b73ffffffffffffffffffffffffffffffffffffffff1614611ddf576040517f08c379a0000000000000000000000000000000000000000000000000000000008152600401611dd6906140c2565b60405180910390fd5b600073ffffffffffffffffffffffffffffffffffffffff168173ffffffffffffffffffffffffffffffffffffffff161415611e4f576040517f08c379a0000000000000000000000000000000000000000000000000000000008152600401611e4690614aef565b60405180910390fd5b611e5881612a0e565b50565b7f000000000000000000000000000000000000000000000000000000000000000081565b600080823b905060008111915050919050565b60007f01ffc9a7000000000000000000000000000000000000000000000000000000007bffffffffffffffffffffffffffffffffffffffffffffffffffffffff1916827bffffffffffffffffffffffffffffffffffffffffffffffffffffffff1916149050919050565b600060015482109050919050565b600033905090565b826006600084815260200190815260200160002060006101000a81548173ffffffffffffffffffffffffffffffffffffffff021916908373ffffffffffffffffffffffffffffffffffffffff160217905550818373ffffffffffffffffffffffffffffffffffffffff168273ffffffffffffffffffffffffffffffffffffffff167f8c5be1e5ebec7d5bd14f71427d1e84f3dd0314c0f7b2291e5b200ac8c7c3b92560405160405180910390a4505050565b6000611fcf8261280b565b90506000816000015173ffffffffffffffffffffffffffffffffffffffff16611ff6611f0a565b73ffffffffffffffffffffffffffffffffffffffff161480612052575061201b611f0a565b73ffffffffffffffffffffffffffffffffffffffff1661203a84610a0b565b73ffffffffffffffffffffffffffffffffffffffff16145b8061206e575061206d8260000151612068611f0a565b611c39565b5b9050806120b0576040517f08c379a00000000000000000000000000000000000000000000000000000000081526004016120a790614b81565b60405180910390fd5b8473ffffffffffffffffffffffffffffffffffffffff16826000015173ffffffffffffffffffffffffffffffffffffffff1614612122576040517f08c379a000000000000000000000000000000000000000000000000000000000815260040161211990614c13565b60405180910390fd5b600073ffffffffffffffffffffffffffffffffffffffff168473ffffffffffffffffffffffffffffffffffffffff161415612192576040517f08c379a000000000000000000000000000000000000000000000000000000000815260040161218990614ca5565b60405180910390fd5b61219f8585856001612f1b565b6121af6000848460000151611f12565b6001600560008773ffffffffffffffffffffffffffffffffffffffff1673ffffffffffffffffffffffffffffffffffffffff16815260200190815260200160002060000160008282829054906101000a90046fffffffffffffffffffffffffffffffff1661221d9190614ce1565b92506101000a8154816fffffffffffffffffffffffffffffffff02191690836fffffffffffffffffffffffffffffffff1602179055506001600560008673ffffffffffffffffffffffffffffffffffffffff1673ffffffffffffffffffffffffffffffffffffffff16815260200190815260200160002060000160008282829054906101000a90046fffffffffffffffffffffffffffffffff166122c19190614d15565b92506101000a8154816fffffffffffffffffffffffffffffffff02191690836fffffffffffffffffffffffffffffffff16021790555060405180604001604052808573ffffffffffffffffffffffffffffffffffffffff1681526020014267ffffffffffffffff168152506004600085815260200190815260200160002060008201518160000160006101000a81548173ffffffffffffffffffffffffffffffffffffffff021916908373ffffffffffffffffffffffffffffffffffffffff16021790555060208201518160000160146101000a81548167ffffffffffffffff021916908367ffffffffffffffff16021790555090505060006001846123c79190614678565b9050600073ffffffffffffffffffffffffffffffffffffffff166004600083815260200190815260200160002060000160009054906101000a900473ffffffffffffffffffffffffffffffffffffffff1673ffffffffffffffffffffffffffffffffffffffff16141561250d5761243d81611efc565b1561250c576040518060400160405280846000015173ffffffffffffffffffffffffffffffffffffffff168152602001846020015167ffffffffffffffff168152506004600083815260200190815260200160002060008201518160000160006101000a81548173ffffffffffffffffffffffffffffffffffffffff021916908373ffffffffffffffffffffffffffffffffffffffff16021790555060208201518160000160146101000a81548167ffffffffffffffff021916908367ffffffffffffffff1602179055509050505b5b838573ffffffffffffffffffffffffffffffffffffffff168773ffffffffffffffffffffffffffffffffffffffff167fddf252ad1be2c89b69c2b068fc378daa952ba7f163c4a11628f55a4df523b3ef60405160405180910390a46125758686866001612f21565b505050505050565b60006008549050600082116125c7576040517f08c379a00000000000000000000000000000000000000000000000000000000081526004016125be90614da7565b60405180910390fd5b6000600183836125d79190614678565b6125e19190614dc7565b905060017f00000000000000000000000000000000000000000000000000000000000000006126109190614dc7565b8111156126475760017f00000000000000000000000000000000000000000000000000000000000000006126449190614dc7565b90505b61265081611efc565b61268f576040517f08c379a000000000000000000000000000000000000000000000000000000000815260040161268690614e6d565b60405180910390fd5b60008290505b8181116127f257600073ffffffffffffffffffffffffffffffffffffffff166004600083815260200190815260200160002060000160009054906101000a900473ffffffffffffffffffffffffffffffffffffffff1673ffffffffffffffffffffffffffffffffffffffff1614156127df5760006127128261280b565b90506040518060400160405280826000015173ffffffffffffffffffffffffffffffffffffffff168152602001826020015167ffffffffffffffff168152506004600084815260200190815260200160002060008201518160000160006101000a81548173ffffffffffffffffffffffffffffffffffffffff021916908373ffffffffffffffffffffffffffffffffffffffff16021790555060208201518160000160146101000a81548167ffffffffffffffff021916908367ffffffffffffffff160217905550905050505b80806127ea9061420f565b915050612695565b506001816128009190614678565b600881905550505050565b61281361348d565b61281c82611efc565b61285b576040517f08c379a000000000000000000000000000000000000000000000000000000000815260040161285290614eff565b60405180910390fd5b60007f000000000000000000000000000000000000000000000000000000000000000083106128bf5760017f0000000000000000000000000000000000000000000000000000000000000000846128b29190614dc7565b6128bc9190614678565b90505b60008390505b8181106129cd576000600460008381526020019081526020016000206040518060400160405290816000820160009054906101000a900473ffffffffffffffffffffffffffffffffffffffff1673ffffffffffffffffffffffffffffffffffffffff1673ffffffffffffffffffffffffffffffffffffffff1681526020016000820160149054906101000a900467ffffffffffffffff1667ffffffffffffffff1667ffffffffffffffff16815250509050600073ffffffffffffffffffffffffffffffffffffffff16816000015173ffffffffffffffffffffffffffffffffffffffff16146129b957809350505050612a09565b5080806129c590614f1f565b9150506128c5565b506040517f08c379a0000000000000000000000000000000000000000000000000000000008152600401612a0090614fbb565b60405180910390fd5b919050565b60008060009054906101000a900473ffffffffffffffffffffffffffffffffffffffff169050816000806101000a81548173ffffffffffffffffffffffffffffffffffffffff021916908373ffffffffffffffffffffffffffffffffffffffff1602179055508173ffffffffffffffffffffffffffffffffffffffff168173ffffffffffffffffffffffffffffffffffffffff167f8be0079c531659141344cd1fd0a4f28419497f9722a3daafe3b4186f6b6457e060405160405180910390a35050565b612aec828260405180602001604052806000815250612f27565b5050565b80341015612b33576040517f08c379a0000000000000000000000000000000000000000000000000000000008152600401612b2a90614818565b60405180910390fd5b80341115612b8e573373ffffffffffffffffffffffffffffffffffffffff166108fc8234612b619190614dc7565b9081150290604051600060405180830381858888f19350505050158015612b8c573d6000803e3d6000fd5b505b50565b6000612bb28473ffffffffffffffffffffffffffffffffffffffff16611e7f565b15612d1b578373ffffffffffffffffffffffffffffffffffffffff1663150b7a02612bdb611f0a565b8786866040518563ffffffff1660e01b8152600401612bfd9493929190615030565b602060405180830381600087803b158015612c1757600080fd5b505af1925050508015612c4857506040513d601f19601f82011682018060405250810190612c459190615091565b60015b612ccb573d8060008114612c78576040519150601f19603f3d011682016040523d82523d6000602084013e612c7d565b606091505b50600081511415612cc3576040517f08c379a0000000000000000000000000000000000000000000000000000000008152600401612cba906148aa565b60405180910390fd5b805181602001fd5b63150b7a0260e01b7bffffffffffffffffffffffffffffffffffffffffffffffffffffffff1916817bffffffffffffffffffffffffffffffffffffffffffffffffffffffff191614915050612d20565b600190505b949350505050565b6060600b8054612d3790613e8e565b80601f0160208091040260200160405190810160405280929190818152602001828054612d6390613e8e565b8015612db05780601f10612d8557610100808354040283529160200191612db0565b820191906000526020600020905b815481529060010190602001808311612d9357829003601f168201915b5050505050905090565b60606000821415612e02576040518060400160405280600181526020017f30000000000000000000000000000000000000000000000000000000000000008152509050612f16565b600082905060005b60008214612e34578080612e1d9061420f565b915050600a82612e2d9190614497565b9150612e0a565b60008167ffffffffffffffff811115612e5057612e4f613a68565b5b6040519080825280601f01601f191660200182016040528015612e825781602001600182028036833780820191505090505b5090505b60008514612f0f57600182612e9b9190614dc7565b9150600a85612eaa91906150be565b6030612eb69190614678565b60f81b818381518110612ecc57612ecb614a4e565b5b60200101907effffffffffffffffffffffffffffffffffffffffffffffffffffffffffffff1916908160001a905350600a85612f089190614497565b9450612e86565b8093505050505b919050565b50505050565b50505050565b60006001549050600073ffffffffffffffffffffffffffffffffffffffff168473ffffffffffffffffffffffffffffffffffffffff161415612f9e576040517f08c379a0000000000000000000000000000000000000000000000000000000008152600401612f9590615161565b60405180910390fd5b612fa781611efc565b15612fe7576040517f08c379a0000000000000000000000000000000000000000000000000000000008152600401612fde906151cd565b60405180910390fd5b7f000000000000000000000000000000000000000000000000000000000000000083111561304a576040517f08c379a00000000000000000000000000000000000000000000000000000000081526004016130419061525f565b60405180910390fd5b6130576000858386612f1b565b6000600560008673ffffffffffffffffffffffffffffffffffffffff1673ffffffffffffffffffffffffffffffffffffffff1681526020019081526020016000206040518060400160405290816000820160009054906101000a90046fffffffffffffffffffffffffffffffff166fffffffffffffffffffffffffffffffff166fffffffffffffffffffffffffffffffff1681526020016000820160109054906101000a90046fffffffffffffffffffffffffffffffff166fffffffffffffffffffffffffffffffff166fffffffffffffffffffffffffffffffff1681525050905060405180604001604052808583600001516131549190614d15565b6fffffffffffffffffffffffffffffffff16815260200185836020015161317b9190614d15565b6fffffffffffffffffffffffffffffffff16815250600560008773ffffffffffffffffffffffffffffffffffffffff1673ffffffffffffffffffffffffffffffffffffffff16815260200190815260200160002060008201518160000160006101000a8154816fffffffffffffffffffffffffffffffff02191690836fffffffffffffffffffffffffffffffff16021790555060208201518160000160106101000a8154816fffffffffffffffffffffffffffffffff02191690836fffffffffffffffffffffffffffffffff16021790555090505060405180604001604052808673ffffffffffffffffffffffffffffffffffffffff1681526020014267ffffffffffffffff168152506004600084815260200190815260200160002060008201518160000160006101000a81548173ffffffffffffffffffffffffffffffffffffffff021916908373ffffffffffffffffffffffffffffffffffffffff16021790555060208201518160000160146101000a81548167ffffffffffffffff021916908367ffffffffffffffff160217905550905050600082905060005b858110156133ea57818773ffffffffffffffffffffffffffffffffffffffff16600073ffffffffffffffffffffffffffffffffffffffff167fddf252ad1be2c89b69c2b068fc378daa952ba7f163c4a11628f55a4df523b3ef60405160405180910390a461338a6000888488612b91565b6133c9576040517f08c379a00000000000000000000000000000000000000000000000000000000081526004016133c0906148aa565b60405180910390fd5b81806133d49061420f565b92505080806133e29061420f565b915050613319565b50806001819055506133ff6000878588612f21565b505050505050565b82805461341390613e8e565b90600052602060002090601f016020900481019282613435576000855561347c565b82601f1061344e57803560ff191683800117855561347c565b8280016001018555821561347c579182015b8281111561347b578235825591602001919060010190613460565b5b509050613489919061354d565b5090565b6040518060400160405280600073ffffffffffffffffffffffffffffffffffffffff168152602001600067ffffffffffffffff1681525090565b8280546134d390613e8e565b90600052602060002090601f0160209004810192826134f5576000855561353c565b82601f1061350e57805160ff191683800117855561353c565b8280016001018555821561353c579182015b8281111561353b578251825591602001919060010190613520565b5b509050613549919061354d565b5090565b5b8082111561356657600081600090555060010161354e565b5090565b6000604051905090565b600080fd5b600080fd5b60007fffffffff0000000000000000000000000000000000000000000000000000000082169050919050565b6135b38161357e565b81146135be57600080fd5b50565b6000813590506135d0816135aa565b92915050565b6000602082840312156135ec576135eb613574565b5b60006135fa848285016135c1565b91505092915050565b60008115159050919050565b61361881613603565b82525050565b6000602082019050613633600083018461360f565b92915050565b600081519050919050565b600082825260208201905092915050565b60005b83811015613673578082015181840152602081019050613658565b83811115613682576000848401525b50505050565b6000601f19601f8301169050919050565b60006136a482613639565b6136ae8185613644565b93506136be818560208601613655565b6136c781613688565b840191505092915050565b600060208201905081810360008301526136ec8184613699565b905092915050565b6000819050919050565b613707816136f4565b811461371257600080fd5b50565b600081359050613724816136fe565b92915050565b6000602082840312156137405761373f613574565b5b600061374e84828501613715565b91505092915050565b600073ffffffffffffffffffffffffffffffffffffffff82169050919050565b600061378282613757565b9050919050565b61379281613777565b82525050565b60006020820190506137ad6000830184613789565b92915050565b6137bc81613777565b81146137c757600080fd5b50565b6000813590506137d9816137b3565b92915050565b600080604083850312156137f6576137f5613574565b5b6000613804858286016137ca565b925050602061381585828601613715565b9150509250929050565b613828816136f4565b82525050565b6000602082019050613843600083018461381f565b92915050565b60008060006060848603121561386257613861613574565b5b6000613870868287016137ca565b9350506020613881868287016137ca565b925050604061389286828701613715565b9150509250925092565b6000602082840312156138b2576138b1613574565b5b60006138c0848285016137ca565b91505092915050565b600080fd5b600080fd5b600080fd5b60008083601f8401126138ee576138ed6138c9565b5b8235905067ffffffffffffffff81111561390b5761390a6138ce565b5b602083019150836001820283011115613927576139266138d3565b5b9250929050565b6000806020838503121561394557613944613574565b5b600083013567ffffffffffffffff81111561396357613962613579565b5b61396f858286016138d8565b92509250509250929050565b61398481613777565b82525050565b600067ffffffffffffffff82169050919050565b6139a78161398a565b82525050565b6040820160008201516139c3600085018261397b565b5060208201516139d6602085018261399e565b50505050565b60006040820190506139f160008301846139ad565b92915050565b613a0081613603565b8114613a0b57600080fd5b50565b600081359050613a1d816139f7565b92915050565b60008060408385031215613a3a57613a39613574565b5b6000613a48858286016137ca565b9250506020613a5985828601613a0e565b9150509250929050565b600080fd5b7f4e487b7100000000000000000000000000000000000000000000000000000000600052604160045260246000fd5b613aa082613688565b810181811067ffffffffffffffff82111715613abf57613abe613a68565b5b80604052505050565b6000613ad261356a565b9050613ade8282613a97565b919050565b600067ffffffffffffffff821115613afe57613afd613a68565b5b613b0782613688565b9050602081019050919050565b82818337600083830152505050565b6000613b36613b3184613ae3565b613ac8565b905082815260208101848484011115613b5257613b51613a63565b5b613b5d848285613b14565b509392505050565b600082601f830112613b7a57613b796138c9565b5b8135613b8a848260208601613b23565b91505092915050565b60008060008060808587031215613bad57613bac613574565b5b6000613bbb878288016137ca565b9450506020613bcc878288016137ca565b9350506040613bdd87828801613715565b925050606085013567ffffffffffffffff811115613bfe57613bfd613579565b5b613c0a87828801613b65565b91505092959194509250565b600067ffffffffffffffff821115613c3157613c30613a68565b5b602082029050602081019050919050565b6000613c55613c5084613c16565b613ac8565b90508083825260208201905060208402830185811115613c7857613c776138d3565b5b835b81811015613ca15780613c8d88826137ca565b845260208401935050602081019050613c7a565b5050509392505050565b600082601f830112613cc057613cbf6138c9565b5b8135613cd0848260208601613c42565b91505092915050565b60008060408385031215613cf057613cef613574565b5b600083013567ffffffffffffffff811115613d0e57613d0d613579565b5b613d1a85828601613cab565b9250506020613d2b85828601613715565b9150509250929050565b60008060408385031215613d4c57613d4b613574565b5b6000613d5a858286016137ca565b9250506020613d6b858286016137ca565b9150509250929050565b600067ffffffffffffffff821115613d9057613d8f613a68565b5b613d9982613688565b9050602081019050919050565b6000613db9613db484613d75565b613ac8565b905082815260208101848484011115613dd557613dd4613a63565b5b613de0848285613b14565b509392505050565b600082601f830112613dfd57613dfc6138c9565b5b8135613e0d848260208601613da6565b91505092915050565b600060208284031215613e2c57613e2b613574565b5b600082013567ffffffffffffffff811115613e4a57613e49613579565b5b613e5684828501613de8565b91505092915050565b7f4e487b7100000000000000000000000000000000000000000000000000000000600052602260045260246000fd5b60006002820490506001821680613ea657607f821691505b60208210811415613eba57613eb9613e5f565b5b50919050565b7f455243373231413a20617070726f76656420717565727920666f72206e6f6e6560008201527f78697374656e7420746f6b656e00000000000000000000000000000000000000602082015250565b6000613f1c602d83613644565b9150613f2782613ec0565b604082019050919050565b60006020820190508181036000830152613f4b81613f0f565b9050919050565b7f455243373231413a20617070726f76616c20746f2063757272656e74206f776e60008201527f6572000000000000000000000000000000000000000000000000000000000000602082015250565b6000613fae602283613644565b9150613fb982613f52565b604082019050919050565b60006020820190508181036000830152613fdd81613fa1565b9050919050565b7f455243373231413a20617070726f76652063616c6c6572206973206e6f74206f60008201527f776e6572206e6f7220617070726f76656420666f7220616c6c00000000000000602082015250565b6000614040603983613644565b915061404b82613fe4565b604082019050919050565b6000602082019050818103600083015261406f81614033565b9050919050565b7f4f776e61626c653a2063616c6c6572206973206e6f7420746865206f776e6572600082015250565b60006140ac602083613644565b91506140b782614076565b602082019050919050565b600060208201905081810360008301526140db8161409f565b9050919050565b7f5265656e7472616e637947756172643a207265656e7472616e742063616c6c00600082015250565b6000614118601f83613644565b9150614123826140e2565b602082019050919050565b600060208201905081810360008301526141478161410b565b9050919050565b7f455243373231413a206f776e657220696e646578206f7574206f6620626f756e60008201527f6473000000000000000000000000000000000000000000000000000000000000602082015250565b60006141aa602283613644565b91506141b58261414e565b604082019050919050565b600060208201905081810360008301526141d98161419d565b9050919050565b7f4e487b7100000000000000000000000000000000000000000000000000000000600052601160045260246000fd5b600061421a826136f4565b91507fffffffffffffffffffffffffffffffffffffffffffffffffffffffffffffffff82141561424d5761424c6141e0565b5b600182019050919050565b7f455243373231413a20756e61626c6520746f2067657420746f6b656e206f662060008201527f6f776e657220627920696e646578000000000000000000000000000000000000602082015250565b60006142b4602e83613644565b91506142bf82614258565b604082019050919050565b600060208201905081810360008301526142e3816142a7565b9050919050565b7f455243373231413a206e756d626572206d696e74656420717565727920666f7260008201527f20746865207a65726f2061646472657373000000000000000000000000000000602082015250565b6000614346603183613644565b9150614351826142ea565b604082019050919050565b6000602082019050818103600083015261437581614339565b9050919050565b7f455243373231413a20676c6f62616c20696e646578206f7574206f6620626f7560008201527f6e64730000000000000000000000000000000000000000000000000000000000602082015250565b60006143d8602383613644565b91506143e38261437c565b604082019050919050565b60006020820190508181036000830152614407816143cb565b9050919050565b6000614419826136f4565b9150614424836136f4565b9250817fffffffffffffffffffffffffffffffffffffffffffffffffffffffffffffffff048311821515161561445d5761445c6141e0565b5b828202905092915050565b7f4e487b7100000000000000000000000000000000000000000000000000000000600052601260045260246000fd5b60006144a2826136f4565b91506144ad836136f4565b9250826144bd576144bc614468565b5b828204905092915050565b600081905092915050565b50565b60006144e36000836144c8565b91506144ee826144d3565b600082019050919050565b6000614504826144d6565b9150819050919050565b7f455243373231413a2062616c616e636520717565727920666f7220746865207a60008201527f65726f2061646472657373000000000000000000000000000000000000000000602082015250565b600061456a602b83613644565b91506145758261450e565b604082019050919050565b600060208201905081810360008301526145998161455d565b9050919050565b7f455243373231413a20617070726f766520746f2063616c6c6572000000000000600082015250565b60006145d6601a83613644565b91506145e1826145a0565b602082019050919050565b60006020820190508181036000830152614605816145c9565b9050919050565b7f5468652063616c6c657220697320616e6f7468657220636f6e74726163740000600082015250565b6000614642601e83613644565b915061464d8261460c565b602082019050919050565b6000602082019050818103600083015261467181614635565b9050919050565b6000614683826136f4565b915061468e836136f4565b9250827fffffffffffffffffffffffffffffffffffffffffffffffffffffffffffffffff038211156146c3576146c26141e0565b5b828201905092915050565b7f6578636565646564206d617820737570706c7900000000000000000000000000600082015250565b6000614704601383613644565b915061470f826146ce565b602082019050919050565b60006020820190508181036000830152614733816146f7565b9050919050565b7f7075626c69632073616c65206d696e74696e67206c696d69742065786365656460008201527f6564000000000000000000000000000000000000000000000000000000000000602082015250565b6000614796602283613644565b91506147a18261473a565b604082019050919050565b600060208201905081810360008301526147c581614789565b9050919050565b7f4e65656420746f2073656e64206d6f7265204554480000000000000000000000600082015250565b6000614802601583613644565b915061480d826147cc565b602082019050919050565b60006020820190508181036000830152614831816147f5565b9050919050565b7f455243373231413a207472616e7366657220746f206e6f6e204552433732315260008201527f6563656976657220696d706c656d656e74657200000000000000000000000000602082015250565b6000614894603383613644565b915061489f82614838565b604082019050919050565b600060208201905081810360008301526148c381614887565b9050919050565b7f4552433732314d657461646174613a2055524920717565727920666f72206e6f60008201527f6e6578697374656e7420746f6b656e0000000000000000000000000000000000602082015250565b6000614926602f83613644565b9150614931826148ca565b604082019050919050565b6000602082019050818103600083015261495581614919565b9050919050565b600081905092915050565b600061497282613639565b61497c818561495c565b935061498c818560208601613655565b80840191505092915050565b60006149a48285614967565b91506149b08284614967565b91508190509392505050565b7f746f6f206d616e7920616c7265616479206d696e746564206265666f7265206460008201527f6576206d696e7400000000000000000000000000000000000000000000000000602082015250565b6000614a18602783613644565b9150614a23826149bc565b604082019050919050565b60006020820190508181036000830152614a4781614a0b565b9050919050565b7f4e487b7100000000000000000000000000000000000000000000000000000000600052603260045260246000fd5b7f4f776e61626c653a206e6577206f776e657220697320746865207a65726f206160008201527f6464726573730000000000000000000000000000000000000000000000000000602082015250565b6000614ad9602683613644565b9150614ae482614a7d565b604082019050919050565b60006020820190508181036000830152614b0881614acc565b9050919050565b7f455243373231413a207472616e736665722063616c6c6572206973206e6f742060008201527f6f776e6572206e6f7220617070726f7665640000000000000000000000000000602082015250565b6000614b6b603283613644565b9150614b7682614b0f565b604082019050919050565b60006020820190508181036000830152614b9a81614b5e565b9050919050565b7f455243373231413a207472616e736665722066726f6d20696e636f727265637460008201527f206f776e65720000000000000000000000000000000000000000000000000000602082015250565b6000614bfd602683613644565b9150614c0882614ba1565b604082019050919050565b60006020820190508181036000830152614c2c81614bf0565b9050919050565b7f455243373231413a207472616e7366657220746f20746865207a65726f20616460008201527f6472657373000000000000000000000000000000000000000000000000000000602082015250565b6000614c8f602583613644565b9150614c9a82614c33565b604082019050919050565b60006020820190508181036000830152614cbe81614c82565b9050919050565b60006fffffffffffffffffffffffffffffffff82169050919050565b6000614cec82614cc5565b9150614cf783614cc5565b925082821015614d0a57614d096141e0565b5b828203905092915050565b6000614d2082614cc5565b9150614d2b83614cc5565b9250826fffffffffffffffffffffffffffffffff03821115614d5057614d4f6141e0565b5b828201905092915050565b7f7175616e74697479206d757374206265206e6f6e7a65726f0000000000000000600082015250565b6000614d91601883613644565b9150614d9c82614d5b565b602082019050919050565b60006020820190508181036000830152614dc081614d84565b9050919050565b6000614dd2826136f4565b9150614ddd836136f4565b925082821015614df057614def6141e0565b5b828203905092915050565b7f6e6f7420656e6f756768206d696e7465642079657420666f722074686973206360008201527f6c65616e75700000000000000000000000000000000000000000000000000000602082015250565b6000614e57602683613644565b9150614e6282614dfb565b604082019050919050565b60006020820190508181036000830152614e8681614e4a565b9050919050565b7f455243373231413a206f776e657220717565727920666f72206e6f6e6578697360008201527f74656e7420746f6b656e00000000000000000000000000000000000000000000602082015250565b6000614ee9602a83613644565b9150614ef482614e8d565b604082019050919050565b60006020820190508181036000830152614f1881614edc565b9050919050565b6000614f2a826136f4565b91506000821415614f3e57614f3d6141e0565b5b600182039050919050565b7f455243373231413a20756e61626c6520746f2064657465726d696e652074686560008201527f206f776e6572206f6620746f6b656e0000000000000000000000000000000000602082015250565b6000614fa5602f83613644565b9150614fb082614f49565b604082019050919050565b60006020820190508181036000830152614fd481614f98565b9050919050565b600081519050919050565b600082825260208201905092915050565b600061500282614fdb565b61500c8185614fe6565b935061501c818560208601613655565b61502581613688565b840191505092915050565b60006080820190506150456000830187613789565b6150526020830186613789565b61505f604083018561381f565b81810360608301526150718184614ff7565b905095945050505050565b60008151905061508b816135aa565b92915050565b6000602082840312156150a7576150a6613574565b5b60006150b58482850161507c565b91505092915050565b60006150c9826136f4565b91506150d4836136f4565b9250826150e4576150e3614468565b5b828206905092915050565b7f455243373231413a206d696e7420746f20746865207a65726f2061646472657360008201527f7300000000000000000000000000000000000000000000000000000000000000602082015250565b600061514b602183613644565b9150615156826150ef565b604082019050919050565b6000602082019050818103600083015261517a8161513e565b9050919050565b7f455243373231413a20746f6b656e20616c7265616479206d696e746564000000600082015250565b60006151b7601d83613644565b91506151c282615181565b602082019050919050565b600060208201905081810360008301526151e6816151aa565b9050919050565b7f455243373231413a207175616e7469747920746f206d696e7420746f6f20686960008201527f6768000000000000000000000000000000000000000000000000000000000000602082015250565b6000615249602283613644565b9150615254826151ed565b604082019050919050565b600060208201905081810360008301526152788161523c565b905091905056fea264697066735822122026461aa88d9fe691bf6ddeb19fb9562c02c51728e082ca4267c29143e96b256364736f6c63430008090033",
  "immutableReferences": {
    "936": [
      {
        "length": 32,
        "start": 6099
      },
      {
        "length": 32,
        "start": 9703
      },
      {
        "length": 32,
        "start": 9755
      }
    ],
    "938": [
      {
        "length": 32,
        "start": 10335
      },
      {
        "length": 32,
        "start": 10376
      },
      {
        "length": 32,
        "start": 12265
      }
    ],
    "2106": [
      {
        "length": 32,
        "start": 6216
      },
      {
        "length": 32,
        "start": 6878
      }
    ],
    "2109": [
      {
        "length": 32,
        "start": 5941
      }
    ],
    "2111": [
      {
        "length": 32,
        "start": 7038
      },
      {
        "length": 32,
        "start": 7773
      }
    ],
    "2113": [
      {
        "length": 32,
        "start": 6435
      }
    ]
  },
  "source": "// SPDX-License-Identifier: MIT\n\npragma solidity ^0.8.0;\n\nimport \"@openzeppelin/contracts/access/Ownable.sol\";\nimport \"@openzeppelin/contracts/security/ReentrancyGuard.sol\";\nimport \"./ERC721A.sol\";\nimport \"@openzeppelin/contracts/utils/Strings.sol\";\n\ncontract YetiPunks is Ownable, ERC721A, ReentrancyGuard {\n    using Strings for uint256;\n\n    uint256 public immutable maxPerAddressDuringPublicSale;\n    uint256 public immutable maxPerAddressDuringPresale = 3;\n    uint256 public immutable amountForDevs;\n    uint256 public immutable amountForGiveaway;\n    string public notRevealedUri;\n\n    // mapping(address => uint256) public allowlist; //seed this with the uint being 3\n\n    constructor(\n        uint256 maxBatchSize_,\n        uint256 collectionSize_,\n        uint256 amountForGiveaway_,\n        uint256 amountForDevs_,\n        string memory _initNotRevealedUri\n    ) ERC721A(\"Petty Monks\", \"PM\", maxBatchSize_, collectionSize_) {\n        maxPerAddressDuringPublicSale = maxBatchSize_;\n        amountForGiveaway = amountForGiveaway_;\n        amountForDevs = amountForDevs_;\n        require(\n            amountForGiveaway_ <= collectionSize_,\n            \"larger collection size needed\"\n        );\n        setNotRevealedURI(_initNotRevealedUri);\n        address[] memory devAddresses = new address[](3);\n        devAddresses[0] = 0xD61ADc48afE9402B4411805Ce6026eF74F94E713;\n        devAddresses[1] = 0xE3Ce04B3BcbdFa219407870Ca617e18fBF503F28;\n        devAddresses[2] = 0x49Cf0aF1cE6a50e822A91a427B3E29007f9C6C09;\n        devMint(devAddresses, 7);\n    }\n\n    modifier callerIsUser() {\n        require(tx.origin == msg.sender, \"The caller is another contract\");\n        _;\n    }\n\n    // function allowlistMint(uint256 quantity) external payable callerIsUser {\n    //     uint256 price = 0.024 ether;\n    //     require(allowlist[msg.sender] > 0, \"not eligible for whitelist mint\");\n    //     require(\n    //         totalSupply() + quantity <= collectionSize,\n    //         \"exceeded max supply\"\n    //     ); //is this possible?\n    //     require(\n    //         numberMinted(msg.sender) + quantity <= maxPerAddressDuringPresale,\n    //         \"mint amount exceeds whitelist\"\n    //     );\n    //     require(msg.value >= price, \"Need to send more ETH\");\n    //     allowlist[msg.sender] -= quantity;\n    //     _safeMint(msg.sender, quantity);\n    //     refundIfOver(price * quantity);\n    // }\n\n    function publicSaleMint(uint256 quantity) external payable callerIsUser {\n        uint256 publicPrice = 0.024 ether;\n        require(\n            totalSupply() + quantity <= collectionSize,\n            \"exceeded max supply\"\n        );\n        require(\n            numberMinted(msg.sender) + quantity <=\n                maxPerAddressDuringPublicSale,\n            \"public sale minting limit exceeded\"\n        );\n        require(msg.value >= publicPrice, \"Need to send more ETH\");\n        _safeMint(msg.sender, quantity);\n        refundIfOver(publicPrice * quantity);\n    }\n\n    function refundIfOver(uint256 price) private {\n        require(msg.value >= price, \"Need to send more ETH\");\n        if (msg.value > price) {\n            payable(msg.sender).transfer(msg.value - price);\n        }\n    }\n\n    // function seedAllowlist(\n    //     address[] memory addresses,\n    //     uint256[] memory numSlots\n    // ) external onlyOwner {\n    //     require(\n    //         addresses.length == numSlots.length,\n    //         \"addresses does not match numSlots length\"\n    //     );\n    //     for (uint256 i = 0; i < addresses.length; i++) {\n    //         allowlist[addresses[i]] = numSlots[i];\n    //     }\n    // }\n\n    // For marketing etc.\n    function devMint(address[] memory receiverAddresses, uint256 mintAmount)\n        public\n        onlyOwner\n    {\n        require(\n            totalSupply() + mintAmount <= amountForDevs,\n            \"too many already minted before dev mint\"\n        );\n\n        for (uint256 i = 0; i < receiverAddresses.length; i++) {\n            _safeMint(receiverAddresses[i], mintAmount);\n        }\n    }\n\n    // metadata URI\n    string private _baseTokenURI;\n\n    function _baseURI() internal view virtual override returns (string memory) {\n        return _baseTokenURI;\n    }\n\n    function setNotRevealedURI(string memory _notRevealedURI) public onlyOwner {\n        notRevealedUri = _notRevealedURI;\n    }\n\n    function setBaseURI(string calldata baseURI) external onlyOwner {\n        _baseTokenURI = baseURI;\n    }\n\n    /**\n     * @dev See {IERC721Metadata-tokenURI}.\n     */\n    function tokenURI(uint256 tokenId)\n        public\n        view\n        virtual\n        override\n        onlyOwner\n        returns (string memory)\n    {\n        require(\n            _exists(tokenId),\n            \"ERC721Metadata: URI query for nonexistent token\"\n        );\n\n        string memory baseURI = _baseURI();\n        return\n            bytes(baseURI).length > 0\n                ? string(abi.encodePacked(baseURI, tokenId.toString()))\n                : \"\";\n    }\n\n    function withdrawBalance() public onlyOwner {\n        uint256 oneThird = (address(this).balance * 33) / 100;\n        (bool manduSuccess, ) = payable(\n            0xD61ADc48afE9402B4411805Ce6026eF74F94E713\n        ).call{value: oneThird}(\"\");\n        require(manduSuccess);\n        (bool tenzingSuccess, ) = payable(\n            0xE3Ce04B3BcbdFa219407870Ca617e18fBF503F28\n        ).call{value: oneThird}(\"\");\n        require(tenzingSuccess);\n        (bool tokiMoriSuccess, ) = payable(\n            0x49Cf0aF1cE6a50e822A91a427B3E29007f9C6C09\n        ).call{value: address(this).balance}(\"\");\n        require(tokiMoriSuccess);\n    }\n\n    function setOwnersExplicit(uint256 quantity)\n        external\n        onlyOwner\n        nonReentrant\n    {\n        _setOwnersExplicit(quantity);\n    }\n\n    function numberMinted(address owner) public view returns (uint256) {\n        return _numberMinted(owner);\n    }\n\n    function getOwnershipData(uint256 tokenId)\n        external\n        view\n        returns (TokenOwnership memory)\n    {\n        return ownershipOf(tokenId);\n    }\n}\n",
  "sourcePath": "/Users/christopherfoley/nft/YetiPunks/src/contracts/YetiPunks.sol",
  "compiler": {
    "name": "solc",
    "version": "0.8.9+commit.e5eed63a.Emscripten.clang"
  },
  "schemaVersion": "3.4.4",
  "updatedAt": "2022-02-17T13:59:37.521Z",
  "networkType": "ethereum",
  "devdoc": {
    "kind": "dev",
    "methods": {
      "approve(address,uint256)": {
        "details": "See {IERC721-approve}."
      },
      "balanceOf(address)": {
        "details": "See {IERC721-balanceOf}."
      },
      "getApproved(uint256)": {
        "details": "See {IERC721-getApproved}."
      },
      "isApprovedForAll(address,address)": {
        "details": "See {IERC721-isApprovedForAll}."
      },
      "name()": {
        "details": "See {IERC721Metadata-name}."
      },
      "owner()": {
        "details": "Returns the address of the current owner."
      },
      "ownerOf(uint256)": {
        "details": "See {IERC721-ownerOf}."
      },
      "renounceOwnership()": {
        "details": "Leaves the contract without owner. It will not be possible to call `onlyOwner` functions anymore. Can only be called by the current owner. NOTE: Renouncing ownership will leave the contract without an owner, thereby removing any functionality that is only available to the owner."
      },
      "safeTransferFrom(address,address,uint256)": {
        "details": "See {IERC721-safeTransferFrom}."
      },
      "safeTransferFrom(address,address,uint256,bytes)": {
        "details": "See {IERC721-safeTransferFrom}."
      },
      "setApprovalForAll(address,bool)": {
        "details": "See {IERC721-setApprovalForAll}."
      },
      "supportsInterface(bytes4)": {
        "details": "See {IERC165-supportsInterface}."
      },
      "symbol()": {
        "details": "See {IERC721Metadata-symbol}."
      },
      "tokenByIndex(uint256)": {
        "details": "See {IERC721Enumerable-tokenByIndex}."
      },
      "tokenOfOwnerByIndex(address,uint256)": {
        "details": "See {IERC721Enumerable-tokenOfOwnerByIndex}. This read function is O(collectionSize). If calling from a separate contract, be sure to test gas first. It may also degrade with extremely large collection sizes (e.g >> 10000), test for your use case."
      },
      "tokenURI(uint256)": {
        "details": "See {IERC721Metadata-tokenURI}."
      },
      "totalSupply()": {
        "details": "See {IERC721Enumerable-totalSupply}."
      },
      "transferFrom(address,address,uint256)": {
        "details": "See {IERC721-transferFrom}."
      },
      "transferOwnership(address)": {
        "details": "Transfers ownership of the contract to a new account (`newOwner`). Can only be called by the current owner."
      }
    },
    "version": 1
  },
  "userdoc": {
    "kind": "user",
    "methods": {},
    "version": 1
  }
}