{
  "contractName": "YetiPunks",
  "abi": [
    {
      "inputs": [
        {
          "internalType": "uint256",
          "name": "maxBatchSize_",
          "type": "uint256"
        },
        {
          "internalType": "uint256",
          "name": "collectionSize_",
          "type": "uint256"
        },
        {
          "internalType": "uint256",
          "name": "amountForGiveaway_",
          "type": "uint256"
        },
        {
          "internalType": "string",
          "name": "_initBaseUri",
          "type": "string"
        },
        {
          "internalType": "string",
          "name": "_initNotRevealedUri",
          "type": "string"
        }
      ],
      "stateMutability": "nonpayable",
      "type": "constructor"
    },
    {
      "anonymous": false,
      "inputs": [
        {
          "indexed": true,
          "internalType": "address",
          "name": "owner",
          "type": "address"
        },
        {
          "indexed": true,
          "internalType": "address",
          "name": "approved",
          "type": "address"
        },
        {
          "indexed": true,
          "internalType": "uint256",
          "name": "tokenId",
          "type": "uint256"
        }
      ],
      "name": "Approval",
      "type": "event"
    },
    {
      "anonymous": false,
      "inputs": [
        {
          "indexed": true,
          "internalType": "address",
          "name": "owner",
          "type": "address"
        },
        {
          "indexed": true,
          "internalType": "address",
          "name": "operator",
          "type": "address"
        },
        {
          "indexed": false,
          "internalType": "bool",
          "name": "approved",
          "type": "bool"
        }
      ],
      "name": "ApprovalForAll",
      "type": "event"
    },
    {
      "anonymous": false,
      "inputs": [
        {
          "indexed": true,
          "internalType": "address",
          "name": "previousOwner",
          "type": "address"
        },
        {
          "indexed": true,
          "internalType": "address",
          "name": "newOwner",
          "type": "address"
        }
      ],
      "name": "OwnershipTransferred",
      "type": "event"
    },
    {
      "anonymous": false,
      "inputs": [
        {
          "indexed": true,
          "internalType": "address",
          "name": "from",
          "type": "address"
        },
        {
          "indexed": true,
          "internalType": "address",
          "name": "to",
          "type": "address"
        },
        {
          "indexed": true,
          "internalType": "uint256",
          "name": "tokenId",
          "type": "uint256"
        }
      ],
      "name": "Transfer",
      "type": "event"
    },
    {
      "inputs": [
        {
          "internalType": "address",
          "name": "owner",
          "type": "address"
        }
      ],
      "name": "_numberMinted",
      "outputs": [
        {
          "internalType": "uint256",
          "name": "",
          "type": "uint256"
        }
      ],
      "stateMutability": "view",
      "type": "function",
      "constant": true
    },
    {
      "inputs": [],
      "name": "amountForGiveaway",
      "outputs": [
        {
          "internalType": "uint256",
          "name": "",
          "type": "uint256"
        }
      ],
      "stateMutability": "view",
      "type": "function",
      "constant": true
    },
    {
      "inputs": [
        {
          "internalType": "address",
          "name": "to",
          "type": "address"
        },
        {
          "internalType": "uint256",
          "name": "tokenId",
          "type": "uint256"
        }
      ],
      "name": "approve",
      "outputs": [],
      "stateMutability": "nonpayable",
      "type": "function"
    },
    {
      "inputs": [
        {
          "internalType": "address",
          "name": "owner",
          "type": "address"
        }
      ],
      "name": "balanceOf",
      "outputs": [
        {
          "internalType": "uint256",
          "name": "",
          "type": "uint256"
        }
      ],
      "stateMutability": "view",
      "type": "function",
      "constant": true
    },
    {
      "inputs": [
        {
          "internalType": "uint256",
          "name": "tokenId",
          "type": "uint256"
        }
      ],
      "name": "getApproved",
      "outputs": [
        {
          "internalType": "address",
          "name": "",
          "type": "address"
        }
      ],
      "stateMutability": "view",
      "type": "function",
      "constant": true
    },
    {
      "inputs": [
        {
          "internalType": "address",
          "name": "owner",
          "type": "address"
        },
        {
          "internalType": "address",
          "name": "operator",
          "type": "address"
        }
      ],
      "name": "isApprovedForAll",
      "outputs": [
        {
          "internalType": "bool",
          "name": "",
          "type": "bool"
        }
      ],
      "stateMutability": "view",
      "type": "function",
      "constant": true
    },
    {
      "inputs": [],
      "name": "maxPerAddressDuringPublicSale",
      "outputs": [
        {
          "internalType": "uint256",
          "name": "",
          "type": "uint256"
        }
      ],
      "stateMutability": "view",
      "type": "function",
      "constant": true
    },
    {
      "inputs": [],
      "name": "name",
      "outputs": [
        {
          "internalType": "string",
          "name": "",
          "type": "string"
        }
      ],
      "stateMutability": "view",
      "type": "function",
      "constant": true
    },
    {
      "inputs": [],
      "name": "nextOwnerToExplicitlySet",
      "outputs": [
        {
          "internalType": "uint256",
          "name": "",
          "type": "uint256"
        }
      ],
      "stateMutability": "view",
      "type": "function",
      "constant": true
    },
    {
      "inputs": [],
      "name": "notRevealedUri",
      "outputs": [
        {
          "internalType": "string",
          "name": "",
          "type": "string"
        }
      ],
      "stateMutability": "view",
      "type": "function",
      "constant": true
    },
    {
      "inputs": [],
      "name": "owner",
      "outputs": [
        {
          "internalType": "address",
          "name": "",
          "type": "address"
        }
      ],
      "stateMutability": "view",
      "type": "function",
      "constant": true
    },
    {
      "inputs": [
        {
          "internalType": "uint256",
          "name": "tokenId",
          "type": "uint256"
        }
      ],
      "name": "ownerOf",
      "outputs": [
        {
          "internalType": "address",
          "name": "",
          "type": "address"
        }
      ],
      "stateMutability": "view",
      "type": "function",
      "constant": true
    },
    {
      "inputs": [],
      "name": "renounceOwnership",
      "outputs": [],
      "stateMutability": "nonpayable",
      "type": "function"
    },
    {
      "inputs": [
        {
          "internalType": "address",
          "name": "from",
          "type": "address"
        },
        {
          "internalType": "address",
          "name": "to",
          "type": "address"
        },
        {
          "internalType": "uint256",
          "name": "tokenId",
          "type": "uint256"
        }
      ],
      "name": "safeTransferFrom",
      "outputs": [],
      "stateMutability": "nonpayable",
      "type": "function"
    },
    {
      "inputs": [
        {
          "internalType": "address",
          "name": "from",
          "type": "address"
        },
        {
          "internalType": "address",
          "name": "to",
          "type": "address"
        },
        {
          "internalType": "uint256",
          "name": "tokenId",
          "type": "uint256"
        },
        {
          "internalType": "bytes",
          "name": "_data",
          "type": "bytes"
        }
      ],
      "name": "safeTransferFrom",
      "outputs": [],
      "stateMutability": "nonpayable",
      "type": "function"
    },
    {
      "inputs": [
        {
          "internalType": "address",
          "name": "operator",
          "type": "address"
        },
        {
          "internalType": "bool",
          "name": "approved",
          "type": "bool"
        }
      ],
      "name": "setApprovalForAll",
      "outputs": [],
      "stateMutability": "nonpayable",
      "type": "function"
    },
    {
      "inputs": [
        {
          "internalType": "bytes4",
          "name": "interfaceId",
          "type": "bytes4"
        }
      ],
      "name": "supportsInterface",
      "outputs": [
        {
          "internalType": "bool",
          "name": "",
          "type": "bool"
        }
      ],
      "stateMutability": "view",
      "type": "function",
      "constant": true
    },
    {
      "inputs": [],
      "name": "symbol",
      "outputs": [
        {
          "internalType": "string",
          "name": "",
          "type": "string"
        }
      ],
      "stateMutability": "view",
      "type": "function",
      "constant": true
    },
    {
      "inputs": [
        {
          "internalType": "uint256",
          "name": "index",
          "type": "uint256"
        }
      ],
      "name": "tokenByIndex",
      "outputs": [
        {
          "internalType": "uint256",
          "name": "",
          "type": "uint256"
        }
      ],
      "stateMutability": "view",
      "type": "function",
      "constant": true
    },
    {
      "inputs": [
        {
          "internalType": "address",
          "name": "owner",
          "type": "address"
        },
        {
          "internalType": "uint256",
          "name": "index",
          "type": "uint256"
        }
      ],
      "name": "tokenOfOwnerByIndex",
      "outputs": [
        {
          "internalType": "uint256",
          "name": "",
          "type": "uint256"
        }
      ],
      "stateMutability": "view",
      "type": "function",
      "constant": true
    },
    {
      "inputs": [],
      "name": "totalSupply",
      "outputs": [
        {
          "internalType": "uint256",
          "name": "",
          "type": "uint256"
        }
      ],
      "stateMutability": "view",
      "type": "function",
      "constant": true
    },
    {
      "inputs": [
        {
          "internalType": "address",
          "name": "from",
          "type": "address"
        },
        {
          "internalType": "address",
          "name": "to",
          "type": "address"
        },
        {
          "internalType": "uint256",
          "name": "tokenId",
          "type": "uint256"
        }
      ],
      "name": "transferFrom",
      "outputs": [],
      "stateMutability": "nonpayable",
      "type": "function"
    },
    {
      "inputs": [
        {
          "internalType": "address",
          "name": "newOwner",
          "type": "address"
        }
      ],
      "name": "transferOwnership",
      "outputs": [],
      "stateMutability": "nonpayable",
      "type": "function"
    },
    {
      "inputs": [
        {
          "internalType": "uint256",
          "name": "quantity",
          "type": "uint256"
        }
      ],
      "name": "publicSaleMint",
      "outputs": [],
      "stateMutability": "payable",
      "type": "function",
      "payable": true
    },
    {
      "inputs": [
        {
          "internalType": "address[]",
          "name": "receiverAddresses",
          "type": "address[]"
        },
        {
          "internalType": "uint256",
          "name": "mintAmount",
          "type": "uint256"
        }
      ],
      "name": "devMint",
      "outputs": [],
      "stateMutability": "nonpayable",
      "type": "function"
    },
    {
      "inputs": [
        {
          "internalType": "string",
          "name": "_notRevealedURI",
          "type": "string"
        }
      ],
      "name": "setNotRevealedURI",
      "outputs": [],
      "stateMutability": "nonpayable",
      "type": "function"
    },
    {
      "inputs": [
        {
          "internalType": "string",
          "name": "baseURI",
          "type": "string"
        }
      ],
      "name": "setBaseURI",
      "outputs": [],
      "stateMutability": "nonpayable",
      "type": "function"
    },
    {
      "inputs": [
        {
          "internalType": "uint256",
          "name": "tokenId",
          "type": "uint256"
        }
      ],
      "name": "tokenURI",
      "outputs": [
        {
          "internalType": "string",
          "name": "",
          "type": "string"
        }
      ],
      "stateMutability": "view",
      "type": "function",
      "constant": true
    },
    {
      "inputs": [],
      "name": "revealCollection",
      "outputs": [],
      "stateMutability": "nonpayable",
      "type": "function"
    },
    {
      "inputs": [
        {
          "internalType": "bool",
          "name": "state",
          "type": "bool"
        }
      ],
      "name": "setPublicSale",
      "outputs": [],
      "stateMutability": "nonpayable",
      "type": "function"
    },
    {
      "inputs": [],
      "name": "withdrawBalance",
      "outputs": [],
      "stateMutability": "nonpayable",
      "type": "function"
    },
    {
      "inputs": [
        {
          "internalType": "uint256",
          "name": "quantity",
          "type": "uint256"
        }
      ],
      "name": "setOwnersExplicit",
      "outputs": [],
      "stateMutability": "nonpayable",
      "type": "function"
    },
    {
      "inputs": [
        {
          "internalType": "address",
          "name": "owner",
          "type": "address"
        }
      ],
      "name": "numberMinted",
      "outputs": [
        {
          "internalType": "uint256",
          "name": "",
          "type": "uint256"
        }
      ],
      "stateMutability": "view",
      "type": "function",
      "constant": true
    },
    {
      "inputs": [
        {
          "internalType": "uint256",
          "name": "tokenId",
          "type": "uint256"
        }
      ],
      "name": "getOwnershipData",
      "outputs": [
        {
          "components": [
            {
              "internalType": "address",
              "name": "addr",
              "type": "address"
            },
            {
              "internalType": "uint64",
              "name": "startTimestamp",
              "type": "uint64"
            }
          ],
          "internalType": "struct ERC721A.TokenOwnership",
          "name": "",
          "type": "tuple"
        }
      ],
      "stateMutability": "view",
      "type": "function",
      "constant": true
    }
  ],
  "bytecode": "0x610100604052600060015560006008556000600a60006101000a81548160ff0219169083151502179055506000600a60016101000a81548160ff0219169083151502179055503480156200005257600080fd5b5060405162006d8f38038062006d8f8339818101604052810190620000789190620010e1565b6040518060400160405280600b81526020017f5065747479204d6f6e6b730000000000000000000000000000000000000000008152506040518060400160405280600281526020017f504d000000000000000000000000000000000000000000000000000000000000815250868662000106620000fa620003b560201b60201c565b620003bd60201b60201c565b600081116200014c576040517f08c379a000000000000000000000000000000000000000000000000000000000815260040162000143906200122e565b60405180910390fd5b6000821162000192576040517f08c379a00000000000000000000000000000000000000000000000000000000081526004016200018990620012c6565b60405180910390fd5b8360029080519060200190620001aa92919062000e59565b508260039080519060200190620001c392919062000e59565b508160a0818152505080608081815250505050505060016009819055508460c081815250508260e0818152505062000201826200048160201b60201c565b62000212816200052c60201b60201c565b6000600367ffffffffffffffff81111562000232576200023162000f73565b5b604051908082528060200260200182016040528015620002615781602001602082028036833780820191505090505b50905073d61adc48afe9402b4411805ce6026ef74f94e7138160008151811062000290576200028f620012e8565b5b602002602001019073ffffffffffffffffffffffffffffffffffffffff16908173ffffffffffffffffffffffffffffffffffffffff168152505073e3ce04b3bcbdfa219407870ca617e18fbf503f2881600181518110620002f657620002f5620012e8565b5b602002602001019073ffffffffffffffffffffffffffffffffffffffff16908173ffffffffffffffffffffffffffffffffffffffff1681525050737638ac632c177bb6eb88826065eb62b878f93754816002815181106200035c576200035b620012e8565b5b602002602001019073ffffffffffffffffffffffffffffffffffffffff16908173ffffffffffffffffffffffffffffffffffffffff1681525050620003a9816007620005d760201b60201c565b50505050505062001973565b600033905090565b60008060009054906101000a900473ffffffffffffffffffffffffffffffffffffffff169050816000806101000a81548173ffffffffffffffffffffffffffffffffffffffff021916908373ffffffffffffffffffffffffffffffffffffffff1602179055508173ffffffffffffffffffffffffffffffffffffffff168173ffffffffffffffffffffffffffffffffffffffff167f8be0079c531659141344cd1fd0a4f28419497f9722a3daafe3b4186f6b6457e060405160405180910390a35050565b62000491620003b560201b60201c565b73ffffffffffffffffffffffffffffffffffffffff16620004b76200072160201b60201c565b73ffffffffffffffffffffffffffffffffffffffff161462000510576040517f08c379a0000000000000000000000000000000000000000000000000000000008152600401620005079062001367565b60405180910390fd5b80600c90805190602001906200052892919062000e59565b5050565b6200053c620003b560201b60201c565b73ffffffffffffffffffffffffffffffffffffffff16620005626200072160201b60201c565b73ffffffffffffffffffffffffffffffffffffffff1614620005bb576040517f08c379a0000000000000000000000000000000000000000000000000000000008152600401620005b29062001367565b60405180910390fd5b80600b9080519060200190620005d392919062000e59565b5050565b620005e7620003b560201b60201c565b73ffffffffffffffffffffffffffffffffffffffff166200060d6200072160201b60201c565b73ffffffffffffffffffffffffffffffffffffffff161462000666576040517f08c379a00000000000000000000000000000000000000000000000000000000081526004016200065d9062001367565b60405180910390fd5b608051816200067a6200074a60201b60201c565b620006869190620013b8565b1115620006ca576040517f08c379a0000000000000000000000000000000000000000000000000000000008152600401620006c19062001465565b60405180910390fd5b60005b82518110156200071c5762000706838281518110620006f157620006f0620012e8565b5b6020026020010151836200075460201b60201c565b8080620007139062001487565b915050620006cd565b505050565b60008060009054906101000a900473ffffffffffffffffffffffffffffffffffffffff16905090565b6000600154905090565b620007768282604051806020016040528060008152506200077a60201b60201c565b5050565b60006001549050600073ffffffffffffffffffffffffffffffffffffffff168473ffffffffffffffffffffffffffffffffffffffff161415620007f4576040517f08c379a0000000000000000000000000000000000000000000000000000000008152600401620007eb906200154b565b60405180910390fd5b620008058162000c7260201b60201c565b1562000848576040517f08c379a00000000000000000000000000000000000000000000000000000000081526004016200083f90620015bd565b60405180910390fd5b60a05183111562000890576040517f08c379a0000000000000000000000000000000000000000000000000000000008152600401620008879062001655565b60405180910390fd5b620008a5600085838662000c8060201b60201c565b6000600560008673ffffffffffffffffffffffffffffffffffffffff1673ffffffffffffffffffffffffffffffffffffffff1681526020019081526020016000206040518060400160405290816000820160009054906101000a90046fffffffffffffffffffffffffffffffff166fffffffffffffffffffffffffffffffff166fffffffffffffffffffffffffffffffff1681526020016000820160109054906101000a90046fffffffffffffffffffffffffffffffff166fffffffffffffffffffffffffffffffff166fffffffffffffffffffffffffffffffff168152505090506040518060400160405280858360000151620009a4919062001693565b6fffffffffffffffffffffffffffffffff168152602001858360200151620009cd919062001693565b6fffffffffffffffffffffffffffffffff16815250600560008773ffffffffffffffffffffffffffffffffffffffff1673ffffffffffffffffffffffffffffffffffffffff16815260200190815260200160002060008201518160000160006101000a8154816fffffffffffffffffffffffffffffffff02191690836fffffffffffffffffffffffffffffffff16021790555060208201518160000160106101000a8154816fffffffffffffffffffffffffffffffff02191690836fffffffffffffffffffffffffffffffff16021790555090505060405180604001604052808673ffffffffffffffffffffffffffffffffffffffff1681526020014267ffffffffffffffff168152506004600084815260200190815260200160002060008201518160000160006101000a81548173ffffffffffffffffffffffffffffffffffffffff021916908373ffffffffffffffffffffffffffffffffffffffff16021790555060208201518160000160146101000a81548167ffffffffffffffff021916908367ffffffffffffffff160217905550905050600082905060005b8581101562000c4d57818773ffffffffffffffffffffffffffffffffffffffff16600073ffffffffffffffffffffffffffffffffffffffff167fddf252ad1be2c89b69c2b068fc378daa952ba7f163c4a11628f55a4df523b3ef60405160405180910390a462000be5600088848862000c8660201b60201c565b62000c27576040517f08c379a000000000000000000000000000000000000000000000000000000000815260040162000c1e9062001756565b60405180910390fd5b818062000c349062001487565b925050808062000c449062001487565b91505062000b6b565b508060018190555062000c6a600087858862000e4060201b60201c565b505050505050565b600060015482109050919050565b50505050565b600062000cb48473ffffffffffffffffffffffffffffffffffffffff1662000e4660201b620020051760201c565b1562000e33578373ffffffffffffffffffffffffffffffffffffffff1663150b7a0262000ce6620003b560201b60201c565b8786866040518563ffffffff1660e01b815260040162000d0a94939291906200182b565b602060405180830381600087803b15801562000d2557600080fd5b505af192505050801562000d5957506040513d601f19601f8201168201806040525081019062000d569190620018dc565b60015b62000de2573d806000811462000d8c576040519150601f19603f3d011682016040523d82523d6000602084013e62000d91565b606091505b5060008151141562000dda576040517f08c379a000000000000000000000000000000000000000000000000000000000815260040162000dd19062001756565b60405180910390fd5b805181602001fd5b63150b7a0260e01b7bffffffffffffffffffffffffffffffffffffffffffffffffffffffff1916817bffffffffffffffffffffffffffffffffffffffffffffffffffffffff19161491505062000e38565b600190505b949350505050565b50505050565b600080823b905060008111915050919050565b82805462000e67906200193d565b90600052602060002090601f01602090048101928262000e8b576000855562000ed7565b82601f1062000ea657805160ff191683800117855562000ed7565b8280016001018555821562000ed7579182015b8281111562000ed657825182559160200191906001019062000eb9565b5b50905062000ee6919062000eea565b5090565b5b8082111562000f0557600081600090555060010162000eeb565b5090565b6000604051905090565b600080fd5b600080fd5b6000819050919050565b62000f328162000f1d565b811462000f3e57600080fd5b50565b60008151905062000f528162000f27565b92915050565b600080fd5b600080fd5b6000601f19601f8301169050919050565b7f4e487b7100000000000000000000000000000000000000000000000000000000600052604160045260246000fd5b62000fad8262000f62565b810181811067ffffffffffffffff8211171562000fcf5762000fce62000f73565b5b80604052505050565b600062000fe462000f09565b905062000ff2828262000fa2565b919050565b600067ffffffffffffffff82111562001015576200101462000f73565b5b620010208262000f62565b9050602081019050919050565b60005b838110156200104d57808201518184015260208101905062001030565b838111156200105d576000848401525b50505050565b60006200107a620010748462000ff7565b62000fd8565b90508281526020810184848401111562001099576200109862000f5d565b5b620010a68482856200102d565b509392505050565b600082601f830112620010c657620010c562000f58565b5b8151620010d884826020860162001063565b91505092915050565b600080600080600060a086880312156200110057620010ff62000f13565b5b6000620011108882890162000f41565b9550506020620011238882890162000f41565b9450506040620011368882890162000f41565b935050606086015167ffffffffffffffff8111156200115a576200115962000f18565b5b6200116888828901620010ae565b925050608086015167ffffffffffffffff8111156200118c576200118b62000f18565b5b6200119a88828901620010ae565b9150509295509295909350565b600082825260208201905092915050565b7f455243373231413a20636f6c6c656374696f6e206d757374206861766520612060008201527f6e6f6e7a65726f20737570706c79000000000000000000000000000000000000602082015250565b600062001216602e83620011a7565b91506200122382620011b8565b604082019050919050565b60006020820190508181036000830152620012498162001207565b9050919050565b7f455243373231413a206d61782062617463682073697a65206d7573742062652060008201527f6e6f6e7a65726f00000000000000000000000000000000000000000000000000602082015250565b6000620012ae602783620011a7565b9150620012bb8262001250565b604082019050919050565b60006020820190508181036000830152620012e1816200129f565b9050919050565b7f4e487b7100000000000000000000000000000000000000000000000000000000600052603260045260246000fd5b7f4f776e61626c653a2063616c6c6572206973206e6f7420746865206f776e6572600082015250565b60006200134f602083620011a7565b91506200135c8262001317565b602082019050919050565b60006020820190508181036000830152620013828162001340565b9050919050565b7f4e487b7100000000000000000000000000000000000000000000000000000000600052601160045260246000fd5b6000620013c58262000f1d565b9150620013d28362000f1d565b9250827fffffffffffffffffffffffffffffffffffffffffffffffffffffffffffffffff038211156200140a576200140962001389565b5b828201905092915050565b7f4578636565646564206d617820737570706c7900000000000000000000000000600082015250565b60006200144d601383620011a7565b91506200145a8262001415565b602082019050919050565b6000602082019050818103600083015262001480816200143e565b9050919050565b6000620014948262000f1d565b91507fffffffffffffffffffffffffffffffffffffffffffffffffffffffffffffffff821415620014ca57620014c962001389565b5b600182019050919050565b7f455243373231413a206d696e7420746f20746865207a65726f2061646472657360008201527f7300000000000000000000000000000000000000000000000000000000000000602082015250565b600062001533602183620011a7565b91506200154082620014d5565b604082019050919050565b60006020820190508181036000830152620015668162001524565b9050919050565b7f455243373231413a20746f6b656e20616c7265616479206d696e746564000000600082015250565b6000620015a5601d83620011a7565b9150620015b2826200156d565b602082019050919050565b60006020820190508181036000830152620015d88162001596565b9050919050565b7f455243373231413a207175616e7469747920746f206d696e7420746f6f20686960008201527f6768000000000000000000000000000000000000000000000000000000000000602082015250565b60006200163d602283620011a7565b91506200164a82620015df565b604082019050919050565b6000602082019050818103600083015262001670816200162e565b9050919050565b60006fffffffffffffffffffffffffffffffff82169050919050565b6000620016a08262001677565b9150620016ad8362001677565b9250826fffffffffffffffffffffffffffffffff03821115620016d557620016d462001389565b5b828201905092915050565b7f455243373231413a207472616e7366657220746f206e6f6e204552433732315260008201527f6563656976657220696d706c656d656e74657200000000000000000000000000602082015250565b60006200173e603383620011a7565b91506200174b82620016e0565b604082019050919050565b6000602082019050818103600083015262001771816200172f565b9050919050565b600073ffffffffffffffffffffffffffffffffffffffff82169050919050565b6000620017a58262001778565b9050919050565b620017b78162001798565b82525050565b620017c88162000f1d565b82525050565b600081519050919050565b600082825260208201905092915050565b6000620017f782620017ce565b620018038185620017d9565b9350620018158185602086016200102d565b620018208162000f62565b840191505092915050565b6000608082019050620018426000830187620017ac565b620018516020830186620017ac565b620018606040830185620017bd565b8181036060830152620018748184620017ea565b905095945050505050565b60007fffffffff0000000000000000000000000000000000000000000000000000000082169050919050565b620018b6816200187f565b8114620018c257600080fd5b50565b600081519050620018d681620018ab565b92915050565b600060208284031215620018f557620018f462000f13565b5b60006200190584828501620018c5565b91505092915050565b7f4e487b7100000000000000000000000000000000000000000000000000000000600052602260045260246000fd5b600060028204905060018216806200195657607f821691505b602082108114156200196d576200196c6200190e565b5b50919050565b60805160a05160c05160e0516153b1620019de6000396000818161191e0152611a990152600081816119be0152611c880152600081816129e501528181612a0e015261316f01526000818161193f01528181611d280152818161276d01526127a101526153b16000f3fe6080604052600436106101f95760003560e01c806370a082311161010d578063b88d4fde116100a0578063e686801e1161006f578063e686801e14610736578063e9566bf614610761578063e985e9c51461078a578063f2c4ce1e146107c7578063f2fde38b146107f0576101f9565b8063b88d4fde14610668578063c87b56dd14610691578063d7224ba0146106ce578063dc33e681146106f9576101f9565b806395d89b41116100dc57806395d89b41146105cd578063a22cb465146105f8578063b3ab66b014610621578063b5148d431461063d576101f9565b806370a0823114610511578063715018a61461054e5780638da5cb5b146105655780639231ab2a14610590576101f9565b80632f745c59116101905780634f6ccce71161015f5780634f6ccce71461042e57806355f804b31461046b5780635aca1bb6146104945780635fd8c710146104bd5780636352211e146104d4576101f9565b80632f745c591461037457806340d0b4a9146103b157806342842e0e146103c85780634d388a98146103f1576101f9565b8063095ea7b3116101cc578063095ea7b3146102ce57806318160ddd146102f757806323b872dd146103225780632d20fb601461034b576101f9565b806301ffc9a7146101fe57806306fdde031461023b578063081812fc14610266578063081c8c44146102a3575b600080fd5b34801561020a57600080fd5b50610225600480360381019061022091906136d6565b610819565b604051610232919061371e565b60405180910390f35b34801561024757600080fd5b50610250610963565b60405161025d91906137d2565b60405180910390f35b34801561027257600080fd5b5061028d6004803603810190610288919061382a565b6109f5565b60405161029a9190613898565b60405180910390f35b3480156102af57600080fd5b506102b8610a7a565b6040516102c591906137d2565b60405180910390f35b3480156102da57600080fd5b506102f560048036038101906102f091906138df565b610b08565b005b34801561030357600080fd5b5061030c610c21565b604051610319919061392e565b60405180910390f35b34801561032e57600080fd5b5061034960048036038101906103449190613949565b610c2b565b005b34801561035757600080fd5b50610372600480360381019061036d919061382a565b610c3b565b005b34801561038057600080fd5b5061039b600480360381019061039691906138df565b610d19565b6040516103a8919061392e565b60405180910390f35b3480156103bd57600080fd5b506103c6610f17565b005b3480156103d457600080fd5b506103ef60048036038101906103ea9190613949565b610fb0565b005b3480156103fd57600080fd5b506104186004803603810190610413919061399c565b610fd0565b604051610425919061392e565b60405180910390f35b34801561043a57600080fd5b506104556004803603810190610450919061382a565b6110b9565b604051610462919061392e565b60405180910390f35b34801561047757600080fd5b50610492600480360381019061048d9190613afe565b61110c565b005b3480156104a057600080fd5b506104bb60048036038101906104b69190613b73565b6111a2565b005b3480156104c957600080fd5b506104d261123b565b005b3480156104e057600080fd5b506104fb60048036038101906104f6919061382a565b611478565b6040516105089190613898565b60405180910390f35b34801561051d57600080fd5b506105386004803603810190610533919061399c565b61148e565b604051610545919061392e565b60405180910390f35b34801561055a57600080fd5b50610563611577565b005b34801561057157600080fd5b5061057a6115ff565b6040516105879190613898565b60405180910390f35b34801561059c57600080fd5b506105b760048036038101906105b2919061382a565b611628565b6040516105c49190613c01565b60405180910390f35b3480156105d957600080fd5b506105e2611640565b6040516105ef91906137d2565b60405180910390f35b34801561060457600080fd5b5061061f600480360381019061061a9190613c1c565b6116d2565b005b61063b6004803603810190610636919061382a565b611853565b005b34801561064957600080fd5b50610652611a97565b60405161065f919061392e565b60405180910390f35b34801561067457600080fd5b5061068f600480360381019061068a9190613cfd565b611abb565b005b34801561069d57600080fd5b506106b860048036038101906106b3919061382a565b611b17565b6040516106c591906137d2565b60405180910390f35b3480156106da57600080fd5b506106e3611c6e565b6040516106f0919061392e565b60405180910390f35b34801561070557600080fd5b50610720600480360381019061071b919061399c565b611c74565b60405161072d919061392e565b60405180910390f35b34801561074257600080fd5b5061074b611c86565b604051610758919061392e565b60405180910390f35b34801561076d57600080fd5b5061078860048036038101906107839190613e48565b611caa565b005b34801561079657600080fd5b506107b160048036038101906107ac9190613ea4565b611de3565b6040516107be919061371e565b60405180910390f35b3480156107d357600080fd5b506107ee60048036038101906107e99190613afe565b611e77565b005b3480156107fc57600080fd5b506108176004803603810190610812919061399c565b611f0d565b005b60007f80ac58cd000000000000000000000000000000000000000000000000000000007bffffffffffffffffffffffffffffffffffffffffffffffffffffffff1916827bffffffffffffffffffffffffffffffffffffffffffffffffffffffff191614806108e457507f5b5e139f000000000000000000000000000000000000000000000000000000007bffffffffffffffffffffffffffffffffffffffffffffffffffffffff1916827bffffffffffffffffffffffffffffffffffffffffffffffffffffffff1916145b8061094c57507f780e9d63000000000000000000000000000000000000000000000000000000007bffffffffffffffffffffffffffffffffffffffffffffffffffffffff1916827bffffffffffffffffffffffffffffffffffffffffffffffffffffffff1916145b8061095c575061095b82612018565b5b9050919050565b60606002805461097290613f13565b80601f016020809104026020016040519081016040528092919081815260200182805461099e90613f13565b80156109eb5780601f106109c0576101008083540402835291602001916109eb565b820191906000526020600020905b8154815290600101906020018083116109ce57829003601f168201915b5050505050905090565b6000610a0082612082565b610a3f576040517f08c379a0000000000000000000000000000000000000000000000000000000008152600401610a3690613fb7565b60405180910390fd5b6006600083815260200190815260200160002060009054906101000a900473ffffffffffffffffffffffffffffffffffffffff169050919050565b600b8054610a8790613f13565b80601f0160208091040260200160405190810160405280929190818152602001828054610ab390613f13565b8015610b005780601f10610ad557610100808354040283529160200191610b00565b820191906000526020600020905b815481529060010190602001808311610ae357829003601f168201915b505050505081565b6000610b1382611478565b90508073ffffffffffffffffffffffffffffffffffffffff168373ffffffffffffffffffffffffffffffffffffffff161415610b84576040517f08c379a0000000000000000000000000000000000000000000000000000000008152600401610b7b90614049565b60405180910390fd5b8073ffffffffffffffffffffffffffffffffffffffff16610ba3612090565b73ffffffffffffffffffffffffffffffffffffffff161480610bd25750610bd181610bcc612090565b611de3565b5b610c11576040517f08c379a0000000000000000000000000000000000000000000000000000000008152600401610c08906140db565b60405180910390fd5b610c1c838383612098565b505050565b6000600154905090565b610c3683838361214a565b505050565b610c43612090565b73ffffffffffffffffffffffffffffffffffffffff16610c616115ff565b73ffffffffffffffffffffffffffffffffffffffff1614610cb7576040517f08c379a0000000000000000000000000000000000000000000000000000000008152600401610cae90614147565b60405180910390fd5b60026009541415610cfd576040517f08c379a0000000000000000000000000000000000000000000000000000000008152600401610cf4906141b3565b60405180910390fd5b6002600981905550610d0e81612703565b600160098190555050565b6000610d248361148e565b8210610d65576040517f08c379a0000000000000000000000000000000000000000000000000000000008152600401610d5c90614245565b60405180910390fd5b6000610d6f610c21565b905060008060005b83811015610ed5576000600460008381526020019081526020016000206040518060400160405290816000820160009054906101000a900473ffffffffffffffffffffffffffffffffffffffff1673ffffffffffffffffffffffffffffffffffffffff1673ffffffffffffffffffffffffffffffffffffffff1681526020016000820160149054906101000a900467ffffffffffffffff1667ffffffffffffffff1667ffffffffffffffff16815250509050600073ffffffffffffffffffffffffffffffffffffffff16816000015173ffffffffffffffffffffffffffffffffffffffff1614610e6957806000015192505b8773ffffffffffffffffffffffffffffffffffffffff168373ffffffffffffffffffffffffffffffffffffffff161415610ec15786841415610eb2578195505050505050610f11565b8380610ebd90614294565b9450505b508080610ecd90614294565b915050610d77565b506040517f08c379a0000000000000000000000000000000000000000000000000000000008152600401610f089061434f565b60405180910390fd5b92915050565b610f1f612090565b73ffffffffffffffffffffffffffffffffffffffff16610f3d6115ff565b73ffffffffffffffffffffffffffffffffffffffff1614610f93576040517f08c379a0000000000000000000000000000000000000000000000000000000008152600401610f8a90614147565b60405180910390fd5b6001600a60006101000a81548160ff021916908315150217905550565b610fcb83838360405180602001604052806000815250611abb565b505050565b60008073ffffffffffffffffffffffffffffffffffffffff168273ffffffffffffffffffffffffffffffffffffffff161415611041576040517f08c379a0000000000000000000000000000000000000000000000000000000008152600401611038906143e1565b60405180910390fd5b600560008373ffffffffffffffffffffffffffffffffffffffff1673ffffffffffffffffffffffffffffffffffffffff16815260200190815260200160002060000160109054906101000a90046fffffffffffffffffffffffffffffffff166fffffffffffffffffffffffffffffffff169050919050565b60006110c3610c21565b8210611104576040517f08c379a00000000000000000000000000000000000000000000000000000000081526004016110fb90614473565b60405180910390fd5b819050919050565b611114612090565b73ffffffffffffffffffffffffffffffffffffffff166111326115ff565b73ffffffffffffffffffffffffffffffffffffffff1614611188576040517f08c379a000000000000000000000000000000000000000000000000000000000815260040161117f90614147565b60405180910390fd5b80600c908051906020019061119e92919061358d565b5050565b6111aa612090565b73ffffffffffffffffffffffffffffffffffffffff166111c86115ff565b73ffffffffffffffffffffffffffffffffffffffff161461121e576040517f08c379a000000000000000000000000000000000000000000000000000000000815260040161121590614147565b60405180910390fd5b80600a60016101000a81548160ff02191690831515021790555050565b611243612090565b73ffffffffffffffffffffffffffffffffffffffff166112616115ff565b73ffffffffffffffffffffffffffffffffffffffff16146112b7576040517f08c379a00000000000000000000000000000000000000000000000000000000081526004016112ae90614147565b60405180910390fd5b600060646021476112c89190614493565b6112d2919061451c565b9050600073d61adc48afe9402b4411805ce6026ef74f94e71373ffffffffffffffffffffffffffffffffffffffff168260405161130e9061457e565b60006040518083038185875af1925050503d806000811461134b576040519150601f19603f3d011682016040523d82523d6000602084013e611350565b606091505b505090508061135e57600080fd5b600073e3ce04b3bcbdfa219407870ca617e18fbf503f2873ffffffffffffffffffffffffffffffffffffffff16836040516113989061457e565b60006040518083038185875af1925050503d80600081146113d5576040519150601f19603f3d011682016040523d82523d6000602084013e6113da565b606091505b50509050806113e857600080fd5b6000737638ac632c177bb6eb88826065eb62b878f9375473ffffffffffffffffffffffffffffffffffffffff16476040516114229061457e565b60006040518083038185875af1925050503d806000811461145f576040519150601f19603f3d011682016040523d82523d6000602084013e611464565b606091505b505090508061147257600080fd5b50505050565b600061148382612991565b600001519050919050565b60008073ffffffffffffffffffffffffffffffffffffffff168273ffffffffffffffffffffffffffffffffffffffff1614156114ff576040517f08c379a00000000000000000000000000000000000000000000000000000000081526004016114f690614605565b60405180910390fd5b600560008373ffffffffffffffffffffffffffffffffffffffff1673ffffffffffffffffffffffffffffffffffffffff16815260200190815260200160002060000160009054906101000a90046fffffffffffffffffffffffffffffffff166fffffffffffffffffffffffffffffffff169050919050565b61157f612090565b73ffffffffffffffffffffffffffffffffffffffff1661159d6115ff565b73ffffffffffffffffffffffffffffffffffffffff16146115f3576040517f08c379a00000000000000000000000000000000000000000000000000000000081526004016115ea90614147565b60405180910390fd5b6115fd6000612b94565b565b60008060009054906101000a900473ffffffffffffffffffffffffffffffffffffffff16905090565b611630613613565b61163982612991565b9050919050565b60606003805461164f90613f13565b80601f016020809104026020016040519081016040528092919081815260200182805461167b90613f13565b80156116c85780601f1061169d576101008083540402835291602001916116c8565b820191906000526020600020905b8154815290600101906020018083116116ab57829003601f168201915b5050505050905090565b6116da612090565b73ffffffffffffffffffffffffffffffffffffffff168273ffffffffffffffffffffffffffffffffffffffff161415611748576040517f08c379a000000000000000000000000000000000000000000000000000000000815260040161173f90614671565b60405180910390fd5b8060076000611755612090565b73ffffffffffffffffffffffffffffffffffffffff1673ffffffffffffffffffffffffffffffffffffffff16815260200190815260200160002060008473ffffffffffffffffffffffffffffffffffffffff1673ffffffffffffffffffffffffffffffffffffffff16815260200190815260200160002060006101000a81548160ff0219169083151502179055508173ffffffffffffffffffffffffffffffffffffffff16611802612090565b73ffffffffffffffffffffffffffffffffffffffff167f17307eab39ab6107e8899845ad3d59bd9653f200f220920489ca2b5937696c3183604051611847919061371e565b60405180910390a35050565b3373ffffffffffffffffffffffffffffffffffffffff163273ffffffffffffffffffffffffffffffffffffffff16146118c1576040517f08c379a00000000000000000000000000000000000000000000000000000000081526004016118b8906146dd565b60405180910390fd5b6000665543df729c00009050600a60019054906101000a900460ff1661191c576040517f08c379a000000000000000000000000000000000000000000000000000000000815260040161191390614749565b60405180910390fd5b7f00000000000000000000000000000000000000000000000000000000000000007f00000000000000000000000000000000000000000000000000000000000000006119689190614769565b82611971610c21565b61197b919061479d565b11156119bc576040517f08c379a00000000000000000000000000000000000000000000000000000000081526004016119b39061483f565b60405180910390fd5b7f0000000000000000000000000000000000000000000000000000000000000000826119e733611c74565b6119f1919061479d565b1115611a32576040517f08c379a0000000000000000000000000000000000000000000000000000000008152600401611a29906148ab565b60405180910390fd5b80341015611a75576040517f08c379a0000000000000000000000000000000000000000000000000000000008152600401611a6c90614917565b60405180910390fd5b611a7f3383612c58565b611a938282611a8e9190614493565b612c76565b5050565b7f000000000000000000000000000000000000000000000000000000000000000081565b611ac684848461214a565b611ad284848484612d17565b611b11576040517f08c379a0000000000000000000000000000000000000000000000000000000008152600401611b08906149a9565b60405180910390fd5b50505050565b6060611b2282612082565b611b61576040517f08c379a0000000000000000000000000000000000000000000000000000000008152600401611b5890614a3b565b60405180910390fd5b6000611b6b612eae565b905060011515600a60009054906101000a900460ff1615151415611bda576000815111611ba75760405180602001604052806000815250611bd2565b80611bb184612f40565b604051602001611bc2929190614ae3565b6040516020818303038152906040525b915050611c69565b600b8054611be790613f13565b80601f0160208091040260200160405190810160405280929190818152602001828054611c1390613f13565b8015611c605780601f10611c3557610100808354040283529160200191611c60565b820191906000526020600020905b815481529060010190602001808311611c4357829003601f168201915b50505050509150505b919050565b60085481565b6000611c7f82610fd0565b9050919050565b7f000000000000000000000000000000000000000000000000000000000000000081565b611cb2612090565b73ffffffffffffffffffffffffffffffffffffffff16611cd06115ff565b73ffffffffffffffffffffffffffffffffffffffff1614611d26576040517f08c379a0000000000000000000000000000000000000000000000000000000008152600401611d1d90614147565b60405180910390fd5b7f000000000000000000000000000000000000000000000000000000000000000081611d50610c21565b611d5a919061479d565b1115611d9b576040517f08c379a0000000000000000000000000000000000000000000000000000000008152600401611d9290614b5e565b60405180910390fd5b60005b8251811015611dde57611dcb838281518110611dbd57611dbc614b7e565b5b602002602001015183612c58565b8080611dd690614294565b915050611d9e565b505050565b6000600760008473ffffffffffffffffffffffffffffffffffffffff1673ffffffffffffffffffffffffffffffffffffffff16815260200190815260200160002060008373ffffffffffffffffffffffffffffffffffffffff1673ffffffffffffffffffffffffffffffffffffffff16815260200190815260200160002060009054906101000a900460ff16905092915050565b611e7f612090565b73ffffffffffffffffffffffffffffffffffffffff16611e9d6115ff565b73ffffffffffffffffffffffffffffffffffffffff1614611ef3576040517f08c379a0000000000000000000000000000000000000000000000000000000008152600401611eea90614147565b60405180910390fd5b80600b9080519060200190611f0992919061358d565b5050565b611f15612090565b73ffffffffffffffffffffffffffffffffffffffff16611f336115ff565b73ffffffffffffffffffffffffffffffffffffffff1614611f89576040517f08c379a0000000000000000000000000000000000000000000000000000000008152600401611f8090614147565b60405180910390fd5b600073ffffffffffffffffffffffffffffffffffffffff168173ffffffffffffffffffffffffffffffffffffffff161415611ff9576040517f08c379a0000000000000000000000000000000000000000000000000000000008152600401611ff090614c1f565b60405180910390fd5b61200281612b94565b50565b600080823b905060008111915050919050565b60007f01ffc9a7000000000000000000000000000000000000000000000000000000007bffffffffffffffffffffffffffffffffffffffffffffffffffffffff1916827bffffffffffffffffffffffffffffffffffffffffffffffffffffffff1916149050919050565b600060015482109050919050565b600033905090565b826006600084815260200190815260200160002060006101000a81548173ffffffffffffffffffffffffffffffffffffffff021916908373ffffffffffffffffffffffffffffffffffffffff160217905550818373ffffffffffffffffffffffffffffffffffffffff168273ffffffffffffffffffffffffffffffffffffffff167f8c5be1e5ebec7d5bd14f71427d1e84f3dd0314c0f7b2291e5b200ac8c7c3b92560405160405180910390a4505050565b600061215582612991565b90506000816000015173ffffffffffffffffffffffffffffffffffffffff1661217c612090565b73ffffffffffffffffffffffffffffffffffffffff1614806121d857506121a1612090565b73ffffffffffffffffffffffffffffffffffffffff166121c0846109f5565b73ffffffffffffffffffffffffffffffffffffffff16145b806121f457506121f382600001516121ee612090565b611de3565b5b905080612236576040517f08c379a000000000000000000000000000000000000000000000000000000000815260040161222d90614cb1565b60405180910390fd5b8473ffffffffffffffffffffffffffffffffffffffff16826000015173ffffffffffffffffffffffffffffffffffffffff16146122a8576040517f08c379a000000000000000000000000000000000000000000000000000000000815260040161229f90614d43565b60405180910390fd5b600073ffffffffffffffffffffffffffffffffffffffff168473ffffffffffffffffffffffffffffffffffffffff161415612318576040517f08c379a000000000000000000000000000000000000000000000000000000000815260040161230f90614dd5565b60405180910390fd5b61232585858560016130a1565b6123356000848460000151612098565b6001600560008773ffffffffffffffffffffffffffffffffffffffff1673ffffffffffffffffffffffffffffffffffffffff16815260200190815260200160002060000160008282829054906101000a90046fffffffffffffffffffffffffffffffff166123a39190614e11565b92506101000a8154816fffffffffffffffffffffffffffffffff02191690836fffffffffffffffffffffffffffffffff1602179055506001600560008673ffffffffffffffffffffffffffffffffffffffff1673ffffffffffffffffffffffffffffffffffffffff16815260200190815260200160002060000160008282829054906101000a90046fffffffffffffffffffffffffffffffff166124479190614e45565b92506101000a8154816fffffffffffffffffffffffffffffffff02191690836fffffffffffffffffffffffffffffffff16021790555060405180604001604052808573ffffffffffffffffffffffffffffffffffffffff1681526020014267ffffffffffffffff168152506004600085815260200190815260200160002060008201518160000160006101000a81548173ffffffffffffffffffffffffffffffffffffffff021916908373ffffffffffffffffffffffffffffffffffffffff16021790555060208201518160000160146101000a81548167ffffffffffffffff021916908367ffffffffffffffff160217905550905050600060018461254d919061479d565b9050600073ffffffffffffffffffffffffffffffffffffffff166004600083815260200190815260200160002060000160009054906101000a900473ffffffffffffffffffffffffffffffffffffffff1673ffffffffffffffffffffffffffffffffffffffff161415612693576125c381612082565b15612692576040518060400160405280846000015173ffffffffffffffffffffffffffffffffffffffff168152602001846020015167ffffffffffffffff168152506004600083815260200190815260200160002060008201518160000160006101000a81548173ffffffffffffffffffffffffffffffffffffffff021916908373ffffffffffffffffffffffffffffffffffffffff16021790555060208201518160000160146101000a81548167ffffffffffffffff021916908367ffffffffffffffff1602179055509050505b5b838573ffffffffffffffffffffffffffffffffffffffff168773ffffffffffffffffffffffffffffffffffffffff167fddf252ad1be2c89b69c2b068fc378daa952ba7f163c4a11628f55a4df523b3ef60405160405180910390a46126fb86868660016130a7565b505050505050565b600060085490506000821161274d576040517f08c379a000000000000000000000000000000000000000000000000000000000815260040161274490614ed7565b60405180910390fd5b60006001838361275d919061479d565b6127679190614769565b905060017f00000000000000000000000000000000000000000000000000000000000000006127969190614769565b8111156127cd5760017f00000000000000000000000000000000000000000000000000000000000000006127ca9190614769565b90505b6127d681612082565b612815576040517f08c379a000000000000000000000000000000000000000000000000000000000815260040161280c90614f69565b60405180910390fd5b60008290505b81811161297857600073ffffffffffffffffffffffffffffffffffffffff166004600083815260200190815260200160002060000160009054906101000a900473ffffffffffffffffffffffffffffffffffffffff1673ffffffffffffffffffffffffffffffffffffffff16141561296557600061289882612991565b90506040518060400160405280826000015173ffffffffffffffffffffffffffffffffffffffff168152602001826020015167ffffffffffffffff168152506004600084815260200190815260200160002060008201518160000160006101000a81548173ffffffffffffffffffffffffffffffffffffffff021916908373ffffffffffffffffffffffffffffffffffffffff16021790555060208201518160000160146101000a81548167ffffffffffffffff021916908367ffffffffffffffff160217905550905050505b808061297090614294565b91505061281b565b50600181612986919061479d565b600881905550505050565b612999613613565b6129a282612082565b6129e1576040517f08c379a00000000000000000000000000000000000000000000000000000000081526004016129d890614ffb565b60405180910390fd5b60007f00000000000000000000000000000000000000000000000000000000000000008310612a455760017f000000000000000000000000000000000000000000000000000000000000000084612a389190614769565b612a42919061479d565b90505b60008390505b818110612b53576000600460008381526020019081526020016000206040518060400160405290816000820160009054906101000a900473ffffffffffffffffffffffffffffffffffffffff1673ffffffffffffffffffffffffffffffffffffffff1673ffffffffffffffffffffffffffffffffffffffff1681526020016000820160149054906101000a900467ffffffffffffffff1667ffffffffffffffff1667ffffffffffffffff16815250509050600073ffffffffffffffffffffffffffffffffffffffff16816000015173ffffffffffffffffffffffffffffffffffffffff1614612b3f57809350505050612b8f565b508080612b4b9061501b565b915050612a4b565b506040517f08c379a0000000000000000000000000000000000000000000000000000000008152600401612b86906150b7565b60405180910390fd5b919050565b60008060009054906101000a900473ffffffffffffffffffffffffffffffffffffffff169050816000806101000a81548173ffffffffffffffffffffffffffffffffffffffff021916908373ffffffffffffffffffffffffffffffffffffffff1602179055508173ffffffffffffffffffffffffffffffffffffffff168173ffffffffffffffffffffffffffffffffffffffff167f8be0079c531659141344cd1fd0a4f28419497f9722a3daafe3b4186f6b6457e060405160405180910390a35050565b612c728282604051806020016040528060008152506130ad565b5050565b80341015612cb9576040517f08c379a0000000000000000000000000000000000000000000000000000000008152600401612cb090614917565b60405180910390fd5b80341115612d14573373ffffffffffffffffffffffffffffffffffffffff166108fc8234612ce79190614769565b9081150290604051600060405180830381858888f19350505050158015612d12573d6000803e3d6000fd5b505b50565b6000612d388473ffffffffffffffffffffffffffffffffffffffff16612005565b15612ea1578373ffffffffffffffffffffffffffffffffffffffff1663150b7a02612d61612090565b8786866040518563ffffffff1660e01b8152600401612d83949392919061512c565b602060405180830381600087803b158015612d9d57600080fd5b505af1925050508015612dce57506040513d601f19601f82011682018060405250810190612dcb919061518d565b60015b612e51573d8060008114612dfe576040519150601f19603f3d011682016040523d82523d6000602084013e612e03565b606091505b50600081511415612e49576040517f08c379a0000000000000000000000000000000000000000000000000000000008152600401612e40906149a9565b60405180910390fd5b805181602001fd5b63150b7a0260e01b7bffffffffffffffffffffffffffffffffffffffffffffffffffffffff1916817bffffffffffffffffffffffffffffffffffffffffffffffffffffffff191614915050612ea6565b600190505b949350505050565b6060600c8054612ebd90613f13565b80601f0160208091040260200160405190810160405280929190818152602001828054612ee990613f13565b8015612f365780601f10612f0b57610100808354040283529160200191612f36565b820191906000526020600020905b815481529060010190602001808311612f1957829003601f168201915b5050505050905090565b60606000821415612f88576040518060400160405280600181526020017f3000000000000000000000000000000000000000000000000000000000000000815250905061309c565b600082905060005b60008214612fba578080612fa390614294565b915050600a82612fb3919061451c565b9150612f90565b60008167ffffffffffffffff811115612fd657612fd56139d3565b5b6040519080825280601f01601f1916602001820160405280156130085781602001600182028036833780820191505090505b5090505b60008514613095576001826130219190614769565b9150600a8561303091906151ba565b603061303c919061479d565b60f81b81838151811061305257613051614b7e565b5b60200101907effffffffffffffffffffffffffffffffffffffffffffffffffffffffffffff1916908160001a905350600a8561308e919061451c565b945061300c565b8093505050505b919050565b50505050565b50505050565b60006001549050600073ffffffffffffffffffffffffffffffffffffffff168473ffffffffffffffffffffffffffffffffffffffff161415613124576040517f08c379a000000000000000000000000000000000000000000000000000000000815260040161311b9061525d565b60405180910390fd5b61312d81612082565b1561316d576040517f08c379a0000000000000000000000000000000000000000000000000000000008152600401613164906152c9565b60405180910390fd5b7f00000000000000000000000000000000000000000000000000000000000000008311156131d0576040517f08c379a00000000000000000000000000000000000000000000000000000000081526004016131c79061535b565b60405180910390fd5b6131dd60008583866130a1565b6000600560008673ffffffffffffffffffffffffffffffffffffffff1673ffffffffffffffffffffffffffffffffffffffff1681526020019081526020016000206040518060400160405290816000820160009054906101000a90046fffffffffffffffffffffffffffffffff166fffffffffffffffffffffffffffffffff166fffffffffffffffffffffffffffffffff1681526020016000820160109054906101000a90046fffffffffffffffffffffffffffffffff166fffffffffffffffffffffffffffffffff166fffffffffffffffffffffffffffffffff1681525050905060405180604001604052808583600001516132da9190614e45565b6fffffffffffffffffffffffffffffffff1681526020018583602001516133019190614e45565b6fffffffffffffffffffffffffffffffff16815250600560008773ffffffffffffffffffffffffffffffffffffffff1673ffffffffffffffffffffffffffffffffffffffff16815260200190815260200160002060008201518160000160006101000a8154816fffffffffffffffffffffffffffffffff02191690836fffffffffffffffffffffffffffffffff16021790555060208201518160000160106101000a8154816fffffffffffffffffffffffffffffffff02191690836fffffffffffffffffffffffffffffffff16021790555090505060405180604001604052808673ffffffffffffffffffffffffffffffffffffffff1681526020014267ffffffffffffffff168152506004600084815260200190815260200160002060008201518160000160006101000a81548173ffffffffffffffffffffffffffffffffffffffff021916908373ffffffffffffffffffffffffffffffffffffffff16021790555060208201518160000160146101000a81548167ffffffffffffffff021916908367ffffffffffffffff160217905550905050600082905060005b8581101561357057818773ffffffffffffffffffffffffffffffffffffffff16600073ffffffffffffffffffffffffffffffffffffffff167fddf252ad1be2c89b69c2b068fc378daa952ba7f163c4a11628f55a4df523b3ef60405160405180910390a46135106000888488612d17565b61354f576040517f08c379a0000000000000000000000000000000000000000000000000000000008152600401613546906149a9565b60405180910390fd5b818061355a90614294565b925050808061356890614294565b91505061349f565b508060018190555061358560008785886130a7565b505050505050565b82805461359990613f13565b90600052602060002090601f0160209004810192826135bb5760008555613602565b82601f106135d457805160ff1916838001178555613602565b82800160010185558215613602579182015b828111156136015782518255916020019190600101906135e6565b5b50905061360f919061364d565b5090565b6040518060400160405280600073ffffffffffffffffffffffffffffffffffffffff168152602001600067ffffffffffffffff1681525090565b5b8082111561366657600081600090555060010161364e565b5090565b6000604051905090565b600080fd5b600080fd5b60007fffffffff0000000000000000000000000000000000000000000000000000000082169050919050565b6136b38161367e565b81146136be57600080fd5b50565b6000813590506136d0816136aa565b92915050565b6000602082840312156136ec576136eb613674565b5b60006136fa848285016136c1565b91505092915050565b60008115159050919050565b61371881613703565b82525050565b6000602082019050613733600083018461370f565b92915050565b600081519050919050565b600082825260208201905092915050565b60005b83811015613773578082015181840152602081019050613758565b83811115613782576000848401525b50505050565b6000601f19601f8301169050919050565b60006137a482613739565b6137ae8185613744565b93506137be818560208601613755565b6137c781613788565b840191505092915050565b600060208201905081810360008301526137ec8184613799565b905092915050565b6000819050919050565b613807816137f4565b811461381257600080fd5b50565b600081359050613824816137fe565b92915050565b6000602082840312156138405761383f613674565b5b600061384e84828501613815565b91505092915050565b600073ffffffffffffffffffffffffffffffffffffffff82169050919050565b600061388282613857565b9050919050565b61389281613877565b82525050565b60006020820190506138ad6000830184613889565b92915050565b6138bc81613877565b81146138c757600080fd5b50565b6000813590506138d9816138b3565b92915050565b600080604083850312156138f6576138f5613674565b5b6000613904858286016138ca565b925050602061391585828601613815565b9150509250929050565b613928816137f4565b82525050565b6000602082019050613943600083018461391f565b92915050565b60008060006060848603121561396257613961613674565b5b6000613970868287016138ca565b9350506020613981868287016138ca565b925050604061399286828701613815565b9150509250925092565b6000602082840312156139b2576139b1613674565b5b60006139c0848285016138ca565b91505092915050565b600080fd5b600080fd5b7f4e487b7100000000000000000000000000000000000000000000000000000000600052604160045260246000fd5b613a0b82613788565b810181811067ffffffffffffffff82111715613a2a57613a296139d3565b5b80604052505050565b6000613a3d61366a565b9050613a498282613a02565b919050565b600067ffffffffffffffff821115613a6957613a686139d3565b5b613a7282613788565b9050602081019050919050565b82818337600083830152505050565b6000613aa1613a9c84613a4e565b613a33565b905082815260208101848484011115613abd57613abc6139ce565b5b613ac8848285613a7f565b509392505050565b600082601f830112613ae557613ae46139c9565b5b8135613af5848260208601613a8e565b91505092915050565b600060208284031215613b1457613b13613674565b5b600082013567ffffffffffffffff811115613b3257613b31613679565b5b613b3e84828501613ad0565b91505092915050565b613b5081613703565b8114613b5b57600080fd5b50565b600081359050613b6d81613b47565b92915050565b600060208284031215613b8957613b88613674565b5b6000613b9784828501613b5e565b91505092915050565b613ba981613877565b82525050565b600067ffffffffffffffff82169050919050565b613bcc81613baf565b82525050565b604082016000820151613be86000850182613ba0565b506020820151613bfb6020850182613bc3565b50505050565b6000604082019050613c166000830184613bd2565b92915050565b60008060408385031215613c3357613c32613674565b5b6000613c41858286016138ca565b9250506020613c5285828601613b5e565b9150509250929050565b600067ffffffffffffffff821115613c7757613c766139d3565b5b613c8082613788565b9050602081019050919050565b6000613ca0613c9b84613c5c565b613a33565b905082815260208101848484011115613cbc57613cbb6139ce565b5b613cc7848285613a7f565b509392505050565b600082601f830112613ce457613ce36139c9565b5b8135613cf4848260208601613c8d565b91505092915050565b60008060008060808587031215613d1757613d16613674565b5b6000613d25878288016138ca565b9450506020613d36878288016138ca565b9350506040613d4787828801613815565b925050606085013567ffffffffffffffff811115613d6857613d67613679565b5b613d7487828801613ccf565b91505092959194509250565b600067ffffffffffffffff821115613d9b57613d9a6139d3565b5b602082029050602081019050919050565b600080fd5b6000613dc4613dbf84613d80565b613a33565b90508083825260208201905060208402830185811115613de757613de6613dac565b5b835b81811015613e105780613dfc88826138ca565b845260208401935050602081019050613de9565b5050509392505050565b600082601f830112613e2f57613e2e6139c9565b5b8135613e3f848260208601613db1565b91505092915050565b60008060408385031215613e5f57613e5e613674565b5b600083013567ffffffffffffffff811115613e7d57613e7c613679565b5b613e8985828601613e1a565b9250506020613e9a85828601613815565b9150509250929050565b60008060408385031215613ebb57613eba613674565b5b6000613ec9858286016138ca565b9250506020613eda858286016138ca565b9150509250929050565b7f4e487b7100000000000000000000000000000000000000000000000000000000600052602260045260246000fd5b60006002820490506001821680613f2b57607f821691505b60208210811415613f3f57613f3e613ee4565b5b50919050565b7f455243373231413a20617070726f76656420717565727920666f72206e6f6e6560008201527f78697374656e7420746f6b656e00000000000000000000000000000000000000602082015250565b6000613fa1602d83613744565b9150613fac82613f45565b604082019050919050565b60006020820190508181036000830152613fd081613f94565b9050919050565b7f455243373231413a20617070726f76616c20746f2063757272656e74206f776e60008201527f6572000000000000000000000000000000000000000000000000000000000000602082015250565b6000614033602283613744565b915061403e82613fd7565b604082019050919050565b6000602082019050818103600083015261406281614026565b9050919050565b7f455243373231413a20617070726f76652063616c6c6572206973206e6f74206f60008201527f776e6572206e6f7220617070726f76656420666f7220616c6c00000000000000602082015250565b60006140c5603983613744565b91506140d082614069565b604082019050919050565b600060208201905081810360008301526140f4816140b8565b9050919050565b7f4f776e61626c653a2063616c6c6572206973206e6f7420746865206f776e6572600082015250565b6000614131602083613744565b915061413c826140fb565b602082019050919050565b6000602082019050818103600083015261416081614124565b9050919050565b7f5265656e7472616e637947756172643a207265656e7472616e742063616c6c00600082015250565b600061419d601f83613744565b91506141a882614167565b602082019050919050565b600060208201905081810360008301526141cc81614190565b9050919050565b7f455243373231413a206f776e657220696e646578206f7574206f6620626f756e60008201527f6473000000000000000000000000000000000000000000000000000000000000602082015250565b600061422f602283613744565b915061423a826141d3565b604082019050919050565b6000602082019050818103600083015261425e81614222565b9050919050565b7f4e487b7100000000000000000000000000000000000000000000000000000000600052601160045260246000fd5b600061429f826137f4565b91507fffffffffffffffffffffffffffffffffffffffffffffffffffffffffffffffff8214156142d2576142d1614265565b5b600182019050919050565b7f455243373231413a20756e61626c6520746f2067657420746f6b656e206f662060008201527f6f776e657220627920696e646578000000000000000000000000000000000000602082015250565b6000614339602e83613744565b9150614344826142dd565b604082019050919050565b600060208201905081810360008301526143688161432c565b9050919050565b7f455243373231413a206e756d626572206d696e74656420717565727920666f7260008201527f20746865207a65726f2061646472657373000000000000000000000000000000602082015250565b60006143cb603183613744565b91506143d68261436f565b604082019050919050565b600060208201905081810360008301526143fa816143be565b9050919050565b7f455243373231413a20676c6f62616c20696e646578206f7574206f6620626f7560008201527f6e64730000000000000000000000000000000000000000000000000000000000602082015250565b600061445d602383613744565b915061446882614401565b604082019050919050565b6000602082019050818103600083015261448c81614450565b9050919050565b600061449e826137f4565b91506144a9836137f4565b9250817fffffffffffffffffffffffffffffffffffffffffffffffffffffffffffffffff04831182151516156144e2576144e1614265565b5b828202905092915050565b7f4e487b7100000000000000000000000000000000000000000000000000000000600052601260045260246000fd5b6000614527826137f4565b9150614532836137f4565b925082614542576145416144ed565b5b828204905092915050565b600081905092915050565b50565b600061456860008361454d565b915061457382614558565b600082019050919050565b60006145898261455b565b9150819050919050565b7f455243373231413a2062616c616e636520717565727920666f7220746865207a60008201527f65726f2061646472657373000000000000000000000000000000000000000000602082015250565b60006145ef602b83613744565b91506145fa82614593565b604082019050919050565b6000602082019050818103600083015261461e816145e2565b9050919050565b7f455243373231413a20617070726f766520746f2063616c6c6572000000000000600082015250565b600061465b601a83613744565b915061466682614625565b602082019050919050565b6000602082019050818103600083015261468a8161464e565b9050919050565b7f5468652063616c6c657220697320616e6f7468657220636f6e74726163740000600082015250565b60006146c7601e83613744565b91506146d282614691565b602082019050919050565b600060208201905081810360008301526146f6816146ba565b9050919050565b7f4d696e74206973206e6f74206c69766500000000000000000000000000000000600082015250565b6000614733601083613744565b915061473e826146fd565b602082019050919050565b6000602082019050818103600083015261476281614726565b9050919050565b6000614774826137f4565b915061477f836137f4565b92508282101561479257614791614265565b5b828203905092915050565b60006147a8826137f4565b91506147b3836137f4565b9250827fffffffffffffffffffffffffffffffffffffffffffffffffffffffffffffffff038211156147e8576147e7614265565b5b828201905092915050565b7f5075626c69632073616c652066696e6973686564000000000000000000000000600082015250565b6000614829601483613744565b9150614834826147f3565b602082019050919050565b600060208201905081810360008301526148588161481c565b9050919050565b7f57616c6c6574206c696d69742065786365656465640000000000000000000000600082015250565b6000614895601583613744565b91506148a08261485f565b602082019050919050565b600060208201905081810360008301526148c481614888565b9050919050565b7f4e65656420746f2073656e64206d6f7265204554480000000000000000000000600082015250565b6000614901601583613744565b915061490c826148cb565b602082019050919050565b60006020820190508181036000830152614930816148f4565b9050919050565b7f455243373231413a207472616e7366657220746f206e6f6e204552433732315260008201527f6563656976657220696d706c656d656e74657200000000000000000000000000602082015250565b6000614993603383613744565b915061499e82614937565b604082019050919050565b600060208201905081810360008301526149c281614986565b9050919050565b7f4552433732314d657461646174613a2055524920717565727920666f72206e6f60008201527f6e6578697374656e7420746f6b656e0000000000000000000000000000000000602082015250565b6000614a25602f83613744565b9150614a30826149c9565b604082019050919050565b60006020820190508181036000830152614a5481614a18565b9050919050565b600081905092915050565b6000614a7182613739565b614a7b8185614a5b565b9350614a8b818560208601613755565b80840191505092915050565b7f2e6a736f6e000000000000000000000000000000000000000000000000000000600082015250565b6000614acd600583614a5b565b9150614ad882614a97565b600582019050919050565b6000614aef8285614a66565b9150614afb8284614a66565b9150614b0682614ac0565b91508190509392505050565b7f4578636565646564206d617820737570706c7900000000000000000000000000600082015250565b6000614b48601383613744565b9150614b5382614b12565b602082019050919050565b60006020820190508181036000830152614b7781614b3b565b9050919050565b7f4e487b7100000000000000000000000000000000000000000000000000000000600052603260045260246000fd5b7f4f776e61626c653a206e6577206f776e657220697320746865207a65726f206160008201527f6464726573730000000000000000000000000000000000000000000000000000602082015250565b6000614c09602683613744565b9150614c1482614bad565b604082019050919050565b60006020820190508181036000830152614c3881614bfc565b9050919050565b7f455243373231413a207472616e736665722063616c6c6572206973206e6f742060008201527f6f776e6572206e6f7220617070726f7665640000000000000000000000000000602082015250565b6000614c9b603283613744565b9150614ca682614c3f565b604082019050919050565b60006020820190508181036000830152614cca81614c8e565b9050919050565b7f455243373231413a207472616e736665722066726f6d20696e636f727265637460008201527f206f776e65720000000000000000000000000000000000000000000000000000602082015250565b6000614d2d602683613744565b9150614d3882614cd1565b604082019050919050565b60006020820190508181036000830152614d5c81614d20565b9050919050565b7f455243373231413a207472616e7366657220746f20746865207a65726f20616460008201527f6472657373000000000000000000000000000000000000000000000000000000602082015250565b6000614dbf602583613744565b9150614dca82614d63565b604082019050919050565b60006020820190508181036000830152614dee81614db2565b9050919050565b60006fffffffffffffffffffffffffffffffff82169050919050565b6000614e1c82614df5565b9150614e2783614df5565b925082821015614e3a57614e39614265565b5b828203905092915050565b6000614e5082614df5565b9150614e5b83614df5565b9250826fffffffffffffffffffffffffffffffff03821115614e8057614e7f614265565b5b828201905092915050565b7f7175616e74697479206d757374206265206e6f6e7a65726f0000000000000000600082015250565b6000614ec1601883613744565b9150614ecc82614e8b565b602082019050919050565b60006020820190508181036000830152614ef081614eb4565b9050919050565b7f6e6f7420656e6f756768206d696e7465642079657420666f722074686973206360008201527f6c65616e75700000000000000000000000000000000000000000000000000000602082015250565b6000614f53602683613744565b9150614f5e82614ef7565b604082019050919050565b60006020820190508181036000830152614f8281614f46565b9050919050565b7f455243373231413a206f776e657220717565727920666f72206e6f6e6578697360008201527f74656e7420746f6b656e00000000000000000000000000000000000000000000602082015250565b6000614fe5602a83613744565b9150614ff082614f89565b604082019050919050565b6000602082019050818103600083015261501481614fd8565b9050919050565b6000615026826137f4565b9150600082141561503a57615039614265565b5b600182039050919050565b7f455243373231413a20756e61626c6520746f2064657465726d696e652074686560008201527f206f776e6572206f6620746f6b656e0000000000000000000000000000000000602082015250565b60006150a1602f83613744565b91506150ac82615045565b604082019050919050565b600060208201905081810360008301526150d081615094565b9050919050565b600081519050919050565b600082825260208201905092915050565b60006150fe826150d7565b61510881856150e2565b9350615118818560208601613755565b61512181613788565b840191505092915050565b60006080820190506151416000830187613889565b61514e6020830186613889565b61515b604083018561391f565b818103606083015261516d81846150f3565b905095945050505050565b600081519050615187816136aa565b92915050565b6000602082840312156151a3576151a2613674565b5b60006151b184828501615178565b91505092915050565b60006151c5826137f4565b91506151d0836137f4565b9250826151e0576151df6144ed565b5b828206905092915050565b7f455243373231413a206d696e7420746f20746865207a65726f2061646472657360008201527f7300000000000000000000000000000000000000000000000000000000000000602082015250565b6000615247602183613744565b9150615252826151eb565b604082019050919050565b600060208201905081810360008301526152768161523a565b9050919050565b7f455243373231413a20746f6b656e20616c7265616479206d696e746564000000600082015250565b60006152b3601d83613744565b91506152be8261527d565b602082019050919050565b600060208201905081810360008301526152e2816152a6565b9050919050565b7f455243373231413a207175616e7469747920746f206d696e7420746f6f20686960008201527f6768000000000000000000000000000000000000000000000000000000000000602082015250565b6000615345602283613744565b9150615350826152e9565b604082019050919050565b6000602082019050818103600083015261537481615338565b905091905056fea26469706673582212203bd539fe2ce34bdc789a522bbbb58956a159d05171b2385f27a276da6417746664736f6c63430008090033",
  "immutableReferences": {
    "936": [
      {
        "length": 32,
        "start": 6463
      },
      {
        "length": 32,
        "start": 7464
      },
      {
        "length": 32,
        "start": 10093
      },
      {
        "length": 32,
        "start": 10145
      }
    ],
    "938": [
      {
        "length": 32,
        "start": 10725
      },
      {
        "length": 32,
        "start": 10766
      },
      {
        "length": 32,
        "start": 12655
      }
    ],
    "2106": [
      {
        "length": 32,
        "start": 6590
      },
      {
        "length": 32,
        "start": 7304
      }
    ],
    "2108": [
      {
        "length": 32,
        "start": 6430
      },
      {
        "length": 32,
        "start": 6809
      }
    ]
  },
  "source": "// SPDX-License-Identifier: MIT\n\npragma solidity ^0.8.0;\n\nimport \"@openzeppelin/contracts/access/Ownable.sol\";\nimport \"@openzeppelin/contracts/security/ReentrancyGuard.sol\";\nimport \"./ERC721A.sol\";\nimport \"@openzeppelin/contracts/utils/Strings.sol\";\n\ncontract YetiPunks is Ownable, ERC721A, ReentrancyGuard {\n    using Strings for uint256;\n\n    uint256 public immutable maxPerAddressDuringPublicSale;\n    uint256 public immutable amountForGiveaway;\n    bool private revealed = false;\n    bool private publicSaleOn = false;\n    string public notRevealedUri;\n\n    constructor(\n        uint256 maxBatchSize_,\n        uint256 collectionSize_,\n        uint256 amountForGiveaway_,\n        string memory _initBaseUri,\n        string memory _initNotRevealedUri\n    ) ERC721A(\"Petty Monks\", \"PM\", maxBatchSize_, collectionSize_) {\n        maxPerAddressDuringPublicSale = maxBatchSize_;\n        amountForGiveaway = amountForGiveaway_;\n\n        setBaseURI(_initBaseUri);\n        setNotRevealedURI(_initNotRevealedUri);\n\n        address[] memory devAddresses = new address[](3);\n        devAddresses[0] = 0xD61ADc48afE9402B4411805Ce6026eF74F94E713;\n        devAddresses[1] = 0xE3Ce04B3BcbdFa219407870Ca617e18fBF503F28;\n        devAddresses[2] = 0x7638aC632C177BB6eB88826065eb62b878F93754;\n        devMint(devAddresses, 7);\n    }\n\n    modifier callerIsUser() {\n        require(tx.origin == msg.sender, \"The caller is another contract\");\n        _;\n    }\n\n    function publicSaleMint(uint256 quantity) external payable callerIsUser {\n        uint256 publicPrice = 0.024 ether;\n        require(publicSaleOn, \"Mint is not live\");\n        require(\n            totalSupply() + quantity <= collectionSize - amountForGiveaway,\n            \"Public sale finished\"\n        );\n        require(\n            numberMinted(msg.sender) + quantity <=\n                maxPerAddressDuringPublicSale,\n            \"Wallet limit exceeded\"\n        );\n        require(msg.value >= publicPrice, \"Need to send more ETH\");\n        _safeMint(msg.sender, quantity);\n        refundIfOver(publicPrice * quantity);\n    }\n\n    function refundIfOver(uint256 price) private {\n        require(msg.value >= price, \"Need to send more ETH\");\n        if (msg.value > price) {\n            payable(msg.sender).transfer(msg.value - price);\n        }\n    }\n\n    // For marketing etc.\n    function devMint(address[] memory receiverAddresses, uint256 mintAmount)\n        public\n        onlyOwner\n    {\n        require(\n            totalSupply() + mintAmount <= collectionSize,\n            \"Exceeded max supply\"\n        );\n\n        for (uint256 i = 0; i < receiverAddresses.length; i++) {\n            _safeMint(receiverAddresses[i], mintAmount);\n        }\n    }\n\n    // metadata URI\n    string private _baseTokenURI;\n\n    function _baseURI() internal view virtual override returns (string memory) {\n        return _baseTokenURI;\n    }\n\n    function setNotRevealedURI(string memory _notRevealedURI) public onlyOwner {\n        notRevealedUri = _notRevealedURI;\n    }\n\n    function setBaseURI(string memory baseURI) public onlyOwner {\n        _baseTokenURI = baseURI;\n    }\n\n    /**\n     * @dev See {IERC721Metadata-tokenURI}.\n     */\n    function tokenURI(uint256 tokenId)\n        public\n        view\n        virtual\n        override\n        returns (string memory)\n    {\n        require(\n            _exists(tokenId),\n            \"ERC721Metadata: URI query for nonexistent token\"\n        );\n\n        string memory baseURI = _baseURI();\n\n        if (revealed == true) {\n            return\n                bytes(baseURI).length > 0\n                    ? string(abi.encodePacked(baseURI, tokenId.toString(), \".json\"))\n                    : \"\";\n        } else {\n            return notRevealedUri;\n        }\n    }\n\n    function revealCollection() public onlyOwner {\n        revealed = true;\n    }\n\n    function setPublicSale(bool state) public onlyOwner {\n        publicSaleOn = state;\n    }\n\n    function withdrawBalance() public onlyOwner {\n        uint256 oneThird = (address(this).balance * 33) / 100;\n        (bool unorthadoxantSuccess, ) = payable(\n            0xD61ADc48afE9402B4411805Ce6026eF74F94E713\n        ).call{value: oneThird}(\"\");\n        require(unorthadoxantSuccess);\n        (bool somkidSuccess, ) = payable(\n            0xE3Ce04B3BcbdFa219407870Ca617e18fBF503F28\n        ).call{value: oneThird}(\"\");\n        require(somkidSuccess);\n        (bool andreasSuccess, ) = payable(\n            0x7638aC632C177BB6eB88826065eb62b878F93754\n        ).call{value: address(this).balance}(\"\");\n        require(andreasSuccess);\n    }\n\n    function setOwnersExplicit(uint256 quantity)\n        external\n        onlyOwner\n        nonReentrant\n    {\n        _setOwnersExplicit(quantity);\n    }\n\n    function numberMinted(address owner) public view returns (uint256) {\n        return _numberMinted(owner);\n    }\n\n    function getOwnershipData(uint256 tokenId)\n        external\n        view\n        returns (TokenOwnership memory)\n    {\n        return ownershipOf(tokenId);\n    }\n}\n",
  "sourcePath": "/Users/christopherfoley/nft/YetiPunks/src/contracts/YetiPunks.sol",
  "compiler": {
    "name": "solc",
    "version": "0.8.9+commit.e5eed63a.Emscripten.clang"
  },
  "schemaVersion": "3.4.4",
  "updatedAt": "2022-02-28T02:22:03.509Z",
  "networkType": "ethereum",
  "devdoc": {
    "kind": "dev",
    "methods": {
      "approve(address,uint256)": {
        "details": "See {IERC721-approve}."
      },
      "balanceOf(address)": {
        "details": "See {IERC721-balanceOf}."
      },
      "getApproved(uint256)": {
        "details": "See {IERC721-getApproved}."
      },
      "isApprovedForAll(address,address)": {
        "details": "See {IERC721-isApprovedForAll}."
      },
      "name()": {
        "details": "See {IERC721Metadata-name}."
      },
      "owner()": {
        "details": "Returns the address of the current owner."
      },
      "ownerOf(uint256)": {
        "details": "See {IERC721-ownerOf}."
      },
      "renounceOwnership()": {
        "details": "Leaves the contract without owner. It will not be possible to call `onlyOwner` functions anymore. Can only be called by the current owner. NOTE: Renouncing ownership will leave the contract without an owner, thereby removing any functionality that is only available to the owner."
      },
      "safeTransferFrom(address,address,uint256)": {
        "details": "See {IERC721-safeTransferFrom}."
      },
      "safeTransferFrom(address,address,uint256,bytes)": {
        "details": "See {IERC721-safeTransferFrom}."
      },
      "setApprovalForAll(address,bool)": {
        "details": "See {IERC721-setApprovalForAll}."
      },
      "supportsInterface(bytes4)": {
        "details": "See {IERC165-supportsInterface}."
      },
      "symbol()": {
        "details": "See {IERC721Metadata-symbol}."
      },
      "tokenByIndex(uint256)": {
        "details": "See {IERC721Enumerable-tokenByIndex}."
      },
      "tokenOfOwnerByIndex(address,uint256)": {
        "details": "See {IERC721Enumerable-tokenOfOwnerByIndex}. This read function is O(collectionSize). If calling from a separate contract, be sure to test gas first. It may also degrade with extremely large collection sizes (e.g >> 10000), test for your use case."
      },
      "tokenURI(uint256)": {
        "details": "See {IERC721Metadata-tokenURI}."
      },
      "totalSupply()": {
        "details": "See {IERC721Enumerable-totalSupply}."
      },
      "transferFrom(address,address,uint256)": {
        "details": "See {IERC721-transferFrom}."
      },
      "transferOwnership(address)": {
        "details": "Transfers ownership of the contract to a new account (`newOwner`). Can only be called by the current owner."
      }
    },
    "version": 1
  },
  "userdoc": {
    "kind": "user",
    "methods": {},
    "version": 1
  }
}