{
  "contractName": "YetiPunks",
  "abi": [
    {
      "inputs": [
        {
          "internalType": "uint256",
          "name": "maxBatchSize_",
          "type": "uint256"
        },
        {
          "internalType": "uint256",
          "name": "collectionSize_",
          "type": "uint256"
        },
        {
          "internalType": "uint256",
          "name": "amountForGiveaway_",
          "type": "uint256"
        },
        {
          "internalType": "uint256",
          "name": "amountForDevs_",
          "type": "uint256"
        },
        {
          "internalType": "string",
          "name": "_initNotRevealedUri",
          "type": "string"
        }
      ],
      "stateMutability": "nonpayable",
      "type": "constructor"
    },
    {
      "anonymous": false,
      "inputs": [
        {
          "indexed": true,
          "internalType": "address",
          "name": "owner",
          "type": "address"
        },
        {
          "indexed": true,
          "internalType": "address",
          "name": "approved",
          "type": "address"
        },
        {
          "indexed": true,
          "internalType": "uint256",
          "name": "tokenId",
          "type": "uint256"
        }
      ],
      "name": "Approval",
      "type": "event"
    },
    {
      "anonymous": false,
      "inputs": [
        {
          "indexed": true,
          "internalType": "address",
          "name": "owner",
          "type": "address"
        },
        {
          "indexed": true,
          "internalType": "address",
          "name": "operator",
          "type": "address"
        },
        {
          "indexed": false,
          "internalType": "bool",
          "name": "approved",
          "type": "bool"
        }
      ],
      "name": "ApprovalForAll",
      "type": "event"
    },
    {
      "anonymous": false,
      "inputs": [
        {
          "indexed": true,
          "internalType": "address",
          "name": "previousOwner",
          "type": "address"
        },
        {
          "indexed": true,
          "internalType": "address",
          "name": "newOwner",
          "type": "address"
        }
      ],
      "name": "OwnershipTransferred",
      "type": "event"
    },
    {
      "anonymous": false,
      "inputs": [
        {
          "indexed": true,
          "internalType": "address",
          "name": "from",
          "type": "address"
        },
        {
          "indexed": true,
          "internalType": "address",
          "name": "to",
          "type": "address"
        },
        {
          "indexed": true,
          "internalType": "uint256",
          "name": "tokenId",
          "type": "uint256"
        }
      ],
      "name": "Transfer",
      "type": "event"
    },
    {
      "inputs": [
        {
          "internalType": "address",
          "name": "owner",
          "type": "address"
        }
      ],
      "name": "_numberMinted",
      "outputs": [
        {
          "internalType": "uint256",
          "name": "",
          "type": "uint256"
        }
      ],
      "stateMutability": "view",
      "type": "function",
      "constant": true
    },
    {
      "inputs": [
        {
          "internalType": "address",
          "name": "",
          "type": "address"
        }
      ],
      "name": "allowlist",
      "outputs": [
        {
          "internalType": "uint256",
          "name": "",
          "type": "uint256"
        }
      ],
      "stateMutability": "view",
      "type": "function",
      "constant": true
    },
    {
      "inputs": [],
      "name": "amountForDevs",
      "outputs": [
        {
          "internalType": "uint256",
          "name": "",
          "type": "uint256"
        }
      ],
      "stateMutability": "view",
      "type": "function",
      "constant": true
    },
    {
      "inputs": [],
      "name": "amountForGiveaway",
      "outputs": [
        {
          "internalType": "uint256",
          "name": "",
          "type": "uint256"
        }
      ],
      "stateMutability": "view",
      "type": "function",
      "constant": true
    },
    {
      "inputs": [
        {
          "internalType": "address",
          "name": "to",
          "type": "address"
        },
        {
          "internalType": "uint256",
          "name": "tokenId",
          "type": "uint256"
        }
      ],
      "name": "approve",
      "outputs": [],
      "stateMutability": "nonpayable",
      "type": "function"
    },
    {
      "inputs": [
        {
          "internalType": "address",
          "name": "owner",
          "type": "address"
        }
      ],
      "name": "balanceOf",
      "outputs": [
        {
          "internalType": "uint256",
          "name": "",
          "type": "uint256"
        }
      ],
      "stateMutability": "view",
      "type": "function",
      "constant": true
    },
    {
      "inputs": [
        {
          "internalType": "uint256",
          "name": "tokenId",
          "type": "uint256"
        }
      ],
      "name": "getApproved",
      "outputs": [
        {
          "internalType": "address",
          "name": "",
          "type": "address"
        }
      ],
      "stateMutability": "view",
      "type": "function",
      "constant": true
    },
    {
      "inputs": [
        {
          "internalType": "address",
          "name": "owner",
          "type": "address"
        },
        {
          "internalType": "address",
          "name": "operator",
          "type": "address"
        }
      ],
      "name": "isApprovedForAll",
      "outputs": [
        {
          "internalType": "bool",
          "name": "",
          "type": "bool"
        }
      ],
      "stateMutability": "view",
      "type": "function",
      "constant": true
    },
    {
      "inputs": [],
      "name": "maxPerAddressDuringPresale",
      "outputs": [
        {
          "internalType": "uint256",
          "name": "",
          "type": "uint256"
        }
      ],
      "stateMutability": "view",
      "type": "function",
      "constant": true
    },
    {
      "inputs": [],
      "name": "maxPerAddressDuringPublicSale",
      "outputs": [
        {
          "internalType": "uint256",
          "name": "",
          "type": "uint256"
        }
      ],
      "stateMutability": "view",
      "type": "function",
      "constant": true
    },
    {
      "inputs": [],
      "name": "name",
      "outputs": [
        {
          "internalType": "string",
          "name": "",
          "type": "string"
        }
      ],
      "stateMutability": "view",
      "type": "function",
      "constant": true
    },
    {
      "inputs": [],
      "name": "nextOwnerToExplicitlySet",
      "outputs": [
        {
          "internalType": "uint256",
          "name": "",
          "type": "uint256"
        }
      ],
      "stateMutability": "view",
      "type": "function",
      "constant": true
    },
    {
      "inputs": [],
      "name": "notRevealedUri",
      "outputs": [
        {
          "internalType": "string",
          "name": "",
          "type": "string"
        }
      ],
      "stateMutability": "view",
      "type": "function",
      "constant": true
    },
    {
      "inputs": [],
      "name": "owner",
      "outputs": [
        {
          "internalType": "address",
          "name": "",
          "type": "address"
        }
      ],
      "stateMutability": "view",
      "type": "function",
      "constant": true
    },
    {
      "inputs": [
        {
          "internalType": "uint256",
          "name": "tokenId",
          "type": "uint256"
        }
      ],
      "name": "ownerOf",
      "outputs": [
        {
          "internalType": "address",
          "name": "",
          "type": "address"
        }
      ],
      "stateMutability": "view",
      "type": "function",
      "constant": true
    },
    {
      "inputs": [],
      "name": "renounceOwnership",
      "outputs": [],
      "stateMutability": "nonpayable",
      "type": "function"
    },
    {
      "inputs": [
        {
          "internalType": "address",
          "name": "from",
          "type": "address"
        },
        {
          "internalType": "address",
          "name": "to",
          "type": "address"
        },
        {
          "internalType": "uint256",
          "name": "tokenId",
          "type": "uint256"
        }
      ],
      "name": "safeTransferFrom",
      "outputs": [],
      "stateMutability": "nonpayable",
      "type": "function"
    },
    {
      "inputs": [
        {
          "internalType": "address",
          "name": "from",
          "type": "address"
        },
        {
          "internalType": "address",
          "name": "to",
          "type": "address"
        },
        {
          "internalType": "uint256",
          "name": "tokenId",
          "type": "uint256"
        },
        {
          "internalType": "bytes",
          "name": "_data",
          "type": "bytes"
        }
      ],
      "name": "safeTransferFrom",
      "outputs": [],
      "stateMutability": "nonpayable",
      "type": "function"
    },
    {
      "inputs": [
        {
          "internalType": "address",
          "name": "operator",
          "type": "address"
        },
        {
          "internalType": "bool",
          "name": "approved",
          "type": "bool"
        }
      ],
      "name": "setApprovalForAll",
      "outputs": [],
      "stateMutability": "nonpayable",
      "type": "function"
    },
    {
      "inputs": [
        {
          "internalType": "bytes4",
          "name": "interfaceId",
          "type": "bytes4"
        }
      ],
      "name": "supportsInterface",
      "outputs": [
        {
          "internalType": "bool",
          "name": "",
          "type": "bool"
        }
      ],
      "stateMutability": "view",
      "type": "function",
      "constant": true
    },
    {
      "inputs": [],
      "name": "symbol",
      "outputs": [
        {
          "internalType": "string",
          "name": "",
          "type": "string"
        }
      ],
      "stateMutability": "view",
      "type": "function",
      "constant": true
    },
    {
      "inputs": [
        {
          "internalType": "uint256",
          "name": "index",
          "type": "uint256"
        }
      ],
      "name": "tokenByIndex",
      "outputs": [
        {
          "internalType": "uint256",
          "name": "",
          "type": "uint256"
        }
      ],
      "stateMutability": "view",
      "type": "function",
      "constant": true
    },
    {
      "inputs": [
        {
          "internalType": "address",
          "name": "owner",
          "type": "address"
        },
        {
          "internalType": "uint256",
          "name": "index",
          "type": "uint256"
        }
      ],
      "name": "tokenOfOwnerByIndex",
      "outputs": [
        {
          "internalType": "uint256",
          "name": "",
          "type": "uint256"
        }
      ],
      "stateMutability": "view",
      "type": "function",
      "constant": true
    },
    {
      "inputs": [
        {
          "internalType": "uint256",
          "name": "tokenId",
          "type": "uint256"
        }
      ],
      "name": "tokenURI",
      "outputs": [
        {
          "internalType": "string",
          "name": "",
          "type": "string"
        }
      ],
      "stateMutability": "view",
      "type": "function",
      "constant": true
    },
    {
      "inputs": [],
      "name": "totalSupply",
      "outputs": [
        {
          "internalType": "uint256",
          "name": "",
          "type": "uint256"
        }
      ],
      "stateMutability": "view",
      "type": "function",
      "constant": true
    },
    {
      "inputs": [
        {
          "internalType": "address",
          "name": "from",
          "type": "address"
        },
        {
          "internalType": "address",
          "name": "to",
          "type": "address"
        },
        {
          "internalType": "uint256",
          "name": "tokenId",
          "type": "uint256"
        }
      ],
      "name": "transferFrom",
      "outputs": [],
      "stateMutability": "nonpayable",
      "type": "function"
    },
    {
      "inputs": [
        {
          "internalType": "address",
          "name": "newOwner",
          "type": "address"
        }
      ],
      "name": "transferOwnership",
      "outputs": [],
      "stateMutability": "nonpayable",
      "type": "function"
    },
    {
      "inputs": [
        {
          "internalType": "uint256",
          "name": "quantity",
          "type": "uint256"
        }
      ],
      "name": "allowlistMint",
      "outputs": [],
      "stateMutability": "payable",
      "type": "function",
      "payable": true
    },
    {
      "inputs": [
        {
          "internalType": "uint256",
          "name": "quantity",
          "type": "uint256"
        }
      ],
      "name": "publicSaleMint",
      "outputs": [],
      "stateMutability": "payable",
      "type": "function",
      "payable": true
    },
    {
      "inputs": [
        {
          "internalType": "uint256",
          "name": "publicPriceWei",
          "type": "uint256"
        },
        {
          "internalType": "uint256",
          "name": "publicSaleKey",
          "type": "uint256"
        },
        {
          "internalType": "uint256",
          "name": "publicSaleStartTime",
          "type": "uint256"
        }
      ],
      "name": "isPublicSaleOn",
      "outputs": [
        {
          "internalType": "bool",
          "name": "",
          "type": "bool"
        }
      ],
      "stateMutability": "view",
      "type": "function",
      "constant": true
    },
    {
      "inputs": [
        {
          "internalType": "address[]",
          "name": "addresses",
          "type": "address[]"
        },
        {
          "internalType": "uint256[]",
          "name": "numSlots",
          "type": "uint256[]"
        }
      ],
      "name": "seedAllowlist",
      "outputs": [],
      "stateMutability": "nonpayable",
      "type": "function"
    },
    {
      "inputs": [
        {
          "internalType": "address[]",
          "name": "receiverAddresses",
          "type": "address[]"
        },
        {
          "internalType": "uint256",
          "name": "mintAmount",
          "type": "uint256"
        }
      ],
      "name": "devMint",
      "outputs": [],
      "stateMutability": "nonpayable",
      "type": "function"
    },
    {
      "inputs": [
        {
          "internalType": "string",
          "name": "_notRevealedURI",
          "type": "string"
        }
      ],
      "name": "setNotRevealedURI",
      "outputs": [],
      "stateMutability": "nonpayable",
      "type": "function"
    },
    {
      "inputs": [
        {
          "internalType": "string",
          "name": "baseURI",
          "type": "string"
        }
      ],
      "name": "setBaseURI",
      "outputs": [],
      "stateMutability": "nonpayable",
      "type": "function"
    },
    {
      "inputs": [],
      "name": "withdrawBalance",
      "outputs": [],
      "stateMutability": "nonpayable",
      "type": "function"
    },
    {
      "inputs": [
        {
          "internalType": "uint256",
          "name": "quantity",
          "type": "uint256"
        }
      ],
      "name": "setOwnersExplicit",
      "outputs": [],
      "stateMutability": "nonpayable",
      "type": "function"
    },
    {
      "inputs": [
        {
          "internalType": "address",
          "name": "owner",
          "type": "address"
        }
      ],
      "name": "numberMinted",
      "outputs": [
        {
          "internalType": "uint256",
          "name": "",
          "type": "uint256"
        }
      ],
      "stateMutability": "view",
      "type": "function",
      "constant": true
    },
    {
      "inputs": [
        {
          "internalType": "uint256",
          "name": "tokenId",
          "type": "uint256"
        }
      ],
      "name": "getOwnershipData",
      "outputs": [
        {
          "components": [
            {
              "internalType": "address",
              "name": "addr",
              "type": "address"
            },
            {
              "internalType": "uint64",
              "name": "startTimestamp",
              "type": "uint64"
            }
          ],
          "internalType": "struct ERC721A.TokenOwnership",
          "name": "",
          "type": "tuple"
        }
      ],
      "stateMutability": "view",
      "type": "function",
      "constant": true
    }
  ],
  "bytecode": "0x61014060405260006001556000600855600560e0908152503480156200002457600080fd5b50604051620073af380380620073af83398181016040528101906200004a919062001048565b6040518060400160405280600b81526020017f5065747479204d6f6e6b730000000000000000000000000000000000000000008152506040518060400160405280600281526020017f504d0000000000000000000000000000000000000000000000000000000000008152508686620000d8620000cc620003c660201b60201c565b620003ce60201b60201c565b600081116200011e576040517f08c379a0000000000000000000000000000000000000000000000000000000008152600401620001159062001176565b60405180910390fd5b6000821162000164576040517f08c379a00000000000000000000000000000000000000000000000000000000081526004016200015b906200120e565b60405180910390fd5b83600290805190602001906200017c92919062000dc0565b5082600390805190602001906200019592919062000dc0565b508160a0818152505080608081815250505050505060016009819055508460c081815250508261012081815250508161010081815250508383111562000212576040517f08c379a0000000000000000000000000000000000000000000000000000000008152600401620002099062001280565b60405180910390fd5b62000223816200049260201b60201c565b6000600367ffffffffffffffff81111562000243576200024262000eda565b5b604051908082528060200260200182016040528015620002725781602001602082028036833780820191505090505b50905073d61adc48afe9402b4411805ce6026ef74f94e71381600081518110620002a157620002a0620012a2565b5b602002602001019073ffffffffffffffffffffffffffffffffffffffff16908173ffffffffffffffffffffffffffffffffffffffff168152505073e3ce04b3bcbdfa219407870ca617e18fbf503f2881600181518110620003075762000306620012a2565b5b602002602001019073ffffffffffffffffffffffffffffffffffffffff16908173ffffffffffffffffffffffffffffffffffffffff16815250507349cf0af1ce6a50e822a91a427b3e29007f9c6c09816002815181106200036d576200036c620012a2565b5b602002602001019073ffffffffffffffffffffffffffffffffffffffff16908173ffffffffffffffffffffffffffffffffffffffff1681525050620003ba8160076200053d60201b60201c565b50505050505062001953565b600033905090565b60008060009054906101000a900473ffffffffffffffffffffffffffffffffffffffff169050816000806101000a81548173ffffffffffffffffffffffffffffffffffffffff021916908373ffffffffffffffffffffffffffffffffffffffff1602179055508173ffffffffffffffffffffffffffffffffffffffff168173ffffffffffffffffffffffffffffffffffffffff167f8be0079c531659141344cd1fd0a4f28419497f9722a3daafe3b4186f6b6457e060405160405180910390a35050565b620004a2620003c660201b60201c565b73ffffffffffffffffffffffffffffffffffffffff16620004c86200068860201b60201c565b73ffffffffffffffffffffffffffffffffffffffff161462000521576040517f08c379a0000000000000000000000000000000000000000000000000000000008152600401620005189062001321565b60405180910390fd5b80600a90805190602001906200053992919062000dc0565b5050565b6200054d620003c660201b60201c565b73ffffffffffffffffffffffffffffffffffffffff16620005736200068860201b60201c565b73ffffffffffffffffffffffffffffffffffffffff1614620005cc576040517f08c379a0000000000000000000000000000000000000000000000000000000008152600401620005c39062001321565b60405180910390fd5b6101005181620005e1620006b160201b60201c565b620005ed919062001372565b111562000631576040517f08c379a0000000000000000000000000000000000000000000000000000000008152600401620006289062001445565b60405180910390fd5b60005b825181101562000683576200066d838281518110620006585762000657620012a2565b5b602002602001015183620006bb60201b60201c565b80806200067a9062001467565b91505062000634565b505050565b60008060009054906101000a900473ffffffffffffffffffffffffffffffffffffffff16905090565b6000600154905090565b620006dd828260405180602001604052806000815250620006e160201b60201c565b5050565b60006001549050600073ffffffffffffffffffffffffffffffffffffffff168473ffffffffffffffffffffffffffffffffffffffff1614156200075b576040517f08c379a000000000000000000000000000000000000000000000000000000000815260040162000752906200152b565b60405180910390fd5b6200076c8162000bd960201b60201c565b15620007af576040517f08c379a0000000000000000000000000000000000000000000000000000000008152600401620007a6906200159d565b60405180910390fd5b60a051831115620007f7576040517f08c379a0000000000000000000000000000000000000000000000000000000008152600401620007ee9062001635565b60405180910390fd5b6200080c600085838662000be760201b60201c565b6000600560008673ffffffffffffffffffffffffffffffffffffffff1673ffffffffffffffffffffffffffffffffffffffff1681526020019081526020016000206040518060400160405290816000820160009054906101000a90046fffffffffffffffffffffffffffffffff166fffffffffffffffffffffffffffffffff166fffffffffffffffffffffffffffffffff1681526020016000820160109054906101000a90046fffffffffffffffffffffffffffffffff166fffffffffffffffffffffffffffffffff166fffffffffffffffffffffffffffffffff1681525050905060405180604001604052808583600001516200090b919062001673565b6fffffffffffffffffffffffffffffffff16815260200185836020015162000934919062001673565b6fffffffffffffffffffffffffffffffff16815250600560008773ffffffffffffffffffffffffffffffffffffffff1673ffffffffffffffffffffffffffffffffffffffff16815260200190815260200160002060008201518160000160006101000a8154816fffffffffffffffffffffffffffffffff02191690836fffffffffffffffffffffffffffffffff16021790555060208201518160000160106101000a8154816fffffffffffffffffffffffffffffffff02191690836fffffffffffffffffffffffffffffffff16021790555090505060405180604001604052808673ffffffffffffffffffffffffffffffffffffffff1681526020014267ffffffffffffffff168152506004600084815260200190815260200160002060008201518160000160006101000a81548173ffffffffffffffffffffffffffffffffffffffff021916908373ffffffffffffffffffffffffffffffffffffffff16021790555060208201518160000160146101000a81548167ffffffffffffffff021916908367ffffffffffffffff160217905550905050600082905060005b8581101562000bb457818773ffffffffffffffffffffffffffffffffffffffff16600073ffffffffffffffffffffffffffffffffffffffff167fddf252ad1be2c89b69c2b068fc378daa952ba7f163c4a11628f55a4df523b3ef60405160405180910390a462000b4c600088848862000bed60201b60201c565b62000b8e576040517f08c379a000000000000000000000000000000000000000000000000000000000815260040162000b859062001736565b60405180910390fd5b818062000b9b9062001467565b925050808062000bab9062001467565b91505062000ad2565b508060018190555062000bd1600087858862000da760201b60201c565b505050505050565b600060015482109050919050565b50505050565b600062000c1b8473ffffffffffffffffffffffffffffffffffffffff1662000dad60201b620022a61760201c565b1562000d9a578373ffffffffffffffffffffffffffffffffffffffff1663150b7a0262000c4d620003c660201b60201c565b8786866040518563ffffffff1660e01b815260040162000c7194939291906200180b565b602060405180830381600087803b15801562000c8c57600080fd5b505af192505050801562000cc057506040513d601f19601f8201168201806040525081019062000cbd9190620018bc565b60015b62000d49573d806000811462000cf3576040519150601f19603f3d011682016040523d82523d6000602084013e62000cf8565b606091505b5060008151141562000d41576040517f08c379a000000000000000000000000000000000000000000000000000000000815260040162000d389062001736565b60405180910390fd5b805181602001fd5b63150b7a0260e01b7bffffffffffffffffffffffffffffffffffffffffffffffffffffffff1916817bffffffffffffffffffffffffffffffffffffffffffffffffffffffff19161491505062000d9f565b600190505b949350505050565b50505050565b600080823b905060008111915050919050565b82805462000dce906200191d565b90600052602060002090601f01602090048101928262000df2576000855562000e3e565b82601f1062000e0d57805160ff191683800117855562000e3e565b8280016001018555821562000e3e579182015b8281111562000e3d57825182559160200191906001019062000e20565b5b50905062000e4d919062000e51565b5090565b5b8082111562000e6c57600081600090555060010162000e52565b5090565b6000604051905090565b600080fd5b600080fd5b6000819050919050565b62000e998162000e84565b811462000ea557600080fd5b50565b60008151905062000eb98162000e8e565b92915050565b600080fd5b600080fd5b6000601f19601f8301169050919050565b7f4e487b7100000000000000000000000000000000000000000000000000000000600052604160045260246000fd5b62000f148262000ec9565b810181811067ffffffffffffffff8211171562000f365762000f3562000eda565b5b80604052505050565b600062000f4b62000e70565b905062000f59828262000f09565b919050565b600067ffffffffffffffff82111562000f7c5762000f7b62000eda565b5b62000f878262000ec9565b9050602081019050919050565b60005b8381101562000fb457808201518184015260208101905062000f97565b8381111562000fc4576000848401525b50505050565b600062000fe162000fdb8462000f5e565b62000f3f565b905082815260208101848484011115620010005762000fff62000ec4565b5b6200100d84828562000f94565b509392505050565b600082601f8301126200102d576200102c62000ebf565b5b81516200103f84826020860162000fca565b91505092915050565b600080600080600060a0868803121562001067576200106662000e7a565b5b6000620010778882890162000ea8565b95505060206200108a8882890162000ea8565b94505060406200109d8882890162000ea8565b9350506060620010b08882890162000ea8565b925050608086015167ffffffffffffffff811115620010d457620010d362000e7f565b5b620010e28882890162001015565b9150509295509295909350565b600082825260208201905092915050565b7f455243373231413a20636f6c6c656374696f6e206d757374206861766520612060008201527f6e6f6e7a65726f20737570706c79000000000000000000000000000000000000602082015250565b60006200115e602e83620010ef565b91506200116b8262001100565b604082019050919050565b6000602082019050818103600083015262001191816200114f565b9050919050565b7f455243373231413a206d61782062617463682073697a65206d7573742062652060008201527f6e6f6e7a65726f00000000000000000000000000000000000000000000000000602082015250565b6000620011f6602783620010ef565b9150620012038262001198565b604082019050919050565b600060208201905081810360008301526200122981620011e7565b9050919050565b7f6c617267657220636f6c6c656374696f6e2073697a65206e6565646564000000600082015250565b600062001268601d83620010ef565b9150620012758262001230565b602082019050919050565b600060208201905081810360008301526200129b8162001259565b9050919050565b7f4e487b7100000000000000000000000000000000000000000000000000000000600052603260045260246000fd5b7f4f776e61626c653a2063616c6c6572206973206e6f7420746865206f776e6572600082015250565b600062001309602083620010ef565b91506200131682620012d1565b602082019050919050565b600060208201905081810360008301526200133c81620012fa565b9050919050565b7f4e487b7100000000000000000000000000000000000000000000000000000000600052601160045260246000fd5b60006200137f8262000e84565b91506200138c8362000e84565b9250827fffffffffffffffffffffffffffffffffffffffffffffffffffffffffffffffff03821115620013c457620013c362001343565b5b828201905092915050565b7f746f6f206d616e7920616c7265616479206d696e746564206265666f7265206460008201527f6576206d696e7400000000000000000000000000000000000000000000000000602082015250565b60006200142d602783620010ef565b91506200143a82620013cf565b604082019050919050565b6000602082019050818103600083015262001460816200141e565b9050919050565b6000620014748262000e84565b91507fffffffffffffffffffffffffffffffffffffffffffffffffffffffffffffffff821415620014aa57620014a962001343565b5b600182019050919050565b7f455243373231413a206d696e7420746f20746865207a65726f2061646472657360008201527f7300000000000000000000000000000000000000000000000000000000000000602082015250565b600062001513602183620010ef565b91506200152082620014b5565b604082019050919050565b60006020820190508181036000830152620015468162001504565b9050919050565b7f455243373231413a20746f6b656e20616c7265616479206d696e746564000000600082015250565b600062001585601d83620010ef565b915062001592826200154d565b602082019050919050565b60006020820190508181036000830152620015b88162001576565b9050919050565b7f455243373231413a207175616e7469747920746f206d696e7420746f6f20686960008201527f6768000000000000000000000000000000000000000000000000000000000000602082015250565b60006200161d602283620010ef565b91506200162a82620015bf565b604082019050919050565b6000602082019050818103600083015262001650816200160e565b9050919050565b60006fffffffffffffffffffffffffffffffff82169050919050565b6000620016808262001657565b91506200168d8362001657565b9250826fffffffffffffffffffffffffffffffff03821115620016b557620016b462001343565b5b828201905092915050565b7f455243373231413a207472616e7366657220746f206e6f6e204552433732315260008201527f6563656976657220696d706c656d656e74657200000000000000000000000000602082015250565b60006200171e603383620010ef565b91506200172b82620016c0565b604082019050919050565b6000602082019050818103600083015262001751816200170f565b9050919050565b600073ffffffffffffffffffffffffffffffffffffffff82169050919050565b6000620017858262001758565b9050919050565b620017978162001778565b82525050565b620017a88162000e84565b82525050565b600081519050919050565b600082825260208201905092915050565b6000620017d782620017ae565b620017e38185620017b9565b9350620017f581856020860162000f94565b620018008162000ec9565b840191505092915050565b60006080820190506200182260008301876200178c565b6200183160208301866200178c565b6200184060408301856200179d565b8181036060830152620018548184620017ca565b905095945050505050565b60007fffffffff0000000000000000000000000000000000000000000000000000000082169050919050565b62001896816200185f565b8114620018a257600080fd5b50565b600081519050620018b6816200188b565b92915050565b600060208284031215620018d557620018d462000e7a565b5b6000620018e584828501620018a5565b91505092915050565b7f4e487b7100000000000000000000000000000000000000000000000000000000600052602260045260246000fd5b600060028204905060018216806200193657607f821691505b602082108114156200194d576200194c620018ee565b5b50919050565b60805160a05160c05160e05161010051610120516159d4620019db6000396000611b67015260008181611fa501526122840152600081816118600152611d58015260008181611acf0152611f05015260008181612c8601528181612caf0152613410015260008181611a5a01528181611ce301528181612a0e0152612a4201526159d46000f3fe6080604052600436106102255760003560e01c80639231ab2a11610123578063c180526a116100ab578063e9566bf61161006f578063e9566bf614610837578063e985e9c514610860578063f2c4ce1e1461089d578063f2fde38b146108c6578063fbe1aa51146108ef57610225565b8063c180526a1461074b578063c87b56dd14610767578063d7224ba0146107a4578063dc33e681146107cf578063e686801e1461080c57610225565b8063abdb297a116100f2578063abdb297a14610687578063b05863d5146106b2578063b3ab66b0146106db578063b5148d43146106f7578063b88d4fde1461072257610225565b80639231ab2a146105b957806395d89b41146105f6578063a22cb46514610621578063a7cd52cb1461064a57610225565b8063422030ba116101b15780635fd8c710116101755780635fd8c710146104e65780636352211e146104fd57806370a082311461053a578063715018a6146105775780638da5cb5b1461058e57610225565b8063422030ba146103dd57806342842e0e1461041a5780634d388a98146104435780634f6ccce71461048057806355f804b3146104bd57610225565b8063095ea7b3116101f8578063095ea7b3146102fa57806318160ddd1461032357806323b872dd1461034e5780632d20fb60146103775780632f745c59146103a057610225565b806301ffc9a71461022a57806306fdde0314610267578063081812fc14610292578063081c8c44146102cf575b600080fd5b34801561023657600080fd5b50610251600480360381019061024c91906139fd565b61091a565b60405161025e9190613a45565b60405180910390f35b34801561027357600080fd5b5061027c610a64565b6040516102899190613af9565b60405180910390f35b34801561029e57600080fd5b506102b960048036038101906102b49190613b51565b610af6565b6040516102c69190613bbf565b60405180910390f35b3480156102db57600080fd5b506102e4610b7b565b6040516102f19190613af9565b60405180910390f35b34801561030657600080fd5b50610321600480360381019061031c9190613c06565b610c09565b005b34801561032f57600080fd5b50610338610d22565b6040516103459190613c55565b60405180910390f35b34801561035a57600080fd5b5061037560048036038101906103709190613c70565b610d2c565b005b34801561038357600080fd5b5061039e60048036038101906103999190613b51565b610d3c565b005b3480156103ac57600080fd5b506103c760048036038101906103c29190613c06565b610e1a565b6040516103d49190613c55565b60405180910390f35b3480156103e957600080fd5b5061040460048036038101906103ff9190613cc3565b611018565b6040516104119190613a45565b60405180910390f35b34801561042657600080fd5b50610441600480360381019061043c9190613c70565b611040565b005b34801561044f57600080fd5b5061046a60048036038101906104659190613d16565b611060565b6040516104779190613c55565b60405180910390f35b34801561048c57600080fd5b506104a760048036038101906104a29190613b51565b611149565b6040516104b49190613c55565b60405180910390f35b3480156104c957600080fd5b506104e460048036038101906104df9190613da8565b61119c565b005b3480156104f257600080fd5b506104fb61122e565b005b34801561050957600080fd5b50610524600480360381019061051f9190613b51565b61146b565b6040516105319190613bbf565b60405180910390f35b34801561054657600080fd5b50610561600480360381019061055c9190613d16565b611481565b60405161056e9190613c55565b60405180910390f35b34801561058357600080fd5b5061058c61156a565b005b34801561059a57600080fd5b506105a36115f2565b6040516105b09190613bbf565b60405180910390f35b3480156105c557600080fd5b506105e060048036038101906105db9190613b51565b61161b565b6040516105ed9190613e56565b60405180910390f35b34801561060257600080fd5b5061060b611633565b6040516106189190613af9565b60405180910390f35b34801561062d57600080fd5b5061064860048036038101906106439190613e9d565b6116c5565b005b34801561065657600080fd5b50610671600480360381019061066c9190613d16565b611846565b60405161067e9190613c55565b60405180910390f35b34801561069357600080fd5b5061069c61185e565b6040516106a99190613c55565b60405180910390f35b3480156106be57600080fd5b506106d960048036038101906106d491906140de565b611882565b005b6106f560048036038101906106f09190613b51565b6119de565b005b34801561070357600080fd5b5061070c611b65565b6040516107199190613c55565b60405180910390f35b34801561072e57600080fd5b506107496004803603810190610744919061420b565b611b89565b005b61076560048036038101906107609190613b51565b611be5565b005b34801561077357600080fd5b5061078e60048036038101906107899190613b51565b611e44565b60405161079b9190613af9565b60405180910390f35b3480156107b057600080fd5b506107b9611eeb565b6040516107c69190613c55565b60405180910390f35b3480156107db57600080fd5b506107f660048036038101906107f19190613d16565b611ef1565b6040516108039190613c55565b60405180910390f35b34801561081857600080fd5b50610821611f03565b60405161082e9190613c55565b60405180910390f35b34801561084357600080fd5b5061085e6004803603810190610859919061428e565b611f27565b005b34801561086c57600080fd5b50610887600480360381019061088291906142ea565b612060565b6040516108949190613a45565b60405180910390f35b3480156108a957600080fd5b506108c460048036038101906108bf91906143cb565b6120f4565b005b3480156108d257600080fd5b506108ed60048036038101906108e89190613d16565b61218a565b005b3480156108fb57600080fd5b50610904612282565b6040516109119190613c55565b60405180910390f35b60007f80ac58cd000000000000000000000000000000000000000000000000000000007bffffffffffffffffffffffffffffffffffffffffffffffffffffffff1916827bffffffffffffffffffffffffffffffffffffffffffffffffffffffff191614806109e557507f5b5e139f000000000000000000000000000000000000000000000000000000007bffffffffffffffffffffffffffffffffffffffffffffffffffffffff1916827bffffffffffffffffffffffffffffffffffffffffffffffffffffffff1916145b80610a4d57507f780e9d63000000000000000000000000000000000000000000000000000000007bffffffffffffffffffffffffffffffffffffffffffffffffffffffff1916827bffffffffffffffffffffffffffffffffffffffffffffffffffffffff1916145b80610a5d5750610a5c826122b9565b5b9050919050565b606060028054610a7390614443565b80601f0160208091040260200160405190810160405280929190818152602001828054610a9f90614443565b8015610aec5780601f10610ac157610100808354040283529160200191610aec565b820191906000526020600020905b815481529060010190602001808311610acf57829003601f168201915b5050505050905090565b6000610b0182612323565b610b40576040517f08c379a0000000000000000000000000000000000000000000000000000000008152600401610b37906144e7565b60405180910390fd5b6006600083815260200190815260200160002060009054906101000a900473ffffffffffffffffffffffffffffffffffffffff169050919050565b600a8054610b8890614443565b80601f0160208091040260200160405190810160405280929190818152602001828054610bb490614443565b8015610c015780601f10610bd657610100808354040283529160200191610c01565b820191906000526020600020905b815481529060010190602001808311610be457829003601f168201915b505050505081565b6000610c148261146b565b90508073ffffffffffffffffffffffffffffffffffffffff168373ffffffffffffffffffffffffffffffffffffffff161415610c85576040517f08c379a0000000000000000000000000000000000000000000000000000000008152600401610c7c90614579565b60405180910390fd5b8073ffffffffffffffffffffffffffffffffffffffff16610ca4612331565b73ffffffffffffffffffffffffffffffffffffffff161480610cd35750610cd281610ccd612331565b612060565b5b610d12576040517f08c379a0000000000000000000000000000000000000000000000000000000008152600401610d099061460b565b60405180910390fd5b610d1d838383612339565b505050565b6000600154905090565b610d378383836123eb565b505050565b610d44612331565b73ffffffffffffffffffffffffffffffffffffffff16610d626115f2565b73ffffffffffffffffffffffffffffffffffffffff1614610db8576040517f08c379a0000000000000000000000000000000000000000000000000000000008152600401610daf90614677565b60405180910390fd5b60026009541415610dfe576040517f08c379a0000000000000000000000000000000000000000000000000000000008152600401610df5906146e3565b60405180910390fd5b6002600981905550610e0f816129a4565b600160098190555050565b6000610e2583611481565b8210610e66576040517f08c379a0000000000000000000000000000000000000000000000000000000008152600401610e5d90614775565b60405180910390fd5b6000610e70610d22565b905060008060005b83811015610fd6576000600460008381526020019081526020016000206040518060400160405290816000820160009054906101000a900473ffffffffffffffffffffffffffffffffffffffff1673ffffffffffffffffffffffffffffffffffffffff1673ffffffffffffffffffffffffffffffffffffffff1681526020016000820160149054906101000a900467ffffffffffffffff1667ffffffffffffffff1667ffffffffffffffff16815250509050600073ffffffffffffffffffffffffffffffffffffffff16816000015173ffffffffffffffffffffffffffffffffffffffff1614610f6a57806000015192505b8773ffffffffffffffffffffffffffffffffffffffff168373ffffffffffffffffffffffffffffffffffffffff161415610fc25786841415610fb3578195505050505050611012565b8380610fbe906147c4565b9450505b508080610fce906147c4565b915050610e78565b506040517f08c379a00000000000000000000000000000000000000000000000000000000081526004016110099061487f565b60405180910390fd5b92915050565b600080841415801561102b575060008314155b80156110375750814210155b90509392505050565b61105b83838360405180602001604052806000815250611b89565b505050565b60008073ffffffffffffffffffffffffffffffffffffffff168273ffffffffffffffffffffffffffffffffffffffff1614156110d1576040517f08c379a00000000000000000000000000000000000000000000000000000000081526004016110c890614911565b60405180910390fd5b600560008373ffffffffffffffffffffffffffffffffffffffff1673ffffffffffffffffffffffffffffffffffffffff16815260200190815260200160002060000160109054906101000a90046fffffffffffffffffffffffffffffffff166fffffffffffffffffffffffffffffffff169050919050565b6000611153610d22565b8210611194576040517f08c379a000000000000000000000000000000000000000000000000000000000815260040161118b906149a3565b60405180910390fd5b819050919050565b6111a4612331565b73ffffffffffffffffffffffffffffffffffffffff166111c26115f2565b73ffffffffffffffffffffffffffffffffffffffff1614611218576040517f08c379a000000000000000000000000000000000000000000000000000000000815260040161120f90614677565b60405180910390fd5b8181600c919061122992919061382e565b505050565b611236612331565b73ffffffffffffffffffffffffffffffffffffffff166112546115f2565b73ffffffffffffffffffffffffffffffffffffffff16146112aa576040517f08c379a00000000000000000000000000000000000000000000000000000000081526004016112a190614677565b60405180910390fd5b600060646021476112bb91906149c3565b6112c59190614a4c565b9050600073d61adc48afe9402b4411805ce6026ef74f94e71373ffffffffffffffffffffffffffffffffffffffff168260405161130190614aae565b60006040518083038185875af1925050503d806000811461133e576040519150601f19603f3d011682016040523d82523d6000602084013e611343565b606091505b505090508061135157600080fd5b600073e3ce04b3bcbdfa219407870ca617e18fbf503f2873ffffffffffffffffffffffffffffffffffffffff168360405161138b90614aae565b60006040518083038185875af1925050503d80600081146113c8576040519150601f19603f3d011682016040523d82523d6000602084013e6113cd565b606091505b50509050806113db57600080fd5b60007349cf0af1ce6a50e822a91a427b3e29007f9c6c0973ffffffffffffffffffffffffffffffffffffffff164760405161141590614aae565b60006040518083038185875af1925050503d8060008114611452576040519150601f19603f3d011682016040523d82523d6000602084013e611457565b606091505b505090508061146557600080fd5b50505050565b600061147682612c32565b600001519050919050565b60008073ffffffffffffffffffffffffffffffffffffffff168273ffffffffffffffffffffffffffffffffffffffff1614156114f2576040517f08c379a00000000000000000000000000000000000000000000000000000000081526004016114e990614b35565b60405180910390fd5b600560008373ffffffffffffffffffffffffffffffffffffffff1673ffffffffffffffffffffffffffffffffffffffff16815260200190815260200160002060000160009054906101000a90046fffffffffffffffffffffffffffffffff166fffffffffffffffffffffffffffffffff169050919050565b611572612331565b73ffffffffffffffffffffffffffffffffffffffff166115906115f2565b73ffffffffffffffffffffffffffffffffffffffff16146115e6576040517f08c379a00000000000000000000000000000000000000000000000000000000081526004016115dd90614677565b60405180910390fd5b6115f06000612e35565b565b60008060009054906101000a900473ffffffffffffffffffffffffffffffffffffffff16905090565b6116236138b4565b61162c82612c32565b9050919050565b60606003805461164290614443565b80601f016020809104026020016040519081016040528092919081815260200182805461166e90614443565b80156116bb5780601f10611690576101008083540402835291602001916116bb565b820191906000526020600020905b81548152906001019060200180831161169e57829003601f168201915b5050505050905090565b6116cd612331565b73ffffffffffffffffffffffffffffffffffffffff168273ffffffffffffffffffffffffffffffffffffffff16141561173b576040517f08c379a000000000000000000000000000000000000000000000000000000000815260040161173290614ba1565b60405180910390fd5b8060076000611748612331565b73ffffffffffffffffffffffffffffffffffffffff1673ffffffffffffffffffffffffffffffffffffffff16815260200190815260200160002060008473ffffffffffffffffffffffffffffffffffffffff1673ffffffffffffffffffffffffffffffffffffffff16815260200190815260200160002060006101000a81548160ff0219169083151502179055508173ffffffffffffffffffffffffffffffffffffffff166117f5612331565b73ffffffffffffffffffffffffffffffffffffffff167f17307eab39ab6107e8899845ad3d59bd9653f200f220920489ca2b5937696c318360405161183a9190613a45565b60405180910390a35050565b600b6020528060005260406000206000915090505481565b7f000000000000000000000000000000000000000000000000000000000000000081565b61188a612331565b73ffffffffffffffffffffffffffffffffffffffff166118a86115f2565b73ffffffffffffffffffffffffffffffffffffffff16146118fe576040517f08c379a00000000000000000000000000000000000000000000000000000000081526004016118f590614677565b60405180910390fd5b8051825114611942576040517f08c379a000000000000000000000000000000000000000000000000000000000815260040161193990614c33565b60405180910390fd5b60005b82518110156119d95781818151811061196157611960614c53565b5b6020026020010151600b60008584815181106119805761197f614c53565b5b602002602001015173ffffffffffffffffffffffffffffffffffffffff1673ffffffffffffffffffffffffffffffffffffffff1681526020019081526020016000208190555080806119d1906147c4565b915050611945565b505050565b3373ffffffffffffffffffffffffffffffffffffffff163273ffffffffffffffffffffffffffffffffffffffff1614611a4c576040517f08c379a0000000000000000000000000000000000000000000000000000000008152600401611a4390614cce565b60405180910390fd5b6000666a94d74f43000090507f000000000000000000000000000000000000000000000000000000000000000082611a82610d22565b611a8c9190614cee565b1115611acd576040517f08c379a0000000000000000000000000000000000000000000000000000000008152600401611ac490614d90565b60405180910390fd5b7f000000000000000000000000000000000000000000000000000000000000000082611af833611ef1565b611b029190614cee565b1115611b43576040517f08c379a0000000000000000000000000000000000000000000000000000000008152600401611b3a90614e22565b60405180910390fd5b611b4d3383612ef9565b611b618282611b5c91906149c3565b612f17565b5050565b7f000000000000000000000000000000000000000000000000000000000000000081565b611b948484846123eb565b611ba084848484612fb8565b611bdf576040517f08c379a0000000000000000000000000000000000000000000000000000000008152600401611bd690614eb4565b60405180910390fd5b50505050565b3373ffffffffffffffffffffffffffffffffffffffff163273ffffffffffffffffffffffffffffffffffffffff1614611c53576040517f08c379a0000000000000000000000000000000000000000000000000000000008152600401611c4a90614cce565b60405180910390fd5b6000666a94d74f43000090506000600b60003373ffffffffffffffffffffffffffffffffffffffff1673ffffffffffffffffffffffffffffffffffffffff1681526020019081526020016000205411611ce1576040517f08c379a0000000000000000000000000000000000000000000000000000000008152600401611cd890614f20565b60405180910390fd5b7f000000000000000000000000000000000000000000000000000000000000000082611d0b610d22565b611d159190614cee565b1115611d56576040517f08c379a0000000000000000000000000000000000000000000000000000000008152600401611d4d90614d90565b60405180910390fd5b7f000000000000000000000000000000000000000000000000000000000000000082611d8133611ef1565b611d8b9190614cee565b1115611dcc576040517f08c379a0000000000000000000000000000000000000000000000000000000008152600401611dc390614f8c565b60405180910390fd5b81600b60003373ffffffffffffffffffffffffffffffffffffffff1673ffffffffffffffffffffffffffffffffffffffff1681526020019081526020016000206000828254611e1b9190614fac565b92505081905550611e2c3383612ef9565b611e408282611e3b91906149c3565b612f17565b5050565b6060611e4f82612323565b611e8e576040517f08c379a0000000000000000000000000000000000000000000000000000000008152600401611e8590615052565b60405180910390fd5b6000611e9861314f565b90506000815111611eb85760405180602001604052806000815250611ee3565b80611ec2846131e1565b604051602001611ed39291906150ae565b6040516020818303038152906040525b915050919050565b60085481565b6000611efc82611060565b9050919050565b7f000000000000000000000000000000000000000000000000000000000000000081565b611f2f612331565b73ffffffffffffffffffffffffffffffffffffffff16611f4d6115f2565b73ffffffffffffffffffffffffffffffffffffffff1614611fa3576040517f08c379a0000000000000000000000000000000000000000000000000000000008152600401611f9a90614677565b60405180910390fd5b7f000000000000000000000000000000000000000000000000000000000000000081611fcd610d22565b611fd79190614cee565b1115612018576040517f08c379a000000000000000000000000000000000000000000000000000000000815260040161200f90615144565b60405180910390fd5b60005b825181101561205b5761204883828151811061203a57612039614c53565b5b602002602001015183612ef9565b8080612053906147c4565b91505061201b565b505050565b6000600760008473ffffffffffffffffffffffffffffffffffffffff1673ffffffffffffffffffffffffffffffffffffffff16815260200190815260200160002060008373ffffffffffffffffffffffffffffffffffffffff1673ffffffffffffffffffffffffffffffffffffffff16815260200190815260200160002060009054906101000a900460ff16905092915050565b6120fc612331565b73ffffffffffffffffffffffffffffffffffffffff1661211a6115f2565b73ffffffffffffffffffffffffffffffffffffffff1614612170576040517f08c379a000000000000000000000000000000000000000000000000000000000815260040161216790614677565b60405180910390fd5b80600a90805190602001906121869291906138ee565b5050565b612192612331565b73ffffffffffffffffffffffffffffffffffffffff166121b06115f2565b73ffffffffffffffffffffffffffffffffffffffff1614612206576040517f08c379a00000000000000000000000000000000000000000000000000000000081526004016121fd90614677565b60405180910390fd5b600073ffffffffffffffffffffffffffffffffffffffff168173ffffffffffffffffffffffffffffffffffffffff161415612276576040517f08c379a000000000000000000000000000000000000000000000000000000000815260040161226d906151d6565b60405180910390fd5b61227f81612e35565b50565b7f000000000000000000000000000000000000000000000000000000000000000081565b600080823b905060008111915050919050565b60007f01ffc9a7000000000000000000000000000000000000000000000000000000007bffffffffffffffffffffffffffffffffffffffffffffffffffffffff1916827bffffffffffffffffffffffffffffffffffffffffffffffffffffffff1916149050919050565b600060015482109050919050565b600033905090565b826006600084815260200190815260200160002060006101000a81548173ffffffffffffffffffffffffffffffffffffffff021916908373ffffffffffffffffffffffffffffffffffffffff160217905550818373ffffffffffffffffffffffffffffffffffffffff168273ffffffffffffffffffffffffffffffffffffffff167f8c5be1e5ebec7d5bd14f71427d1e84f3dd0314c0f7b2291e5b200ac8c7c3b92560405160405180910390a4505050565b60006123f682612c32565b90506000816000015173ffffffffffffffffffffffffffffffffffffffff1661241d612331565b73ffffffffffffffffffffffffffffffffffffffff1614806124795750612442612331565b73ffffffffffffffffffffffffffffffffffffffff1661246184610af6565b73ffffffffffffffffffffffffffffffffffffffff16145b806124955750612494826000015161248f612331565b612060565b5b9050806124d7576040517f08c379a00000000000000000000000000000000000000000000000000000000081526004016124ce90615268565b60405180910390fd5b8473ffffffffffffffffffffffffffffffffffffffff16826000015173ffffffffffffffffffffffffffffffffffffffff1614612549576040517f08c379a0000000000000000000000000000000000000000000000000000000008152600401612540906152fa565b60405180910390fd5b600073ffffffffffffffffffffffffffffffffffffffff168473ffffffffffffffffffffffffffffffffffffffff1614156125b9576040517f08c379a00000000000000000000000000000000000000000000000000000000081526004016125b09061538c565b60405180910390fd5b6125c68585856001613342565b6125d66000848460000151612339565b6001600560008773ffffffffffffffffffffffffffffffffffffffff1673ffffffffffffffffffffffffffffffffffffffff16815260200190815260200160002060000160008282829054906101000a90046fffffffffffffffffffffffffffffffff1661264491906153c8565b92506101000a8154816fffffffffffffffffffffffffffffffff02191690836fffffffffffffffffffffffffffffffff1602179055506001600560008673ffffffffffffffffffffffffffffffffffffffff1673ffffffffffffffffffffffffffffffffffffffff16815260200190815260200160002060000160008282829054906101000a90046fffffffffffffffffffffffffffffffff166126e891906153fc565b92506101000a8154816fffffffffffffffffffffffffffffffff02191690836fffffffffffffffffffffffffffffffff16021790555060405180604001604052808573ffffffffffffffffffffffffffffffffffffffff1681526020014267ffffffffffffffff168152506004600085815260200190815260200160002060008201518160000160006101000a81548173ffffffffffffffffffffffffffffffffffffffff021916908373ffffffffffffffffffffffffffffffffffffffff16021790555060208201518160000160146101000a81548167ffffffffffffffff021916908367ffffffffffffffff16021790555090505060006001846127ee9190614cee565b9050600073ffffffffffffffffffffffffffffffffffffffff166004600083815260200190815260200160002060000160009054906101000a900473ffffffffffffffffffffffffffffffffffffffff1673ffffffffffffffffffffffffffffffffffffffff1614156129345761286481612323565b15612933576040518060400160405280846000015173ffffffffffffffffffffffffffffffffffffffff168152602001846020015167ffffffffffffffff168152506004600083815260200190815260200160002060008201518160000160006101000a81548173ffffffffffffffffffffffffffffffffffffffff021916908373ffffffffffffffffffffffffffffffffffffffff16021790555060208201518160000160146101000a81548167ffffffffffffffff021916908367ffffffffffffffff1602179055509050505b5b838573ffffffffffffffffffffffffffffffffffffffff168773ffffffffffffffffffffffffffffffffffffffff167fddf252ad1be2c89b69c2b068fc378daa952ba7f163c4a11628f55a4df523b3ef60405160405180910390a461299c8686866001613348565b505050505050565b60006008549050600082116129ee576040517f08c379a00000000000000000000000000000000000000000000000000000000081526004016129e59061548e565b60405180910390fd5b6000600183836129fe9190614cee565b612a089190614fac565b905060017f0000000000000000000000000000000000000000000000000000000000000000612a379190614fac565b811115612a6e5760017f0000000000000000000000000000000000000000000000000000000000000000612a6b9190614fac565b90505b612a7781612323565b612ab6576040517f08c379a0000000000000000000000000000000000000000000000000000000008152600401612aad90615520565b60405180910390fd5b60008290505b818111612c1957600073ffffffffffffffffffffffffffffffffffffffff166004600083815260200190815260200160002060000160009054906101000a900473ffffffffffffffffffffffffffffffffffffffff1673ffffffffffffffffffffffffffffffffffffffff161415612c06576000612b3982612c32565b90506040518060400160405280826000015173ffffffffffffffffffffffffffffffffffffffff168152602001826020015167ffffffffffffffff168152506004600084815260200190815260200160002060008201518160000160006101000a81548173ffffffffffffffffffffffffffffffffffffffff021916908373ffffffffffffffffffffffffffffffffffffffff16021790555060208201518160000160146101000a81548167ffffffffffffffff021916908367ffffffffffffffff160217905550905050505b8080612c11906147c4565b915050612abc565b50600181612c279190614cee565b600881905550505050565b612c3a6138b4565b612c4382612323565b612c82576040517f08c379a0000000000000000000000000000000000000000000000000000000008152600401612c79906155b2565b60405180910390fd5b60007f00000000000000000000000000000000000000000000000000000000000000008310612ce65760017f000000000000000000000000000000000000000000000000000000000000000084612cd99190614fac565b612ce39190614cee565b90505b60008390505b818110612df4576000600460008381526020019081526020016000206040518060400160405290816000820160009054906101000a900473ffffffffffffffffffffffffffffffffffffffff1673ffffffffffffffffffffffffffffffffffffffff1673ffffffffffffffffffffffffffffffffffffffff1681526020016000820160149054906101000a900467ffffffffffffffff1667ffffffffffffffff1667ffffffffffffffff16815250509050600073ffffffffffffffffffffffffffffffffffffffff16816000015173ffffffffffffffffffffffffffffffffffffffff1614612de057809350505050612e30565b508080612dec906155d2565b915050612cec565b506040517f08c379a0000000000000000000000000000000000000000000000000000000008152600401612e279061566e565b60405180910390fd5b919050565b60008060009054906101000a900473ffffffffffffffffffffffffffffffffffffffff169050816000806101000a81548173ffffffffffffffffffffffffffffffffffffffff021916908373ffffffffffffffffffffffffffffffffffffffff1602179055508173ffffffffffffffffffffffffffffffffffffffff168173ffffffffffffffffffffffffffffffffffffffff167f8be0079c531659141344cd1fd0a4f28419497f9722a3daafe3b4186f6b6457e060405160405180910390a35050565b612f1382826040518060200160405280600081525061334e565b5050565b80341015612f5a576040517f08c379a0000000000000000000000000000000000000000000000000000000008152600401612f51906156da565b60405180910390fd5b80341115612fb5573373ffffffffffffffffffffffffffffffffffffffff166108fc8234612f889190614fac565b9081150290604051600060405180830381858888f19350505050158015612fb3573d6000803e3d6000fd5b505b50565b6000612fd98473ffffffffffffffffffffffffffffffffffffffff166122a6565b15613142578373ffffffffffffffffffffffffffffffffffffffff1663150b7a02613002612331565b8786866040518563ffffffff1660e01b8152600401613024949392919061574f565b602060405180830381600087803b15801561303e57600080fd5b505af192505050801561306f57506040513d601f19601f8201168201806040525081019061306c91906157b0565b60015b6130f2573d806000811461309f576040519150601f19603f3d011682016040523d82523d6000602084013e6130a4565b606091505b506000815114156130ea576040517f08c379a00000000000000000000000000000000000000000000000000000000081526004016130e190614eb4565b60405180910390fd5b805181602001fd5b63150b7a0260e01b7bffffffffffffffffffffffffffffffffffffffffffffffffffffffff1916817bffffffffffffffffffffffffffffffffffffffffffffffffffffffff191614915050613147565b600190505b949350505050565b6060600c805461315e90614443565b80601f016020809104026020016040519081016040528092919081815260200182805461318a90614443565b80156131d75780601f106131ac576101008083540402835291602001916131d7565b820191906000526020600020905b8154815290600101906020018083116131ba57829003601f168201915b5050505050905090565b60606000821415613229576040518060400160405280600181526020017f3000000000000000000000000000000000000000000000000000000000000000815250905061333d565b600082905060005b6000821461325b578080613244906147c4565b915050600a826132549190614a4c565b9150613231565b60008167ffffffffffffffff81111561327757613276613edd565b5b6040519080825280601f01601f1916602001820160405280156132a95781602001600182028036833780820191505090505b5090505b60008514613336576001826132c29190614fac565b9150600a856132d191906157dd565b60306132dd9190614cee565b60f81b8183815181106132f3576132f2614c53565b5b60200101907effffffffffffffffffffffffffffffffffffffffffffffffffffffffffffff1916908160001a905350600a8561332f9190614a4c565b94506132ad565b8093505050505b919050565b50505050565b50505050565b60006001549050600073ffffffffffffffffffffffffffffffffffffffff168473ffffffffffffffffffffffffffffffffffffffff1614156133c5576040517f08c379a00000000000000000000000000000000000000000000000000000000081526004016133bc90615880565b60405180910390fd5b6133ce81612323565b1561340e576040517f08c379a0000000000000000000000000000000000000000000000000000000008152600401613405906158ec565b60405180910390fd5b7f0000000000000000000000000000000000000000000000000000000000000000831115613471576040517f08c379a00000000000000000000000000000000000000000000000000000000081526004016134689061597e565b60405180910390fd5b61347e6000858386613342565b6000600560008673ffffffffffffffffffffffffffffffffffffffff1673ffffffffffffffffffffffffffffffffffffffff1681526020019081526020016000206040518060400160405290816000820160009054906101000a90046fffffffffffffffffffffffffffffffff166fffffffffffffffffffffffffffffffff166fffffffffffffffffffffffffffffffff1681526020016000820160109054906101000a90046fffffffffffffffffffffffffffffffff166fffffffffffffffffffffffffffffffff166fffffffffffffffffffffffffffffffff16815250509050604051806040016040528085836000015161357b91906153fc565b6fffffffffffffffffffffffffffffffff1681526020018583602001516135a291906153fc565b6fffffffffffffffffffffffffffffffff16815250600560008773ffffffffffffffffffffffffffffffffffffffff1673ffffffffffffffffffffffffffffffffffffffff16815260200190815260200160002060008201518160000160006101000a8154816fffffffffffffffffffffffffffffffff02191690836fffffffffffffffffffffffffffffffff16021790555060208201518160000160106101000a8154816fffffffffffffffffffffffffffffffff02191690836fffffffffffffffffffffffffffffffff16021790555090505060405180604001604052808673ffffffffffffffffffffffffffffffffffffffff1681526020014267ffffffffffffffff168152506004600084815260200190815260200160002060008201518160000160006101000a81548173ffffffffffffffffffffffffffffffffffffffff021916908373ffffffffffffffffffffffffffffffffffffffff16021790555060208201518160000160146101000a81548167ffffffffffffffff021916908367ffffffffffffffff160217905550905050600082905060005b8581101561381157818773ffffffffffffffffffffffffffffffffffffffff16600073ffffffffffffffffffffffffffffffffffffffff167fddf252ad1be2c89b69c2b068fc378daa952ba7f163c4a11628f55a4df523b3ef60405160405180910390a46137b16000888488612fb8565b6137f0576040517f08c379a00000000000000000000000000000000000000000000000000000000081526004016137e790614eb4565b60405180910390fd5b81806137fb906147c4565b9250508080613809906147c4565b915050613740565b50806001819055506138266000878588613348565b505050505050565b82805461383a90614443565b90600052602060002090601f01602090048101928261385c57600085556138a3565b82601f1061387557803560ff19168380011785556138a3565b828001600101855582156138a3579182015b828111156138a2578235825591602001919060010190613887565b5b5090506138b09190613974565b5090565b6040518060400160405280600073ffffffffffffffffffffffffffffffffffffffff168152602001600067ffffffffffffffff1681525090565b8280546138fa90614443565b90600052602060002090601f01602090048101928261391c5760008555613963565b82601f1061393557805160ff1916838001178555613963565b82800160010185558215613963579182015b82811115613962578251825591602001919060010190613947565b5b5090506139709190613974565b5090565b5b8082111561398d576000816000905550600101613975565b5090565b6000604051905090565b600080fd5b600080fd5b60007fffffffff0000000000000000000000000000000000000000000000000000000082169050919050565b6139da816139a5565b81146139e557600080fd5b50565b6000813590506139f7816139d1565b92915050565b600060208284031215613a1357613a1261399b565b5b6000613a21848285016139e8565b91505092915050565b60008115159050919050565b613a3f81613a2a565b82525050565b6000602082019050613a5a6000830184613a36565b92915050565b600081519050919050565b600082825260208201905092915050565b60005b83811015613a9a578082015181840152602081019050613a7f565b83811115613aa9576000848401525b50505050565b6000601f19601f8301169050919050565b6000613acb82613a60565b613ad58185613a6b565b9350613ae5818560208601613a7c565b613aee81613aaf565b840191505092915050565b60006020820190508181036000830152613b138184613ac0565b905092915050565b6000819050919050565b613b2e81613b1b565b8114613b3957600080fd5b50565b600081359050613b4b81613b25565b92915050565b600060208284031215613b6757613b6661399b565b5b6000613b7584828501613b3c565b91505092915050565b600073ffffffffffffffffffffffffffffffffffffffff82169050919050565b6000613ba982613b7e565b9050919050565b613bb981613b9e565b82525050565b6000602082019050613bd46000830184613bb0565b92915050565b613be381613b9e565b8114613bee57600080fd5b50565b600081359050613c0081613bda565b92915050565b60008060408385031215613c1d57613c1c61399b565b5b6000613c2b85828601613bf1565b9250506020613c3c85828601613b3c565b9150509250929050565b613c4f81613b1b565b82525050565b6000602082019050613c6a6000830184613c46565b92915050565b600080600060608486031215613c8957613c8861399b565b5b6000613c9786828701613bf1565b9350506020613ca886828701613bf1565b9250506040613cb986828701613b3c565b9150509250925092565b600080600060608486031215613cdc57613cdb61399b565b5b6000613cea86828701613b3c565b9350506020613cfb86828701613b3c565b9250506040613d0c86828701613b3c565b9150509250925092565b600060208284031215613d2c57613d2b61399b565b5b6000613d3a84828501613bf1565b91505092915050565b600080fd5b600080fd5b600080fd5b60008083601f840112613d6857613d67613d43565b5b8235905067ffffffffffffffff811115613d8557613d84613d48565b5b602083019150836001820283011115613da157613da0613d4d565b5b9250929050565b60008060208385031215613dbf57613dbe61399b565b5b600083013567ffffffffffffffff811115613ddd57613ddc6139a0565b5b613de985828601613d52565b92509250509250929050565b613dfe81613b9e565b82525050565b600067ffffffffffffffff82169050919050565b613e2181613e04565b82525050565b604082016000820151613e3d6000850182613df5565b506020820151613e506020850182613e18565b50505050565b6000604082019050613e6b6000830184613e27565b92915050565b613e7a81613a2a565b8114613e8557600080fd5b50565b600081359050613e9781613e71565b92915050565b60008060408385031215613eb457613eb361399b565b5b6000613ec285828601613bf1565b9250506020613ed385828601613e88565b9150509250929050565b7f4e487b7100000000000000000000000000000000000000000000000000000000600052604160045260246000fd5b613f1582613aaf565b810181811067ffffffffffffffff82111715613f3457613f33613edd565b5b80604052505050565b6000613f47613991565b9050613f538282613f0c565b919050565b600067ffffffffffffffff821115613f7357613f72613edd565b5b602082029050602081019050919050565b6000613f97613f9284613f58565b613f3d565b90508083825260208201905060208402830185811115613fba57613fb9613d4d565b5b835b81811015613fe35780613fcf8882613bf1565b845260208401935050602081019050613fbc565b5050509392505050565b600082601f83011261400257614001613d43565b5b8135614012848260208601613f84565b91505092915050565b600067ffffffffffffffff82111561403657614035613edd565b5b602082029050602081019050919050565b600061405a6140558461401b565b613f3d565b9050808382526020820190506020840283018581111561407d5761407c613d4d565b5b835b818110156140a657806140928882613b3c565b84526020840193505060208101905061407f565b5050509392505050565b600082601f8301126140c5576140c4613d43565b5b81356140d5848260208601614047565b91505092915050565b600080604083850312156140f5576140f461399b565b5b600083013567ffffffffffffffff811115614113576141126139a0565b5b61411f85828601613fed565b925050602083013567ffffffffffffffff8111156141405761413f6139a0565b5b61414c858286016140b0565b9150509250929050565b600080fd5b600067ffffffffffffffff82111561417657614175613edd565b5b61417f82613aaf565b9050602081019050919050565b82818337600083830152505050565b60006141ae6141a98461415b565b613f3d565b9050828152602081018484840111156141ca576141c9614156565b5b6141d584828561418c565b509392505050565b600082601f8301126141f2576141f1613d43565b5b813561420284826020860161419b565b91505092915050565b600080600080608085870312156142255761422461399b565b5b600061423387828801613bf1565b945050602061424487828801613bf1565b935050604061425587828801613b3c565b925050606085013567ffffffffffffffff811115614276576142756139a0565b5b614282878288016141dd565b91505092959194509250565b600080604083850312156142a5576142a461399b565b5b600083013567ffffffffffffffff8111156142c3576142c26139a0565b5b6142cf85828601613fed565b92505060206142e085828601613b3c565b9150509250929050565b600080604083850312156143015761430061399b565b5b600061430f85828601613bf1565b925050602061432085828601613bf1565b9150509250929050565b600067ffffffffffffffff82111561434557614344613edd565b5b61434e82613aaf565b9050602081019050919050565b600061436e6143698461432a565b613f3d565b90508281526020810184848401111561438a57614389614156565b5b61439584828561418c565b509392505050565b600082601f8301126143b2576143b1613d43565b5b81356143c284826020860161435b565b91505092915050565b6000602082840312156143e1576143e061399b565b5b600082013567ffffffffffffffff8111156143ff576143fe6139a0565b5b61440b8482850161439d565b91505092915050565b7f4e487b7100000000000000000000000000000000000000000000000000000000600052602260045260246000fd5b6000600282049050600182168061445b57607f821691505b6020821081141561446f5761446e614414565b5b50919050565b7f455243373231413a20617070726f76656420717565727920666f72206e6f6e6560008201527f78697374656e7420746f6b656e00000000000000000000000000000000000000602082015250565b60006144d1602d83613a6b565b91506144dc82614475565b604082019050919050565b60006020820190508181036000830152614500816144c4565b9050919050565b7f455243373231413a20617070726f76616c20746f2063757272656e74206f776e60008201527f6572000000000000000000000000000000000000000000000000000000000000602082015250565b6000614563602283613a6b565b915061456e82614507565b604082019050919050565b6000602082019050818103600083015261459281614556565b9050919050565b7f455243373231413a20617070726f76652063616c6c6572206973206e6f74206f60008201527f776e6572206e6f7220617070726f76656420666f7220616c6c00000000000000602082015250565b60006145f5603983613a6b565b915061460082614599565b604082019050919050565b60006020820190508181036000830152614624816145e8565b9050919050565b7f4f776e61626c653a2063616c6c6572206973206e6f7420746865206f776e6572600082015250565b6000614661602083613a6b565b915061466c8261462b565b602082019050919050565b6000602082019050818103600083015261469081614654565b9050919050565b7f5265656e7472616e637947756172643a207265656e7472616e742063616c6c00600082015250565b60006146cd601f83613a6b565b91506146d882614697565b602082019050919050565b600060208201905081810360008301526146fc816146c0565b9050919050565b7f455243373231413a206f776e657220696e646578206f7574206f6620626f756e60008201527f6473000000000000000000000000000000000000000000000000000000000000602082015250565b600061475f602283613a6b565b915061476a82614703565b604082019050919050565b6000602082019050818103600083015261478e81614752565b9050919050565b7f4e487b7100000000000000000000000000000000000000000000000000000000600052601160045260246000fd5b60006147cf82613b1b565b91507fffffffffffffffffffffffffffffffffffffffffffffffffffffffffffffffff82141561480257614801614795565b5b600182019050919050565b7f455243373231413a20756e61626c6520746f2067657420746f6b656e206f662060008201527f6f776e657220627920696e646578000000000000000000000000000000000000602082015250565b6000614869602e83613a6b565b91506148748261480d565b604082019050919050565b600060208201905081810360008301526148988161485c565b9050919050565b7f455243373231413a206e756d626572206d696e74656420717565727920666f7260008201527f20746865207a65726f2061646472657373000000000000000000000000000000602082015250565b60006148fb603183613a6b565b91506149068261489f565b604082019050919050565b6000602082019050818103600083015261492a816148ee565b9050919050565b7f455243373231413a20676c6f62616c20696e646578206f7574206f6620626f7560008201527f6e64730000000000000000000000000000000000000000000000000000000000602082015250565b600061498d602383613a6b565b915061499882614931565b604082019050919050565b600060208201905081810360008301526149bc81614980565b9050919050565b60006149ce82613b1b565b91506149d983613b1b565b9250817fffffffffffffffffffffffffffffffffffffffffffffffffffffffffffffffff0483118215151615614a1257614a11614795565b5b828202905092915050565b7f4e487b7100000000000000000000000000000000000000000000000000000000600052601260045260246000fd5b6000614a5782613b1b565b9150614a6283613b1b565b925082614a7257614a71614a1d565b5b828204905092915050565b600081905092915050565b50565b6000614a98600083614a7d565b9150614aa382614a88565b600082019050919050565b6000614ab982614a8b565b9150819050919050565b7f455243373231413a2062616c616e636520717565727920666f7220746865207a60008201527f65726f2061646472657373000000000000000000000000000000000000000000602082015250565b6000614b1f602b83613a6b565b9150614b2a82614ac3565b604082019050919050565b60006020820190508181036000830152614b4e81614b12565b9050919050565b7f455243373231413a20617070726f766520746f2063616c6c6572000000000000600082015250565b6000614b8b601a83613a6b565b9150614b9682614b55565b602082019050919050565b60006020820190508181036000830152614bba81614b7e565b9050919050565b7f61646472657373657320646f6573206e6f74206d61746368206e756d536c6f7460008201527f73206c656e677468000000000000000000000000000000000000000000000000602082015250565b6000614c1d602883613a6b565b9150614c2882614bc1565b604082019050919050565b60006020820190508181036000830152614c4c81614c10565b9050919050565b7f4e487b7100000000000000000000000000000000000000000000000000000000600052603260045260246000fd5b7f5468652063616c6c657220697320616e6f7468657220636f6e74726163740000600082015250565b6000614cb8601e83613a6b565b9150614cc382614c82565b602082019050919050565b60006020820190508181036000830152614ce781614cab565b9050919050565b6000614cf982613b1b565b9150614d0483613b1b565b9250827fffffffffffffffffffffffffffffffffffffffffffffffffffffffffffffffff03821115614d3957614d38614795565b5b828201905092915050565b7f6578636565646564206d617820737570706c7900000000000000000000000000600082015250565b6000614d7a601383613a6b565b9150614d8582614d44565b602082019050919050565b60006020820190508181036000830152614da981614d6d565b9050919050565b7f7075626c69632073616c65206d696e74696e67206c696d69742065786365656460008201527f6564000000000000000000000000000000000000000000000000000000000000602082015250565b6000614e0c602283613a6b565b9150614e1782614db0565b604082019050919050565b60006020820190508181036000830152614e3b81614dff565b9050919050565b7f455243373231413a207472616e7366657220746f206e6f6e204552433732315260008201527f6563656976657220696d706c656d656e74657200000000000000000000000000602082015250565b6000614e9e603383613a6b565b9150614ea982614e42565b604082019050919050565b60006020820190508181036000830152614ecd81614e91565b9050919050565b7f6e6f7420656c696769626c6520666f722077686974656c697374206d696e7400600082015250565b6000614f0a601f83613a6b565b9150614f1582614ed4565b602082019050919050565b60006020820190508181036000830152614f3981614efd565b9050919050565b7f6d696e7420616d6f756e7420657863656564732077686974656c697374000000600082015250565b6000614f76601d83613a6b565b9150614f8182614f40565b602082019050919050565b60006020820190508181036000830152614fa581614f69565b9050919050565b6000614fb782613b1b565b9150614fc283613b1b565b925082821015614fd557614fd4614795565b5b828203905092915050565b7f4552433732314d657461646174613a2055524920717565727920666f72206e6f60008201527f6e6578697374656e7420746f6b656e0000000000000000000000000000000000602082015250565b600061503c602f83613a6b565b915061504782614fe0565b604082019050919050565b6000602082019050818103600083015261506b8161502f565b9050919050565b600081905092915050565b600061508882613a60565b6150928185615072565b93506150a2818560208601613a7c565b80840191505092915050565b60006150ba828561507d565b91506150c6828461507d565b91508190509392505050565b7f746f6f206d616e7920616c7265616479206d696e746564206265666f7265206460008201527f6576206d696e7400000000000000000000000000000000000000000000000000602082015250565b600061512e602783613a6b565b9150615139826150d2565b604082019050919050565b6000602082019050818103600083015261515d81615121565b9050919050565b7f4f776e61626c653a206e6577206f776e657220697320746865207a65726f206160008201527f6464726573730000000000000000000000000000000000000000000000000000602082015250565b60006151c0602683613a6b565b91506151cb82615164565b604082019050919050565b600060208201905081810360008301526151ef816151b3565b9050919050565b7f455243373231413a207472616e736665722063616c6c6572206973206e6f742060008201527f6f776e6572206e6f7220617070726f7665640000000000000000000000000000602082015250565b6000615252603283613a6b565b915061525d826151f6565b604082019050919050565b6000602082019050818103600083015261528181615245565b9050919050565b7f455243373231413a207472616e736665722066726f6d20696e636f727265637460008201527f206f776e65720000000000000000000000000000000000000000000000000000602082015250565b60006152e4602683613a6b565b91506152ef82615288565b604082019050919050565b60006020820190508181036000830152615313816152d7565b9050919050565b7f455243373231413a207472616e7366657220746f20746865207a65726f20616460008201527f6472657373000000000000000000000000000000000000000000000000000000602082015250565b6000615376602583613a6b565b91506153818261531a565b604082019050919050565b600060208201905081810360008301526153a581615369565b9050919050565b60006fffffffffffffffffffffffffffffffff82169050919050565b60006153d3826153ac565b91506153de836153ac565b9250828210156153f1576153f0614795565b5b828203905092915050565b6000615407826153ac565b9150615412836153ac565b9250826fffffffffffffffffffffffffffffffff0382111561543757615436614795565b5b828201905092915050565b7f7175616e74697479206d757374206265206e6f6e7a65726f0000000000000000600082015250565b6000615478601883613a6b565b915061548382615442565b602082019050919050565b600060208201905081810360008301526154a78161546b565b9050919050565b7f6e6f7420656e6f756768206d696e7465642079657420666f722074686973206360008201527f6c65616e75700000000000000000000000000000000000000000000000000000602082015250565b600061550a602683613a6b565b9150615515826154ae565b604082019050919050565b60006020820190508181036000830152615539816154fd565b9050919050565b7f455243373231413a206f776e657220717565727920666f72206e6f6e6578697360008201527f74656e7420746f6b656e00000000000000000000000000000000000000000000602082015250565b600061559c602a83613a6b565b91506155a782615540565b604082019050919050565b600060208201905081810360008301526155cb8161558f565b9050919050565b60006155dd82613b1b565b915060008214156155f1576155f0614795565b5b600182039050919050565b7f455243373231413a20756e61626c6520746f2064657465726d696e652074686560008201527f206f776e6572206f6620746f6b656e0000000000000000000000000000000000602082015250565b6000615658602f83613a6b565b9150615663826155fc565b604082019050919050565b600060208201905081810360008301526156878161564b565b9050919050565b7f4e65656420746f2073656e64206d6f7265204554480000000000000000000000600082015250565b60006156c4601583613a6b565b91506156cf8261568e565b602082019050919050565b600060208201905081810360008301526156f3816156b7565b9050919050565b600081519050919050565b600082825260208201905092915050565b6000615721826156fa565b61572b8185615705565b935061573b818560208601613a7c565b61574481613aaf565b840191505092915050565b60006080820190506157646000830187613bb0565b6157716020830186613bb0565b61577e6040830185613c46565b81810360608301526157908184615716565b905095945050505050565b6000815190506157aa816139d1565b92915050565b6000602082840312156157c6576157c561399b565b5b60006157d48482850161579b565b91505092915050565b60006157e882613b1b565b91506157f383613b1b565b92508261580357615802614a1d565b5b828206905092915050565b7f455243373231413a206d696e7420746f20746865207a65726f2061646472657360008201527f7300000000000000000000000000000000000000000000000000000000000000602082015250565b600061586a602183613a6b565b91506158758261580e565b604082019050919050565b600060208201905081810360008301526158998161585d565b9050919050565b7f455243373231413a20746f6b656e20616c7265616479206d696e746564000000600082015250565b60006158d6601d83613a6b565b91506158e1826158a0565b602082019050919050565b60006020820190508181036000830152615905816158c9565b9050919050565b7f455243373231413a207175616e7469747920746f206d696e7420746f6f20686960008201527f6768000000000000000000000000000000000000000000000000000000000000602082015250565b6000615968602283613a6b565b91506159738261590c565b604082019050919050565b600060208201905081810360008301526159978161595b565b905091905056fea264697066735822122044d4bab829f7b3f8f9134b314edf8d574717dcbf29b68ff58b601072316b65ae64736f6c63430008090033",
  "immutableReferences": {
    "936": [
      {
        "length": 32,
        "start": 6746
      },
      {
        "length": 32,
        "start": 7395
      },
      {
        "length": 32,
        "start": 10766
      },
      {
        "length": 32,
        "start": 10818
      }
    ],
    "938": [
      {
        "length": 32,
        "start": 11398
      },
      {
        "length": 32,
        "start": 11439
      },
      {
        "length": 32,
        "start": 13328
      }
    ],
    "2103": [
      {
        "length": 32,
        "start": 6863
      },
      {
        "length": 32,
        "start": 7941
      }
    ],
    "2106": [
      {
        "length": 32,
        "start": 6240
      },
      {
        "length": 32,
        "start": 7512
      }
    ],
    "2108": [
      {
        "length": 32,
        "start": 8101
      },
      {
        "length": 32,
        "start": 8836
      }
    ],
    "2110": [
      {
        "length": 32,
        "start": 7015
      }
    ]
  },
  "source": "// SPDX-License-Identifier: MIT\n\npragma solidity ^0.8.0;\n\nimport \"@openzeppelin/contracts/access/Ownable.sol\";\nimport \"@openzeppelin/contracts/security/ReentrancyGuard.sol\";\nimport \"./ERC721A.sol\";\nimport \"@openzeppelin/contracts/utils/Strings.sol\";\n\ncontract YetiPunks is Ownable, ERC721A, ReentrancyGuard {\n    uint256 public immutable maxPerAddressDuringPublicSale;\n    uint256 public immutable maxPerAddressDuringPresale = 5;\n    uint256 public immutable amountForDevs;\n    uint256 public immutable amountForGiveaway;\n    string public notRevealedUri;\n\n    mapping(address => uint256) public allowlist; //seed this with the uint being 5\n\n    constructor(\n        uint256 maxBatchSize_,\n        uint256 collectionSize_,\n        uint256 amountForGiveaway_,\n        uint256 amountForDevs_,\n        string memory _initNotRevealedUri\n    ) ERC721A(\"Petty Monks\", \"PM\", maxBatchSize_, collectionSize_) {\n        maxPerAddressDuringPublicSale = maxBatchSize_;\n        amountForGiveaway = amountForGiveaway_;\n        amountForDevs = amountForDevs_;\n        require(\n            amountForGiveaway_ <= collectionSize_,\n            \"larger collection size needed\"\n        );\n        setNotRevealedURI(_initNotRevealedUri);\n        address[] memory devAddresses = new address[](3);\n        devAddresses[0] = 0xD61ADc48afE9402B4411805Ce6026eF74F94E713;\n        devAddresses[1] = 0xE3Ce04B3BcbdFa219407870Ca617e18fBF503F28;\n        devAddresses[2] = 0x49Cf0aF1cE6a50e822A91a427B3E29007f9C6C09;\n        devMint(devAddresses, 7);\n    }\n\n    modifier callerIsUser() {\n        require(tx.origin == msg.sender, \"The caller is another contract\");\n        _;\n    }\n\n    function allowlistMint(uint256 quantity) external payable callerIsUser {\n        uint256 price = 0.03 ether;\n        require(allowlist[msg.sender] > 0, \"not eligible for whitelist mint\");\n        require(\n            totalSupply() + quantity <= collectionSize,\n            \"exceeded max supply\"\n        ); //is this possible?\n        require(\n            numberMinted(msg.sender) + quantity <= maxPerAddressDuringPresale,\n            \"mint amount exceeds whitelist\"\n        );\n        allowlist[msg.sender] -= quantity;\n        _safeMint(msg.sender, quantity);\n        refundIfOver(price * quantity);\n    }\n\n    function publicSaleMint(uint256 quantity) external payable callerIsUser {\n        uint256 publicPrice = 0.03 ether;\n        require(\n            totalSupply() + quantity <= collectionSize,\n            \"exceeded max supply\"\n        );\n        require(\n            numberMinted(msg.sender) + quantity <=\n                maxPerAddressDuringPublicSale,\n            \"public sale minting limit exceeded\"\n        );\n        _safeMint(msg.sender, quantity);\n        refundIfOver(publicPrice * quantity);\n    }\n\n    function refundIfOver(uint256 price) private {\n        require(msg.value >= price, \"Need to send more ETH\");\n        if (msg.value > price) {\n            payable(msg.sender).transfer(msg.value - price);\n        }\n    }\n\n    function isPublicSaleOn(\n        uint256 publicPriceWei,\n        uint256 publicSaleKey,\n        uint256 publicSaleStartTime\n    ) public view returns (bool) {\n        return\n            publicPriceWei != 0 &&\n            publicSaleKey != 0 &&\n            block.timestamp >= publicSaleStartTime;\n    }\n\n    function seedAllowlist(\n        address[] memory addresses,\n        uint256[] memory numSlots\n    ) external onlyOwner {\n        require(\n            addresses.length == numSlots.length,\n            \"addresses does not match numSlots length\"\n        );\n        for (uint256 i = 0; i < addresses.length; i++) {\n            allowlist[addresses[i]] = numSlots[i];\n        }\n    }\n\n    // For marketing etc.\n    function devMint(address[] memory receiverAddresses, uint256 mintAmount)\n        public\n        onlyOwner\n    {\n        require(\n            totalSupply() + mintAmount <= amountForDevs,\n            \"too many already minted before dev mint\"\n        );\n\n        for (uint256 i = 0; i < receiverAddresses.length; i++) {\n            _safeMint(receiverAddresses[i], mintAmount);\n        }\n    }\n\n    // metadata URI\n    string private _baseTokenURI;\n\n    function _baseURI() internal view virtual override returns (string memory) {\n        return _baseTokenURI;\n    }\n\n    function setNotRevealedURI(string memory _notRevealedURI) public onlyOwner {\n        notRevealedUri = _notRevealedURI;\n    }\n\n    function setBaseURI(string calldata baseURI) external onlyOwner {\n        _baseTokenURI = baseURI;\n    }\n\n    function withdrawBalance() public onlyOwner {\n        uint256 oneThird = (address(this).balance * 33) / 100;\n        (bool manduSuccess, ) = payable(\n            0xD61ADc48afE9402B4411805Ce6026eF74F94E713\n        ).call{value: oneThird}(\"\");\n        require(manduSuccess);\n        (bool tenzingSuccess, ) = payable(\n            0xE3Ce04B3BcbdFa219407870Ca617e18fBF503F28\n        ).call{value: oneThird}(\"\");\n        require(tenzingSuccess);\n        (bool tokiMoriSuccess, ) = payable(\n            0x49Cf0aF1cE6a50e822A91a427B3E29007f9C6C09\n        ).call{value: address(this).balance}(\"\");\n        require(tokiMoriSuccess);\n    }\n\n    function setOwnersExplicit(uint256 quantity)\n        external\n        onlyOwner\n        nonReentrant\n    {\n        _setOwnersExplicit(quantity);\n    }\n\n    function numberMinted(address owner) public view returns (uint256) {\n        return _numberMinted(owner);\n    }\n\n    function getOwnershipData(uint256 tokenId)\n        external\n        view\n        returns (TokenOwnership memory)\n    {\n        return ownershipOf(tokenId);\n    }\n}\n",
  "sourcePath": "/Users/christopherfoley/nft/YetiPunks/src/contracts/YetiPunks.sol",
  "compiler": {
    "name": "solc",
    "version": "0.8.9+commit.e5eed63a.Emscripten.clang"
  },
  "schemaVersion": "3.4.4",
  "updatedAt": "2022-02-13T20:29:13.633Z",
  "networkType": "ethereum",
  "devdoc": {
    "kind": "dev",
    "methods": {
      "approve(address,uint256)": {
        "details": "See {IERC721-approve}."
      },
      "balanceOf(address)": {
        "details": "See {IERC721-balanceOf}."
      },
      "getApproved(uint256)": {
        "details": "See {IERC721-getApproved}."
      },
      "isApprovedForAll(address,address)": {
        "details": "See {IERC721-isApprovedForAll}."
      },
      "name()": {
        "details": "See {IERC721Metadata-name}."
      },
      "owner()": {
        "details": "Returns the address of the current owner."
      },
      "ownerOf(uint256)": {
        "details": "See {IERC721-ownerOf}."
      },
      "renounceOwnership()": {
        "details": "Leaves the contract without owner. It will not be possible to call `onlyOwner` functions anymore. Can only be called by the current owner. NOTE: Renouncing ownership will leave the contract without an owner, thereby removing any functionality that is only available to the owner."
      },
      "safeTransferFrom(address,address,uint256)": {
        "details": "See {IERC721-safeTransferFrom}."
      },
      "safeTransferFrom(address,address,uint256,bytes)": {
        "details": "See {IERC721-safeTransferFrom}."
      },
      "setApprovalForAll(address,bool)": {
        "details": "See {IERC721-setApprovalForAll}."
      },
      "supportsInterface(bytes4)": {
        "details": "See {IERC165-supportsInterface}."
      },
      "symbol()": {
        "details": "See {IERC721Metadata-symbol}."
      },
      "tokenByIndex(uint256)": {
        "details": "See {IERC721Enumerable-tokenByIndex}."
      },
      "tokenOfOwnerByIndex(address,uint256)": {
        "details": "See {IERC721Enumerable-tokenOfOwnerByIndex}. This read function is O(collectionSize). If calling from a separate contract, be sure to test gas first. It may also degrade with extremely large collection sizes (e.g >> 10000), test for your use case."
      },
      "tokenURI(uint256)": {
        "details": "See {IERC721Metadata-tokenURI}."
      },
      "totalSupply()": {
        "details": "See {IERC721Enumerable-totalSupply}."
      },
      "transferFrom(address,address,uint256)": {
        "details": "See {IERC721-transferFrom}."
      },
      "transferOwnership(address)": {
        "details": "Transfers ownership of the contract to a new account (`newOwner`). Can only be called by the current owner."
      }
    },
    "version": 1
  },
  "userdoc": {
    "kind": "user",
    "methods": {},
    "version": 1
  }
}