{
  "contractName": "YetiPunks",
  "abi": [
    {
      "inputs": [
        {
          "internalType": "uint256",
          "name": "maxBatchSize_",
          "type": "uint256"
        },
        {
          "internalType": "uint256",
          "name": "collectionSize_",
          "type": "uint256"
        },
        {
          "internalType": "uint256",
          "name": "amountForAuctionAndDev_",
          "type": "uint256"
        },
        {
          "internalType": "uint256",
          "name": "amountForDevs_",
          "type": "uint256"
        }
      ],
      "stateMutability": "nonpayable",
      "type": "constructor"
    },
    {
      "anonymous": false,
      "inputs": [
        {
          "indexed": true,
          "internalType": "address",
          "name": "owner",
          "type": "address"
        },
        {
          "indexed": true,
          "internalType": "address",
          "name": "approved",
          "type": "address"
        },
        {
          "indexed": true,
          "internalType": "uint256",
          "name": "tokenId",
          "type": "uint256"
        }
      ],
      "name": "Approval",
      "type": "event"
    },
    {
      "anonymous": false,
      "inputs": [
        {
          "indexed": true,
          "internalType": "address",
          "name": "owner",
          "type": "address"
        },
        {
          "indexed": true,
          "internalType": "address",
          "name": "operator",
          "type": "address"
        },
        {
          "indexed": false,
          "internalType": "bool",
          "name": "approved",
          "type": "bool"
        }
      ],
      "name": "ApprovalForAll",
      "type": "event"
    },
    {
      "anonymous": false,
      "inputs": [
        {
          "indexed": true,
          "internalType": "address",
          "name": "previousOwner",
          "type": "address"
        },
        {
          "indexed": true,
          "internalType": "address",
          "name": "newOwner",
          "type": "address"
        }
      ],
      "name": "OwnershipTransferred",
      "type": "event"
    },
    {
      "anonymous": false,
      "inputs": [
        {
          "indexed": true,
          "internalType": "address",
          "name": "from",
          "type": "address"
        },
        {
          "indexed": true,
          "internalType": "address",
          "name": "to",
          "type": "address"
        },
        {
          "indexed": true,
          "internalType": "uint256",
          "name": "tokenId",
          "type": "uint256"
        }
      ],
      "name": "Transfer",
      "type": "event"
    },
    {
      "inputs": [
        {
          "internalType": "address",
          "name": "owner",
          "type": "address"
        }
      ],
      "name": "_numberMinted",
      "outputs": [
        {
          "internalType": "uint256",
          "name": "",
          "type": "uint256"
        }
      ],
      "stateMutability": "view",
      "type": "function",
      "constant": true
    },
    {
      "inputs": [
        {
          "internalType": "address",
          "name": "",
          "type": "address"
        }
      ],
      "name": "allowlist",
      "outputs": [
        {
          "internalType": "uint256",
          "name": "",
          "type": "uint256"
        }
      ],
      "stateMutability": "view",
      "type": "function",
      "constant": true
    },
    {
      "inputs": [],
      "name": "amountForAuctionAndDev",
      "outputs": [
        {
          "internalType": "uint256",
          "name": "",
          "type": "uint256"
        }
      ],
      "stateMutability": "view",
      "type": "function",
      "constant": true
    },
    {
      "inputs": [],
      "name": "amountForDevs",
      "outputs": [
        {
          "internalType": "uint256",
          "name": "",
          "type": "uint256"
        }
      ],
      "stateMutability": "view",
      "type": "function",
      "constant": true
    },
    {
      "inputs": [
        {
          "internalType": "address",
          "name": "to",
          "type": "address"
        },
        {
          "internalType": "uint256",
          "name": "tokenId",
          "type": "uint256"
        }
      ],
      "name": "approve",
      "outputs": [],
      "stateMutability": "nonpayable",
      "type": "function"
    },
    {
      "inputs": [
        {
          "internalType": "address",
          "name": "owner",
          "type": "address"
        }
      ],
      "name": "balanceOf",
      "outputs": [
        {
          "internalType": "uint256",
          "name": "",
          "type": "uint256"
        }
      ],
      "stateMutability": "view",
      "type": "function",
      "constant": true
    },
    {
      "inputs": [
        {
          "internalType": "uint256",
          "name": "tokenId",
          "type": "uint256"
        }
      ],
      "name": "getApproved",
      "outputs": [
        {
          "internalType": "address",
          "name": "",
          "type": "address"
        }
      ],
      "stateMutability": "view",
      "type": "function",
      "constant": true
    },
    {
      "inputs": [
        {
          "internalType": "address",
          "name": "owner",
          "type": "address"
        },
        {
          "internalType": "address",
          "name": "operator",
          "type": "address"
        }
      ],
      "name": "isApprovedForAll",
      "outputs": [
        {
          "internalType": "bool",
          "name": "",
          "type": "bool"
        }
      ],
      "stateMutability": "view",
      "type": "function",
      "constant": true
    },
    {
      "inputs": [],
      "name": "maxPerAddressDuringMint",
      "outputs": [
        {
          "internalType": "uint256",
          "name": "",
          "type": "uint256"
        }
      ],
      "stateMutability": "view",
      "type": "function",
      "constant": true
    },
    {
      "inputs": [],
      "name": "name",
      "outputs": [
        {
          "internalType": "string",
          "name": "",
          "type": "string"
        }
      ],
      "stateMutability": "view",
      "type": "function",
      "constant": true
    },
    {
      "inputs": [],
      "name": "nextOwnerToExplicitlySet",
      "outputs": [
        {
          "internalType": "uint256",
          "name": "",
          "type": "uint256"
        }
      ],
      "stateMutability": "view",
      "type": "function",
      "constant": true
    },
    {
      "inputs": [],
      "name": "owner",
      "outputs": [
        {
          "internalType": "address",
          "name": "",
          "type": "address"
        }
      ],
      "stateMutability": "view",
      "type": "function",
      "constant": true
    },
    {
      "inputs": [
        {
          "internalType": "uint256",
          "name": "tokenId",
          "type": "uint256"
        }
      ],
      "name": "ownerOf",
      "outputs": [
        {
          "internalType": "address",
          "name": "",
          "type": "address"
        }
      ],
      "stateMutability": "view",
      "type": "function",
      "constant": true
    },
    {
      "inputs": [],
      "name": "renounceOwnership",
      "outputs": [],
      "stateMutability": "nonpayable",
      "type": "function"
    },
    {
      "inputs": [
        {
          "internalType": "address",
          "name": "from",
          "type": "address"
        },
        {
          "internalType": "address",
          "name": "to",
          "type": "address"
        },
        {
          "internalType": "uint256",
          "name": "tokenId",
          "type": "uint256"
        }
      ],
      "name": "safeTransferFrom",
      "outputs": [],
      "stateMutability": "nonpayable",
      "type": "function"
    },
    {
      "inputs": [
        {
          "internalType": "address",
          "name": "from",
          "type": "address"
        },
        {
          "internalType": "address",
          "name": "to",
          "type": "address"
        },
        {
          "internalType": "uint256",
          "name": "tokenId",
          "type": "uint256"
        },
        {
          "internalType": "bytes",
          "name": "_data",
          "type": "bytes"
        }
      ],
      "name": "safeTransferFrom",
      "outputs": [],
      "stateMutability": "nonpayable",
      "type": "function"
    },
    {
      "inputs": [
        {
          "internalType": "address",
          "name": "operator",
          "type": "address"
        },
        {
          "internalType": "bool",
          "name": "approved",
          "type": "bool"
        }
      ],
      "name": "setApprovalForAll",
      "outputs": [],
      "stateMutability": "nonpayable",
      "type": "function"
    },
    {
      "inputs": [
        {
          "internalType": "bytes4",
          "name": "interfaceId",
          "type": "bytes4"
        }
      ],
      "name": "supportsInterface",
      "outputs": [
        {
          "internalType": "bool",
          "name": "",
          "type": "bool"
        }
      ],
      "stateMutability": "view",
      "type": "function",
      "constant": true
    },
    {
      "inputs": [],
      "name": "symbol",
      "outputs": [
        {
          "internalType": "string",
          "name": "",
          "type": "string"
        }
      ],
      "stateMutability": "view",
      "type": "function",
      "constant": true
    },
    {
      "inputs": [
        {
          "internalType": "uint256",
          "name": "index",
          "type": "uint256"
        }
      ],
      "name": "tokenByIndex",
      "outputs": [
        {
          "internalType": "uint256",
          "name": "",
          "type": "uint256"
        }
      ],
      "stateMutability": "view",
      "type": "function",
      "constant": true
    },
    {
      "inputs": [
        {
          "internalType": "address",
          "name": "owner",
          "type": "address"
        },
        {
          "internalType": "uint256",
          "name": "index",
          "type": "uint256"
        }
      ],
      "name": "tokenOfOwnerByIndex",
      "outputs": [
        {
          "internalType": "uint256",
          "name": "",
          "type": "uint256"
        }
      ],
      "stateMutability": "view",
      "type": "function",
      "constant": true
    },
    {
      "inputs": [
        {
          "internalType": "uint256",
          "name": "tokenId",
          "type": "uint256"
        }
      ],
      "name": "tokenURI",
      "outputs": [
        {
          "internalType": "string",
          "name": "",
          "type": "string"
        }
      ],
      "stateMutability": "view",
      "type": "function",
      "constant": true
    },
    {
      "inputs": [],
      "name": "totalSupply",
      "outputs": [
        {
          "internalType": "uint256",
          "name": "",
          "type": "uint256"
        }
      ],
      "stateMutability": "view",
      "type": "function",
      "constant": true
    },
    {
      "inputs": [
        {
          "internalType": "address",
          "name": "from",
          "type": "address"
        },
        {
          "internalType": "address",
          "name": "to",
          "type": "address"
        },
        {
          "internalType": "uint256",
          "name": "tokenId",
          "type": "uint256"
        }
      ],
      "name": "transferFrom",
      "outputs": [],
      "stateMutability": "nonpayable",
      "type": "function"
    },
    {
      "inputs": [
        {
          "internalType": "address",
          "name": "newOwner",
          "type": "address"
        }
      ],
      "name": "transferOwnership",
      "outputs": [],
      "stateMutability": "nonpayable",
      "type": "function"
    },
    {
      "inputs": [],
      "name": "allowlistMint",
      "outputs": [],
      "stateMutability": "payable",
      "type": "function",
      "payable": true
    },
    {
      "inputs": [
        {
          "internalType": "uint256",
          "name": "quantity",
          "type": "uint256"
        }
      ],
      "name": "publicSaleMint",
      "outputs": [],
      "stateMutability": "payable",
      "type": "function",
      "payable": true
    },
    {
      "inputs": [
        {
          "internalType": "uint256",
          "name": "publicPriceWei",
          "type": "uint256"
        },
        {
          "internalType": "uint256",
          "name": "publicSaleKey",
          "type": "uint256"
        },
        {
          "internalType": "uint256",
          "name": "publicSaleStartTime",
          "type": "uint256"
        }
      ],
      "name": "isPublicSaleOn",
      "outputs": [
        {
          "internalType": "bool",
          "name": "",
          "type": "bool"
        }
      ],
      "stateMutability": "view",
      "type": "function",
      "constant": true
    },
    {
      "inputs": [
        {
          "internalType": "address[]",
          "name": "addresses",
          "type": "address[]"
        },
        {
          "internalType": "uint256[]",
          "name": "numSlots",
          "type": "uint256[]"
        }
      ],
      "name": "seedAllowlist",
      "outputs": [],
      "stateMutability": "nonpayable",
      "type": "function"
    },
    {
      "inputs": [
        {
          "internalType": "uint256",
          "name": "quantity",
          "type": "uint256"
        }
      ],
      "name": "devMint",
      "outputs": [],
      "stateMutability": "nonpayable",
      "type": "function"
    },
    {
      "inputs": [
        {
          "internalType": "string",
          "name": "baseURI",
          "type": "string"
        }
      ],
      "name": "setBaseURI",
      "outputs": [],
      "stateMutability": "nonpayable",
      "type": "function"
    },
    {
      "inputs": [],
      "name": "withdrawMoney",
      "outputs": [],
      "stateMutability": "nonpayable",
      "type": "function"
    },
    {
      "inputs": [
        {
          "internalType": "uint256",
          "name": "quantity",
          "type": "uint256"
        }
      ],
      "name": "setOwnersExplicit",
      "outputs": [],
      "stateMutability": "nonpayable",
      "type": "function"
    },
    {
      "inputs": [
        {
          "internalType": "address",
          "name": "owner",
          "type": "address"
        }
      ],
      "name": "numberMinted",
      "outputs": [
        {
          "internalType": "uint256",
          "name": "",
          "type": "uint256"
        }
      ],
      "stateMutability": "view",
      "type": "function",
      "constant": true
    },
    {
      "inputs": [
        {
          "internalType": "uint256",
          "name": "tokenId",
          "type": "uint256"
        }
      ],
      "name": "getOwnershipData",
      "outputs": [
        {
          "components": [
            {
              "internalType": "address",
              "name": "addr",
              "type": "address"
            },
            {
              "internalType": "uint64",
              "name": "startTimestamp",
              "type": "uint64"
            }
          ],
          "internalType": "struct ERC721A.TokenOwnership",
          "name": "",
          "type": "tuple"
        }
      ],
      "stateMutability": "view",
      "type": "function",
      "constant": true
    }
  ],
  "bytecode": "0x610120604052600060015560006008553480156200001c57600080fd5b5060405162005d7438038062005d748339818101604052810190620000429190620003cf565b6040518060400160405280600b81526020017f5065747479204d6f6e6b730000000000000000000000000000000000000000008152506040518060400160405280600281526020017f504d0000000000000000000000000000000000000000000000000000000000008152508585620000d0620000c46200021360201b60201c565b6200021b60201b60201c565b6000811162000116576040517f08c379a00000000000000000000000000000000000000000000000000000000081526004016200010d90620004c8565b60405180910390fd5b600082116200015c576040517f08c379a0000000000000000000000000000000000000000000000000000000008152600401620001539062000560565b60405180910390fd5b836002908051906020019062000174929190620002df565b5082600390805190602001906200018d929190620002df565b508160a0818152505080608081815250505050505060016009819055508360c081815250508161010081815250508060e081815250508282111562000209576040517f08c379a00000000000000000000000000000000000000000000000000000000081526004016200020090620005d2565b60405180910390fd5b5050505062000659565b600033905090565b60008060009054906101000a900473ffffffffffffffffffffffffffffffffffffffff169050816000806101000a81548173ffffffffffffffffffffffffffffffffffffffff021916908373ffffffffffffffffffffffffffffffffffffffff1602179055508173ffffffffffffffffffffffffffffffffffffffff168173ffffffffffffffffffffffffffffffffffffffff167f8be0079c531659141344cd1fd0a4f28419497f9722a3daafe3b4186f6b6457e060405160405180910390a35050565b828054620002ed9062000623565b90600052602060002090601f0160209004810192826200031157600085556200035d565b82601f106200032c57805160ff19168380011785556200035d565b828001600101855582156200035d579182015b828111156200035c5782518255916020019190600101906200033f565b5b5090506200036c919062000370565b5090565b5b808211156200038b57600081600090555060010162000371565b5090565b600080fd5b6000819050919050565b620003a98162000394565b8114620003b557600080fd5b50565b600081519050620003c9816200039e565b92915050565b60008060008060808587031215620003ec57620003eb6200038f565b5b6000620003fc87828801620003b8565b94505060206200040f87828801620003b8565b93505060406200042287828801620003b8565b92505060606200043587828801620003b8565b91505092959194509250565b600082825260208201905092915050565b7f455243373231413a20636f6c6c656374696f6e206d757374206861766520612060008201527f6e6f6e7a65726f20737570706c79000000000000000000000000000000000000602082015250565b6000620004b0602e8362000441565b9150620004bd8262000452565b604082019050919050565b60006020820190508181036000830152620004e381620004a1565b9050919050565b7f455243373231413a206d61782062617463682073697a65206d7573742062652060008201527f6e6f6e7a65726f00000000000000000000000000000000000000000000000000602082015250565b60006200054860278362000441565b91506200055582620004ea565b604082019050919050565b600060208201905081810360008301526200057b8162000539565b9050919050565b7f6c617267657220636f6c6c656374696f6e2073697a65206e6565646564000000600082015250565b6000620005ba601d8362000441565b9150620005c78262000582565b602082019050919050565b60006020820190508181036000830152620005ed81620005ab565b9050919050565b7f4e487b7100000000000000000000000000000000000000000000000000000000600052602260045260246000fd5b600060028204905060018216806200063c57607f821691505b60208210811415620006535762000652620005f4565b5b50919050565b60805160a05160c05160e05161010051615690620006e460003960006114ee015260008181610f5601526120340152600081816116990152611cf5015260008181610fcd0152818161103b0152818161107801528181612ae201528181612b0b01526131ad0152600081816111f601528181611c80015281816127ab01526127df01526156906000f3fe6080604052600436106102045760003560e01c806370a0823111610118578063b05863d5116100a0578063d7224ba01161006f578063d7224ba01461076f578063dc33e6811461079a578063e985e9c5146107d7578063f2fde38b14610814578063fbe1aa511461083d57610204565b8063b05863d5146106c4578063b3ab66b0146106ed578063b88d4fde14610709578063c87b56dd1461073257610204565b80639231ab2a116100e75780639231ab2a146105df57806395d89b411461061c578063a22cb46514610647578063a7cd52cb14610670578063ac446002146106ad57610204565b806370a0823114610535578063715018a6146105725780638bc35c2f146105895780638da5cb5b146105b457610204565b8063375a069a1161019b5780634d388a981161016a5780634d388a981461042a5780634f6ccce71461046757806355f804b3146104a45780635666c880146104cd5780636352211e146104f857610204565b8063375a069a1461039157806341fbddbd146103ba578063422030ba146103c457806342842e0e1461040157610204565b806318160ddd116101d757806318160ddd146102d757806323b872dd146103025780632d20fb601461032b5780632f745c591461035457610204565b806301ffc9a71461020957806306fdde0314610246578063081812fc14610271578063095ea7b3146102ae575b600080fd5b34801561021557600080fd5b50610230600480360381019061022b9190613727565b610868565b60405161023d919061376f565b60405180910390f35b34801561025257600080fd5b5061025b6109b2565b6040516102689190613823565b60405180910390f35b34801561027d57600080fd5b506102986004803603810190610293919061387b565b610a44565b6040516102a591906138e9565b60405180910390f35b3480156102ba57600080fd5b506102d560048036038101906102d09190613930565b610ac9565b005b3480156102e357600080fd5b506102ec610be2565b6040516102f9919061397f565b60405180910390f35b34801561030e57600080fd5b506103296004803603810190610324919061399a565b610bec565b005b34801561033757600080fd5b50610352600480360381019061034d919061387b565b610bfc565b005b34801561036057600080fd5b5061037b60048036038101906103769190613930565b610cda565b604051610388919061397f565b60405180910390f35b34801561039d57600080fd5b506103b860048036038101906103b3919061387b565b610ed8565b005b6103c26110b4565b005b3480156103d057600080fd5b506103eb60048036038101906103e691906139ed565b6112d6565b6040516103f8919061376f565b60405180910390f35b34801561040d57600080fd5b506104286004803603810190610423919061399a565b6112fe565b005b34801561043657600080fd5b50610451600480360381019061044c9190613a40565b61131e565b60405161045e919061397f565b60405180910390f35b34801561047357600080fd5b5061048e6004803603810190610489919061387b565b611407565b60405161049b919061397f565b60405180910390f35b3480156104b057600080fd5b506104cb60048036038101906104c69190613ad2565b61145a565b005b3480156104d957600080fd5b506104e26114ec565b6040516104ef919061397f565b60405180910390f35b34801561050457600080fd5b5061051f600480360381019061051a919061387b565b611510565b60405161052c91906138e9565b60405180910390f35b34801561054157600080fd5b5061055c60048036038101906105579190613a40565b611526565b604051610569919061397f565b60405180910390f35b34801561057e57600080fd5b5061058761160f565b005b34801561059557600080fd5b5061059e611697565b6040516105ab919061397f565b60405180910390f35b3480156105c057600080fd5b506105c96116bb565b6040516105d691906138e9565b60405180910390f35b3480156105eb57600080fd5b506106066004803603810190610601919061387b565b6116e4565b6040516106139190613b80565b60405180910390f35b34801561062857600080fd5b506106316116fc565b60405161063e9190613823565b60405180910390f35b34801561065357600080fd5b5061066e60048036038101906106699190613bc7565b61178e565b005b34801561067c57600080fd5b5061069760048036038101906106929190613a40565b61190f565b6040516106a4919061397f565b60405180910390f35b3480156106b957600080fd5b506106c2611927565b005b3480156106d057600080fd5b506106eb60048036038101906106e69190613e08565b611aa8565b005b6107076004803603810190610702919061387b565b611c04565b005b34801561071557600080fd5b50610730600480360381019061072b9190613f35565b611d8b565b005b34801561073e57600080fd5b506107596004803603810190610754919061387b565b611de7565b6040516107669190613823565b60405180910390f35b34801561077b57600080fd5b50610784611e8e565b604051610791919061397f565b60405180910390f35b3480156107a657600080fd5b506107c160048036038101906107bc9190613a40565b611e94565b6040516107ce919061397f565b60405180910390f35b3480156107e357600080fd5b506107fe60048036038101906107f99190613fb8565b611ea6565b60405161080b919061376f565b60405180910390f35b34801561082057600080fd5b5061083b60048036038101906108369190613a40565b611f3a565b005b34801561084957600080fd5b50610852612032565b60405161085f919061397f565b60405180910390f35b60007f80ac58cd000000000000000000000000000000000000000000000000000000007bffffffffffffffffffffffffffffffffffffffffffffffffffffffff1916827bffffffffffffffffffffffffffffffffffffffffffffffffffffffff1916148061093357507f5b5e139f000000000000000000000000000000000000000000000000000000007bffffffffffffffffffffffffffffffffffffffffffffffffffffffff1916827bffffffffffffffffffffffffffffffffffffffffffffffffffffffff1916145b8061099b57507f780e9d63000000000000000000000000000000000000000000000000000000007bffffffffffffffffffffffffffffffffffffffffffffffffffffffff1916827bffffffffffffffffffffffffffffffffffffffffffffffffffffffff1916145b806109ab57506109aa82612056565b5b9050919050565b6060600280546109c190614027565b80601f01602080910402602001604051908101604052809291908181526020018280546109ed90614027565b8015610a3a5780601f10610a0f57610100808354040283529160200191610a3a565b820191906000526020600020905b815481529060010190602001808311610a1d57829003601f168201915b5050505050905090565b6000610a4f826120c0565b610a8e576040517f08c379a0000000000000000000000000000000000000000000000000000000008152600401610a85906140cb565b60405180910390fd5b6006600083815260200190815260200160002060009054906101000a900473ffffffffffffffffffffffffffffffffffffffff169050919050565b6000610ad482611510565b90508073ffffffffffffffffffffffffffffffffffffffff168373ffffffffffffffffffffffffffffffffffffffff161415610b45576040517f08c379a0000000000000000000000000000000000000000000000000000000008152600401610b3c9061415d565b60405180910390fd5b8073ffffffffffffffffffffffffffffffffffffffff16610b646120ce565b73ffffffffffffffffffffffffffffffffffffffff161480610b935750610b9281610b8d6120ce565b611ea6565b5b610bd2576040517f08c379a0000000000000000000000000000000000000000000000000000000008152600401610bc9906141ef565b60405180910390fd5b610bdd8383836120d6565b505050565b6000600154905090565b610bf7838383612188565b505050565b610c046120ce565b73ffffffffffffffffffffffffffffffffffffffff16610c226116bb565b73ffffffffffffffffffffffffffffffffffffffff1614610c78576040517f08c379a0000000000000000000000000000000000000000000000000000000008152600401610c6f9061425b565b60405180910390fd5b60026009541415610cbe576040517f08c379a0000000000000000000000000000000000000000000000000000000008152600401610cb5906142c7565b60405180910390fd5b6002600981905550610ccf81612741565b600160098190555050565b6000610ce583611526565b8210610d26576040517f08c379a0000000000000000000000000000000000000000000000000000000008152600401610d1d90614359565b60405180910390fd5b6000610d30610be2565b905060008060005b83811015610e96576000600460008381526020019081526020016000206040518060400160405290816000820160009054906101000a900473ffffffffffffffffffffffffffffffffffffffff1673ffffffffffffffffffffffffffffffffffffffff1673ffffffffffffffffffffffffffffffffffffffff1681526020016000820160149054906101000a900467ffffffffffffffff1667ffffffffffffffff1667ffffffffffffffff16815250509050600073ffffffffffffffffffffffffffffffffffffffff16816000015173ffffffffffffffffffffffffffffffffffffffff1614610e2a57806000015192505b8773ffffffffffffffffffffffffffffffffffffffff168373ffffffffffffffffffffffffffffffffffffffff161415610e825786841415610e73578195505050505050610ed2565b8380610e7e906143a8565b9450505b508080610e8e906143a8565b915050610d38565b506040517f08c379a0000000000000000000000000000000000000000000000000000000008152600401610ec990614463565b60405180910390fd5b92915050565b610ee06120ce565b73ffffffffffffffffffffffffffffffffffffffff16610efe6116bb565b73ffffffffffffffffffffffffffffffffffffffff1614610f54576040517f08c379a0000000000000000000000000000000000000000000000000000000008152600401610f4b9061425b565b60405180910390fd5b7f000000000000000000000000000000000000000000000000000000000000000081610f7e610be2565b610f889190614483565b1115610fc9576040517f08c379a0000000000000000000000000000000000000000000000000000000008152600401610fc09061454b565b60405180910390fd5b60007f000000000000000000000000000000000000000000000000000000000000000082610ff7919061459a565b14611037576040517f08c379a000000000000000000000000000000000000000000000000000000000815260040161102e9061463d565b60405180910390fd5b60007f000000000000000000000000000000000000000000000000000000000000000082611065919061465d565b905060005b818110156110af5761109c337f00000000000000000000000000000000000000000000000000000000000000006129cf565b80806110a7906143a8565b91505061106a565b505050565b3373ffffffffffffffffffffffffffffffffffffffff163273ffffffffffffffffffffffffffffffffffffffff1614611122576040517f08c379a0000000000000000000000000000000000000000000000000000000008152600401611119906146da565b60405180910390fd5b600066b1a2bc2ec5000090506000811415611172576040517f08c379a000000000000000000000000000000000000000000000000000000000815260040161116990614746565b60405180910390fd5b6000600a60003373ffffffffffffffffffffffffffffffffffffffff1673ffffffffffffffffffffffffffffffffffffffff16815260200190815260200160002054116111f4576040517f08c379a00000000000000000000000000000000000000000000000000000000081526004016111eb906147b2565b60405180910390fd5b7f0000000000000000000000000000000000000000000000000000000000000000600161121f610be2565b6112299190614483565b111561126a576040517f08c379a00000000000000000000000000000000000000000000000000000000081526004016112619061481e565b60405180910390fd5b600a60003373ffffffffffffffffffffffffffffffffffffffff1673ffffffffffffffffffffffffffffffffffffffff16815260200190815260200160002060008154809291906112ba9061483e565b91905055506112ca3360016129cf565b6112d3816129ed565b50565b60008084141580156112e9575060008314155b80156112f55750814210155b90509392505050565b61131983838360405180602001604052806000815250611d8b565b505050565b60008073ffffffffffffffffffffffffffffffffffffffff168273ffffffffffffffffffffffffffffffffffffffff16141561138f576040517f08c379a0000000000000000000000000000000000000000000000000000000008152600401611386906148da565b60405180910390fd5b600560008373ffffffffffffffffffffffffffffffffffffffff1673ffffffffffffffffffffffffffffffffffffffff16815260200190815260200160002060000160109054906101000a90046fffffffffffffffffffffffffffffffff166fffffffffffffffffffffffffffffffff169050919050565b6000611411610be2565b8210611452576040517f08c379a00000000000000000000000000000000000000000000000000000000081526004016114499061496c565b60405180910390fd5b819050919050565b6114626120ce565b73ffffffffffffffffffffffffffffffffffffffff166114806116bb565b73ffffffffffffffffffffffffffffffffffffffff16146114d6576040517f08c379a00000000000000000000000000000000000000000000000000000000081526004016114cd9061425b565b60405180910390fd5b8181600b91906114e79291906135de565b505050565b7f000000000000000000000000000000000000000000000000000000000000000081565b600061151b82612a8e565b600001519050919050565b60008073ffffffffffffffffffffffffffffffffffffffff168273ffffffffffffffffffffffffffffffffffffffff161415611597576040517f08c379a000000000000000000000000000000000000000000000000000000000815260040161158e906149fe565b60405180910390fd5b600560008373ffffffffffffffffffffffffffffffffffffffff1673ffffffffffffffffffffffffffffffffffffffff16815260200190815260200160002060000160009054906101000a90046fffffffffffffffffffffffffffffffff166fffffffffffffffffffffffffffffffff169050919050565b6116176120ce565b73ffffffffffffffffffffffffffffffffffffffff166116356116bb565b73ffffffffffffffffffffffffffffffffffffffff161461168b576040517f08c379a00000000000000000000000000000000000000000000000000000000081526004016116829061425b565b60405180910390fd5b6116956000612c91565b565b7f000000000000000000000000000000000000000000000000000000000000000081565b60008060009054906101000a900473ffffffffffffffffffffffffffffffffffffffff16905090565b6116ec613664565b6116f582612a8e565b9050919050565b60606003805461170b90614027565b80601f016020809104026020016040519081016040528092919081815260200182805461173790614027565b80156117845780601f1061175957610100808354040283529160200191611784565b820191906000526020600020905b81548152906001019060200180831161176757829003601f168201915b5050505050905090565b6117966120ce565b73ffffffffffffffffffffffffffffffffffffffff168273ffffffffffffffffffffffffffffffffffffffff161415611804576040517f08c379a00000000000000000000000000000000000000000000000000000000081526004016117fb90614a6a565b60405180910390fd5b80600760006118116120ce565b73ffffffffffffffffffffffffffffffffffffffff1673ffffffffffffffffffffffffffffffffffffffff16815260200190815260200160002060008473ffffffffffffffffffffffffffffffffffffffff1673ffffffffffffffffffffffffffffffffffffffff16815260200190815260200160002060006101000a81548160ff0219169083151502179055508173ffffffffffffffffffffffffffffffffffffffff166118be6120ce565b73ffffffffffffffffffffffffffffffffffffffff167f17307eab39ab6107e8899845ad3d59bd9653f200f220920489ca2b5937696c3183604051611903919061376f565b60405180910390a35050565b600a6020528060005260406000206000915090505481565b61192f6120ce565b73ffffffffffffffffffffffffffffffffffffffff1661194d6116bb565b73ffffffffffffffffffffffffffffffffffffffff16146119a3576040517f08c379a000000000000000000000000000000000000000000000000000000000815260040161199a9061425b565b60405180910390fd5b600260095414156119e9576040517f08c379a00000000000000000000000000000000000000000000000000000000081526004016119e0906142c7565b60405180910390fd5b600260098190555060003373ffffffffffffffffffffffffffffffffffffffff1647604051611a1790614abb565b60006040518083038185875af1925050503d8060008114611a54576040519150601f19603f3d011682016040523d82523d6000602084013e611a59565b606091505b5050905080611a9d576040517f08c379a0000000000000000000000000000000000000000000000000000000008152600401611a9490614b1c565b60405180910390fd5b506001600981905550565b611ab06120ce565b73ffffffffffffffffffffffffffffffffffffffff16611ace6116bb565b73ffffffffffffffffffffffffffffffffffffffff1614611b24576040517f08c379a0000000000000000000000000000000000000000000000000000000008152600401611b1b9061425b565b60405180910390fd5b8051825114611b68576040517f08c379a0000000000000000000000000000000000000000000000000000000008152600401611b5f90614bae565b60405180910390fd5b60005b8251811015611bff57818181518110611b8757611b86614bce565b5b6020026020010151600a6000858481518110611ba657611ba5614bce565b5b602002602001015173ffffffffffffffffffffffffffffffffffffffff1673ffffffffffffffffffffffffffffffffffffffff168152602001908152602001600020819055508080611bf7906143a8565b915050611b6b565b505050565b3373ffffffffffffffffffffffffffffffffffffffff163273ffffffffffffffffffffffffffffffffffffffff1614611c72576040517f08c379a0000000000000000000000000000000000000000000000000000000008152600401611c69906146da565b60405180910390fd5b6000666a94d74f43000090507f000000000000000000000000000000000000000000000000000000000000000082611ca8610be2565b611cb29190614483565b1115611cf3576040517f08c379a0000000000000000000000000000000000000000000000000000000008152600401611cea9061481e565b60405180910390fd5b7f000000000000000000000000000000000000000000000000000000000000000082611d1e33611e94565b611d289190614483565b1115611d69576040517f08c379a0000000000000000000000000000000000000000000000000000000008152600401611d6090614c49565b60405180910390fd5b611d7333836129cf565b611d878282611d829190614c69565b6129ed565b5050565b611d96848484612188565b611da284848484612d55565b611de1576040517f08c379a0000000000000000000000000000000000000000000000000000000008152600401611dd890614d35565b60405180910390fd5b50505050565b6060611df2826120c0565b611e31576040517f08c379a0000000000000000000000000000000000000000000000000000000008152600401611e2890614dc7565b60405180910390fd5b6000611e3b612eec565b90506000815111611e5b5760405180602001604052806000815250611e86565b80611e6584612f7e565b604051602001611e76929190614e23565b6040516020818303038152906040525b915050919050565b60085481565b6000611e9f8261131e565b9050919050565b6000600760008473ffffffffffffffffffffffffffffffffffffffff1673ffffffffffffffffffffffffffffffffffffffff16815260200190815260200160002060008373ffffffffffffffffffffffffffffffffffffffff1673ffffffffffffffffffffffffffffffffffffffff16815260200190815260200160002060009054906101000a900460ff16905092915050565b611f426120ce565b73ffffffffffffffffffffffffffffffffffffffff16611f606116bb565b73ffffffffffffffffffffffffffffffffffffffff1614611fb6576040517f08c379a0000000000000000000000000000000000000000000000000000000008152600401611fad9061425b565b60405180910390fd5b600073ffffffffffffffffffffffffffffffffffffffff168173ffffffffffffffffffffffffffffffffffffffff161415612026576040517f08c379a000000000000000000000000000000000000000000000000000000000815260040161201d90614eb9565b60405180910390fd5b61202f81612c91565b50565b7f000000000000000000000000000000000000000000000000000000000000000081565b60007f01ffc9a7000000000000000000000000000000000000000000000000000000007bffffffffffffffffffffffffffffffffffffffffffffffffffffffff1916827bffffffffffffffffffffffffffffffffffffffffffffffffffffffff1916149050919050565b600060015482109050919050565b600033905090565b826006600084815260200190815260200160002060006101000a81548173ffffffffffffffffffffffffffffffffffffffff021916908373ffffffffffffffffffffffffffffffffffffffff160217905550818373ffffffffffffffffffffffffffffffffffffffff168273ffffffffffffffffffffffffffffffffffffffff167f8c5be1e5ebec7d5bd14f71427d1e84f3dd0314c0f7b2291e5b200ac8c7c3b92560405160405180910390a4505050565b600061219382612a8e565b90506000816000015173ffffffffffffffffffffffffffffffffffffffff166121ba6120ce565b73ffffffffffffffffffffffffffffffffffffffff16148061221657506121df6120ce565b73ffffffffffffffffffffffffffffffffffffffff166121fe84610a44565b73ffffffffffffffffffffffffffffffffffffffff16145b806122325750612231826000015161222c6120ce565b611ea6565b5b905080612274576040517f08c379a000000000000000000000000000000000000000000000000000000000815260040161226b90614f4b565b60405180910390fd5b8473ffffffffffffffffffffffffffffffffffffffff16826000015173ffffffffffffffffffffffffffffffffffffffff16146122e6576040517f08c379a00000000000000000000000000000000000000000000000000000000081526004016122dd90614fdd565b60405180910390fd5b600073ffffffffffffffffffffffffffffffffffffffff168473ffffffffffffffffffffffffffffffffffffffff161415612356576040517f08c379a000000000000000000000000000000000000000000000000000000000815260040161234d9061506f565b60405180910390fd5b61236385858560016130df565b61237360008484600001516120d6565b6001600560008773ffffffffffffffffffffffffffffffffffffffff1673ffffffffffffffffffffffffffffffffffffffff16815260200190815260200160002060000160008282829054906101000a90046fffffffffffffffffffffffffffffffff166123e191906150ab565b92506101000a8154816fffffffffffffffffffffffffffffffff02191690836fffffffffffffffffffffffffffffffff1602179055506001600560008673ffffffffffffffffffffffffffffffffffffffff1673ffffffffffffffffffffffffffffffffffffffff16815260200190815260200160002060000160008282829054906101000a90046fffffffffffffffffffffffffffffffff1661248591906150df565b92506101000a8154816fffffffffffffffffffffffffffffffff02191690836fffffffffffffffffffffffffffffffff16021790555060405180604001604052808573ffffffffffffffffffffffffffffffffffffffff1681526020014267ffffffffffffffff168152506004600085815260200190815260200160002060008201518160000160006101000a81548173ffffffffffffffffffffffffffffffffffffffff021916908373ffffffffffffffffffffffffffffffffffffffff16021790555060208201518160000160146101000a81548167ffffffffffffffff021916908367ffffffffffffffff160217905550905050600060018461258b9190614483565b9050600073ffffffffffffffffffffffffffffffffffffffff166004600083815260200190815260200160002060000160009054906101000a900473ffffffffffffffffffffffffffffffffffffffff1673ffffffffffffffffffffffffffffffffffffffff1614156126d157612601816120c0565b156126d0576040518060400160405280846000015173ffffffffffffffffffffffffffffffffffffffff168152602001846020015167ffffffffffffffff168152506004600083815260200190815260200160002060008201518160000160006101000a81548173ffffffffffffffffffffffffffffffffffffffff021916908373ffffffffffffffffffffffffffffffffffffffff16021790555060208201518160000160146101000a81548167ffffffffffffffff021916908367ffffffffffffffff1602179055509050505b5b838573ffffffffffffffffffffffffffffffffffffffff168773ffffffffffffffffffffffffffffffffffffffff167fddf252ad1be2c89b69c2b068fc378daa952ba7f163c4a11628f55a4df523b3ef60405160405180910390a461273986868660016130e5565b505050505050565b600060085490506000821161278b576040517f08c379a000000000000000000000000000000000000000000000000000000000815260040161278290615171565b60405180910390fd5b60006001838361279b9190614483565b6127a59190615191565b905060017f00000000000000000000000000000000000000000000000000000000000000006127d49190615191565b81111561280b5760017f00000000000000000000000000000000000000000000000000000000000000006128089190615191565b90505b612814816120c0565b612853576040517f08c379a000000000000000000000000000000000000000000000000000000000815260040161284a90615237565b60405180910390fd5b60008290505b8181116129b657600073ffffffffffffffffffffffffffffffffffffffff166004600083815260200190815260200160002060000160009054906101000a900473ffffffffffffffffffffffffffffffffffffffff1673ffffffffffffffffffffffffffffffffffffffff1614156129a35760006128d682612a8e565b90506040518060400160405280826000015173ffffffffffffffffffffffffffffffffffffffff168152602001826020015167ffffffffffffffff168152506004600084815260200190815260200160002060008201518160000160006101000a81548173ffffffffffffffffffffffffffffffffffffffff021916908373ffffffffffffffffffffffffffffffffffffffff16021790555060208201518160000160146101000a81548167ffffffffffffffff021916908367ffffffffffffffff160217905550905050505b80806129ae906143a8565b915050612859565b506001816129c49190614483565b600881905550505050565b6129e98282604051806020016040528060008152506130eb565b5050565b80341015612a30576040517f08c379a0000000000000000000000000000000000000000000000000000000008152600401612a27906152a3565b60405180910390fd5b80341115612a8b573373ffffffffffffffffffffffffffffffffffffffff166108fc8234612a5e9190615191565b9081150290604051600060405180830381858888f19350505050158015612a89573d6000803e3d6000fd5b505b50565b612a96613664565b612a9f826120c0565b612ade576040517f08c379a0000000000000000000000000000000000000000000000000000000008152600401612ad590615335565b60405180910390fd5b60007f00000000000000000000000000000000000000000000000000000000000000008310612b425760017f000000000000000000000000000000000000000000000000000000000000000084612b359190615191565b612b3f9190614483565b90505b60008390505b818110612c50576000600460008381526020019081526020016000206040518060400160405290816000820160009054906101000a900473ffffffffffffffffffffffffffffffffffffffff1673ffffffffffffffffffffffffffffffffffffffff1673ffffffffffffffffffffffffffffffffffffffff1681526020016000820160149054906101000a900467ffffffffffffffff1667ffffffffffffffff1667ffffffffffffffff16815250509050600073ffffffffffffffffffffffffffffffffffffffff16816000015173ffffffffffffffffffffffffffffffffffffffff1614612c3c57809350505050612c8c565b508080612c489061483e565b915050612b48565b506040517f08c379a0000000000000000000000000000000000000000000000000000000008152600401612c83906153c7565b60405180910390fd5b919050565b60008060009054906101000a900473ffffffffffffffffffffffffffffffffffffffff169050816000806101000a81548173ffffffffffffffffffffffffffffffffffffffff021916908373ffffffffffffffffffffffffffffffffffffffff1602179055508173ffffffffffffffffffffffffffffffffffffffff168173ffffffffffffffffffffffffffffffffffffffff167f8be0079c531659141344cd1fd0a4f28419497f9722a3daafe3b4186f6b6457e060405160405180910390a35050565b6000612d768473ffffffffffffffffffffffffffffffffffffffff166135cb565b15612edf578373ffffffffffffffffffffffffffffffffffffffff1663150b7a02612d9f6120ce565b8786866040518563ffffffff1660e01b8152600401612dc1949392919061543c565b602060405180830381600087803b158015612ddb57600080fd5b505af1925050508015612e0c57506040513d601f19601f82011682018060405250810190612e09919061549d565b60015b612e8f573d8060008114612e3c576040519150601f19603f3d011682016040523d82523d6000602084013e612e41565b606091505b50600081511415612e87576040517f08c379a0000000000000000000000000000000000000000000000000000000008152600401612e7e90614d35565b60405180910390fd5b805181602001fd5b63150b7a0260e01b7bffffffffffffffffffffffffffffffffffffffffffffffffffffffff1916817bffffffffffffffffffffffffffffffffffffffffffffffffffffffff191614915050612ee4565b600190505b949350505050565b6060600b8054612efb90614027565b80601f0160208091040260200160405190810160405280929190818152602001828054612f2790614027565b8015612f745780601f10612f4957610100808354040283529160200191612f74565b820191906000526020600020905b815481529060010190602001808311612f5757829003601f168201915b5050505050905090565b60606000821415612fc6576040518060400160405280600181526020017f300000000000000000000000000000000000000000000000000000000000000081525090506130da565b600082905060005b60008214612ff8578080612fe1906143a8565b915050600a82612ff1919061465d565b9150612fce565b60008167ffffffffffffffff81111561301457613013613c07565b5b6040519080825280601f01601f1916602001820160405280156130465781602001600182028036833780820191505090505b5090505b600085146130d35760018261305f9190615191565b9150600a8561306e919061459a565b603061307a9190614483565b60f81b8183815181106130905761308f614bce565b5b60200101907effffffffffffffffffffffffffffffffffffffffffffffffffffffffffffff1916908160001a905350600a856130cc919061465d565b945061304a565b8093505050505b919050565b50505050565b50505050565b60006001549050600073ffffffffffffffffffffffffffffffffffffffff168473ffffffffffffffffffffffffffffffffffffffff161415613162576040517f08c379a00000000000000000000000000000000000000000000000000000000081526004016131599061553c565b60405180910390fd5b61316b816120c0565b156131ab576040517f08c379a00000000000000000000000000000000000000000000000000000000081526004016131a2906155a8565b60405180910390fd5b7f000000000000000000000000000000000000000000000000000000000000000083111561320e576040517f08c379a00000000000000000000000000000000000000000000000000000000081526004016132059061563a565b60405180910390fd5b61321b60008583866130df565b6000600560008673ffffffffffffffffffffffffffffffffffffffff1673ffffffffffffffffffffffffffffffffffffffff1681526020019081526020016000206040518060400160405290816000820160009054906101000a90046fffffffffffffffffffffffffffffffff166fffffffffffffffffffffffffffffffff166fffffffffffffffffffffffffffffffff1681526020016000820160109054906101000a90046fffffffffffffffffffffffffffffffff166fffffffffffffffffffffffffffffffff166fffffffffffffffffffffffffffffffff16815250509050604051806040016040528085836000015161331891906150df565b6fffffffffffffffffffffffffffffffff16815260200185836020015161333f91906150df565b6fffffffffffffffffffffffffffffffff16815250600560008773ffffffffffffffffffffffffffffffffffffffff1673ffffffffffffffffffffffffffffffffffffffff16815260200190815260200160002060008201518160000160006101000a8154816fffffffffffffffffffffffffffffffff02191690836fffffffffffffffffffffffffffffffff16021790555060208201518160000160106101000a8154816fffffffffffffffffffffffffffffffff02191690836fffffffffffffffffffffffffffffffff16021790555090505060405180604001604052808673ffffffffffffffffffffffffffffffffffffffff1681526020014267ffffffffffffffff168152506004600084815260200190815260200160002060008201518160000160006101000a81548173ffffffffffffffffffffffffffffffffffffffff021916908373ffffffffffffffffffffffffffffffffffffffff16021790555060208201518160000160146101000a81548167ffffffffffffffff021916908367ffffffffffffffff160217905550905050600082905060005b858110156135ae57818773ffffffffffffffffffffffffffffffffffffffff16600073ffffffffffffffffffffffffffffffffffffffff167fddf252ad1be2c89b69c2b068fc378daa952ba7f163c4a11628f55a4df523b3ef60405160405180910390a461354e6000888488612d55565b61358d576040517f08c379a000000000000000000000000000000000000000000000000000000000815260040161358490614d35565b60405180910390fd5b8180613598906143a8565b92505080806135a6906143a8565b9150506134dd565b50806001819055506135c360008785886130e5565b505050505050565b600080823b905060008111915050919050565b8280546135ea90614027565b90600052602060002090601f01602090048101928261360c5760008555613653565b82601f1061362557803560ff1916838001178555613653565b82800160010185558215613653579182015b82811115613652578235825591602001919060010190613637565b5b509050613660919061369e565b5090565b6040518060400160405280600073ffffffffffffffffffffffffffffffffffffffff168152602001600067ffffffffffffffff1681525090565b5b808211156136b757600081600090555060010161369f565b5090565b6000604051905090565b600080fd5b600080fd5b60007fffffffff0000000000000000000000000000000000000000000000000000000082169050919050565b613704816136cf565b811461370f57600080fd5b50565b600081359050613721816136fb565b92915050565b60006020828403121561373d5761373c6136c5565b5b600061374b84828501613712565b91505092915050565b60008115159050919050565b61376981613754565b82525050565b60006020820190506137846000830184613760565b92915050565b600081519050919050565b600082825260208201905092915050565b60005b838110156137c45780820151818401526020810190506137a9565b838111156137d3576000848401525b50505050565b6000601f19601f8301169050919050565b60006137f58261378a565b6137ff8185613795565b935061380f8185602086016137a6565b613818816137d9565b840191505092915050565b6000602082019050818103600083015261383d81846137ea565b905092915050565b6000819050919050565b61385881613845565b811461386357600080fd5b50565b6000813590506138758161384f565b92915050565b600060208284031215613891576138906136c5565b5b600061389f84828501613866565b91505092915050565b600073ffffffffffffffffffffffffffffffffffffffff82169050919050565b60006138d3826138a8565b9050919050565b6138e3816138c8565b82525050565b60006020820190506138fe60008301846138da565b92915050565b61390d816138c8565b811461391857600080fd5b50565b60008135905061392a81613904565b92915050565b60008060408385031215613947576139466136c5565b5b60006139558582860161391b565b925050602061396685828601613866565b9150509250929050565b61397981613845565b82525050565b60006020820190506139946000830184613970565b92915050565b6000806000606084860312156139b3576139b26136c5565b5b60006139c18682870161391b565b93505060206139d28682870161391b565b92505060406139e386828701613866565b9150509250925092565b600080600060608486031215613a0657613a056136c5565b5b6000613a1486828701613866565b9350506020613a2586828701613866565b9250506040613a3686828701613866565b9150509250925092565b600060208284031215613a5657613a556136c5565b5b6000613a648482850161391b565b91505092915050565b600080fd5b600080fd5b600080fd5b60008083601f840112613a9257613a91613a6d565b5b8235905067ffffffffffffffff811115613aaf57613aae613a72565b5b602083019150836001820283011115613acb57613aca613a77565b5b9250929050565b60008060208385031215613ae957613ae86136c5565b5b600083013567ffffffffffffffff811115613b0757613b066136ca565b5b613b1385828601613a7c565b92509250509250929050565b613b28816138c8565b82525050565b600067ffffffffffffffff82169050919050565b613b4b81613b2e565b82525050565b604082016000820151613b676000850182613b1f565b506020820151613b7a6020850182613b42565b50505050565b6000604082019050613b956000830184613b51565b92915050565b613ba481613754565b8114613baf57600080fd5b50565b600081359050613bc181613b9b565b92915050565b60008060408385031215613bde57613bdd6136c5565b5b6000613bec8582860161391b565b9250506020613bfd85828601613bb2565b9150509250929050565b7f4e487b7100000000000000000000000000000000000000000000000000000000600052604160045260246000fd5b613c3f826137d9565b810181811067ffffffffffffffff82111715613c5e57613c5d613c07565b5b80604052505050565b6000613c716136bb565b9050613c7d8282613c36565b919050565b600067ffffffffffffffff821115613c9d57613c9c613c07565b5b602082029050602081019050919050565b6000613cc1613cbc84613c82565b613c67565b90508083825260208201905060208402830185811115613ce457613ce3613a77565b5b835b81811015613d0d5780613cf9888261391b565b845260208401935050602081019050613ce6565b5050509392505050565b600082601f830112613d2c57613d2b613a6d565b5b8135613d3c848260208601613cae565b91505092915050565b600067ffffffffffffffff821115613d6057613d5f613c07565b5b602082029050602081019050919050565b6000613d84613d7f84613d45565b613c67565b90508083825260208201905060208402830185811115613da757613da6613a77565b5b835b81811015613dd05780613dbc8882613866565b845260208401935050602081019050613da9565b5050509392505050565b600082601f830112613def57613dee613a6d565b5b8135613dff848260208601613d71565b91505092915050565b60008060408385031215613e1f57613e1e6136c5565b5b600083013567ffffffffffffffff811115613e3d57613e3c6136ca565b5b613e4985828601613d17565b925050602083013567ffffffffffffffff811115613e6a57613e696136ca565b5b613e7685828601613dda565b9150509250929050565b600080fd5b600067ffffffffffffffff821115613ea057613e9f613c07565b5b613ea9826137d9565b9050602081019050919050565b82818337600083830152505050565b6000613ed8613ed384613e85565b613c67565b905082815260208101848484011115613ef457613ef3613e80565b5b613eff848285613eb6565b509392505050565b600082601f830112613f1c57613f1b613a6d565b5b8135613f2c848260208601613ec5565b91505092915050565b60008060008060808587031215613f4f57613f4e6136c5565b5b6000613f5d8782880161391b565b9450506020613f6e8782880161391b565b9350506040613f7f87828801613866565b925050606085013567ffffffffffffffff811115613fa057613f9f6136ca565b5b613fac87828801613f07565b91505092959194509250565b60008060408385031215613fcf57613fce6136c5565b5b6000613fdd8582860161391b565b9250506020613fee8582860161391b565b9150509250929050565b7f4e487b7100000000000000000000000000000000000000000000000000000000600052602260045260246000fd5b6000600282049050600182168061403f57607f821691505b6020821081141561405357614052613ff8565b5b50919050565b7f455243373231413a20617070726f76656420717565727920666f72206e6f6e6560008201527f78697374656e7420746f6b656e00000000000000000000000000000000000000602082015250565b60006140b5602d83613795565b91506140c082614059565b604082019050919050565b600060208201905081810360008301526140e4816140a8565b9050919050565b7f455243373231413a20617070726f76616c20746f2063757272656e74206f776e60008201527f6572000000000000000000000000000000000000000000000000000000000000602082015250565b6000614147602283613795565b9150614152826140eb565b604082019050919050565b600060208201905081810360008301526141768161413a565b9050919050565b7f455243373231413a20617070726f76652063616c6c6572206973206e6f74206f60008201527f776e6572206e6f7220617070726f76656420666f7220616c6c00000000000000602082015250565b60006141d9603983613795565b91506141e48261417d565b604082019050919050565b60006020820190508181036000830152614208816141cc565b9050919050565b7f4f776e61626c653a2063616c6c6572206973206e6f7420746865206f776e6572600082015250565b6000614245602083613795565b91506142508261420f565b602082019050919050565b6000602082019050818103600083015261427481614238565b9050919050565b7f5265656e7472616e637947756172643a207265656e7472616e742063616c6c00600082015250565b60006142b1601f83613795565b91506142bc8261427b565b602082019050919050565b600060208201905081810360008301526142e0816142a4565b9050919050565b7f455243373231413a206f776e657220696e646578206f7574206f6620626f756e60008201527f6473000000000000000000000000000000000000000000000000000000000000602082015250565b6000614343602283613795565b915061434e826142e7565b604082019050919050565b6000602082019050818103600083015261437281614336565b9050919050565b7f4e487b7100000000000000000000000000000000000000000000000000000000600052601160045260246000fd5b60006143b382613845565b91507fffffffffffffffffffffffffffffffffffffffffffffffffffffffffffffffff8214156143e6576143e5614379565b5b600182019050919050565b7f455243373231413a20756e61626c6520746f2067657420746f6b656e206f662060008201527f6f776e657220627920696e646578000000000000000000000000000000000000602082015250565b600061444d602e83613795565b9150614458826143f1565b604082019050919050565b6000602082019050818103600083015261447c81614440565b9050919050565b600061448e82613845565b915061449983613845565b9250827fffffffffffffffffffffffffffffffffffffffffffffffffffffffffffffffff038211156144ce576144cd614379565b5b828201905092915050565b7f746f6f206d616e7920616c7265616479206d696e746564206265666f7265206460008201527f6576206d696e7400000000000000000000000000000000000000000000000000602082015250565b6000614535602783613795565b9150614540826144d9565b604082019050919050565b6000602082019050818103600083015261456481614528565b9050919050565b7f4e487b7100000000000000000000000000000000000000000000000000000000600052601260045260246000fd5b60006145a582613845565b91506145b083613845565b9250826145c0576145bf61456b565b5b828206905092915050565b7f63616e206f6e6c79206d696e742061206d756c7469706c65206f66207468652060008201527f6d6178426174636853697a650000000000000000000000000000000000000000602082015250565b6000614627602c83613795565b9150614632826145cb565b604082019050919050565b600060208201905081810360008301526146568161461a565b9050919050565b600061466882613845565b915061467383613845565b9250826146835761468261456b565b5b828204905092915050565b7f5468652063616c6c657220697320616e6f7468657220636f6e74726163740000600082015250565b60006146c4601e83613795565b91506146cf8261468e565b602082019050919050565b600060208201905081810360008301526146f3816146b7565b9050919050565b7f616c6c6f776c6973742073616c6520686173206e6f7420626567756e20796574600082015250565b6000614730602083613795565b915061473b826146fa565b602082019050919050565b6000602082019050818103600083015261475f81614723565b9050919050565b7f6e6f7420656c696769626c6520666f7220616c6c6f776c697374206d696e7400600082015250565b600061479c601f83613795565b91506147a782614766565b602082019050919050565b600060208201905081810360008301526147cb8161478f565b9050919050565b7f72656163686564206d617820737570706c790000000000000000000000000000600082015250565b6000614808601283613795565b9150614813826147d2565b602082019050919050565b60006020820190508181036000830152614837816147fb565b9050919050565b600061484982613845565b9150600082141561485d5761485c614379565b5b600182039050919050565b7f455243373231413a206e756d626572206d696e74656420717565727920666f7260008201527f20746865207a65726f2061646472657373000000000000000000000000000000602082015250565b60006148c4603183613795565b91506148cf82614868565b604082019050919050565b600060208201905081810360008301526148f3816148b7565b9050919050565b7f455243373231413a20676c6f62616c20696e646578206f7574206f6620626f7560008201527f6e64730000000000000000000000000000000000000000000000000000000000602082015250565b6000614956602383613795565b9150614961826148fa565b604082019050919050565b6000602082019050818103600083015261498581614949565b9050919050565b7f455243373231413a2062616c616e636520717565727920666f7220746865207a60008201527f65726f2061646472657373000000000000000000000000000000000000000000602082015250565b60006149e8602b83613795565b91506149f38261498c565b604082019050919050565b60006020820190508181036000830152614a17816149db565b9050919050565b7f455243373231413a20617070726f766520746f2063616c6c6572000000000000600082015250565b6000614a54601a83613795565b9150614a5f82614a1e565b602082019050919050565b60006020820190508181036000830152614a8381614a47565b9050919050565b600081905092915050565b50565b6000614aa5600083614a8a565b9150614ab082614a95565b600082019050919050565b6000614ac682614a98565b9150819050919050565b7f5472616e73666572206661696c65642e00000000000000000000000000000000600082015250565b6000614b06601083613795565b9150614b1182614ad0565b602082019050919050565b60006020820190508181036000830152614b3581614af9565b9050919050565b7f61646472657373657320646f6573206e6f74206d61746368206e756d536c6f7460008201527f73206c656e677468000000000000000000000000000000000000000000000000602082015250565b6000614b98602883613795565b9150614ba382614b3c565b604082019050919050565b60006020820190508181036000830152614bc781614b8b565b9050919050565b7f4e487b7100000000000000000000000000000000000000000000000000000000600052603260045260246000fd5b7f63616e206e6f74206d696e742074686973206d616e7900000000000000000000600082015250565b6000614c33601683613795565b9150614c3e82614bfd565b602082019050919050565b60006020820190508181036000830152614c6281614c26565b9050919050565b6000614c7482613845565b9150614c7f83613845565b9250817fffffffffffffffffffffffffffffffffffffffffffffffffffffffffffffffff0483118215151615614cb857614cb7614379565b5b828202905092915050565b7f455243373231413a207472616e7366657220746f206e6f6e204552433732315260008201527f6563656976657220696d706c656d656e74657200000000000000000000000000602082015250565b6000614d1f603383613795565b9150614d2a82614cc3565b604082019050919050565b60006020820190508181036000830152614d4e81614d12565b9050919050565b7f4552433732314d657461646174613a2055524920717565727920666f72206e6f60008201527f6e6578697374656e7420746f6b656e0000000000000000000000000000000000602082015250565b6000614db1602f83613795565b9150614dbc82614d55565b604082019050919050565b60006020820190508181036000830152614de081614da4565b9050919050565b600081905092915050565b6000614dfd8261378a565b614e078185614de7565b9350614e178185602086016137a6565b80840191505092915050565b6000614e2f8285614df2565b9150614e3b8284614df2565b91508190509392505050565b7f4f776e61626c653a206e6577206f776e657220697320746865207a65726f206160008201527f6464726573730000000000000000000000000000000000000000000000000000602082015250565b6000614ea3602683613795565b9150614eae82614e47565b604082019050919050565b60006020820190508181036000830152614ed281614e96565b9050919050565b7f455243373231413a207472616e736665722063616c6c6572206973206e6f742060008201527f6f776e6572206e6f7220617070726f7665640000000000000000000000000000602082015250565b6000614f35603283613795565b9150614f4082614ed9565b604082019050919050565b60006020820190508181036000830152614f6481614f28565b9050919050565b7f455243373231413a207472616e736665722066726f6d20696e636f727265637460008201527f206f776e65720000000000000000000000000000000000000000000000000000602082015250565b6000614fc7602683613795565b9150614fd282614f6b565b604082019050919050565b60006020820190508181036000830152614ff681614fba565b9050919050565b7f455243373231413a207472616e7366657220746f20746865207a65726f20616460008201527f6472657373000000000000000000000000000000000000000000000000000000602082015250565b6000615059602583613795565b915061506482614ffd565b604082019050919050565b600060208201905081810360008301526150888161504c565b9050919050565b60006fffffffffffffffffffffffffffffffff82169050919050565b60006150b68261508f565b91506150c18361508f565b9250828210156150d4576150d3614379565b5b828203905092915050565b60006150ea8261508f565b91506150f58361508f565b9250826fffffffffffffffffffffffffffffffff0382111561511a57615119614379565b5b828201905092915050565b7f7175616e74697479206d757374206265206e6f6e7a65726f0000000000000000600082015250565b600061515b601883613795565b915061516682615125565b602082019050919050565b6000602082019050818103600083015261518a8161514e565b9050919050565b600061519c82613845565b91506151a783613845565b9250828210156151ba576151b9614379565b5b828203905092915050565b7f6e6f7420656e6f756768206d696e7465642079657420666f722074686973206360008201527f6c65616e75700000000000000000000000000000000000000000000000000000602082015250565b6000615221602683613795565b915061522c826151c5565b604082019050919050565b6000602082019050818103600083015261525081615214565b9050919050565b7f4e65656420746f2073656e64206d6f7265204554482e00000000000000000000600082015250565b600061528d601683613795565b915061529882615257565b602082019050919050565b600060208201905081810360008301526152bc81615280565b9050919050565b7f455243373231413a206f776e657220717565727920666f72206e6f6e6578697360008201527f74656e7420746f6b656e00000000000000000000000000000000000000000000602082015250565b600061531f602a83613795565b915061532a826152c3565b604082019050919050565b6000602082019050818103600083015261534e81615312565b9050919050565b7f455243373231413a20756e61626c6520746f2064657465726d696e652074686560008201527f206f776e6572206f6620746f6b656e0000000000000000000000000000000000602082015250565b60006153b1602f83613795565b91506153bc82615355565b604082019050919050565b600060208201905081810360008301526153e0816153a4565b9050919050565b600081519050919050565b600082825260208201905092915050565b600061540e826153e7565b61541881856153f2565b93506154288185602086016137a6565b615431816137d9565b840191505092915050565b600060808201905061545160008301876138da565b61545e60208301866138da565b61546b6040830185613970565b818103606083015261547d8184615403565b905095945050505050565b600081519050615497816136fb565b92915050565b6000602082840312156154b3576154b26136c5565b5b60006154c184828501615488565b91505092915050565b7f455243373231413a206d696e7420746f20746865207a65726f2061646472657360008201527f7300000000000000000000000000000000000000000000000000000000000000602082015250565b6000615526602183613795565b9150615531826154ca565b604082019050919050565b6000602082019050818103600083015261555581615519565b9050919050565b7f455243373231413a20746f6b656e20616c7265616479206d696e746564000000600082015250565b6000615592601d83613795565b915061559d8261555c565b602082019050919050565b600060208201905081810360008301526155c181615585565b9050919050565b7f455243373231413a207175616e7469747920746f206d696e7420746f6f20686960008201527f6768000000000000000000000000000000000000000000000000000000000000602082015250565b6000615624602283613795565b915061562f826155c8565b604082019050919050565b6000602082019050818103600083015261565381615617565b905091905056fea26469706673582212205aa867be8ce711ffc43a0661b36831126203f4766fdf1c7c16ed3cd3e18c7a0d64736f6c63430008090033",
  "immutableReferences": {
    "936": [
      {
        "length": 32,
        "start": 4598
      },
      {
        "length": 32,
        "start": 7296
      },
      {
        "length": 32,
        "start": 10155
      },
      {
        "length": 32,
        "start": 10207
      }
    ],
    "938": [
      {
        "length": 32,
        "start": 4045
      },
      {
        "length": 32,
        "start": 4155
      },
      {
        "length": 32,
        "start": 4216
      },
      {
        "length": 32,
        "start": 10978
      },
      {
        "length": 32,
        "start": 11019
      },
      {
        "length": 32,
        "start": 12717
      }
    ],
    "2103": [
      {
        "length": 32,
        "start": 5785
      },
      {
        "length": 32,
        "start": 7413
      }
    ],
    "2105": [
      {
        "length": 32,
        "start": 3926
      },
      {
        "length": 32,
        "start": 8244
      }
    ],
    "2107": [
      {
        "length": 32,
        "start": 5358
      }
    ]
  },
  "source": "// SPDX-License-Identifier: MIT\n\npragma solidity ^0.8.0;\n\nimport \"@openzeppelin/contracts/access/Ownable.sol\";\nimport \"@openzeppelin/contracts/security/ReentrancyGuard.sol\";\nimport \"./ERC721A.sol\";\nimport \"@openzeppelin/contracts/utils/Strings.sol\";\n\ncontract YetiPunks is Ownable, ERC721A, ReentrancyGuard {\n  uint256 public immutable maxPerAddressDuringMint;\n  uint256 public immutable amountForDevs;\n  uint256 public immutable amountForAuctionAndDev;\n\n  mapping(address => uint256) public allowlist;\n\n  constructor(\n    uint256 maxBatchSize_,\n    uint256 collectionSize_,\n    uint256 amountForAuctionAndDev_,\n    uint256 amountForDevs_\n  ) ERC721A(\"Petty Monks\", \"PM\", maxBatchSize_, collectionSize_) {\n    maxPerAddressDuringMint = maxBatchSize_;\n    amountForAuctionAndDev = amountForAuctionAndDev_;\n    amountForDevs = amountForDevs_;\n    require(\n      amountForAuctionAndDev_ <= collectionSize_,\n      \"larger collection size needed\"\n    );\n  }\n\n  modifier callerIsUser() {\n    require(tx.origin == msg.sender, \"The caller is another contract\");\n    _;\n  }\n\n  function allowlistMint() external payable callerIsUser {\n    uint256 price = 0.05 ether;\n    require(price != 0, \"allowlist sale has not begun yet\");\n    require(allowlist[msg.sender] > 0, \"not eligible for allowlist mint\");\n    require(totalSupply() + 1 <= collectionSize, \"reached max supply\");\n    allowlist[msg.sender]--;\n    _safeMint(msg.sender, 1);\n    refundIfOver(price);\n  }\n\n  function publicSaleMint(uint256 quantity)\n    external\n    payable\n    callerIsUser\n  {\n\n    uint256 publicPrice = 0.03 ether;\n\n    require(totalSupply() + quantity <= collectionSize, \"reached max supply\");\n    require(\n      numberMinted(msg.sender) + quantity <= maxPerAddressDuringMint,\n      \"can not mint this many\"\n    );\n    _safeMint(msg.sender, quantity);\n    refundIfOver(publicPrice * quantity);\n  }\n\n  function refundIfOver(uint256 price) private {\n    require(msg.value >= price, \"Need to send more ETH.\");\n    if (msg.value > price) {\n      payable(msg.sender).transfer(msg.value - price);\n    }\n  }\n\n  function isPublicSaleOn(\n    uint256 publicPriceWei,\n    uint256 publicSaleKey,\n    uint256 publicSaleStartTime\n  ) public view returns (bool) {\n    return\n      publicPriceWei != 0 &&\n      publicSaleKey != 0 &&\n      block.timestamp >= publicSaleStartTime;\n  }\n\n  function seedAllowlist(address[] memory addresses, uint256[] memory numSlots)\n    external\n    onlyOwner\n  {\n    require(\n      addresses.length == numSlots.length,\n      \"addresses does not match numSlots length\"\n    );\n    for (uint256 i = 0; i < addresses.length; i++) {\n      allowlist[addresses[i]] = numSlots[i];\n    }\n  }\n\n  // For marketing etc.\n  function devMint(uint256 quantity) external onlyOwner {\n    require(\n      totalSupply() + quantity <= amountForDevs,\n      \"too many already minted before dev mint\"\n    );\n    require(\n      quantity % maxBatchSize == 0,\n      \"can only mint a multiple of the maxBatchSize\"\n    );\n    uint256 numChunks = quantity / maxBatchSize;\n    for (uint256 i = 0; i < numChunks; i++) {\n      _safeMint(msg.sender, maxBatchSize);\n    }\n  }\n\n  // metadata URI\n  string private _baseTokenURI;\n\n  function _baseURI() internal view virtual override returns (string memory) {\n    return _baseTokenURI;\n  }\n\n  function setBaseURI(string calldata baseURI) external onlyOwner {\n    _baseTokenURI = baseURI;\n  }\n\n  function withdrawMoney() external onlyOwner nonReentrant {\n    (bool success, ) = msg.sender.call{value: address(this).balance}(\"\");\n    require(success, \"Transfer failed.\");\n  }\n\n  function setOwnersExplicit(uint256 quantity) external onlyOwner nonReentrant {\n    _setOwnersExplicit(quantity);\n  }\n\n  function numberMinted(address owner) public view returns (uint256) {\n    return _numberMinted(owner);\n  }\n\n  function getOwnershipData(uint256 tokenId)\n    external\n    view\n    returns (TokenOwnership memory)\n  {\n    return ownershipOf(tokenId);\n  }\n}",
  "sourcePath": "/Users/christopherfoley/nft/YetiPunks/src/contracts/YetiPunks.sol",
  "compiler": {
    "name": "solc",
    "version": "0.8.9+commit.e5eed63a.Emscripten.clang"
  },
  "schemaVersion": "3.4.4",
  "updatedAt": "2022-02-07T03:47:01.185Z",
  "networkType": "ethereum",
  "devdoc": {
    "kind": "dev",
    "methods": {
      "approve(address,uint256)": {
        "details": "See {IERC721-approve}."
      },
      "balanceOf(address)": {
        "details": "See {IERC721-balanceOf}."
      },
      "getApproved(uint256)": {
        "details": "See {IERC721-getApproved}."
      },
      "isApprovedForAll(address,address)": {
        "details": "See {IERC721-isApprovedForAll}."
      },
      "name()": {
        "details": "See {IERC721Metadata-name}."
      },
      "owner()": {
        "details": "Returns the address of the current owner."
      },
      "ownerOf(uint256)": {
        "details": "See {IERC721-ownerOf}."
      },
      "renounceOwnership()": {
        "details": "Leaves the contract without owner. It will not be possible to call `onlyOwner` functions anymore. Can only be called by the current owner. NOTE: Renouncing ownership will leave the contract without an owner, thereby removing any functionality that is only available to the owner."
      },
      "safeTransferFrom(address,address,uint256)": {
        "details": "See {IERC721-safeTransferFrom}."
      },
      "safeTransferFrom(address,address,uint256,bytes)": {
        "details": "See {IERC721-safeTransferFrom}."
      },
      "setApprovalForAll(address,bool)": {
        "details": "See {IERC721-setApprovalForAll}."
      },
      "supportsInterface(bytes4)": {
        "details": "See {IERC165-supportsInterface}."
      },
      "symbol()": {
        "details": "See {IERC721Metadata-symbol}."
      },
      "tokenByIndex(uint256)": {
        "details": "See {IERC721Enumerable-tokenByIndex}."
      },
      "tokenOfOwnerByIndex(address,uint256)": {
        "details": "See {IERC721Enumerable-tokenOfOwnerByIndex}. This read function is O(collectionSize). If calling from a separate contract, be sure to test gas first. It may also degrade with extremely large collection sizes (e.g >> 10000), test for your use case."
      },
      "tokenURI(uint256)": {
        "details": "See {IERC721Metadata-tokenURI}."
      },
      "totalSupply()": {
        "details": "See {IERC721Enumerable-totalSupply}."
      },
      "transferFrom(address,address,uint256)": {
        "details": "See {IERC721-transferFrom}."
      },
      "transferOwnership(address)": {
        "details": "Transfers ownership of the contract to a new account (`newOwner`). Can only be called by the current owner."
      }
    },
    "version": 1
  },
  "userdoc": {
    "kind": "user",
    "methods": {},
    "version": 1
  }
}