{
  "contractName": "YetiPunks",
  "abi": [
    {
      "inputs": [],
      "stateMutability": "nonpayable",
      "type": "constructor"
    },
    {
      "anonymous": false,
      "inputs": [
        {
          "indexed": true,
          "internalType": "address",
          "name": "owner",
          "type": "address"
        },
        {
          "indexed": true,
          "internalType": "address",
          "name": "approved",
          "type": "address"
        },
        {
          "indexed": true,
          "internalType": "uint256",
          "name": "tokenId",
          "type": "uint256"
        }
      ],
      "name": "Approval",
      "type": "event"
    },
    {
      "anonymous": false,
      "inputs": [
        {
          "indexed": true,
          "internalType": "address",
          "name": "owner",
          "type": "address"
        },
        {
          "indexed": true,
          "internalType": "address",
          "name": "operator",
          "type": "address"
        },
        {
          "indexed": false,
          "internalType": "bool",
          "name": "approved",
          "type": "bool"
        }
      ],
      "name": "ApprovalForAll",
      "type": "event"
    },
    {
      "anonymous": false,
      "inputs": [
        {
          "indexed": true,
          "internalType": "address",
          "name": "previousOwner",
          "type": "address"
        },
        {
          "indexed": true,
          "internalType": "address",
          "name": "newOwner",
          "type": "address"
        }
      ],
      "name": "OwnershipTransferred",
      "type": "event"
    },
    {
      "anonymous": false,
      "inputs": [
        {
          "indexed": false,
          "internalType": "uint256",
          "name": "tokenId",
          "type": "uint256"
        },
        {
          "components": [
            {
              "internalType": "address payable",
              "name": "account",
              "type": "address"
            },
            {
              "internalType": "uint96",
              "name": "value",
              "type": "uint96"
            }
          ],
          "indexed": false,
          "internalType": "struct LibPart.Part[]",
          "name": "royalties",
          "type": "tuple[]"
        }
      ],
      "name": "RoyaltiesSet",
      "type": "event"
    },
    {
      "anonymous": false,
      "inputs": [
        {
          "indexed": true,
          "internalType": "address",
          "name": "from",
          "type": "address"
        },
        {
          "indexed": true,
          "internalType": "address",
          "name": "to",
          "type": "address"
        },
        {
          "indexed": true,
          "internalType": "uint256",
          "name": "tokenId",
          "type": "uint256"
        }
      ],
      "name": "Transfer",
      "type": "event"
    },
    {
      "inputs": [],
      "name": "MAX_SUPPLY",
      "outputs": [
        {
          "internalType": "uint16",
          "name": "",
          "type": "uint16"
        }
      ],
      "stateMutability": "view",
      "type": "function",
      "constant": true
    },
    {
      "inputs": [
        {
          "internalType": "address",
          "name": "to",
          "type": "address"
        },
        {
          "internalType": "uint256",
          "name": "tokenId",
          "type": "uint256"
        }
      ],
      "name": "approve",
      "outputs": [],
      "stateMutability": "nonpayable",
      "type": "function"
    },
    {
      "inputs": [
        {
          "internalType": "address",
          "name": "owner",
          "type": "address"
        }
      ],
      "name": "balanceOf",
      "outputs": [
        {
          "internalType": "uint256",
          "name": "",
          "type": "uint256"
        }
      ],
      "stateMutability": "view",
      "type": "function",
      "constant": true
    },
    {
      "inputs": [],
      "name": "cost",
      "outputs": [
        {
          "internalType": "uint256",
          "name": "",
          "type": "uint256"
        }
      ],
      "stateMutability": "view",
      "type": "function",
      "constant": true
    },
    {
      "inputs": [
        {
          "internalType": "uint256",
          "name": "tokenId",
          "type": "uint256"
        }
      ],
      "name": "getApproved",
      "outputs": [
        {
          "internalType": "address",
          "name": "",
          "type": "address"
        }
      ],
      "stateMutability": "view",
      "type": "function",
      "constant": true
    },
    {
      "inputs": [
        {
          "internalType": "uint256",
          "name": "id",
          "type": "uint256"
        }
      ],
      "name": "getRaribleV2Royalties",
      "outputs": [
        {
          "components": [
            {
              "internalType": "address payable",
              "name": "account",
              "type": "address"
            },
            {
              "internalType": "uint96",
              "name": "value",
              "type": "uint96"
            }
          ],
          "internalType": "struct LibPart.Part[]",
          "name": "",
          "type": "tuple[]"
        }
      ],
      "stateMutability": "view",
      "type": "function",
      "constant": true
    },
    {
      "inputs": [
        {
          "internalType": "address",
          "name": "owner",
          "type": "address"
        },
        {
          "internalType": "address",
          "name": "operator",
          "type": "address"
        }
      ],
      "name": "isApprovedForAll",
      "outputs": [
        {
          "internalType": "bool",
          "name": "",
          "type": "bool"
        }
      ],
      "stateMutability": "view",
      "type": "function",
      "constant": true
    },
    {
      "inputs": [],
      "name": "maxMintAmountPerTx",
      "outputs": [
        {
          "internalType": "uint16",
          "name": "",
          "type": "uint16"
        }
      ],
      "stateMutability": "view",
      "type": "function",
      "constant": true
    },
    {
      "inputs": [],
      "name": "name",
      "outputs": [
        {
          "internalType": "string",
          "name": "",
          "type": "string"
        }
      ],
      "stateMutability": "view",
      "type": "function",
      "constant": true
    },
    {
      "inputs": [],
      "name": "owner",
      "outputs": [
        {
          "internalType": "address",
          "name": "",
          "type": "address"
        }
      ],
      "stateMutability": "view",
      "type": "function",
      "constant": true
    },
    {
      "inputs": [
        {
          "internalType": "uint256",
          "name": "tokenId",
          "type": "uint256"
        }
      ],
      "name": "ownerOf",
      "outputs": [
        {
          "internalType": "address",
          "name": "",
          "type": "address"
        }
      ],
      "stateMutability": "view",
      "type": "function",
      "constant": true
    },
    {
      "inputs": [],
      "name": "paused",
      "outputs": [
        {
          "internalType": "bool",
          "name": "",
          "type": "bool"
        }
      ],
      "stateMutability": "view",
      "type": "function",
      "constant": true
    },
    {
      "inputs": [],
      "name": "renounceOwnership",
      "outputs": [],
      "stateMutability": "nonpayable",
      "type": "function"
    },
    {
      "inputs": [
        {
          "internalType": "address",
          "name": "from",
          "type": "address"
        },
        {
          "internalType": "address",
          "name": "to",
          "type": "address"
        },
        {
          "internalType": "uint256",
          "name": "tokenId",
          "type": "uint256"
        }
      ],
      "name": "safeTransferFrom",
      "outputs": [],
      "stateMutability": "nonpayable",
      "type": "function"
    },
    {
      "inputs": [
        {
          "internalType": "address",
          "name": "from",
          "type": "address"
        },
        {
          "internalType": "address",
          "name": "to",
          "type": "address"
        },
        {
          "internalType": "uint256",
          "name": "tokenId",
          "type": "uint256"
        },
        {
          "internalType": "bytes",
          "name": "_data",
          "type": "bytes"
        }
      ],
      "name": "safeTransferFrom",
      "outputs": [],
      "stateMutability": "nonpayable",
      "type": "function"
    },
    {
      "inputs": [
        {
          "internalType": "address",
          "name": "operator",
          "type": "address"
        },
        {
          "internalType": "bool",
          "name": "approved",
          "type": "bool"
        }
      ],
      "name": "setApprovalForAll",
      "outputs": [],
      "stateMutability": "nonpayable",
      "type": "function"
    },
    {
      "inputs": [],
      "name": "symbol",
      "outputs": [
        {
          "internalType": "string",
          "name": "",
          "type": "string"
        }
      ],
      "stateMutability": "view",
      "type": "function",
      "constant": true
    },
    {
      "inputs": [
        {
          "internalType": "address",
          "name": "from",
          "type": "address"
        },
        {
          "internalType": "address",
          "name": "to",
          "type": "address"
        },
        {
          "internalType": "uint256",
          "name": "tokenId",
          "type": "uint256"
        }
      ],
      "name": "transferFrom",
      "outputs": [],
      "stateMutability": "nonpayable",
      "type": "function"
    },
    {
      "inputs": [
        {
          "internalType": "address",
          "name": "newOwner",
          "type": "address"
        }
      ],
      "name": "transferOwnership",
      "outputs": [],
      "stateMutability": "nonpayable",
      "type": "function"
    },
    {
      "inputs": [],
      "name": "uriPrefix",
      "outputs": [
        {
          "internalType": "string",
          "name": "",
          "type": "string"
        }
      ],
      "stateMutability": "view",
      "type": "function",
      "constant": true
    },
    {
      "inputs": [],
      "name": "uriSuffix",
      "outputs": [
        {
          "internalType": "string",
          "name": "",
          "type": "string"
        }
      ],
      "stateMutability": "view",
      "type": "function",
      "constant": true
    },
    {
      "inputs": [],
      "name": "totalSupply",
      "outputs": [
        {
          "internalType": "uint256",
          "name": "",
          "type": "uint256"
        }
      ],
      "stateMutability": "view",
      "type": "function",
      "constant": true
    },
    {
      "inputs": [
        {
          "internalType": "uint256",
          "name": "_mintAmount",
          "type": "uint256"
        }
      ],
      "name": "mint",
      "outputs": [],
      "stateMutability": "payable",
      "type": "function",
      "payable": true
    },
    {
      "inputs": [
        {
          "internalType": "uint256",
          "name": "_mintAmount",
          "type": "uint256"
        },
        {
          "internalType": "address",
          "name": "_receiver",
          "type": "address"
        }
      ],
      "name": "mintForAddress",
      "outputs": [],
      "stateMutability": "nonpayable",
      "type": "function"
    },
    {
      "inputs": [
        {
          "internalType": "uint256",
          "name": "_tokenId",
          "type": "uint256"
        }
      ],
      "name": "tokenURI",
      "outputs": [
        {
          "internalType": "string",
          "name": "",
          "type": "string"
        }
      ],
      "stateMutability": "view",
      "type": "function",
      "constant": true
    },
    {
      "inputs": [
        {
          "internalType": "string",
          "name": "_uriPrefix",
          "type": "string"
        }
      ],
      "name": "setUriPrefix",
      "outputs": [],
      "stateMutability": "nonpayable",
      "type": "function"
    },
    {
      "inputs": [
        {
          "internalType": "bool",
          "name": "_state",
          "type": "bool"
        }
      ],
      "name": "setPaused",
      "outputs": [],
      "stateMutability": "nonpayable",
      "type": "function"
    },
    {
      "inputs": [],
      "name": "withdrawBalance",
      "outputs": [],
      "stateMutability": "nonpayable",
      "type": "function"
    },
    {
      "inputs": [
        {
          "internalType": "uint256",
          "name": "tokenId",
          "type": "uint256"
        },
        {
          "internalType": "address payable",
          "name": "royaltyTo",
          "type": "address"
        },
        {
          "internalType": "uint96",
          "name": "percentageBasisPoints",
          "type": "uint96"
        }
      ],
      "name": "setRoyalties",
      "outputs": [],
      "stateMutability": "nonpayable",
      "type": "function"
    },
    {
      "inputs": [
        {
          "internalType": "uint256",
          "name": "_tokenId",
          "type": "uint256"
        },
        {
          "internalType": "uint256",
          "name": "_salePrice",
          "type": "uint256"
        }
      ],
      "name": "royaltyInfo",
      "outputs": [
        {
          "internalType": "address",
          "name": "receiver",
          "type": "address"
        },
        {
          "internalType": "uint256",
          "name": "royaltyAmount",
          "type": "uint256"
        }
      ],
      "stateMutability": "view",
      "type": "function",
      "constant": true
    },
    {
      "inputs": [
        {
          "internalType": "bytes4",
          "name": "interfaceId",
          "type": "bytes4"
        }
      ],
      "name": "supportsInterface",
      "outputs": [
        {
          "internalType": "bool",
          "name": "",
          "type": "bool"
        }
      ],
      "stateMutability": "view",
      "type": "function",
      "constant": true
    }
  ],
  "bytecode": "0x608060405260405180602001604052806000815250600990805190602001906200002b92919062000260565b506040518060400160405280600581526020017f2e6a736f6e000000000000000000000000000000000000000000000000000000815250600a90805190602001906200007992919062000260565b506014600b60006101000a81548161ffff021916908361ffff160217905550666a94d74f430000600c556000600d60006101000a81548160ff021916908315150217905550348015620000cb57600080fd5b506040518060400160405280600b81526020017f5065747479204d6f6e6b730000000000000000000000000000000000000000008152506040518060400160405280600281526020017f504d00000000000000000000000000000000000000000000000000000000000081525081600090805190602001906200015092919062000260565b5080600190805190602001906200016992919062000260565b5050506200018c620001806200019260201b60201c565b6200019a60201b60201c565b62000375565b600033905090565b6000600660009054906101000a900473ffffffffffffffffffffffffffffffffffffffff16905081600660006101000a81548173ffffffffffffffffffffffffffffffffffffffff021916908373ffffffffffffffffffffffffffffffffffffffff1602179055508173ffffffffffffffffffffffffffffffffffffffff168173ffffffffffffffffffffffffffffffffffffffff167f8be0079c531659141344cd1fd0a4f28419497f9722a3daafe3b4186f6b6457e060405160405180910390a35050565b8280546200026e906200033f565b90600052602060002090601f016020900481019282620002925760008555620002de565b82601f10620002ad57805160ff1916838001178555620002de565b82800160010185558215620002de579182015b82811115620002dd578251825591602001919060010190620002c0565b5b509050620002ed9190620002f1565b5090565b5b808211156200030c576000816000905550600101620002f2565b5090565b7f4e487b7100000000000000000000000000000000000000000000000000000000600052602260045260246000fd5b600060028204905060018216806200035857607f821691505b602082108114156200036f576200036e62000310565b5b50919050565b61474b80620003856000396000f3fe6080604052600436106101d85760003560e01c806362b99ad411610102578063a0712d6811610095578063cad96cca11610064578063cad96cca1461068c578063e985e9c5146106c9578063efbd73f414610706578063f2fde38b1461072f576101d8565b8063a0712d68146105e1578063a22cb465146105fd578063b88d4fde14610626578063c87b56dd1461064f576101d8565b80637ec4a659116100d15780637ec4a659146105375780638da5cb5b1461056057806394354fd01461058b57806395d89b41146105b6576101d8565b806362b99ad41461047b5780636352211e146104a657806370a08231146104e3578063715018a614610520576101d8565b806318160ddd1161017a57806342842e0e1161014957806342842e0e146103e55780635503a0e81461040e5780635c975abb146104395780635fd8c71014610464576101d8565b806318160ddd1461032857806323b872dd146103535780632a55205a1461037c57806332cb6b0c146103ba576101d8565b8063095ea7b3116101b6578063095ea7b31461028257806313faede6146102ab578063143094db146102d657806316c38b3c146102ff576101d8565b806301ffc9a7146101dd57806306fdde031461021a578063081812fc14610245575b600080fd5b3480156101e957600080fd5b5061020460048036038101906101ff9190612e10565b610758565b6040516102119190612e58565b60405180910390f35b34801561022657600080fd5b5061022f61081e565b60405161023c9190612f0c565b60405180910390f35b34801561025157600080fd5b5061026c60048036038101906102679190612f64565b6108b0565b6040516102799190612fd2565b60405180910390f35b34801561028e57600080fd5b506102a960048036038101906102a49190613019565b610935565b005b3480156102b757600080fd5b506102c0610a4d565b6040516102cd9190613068565b60405180910390f35b3480156102e257600080fd5b506102fd60048036038101906102f89190613105565b610a53565b005b34801561030b57600080fd5b5061032660048036038101906103219190613184565b610bce565b005b34801561033457600080fd5b5061033d610c67565b60405161034a9190613068565b60405180910390f35b34801561035f57600080fd5b5061037a600480360381019061037591906131b1565b610c78565b005b34801561038857600080fd5b506103a3600480360381019061039e9190613204565b610cd8565b6040516103b1929190613244565b60405180910390f35b3480156103c657600080fd5b506103cf610e62565b6040516103dc919061328a565b60405180910390f35b3480156103f157600080fd5b5061040c600480360381019061040791906131b1565b610e68565b005b34801561041a57600080fd5b50610423610e88565b6040516104309190612f0c565b60405180910390f35b34801561044557600080fd5b5061044e610f16565b60405161045b9190612e58565b60405180910390f35b34801561047057600080fd5b50610479610f29565b005b34801561048757600080fd5b50610490611166565b60405161049d9190612f0c565b60405180910390f35b3480156104b257600080fd5b506104cd60048036038101906104c89190612f64565b6111f4565b6040516104da9190612fd2565b60405180910390f35b3480156104ef57600080fd5b5061050a600480360381019061050591906132a5565b6112a6565b6040516105179190613068565b60405180910390f35b34801561052c57600080fd5b5061053561135e565b005b34801561054357600080fd5b5061055e60048036038101906105599190613407565b6113e6565b005b34801561056c57600080fd5b5061057561147c565b6040516105829190612fd2565b60405180910390f35b34801561059757600080fd5b506105a06114a6565b6040516105ad919061328a565b60405180910390f35b3480156105c257600080fd5b506105cb6114ba565b6040516105d89190612f0c565b60405180910390f35b6105fb60048036038101906105f69190612f64565b61154c565b005b34801561060957600080fd5b50610624600480360381019061061f9190613450565b61166b565b005b34801561063257600080fd5b5061064d60048036038101906106489190613531565b611681565b005b34801561065b57600080fd5b5061067660048036038101906106719190612f64565b6116e3565b6040516106839190612f0c565b60405180910390f35b34801561069857600080fd5b506106b360048036038101906106ae9190612f64565b61178a565b6040516106c091906136b0565b60405180910390f35b3480156106d557600080fd5b506106f060048036038101906106eb91906136d2565b61188c565b6040516106fd9190612e58565b60405180910390f35b34801561071257600080fd5b5061072d60048036038101906107289190613712565b611920565b005b34801561073b57600080fd5b50610756600480360381019061075191906132a5565b611a6c565b005b600063cad96cca60e01b7bffffffffffffffffffffffffffffffffffffffffffffffffffffffff1916827bffffffffffffffffffffffffffffffffffffffffffffffffffffffff191614156107b05760019050610819565b632a55205a60e01b7bffffffffffffffffffffffffffffffffffffffffffffffffffffffff1916827bffffffffffffffffffffffffffffffffffffffffffffffffffffffff1916141561080d5761080682611b64565b9050610819565b61081682611b64565b90505b919050565b60606000805461082d90613781565b80601f016020809104026020016040519081016040528092919081815260200182805461085990613781565b80156108a65780601f1061087b576101008083540402835291602001916108a6565b820191906000526020600020905b81548152906001019060200180831161088957829003601f168201915b5050505050905090565b60006108bb82611c46565b6108fa576040517f08c379a00000000000000000000000000000000000000000000000000000000081526004016108f190613825565b60405180910390fd5b6004600083815260200190815260200160002060009054906101000a900473ffffffffffffffffffffffffffffffffffffffff169050919050565b6000610940826111f4565b90508073ffffffffffffffffffffffffffffffffffffffff168373ffffffffffffffffffffffffffffffffffffffff1614156109b1576040517f08c379a00000000000000000000000000000000000000000000000000000000081526004016109a8906138b7565b60405180910390fd5b8073ffffffffffffffffffffffffffffffffffffffff166109d0611cb2565b73ffffffffffffffffffffffffffffffffffffffff1614806109ff57506109fe816109f9611cb2565b61188c565b5b610a3e576040517f08c379a0000000000000000000000000000000000000000000000000000000008152600401610a3590613949565b60405180910390fd5b610a488383611cba565b505050565b600c5481565b610a5b611cb2565b73ffffffffffffffffffffffffffffffffffffffff16610a7961147c565b73ffffffffffffffffffffffffffffffffffffffff1614610acf576040517f08c379a0000000000000000000000000000000000000000000000000000000008152600401610ac6906139b5565b60405180910390fd5b6000600167ffffffffffffffff811115610aec57610aeb6132dc565b5b604051908082528060200260200182016040528015610b2557816020015b610b12612cc3565b815260200190600190039081610b0a5790505b5090508181600081518110610b3d57610b3c6139d5565b5b6020026020010151602001906bffffffffffffffffffffffff1690816bffffffffffffffffffffffff16815250508281600081518110610b8057610b7f6139d5565b5b60200260200101516000019073ffffffffffffffffffffffffffffffffffffffff16908173ffffffffffffffffffffffffffffffffffffffff1681525050610bc88482611d73565b50505050565b610bd6611cb2565b73ffffffffffffffffffffffffffffffffffffffff16610bf461147c565b73ffffffffffffffffffffffffffffffffffffffff1614610c4a576040517f08c379a0000000000000000000000000000000000000000000000000000000008152600401610c41906139b5565b60405180910390fd5b80600d60006101000a81548160ff02191690831515021790555050565b6000610c736008611ff6565b905090565b610c89610c83611cb2565b82612004565b610cc8576040517f08c379a0000000000000000000000000000000000000000000000000000000008152600401610cbf90613a76565b60405180910390fd5b610cd38383836120e2565b505050565b600080600060076000868152602001908152602001600020805480602002602001604051908101604052809291908181526020016000905b82821015610dd2578382906000526020600020016040518060400160405290816000820160009054906101000a900473ffffffffffffffffffffffffffffffffffffffff1673ffffffffffffffffffffffffffffffffffffffff1673ffffffffffffffffffffffffffffffffffffffff1681526020016000820160149054906101000a90046bffffffffffffffffffffffff166bffffffffffffffffffffffff166bffffffffffffffffffffffff168152505081526020019060010190610d10565b505050509050600081511115610e525780600081518110610df657610df56139d5565b5b60200260200101516000015161271082600081518110610e1957610e186139d5565b5b6020026020010151602001516bffffffffffffffffffffffff1686610e3e9190613ac5565b610e489190613b4e565b9250925050610e5b565b60008092509250505b9250929050565b61271081565b610e8383838360405180602001604052806000815250611681565b505050565b600a8054610e9590613781565b80601f0160208091040260200160405190810160405280929190818152602001828054610ec190613781565b8015610f0e5780601f10610ee357610100808354040283529160200191610f0e565b820191906000526020600020905b815481529060010190602001808311610ef157829003601f168201915b505050505081565b600d60009054906101000a900460ff1681565b610f31611cb2565b73ffffffffffffffffffffffffffffffffffffffff16610f4f61147c565b73ffffffffffffffffffffffffffffffffffffffff1614610fa5576040517f08c379a0000000000000000000000000000000000000000000000000000000008152600401610f9c906139b5565b60405180910390fd5b60006064602147610fb69190613ac5565b610fc09190613b4e565b9050600073d61adc48afe9402b4411805ce6026ef74f94e71373ffffffffffffffffffffffffffffffffffffffff1682604051610ffc90613bb0565b60006040518083038185875af1925050503d8060008114611039576040519150601f19603f3d011682016040523d82523d6000602084013e61103e565b606091505b505090508061104c57600080fd5b600073e3ce04b3bcbdfa219407870ca617e18fbf503f2873ffffffffffffffffffffffffffffffffffffffff168360405161108690613bb0565b60006040518083038185875af1925050503d80600081146110c3576040519150601f19603f3d011682016040523d82523d6000602084013e6110c8565b606091505b50509050806110d657600080fd5b60007349cf0af1ce6a50e822a91a427b3e29007f9c6c0973ffffffffffffffffffffffffffffffffffffffff164760405161111090613bb0565b60006040518083038185875af1925050503d806000811461114d576040519150601f19603f3d011682016040523d82523d6000602084013e611152565b606091505b505090508061116057600080fd5b50505050565b6009805461117390613781565b80601f016020809104026020016040519081016040528092919081815260200182805461119f90613781565b80156111ec5780601f106111c1576101008083540402835291602001916111ec565b820191906000526020600020905b8154815290600101906020018083116111cf57829003601f168201915b505050505081565b6000806002600084815260200190815260200160002060009054906101000a900473ffffffffffffffffffffffffffffffffffffffff169050600073ffffffffffffffffffffffffffffffffffffffff168173ffffffffffffffffffffffffffffffffffffffff16141561129d576040517f08c379a000000000000000000000000000000000000000000000000000000000815260040161129490613c37565b60405180910390fd5b80915050919050565b60008073ffffffffffffffffffffffffffffffffffffffff168273ffffffffffffffffffffffffffffffffffffffff161415611317576040517f08c379a000000000000000000000000000000000000000000000000000000000815260040161130e90613cc9565b60405180910390fd5b600360008373ffffffffffffffffffffffffffffffffffffffff1673ffffffffffffffffffffffffffffffffffffffff168152602001908152602001600020549050919050565b611366611cb2565b73ffffffffffffffffffffffffffffffffffffffff1661138461147c565b73ffffffffffffffffffffffffffffffffffffffff16146113da576040517f08c379a00000000000000000000000000000000000000000000000000000000081526004016113d1906139b5565b60405180910390fd5b6113e4600061233e565b565b6113ee611cb2565b73ffffffffffffffffffffffffffffffffffffffff1661140c61147c565b73ffffffffffffffffffffffffffffffffffffffff1614611462576040517f08c379a0000000000000000000000000000000000000000000000000000000008152600401611459906139b5565b60405180910390fd5b8060099080519060200190611478929190612d01565b5050565b6000600660009054906101000a900473ffffffffffffffffffffffffffffffffffffffff16905090565b600b60009054906101000a900461ffff1681565b6060600180546114c990613781565b80601f01602080910402602001604051908101604052809291908181526020018280546114f590613781565b80156115425780601f1061151757610100808354040283529160200191611542565b820191906000526020600020905b81548152906001019060200180831161152557829003601f168201915b5050505050905090565b806000811180156115715750600b60009054906101000a900461ffff1661ffff168111155b6115b0576040517f08c379a00000000000000000000000000000000000000000000000000000000081526004016115a790613d35565b60405180910390fd5b61271061ffff16816115c26008611ff6565b6115cc9190613d55565b111561160d576040517f08c379a000000000000000000000000000000000000000000000000000000000815260040161160490613df7565b60405180910390fd5b81600c5461161b9190613ac5565b34101561165d576040517f08c379a000000000000000000000000000000000000000000000000000000000815260040161165490613e63565b60405180910390fd5b6116673383612404565b5050565b61167d611676611cb2565b8383612444565b5050565b61169261168c611cb2565b83612004565b6116d1576040517f08c379a00000000000000000000000000000000000000000000000000000000081526004016116c890613a76565b60405180910390fd5b6116dd848484846125b1565b50505050565b60606116ee82611c46565b61172d576040517f08c379a000000000000000000000000000000000000000000000000000000000815260040161172490613ef5565b60405180910390fd5b600061173761260d565b905060008151116117575760405180602001604052806000815250611782565b806117618461269f565b604051602001611772929190613f9d565b6040516020818303038152906040525b915050919050565b606060076000838152602001908152602001600020805480602002602001604051908101604052809291908181526020016000905b82821015611881578382906000526020600020016040518060400160405290816000820160009054906101000a900473ffffffffffffffffffffffffffffffffffffffff1673ffffffffffffffffffffffffffffffffffffffff1673ffffffffffffffffffffffffffffffffffffffff1681526020016000820160149054906101000a90046bffffffffffffffffffffffff166bffffffffffffffffffffffff166bffffffffffffffffffffffff1681525050815260200190600101906117bf565b505050509050919050565b6000600560008473ffffffffffffffffffffffffffffffffffffffff1673ffffffffffffffffffffffffffffffffffffffff16815260200190815260200160002060008373ffffffffffffffffffffffffffffffffffffffff1673ffffffffffffffffffffffffffffffffffffffff16815260200190815260200160002060009054906101000a900460ff16905092915050565b816000811180156119455750600b60009054906101000a900461ffff1661ffff168111155b611984576040517f08c379a000000000000000000000000000000000000000000000000000000000815260040161197b90613d35565b60405180910390fd5b61271061ffff16816119966008611ff6565b6119a09190613d55565b11156119e1576040517f08c379a00000000000000000000000000000000000000000000000000000000081526004016119d890613df7565b60405180910390fd5b6119e9611cb2565b73ffffffffffffffffffffffffffffffffffffffff16611a0761147c565b73ffffffffffffffffffffffffffffffffffffffff1614611a5d576040517f08c379a0000000000000000000000000000000000000000000000000000000008152600401611a54906139b5565b60405180910390fd5b611a678284612404565b505050565b611a74611cb2565b73ffffffffffffffffffffffffffffffffffffffff16611a9261147c565b73ffffffffffffffffffffffffffffffffffffffff1614611ae8576040517f08c379a0000000000000000000000000000000000000000000000000000000008152600401611adf906139b5565b60405180910390fd5b600073ffffffffffffffffffffffffffffffffffffffff168173ffffffffffffffffffffffffffffffffffffffff161415611b58576040517f08c379a0000000000000000000000000000000000000000000000000000000008152600401611b4f9061403e565b60405180910390fd5b611b618161233e565b50565b60007f80ac58cd000000000000000000000000000000000000000000000000000000007bffffffffffffffffffffffffffffffffffffffffffffffffffffffff1916827bffffffffffffffffffffffffffffffffffffffffffffffffffffffff19161480611c2f57507f5b5e139f000000000000000000000000000000000000000000000000000000007bffffffffffffffffffffffffffffffffffffffffffffffffffffffff1916827bffffffffffffffffffffffffffffffffffffffffffffffffffffffff1916145b80611c3f5750611c3e82612800565b5b9050919050565b60008073ffffffffffffffffffffffffffffffffffffffff166002600084815260200190815260200160002060009054906101000a900473ffffffffffffffffffffffffffffffffffffffff1673ffffffffffffffffffffffffffffffffffffffff1614159050919050565b600033905090565b816004600083815260200190815260200160002060006101000a81548173ffffffffffffffffffffffffffffffffffffffff021916908373ffffffffffffffffffffffffffffffffffffffff160217905550808273ffffffffffffffffffffffffffffffffffffffff16611d2d836111f4565b73ffffffffffffffffffffffffffffffffffffffff167f8c5be1e5ebec7d5bd14f71427d1e84f3dd0314c0f7b2291e5b200ac8c7c3b92560405160405180910390a45050565b600080600090505b8251811015611fa257600073ffffffffffffffffffffffffffffffffffffffff16838281518110611daf57611dae6139d5565b5b60200260200101516000015173ffffffffffffffffffffffffffffffffffffffff161415611e12576040517f08c379a0000000000000000000000000000000000000000000000000000000008152600401611e09906140aa565b60405180910390fd5b6000838281518110611e2757611e266139d5565b5b6020026020010151602001516bffffffffffffffffffffffff161415611e82576040517f08c379a0000000000000000000000000000000000000000000000000000000008152600401611e7990614116565b60405180910390fd5b828181518110611e9557611e946139d5565b5b6020026020010151602001516bffffffffffffffffffffffff1682611eba9190613d55565b915060076000858152602001908152602001600020838281518110611ee257611ee16139d5565b5b60200260200101519080600181540180825580915050600190039060005260206000200160009091909190915060008201518160000160006101000a81548173ffffffffffffffffffffffffffffffffffffffff021916908373ffffffffffffffffffffffffffffffffffffffff16021790555060208201518160000160146101000a8154816bffffffffffffffffffffffff02191690836bffffffffffffffffffffffff16021790555050508080611f9a90614136565b915050611d7b565b506127108110611fe7576040517f08c379a0000000000000000000000000000000000000000000000000000000008152600401611fde906141f1565b60405180910390fd5b611ff1838361286a565b505050565b600081600001549050919050565b600061200f82611c46565b61204e576040517f08c379a000000000000000000000000000000000000000000000000000000000815260040161204590614283565b60405180910390fd5b6000612059836111f4565b90508073ffffffffffffffffffffffffffffffffffffffff168473ffffffffffffffffffffffffffffffffffffffff1614806120c857508373ffffffffffffffffffffffffffffffffffffffff166120b0846108b0565b73ffffffffffffffffffffffffffffffffffffffff16145b806120d957506120d8818561188c565b5b91505092915050565b8273ffffffffffffffffffffffffffffffffffffffff16612102826111f4565b73ffffffffffffffffffffffffffffffffffffffff1614612158576040517f08c379a000000000000000000000000000000000000000000000000000000000815260040161214f90614315565b60405180910390fd5b600073ffffffffffffffffffffffffffffffffffffffff168273ffffffffffffffffffffffffffffffffffffffff1614156121c8576040517f08c379a00000000000000000000000000000000000000000000000000000000081526004016121bf906143a7565b60405180910390fd5b6121d38383836128a7565b6121de600082611cba565b6001600360008573ffffffffffffffffffffffffffffffffffffffff1673ffffffffffffffffffffffffffffffffffffffff168152602001908152602001600020600082825461222e91906143c7565b925050819055506001600360008473ffffffffffffffffffffffffffffffffffffffff1673ffffffffffffffffffffffffffffffffffffffff16815260200190815260200160002060008282546122859190613d55565b92505081905550816002600083815260200190815260200160002060006101000a81548173ffffffffffffffffffffffffffffffffffffffff021916908373ffffffffffffffffffffffffffffffffffffffff160217905550808273ffffffffffffffffffffffffffffffffffffffff168473ffffffffffffffffffffffffffffffffffffffff167fddf252ad1be2c89b69c2b068fc378daa952ba7f163c4a11628f55a4df523b3ef60405160405180910390a4505050565b6000600660009054906101000a900473ffffffffffffffffffffffffffffffffffffffff16905081600660006101000a81548173ffffffffffffffffffffffffffffffffffffffff021916908373ffffffffffffffffffffffffffffffffffffffff1602179055508173ffffffffffffffffffffffffffffffffffffffff168173ffffffffffffffffffffffffffffffffffffffff167f8be0079c531659141344cd1fd0a4f28419497f9722a3daafe3b4186f6b6457e060405160405180910390a35050565b60005b8181101561243f5761241960086128b7565b61242c836124276008611ff6565b6128cd565b808061243790614136565b915050612407565b505050565b8173ffffffffffffffffffffffffffffffffffffffff168373ffffffffffffffffffffffffffffffffffffffff1614156124b3576040517f08c379a00000000000000000000000000000000000000000000000000000000081526004016124aa90614447565b60405180910390fd5b80600560008573ffffffffffffffffffffffffffffffffffffffff1673ffffffffffffffffffffffffffffffffffffffff16815260200190815260200160002060008473ffffffffffffffffffffffffffffffffffffffff1673ffffffffffffffffffffffffffffffffffffffff16815260200190815260200160002060006101000a81548160ff0219169083151502179055508173ffffffffffffffffffffffffffffffffffffffff168373ffffffffffffffffffffffffffffffffffffffff167f17307eab39ab6107e8899845ad3d59bd9653f200f220920489ca2b5937696c31836040516125a49190612e58565b60405180910390a3505050565b6125bc8484846120e2565b6125c8848484846128eb565b612607576040517f08c379a00000000000000000000000000000000000000000000000000000000081526004016125fe906144d9565b60405180910390fd5b50505050565b60606009805461261c90613781565b80601f016020809104026020016040519081016040528092919081815260200182805461264890613781565b80156126955780601f1061266a57610100808354040283529160200191612695565b820191906000526020600020905b81548152906001019060200180831161267857829003601f168201915b5050505050905090565b606060008214156126e7576040518060400160405280600181526020017f300000000000000000000000000000000000000000000000000000000000000081525090506127fb565b600082905060005b6000821461271957808061270290614136565b915050600a826127129190613b4e565b91506126ef565b60008167ffffffffffffffff811115612735576127346132dc565b5b6040519080825280601f01601f1916602001820160405280156127675781602001600182028036833780820191505090505b5090505b600085146127f45760018261278091906143c7565b9150600a8561278f91906144f9565b603061279b9190613d55565b60f81b8183815181106127b1576127b06139d5565b5b60200101907effffffffffffffffffffffffffffffffffffffffffffffffffffffffffffff1916908160001a905350600a856127ed9190613b4e565b945061276b565b8093505050505b919050565b60007f01ffc9a7000000000000000000000000000000000000000000000000000000007bffffffffffffffffffffffffffffffffffffffffffffffffffffffff1916827bffffffffffffffffffffffffffffffffffffffffffffffffffffffff1916149050919050565b7f3fa96d7b6bcbfe71ef171666d84db3cf52fa2d1c8afdb1cc8e486177f208b7df828260405161289b92919061452a565b60405180910390a15050565b6128b2838383612a82565b505050565b6001816000016000828254019250508190555050565b6128e7828260405180602001604052806000815250612a87565b5050565b600061290c8473ffffffffffffffffffffffffffffffffffffffff16612ae2565b15612a75578373ffffffffffffffffffffffffffffffffffffffff1663150b7a02612935611cb2565b8786866040518563ffffffff1660e01b815260040161295794939291906145af565b602060405180830381600087803b15801561297157600080fd5b505af19250505080156129a257506040513d601f19601f8201168201806040525081019061299f9190614610565b60015b612a25573d80600081146129d2576040519150601f19603f3d011682016040523d82523d6000602084013e6129d7565b606091505b50600081511415612a1d576040517f08c379a0000000000000000000000000000000000000000000000000000000008152600401612a14906144d9565b60405180910390fd5b805181602001fd5b63150b7a0260e01b7bffffffffffffffffffffffffffffffffffffffffffffffffffffffff1916817bffffffffffffffffffffffffffffffffffffffffffffffffffffffff191614915050612a7a565b600190505b949350505050565b505050565b612a918383612af5565b612a9e60008484846128eb565b612add576040517f08c379a0000000000000000000000000000000000000000000000000000000008152600401612ad4906144d9565b60405180910390fd5b505050565b600080823b905060008111915050919050565b600073ffffffffffffffffffffffffffffffffffffffff168273ffffffffffffffffffffffffffffffffffffffff161415612b65576040517f08c379a0000000000000000000000000000000000000000000000000000000008152600401612b5c90614689565b60405180910390fd5b612b6e81611c46565b15612bae576040517f08c379a0000000000000000000000000000000000000000000000000000000008152600401612ba5906146f5565b60405180910390fd5b612bba600083836128a7565b6001600360008473ffffffffffffffffffffffffffffffffffffffff1673ffffffffffffffffffffffffffffffffffffffff1681526020019081526020016000206000828254612c0a9190613d55565b92505081905550816002600083815260200190815260200160002060006101000a81548173ffffffffffffffffffffffffffffffffffffffff021916908373ffffffffffffffffffffffffffffffffffffffff160217905550808273ffffffffffffffffffffffffffffffffffffffff16600073ffffffffffffffffffffffffffffffffffffffff167fddf252ad1be2c89b69c2b068fc378daa952ba7f163c4a11628f55a4df523b3ef60405160405180910390a45050565b6040518060400160405280600073ffffffffffffffffffffffffffffffffffffffff16815260200160006bffffffffffffffffffffffff1681525090565b828054612d0d90613781565b90600052602060002090601f016020900481019282612d2f5760008555612d76565b82601f10612d4857805160ff1916838001178555612d76565b82800160010185558215612d76579182015b82811115612d75578251825591602001919060010190612d5a565b5b509050612d839190612d87565b5090565b5b80821115612da0576000816000905550600101612d88565b5090565b6000604051905090565b600080fd5b600080fd5b60007fffffffff0000000000000000000000000000000000000000000000000000000082169050919050565b612ded81612db8565b8114612df857600080fd5b50565b600081359050612e0a81612de4565b92915050565b600060208284031215612e2657612e25612dae565b5b6000612e3484828501612dfb565b91505092915050565b60008115159050919050565b612e5281612e3d565b82525050565b6000602082019050612e6d6000830184612e49565b92915050565b600081519050919050565b600082825260208201905092915050565b60005b83811015612ead578082015181840152602081019050612e92565b83811115612ebc576000848401525b50505050565b6000601f19601f8301169050919050565b6000612ede82612e73565b612ee88185612e7e565b9350612ef8818560208601612e8f565b612f0181612ec2565b840191505092915050565b60006020820190508181036000830152612f268184612ed3565b905092915050565b6000819050919050565b612f4181612f2e565b8114612f4c57600080fd5b50565b600081359050612f5e81612f38565b92915050565b600060208284031215612f7a57612f79612dae565b5b6000612f8884828501612f4f565b91505092915050565b600073ffffffffffffffffffffffffffffffffffffffff82169050919050565b6000612fbc82612f91565b9050919050565b612fcc81612fb1565b82525050565b6000602082019050612fe76000830184612fc3565b92915050565b612ff681612fb1565b811461300157600080fd5b50565b60008135905061301381612fed565b92915050565b600080604083850312156130305761302f612dae565b5b600061303e85828601613004565b925050602061304f85828601612f4f565b9150509250929050565b61306281612f2e565b82525050565b600060208201905061307d6000830184613059565b92915050565b600061308e82612f91565b9050919050565b61309e81613083565b81146130a957600080fd5b50565b6000813590506130bb81613095565b92915050565b60006bffffffffffffffffffffffff82169050919050565b6130e2816130c1565b81146130ed57600080fd5b50565b6000813590506130ff816130d9565b92915050565b60008060006060848603121561311e5761311d612dae565b5b600061312c86828701612f4f565b935050602061313d868287016130ac565b925050604061314e868287016130f0565b9150509250925092565b61316181612e3d565b811461316c57600080fd5b50565b60008135905061317e81613158565b92915050565b60006020828403121561319a57613199612dae565b5b60006131a88482850161316f565b91505092915050565b6000806000606084860312156131ca576131c9612dae565b5b60006131d886828701613004565b93505060206131e986828701613004565b92505060406131fa86828701612f4f565b9150509250925092565b6000806040838503121561321b5761321a612dae565b5b600061322985828601612f4f565b925050602061323a85828601612f4f565b9150509250929050565b60006040820190506132596000830185612fc3565b6132666020830184613059565b9392505050565b600061ffff82169050919050565b6132848161326d565b82525050565b600060208201905061329f600083018461327b565b92915050565b6000602082840312156132bb576132ba612dae565b5b60006132c984828501613004565b91505092915050565b600080fd5b600080fd5b7f4e487b7100000000000000000000000000000000000000000000000000000000600052604160045260246000fd5b61331482612ec2565b810181811067ffffffffffffffff82111715613333576133326132dc565b5b80604052505050565b6000613346612da4565b9050613352828261330b565b919050565b600067ffffffffffffffff821115613372576133716132dc565b5b61337b82612ec2565b9050602081019050919050565b82818337600083830152505050565b60006133aa6133a584613357565b61333c565b9050828152602081018484840111156133c6576133c56132d7565b5b6133d1848285613388565b509392505050565b600082601f8301126133ee576133ed6132d2565b5b81356133fe848260208601613397565b91505092915050565b60006020828403121561341d5761341c612dae565b5b600082013567ffffffffffffffff81111561343b5761343a612db3565b5b613447848285016133d9565b91505092915050565b6000806040838503121561346757613466612dae565b5b600061347585828601613004565b92505060206134868582860161316f565b9150509250929050565b600067ffffffffffffffff8211156134ab576134aa6132dc565b5b6134b482612ec2565b9050602081019050919050565b60006134d46134cf84613490565b61333c565b9050828152602081018484840111156134f0576134ef6132d7565b5b6134fb848285613388565b509392505050565b600082601f830112613518576135176132d2565b5b81356135288482602086016134c1565b91505092915050565b6000806000806080858703121561354b5761354a612dae565b5b600061355987828801613004565b945050602061356a87828801613004565b935050604061357b87828801612f4f565b925050606085013567ffffffffffffffff81111561359c5761359b612db3565b5b6135a887828801613503565b91505092959194509250565b600081519050919050565b600082825260208201905092915050565b6000819050602082019050919050565b6135e981613083565b82525050565b6135f8816130c1565b82525050565b60408201600082015161361460008501826135e0565b50602082015161362760208501826135ef565b50505050565b600061363983836135fe565b60408301905092915050565b6000602082019050919050565b600061365d826135b4565b61366781856135bf565b9350613672836135d0565b8060005b838110156136a357815161368a888261362d565b975061369583613645565b925050600181019050613676565b5085935050505092915050565b600060208201905081810360008301526136ca8184613652565b905092915050565b600080604083850312156136e9576136e8612dae565b5b60006136f785828601613004565b925050602061370885828601613004565b9150509250929050565b6000806040838503121561372957613728612dae565b5b600061373785828601612f4f565b925050602061374885828601613004565b9150509250929050565b7f4e487b7100000000000000000000000000000000000000000000000000000000600052602260045260246000fd5b6000600282049050600182168061379957607f821691505b602082108114156137ad576137ac613752565b5b50919050565b7f4552433732313a20617070726f76656420717565727920666f72206e6f6e657860008201527f697374656e7420746f6b656e0000000000000000000000000000000000000000602082015250565b600061380f602c83612e7e565b915061381a826137b3565b604082019050919050565b6000602082019050818103600083015261383e81613802565b9050919050565b7f4552433732313a20617070726f76616c20746f2063757272656e74206f776e6560008201527f7200000000000000000000000000000000000000000000000000000000000000602082015250565b60006138a1602183612e7e565b91506138ac82613845565b604082019050919050565b600060208201905081810360008301526138d081613894565b9050919050565b7f4552433732313a20617070726f76652063616c6c6572206973206e6f74206f7760008201527f6e6572206e6f7220617070726f76656420666f7220616c6c0000000000000000602082015250565b6000613933603883612e7e565b915061393e826138d7565b604082019050919050565b6000602082019050818103600083015261396281613926565b9050919050565b7f4f776e61626c653a2063616c6c6572206973206e6f7420746865206f776e6572600082015250565b600061399f602083612e7e565b91506139aa82613969565b602082019050919050565b600060208201905081810360008301526139ce81613992565b9050919050565b7f4e487b7100000000000000000000000000000000000000000000000000000000600052603260045260246000fd5b7f4552433732313a207472616e736665722063616c6c6572206973206e6f74206f60008201527f776e6572206e6f7220617070726f766564000000000000000000000000000000602082015250565b6000613a60603183612e7e565b9150613a6b82613a04565b604082019050919050565b60006020820190508181036000830152613a8f81613a53565b9050919050565b7f4e487b7100000000000000000000000000000000000000000000000000000000600052601160045260246000fd5b6000613ad082612f2e565b9150613adb83612f2e565b9250817fffffffffffffffffffffffffffffffffffffffffffffffffffffffffffffffff0483118215151615613b1457613b13613a96565b5b828202905092915050565b7f4e487b7100000000000000000000000000000000000000000000000000000000600052601260045260246000fd5b6000613b5982612f2e565b9150613b6483612f2e565b925082613b7457613b73613b1f565b5b828204905092915050565b600081905092915050565b50565b6000613b9a600083613b7f565b9150613ba582613b8a565b600082019050919050565b6000613bbb82613b8d565b9150819050919050565b7f4552433732313a206f776e657220717565727920666f72206e6f6e657869737460008201527f656e7420746f6b656e0000000000000000000000000000000000000000000000602082015250565b6000613c21602983612e7e565b9150613c2c82613bc5565b604082019050919050565b60006020820190508181036000830152613c5081613c14565b9050919050565b7f4552433732313a2062616c616e636520717565727920666f7220746865207a6560008201527f726f206164647265737300000000000000000000000000000000000000000000602082015250565b6000613cb3602a83612e7e565b9150613cbe82613c57565b604082019050919050565b60006020820190508181036000830152613ce281613ca6565b9050919050565b7f496e76616c6964206d696e7420616d6f756e7421000000000000000000000000600082015250565b6000613d1f601483612e7e565b9150613d2a82613ce9565b602082019050919050565b60006020820190508181036000830152613d4e81613d12565b9050919050565b6000613d6082612f2e565b9150613d6b83612f2e565b9250827fffffffffffffffffffffffffffffffffffffffffffffffffffffffffffffffff03821115613da057613d9f613a96565b5b828201905092915050565b7f4d617820737570706c7920657863656564656421000000000000000000000000600082015250565b6000613de1601483612e7e565b9150613dec82613dab565b602082019050919050565b60006020820190508181036000830152613e1081613dd4565b9050919050565b7f496e73756666696369656e742066756e64732100000000000000000000000000600082015250565b6000613e4d601383612e7e565b9150613e5882613e17565b602082019050919050565b60006020820190508181036000830152613e7c81613e40565b9050919050565b7f4552433732314d657461646174613a2055524920717565727920666f72206e6f60008201527f6e6578697374656e7420746f6b656e0000000000000000000000000000000000602082015250565b6000613edf602f83612e7e565b9150613eea82613e83565b604082019050919050565b60006020820190508181036000830152613f0e81613ed2565b9050919050565b600081905092915050565b6000613f2b82612e73565b613f358185613f15565b9350613f45818560208601612e8f565b80840191505092915050565b7f2e6a736f6e000000000000000000000000000000000000000000000000000000600082015250565b6000613f87600583613f15565b9150613f9282613f51565b600582019050919050565b6000613fa98285613f20565b9150613fb58284613f20565b9150613fc082613f7a565b91508190509392505050565b7f4f776e61626c653a206e6577206f776e657220697320746865207a65726f206160008201527f6464726573730000000000000000000000000000000000000000000000000000602082015250565b6000614028602683612e7e565b915061403382613fcc565b604082019050919050565b600060208201905081810360008301526140578161401b565b9050919050565b7f526563697069656e742073686f756c642062652070726573656e740000000000600082015250565b6000614094601b83612e7e565b915061409f8261405e565b602082019050919050565b600060208201905081810360008301526140c381614087565b9050919050565b7f526f79616c74792076616c75652073686f756c6420626520706f736974697665600082015250565b6000614100602083612e7e565b915061410b826140ca565b602082019050919050565b6000602082019050818103600083015261412f816140f3565b9050919050565b600061414182612f2e565b91507fffffffffffffffffffffffffffffffffffffffffffffffffffffffffffffffff82141561417457614173613a96565b5b600182019050919050565b7f526f79616c747920746f74616c2076616c75652073686f756c64206265203c2060008201527f3130303030000000000000000000000000000000000000000000000000000000602082015250565b60006141db602583612e7e565b91506141e68261417f565b604082019050919050565b6000602082019050818103600083015261420a816141ce565b9050919050565b7f4552433732313a206f70657261746f7220717565727920666f72206e6f6e657860008201527f697374656e7420746f6b656e0000000000000000000000000000000000000000602082015250565b600061426d602c83612e7e565b915061427882614211565b604082019050919050565b6000602082019050818103600083015261429c81614260565b9050919050565b7f4552433732313a207472616e73666572206f6620746f6b656e2074686174206960008201527f73206e6f74206f776e0000000000000000000000000000000000000000000000602082015250565b60006142ff602983612e7e565b915061430a826142a3565b604082019050919050565b6000602082019050818103600083015261432e816142f2565b9050919050565b7f4552433732313a207472616e7366657220746f20746865207a65726f2061646460008201527f7265737300000000000000000000000000000000000000000000000000000000602082015250565b6000614391602483612e7e565b915061439c82614335565b604082019050919050565b600060208201905081810360008301526143c081614384565b9050919050565b60006143d282612f2e565b91506143dd83612f2e565b9250828210156143f0576143ef613a96565b5b828203905092915050565b7f4552433732313a20617070726f766520746f2063616c6c657200000000000000600082015250565b6000614431601983612e7e565b915061443c826143fb565b602082019050919050565b6000602082019050818103600083015261446081614424565b9050919050565b7f4552433732313a207472616e7366657220746f206e6f6e20455243373231526560008201527f63656976657220696d706c656d656e7465720000000000000000000000000000602082015250565b60006144c3603283612e7e565b91506144ce82614467565b604082019050919050565b600060208201905081810360008301526144f2816144b6565b9050919050565b600061450482612f2e565b915061450f83612f2e565b92508261451f5761451e613b1f565b5b828206905092915050565b600060408201905061453f6000830185613059565b81810360208301526145518184613652565b90509392505050565b600081519050919050565b600082825260208201905092915050565b60006145818261455a565b61458b8185614565565b935061459b818560208601612e8f565b6145a481612ec2565b840191505092915050565b60006080820190506145c46000830187612fc3565b6145d16020830186612fc3565b6145de6040830185613059565b81810360608301526145f08184614576565b905095945050505050565b60008151905061460a81612de4565b92915050565b60006020828403121561462657614625612dae565b5b6000614634848285016145fb565b91505092915050565b7f4552433732313a206d696e7420746f20746865207a65726f2061646472657373600082015250565b6000614673602083612e7e565b915061467e8261463d565b602082019050919050565b600060208201905081810360008301526146a281614666565b9050919050565b7f4552433732313a20746f6b656e20616c7265616479206d696e74656400000000600082015250565b60006146df601c83612e7e565b91506146ea826146a9565b602082019050919050565b6000602082019050818103600083015261470e816146d2565b905091905056fea2646970667358221220bffc43c44a0a50415a982130f3d0e8296f15e52c3466e2a20aa3793b1fdff51064736f6c63430008090033",
  "immutableReferences": {},
  "source": "// SPDX-License-Identifier: MIT\n\npragma solidity ^0.8.9;\n\nimport \"@openzeppelin/contracts/token/ERC721/ERC721.sol\";\nimport \"@openzeppelin/contracts/utils/Counters.sol\";\nimport \"@openzeppelin/contracts/access/Ownable.sol\";\nimport \"./@rarible/royalties/contracts/impl/RoyaltiesV2Impl.sol\";\nimport \"./@rarible/royalties/contracts/LibPart.sol\";\nimport \"./@rarible/royalties/contracts/LibRoyaltiesV2.sol\";\n\ncontract YetiPunks is ERC721, Ownable, RoyaltiesV2Impl {\n    using Strings for uint256;\n    using Counters for Counters.Counter;\n\n    Counters.Counter private supply;\n\n    string public uriPrefix = \"\";\n    string public uriSuffix = \".json\";\n\n    bytes4 private constant _INTERFACE_ID_ERC2981 = 0x2a55205a;\n\n    uint16 public constant MAX_SUPPLY = 10000;\n    uint16 public maxMintAmountPerTx = 20;\n    uint256 public cost = 30000000000000000 wei;\n\n    bool public paused = false;\n\n    constructor() ERC721(\"Petty Monks\", \"PM\") {\n        //set baseUri?\n    }\n\n    modifier mintCompliance(uint256 _mintAmount) {\n        require(\n            _mintAmount > 0 && _mintAmount <= maxMintAmountPerTx,\n            \"Invalid mint amount!\"\n        );\n        require(\n            supply.current() + _mintAmount <= MAX_SUPPLY,\n            \"Max supply exceeded!\"\n        );\n        _;\n    }\n\n    function totalSupply() public view returns (uint256) {\n        return supply.current();\n    }\n\n    function mint(uint256 _mintAmount)\n        public\n        payable\n        mintCompliance(_mintAmount)\n    {\n        require(msg.value >= cost * _mintAmount, \"Insufficient funds!\");\n\n        _mintLoop(msg.sender, _mintAmount);\n    }\n\n    function mintForAddress(uint256 _mintAmount, address _receiver)\n        public\n        mintCompliance(_mintAmount)\n        onlyOwner\n    {\n        _mintLoop(_receiver, _mintAmount);\n    }\n\n    function tokenURI(uint256 _tokenId)\n        public\n        view\n        virtual\n        override\n        returns (string memory)\n    {\n        require(\n            _exists(_tokenId),\n            \"ERC721Metadata: URI query for nonexistent token\"\n        );\n\n        string memory currentBaseURI = _baseURI();\n        return\n            bytes(currentBaseURI).length > 0\n                ? string(\n                    abi.encodePacked(\n                        currentBaseURI,\n                        _tokenId.toString(),\n                        \".json\"\n                    )\n                )\n                : \"\";\n    }\n\n    function setUriPrefix(string memory _uriPrefix) public onlyOwner {\n        uriPrefix = _uriPrefix;\n    }\n\n    function setPaused(bool _state) public onlyOwner {\n        paused = _state;\n    }\n\n    function withdrawBalance() public onlyOwner {\n        uint256 oneThird = (address(this).balance * 33) / 100;\n        (bool manduSuccess, ) = payable(\n            0xD61ADc48afE9402B4411805Ce6026eF74F94E713\n        ).call{value: oneThird}(\"\");\n        require(manduSuccess);\n        (bool tenzingSuccess, ) = payable(\n            0xE3Ce04B3BcbdFa219407870Ca617e18fBF503F28\n        ).call{value: oneThird}(\"\");\n        require(tenzingSuccess);\n        (bool tokiMoriSuccess, ) = payable(\n            0x49Cf0aF1cE6a50e822A91a427B3E29007f9C6C09\n        ).call{value: address(this).balance}(\"\");\n        require(tokiMoriSuccess);\n    }\n\n    //Rarible\n    function setRoyalties(\n        uint256 tokenId,\n        address payable royaltyTo,\n        uint96 percentageBasisPoints\n    ) public onlyOwner {\n        LibPart.Part[] memory _royalties = new LibPart.Part[](1);\n        _royalties[0].value = percentageBasisPoints;\n        _royalties[0].account = royaltyTo;\n        _saveRoyalties(tokenId, _royalties);\n    }\n\n    //Mintable\n    function royaltyInfo(uint256 _tokenId, uint256 _salePrice)\n        external\n        view\n        returns (address receiver, uint256 royaltyAmount)\n    {\n        LibPart.Part[] memory _royalties = royalties[_tokenId];\n        if (_royalties.length > 0) {\n            return (\n                _royalties[0].account,\n                (_salePrice * _royalties[0].value) / 10000\n            );\n        }\n        return (address(0), 0);\n    }\n\n    //rarible && mintable\n    function supportsInterface(bytes4 interfaceId)\n        public\n        view\n        virtual\n        override(ERC721)\n        returns (bool)\n    {\n        if (interfaceId == LibRoyaltiesV2._INTERFACE_ID_ROYALTIES) {\n            return true;\n        }\n\n        //mintable\n        if (interfaceId == _INTERFACE_ID_ERC2981) {\n            return super.supportsInterface(interfaceId);\n        }\n\n        return super.supportsInterface(interfaceId);\n    }\n\n    function _mintLoop(address _receiver, uint256 _mintAmount) internal {\n        for (uint256 i = 0; i < _mintAmount; i++) {\n            supply.increment();\n            _safeMint(_receiver, supply.current());\n        }\n    }\n\n    function _baseURI() internal view virtual override returns (string memory) {\n        return uriPrefix;\n    }\n\n    function _beforeTokenTransfer(\n        address from,\n        address to,\n        uint256 tokenId\n    ) internal override(ERC721) {\n        super._beforeTokenTransfer(from, to, tokenId);\n    }\n}\n",
  "sourcePath": "/Users/christopherfoley/nft/YetiPunks/src/contracts/YetiPunks.sol",
  "compiler": {
    "name": "solc",
    "version": "0.8.9+commit.e5eed63a.Emscripten.clang"
  },
  "schemaVersion": "3.4.4",
  "updatedAt": "2022-01-09T08:37:05.282Z",
  "networkType": "ethereum",
  "devdoc": {
    "kind": "dev",
    "methods": {
      "approve(address,uint256)": {
        "details": "See {IERC721-approve}."
      },
      "balanceOf(address)": {
        "details": "See {IERC721-balanceOf}."
      },
      "getApproved(uint256)": {
        "details": "See {IERC721-getApproved}."
      },
      "isApprovedForAll(address,address)": {
        "details": "See {IERC721-isApprovedForAll}."
      },
      "name()": {
        "details": "See {IERC721Metadata-name}."
      },
      "owner()": {
        "details": "Returns the address of the current owner."
      },
      "ownerOf(uint256)": {
        "details": "See {IERC721-ownerOf}."
      },
      "renounceOwnership()": {
        "details": "Leaves the contract without owner. It will not be possible to call `onlyOwner` functions anymore. Can only be called by the current owner. NOTE: Renouncing ownership will leave the contract without an owner, thereby removing any functionality that is only available to the owner."
      },
      "safeTransferFrom(address,address,uint256)": {
        "details": "See {IERC721-safeTransferFrom}."
      },
      "safeTransferFrom(address,address,uint256,bytes)": {
        "details": "See {IERC721-safeTransferFrom}."
      },
      "setApprovalForAll(address,bool)": {
        "details": "See {IERC721-setApprovalForAll}."
      },
      "supportsInterface(bytes4)": {
        "details": "See {IERC165-supportsInterface}."
      },
      "symbol()": {
        "details": "See {IERC721Metadata-symbol}."
      },
      "transferFrom(address,address,uint256)": {
        "details": "See {IERC721-transferFrom}."
      },
      "transferOwnership(address)": {
        "details": "Transfers ownership of the contract to a new account (`newOwner`). Can only be called by the current owner."
      }
    },
    "version": 1
  },
  "userdoc": {
    "kind": "user",
    "methods": {},
    "version": 1
  }
}