{
  "contractName": "YetiPunks",
  "abi": [
    {
      "inputs": [
        {
          "internalType": "uint256",
          "name": "maxBatchSize_",
          "type": "uint256"
        },
        {
          "internalType": "uint256",
          "name": "collectionSize_",
          "type": "uint256"
        },
        {
          "internalType": "uint256",
          "name": "amountForGiveaway_",
          "type": "uint256"
        },
        {
          "internalType": "uint256",
          "name": "amountForDevs_",
          "type": "uint256"
        },
        {
          "internalType": "string",
          "name": "_initNotRevealedUri",
          "type": "string"
        }
      ],
      "stateMutability": "nonpayable",
      "type": "constructor"
    },
    {
      "anonymous": false,
      "inputs": [
        {
          "indexed": true,
          "internalType": "address",
          "name": "owner",
          "type": "address"
        },
        {
          "indexed": true,
          "internalType": "address",
          "name": "approved",
          "type": "address"
        },
        {
          "indexed": true,
          "internalType": "uint256",
          "name": "tokenId",
          "type": "uint256"
        }
      ],
      "name": "Approval",
      "type": "event"
    },
    {
      "anonymous": false,
      "inputs": [
        {
          "indexed": true,
          "internalType": "address",
          "name": "owner",
          "type": "address"
        },
        {
          "indexed": true,
          "internalType": "address",
          "name": "operator",
          "type": "address"
        },
        {
          "indexed": false,
          "internalType": "bool",
          "name": "approved",
          "type": "bool"
        }
      ],
      "name": "ApprovalForAll",
      "type": "event"
    },
    {
      "anonymous": false,
      "inputs": [
        {
          "indexed": true,
          "internalType": "address",
          "name": "previousOwner",
          "type": "address"
        },
        {
          "indexed": true,
          "internalType": "address",
          "name": "newOwner",
          "type": "address"
        }
      ],
      "name": "OwnershipTransferred",
      "type": "event"
    },
    {
      "anonymous": false,
      "inputs": [
        {
          "indexed": true,
          "internalType": "address",
          "name": "from",
          "type": "address"
        },
        {
          "indexed": true,
          "internalType": "address",
          "name": "to",
          "type": "address"
        },
        {
          "indexed": true,
          "internalType": "uint256",
          "name": "tokenId",
          "type": "uint256"
        }
      ],
      "name": "Transfer",
      "type": "event"
    },
    {
      "inputs": [
        {
          "internalType": "address",
          "name": "owner",
          "type": "address"
        }
      ],
      "name": "_numberMinted",
      "outputs": [
        {
          "internalType": "uint256",
          "name": "",
          "type": "uint256"
        }
      ],
      "stateMutability": "view",
      "type": "function",
      "constant": true
    },
    {
      "inputs": [],
      "name": "amountForDevs",
      "outputs": [
        {
          "internalType": "uint256",
          "name": "",
          "type": "uint256"
        }
      ],
      "stateMutability": "view",
      "type": "function",
      "constant": true
    },
    {
      "inputs": [],
      "name": "amountForGiveaway",
      "outputs": [
        {
          "internalType": "uint256",
          "name": "",
          "type": "uint256"
        }
      ],
      "stateMutability": "view",
      "type": "function",
      "constant": true
    },
    {
      "inputs": [
        {
          "internalType": "address",
          "name": "to",
          "type": "address"
        },
        {
          "internalType": "uint256",
          "name": "tokenId",
          "type": "uint256"
        }
      ],
      "name": "approve",
      "outputs": [],
      "stateMutability": "nonpayable",
      "type": "function"
    },
    {
      "inputs": [
        {
          "internalType": "address",
          "name": "owner",
          "type": "address"
        }
      ],
      "name": "balanceOf",
      "outputs": [
        {
          "internalType": "uint256",
          "name": "",
          "type": "uint256"
        }
      ],
      "stateMutability": "view",
      "type": "function",
      "constant": true
    },
    {
      "inputs": [
        {
          "internalType": "uint256",
          "name": "tokenId",
          "type": "uint256"
        }
      ],
      "name": "getApproved",
      "outputs": [
        {
          "internalType": "address",
          "name": "",
          "type": "address"
        }
      ],
      "stateMutability": "view",
      "type": "function",
      "constant": true
    },
    {
      "inputs": [
        {
          "internalType": "address",
          "name": "owner",
          "type": "address"
        },
        {
          "internalType": "address",
          "name": "operator",
          "type": "address"
        }
      ],
      "name": "isApprovedForAll",
      "outputs": [
        {
          "internalType": "bool",
          "name": "",
          "type": "bool"
        }
      ],
      "stateMutability": "view",
      "type": "function",
      "constant": true
    },
    {
      "inputs": [],
      "name": "maxPerAddressDuringPublicSale",
      "outputs": [
        {
          "internalType": "uint256",
          "name": "",
          "type": "uint256"
        }
      ],
      "stateMutability": "view",
      "type": "function",
      "constant": true
    },
    {
      "inputs": [],
      "name": "name",
      "outputs": [
        {
          "internalType": "string",
          "name": "",
          "type": "string"
        }
      ],
      "stateMutability": "view",
      "type": "function",
      "constant": true
    },
    {
      "inputs": [],
      "name": "nextOwnerToExplicitlySet",
      "outputs": [
        {
          "internalType": "uint256",
          "name": "",
          "type": "uint256"
        }
      ],
      "stateMutability": "view",
      "type": "function",
      "constant": true
    },
    {
      "inputs": [],
      "name": "notRevealedUri",
      "outputs": [
        {
          "internalType": "string",
          "name": "",
          "type": "string"
        }
      ],
      "stateMutability": "view",
      "type": "function",
      "constant": true
    },
    {
      "inputs": [],
      "name": "owner",
      "outputs": [
        {
          "internalType": "address",
          "name": "",
          "type": "address"
        }
      ],
      "stateMutability": "view",
      "type": "function",
      "constant": true
    },
    {
      "inputs": [
        {
          "internalType": "uint256",
          "name": "tokenId",
          "type": "uint256"
        }
      ],
      "name": "ownerOf",
      "outputs": [
        {
          "internalType": "address",
          "name": "",
          "type": "address"
        }
      ],
      "stateMutability": "view",
      "type": "function",
      "constant": true
    },
    {
      "inputs": [],
      "name": "renounceOwnership",
      "outputs": [],
      "stateMutability": "nonpayable",
      "type": "function"
    },
    {
      "inputs": [
        {
          "internalType": "address",
          "name": "from",
          "type": "address"
        },
        {
          "internalType": "address",
          "name": "to",
          "type": "address"
        },
        {
          "internalType": "uint256",
          "name": "tokenId",
          "type": "uint256"
        }
      ],
      "name": "safeTransferFrom",
      "outputs": [],
      "stateMutability": "nonpayable",
      "type": "function"
    },
    {
      "inputs": [
        {
          "internalType": "address",
          "name": "from",
          "type": "address"
        },
        {
          "internalType": "address",
          "name": "to",
          "type": "address"
        },
        {
          "internalType": "uint256",
          "name": "tokenId",
          "type": "uint256"
        },
        {
          "internalType": "bytes",
          "name": "_data",
          "type": "bytes"
        }
      ],
      "name": "safeTransferFrom",
      "outputs": [],
      "stateMutability": "nonpayable",
      "type": "function"
    },
    {
      "inputs": [
        {
          "internalType": "address",
          "name": "operator",
          "type": "address"
        },
        {
          "internalType": "bool",
          "name": "approved",
          "type": "bool"
        }
      ],
      "name": "setApprovalForAll",
      "outputs": [],
      "stateMutability": "nonpayable",
      "type": "function"
    },
    {
      "inputs": [
        {
          "internalType": "bytes4",
          "name": "interfaceId",
          "type": "bytes4"
        }
      ],
      "name": "supportsInterface",
      "outputs": [
        {
          "internalType": "bool",
          "name": "",
          "type": "bool"
        }
      ],
      "stateMutability": "view",
      "type": "function",
      "constant": true
    },
    {
      "inputs": [],
      "name": "symbol",
      "outputs": [
        {
          "internalType": "string",
          "name": "",
          "type": "string"
        }
      ],
      "stateMutability": "view",
      "type": "function",
      "constant": true
    },
    {
      "inputs": [
        {
          "internalType": "uint256",
          "name": "index",
          "type": "uint256"
        }
      ],
      "name": "tokenByIndex",
      "outputs": [
        {
          "internalType": "uint256",
          "name": "",
          "type": "uint256"
        }
      ],
      "stateMutability": "view",
      "type": "function",
      "constant": true
    },
    {
      "inputs": [
        {
          "internalType": "address",
          "name": "owner",
          "type": "address"
        },
        {
          "internalType": "uint256",
          "name": "index",
          "type": "uint256"
        }
      ],
      "name": "tokenOfOwnerByIndex",
      "outputs": [
        {
          "internalType": "uint256",
          "name": "",
          "type": "uint256"
        }
      ],
      "stateMutability": "view",
      "type": "function",
      "constant": true
    },
    {
      "inputs": [],
      "name": "totalSupply",
      "outputs": [
        {
          "internalType": "uint256",
          "name": "",
          "type": "uint256"
        }
      ],
      "stateMutability": "view",
      "type": "function",
      "constant": true
    },
    {
      "inputs": [
        {
          "internalType": "address",
          "name": "from",
          "type": "address"
        },
        {
          "internalType": "address",
          "name": "to",
          "type": "address"
        },
        {
          "internalType": "uint256",
          "name": "tokenId",
          "type": "uint256"
        }
      ],
      "name": "transferFrom",
      "outputs": [],
      "stateMutability": "nonpayable",
      "type": "function"
    },
    {
      "inputs": [
        {
          "internalType": "address",
          "name": "newOwner",
          "type": "address"
        }
      ],
      "name": "transferOwnership",
      "outputs": [],
      "stateMutability": "nonpayable",
      "type": "function"
    },
    {
      "inputs": [
        {
          "internalType": "uint256",
          "name": "quantity",
          "type": "uint256"
        }
      ],
      "name": "publicSaleMint",
      "outputs": [],
      "stateMutability": "payable",
      "type": "function",
      "payable": true
    },
    {
      "inputs": [
        {
          "internalType": "address[]",
          "name": "receiverAddresses",
          "type": "address[]"
        },
        {
          "internalType": "uint256",
          "name": "mintAmount",
          "type": "uint256"
        }
      ],
      "name": "devMint",
      "outputs": [],
      "stateMutability": "nonpayable",
      "type": "function"
    },
    {
      "inputs": [
        {
          "internalType": "string",
          "name": "_notRevealedURI",
          "type": "string"
        }
      ],
      "name": "setNotRevealedURI",
      "outputs": [],
      "stateMutability": "nonpayable",
      "type": "function"
    },
    {
      "inputs": [
        {
          "internalType": "string",
          "name": "baseURI",
          "type": "string"
        }
      ],
      "name": "setBaseURI",
      "outputs": [],
      "stateMutability": "nonpayable",
      "type": "function"
    },
    {
      "inputs": [
        {
          "internalType": "uint256",
          "name": "tokenId",
          "type": "uint256"
        }
      ],
      "name": "tokenURI",
      "outputs": [
        {
          "internalType": "string",
          "name": "",
          "type": "string"
        }
      ],
      "stateMutability": "view",
      "type": "function",
      "constant": true
    },
    {
      "inputs": [],
      "name": "withdrawBalance",
      "outputs": [],
      "stateMutability": "nonpayable",
      "type": "function"
    },
    {
      "inputs": [
        {
          "internalType": "uint256",
          "name": "quantity",
          "type": "uint256"
        }
      ],
      "name": "setOwnersExplicit",
      "outputs": [],
      "stateMutability": "nonpayable",
      "type": "function"
    },
    {
      "inputs": [
        {
          "internalType": "address",
          "name": "owner",
          "type": "address"
        }
      ],
      "name": "numberMinted",
      "outputs": [
        {
          "internalType": "uint256",
          "name": "",
          "type": "uint256"
        }
      ],
      "stateMutability": "view",
      "type": "function",
      "constant": true
    },
    {
      "inputs": [
        {
          "internalType": "uint256",
          "name": "tokenId",
          "type": "uint256"
        }
      ],
      "name": "getOwnershipData",
      "outputs": [
        {
          "components": [
            {
              "internalType": "address",
              "name": "addr",
              "type": "address"
            },
            {
              "internalType": "uint64",
              "name": "startTimestamp",
              "type": "uint64"
            }
          ],
          "internalType": "struct ERC721A.TokenOwnership",
          "name": "",
          "type": "tuple"
        }
      ],
      "stateMutability": "view",
      "type": "function",
      "constant": true
    }
  ],
  "bytecode": "0x610120604052600060015560006008553480156200001c57600080fd5b5060405162006b5b38038062006b5b83398181016040528101906200004291906200103e565b6040518060400160405280600b81526020017f5065747479204d6f6e6b730000000000000000000000000000000000000000008152506040518060400160405280600281526020017f504d0000000000000000000000000000000000000000000000000000000000008152508686620000d0620000c4620003bd60201b60201c565b620003c560201b60201c565b6000811162000116576040517f08c379a00000000000000000000000000000000000000000000000000000000081526004016200010d906200116c565b60405180910390fd5b600082116200015c576040517f08c379a0000000000000000000000000000000000000000000000000000000008152600401620001539062001204565b60405180910390fd5b83600290805190602001906200017492919062000db6565b5082600390805190602001906200018d92919062000db6565b508160a0818152505080608081815250505050505060016009819055508460c081815250508261010081815250508160e081815250508383111562000209576040517f08c379a0000000000000000000000000000000000000000000000000000000008152600401620002009062001276565b60405180910390fd5b6200021a816200048960201b60201c565b6000600367ffffffffffffffff8111156200023a576200023962000ed0565b5b604051908082528060200260200182016040528015620002695781602001602082028036833780820191505090505b50905073d61adc48afe9402b4411805ce6026ef74f94e7138160008151811062000298576200029762001298565b5b602002602001019073ffffffffffffffffffffffffffffffffffffffff16908173ffffffffffffffffffffffffffffffffffffffff168152505073e3ce04b3bcbdfa219407870ca617e18fbf503f2881600181518110620002fe57620002fd62001298565b5b602002602001019073ffffffffffffffffffffffffffffffffffffffff16908173ffffffffffffffffffffffffffffffffffffffff16815250507349cf0af1ce6a50e822a91a427b3e29007f9c6c098160028151811062000364576200036362001298565b5b602002602001019073ffffffffffffffffffffffffffffffffffffffff16908173ffffffffffffffffffffffffffffffffffffffff1681525050620003b18160076200053460201b60201c565b50505050505062001923565b600033905090565b60008060009054906101000a900473ffffffffffffffffffffffffffffffffffffffff169050816000806101000a81548173ffffffffffffffffffffffffffffffffffffffff021916908373ffffffffffffffffffffffffffffffffffffffff1602179055508173ffffffffffffffffffffffffffffffffffffffff168173ffffffffffffffffffffffffffffffffffffffff167f8be0079c531659141344cd1fd0a4f28419497f9722a3daafe3b4186f6b6457e060405160405180910390a35050565b62000499620003bd60201b60201c565b73ffffffffffffffffffffffffffffffffffffffff16620004bf6200067e60201b60201c565b73ffffffffffffffffffffffffffffffffffffffff161462000518576040517f08c379a00000000000000000000000000000000000000000000000000000000081526004016200050f9062001317565b60405180910390fd5b80600a90805190602001906200053092919062000db6565b5050565b62000544620003bd60201b60201c565b73ffffffffffffffffffffffffffffffffffffffff166200056a6200067e60201b60201c565b73ffffffffffffffffffffffffffffffffffffffff1614620005c3576040517f08c379a0000000000000000000000000000000000000000000000000000000008152600401620005ba9062001317565b60405180910390fd5b60805181620005d7620006a760201b60201c565b620005e3919062001368565b111562000627576040517f08c379a00000000000000000000000000000000000000000000000000000000081526004016200061e9062001415565b60405180910390fd5b60005b82518110156200067957620006638382815181106200064e576200064d62001298565b5b602002602001015183620006b160201b60201c565b8080620006709062001437565b9150506200062a565b505050565b60008060009054906101000a900473ffffffffffffffffffffffffffffffffffffffff16905090565b6000600154905090565b620006d3828260405180602001604052806000815250620006d760201b60201c565b5050565b60006001549050600073ffffffffffffffffffffffffffffffffffffffff168473ffffffffffffffffffffffffffffffffffffffff16141562000751576040517f08c379a00000000000000000000000000000000000000000000000000000000081526004016200074890620014fb565b60405180910390fd5b620007628162000bcf60201b60201c565b15620007a5576040517f08c379a00000000000000000000000000000000000000000000000000000000081526004016200079c906200156d565b60405180910390fd5b60a051831115620007ed576040517f08c379a0000000000000000000000000000000000000000000000000000000008152600401620007e49062001605565b60405180910390fd5b62000802600085838662000bdd60201b60201c565b6000600560008673ffffffffffffffffffffffffffffffffffffffff1673ffffffffffffffffffffffffffffffffffffffff1681526020019081526020016000206040518060400160405290816000820160009054906101000a90046fffffffffffffffffffffffffffffffff166fffffffffffffffffffffffffffffffff166fffffffffffffffffffffffffffffffff1681526020016000820160109054906101000a90046fffffffffffffffffffffffffffffffff166fffffffffffffffffffffffffffffffff166fffffffffffffffffffffffffffffffff16815250509050604051806040016040528085836000015162000901919062001643565b6fffffffffffffffffffffffffffffffff1681526020018583602001516200092a919062001643565b6fffffffffffffffffffffffffffffffff16815250600560008773ffffffffffffffffffffffffffffffffffffffff1673ffffffffffffffffffffffffffffffffffffffff16815260200190815260200160002060008201518160000160006101000a8154816fffffffffffffffffffffffffffffffff02191690836fffffffffffffffffffffffffffffffff16021790555060208201518160000160106101000a8154816fffffffffffffffffffffffffffffffff02191690836fffffffffffffffffffffffffffffffff16021790555090505060405180604001604052808673ffffffffffffffffffffffffffffffffffffffff1681526020014267ffffffffffffffff168152506004600084815260200190815260200160002060008201518160000160006101000a81548173ffffffffffffffffffffffffffffffffffffffff021916908373ffffffffffffffffffffffffffffffffffffffff16021790555060208201518160000160146101000a81548167ffffffffffffffff021916908367ffffffffffffffff160217905550905050600082905060005b8581101562000baa57818773ffffffffffffffffffffffffffffffffffffffff16600073ffffffffffffffffffffffffffffffffffffffff167fddf252ad1be2c89b69c2b068fc378daa952ba7f163c4a11628f55a4df523b3ef60405160405180910390a462000b42600088848862000be360201b60201c565b62000b84576040517f08c379a000000000000000000000000000000000000000000000000000000000815260040162000b7b9062001706565b60405180910390fd5b818062000b919062001437565b925050808062000ba19062001437565b91505062000ac8565b508060018190555062000bc7600087858862000d9d60201b60201c565b505050505050565b600060015482109050919050565b50505050565b600062000c118473ffffffffffffffffffffffffffffffffffffffff1662000da360201b62001e251760201c565b1562000d90578373ffffffffffffffffffffffffffffffffffffffff1663150b7a0262000c43620003bd60201b60201c565b8786866040518563ffffffff1660e01b815260040162000c679493929190620017db565b602060405180830381600087803b15801562000c8257600080fd5b505af192505050801562000cb657506040513d601f19601f8201168201806040525081019062000cb391906200188c565b60015b62000d3f573d806000811462000ce9576040519150601f19603f3d011682016040523d82523d6000602084013e62000cee565b606091505b5060008151141562000d37576040517f08c379a000000000000000000000000000000000000000000000000000000000815260040162000d2e9062001706565b60405180910390fd5b805181602001fd5b63150b7a0260e01b7bffffffffffffffffffffffffffffffffffffffffffffffffffffffff1916817bffffffffffffffffffffffffffffffffffffffffffffffffffffffff19161491505062000d95565b600190505b949350505050565b50505050565b600080823b905060008111915050919050565b82805462000dc490620018ed565b90600052602060002090601f01602090048101928262000de8576000855562000e34565b82601f1062000e0357805160ff191683800117855562000e34565b8280016001018555821562000e34579182015b8281111562000e3357825182559160200191906001019062000e16565b5b50905062000e43919062000e47565b5090565b5b8082111562000e6257600081600090555060010162000e48565b5090565b6000604051905090565b600080fd5b600080fd5b6000819050919050565b62000e8f8162000e7a565b811462000e9b57600080fd5b50565b60008151905062000eaf8162000e84565b92915050565b600080fd5b600080fd5b6000601f19601f8301169050919050565b7f4e487b7100000000000000000000000000000000000000000000000000000000600052604160045260246000fd5b62000f0a8262000ebf565b810181811067ffffffffffffffff8211171562000f2c5762000f2b62000ed0565b5b80604052505050565b600062000f4162000e66565b905062000f4f828262000eff565b919050565b600067ffffffffffffffff82111562000f725762000f7162000ed0565b5b62000f7d8262000ebf565b9050602081019050919050565b60005b8381101562000faa57808201518184015260208101905062000f8d565b8381111562000fba576000848401525b50505050565b600062000fd762000fd18462000f54565b62000f35565b90508281526020810184848401111562000ff65762000ff562000eba565b5b6200100384828562000f8a565b509392505050565b600082601f83011262001023576200102262000eb5565b5b81516200103584826020860162000fc0565b91505092915050565b600080600080600060a086880312156200105d576200105c62000e70565b5b60006200106d8882890162000e9e565b9550506020620010808882890162000e9e565b9450506040620010938882890162000e9e565b9350506060620010a68882890162000e9e565b925050608086015167ffffffffffffffff811115620010ca57620010c962000e75565b5b620010d8888289016200100b565b9150509295509295909350565b600082825260208201905092915050565b7f455243373231413a20636f6c6c656374696f6e206d757374206861766520612060008201527f6e6f6e7a65726f20737570706c79000000000000000000000000000000000000602082015250565b600062001154602e83620010e5565b91506200116182620010f6565b604082019050919050565b60006020820190508181036000830152620011878162001145565b9050919050565b7f455243373231413a206d61782062617463682073697a65206d7573742062652060008201527f6e6f6e7a65726f00000000000000000000000000000000000000000000000000602082015250565b6000620011ec602783620010e5565b9150620011f9826200118e565b604082019050919050565b600060208201905081810360008301526200121f81620011dd565b9050919050565b7f6c617267657220636f6c6c656374696f6e2073697a65206e6565646564000000600082015250565b60006200125e601d83620010e5565b91506200126b8262001226565b602082019050919050565b6000602082019050818103600083015262001291816200124f565b9050919050565b7f4e487b7100000000000000000000000000000000000000000000000000000000600052603260045260246000fd5b7f4f776e61626c653a2063616c6c6572206973206e6f7420746865206f776e6572600082015250565b6000620012ff602083620010e5565b91506200130c82620012c7565b602082019050919050565b600060208201905081810360008301526200133281620012f0565b9050919050565b7f4e487b7100000000000000000000000000000000000000000000000000000000600052601160045260246000fd5b6000620013758262000e7a565b9150620013828362000e7a565b9250827fffffffffffffffffffffffffffffffffffffffffffffffffffffffffffffffff03821115620013ba57620013b962001339565b5b828201905092915050565b7f6578636565646564206d617820737570706c7900000000000000000000000000600082015250565b6000620013fd601383620010e5565b91506200140a82620013c5565b602082019050919050565b600060208201905081810360008301526200143081620013ee565b9050919050565b6000620014448262000e7a565b91507fffffffffffffffffffffffffffffffffffffffffffffffffffffffffffffffff8214156200147a576200147962001339565b5b600182019050919050565b7f455243373231413a206d696e7420746f20746865207a65726f2061646472657360008201527f7300000000000000000000000000000000000000000000000000000000000000602082015250565b6000620014e3602183620010e5565b9150620014f08262001485565b604082019050919050565b600060208201905081810360008301526200151681620014d4565b9050919050565b7f455243373231413a20746f6b656e20616c7265616479206d696e746564000000600082015250565b600062001555601d83620010e5565b915062001562826200151d565b602082019050919050565b60006020820190508181036000830152620015888162001546565b9050919050565b7f455243373231413a207175616e7469747920746f206d696e7420746f6f20686960008201527f6768000000000000000000000000000000000000000000000000000000000000602082015250565b6000620015ed602283620010e5565b9150620015fa826200158f565b604082019050919050565b600060208201905081810360008301526200162081620015de565b9050919050565b60006fffffffffffffffffffffffffffffffff82169050919050565b6000620016508262001627565b91506200165d8362001627565b9250826fffffffffffffffffffffffffffffffff0382111562001685576200168462001339565b5b828201905092915050565b7f455243373231413a207472616e7366657220746f206e6f6e204552433732315260008201527f6563656976657220696d706c656d656e74657200000000000000000000000000602082015250565b6000620016ee603383620010e5565b9150620016fb8262001690565b604082019050919050565b600060208201905081810360008301526200172181620016df565b9050919050565b600073ffffffffffffffffffffffffffffffffffffffff82169050919050565b6000620017558262001728565b9050919050565b620017678162001748565b82525050565b620017788162000e7a565b82525050565b600081519050919050565b600082825260208201905092915050565b6000620017a7826200177e565b620017b3818562001789565b9350620017c581856020860162000f8a565b620017d08162000ebf565b840191505092915050565b6000608082019050620017f260008301876200175c565b6200180160208301866200175c565b6200181060408301856200176d565b81810360608301526200182481846200179a565b905095945050505050565b60007fffffffff0000000000000000000000000000000000000000000000000000000082169050919050565b62001866816200182f565b81146200187257600080fd5b50565b60008151905062001886816200185b565b92915050565b600060208284031215620018a557620018a462000e70565b5b6000620018b58482850162001875565b91505092915050565b7f4e487b7100000000000000000000000000000000000000000000000000000000600052602260045260246000fd5b600060028204905060018216806200190657607f821691505b602082108114156200191d576200191c620018be565b5b50919050565b60805160a05160c05160e051610100516151c96200199260003960006118c901526000611e030152600081816117ee0152611a840152600081816128050152818161282e0152612f8f01526000818161177901528181611b240152818161258d01526125c101526151c96000f3fe6080604052600436106101ee5760003560e01c8063715018a61161010d578063c87b56dd116100a0578063e9566bf61161006f578063e9566bf614610716578063e985e9c51461073f578063f2c4ce1e1461077c578063f2fde38b146107a5578063fbe1aa51146107ce576101ee565b8063c87b56dd14610646578063d7224ba014610683578063dc33e681146106ae578063e686801e146106eb576101ee565b8063a22cb465116100dc578063a22cb465146105ad578063b3ab66b0146105d6578063b5148d43146105f2578063b88d4fde1461061d576101ee565b8063715018a6146105035780638da5cb5b1461051a5780639231ab2a1461054557806395d89b4114610582576101ee565b80632f745c591161018557806355f804b31161015457806355f804b3146104495780635fd8c710146104725780636352211e1461048957806370a08231146104c6576101ee565b80632f745c591461036957806342842e0e146103a65780634d388a98146103cf5780634f6ccce71461040c576101ee565b8063095ea7b3116101c1578063095ea7b3146102c357806318160ddd146102ec57806323b872dd146103175780632d20fb6014610340576101ee565b806301ffc9a7146101f357806306fdde0314610230578063081812fc1461025b578063081c8c4414610298575b600080fd5b3480156101ff57600080fd5b5061021a6004803603810190610215919061357c565b6107f9565b60405161022791906135c4565b60405180910390f35b34801561023c57600080fd5b50610245610943565b6040516102529190613678565b60405180910390f35b34801561026757600080fd5b50610282600480360381019061027d91906136d0565b6109d5565b60405161028f919061373e565b60405180910390f35b3480156102a457600080fd5b506102ad610a5a565b6040516102ba9190613678565b60405180910390f35b3480156102cf57600080fd5b506102ea60048036038101906102e59190613785565b610ae8565b005b3480156102f857600080fd5b50610301610c01565b60405161030e91906137d4565b60405180910390f35b34801561032357600080fd5b5061033e600480360381019061033991906137ef565b610c0b565b005b34801561034c57600080fd5b50610367600480360381019061036291906136d0565b610c1b565b005b34801561037557600080fd5b50610390600480360381019061038b9190613785565b610cf9565b60405161039d91906137d4565b60405180910390f35b3480156103b257600080fd5b506103cd60048036038101906103c891906137ef565b610ef7565b005b3480156103db57600080fd5b506103f660048036038101906103f19190613842565b610f17565b60405161040391906137d4565b60405180910390f35b34801561041857600080fd5b50610433600480360381019061042e91906136d0565b611000565b60405161044091906137d4565b60405180910390f35b34801561045557600080fd5b50610470600480360381019061046b91906138d4565b611053565b005b34801561047e57600080fd5b506104876110e5565b005b34801561049557600080fd5b506104b060048036038101906104ab91906136d0565b611322565b6040516104bd919061373e565b60405180910390f35b3480156104d257600080fd5b506104ed60048036038101906104e89190613842565b611338565b6040516104fa91906137d4565b60405180910390f35b34801561050f57600080fd5b50610518611421565b005b34801561052657600080fd5b5061052f6114a9565b60405161053c919061373e565b60405180910390f35b34801561055157600080fd5b5061056c600480360381019061056791906136d0565b6114d2565b6040516105799190613982565b60405180910390f35b34801561058e57600080fd5b506105976114ea565b6040516105a49190613678565b60405180910390f35b3480156105b957600080fd5b506105d460048036038101906105cf91906139c9565b61157c565b005b6105f060048036038101906105eb91906136d0565b6116fd565b005b3480156105fe57600080fd5b506106076118c7565b60405161061491906137d4565b60405180910390f35b34801561062957600080fd5b50610644600480360381019061063f9190613b39565b6118eb565b005b34801561065257600080fd5b5061066d600480360381019061066891906136d0565b611947565b60405161067a9190613678565b60405180910390f35b34801561068f57600080fd5b50610698611a6a565b6040516106a591906137d4565b60405180910390f35b3480156106ba57600080fd5b506106d560048036038101906106d09190613842565b611a70565b6040516106e291906137d4565b60405180910390f35b3480156106f757600080fd5b50610700611a82565b60405161070d91906137d4565b60405180910390f35b34801561072257600080fd5b5061073d60048036038101906107389190613c7f565b611aa6565b005b34801561074b57600080fd5b5061076660048036038101906107619190613cdb565b611bdf565b60405161077391906135c4565b60405180910390f35b34801561078857600080fd5b506107a3600480360381019061079e9190613dbc565b611c73565b005b3480156107b157600080fd5b506107cc60048036038101906107c79190613842565b611d09565b005b3480156107da57600080fd5b506107e3611e01565b6040516107f091906137d4565b60405180910390f35b60007f80ac58cd000000000000000000000000000000000000000000000000000000007bffffffffffffffffffffffffffffffffffffffffffffffffffffffff1916827bffffffffffffffffffffffffffffffffffffffffffffffffffffffff191614806108c457507f5b5e139f000000000000000000000000000000000000000000000000000000007bffffffffffffffffffffffffffffffffffffffffffffffffffffffff1916827bffffffffffffffffffffffffffffffffffffffffffffffffffffffff1916145b8061092c57507f780e9d63000000000000000000000000000000000000000000000000000000007bffffffffffffffffffffffffffffffffffffffffffffffffffffffff1916827bffffffffffffffffffffffffffffffffffffffffffffffffffffffff1916145b8061093c575061093b82611e38565b5b9050919050565b60606002805461095290613e34565b80601f016020809104026020016040519081016040528092919081815260200182805461097e90613e34565b80156109cb5780601f106109a0576101008083540402835291602001916109cb565b820191906000526020600020905b8154815290600101906020018083116109ae57829003601f168201915b5050505050905090565b60006109e082611ea2565b610a1f576040517f08c379a0000000000000000000000000000000000000000000000000000000008152600401610a1690613ed8565b60405180910390fd5b6006600083815260200190815260200160002060009054906101000a900473ffffffffffffffffffffffffffffffffffffffff169050919050565b600a8054610a6790613e34565b80601f0160208091040260200160405190810160405280929190818152602001828054610a9390613e34565b8015610ae05780601f10610ab557610100808354040283529160200191610ae0565b820191906000526020600020905b815481529060010190602001808311610ac357829003601f168201915b505050505081565b6000610af382611322565b90508073ffffffffffffffffffffffffffffffffffffffff168373ffffffffffffffffffffffffffffffffffffffff161415610b64576040517f08c379a0000000000000000000000000000000000000000000000000000000008152600401610b5b90613f6a565b60405180910390fd5b8073ffffffffffffffffffffffffffffffffffffffff16610b83611eb0565b73ffffffffffffffffffffffffffffffffffffffff161480610bb25750610bb181610bac611eb0565b611bdf565b5b610bf1576040517f08c379a0000000000000000000000000000000000000000000000000000000008152600401610be890613ffc565b60405180910390fd5b610bfc838383611eb8565b505050565b6000600154905090565b610c16838383611f6a565b505050565b610c23611eb0565b73ffffffffffffffffffffffffffffffffffffffff16610c416114a9565b73ffffffffffffffffffffffffffffffffffffffff1614610c97576040517f08c379a0000000000000000000000000000000000000000000000000000000008152600401610c8e90614068565b60405180910390fd5b60026009541415610cdd576040517f08c379a0000000000000000000000000000000000000000000000000000000008152600401610cd4906140d4565b60405180910390fd5b6002600981905550610cee81612523565b600160098190555050565b6000610d0483611338565b8210610d45576040517f08c379a0000000000000000000000000000000000000000000000000000000008152600401610d3c90614166565b60405180910390fd5b6000610d4f610c01565b905060008060005b83811015610eb5576000600460008381526020019081526020016000206040518060400160405290816000820160009054906101000a900473ffffffffffffffffffffffffffffffffffffffff1673ffffffffffffffffffffffffffffffffffffffff1673ffffffffffffffffffffffffffffffffffffffff1681526020016000820160149054906101000a900467ffffffffffffffff1667ffffffffffffffff1667ffffffffffffffff16815250509050600073ffffffffffffffffffffffffffffffffffffffff16816000015173ffffffffffffffffffffffffffffffffffffffff1614610e4957806000015192505b8773ffffffffffffffffffffffffffffffffffffffff168373ffffffffffffffffffffffffffffffffffffffff161415610ea15786841415610e92578195505050505050610ef1565b8380610e9d906141b5565b9450505b508080610ead906141b5565b915050610d57565b506040517f08c379a0000000000000000000000000000000000000000000000000000000008152600401610ee890614270565b60405180910390fd5b92915050565b610f12838383604051806020016040528060008152506118eb565b505050565b60008073ffffffffffffffffffffffffffffffffffffffff168273ffffffffffffffffffffffffffffffffffffffff161415610f88576040517f08c379a0000000000000000000000000000000000000000000000000000000008152600401610f7f90614302565b60405180910390fd5b600560008373ffffffffffffffffffffffffffffffffffffffff1673ffffffffffffffffffffffffffffffffffffffff16815260200190815260200160002060000160109054906101000a90046fffffffffffffffffffffffffffffffff166fffffffffffffffffffffffffffffffff169050919050565b600061100a610c01565b821061104b576040517f08c379a000000000000000000000000000000000000000000000000000000000815260040161104290614394565b60405180910390fd5b819050919050565b61105b611eb0565b73ffffffffffffffffffffffffffffffffffffffff166110796114a9565b73ffffffffffffffffffffffffffffffffffffffff16146110cf576040517f08c379a00000000000000000000000000000000000000000000000000000000081526004016110c690614068565b60405180910390fd5b8181600b91906110e09291906133ad565b505050565b6110ed611eb0565b73ffffffffffffffffffffffffffffffffffffffff1661110b6114a9565b73ffffffffffffffffffffffffffffffffffffffff1614611161576040517f08c379a000000000000000000000000000000000000000000000000000000000815260040161115890614068565b60405180910390fd5b6000606460214761117291906143b4565b61117c919061443d565b9050600073d61adc48afe9402b4411805ce6026ef74f94e71373ffffffffffffffffffffffffffffffffffffffff16826040516111b89061449f565b60006040518083038185875af1925050503d80600081146111f5576040519150601f19603f3d011682016040523d82523d6000602084013e6111fa565b606091505b505090508061120857600080fd5b600073e3ce04b3bcbdfa219407870ca617e18fbf503f2873ffffffffffffffffffffffffffffffffffffffff16836040516112429061449f565b60006040518083038185875af1925050503d806000811461127f576040519150601f19603f3d011682016040523d82523d6000602084013e611284565b606091505b505090508061129257600080fd5b60007349cf0af1ce6a50e822a91a427b3e29007f9c6c0973ffffffffffffffffffffffffffffffffffffffff16476040516112cc9061449f565b60006040518083038185875af1925050503d8060008114611309576040519150601f19603f3d011682016040523d82523d6000602084013e61130e565b606091505b505090508061131c57600080fd5b50505050565b600061132d826127b1565b600001519050919050565b60008073ffffffffffffffffffffffffffffffffffffffff168273ffffffffffffffffffffffffffffffffffffffff1614156113a9576040517f08c379a00000000000000000000000000000000000000000000000000000000081526004016113a090614526565b60405180910390fd5b600560008373ffffffffffffffffffffffffffffffffffffffff1673ffffffffffffffffffffffffffffffffffffffff16815260200190815260200160002060000160009054906101000a90046fffffffffffffffffffffffffffffffff166fffffffffffffffffffffffffffffffff169050919050565b611429611eb0565b73ffffffffffffffffffffffffffffffffffffffff166114476114a9565b73ffffffffffffffffffffffffffffffffffffffff161461149d576040517f08c379a000000000000000000000000000000000000000000000000000000000815260040161149490614068565b60405180910390fd5b6114a760006129b4565b565b60008060009054906101000a900473ffffffffffffffffffffffffffffffffffffffff16905090565b6114da613433565b6114e3826127b1565b9050919050565b6060600380546114f990613e34565b80601f016020809104026020016040519081016040528092919081815260200182805461152590613e34565b80156115725780601f1061154757610100808354040283529160200191611572565b820191906000526020600020905b81548152906001019060200180831161155557829003601f168201915b5050505050905090565b611584611eb0565b73ffffffffffffffffffffffffffffffffffffffff168273ffffffffffffffffffffffffffffffffffffffff1614156115f2576040517f08c379a00000000000000000000000000000000000000000000000000000000081526004016115e990614592565b60405180910390fd5b80600760006115ff611eb0565b73ffffffffffffffffffffffffffffffffffffffff1673ffffffffffffffffffffffffffffffffffffffff16815260200190815260200160002060008473ffffffffffffffffffffffffffffffffffffffff1673ffffffffffffffffffffffffffffffffffffffff16815260200190815260200160002060006101000a81548160ff0219169083151502179055508173ffffffffffffffffffffffffffffffffffffffff166116ac611eb0565b73ffffffffffffffffffffffffffffffffffffffff167f17307eab39ab6107e8899845ad3d59bd9653f200f220920489ca2b5937696c31836040516116f191906135c4565b60405180910390a35050565b3373ffffffffffffffffffffffffffffffffffffffff163273ffffffffffffffffffffffffffffffffffffffff161461176b576040517f08c379a0000000000000000000000000000000000000000000000000000000008152600401611762906145fe565b60405180910390fd5b6000665543df729c000090507f0000000000000000000000000000000000000000000000000000000000000000826117a1610c01565b6117ab919061461e565b11156117ec576040517f08c379a00000000000000000000000000000000000000000000000000000000081526004016117e3906146c0565b60405180910390fd5b7f00000000000000000000000000000000000000000000000000000000000000008261181733611a70565b611821919061461e565b1115611862576040517f08c379a000000000000000000000000000000000000000000000000000000000815260040161185990614752565b60405180910390fd5b803410156118a5576040517f08c379a000000000000000000000000000000000000000000000000000000000815260040161189c906147be565b60405180910390fd5b6118af3383612a78565b6118c382826118be91906143b4565b612a96565b5050565b7f000000000000000000000000000000000000000000000000000000000000000081565b6118f6848484611f6a565b61190284848484612b37565b611941576040517f08c379a000000000000000000000000000000000000000000000000000000000815260040161193890614850565b60405180910390fd5b50505050565b6060611951611eb0565b73ffffffffffffffffffffffffffffffffffffffff1661196f6114a9565b73ffffffffffffffffffffffffffffffffffffffff16146119c5576040517f08c379a00000000000000000000000000000000000000000000000000000000081526004016119bc90614068565b60405180910390fd5b6119ce82611ea2565b611a0d576040517f08c379a0000000000000000000000000000000000000000000000000000000008152600401611a04906148e2565b60405180910390fd5b6000611a17612cce565b90506000815111611a375760405180602001604052806000815250611a62565b80611a4184612d60565b604051602001611a5292919061493e565b6040516020818303038152906040525b915050919050565b60085481565b6000611a7b82610f17565b9050919050565b7f000000000000000000000000000000000000000000000000000000000000000081565b611aae611eb0565b73ffffffffffffffffffffffffffffffffffffffff16611acc6114a9565b73ffffffffffffffffffffffffffffffffffffffff1614611b22576040517f08c379a0000000000000000000000000000000000000000000000000000000008152600401611b1990614068565b60405180910390fd5b7f000000000000000000000000000000000000000000000000000000000000000081611b4c610c01565b611b56919061461e565b1115611b97576040517f08c379a0000000000000000000000000000000000000000000000000000000008152600401611b8e906146c0565b60405180910390fd5b60005b8251811015611bda57611bc7838281518110611bb957611bb8614962565b5b602002602001015183612a78565b8080611bd2906141b5565b915050611b9a565b505050565b6000600760008473ffffffffffffffffffffffffffffffffffffffff1673ffffffffffffffffffffffffffffffffffffffff16815260200190815260200160002060008373ffffffffffffffffffffffffffffffffffffffff1673ffffffffffffffffffffffffffffffffffffffff16815260200190815260200160002060009054906101000a900460ff16905092915050565b611c7b611eb0565b73ffffffffffffffffffffffffffffffffffffffff16611c996114a9565b73ffffffffffffffffffffffffffffffffffffffff1614611cef576040517f08c379a0000000000000000000000000000000000000000000000000000000008152600401611ce690614068565b60405180910390fd5b80600a9080519060200190611d0592919061346d565b5050565b611d11611eb0565b73ffffffffffffffffffffffffffffffffffffffff16611d2f6114a9565b73ffffffffffffffffffffffffffffffffffffffff1614611d85576040517f08c379a0000000000000000000000000000000000000000000000000000000008152600401611d7c90614068565b60405180910390fd5b600073ffffffffffffffffffffffffffffffffffffffff168173ffffffffffffffffffffffffffffffffffffffff161415611df5576040517f08c379a0000000000000000000000000000000000000000000000000000000008152600401611dec90614a03565b60405180910390fd5b611dfe816129b4565b50565b7f000000000000000000000000000000000000000000000000000000000000000081565b600080823b905060008111915050919050565b60007f01ffc9a7000000000000000000000000000000000000000000000000000000007bffffffffffffffffffffffffffffffffffffffffffffffffffffffff1916827bffffffffffffffffffffffffffffffffffffffffffffffffffffffff1916149050919050565b600060015482109050919050565b600033905090565b826006600084815260200190815260200160002060006101000a81548173ffffffffffffffffffffffffffffffffffffffff021916908373ffffffffffffffffffffffffffffffffffffffff160217905550818373ffffffffffffffffffffffffffffffffffffffff168273ffffffffffffffffffffffffffffffffffffffff167f8c5be1e5ebec7d5bd14f71427d1e84f3dd0314c0f7b2291e5b200ac8c7c3b92560405160405180910390a4505050565b6000611f75826127b1565b90506000816000015173ffffffffffffffffffffffffffffffffffffffff16611f9c611eb0565b73ffffffffffffffffffffffffffffffffffffffff161480611ff85750611fc1611eb0565b73ffffffffffffffffffffffffffffffffffffffff16611fe0846109d5565b73ffffffffffffffffffffffffffffffffffffffff16145b806120145750612013826000015161200e611eb0565b611bdf565b5b905080612056576040517f08c379a000000000000000000000000000000000000000000000000000000000815260040161204d90614a95565b60405180910390fd5b8473ffffffffffffffffffffffffffffffffffffffff16826000015173ffffffffffffffffffffffffffffffffffffffff16146120c8576040517f08c379a00000000000000000000000000000000000000000000000000000000081526004016120bf90614b27565b60405180910390fd5b600073ffffffffffffffffffffffffffffffffffffffff168473ffffffffffffffffffffffffffffffffffffffff161415612138576040517f08c379a000000000000000000000000000000000000000000000000000000000815260040161212f90614bb9565b60405180910390fd5b6121458585856001612ec1565b6121556000848460000151611eb8565b6001600560008773ffffffffffffffffffffffffffffffffffffffff1673ffffffffffffffffffffffffffffffffffffffff16815260200190815260200160002060000160008282829054906101000a90046fffffffffffffffffffffffffffffffff166121c39190614bf5565b92506101000a8154816fffffffffffffffffffffffffffffffff02191690836fffffffffffffffffffffffffffffffff1602179055506001600560008673ffffffffffffffffffffffffffffffffffffffff1673ffffffffffffffffffffffffffffffffffffffff16815260200190815260200160002060000160008282829054906101000a90046fffffffffffffffffffffffffffffffff166122679190614c29565b92506101000a8154816fffffffffffffffffffffffffffffffff02191690836fffffffffffffffffffffffffffffffff16021790555060405180604001604052808573ffffffffffffffffffffffffffffffffffffffff1681526020014267ffffffffffffffff168152506004600085815260200190815260200160002060008201518160000160006101000a81548173ffffffffffffffffffffffffffffffffffffffff021916908373ffffffffffffffffffffffffffffffffffffffff16021790555060208201518160000160146101000a81548167ffffffffffffffff021916908367ffffffffffffffff160217905550905050600060018461236d919061461e565b9050600073ffffffffffffffffffffffffffffffffffffffff166004600083815260200190815260200160002060000160009054906101000a900473ffffffffffffffffffffffffffffffffffffffff1673ffffffffffffffffffffffffffffffffffffffff1614156124b3576123e381611ea2565b156124b2576040518060400160405280846000015173ffffffffffffffffffffffffffffffffffffffff168152602001846020015167ffffffffffffffff168152506004600083815260200190815260200160002060008201518160000160006101000a81548173ffffffffffffffffffffffffffffffffffffffff021916908373ffffffffffffffffffffffffffffffffffffffff16021790555060208201518160000160146101000a81548167ffffffffffffffff021916908367ffffffffffffffff1602179055509050505b5b838573ffffffffffffffffffffffffffffffffffffffff168773ffffffffffffffffffffffffffffffffffffffff167fddf252ad1be2c89b69c2b068fc378daa952ba7f163c4a11628f55a4df523b3ef60405160405180910390a461251b8686866001612ec7565b505050505050565b600060085490506000821161256d576040517f08c379a000000000000000000000000000000000000000000000000000000000815260040161256490614cbb565b60405180910390fd5b60006001838361257d919061461e565b6125879190614cdb565b905060017f00000000000000000000000000000000000000000000000000000000000000006125b69190614cdb565b8111156125ed5760017f00000000000000000000000000000000000000000000000000000000000000006125ea9190614cdb565b90505b6125f681611ea2565b612635576040517f08c379a000000000000000000000000000000000000000000000000000000000815260040161262c90614d81565b60405180910390fd5b60008290505b81811161279857600073ffffffffffffffffffffffffffffffffffffffff166004600083815260200190815260200160002060000160009054906101000a900473ffffffffffffffffffffffffffffffffffffffff1673ffffffffffffffffffffffffffffffffffffffff1614156127855760006126b8826127b1565b90506040518060400160405280826000015173ffffffffffffffffffffffffffffffffffffffff168152602001826020015167ffffffffffffffff168152506004600084815260200190815260200160002060008201518160000160006101000a81548173ffffffffffffffffffffffffffffffffffffffff021916908373ffffffffffffffffffffffffffffffffffffffff16021790555060208201518160000160146101000a81548167ffffffffffffffff021916908367ffffffffffffffff160217905550905050505b8080612790906141b5565b91505061263b565b506001816127a6919061461e565b600881905550505050565b6127b9613433565b6127c282611ea2565b612801576040517f08c379a00000000000000000000000000000000000000000000000000000000081526004016127f890614e13565b60405180910390fd5b60007f000000000000000000000000000000000000000000000000000000000000000083106128655760017f0000000000000000000000000000000000000000000000000000000000000000846128589190614cdb565b612862919061461e565b90505b60008390505b818110612973576000600460008381526020019081526020016000206040518060400160405290816000820160009054906101000a900473ffffffffffffffffffffffffffffffffffffffff1673ffffffffffffffffffffffffffffffffffffffff1673ffffffffffffffffffffffffffffffffffffffff1681526020016000820160149054906101000a900467ffffffffffffffff1667ffffffffffffffff1667ffffffffffffffff16815250509050600073ffffffffffffffffffffffffffffffffffffffff16816000015173ffffffffffffffffffffffffffffffffffffffff161461295f578093505050506129af565b50808061296b90614e33565b91505061286b565b506040517f08c379a00000000000000000000000000000000000000000000000000000000081526004016129a690614ecf565b60405180910390fd5b919050565b60008060009054906101000a900473ffffffffffffffffffffffffffffffffffffffff169050816000806101000a81548173ffffffffffffffffffffffffffffffffffffffff021916908373ffffffffffffffffffffffffffffffffffffffff1602179055508173ffffffffffffffffffffffffffffffffffffffff168173ffffffffffffffffffffffffffffffffffffffff167f8be0079c531659141344cd1fd0a4f28419497f9722a3daafe3b4186f6b6457e060405160405180910390a35050565b612a92828260405180602001604052806000815250612ecd565b5050565b80341015612ad9576040517f08c379a0000000000000000000000000000000000000000000000000000000008152600401612ad0906147be565b60405180910390fd5b80341115612b34573373ffffffffffffffffffffffffffffffffffffffff166108fc8234612b079190614cdb565b9081150290604051600060405180830381858888f19350505050158015612b32573d6000803e3d6000fd5b505b50565b6000612b588473ffffffffffffffffffffffffffffffffffffffff16611e25565b15612cc1578373ffffffffffffffffffffffffffffffffffffffff1663150b7a02612b81611eb0565b8786866040518563ffffffff1660e01b8152600401612ba39493929190614f44565b602060405180830381600087803b158015612bbd57600080fd5b505af1925050508015612bee57506040513d601f19601f82011682018060405250810190612beb9190614fa5565b60015b612c71573d8060008114612c1e576040519150601f19603f3d011682016040523d82523d6000602084013e612c23565b606091505b50600081511415612c69576040517f08c379a0000000000000000000000000000000000000000000000000000000008152600401612c6090614850565b60405180910390fd5b805181602001fd5b63150b7a0260e01b7bffffffffffffffffffffffffffffffffffffffffffffffffffffffff1916817bffffffffffffffffffffffffffffffffffffffffffffffffffffffff191614915050612cc6565b600190505b949350505050565b6060600b8054612cdd90613e34565b80601f0160208091040260200160405190810160405280929190818152602001828054612d0990613e34565b8015612d565780601f10612d2b57610100808354040283529160200191612d56565b820191906000526020600020905b815481529060010190602001808311612d3957829003601f168201915b5050505050905090565b60606000821415612da8576040518060400160405280600181526020017f30000000000000000000000000000000000000000000000000000000000000008152509050612ebc565b600082905060005b60008214612dda578080612dc3906141b5565b915050600a82612dd3919061443d565b9150612db0565b60008167ffffffffffffffff811115612df657612df5613a0e565b5b6040519080825280601f01601f191660200182016040528015612e285781602001600182028036833780820191505090505b5090505b60008514612eb557600182612e419190614cdb565b9150600a85612e509190614fd2565b6030612e5c919061461e565b60f81b818381518110612e7257612e71614962565b5b60200101907effffffffffffffffffffffffffffffffffffffffffffffffffffffffffffff1916908160001a905350600a85612eae919061443d565b9450612e2c565b8093505050505b919050565b50505050565b50505050565b60006001549050600073ffffffffffffffffffffffffffffffffffffffff168473ffffffffffffffffffffffffffffffffffffffff161415612f44576040517f08c379a0000000000000000000000000000000000000000000000000000000008152600401612f3b90615075565b60405180910390fd5b612f4d81611ea2565b15612f8d576040517f08c379a0000000000000000000000000000000000000000000000000000000008152600401612f84906150e1565b60405180910390fd5b7f0000000000000000000000000000000000000000000000000000000000000000831115612ff0576040517f08c379a0000000000000000000000000000000000000000000000000000000008152600401612fe790615173565b60405180910390fd5b612ffd6000858386612ec1565b6000600560008673ffffffffffffffffffffffffffffffffffffffff1673ffffffffffffffffffffffffffffffffffffffff1681526020019081526020016000206040518060400160405290816000820160009054906101000a90046fffffffffffffffffffffffffffffffff166fffffffffffffffffffffffffffffffff166fffffffffffffffffffffffffffffffff1681526020016000820160109054906101000a90046fffffffffffffffffffffffffffffffff166fffffffffffffffffffffffffffffffff166fffffffffffffffffffffffffffffffff1681525050905060405180604001604052808583600001516130fa9190614c29565b6fffffffffffffffffffffffffffffffff1681526020018583602001516131219190614c29565b6fffffffffffffffffffffffffffffffff16815250600560008773ffffffffffffffffffffffffffffffffffffffff1673ffffffffffffffffffffffffffffffffffffffff16815260200190815260200160002060008201518160000160006101000a8154816fffffffffffffffffffffffffffffffff02191690836fffffffffffffffffffffffffffffffff16021790555060208201518160000160106101000a8154816fffffffffffffffffffffffffffffffff02191690836fffffffffffffffffffffffffffffffff16021790555090505060405180604001604052808673ffffffffffffffffffffffffffffffffffffffff1681526020014267ffffffffffffffff168152506004600084815260200190815260200160002060008201518160000160006101000a81548173ffffffffffffffffffffffffffffffffffffffff021916908373ffffffffffffffffffffffffffffffffffffffff16021790555060208201518160000160146101000a81548167ffffffffffffffff021916908367ffffffffffffffff160217905550905050600082905060005b8581101561339057818773ffffffffffffffffffffffffffffffffffffffff16600073ffffffffffffffffffffffffffffffffffffffff167fddf252ad1be2c89b69c2b068fc378daa952ba7f163c4a11628f55a4df523b3ef60405160405180910390a46133306000888488612b37565b61336f576040517f08c379a000000000000000000000000000000000000000000000000000000000815260040161336690614850565b60405180910390fd5b818061337a906141b5565b9250508080613388906141b5565b9150506132bf565b50806001819055506133a56000878588612ec7565b505050505050565b8280546133b990613e34565b90600052602060002090601f0160209004810192826133db5760008555613422565b82601f106133f457803560ff1916838001178555613422565b82800160010185558215613422579182015b82811115613421578235825591602001919060010190613406565b5b50905061342f91906134f3565b5090565b6040518060400160405280600073ffffffffffffffffffffffffffffffffffffffff168152602001600067ffffffffffffffff1681525090565b82805461347990613e34565b90600052602060002090601f01602090048101928261349b57600085556134e2565b82601f106134b457805160ff19168380011785556134e2565b828001600101855582156134e2579182015b828111156134e15782518255916020019190600101906134c6565b5b5090506134ef91906134f3565b5090565b5b8082111561350c5760008160009055506001016134f4565b5090565b6000604051905090565b600080fd5b600080fd5b60007fffffffff0000000000000000000000000000000000000000000000000000000082169050919050565b61355981613524565b811461356457600080fd5b50565b60008135905061357681613550565b92915050565b6000602082840312156135925761359161351a565b5b60006135a084828501613567565b91505092915050565b60008115159050919050565b6135be816135a9565b82525050565b60006020820190506135d960008301846135b5565b92915050565b600081519050919050565b600082825260208201905092915050565b60005b838110156136195780820151818401526020810190506135fe565b83811115613628576000848401525b50505050565b6000601f19601f8301169050919050565b600061364a826135df565b61365481856135ea565b93506136648185602086016135fb565b61366d8161362e565b840191505092915050565b60006020820190508181036000830152613692818461363f565b905092915050565b6000819050919050565b6136ad8161369a565b81146136b857600080fd5b50565b6000813590506136ca816136a4565b92915050565b6000602082840312156136e6576136e561351a565b5b60006136f4848285016136bb565b91505092915050565b600073ffffffffffffffffffffffffffffffffffffffff82169050919050565b6000613728826136fd565b9050919050565b6137388161371d565b82525050565b6000602082019050613753600083018461372f565b92915050565b6137628161371d565b811461376d57600080fd5b50565b60008135905061377f81613759565b92915050565b6000806040838503121561379c5761379b61351a565b5b60006137aa85828601613770565b92505060206137bb858286016136bb565b9150509250929050565b6137ce8161369a565b82525050565b60006020820190506137e960008301846137c5565b92915050565b6000806000606084860312156138085761380761351a565b5b600061381686828701613770565b935050602061382786828701613770565b9250506040613838868287016136bb565b9150509250925092565b6000602082840312156138585761385761351a565b5b600061386684828501613770565b91505092915050565b600080fd5b600080fd5b600080fd5b60008083601f8401126138945761389361386f565b5b8235905067ffffffffffffffff8111156138b1576138b0613874565b5b6020830191508360018202830111156138cd576138cc613879565b5b9250929050565b600080602083850312156138eb576138ea61351a565b5b600083013567ffffffffffffffff8111156139095761390861351f565b5b6139158582860161387e565b92509250509250929050565b61392a8161371d565b82525050565b600067ffffffffffffffff82169050919050565b61394d81613930565b82525050565b6040820160008201516139696000850182613921565b50602082015161397c6020850182613944565b50505050565b60006040820190506139976000830184613953565b92915050565b6139a6816135a9565b81146139b157600080fd5b50565b6000813590506139c38161399d565b92915050565b600080604083850312156139e0576139df61351a565b5b60006139ee85828601613770565b92505060206139ff858286016139b4565b9150509250929050565b600080fd5b7f4e487b7100000000000000000000000000000000000000000000000000000000600052604160045260246000fd5b613a468261362e565b810181811067ffffffffffffffff82111715613a6557613a64613a0e565b5b80604052505050565b6000613a78613510565b9050613a848282613a3d565b919050565b600067ffffffffffffffff821115613aa457613aa3613a0e565b5b613aad8261362e565b9050602081019050919050565b82818337600083830152505050565b6000613adc613ad784613a89565b613a6e565b905082815260208101848484011115613af857613af7613a09565b5b613b03848285613aba565b509392505050565b600082601f830112613b2057613b1f61386f565b5b8135613b30848260208601613ac9565b91505092915050565b60008060008060808587031215613b5357613b5261351a565b5b6000613b6187828801613770565b9450506020613b7287828801613770565b9350506040613b83878288016136bb565b925050606085013567ffffffffffffffff811115613ba457613ba361351f565b5b613bb087828801613b0b565b91505092959194509250565b600067ffffffffffffffff821115613bd757613bd6613a0e565b5b602082029050602081019050919050565b6000613bfb613bf684613bbc565b613a6e565b90508083825260208201905060208402830185811115613c1e57613c1d613879565b5b835b81811015613c475780613c338882613770565b845260208401935050602081019050613c20565b5050509392505050565b600082601f830112613c6657613c6561386f565b5b8135613c76848260208601613be8565b91505092915050565b60008060408385031215613c9657613c9561351a565b5b600083013567ffffffffffffffff811115613cb457613cb361351f565b5b613cc085828601613c51565b9250506020613cd1858286016136bb565b9150509250929050565b60008060408385031215613cf257613cf161351a565b5b6000613d0085828601613770565b9250506020613d1185828601613770565b9150509250929050565b600067ffffffffffffffff821115613d3657613d35613a0e565b5b613d3f8261362e565b9050602081019050919050565b6000613d5f613d5a84613d1b565b613a6e565b905082815260208101848484011115613d7b57613d7a613a09565b5b613d86848285613aba565b509392505050565b600082601f830112613da357613da261386f565b5b8135613db3848260208601613d4c565b91505092915050565b600060208284031215613dd257613dd161351a565b5b600082013567ffffffffffffffff811115613df057613def61351f565b5b613dfc84828501613d8e565b91505092915050565b7f4e487b7100000000000000000000000000000000000000000000000000000000600052602260045260246000fd5b60006002820490506001821680613e4c57607f821691505b60208210811415613e6057613e5f613e05565b5b50919050565b7f455243373231413a20617070726f76656420717565727920666f72206e6f6e6560008201527f78697374656e7420746f6b656e00000000000000000000000000000000000000602082015250565b6000613ec2602d836135ea565b9150613ecd82613e66565b604082019050919050565b60006020820190508181036000830152613ef181613eb5565b9050919050565b7f455243373231413a20617070726f76616c20746f2063757272656e74206f776e60008201527f6572000000000000000000000000000000000000000000000000000000000000602082015250565b6000613f546022836135ea565b9150613f5f82613ef8565b604082019050919050565b60006020820190508181036000830152613f8381613f47565b9050919050565b7f455243373231413a20617070726f76652063616c6c6572206973206e6f74206f60008201527f776e6572206e6f7220617070726f76656420666f7220616c6c00000000000000602082015250565b6000613fe66039836135ea565b9150613ff182613f8a565b604082019050919050565b6000602082019050818103600083015261401581613fd9565b9050919050565b7f4f776e61626c653a2063616c6c6572206973206e6f7420746865206f776e6572600082015250565b60006140526020836135ea565b915061405d8261401c565b602082019050919050565b6000602082019050818103600083015261408181614045565b9050919050565b7f5265656e7472616e637947756172643a207265656e7472616e742063616c6c00600082015250565b60006140be601f836135ea565b91506140c982614088565b602082019050919050565b600060208201905081810360008301526140ed816140b1565b9050919050565b7f455243373231413a206f776e657220696e646578206f7574206f6620626f756e60008201527f6473000000000000000000000000000000000000000000000000000000000000602082015250565b60006141506022836135ea565b915061415b826140f4565b604082019050919050565b6000602082019050818103600083015261417f81614143565b9050919050565b7f4e487b7100000000000000000000000000000000000000000000000000000000600052601160045260246000fd5b60006141c08261369a565b91507fffffffffffffffffffffffffffffffffffffffffffffffffffffffffffffffff8214156141f3576141f2614186565b5b600182019050919050565b7f455243373231413a20756e61626c6520746f2067657420746f6b656e206f662060008201527f6f776e657220627920696e646578000000000000000000000000000000000000602082015250565b600061425a602e836135ea565b9150614265826141fe565b604082019050919050565b600060208201905081810360008301526142898161424d565b9050919050565b7f455243373231413a206e756d626572206d696e74656420717565727920666f7260008201527f20746865207a65726f2061646472657373000000000000000000000000000000602082015250565b60006142ec6031836135ea565b91506142f782614290565b604082019050919050565b6000602082019050818103600083015261431b816142df565b9050919050565b7f455243373231413a20676c6f62616c20696e646578206f7574206f6620626f7560008201527f6e64730000000000000000000000000000000000000000000000000000000000602082015250565b600061437e6023836135ea565b915061438982614322565b604082019050919050565b600060208201905081810360008301526143ad81614371565b9050919050565b60006143bf8261369a565b91506143ca8361369a565b9250817fffffffffffffffffffffffffffffffffffffffffffffffffffffffffffffffff048311821515161561440357614402614186565b5b828202905092915050565b7f4e487b7100000000000000000000000000000000000000000000000000000000600052601260045260246000fd5b60006144488261369a565b91506144538361369a565b9250826144635761446261440e565b5b828204905092915050565b600081905092915050565b50565b600061448960008361446e565b915061449482614479565b600082019050919050565b60006144aa8261447c565b9150819050919050565b7f455243373231413a2062616c616e636520717565727920666f7220746865207a60008201527f65726f2061646472657373000000000000000000000000000000000000000000602082015250565b6000614510602b836135ea565b915061451b826144b4565b604082019050919050565b6000602082019050818103600083015261453f81614503565b9050919050565b7f455243373231413a20617070726f766520746f2063616c6c6572000000000000600082015250565b600061457c601a836135ea565b915061458782614546565b602082019050919050565b600060208201905081810360008301526145ab8161456f565b9050919050565b7f5468652063616c6c657220697320616e6f7468657220636f6e74726163740000600082015250565b60006145e8601e836135ea565b91506145f3826145b2565b602082019050919050565b60006020820190508181036000830152614617816145db565b9050919050565b60006146298261369a565b91506146348361369a565b9250827fffffffffffffffffffffffffffffffffffffffffffffffffffffffffffffffff0382111561466957614668614186565b5b828201905092915050565b7f6578636565646564206d617820737570706c7900000000000000000000000000600082015250565b60006146aa6013836135ea565b91506146b582614674565b602082019050919050565b600060208201905081810360008301526146d98161469d565b9050919050565b7f7075626c69632073616c65206d696e74696e67206c696d69742065786365656460008201527f6564000000000000000000000000000000000000000000000000000000000000602082015250565b600061473c6022836135ea565b9150614747826146e0565b604082019050919050565b6000602082019050818103600083015261476b8161472f565b9050919050565b7f4e65656420746f2073656e64206d6f7265204554480000000000000000000000600082015250565b60006147a86015836135ea565b91506147b382614772565b602082019050919050565b600060208201905081810360008301526147d78161479b565b9050919050565b7f455243373231413a207472616e7366657220746f206e6f6e204552433732315260008201527f6563656976657220696d706c656d656e74657200000000000000000000000000602082015250565b600061483a6033836135ea565b9150614845826147de565b604082019050919050565b600060208201905081810360008301526148698161482d565b9050919050565b7f4552433732314d657461646174613a2055524920717565727920666f72206e6f60008201527f6e6578697374656e7420746f6b656e0000000000000000000000000000000000602082015250565b60006148cc602f836135ea565b91506148d782614870565b604082019050919050565b600060208201905081810360008301526148fb816148bf565b9050919050565b600081905092915050565b6000614918826135df565b6149228185614902565b93506149328185602086016135fb565b80840191505092915050565b600061494a828561490d565b9150614956828461490d565b91508190509392505050565b7f4e487b7100000000000000000000000000000000000000000000000000000000600052603260045260246000fd5b7f4f776e61626c653a206e6577206f776e657220697320746865207a65726f206160008201527f6464726573730000000000000000000000000000000000000000000000000000602082015250565b60006149ed6026836135ea565b91506149f882614991565b604082019050919050565b60006020820190508181036000830152614a1c816149e0565b9050919050565b7f455243373231413a207472616e736665722063616c6c6572206973206e6f742060008201527f6f776e6572206e6f7220617070726f7665640000000000000000000000000000602082015250565b6000614a7f6032836135ea565b9150614a8a82614a23565b604082019050919050565b60006020820190508181036000830152614aae81614a72565b9050919050565b7f455243373231413a207472616e736665722066726f6d20696e636f727265637460008201527f206f776e65720000000000000000000000000000000000000000000000000000602082015250565b6000614b116026836135ea565b9150614b1c82614ab5565b604082019050919050565b60006020820190508181036000830152614b4081614b04565b9050919050565b7f455243373231413a207472616e7366657220746f20746865207a65726f20616460008201527f6472657373000000000000000000000000000000000000000000000000000000602082015250565b6000614ba36025836135ea565b9150614bae82614b47565b604082019050919050565b60006020820190508181036000830152614bd281614b96565b9050919050565b60006fffffffffffffffffffffffffffffffff82169050919050565b6000614c0082614bd9565b9150614c0b83614bd9565b925082821015614c1e57614c1d614186565b5b828203905092915050565b6000614c3482614bd9565b9150614c3f83614bd9565b9250826fffffffffffffffffffffffffffffffff03821115614c6457614c63614186565b5b828201905092915050565b7f7175616e74697479206d757374206265206e6f6e7a65726f0000000000000000600082015250565b6000614ca56018836135ea565b9150614cb082614c6f565b602082019050919050565b60006020820190508181036000830152614cd481614c98565b9050919050565b6000614ce68261369a565b9150614cf18361369a565b925082821015614d0457614d03614186565b5b828203905092915050565b7f6e6f7420656e6f756768206d696e7465642079657420666f722074686973206360008201527f6c65616e75700000000000000000000000000000000000000000000000000000602082015250565b6000614d6b6026836135ea565b9150614d7682614d0f565b604082019050919050565b60006020820190508181036000830152614d9a81614d5e565b9050919050565b7f455243373231413a206f776e657220717565727920666f72206e6f6e6578697360008201527f74656e7420746f6b656e00000000000000000000000000000000000000000000602082015250565b6000614dfd602a836135ea565b9150614e0882614da1565b604082019050919050565b60006020820190508181036000830152614e2c81614df0565b9050919050565b6000614e3e8261369a565b91506000821415614e5257614e51614186565b5b600182039050919050565b7f455243373231413a20756e61626c6520746f2064657465726d696e652074686560008201527f206f776e6572206f6620746f6b656e0000000000000000000000000000000000602082015250565b6000614eb9602f836135ea565b9150614ec482614e5d565b604082019050919050565b60006020820190508181036000830152614ee881614eac565b9050919050565b600081519050919050565b600082825260208201905092915050565b6000614f1682614eef565b614f208185614efa565b9350614f308185602086016135fb565b614f398161362e565b840191505092915050565b6000608082019050614f59600083018761372f565b614f66602083018661372f565b614f7360408301856137c5565b8181036060830152614f858184614f0b565b905095945050505050565b600081519050614f9f81613550565b92915050565b600060208284031215614fbb57614fba61351a565b5b6000614fc984828501614f90565b91505092915050565b6000614fdd8261369a565b9150614fe88361369a565b925082614ff857614ff761440e565b5b828206905092915050565b7f455243373231413a206d696e7420746f20746865207a65726f2061646472657360008201527f7300000000000000000000000000000000000000000000000000000000000000602082015250565b600061505f6021836135ea565b915061506a82615003565b604082019050919050565b6000602082019050818103600083015261508e81615052565b9050919050565b7f455243373231413a20746f6b656e20616c7265616479206d696e746564000000600082015250565b60006150cb601d836135ea565b91506150d682615095565b602082019050919050565b600060208201905081810360008301526150fa816150be565b9050919050565b7f455243373231413a207175616e7469747920746f206d696e7420746f6f20686960008201527f6768000000000000000000000000000000000000000000000000000000000000602082015250565b600061515d6022836135ea565b915061516882615101565b604082019050919050565b6000602082019050818103600083015261518c81615150565b905091905056fea26469706673582212200708dbf2d63423d6fbc8488ba40b51baf1df29cb7eebdc0a72bd30c5ecfeae9864736f6c63430008090033",
  "immutableReferences": {
    "936": [
      {
        "length": 32,
        "start": 6009
      },
      {
        "length": 32,
        "start": 6948
      },
      {
        "length": 32,
        "start": 9613
      },
      {
        "length": 32,
        "start": 9665
      }
    ],
    "938": [
      {
        "length": 32,
        "start": 10245
      },
      {
        "length": 32,
        "start": 10286
      },
      {
        "length": 32,
        "start": 12175
      }
    ],
    "2106": [
      {
        "length": 32,
        "start": 6126
      },
      {
        "length": 32,
        "start": 6788
      }
    ],
    "2108": [
      {
        "length": 32,
        "start": 7683
      }
    ],
    "2110": [
      {
        "length": 32,
        "start": 6345
      }
    ]
  },
  "source": "// SPDX-License-Identifier: MIT\n\npragma solidity ^0.8.0;\n\nimport \"@openzeppelin/contracts/access/Ownable.sol\";\nimport \"@openzeppelin/contracts/security/ReentrancyGuard.sol\";\nimport \"./ERC721A.sol\";\nimport \"@openzeppelin/contracts/utils/Strings.sol\";\n\ncontract YetiPunks is Ownable, ERC721A, ReentrancyGuard {\n    using Strings for uint256;\n\n    uint256 public immutable maxPerAddressDuringPublicSale;\n    // uint256 public immutable maxPerAddressDuringPresale = 3;\n    uint256 public immutable amountForDevs;\n    uint256 public immutable amountForGiveaway;\n    string public notRevealedUri;\n\n    // mapping(address => uint256) public allowlist; //seed this with the uint being 3\n\n    constructor(\n        uint256 maxBatchSize_,\n        uint256 collectionSize_,\n        uint256 amountForGiveaway_,\n        uint256 amountForDevs_,\n        string memory _initNotRevealedUri\n    ) ERC721A(\"Petty Monks\", \"PM\", maxBatchSize_, collectionSize_) {\n        maxPerAddressDuringPublicSale = maxBatchSize_;\n        amountForGiveaway = amountForGiveaway_;\n        amountForDevs = amountForDevs_;\n        require(\n            amountForGiveaway_ <= collectionSize_,\n            \"larger collection size needed\"\n        );\n        setNotRevealedURI(_initNotRevealedUri);\n        address[] memory devAddresses = new address[](3);\n        devAddresses[0] = 0xD61ADc48afE9402B4411805Ce6026eF74F94E713;\n        devAddresses[1] = 0xE3Ce04B3BcbdFa219407870Ca617e18fBF503F28;\n        devAddresses[2] = 0x49Cf0aF1cE6a50e822A91a427B3E29007f9C6C09;\n        devMint(devAddresses, 7);\n    }\n\n    modifier callerIsUser() {\n        require(tx.origin == msg.sender, \"The caller is another contract\");\n        _;\n    }\n\n    // function allowlistMint(uint256 quantity) external payable callerIsUser {\n    //     uint256 price = 0.024 ether;\n    //     require(allowlist[msg.sender] > 0, \"not eligible for whitelist mint\");\n    //     require(\n    //         totalSupply() + quantity <= collectionSize,\n    //         \"exceeded max supply\"\n    //     ); //is this possible?\n    //     require(\n    //         numberMinted(msg.sender) + quantity <= maxPerAddressDuringPresale,\n    //         \"mint amount exceeds whitelist\"\n    //     );\n    //     require(msg.value >= price, \"Need to send more ETH\");\n    //     allowlist[msg.sender] -= quantity;\n    //     _safeMint(msg.sender, quantity);\n    //     refundIfOver(price * quantity);\n    // }\n\n    function publicSaleMint(uint256 quantity) external payable callerIsUser {\n        uint256 publicPrice = 0.024 ether;\n        require(\n            totalSupply() + quantity <= collectionSize,\n            \"exceeded max supply\"\n        );\n        require(\n            numberMinted(msg.sender) + quantity <=\n                maxPerAddressDuringPublicSale,\n            \"public sale minting limit exceeded\"\n        );\n        require(msg.value >= publicPrice, \"Need to send more ETH\");\n        _safeMint(msg.sender, quantity);\n        refundIfOver(publicPrice * quantity);\n    }\n\n    function refundIfOver(uint256 price) private {\n        require(msg.value >= price, \"Need to send more ETH\");\n        if (msg.value > price) {\n            payable(msg.sender).transfer(msg.value - price);\n        }\n    }\n\n    // function seedAllowlist(\n    //     address[] memory addresses,\n    //     uint256[] memory numSlots\n    // ) external onlyOwner {\n    //     require(\n    //         addresses.length == numSlots.length,\n    //         \"addresses does not match numSlots length\"\n    //     );\n    //     for (uint256 i = 0; i < addresses.length; i++) {\n    //         allowlist[addresses[i]] = numSlots[i];\n    //     }\n    // }\n\n    // For marketing etc.\n    function devMint(address[] memory receiverAddresses, uint256 mintAmount)\n        public\n        onlyOwner\n    {\n        require(\n            totalSupply() + mintAmount <= collectionSize,\n            \"exceeded max supply\"\n        );\n\n        for (uint256 i = 0; i < receiverAddresses.length; i++) {\n            _safeMint(receiverAddresses[i], mintAmount);\n        }\n    }\n\n    // metadata URI\n    string private _baseTokenURI;\n\n    function _baseURI() internal view virtual override returns (string memory) {\n        return _baseTokenURI;\n    }\n\n    function setNotRevealedURI(string memory _notRevealedURI) public onlyOwner {\n        notRevealedUri = _notRevealedURI;\n    }\n\n    function setBaseURI(string calldata baseURI) external onlyOwner {\n        _baseTokenURI = baseURI;\n    }\n\n    /**\n     * @dev See {IERC721Metadata-tokenURI}.\n     */\n    function tokenURI(uint256 tokenId)\n        public\n        view\n        virtual\n        override\n        onlyOwner\n        returns (string memory)\n    {\n        require(\n            _exists(tokenId),\n            \"ERC721Metadata: URI query for nonexistent token\"\n        );\n\n        string memory baseURI = _baseURI();\n        return\n            bytes(baseURI).length > 0\n                ? string(abi.encodePacked(baseURI, tokenId.toString()))\n                : \"\";\n    }\n\n    function withdrawBalance() public onlyOwner {\n        uint256 oneThird = (address(this).balance * 33) / 100;\n        (bool manduSuccess, ) = payable(\n            0xD61ADc48afE9402B4411805Ce6026eF74F94E713\n        ).call{value: oneThird}(\"\");\n        require(manduSuccess);\n        (bool tenzingSuccess, ) = payable(\n            0xE3Ce04B3BcbdFa219407870Ca617e18fBF503F28\n        ).call{value: oneThird}(\"\");\n        require(tenzingSuccess);\n        (bool tokiMoriSuccess, ) = payable(\n            0x49Cf0aF1cE6a50e822A91a427B3E29007f9C6C09\n        ).call{value: address(this).balance}(\"\");\n        require(tokiMoriSuccess);\n    }\n\n    function setOwnersExplicit(uint256 quantity)\n        external\n        onlyOwner\n        nonReentrant\n    {\n        _setOwnersExplicit(quantity);\n    }\n\n    function numberMinted(address owner) public view returns (uint256) {\n        return _numberMinted(owner);\n    }\n\n    function getOwnershipData(uint256 tokenId)\n        external\n        view\n        returns (TokenOwnership memory)\n    {\n        return ownershipOf(tokenId);\n    }\n}\n",
  "sourcePath": "/Users/christopherfoley/nft/YetiPunks/src/contracts/YetiPunks.sol",
  "compiler": {
    "name": "solc",
    "version": "0.8.9+commit.e5eed63a.Emscripten.clang"
  },
  "schemaVersion": "3.4.4",
  "updatedAt": "2022-02-18T19:00:55.308Z",
  "networkType": "ethereum",
  "devdoc": {
    "kind": "dev",
    "methods": {
      "approve(address,uint256)": {
        "details": "See {IERC721-approve}."
      },
      "balanceOf(address)": {
        "details": "See {IERC721-balanceOf}."
      },
      "getApproved(uint256)": {
        "details": "See {IERC721-getApproved}."
      },
      "isApprovedForAll(address,address)": {
        "details": "See {IERC721-isApprovedForAll}."
      },
      "name()": {
        "details": "See {IERC721Metadata-name}."
      },
      "owner()": {
        "details": "Returns the address of the current owner."
      },
      "ownerOf(uint256)": {
        "details": "See {IERC721-ownerOf}."
      },
      "renounceOwnership()": {
        "details": "Leaves the contract without owner. It will not be possible to call `onlyOwner` functions anymore. Can only be called by the current owner. NOTE: Renouncing ownership will leave the contract without an owner, thereby removing any functionality that is only available to the owner."
      },
      "safeTransferFrom(address,address,uint256)": {
        "details": "See {IERC721-safeTransferFrom}."
      },
      "safeTransferFrom(address,address,uint256,bytes)": {
        "details": "See {IERC721-safeTransferFrom}."
      },
      "setApprovalForAll(address,bool)": {
        "details": "See {IERC721-setApprovalForAll}."
      },
      "supportsInterface(bytes4)": {
        "details": "See {IERC165-supportsInterface}."
      },
      "symbol()": {
        "details": "See {IERC721Metadata-symbol}."
      },
      "tokenByIndex(uint256)": {
        "details": "See {IERC721Enumerable-tokenByIndex}."
      },
      "tokenOfOwnerByIndex(address,uint256)": {
        "details": "See {IERC721Enumerable-tokenOfOwnerByIndex}. This read function is O(collectionSize). If calling from a separate contract, be sure to test gas first. It may also degrade with extremely large collection sizes (e.g >> 10000), test for your use case."
      },
      "tokenURI(uint256)": {
        "details": "See {IERC721Metadata-tokenURI}."
      },
      "totalSupply()": {
        "details": "See {IERC721Enumerable-totalSupply}."
      },
      "transferFrom(address,address,uint256)": {
        "details": "See {IERC721-transferFrom}."
      },
      "transferOwnership(address)": {
        "details": "Transfers ownership of the contract to a new account (`newOwner`). Can only be called by the current owner."
      }
    },
    "version": 1
  },
  "userdoc": {
    "kind": "user",
    "methods": {},
    "version": 1
  }
}