{
  "contractName": "YetiPunks",
  "abi": [
    {
      "inputs": [],
      "stateMutability": "nonpayable",
      "type": "constructor"
    },
    {
      "anonymous": false,
      "inputs": [
        {
          "indexed": true,
          "internalType": "address",
          "name": "owner",
          "type": "address"
        },
        {
          "indexed": true,
          "internalType": "address",
          "name": "approved",
          "type": "address"
        },
        {
          "indexed": true,
          "internalType": "uint256",
          "name": "tokenId",
          "type": "uint256"
        }
      ],
      "name": "Approval",
      "type": "event"
    },
    {
      "anonymous": false,
      "inputs": [
        {
          "indexed": true,
          "internalType": "address",
          "name": "owner",
          "type": "address"
        },
        {
          "indexed": true,
          "internalType": "address",
          "name": "operator",
          "type": "address"
        },
        {
          "indexed": false,
          "internalType": "bool",
          "name": "approved",
          "type": "bool"
        }
      ],
      "name": "ApprovalForAll",
      "type": "event"
    },
    {
      "anonymous": false,
      "inputs": [
        {
          "indexed": true,
          "internalType": "address",
          "name": "previousOwner",
          "type": "address"
        },
        {
          "indexed": true,
          "internalType": "address",
          "name": "newOwner",
          "type": "address"
        }
      ],
      "name": "OwnershipTransferred",
      "type": "event"
    },
    {
      "anonymous": false,
      "inputs": [
        {
          "indexed": true,
          "internalType": "address",
          "name": "from",
          "type": "address"
        },
        {
          "indexed": true,
          "internalType": "address",
          "name": "to",
          "type": "address"
        },
        {
          "indexed": true,
          "internalType": "uint256",
          "name": "tokenId",
          "type": "uint256"
        }
      ],
      "name": "Transfer",
      "type": "event"
    },
    {
      "anonymous": false,
      "inputs": [
        {
          "indexed": false,
          "internalType": "uint16",
          "name": "amount",
          "type": "uint16"
        }
      ],
      "name": "yetiMintedAmount",
      "type": "event"
    },
    {
      "inputs": [
        {
          "internalType": "address",
          "name": "to",
          "type": "address"
        },
        {
          "internalType": "uint256",
          "name": "tokenId",
          "type": "uint256"
        }
      ],
      "name": "approve",
      "outputs": [],
      "stateMutability": "nonpayable",
      "type": "function"
    },
    {
      "inputs": [
        {
          "internalType": "address",
          "name": "owner",
          "type": "address"
        }
      ],
      "name": "balanceOf",
      "outputs": [
        {
          "internalType": "uint256",
          "name": "",
          "type": "uint256"
        }
      ],
      "stateMutability": "view",
      "type": "function",
      "constant": true
    },
    {
      "inputs": [],
      "name": "baseURI",
      "outputs": [
        {
          "internalType": "string",
          "name": "",
          "type": "string"
        }
      ],
      "stateMutability": "view",
      "type": "function",
      "constant": true
    },
    {
      "inputs": [
        {
          "internalType": "uint256",
          "name": "tokenId",
          "type": "uint256"
        }
      ],
      "name": "getApproved",
      "outputs": [
        {
          "internalType": "address",
          "name": "",
          "type": "address"
        }
      ],
      "stateMutability": "view",
      "type": "function",
      "constant": true
    },
    {
      "inputs": [
        {
          "internalType": "address",
          "name": "owner",
          "type": "address"
        },
        {
          "internalType": "address",
          "name": "operator",
          "type": "address"
        }
      ],
      "name": "isApprovedForAll",
      "outputs": [
        {
          "internalType": "bool",
          "name": "",
          "type": "bool"
        }
      ],
      "stateMutability": "view",
      "type": "function",
      "constant": true
    },
    {
      "inputs": [],
      "name": "name",
      "outputs": [
        {
          "internalType": "string",
          "name": "",
          "type": "string"
        }
      ],
      "stateMutability": "view",
      "type": "function",
      "constant": true
    },
    {
      "inputs": [],
      "name": "owner",
      "outputs": [
        {
          "internalType": "address",
          "name": "",
          "type": "address"
        }
      ],
      "stateMutability": "view",
      "type": "function",
      "constant": true
    },
    {
      "inputs": [
        {
          "internalType": "uint256",
          "name": "tokenId",
          "type": "uint256"
        }
      ],
      "name": "ownerOf",
      "outputs": [
        {
          "internalType": "address",
          "name": "",
          "type": "address"
        }
      ],
      "stateMutability": "view",
      "type": "function",
      "constant": true
    },
    {
      "inputs": [],
      "name": "renounceOwnership",
      "outputs": [],
      "stateMutability": "nonpayable",
      "type": "function"
    },
    {
      "inputs": [
        {
          "internalType": "address",
          "name": "from",
          "type": "address"
        },
        {
          "internalType": "address",
          "name": "to",
          "type": "address"
        },
        {
          "internalType": "uint256",
          "name": "tokenId",
          "type": "uint256"
        }
      ],
      "name": "safeTransferFrom",
      "outputs": [],
      "stateMutability": "nonpayable",
      "type": "function"
    },
    {
      "inputs": [
        {
          "internalType": "address",
          "name": "from",
          "type": "address"
        },
        {
          "internalType": "address",
          "name": "to",
          "type": "address"
        },
        {
          "internalType": "uint256",
          "name": "tokenId",
          "type": "uint256"
        },
        {
          "internalType": "bytes",
          "name": "_data",
          "type": "bytes"
        }
      ],
      "name": "safeTransferFrom",
      "outputs": [],
      "stateMutability": "nonpayable",
      "type": "function"
    },
    {
      "inputs": [
        {
          "internalType": "address",
          "name": "operator",
          "type": "address"
        },
        {
          "internalType": "bool",
          "name": "approved",
          "type": "bool"
        }
      ],
      "name": "setApprovalForAll",
      "outputs": [],
      "stateMutability": "nonpayable",
      "type": "function"
    },
    {
      "inputs": [],
      "name": "symbol",
      "outputs": [
        {
          "internalType": "string",
          "name": "",
          "type": "string"
        }
      ],
      "stateMutability": "view",
      "type": "function",
      "constant": true
    },
    {
      "inputs": [
        {
          "internalType": "address",
          "name": "from",
          "type": "address"
        },
        {
          "internalType": "address",
          "name": "to",
          "type": "address"
        },
        {
          "internalType": "uint256",
          "name": "tokenId",
          "type": "uint256"
        }
      ],
      "name": "transferFrom",
      "outputs": [],
      "stateMutability": "nonpayable",
      "type": "function"
    },
    {
      "inputs": [
        {
          "internalType": "address",
          "name": "newOwner",
          "type": "address"
        }
      ],
      "name": "transferOwnership",
      "outputs": [],
      "stateMutability": "nonpayable",
      "type": "function"
    },
    {
      "inputs": [],
      "name": "withdraw",
      "outputs": [],
      "stateMutability": "nonpayable",
      "type": "function"
    },
    {
      "inputs": [
        {
          "internalType": "string",
          "name": "base",
          "type": "string"
        }
      ],
      "name": "setBaseURI",
      "outputs": [],
      "stateMutability": "nonpayable",
      "type": "function"
    },
    {
      "inputs": [
        {
          "internalType": "uint16",
          "name": "numberOfTokens",
          "type": "uint16"
        }
      ],
      "name": "mint",
      "outputs": [],
      "stateMutability": "payable",
      "type": "function",
      "payable": true
    },
    {
      "inputs": [
        {
          "internalType": "uint256",
          "name": "tokenId",
          "type": "uint256"
        }
      ],
      "name": "tokenURI",
      "outputs": [
        {
          "internalType": "string",
          "name": "",
          "type": "string"
        }
      ],
      "stateMutability": "view",
      "type": "function",
      "constant": true
    },
    {
      "inputs": [
        {
          "internalType": "bytes4",
          "name": "interfaceId",
          "type": "bytes4"
        }
      ],
      "name": "supportsInterface",
      "outputs": [
        {
          "internalType": "bool",
          "name": "",
          "type": "bool"
        }
      ],
      "stateMutability": "view",
      "type": "function",
      "constant": true
    }
  ],
  "bytecode": "0x6080604052612710600860006101000a81548161ffff021916908361ffff1602179055506000600860026101000a81548161ffff021916908361ffff1602179055503480156200004e57600080fd5b506040518060400160405280600981526020017f5965746950756e6b7300000000000000000000000000000000000000000000008152506040518060400160405280600481526020017f59455449000000000000000000000000000000000000000000000000000000008152508160009080519060200190620000d3929190620001e3565b508060019080519060200190620000ec929190620001e3565b5050506200010f620001036200011560201b60201c565b6200011d60201b60201c565b620002f8565b600033905090565b6000600660009054906101000a900473ffffffffffffffffffffffffffffffffffffffff16905081600660006101000a81548173ffffffffffffffffffffffffffffffffffffffff021916908373ffffffffffffffffffffffffffffffffffffffff1602179055508173ffffffffffffffffffffffffffffffffffffffff168173ffffffffffffffffffffffffffffffffffffffff167f8be0079c531659141344cd1fd0a4f28419497f9722a3daafe3b4186f6b6457e060405160405180910390a35050565b828054620001f190620002c2565b90600052602060002090601f01602090048101928262000215576000855562000261565b82601f106200023057805160ff191683800117855562000261565b8280016001018555821562000261579182015b828111156200026057825182559160200191906001019062000243565b5b50905062000270919062000274565b5090565b5b808211156200028f57600081600090555060010162000275565b5090565b7f4e487b7100000000000000000000000000000000000000000000000000000000600052602260045260246000fd5b60006002820490506001821680620002db57607f821691505b60208210811415620002f257620002f162000293565b5b50919050565b61342f80620003086000396000f3fe60806040526004361061011f5760003560e01c80636c0360eb116100a0578063a22cb46511610064578063a22cb465146103b2578063b88d4fde146103db578063c87b56dd14610404578063e985e9c514610441578063f2fde38b1461047e5761011f565b80636c0360eb146102dd57806370a0823114610308578063715018a6146103455780638da5cb5b1461035c57806395d89b41146103875761011f565b806323cf0a22116100e757806323cf0a221461021b5780633ccfd60b1461023757806342842e0e1461024e57806355f804b3146102775780636352211e146102a05761011f565b806301ffc9a71461012457806306fdde0314610161578063081812fc1461018c578063095ea7b3146101c957806323b872dd146101f2575b600080fd5b34801561013057600080fd5b5061014b60048036038101906101469190611fb7565b6104a7565b6040516101589190611fff565b60405180910390f35b34801561016d57600080fd5b506101766104b9565b60405161018391906120b3565b60405180910390f35b34801561019857600080fd5b506101b360048036038101906101ae919061210b565b61054b565b6040516101c09190612179565b60405180910390f35b3480156101d557600080fd5b506101f060048036038101906101eb91906121c0565b6105d0565b005b3480156101fe57600080fd5b5061021960048036038101906102149190612200565b6106e8565b005b6102356004803603810190610230919061228d565b610748565b005b34801561024357600080fd5b5061024c6108f5565b005b34801561025a57600080fd5b5061027560048036038101906102709190612200565b6109c0565b005b34801561028357600080fd5b5061029e600480360381019061029991906123ef565b6109e0565b005b3480156102ac57600080fd5b506102c760048036038101906102c2919061210b565b610a76565b6040516102d49190612179565b60405180910390f35b3480156102e957600080fd5b506102f2610b28565b6040516102ff91906120b3565b60405180910390f35b34801561031457600080fd5b5061032f600480360381019061032a9190612438565b610bb6565b60405161033c9190612474565b60405180910390f35b34801561035157600080fd5b5061035a610c6e565b005b34801561036857600080fd5b50610371610cf6565b60405161037e9190612179565b60405180910390f35b34801561039357600080fd5b5061039c610d20565b6040516103a991906120b3565b60405180910390f35b3480156103be57600080fd5b506103d960048036038101906103d491906124bb565b610db2565b005b3480156103e757600080fd5b5061040260048036038101906103fd919061259c565b610f33565b005b34801561041057600080fd5b5061042b6004803603810190610426919061210b565b610f95565b60405161043891906120b3565b60405180910390f35b34801561044d57600080fd5b506104686004803603810190610463919061261f565b610fa7565b6040516104759190611fff565b60405180910390f35b34801561048a57600080fd5b506104a560048036038101906104a09190612438565b61103b565b005b60006104b282611133565b9050919050565b6060600080546104c89061268e565b80601f01602080910402602001604051908101604052809291908181526020018280546104f49061268e565b80156105415780601f1061051657610100808354040283529160200191610541565b820191906000526020600020905b81548152906001019060200180831161052457829003601f168201915b5050505050905090565b600061055682611215565b610595576040517f08c379a000000000000000000000000000000000000000000000000000000000815260040161058c90612732565b60405180910390fd5b6004600083815260200190815260200160002060009054906101000a900473ffffffffffffffffffffffffffffffffffffffff169050919050565b60006105db82610a76565b90508073ffffffffffffffffffffffffffffffffffffffff168373ffffffffffffffffffffffffffffffffffffffff16141561064c576040517f08c379a0000000000000000000000000000000000000000000000000000000008152600401610643906127c4565b60405180910390fd5b8073ffffffffffffffffffffffffffffffffffffffff1661066b611281565b73ffffffffffffffffffffffffffffffffffffffff16148061069a575061069981610694611281565b610fa7565b5b6106d9576040517f08c379a00000000000000000000000000000000000000000000000000000000081526004016106d090612856565b60405180910390fd5b6106e38383611289565b505050565b6106f96106f3611281565b82611342565b610738576040517f08c379a000000000000000000000000000000000000000000000000000000000815260040161072f906128e8565b60405180910390fd5b610743838383611420565b505050565b600860009054906101000a900461ffff1661ffff166001600860029054906101000a900461ffff1661077a9190612937565b61ffff16106107be576040517f08c379a00000000000000000000000000000000000000000000000000000000081526004016107b5906129e1565b60405180910390fd5b600860009054906101000a900461ffff1661ffff1681600860029054906101000a900461ffff166107ef9190612937565b61ffff161115610834576040517f08c379a000000000000000000000000000000000000000000000000000000000815260040161082b90612a99565b60405180910390fd5b60005b8161ffff168110156108ba5761086d336001600860029054906101000a900461ffff166108649190612937565b61ffff1661167c565b6001600860028282829054906101000a900461ffff1661088d9190612937565b92506101000a81548161ffff021916908361ffff16021790555080806108b290612ab9565b915050610837565b507f412e63455210b097d853957c72a8c7e71e063f5f727cae1b9de7342c0ee3553b816040516108ea9190612b11565b60405180910390a150565b6108fd611281565b73ffffffffffffffffffffffffffffffffffffffff1661091b610cf6565b73ffffffffffffffffffffffffffffffffffffffff1614610971576040517f08c379a000000000000000000000000000000000000000000000000000000000815260040161096890612b78565b60405180910390fd5b60004790503373ffffffffffffffffffffffffffffffffffffffff166108fc829081150290604051600060405180830381858888f193505050501580156109bc573d6000803e3d6000fd5b5050565b6109db83838360405180602001604052806000815250610f33565b505050565b6109e8611281565b73ffffffffffffffffffffffffffffffffffffffff16610a06610cf6565b73ffffffffffffffffffffffffffffffffffffffff1614610a5c576040517f08c379a0000000000000000000000000000000000000000000000000000000008152600401610a5390612b78565b60405180910390fd5b8060079080519060200190610a72929190611ea8565b5050565b6000806002600084815260200190815260200160002060009054906101000a900473ffffffffffffffffffffffffffffffffffffffff169050600073ffffffffffffffffffffffffffffffffffffffff168173ffffffffffffffffffffffffffffffffffffffff161415610b1f576040517f08c379a0000000000000000000000000000000000000000000000000000000008152600401610b1690612c0a565b60405180910390fd5b80915050919050565b60078054610b359061268e565b80601f0160208091040260200160405190810160405280929190818152602001828054610b619061268e565b8015610bae5780601f10610b8357610100808354040283529160200191610bae565b820191906000526020600020905b815481529060010190602001808311610b9157829003601f168201915b505050505081565b60008073ffffffffffffffffffffffffffffffffffffffff168273ffffffffffffffffffffffffffffffffffffffff161415610c27576040517f08c379a0000000000000000000000000000000000000000000000000000000008152600401610c1e90612c9c565b60405180910390fd5b600360008373ffffffffffffffffffffffffffffffffffffffff1673ffffffffffffffffffffffffffffffffffffffff168152602001908152602001600020549050919050565b610c76611281565b73ffffffffffffffffffffffffffffffffffffffff16610c94610cf6565b73ffffffffffffffffffffffffffffffffffffffff1614610cea576040517f08c379a0000000000000000000000000000000000000000000000000000000008152600401610ce190612b78565b60405180910390fd5b610cf4600061169a565b565b6000600660009054906101000a900473ffffffffffffffffffffffffffffffffffffffff16905090565b606060018054610d2f9061268e565b80601f0160208091040260200160405190810160405280929190818152602001828054610d5b9061268e565b8015610da85780601f10610d7d57610100808354040283529160200191610da8565b820191906000526020600020905b815481529060010190602001808311610d8b57829003601f168201915b5050505050905090565b610dba611281565b73ffffffffffffffffffffffffffffffffffffffff168273ffffffffffffffffffffffffffffffffffffffff161415610e28576040517f08c379a0000000000000000000000000000000000000000000000000000000008152600401610e1f90612d08565b60405180910390fd5b8060056000610e35611281565b73ffffffffffffffffffffffffffffffffffffffff1673ffffffffffffffffffffffffffffffffffffffff16815260200190815260200160002060008473ffffffffffffffffffffffffffffffffffffffff1673ffffffffffffffffffffffffffffffffffffffff16815260200190815260200160002060006101000a81548160ff0219169083151502179055508173ffffffffffffffffffffffffffffffffffffffff16610ee2611281565b73ffffffffffffffffffffffffffffffffffffffff167f17307eab39ab6107e8899845ad3d59bd9653f200f220920489ca2b5937696c3183604051610f279190611fff565b60405180910390a35050565b610f44610f3e611281565b83611342565b610f83576040517f08c379a0000000000000000000000000000000000000000000000000000000008152600401610f7a906128e8565b60405180910390fd5b610f8f84848484611760565b50505050565b6060610fa0826117bc565b9050919050565b6000600560008473ffffffffffffffffffffffffffffffffffffffff1673ffffffffffffffffffffffffffffffffffffffff16815260200190815260200160002060008373ffffffffffffffffffffffffffffffffffffffff1673ffffffffffffffffffffffffffffffffffffffff16815260200190815260200160002060009054906101000a900460ff16905092915050565b611043611281565b73ffffffffffffffffffffffffffffffffffffffff16611061610cf6565b73ffffffffffffffffffffffffffffffffffffffff16146110b7576040517f08c379a00000000000000000000000000000000000000000000000000000000081526004016110ae90612b78565b60405180910390fd5b600073ffffffffffffffffffffffffffffffffffffffff168173ffffffffffffffffffffffffffffffffffffffff161415611127576040517f08c379a000000000000000000000000000000000000000000000000000000000815260040161111e90612d9a565b60405180910390fd5b6111308161169a565b50565b60007f80ac58cd000000000000000000000000000000000000000000000000000000007bffffffffffffffffffffffffffffffffffffffffffffffffffffffff1916827bffffffffffffffffffffffffffffffffffffffffffffffffffffffff191614806111fe57507f5b5e139f000000000000000000000000000000000000000000000000000000007bffffffffffffffffffffffffffffffffffffffffffffffffffffffff1916827bffffffffffffffffffffffffffffffffffffffffffffffffffffffff1916145b8061120e575061120d82611863565b5b9050919050565b60008073ffffffffffffffffffffffffffffffffffffffff166002600084815260200190815260200160002060009054906101000a900473ffffffffffffffffffffffffffffffffffffffff1673ffffffffffffffffffffffffffffffffffffffff1614159050919050565b600033905090565b816004600083815260200190815260200160002060006101000a81548173ffffffffffffffffffffffffffffffffffffffff021916908373ffffffffffffffffffffffffffffffffffffffff160217905550808273ffffffffffffffffffffffffffffffffffffffff166112fc83610a76565b73ffffffffffffffffffffffffffffffffffffffff167f8c5be1e5ebec7d5bd14f71427d1e84f3dd0314c0f7b2291e5b200ac8c7c3b92560405160405180910390a45050565b600061134d82611215565b61138c576040517f08c379a000000000000000000000000000000000000000000000000000000000815260040161138390612e2c565b60405180910390fd5b600061139783610a76565b90508073ffffffffffffffffffffffffffffffffffffffff168473ffffffffffffffffffffffffffffffffffffffff16148061140657508373ffffffffffffffffffffffffffffffffffffffff166113ee8461054b565b73ffffffffffffffffffffffffffffffffffffffff16145b8061141757506114168185610fa7565b5b91505092915050565b8273ffffffffffffffffffffffffffffffffffffffff1661144082610a76565b73ffffffffffffffffffffffffffffffffffffffff1614611496576040517f08c379a000000000000000000000000000000000000000000000000000000000815260040161148d90612ebe565b60405180910390fd5b600073ffffffffffffffffffffffffffffffffffffffff168273ffffffffffffffffffffffffffffffffffffffff161415611506576040517f08c379a00000000000000000000000000000000000000000000000000000000081526004016114fd90612f50565b60405180910390fd5b6115118383836118cd565b61151c600082611289565b6001600360008573ffffffffffffffffffffffffffffffffffffffff1673ffffffffffffffffffffffffffffffffffffffff168152602001908152602001600020600082825461156c9190612f70565b925050819055506001600360008473ffffffffffffffffffffffffffffffffffffffff1673ffffffffffffffffffffffffffffffffffffffff16815260200190815260200160002060008282546115c39190612fa4565b92505081905550816002600083815260200190815260200160002060006101000a81548173ffffffffffffffffffffffffffffffffffffffff021916908373ffffffffffffffffffffffffffffffffffffffff160217905550808273ffffffffffffffffffffffffffffffffffffffff168473ffffffffffffffffffffffffffffffffffffffff167fddf252ad1be2c89b69c2b068fc378daa952ba7f163c4a11628f55a4df523b3ef60405160405180910390a4505050565b6116968282604051806020016040528060008152506118dd565b5050565b6000600660009054906101000a900473ffffffffffffffffffffffffffffffffffffffff16905081600660006101000a81548173ffffffffffffffffffffffffffffffffffffffff021916908373ffffffffffffffffffffffffffffffffffffffff1602179055508173ffffffffffffffffffffffffffffffffffffffff168173ffffffffffffffffffffffffffffffffffffffff167f8be0079c531659141344cd1fd0a4f28419497f9722a3daafe3b4186f6b6457e060405160405180910390a35050565b61176b848484611420565b61177784848484611938565b6117b6576040517f08c379a00000000000000000000000000000000000000000000000000000000081526004016117ad9061306c565b60405180910390fd5b50505050565b60606117c782611215565b611806576040517f08c379a00000000000000000000000000000000000000000000000000000000081526004016117fd906130fe565b60405180910390fd5b6000611810611acf565b90506000815111611830576040518060200160405280600081525061185b565b8061183a84611b61565b60405160200161184b92919061315a565b6040516020818303038152906040525b915050919050565b60007f01ffc9a7000000000000000000000000000000000000000000000000000000007bffffffffffffffffffffffffffffffffffffffffffffffffffffffff1916827bffffffffffffffffffffffffffffffffffffffffffffffffffffffff1916149050919050565b6118d8838383611cc2565b505050565b6118e78383611cc7565b6118f46000848484611938565b611933576040517f08c379a000000000000000000000000000000000000000000000000000000000815260040161192a9061306c565b60405180910390fd5b505050565b60006119598473ffffffffffffffffffffffffffffffffffffffff16611e95565b15611ac2578373ffffffffffffffffffffffffffffffffffffffff1663150b7a02611982611281565b8786866040518563ffffffff1660e01b81526004016119a494939291906131d3565b602060405180830381600087803b1580156119be57600080fd5b505af19250505080156119ef57506040513d601f19601f820116820180604052508101906119ec9190613234565b60015b611a72573d8060008114611a1f576040519150601f19603f3d011682016040523d82523d6000602084013e611a24565b606091505b50600081511415611a6a576040517f08c379a0000000000000000000000000000000000000000000000000000000008152600401611a619061306c565b60405180910390fd5b805181602001fd5b63150b7a0260e01b7bffffffffffffffffffffffffffffffffffffffffffffffffffffffff1916817bffffffffffffffffffffffffffffffffffffffffffffffffffffffff191614915050611ac7565b600190505b949350505050565b606060078054611ade9061268e565b80601f0160208091040260200160405190810160405280929190818152602001828054611b0a9061268e565b8015611b575780601f10611b2c57610100808354040283529160200191611b57565b820191906000526020600020905b815481529060010190602001808311611b3a57829003601f168201915b5050505050905090565b60606000821415611ba9576040518060400160405280600181526020017f30000000000000000000000000000000000000000000000000000000000000008152509050611cbd565b600082905060005b60008214611bdb578080611bc490612ab9565b915050600a82611bd49190613290565b9150611bb1565b60008167ffffffffffffffff811115611bf757611bf66122c4565b5b6040519080825280601f01601f191660200182016040528015611c295781602001600182028036833780820191505090505b5090505b60008514611cb657600182611c429190612f70565b9150600a85611c5191906132c1565b6030611c5d9190612fa4565b60f81b818381518110611c7357611c726132f2565b5b60200101907effffffffffffffffffffffffffffffffffffffffffffffffffffffffffffff1916908160001a905350600a85611caf9190613290565b9450611c2d565b8093505050505b919050565b505050565b600073ffffffffffffffffffffffffffffffffffffffff168273ffffffffffffffffffffffffffffffffffffffff161415611d37576040517f08c379a0000000000000000000000000000000000000000000000000000000008152600401611d2e9061336d565b60405180910390fd5b611d4081611215565b15611d80576040517f08c379a0000000000000000000000000000000000000000000000000000000008152600401611d77906133d9565b60405180910390fd5b611d8c600083836118cd565b6001600360008473ffffffffffffffffffffffffffffffffffffffff1673ffffffffffffffffffffffffffffffffffffffff1681526020019081526020016000206000828254611ddc9190612fa4565b92505081905550816002600083815260200190815260200160002060006101000a81548173ffffffffffffffffffffffffffffffffffffffff021916908373ffffffffffffffffffffffffffffffffffffffff160217905550808273ffffffffffffffffffffffffffffffffffffffff16600073ffffffffffffffffffffffffffffffffffffffff167fddf252ad1be2c89b69c2b068fc378daa952ba7f163c4a11628f55a4df523b3ef60405160405180910390a45050565b600080823b905060008111915050919050565b828054611eb49061268e565b90600052602060002090601f016020900481019282611ed65760008555611f1d565b82601f10611eef57805160ff1916838001178555611f1d565b82800160010185558215611f1d579182015b82811115611f1c578251825591602001919060010190611f01565b5b509050611f2a9190611f2e565b5090565b5b80821115611f47576000816000905550600101611f2f565b5090565b6000604051905090565b600080fd5b600080fd5b60007fffffffff0000000000000000000000000000000000000000000000000000000082169050919050565b611f9481611f5f565b8114611f9f57600080fd5b50565b600081359050611fb181611f8b565b92915050565b600060208284031215611fcd57611fcc611f55565b5b6000611fdb84828501611fa2565b91505092915050565b60008115159050919050565b611ff981611fe4565b82525050565b60006020820190506120146000830184611ff0565b92915050565b600081519050919050565b600082825260208201905092915050565b60005b83811015612054578082015181840152602081019050612039565b83811115612063576000848401525b50505050565b6000601f19601f8301169050919050565b60006120858261201a565b61208f8185612025565b935061209f818560208601612036565b6120a881612069565b840191505092915050565b600060208201905081810360008301526120cd818461207a565b905092915050565b6000819050919050565b6120e8816120d5565b81146120f357600080fd5b50565b600081359050612105816120df565b92915050565b60006020828403121561212157612120611f55565b5b600061212f848285016120f6565b91505092915050565b600073ffffffffffffffffffffffffffffffffffffffff82169050919050565b600061216382612138565b9050919050565b61217381612158565b82525050565b600060208201905061218e600083018461216a565b92915050565b61219d81612158565b81146121a857600080fd5b50565b6000813590506121ba81612194565b92915050565b600080604083850312156121d7576121d6611f55565b5b60006121e5858286016121ab565b92505060206121f6858286016120f6565b9150509250929050565b60008060006060848603121561221957612218611f55565b5b6000612227868287016121ab565b9350506020612238868287016121ab565b9250506040612249868287016120f6565b9150509250925092565b600061ffff82169050919050565b61226a81612253565b811461227557600080fd5b50565b60008135905061228781612261565b92915050565b6000602082840312156122a3576122a2611f55565b5b60006122b184828501612278565b91505092915050565b600080fd5b600080fd5b7f4e487b7100000000000000000000000000000000000000000000000000000000600052604160045260246000fd5b6122fc82612069565b810181811067ffffffffffffffff8211171561231b5761231a6122c4565b5b80604052505050565b600061232e611f4b565b905061233a82826122f3565b919050565b600067ffffffffffffffff82111561235a576123596122c4565b5b61236382612069565b9050602081019050919050565b82818337600083830152505050565b600061239261238d8461233f565b612324565b9050828152602081018484840111156123ae576123ad6122bf565b5b6123b9848285612370565b509392505050565b600082601f8301126123d6576123d56122ba565b5b81356123e684826020860161237f565b91505092915050565b60006020828403121561240557612404611f55565b5b600082013567ffffffffffffffff81111561242357612422611f5a565b5b61242f848285016123c1565b91505092915050565b60006020828403121561244e5761244d611f55565b5b600061245c848285016121ab565b91505092915050565b61246e816120d5565b82525050565b60006020820190506124896000830184612465565b92915050565b61249881611fe4565b81146124a357600080fd5b50565b6000813590506124b58161248f565b92915050565b600080604083850312156124d2576124d1611f55565b5b60006124e0858286016121ab565b92505060206124f1858286016124a6565b9150509250929050565b600067ffffffffffffffff821115612516576125156122c4565b5b61251f82612069565b9050602081019050919050565b600061253f61253a846124fb565b612324565b90508281526020810184848401111561255b5761255a6122bf565b5b612566848285612370565b509392505050565b600082601f830112612583576125826122ba565b5b813561259384826020860161252c565b91505092915050565b600080600080608085870312156125b6576125b5611f55565b5b60006125c4878288016121ab565b94505060206125d5878288016121ab565b93505060406125e6878288016120f6565b925050606085013567ffffffffffffffff81111561260757612606611f5a565b5b6126138782880161256e565b91505092959194509250565b6000806040838503121561263657612635611f55565b5b6000612644858286016121ab565b9250506020612655858286016121ab565b9150509250929050565b7f4e487b7100000000000000000000000000000000000000000000000000000000600052602260045260246000fd5b600060028204905060018216806126a657607f821691505b602082108114156126ba576126b961265f565b5b50919050565b7f4552433732313a20617070726f76656420717565727920666f72206e6f6e657860008201527f697374656e7420746f6b656e0000000000000000000000000000000000000000602082015250565b600061271c602c83612025565b9150612727826126c0565b604082019050919050565b6000602082019050818103600083015261274b8161270f565b9050919050565b7f4552433732313a20617070726f76616c20746f2063757272656e74206f776e6560008201527f7200000000000000000000000000000000000000000000000000000000000000602082015250565b60006127ae602183612025565b91506127b982612752565b604082019050919050565b600060208201905081810360008301526127dd816127a1565b9050919050565b7f4552433732313a20617070726f76652063616c6c6572206973206e6f74206f7760008201527f6e6572206e6f7220617070726f76656420666f7220616c6c0000000000000000602082015250565b6000612840603883612025565b915061284b826127e4565b604082019050919050565b6000602082019050818103600083015261286f81612833565b9050919050565b7f4552433732313a207472616e736665722063616c6c6572206973206e6f74206f60008201527f776e6572206e6f7220617070726f766564000000000000000000000000000000602082015250565b60006128d2603183612025565b91506128dd82612876565b604082019050919050565b60006020820190508181036000830152612901816128c5565b9050919050565b7f4e487b7100000000000000000000000000000000000000000000000000000000600052601160045260246000fd5b600061294282612253565b915061294d83612253565b92508261ffff0382111561296457612963612908565b5b828201905092915050565b7f416c6c20796574692070756e6b73206861766520616c7265616479206265656e60008201527f206d696e74656421000000000000000000000000000000000000000000000000602082015250565b60006129cb602883612025565b91506129d68261296f565b604082019050919050565b600060208201905081810360008301526129fa816129be565b9050919050565b7f596f752061726520747279696e6720746f206d696e74206d6f7265205965746960008201527f7320746861746e20617265206c6566742c20646563726561736520746865206e60208201527f756d626572206f6620796574697320616e642074727920616761696e2e000000604082015250565b6000612a83605d83612025565b9150612a8e82612a01565b606082019050919050565b60006020820190508181036000830152612ab281612a76565b9050919050565b6000612ac4826120d5565b91507fffffffffffffffffffffffffffffffffffffffffffffffffffffffffffffffff821415612af757612af6612908565b5b600182019050919050565b612b0b81612253565b82525050565b6000602082019050612b266000830184612b02565b92915050565b7f4f776e61626c653a2063616c6c6572206973206e6f7420746865206f776e6572600082015250565b6000612b62602083612025565b9150612b6d82612b2c565b602082019050919050565b60006020820190508181036000830152612b9181612b55565b9050919050565b7f4552433732313a206f776e657220717565727920666f72206e6f6e657869737460008201527f656e7420746f6b656e0000000000000000000000000000000000000000000000602082015250565b6000612bf4602983612025565b9150612bff82612b98565b604082019050919050565b60006020820190508181036000830152612c2381612be7565b9050919050565b7f4552433732313a2062616c616e636520717565727920666f7220746865207a6560008201527f726f206164647265737300000000000000000000000000000000000000000000602082015250565b6000612c86602a83612025565b9150612c9182612c2a565b604082019050919050565b60006020820190508181036000830152612cb581612c79565b9050919050565b7f4552433732313a20617070726f766520746f2063616c6c657200000000000000600082015250565b6000612cf2601983612025565b9150612cfd82612cbc565b602082019050919050565b60006020820190508181036000830152612d2181612ce5565b9050919050565b7f4f776e61626c653a206e6577206f776e657220697320746865207a65726f206160008201527f6464726573730000000000000000000000000000000000000000000000000000602082015250565b6000612d84602683612025565b9150612d8f82612d28565b604082019050919050565b60006020820190508181036000830152612db381612d77565b9050919050565b7f4552433732313a206f70657261746f7220717565727920666f72206e6f6e657860008201527f697374656e7420746f6b656e0000000000000000000000000000000000000000602082015250565b6000612e16602c83612025565b9150612e2182612dba565b604082019050919050565b60006020820190508181036000830152612e4581612e09565b9050919050565b7f4552433732313a207472616e73666572206f6620746f6b656e2074686174206960008201527f73206e6f74206f776e0000000000000000000000000000000000000000000000602082015250565b6000612ea8602983612025565b9150612eb382612e4c565b604082019050919050565b60006020820190508181036000830152612ed781612e9b565b9050919050565b7f4552433732313a207472616e7366657220746f20746865207a65726f2061646460008201527f7265737300000000000000000000000000000000000000000000000000000000602082015250565b6000612f3a602483612025565b9150612f4582612ede565b604082019050919050565b60006020820190508181036000830152612f6981612f2d565b9050919050565b6000612f7b826120d5565b9150612f86836120d5565b925082821015612f9957612f98612908565b5b828203905092915050565b6000612faf826120d5565b9150612fba836120d5565b9250827fffffffffffffffffffffffffffffffffffffffffffffffffffffffffffffffff03821115612fef57612fee612908565b5b828201905092915050565b7f4552433732313a207472616e7366657220746f206e6f6e20455243373231526560008201527f63656976657220696d706c656d656e7465720000000000000000000000000000602082015250565b6000613056603283612025565b915061306182612ffa565b604082019050919050565b6000602082019050818103600083015261308581613049565b9050919050565b7f4552433732314d657461646174613a2055524920717565727920666f72206e6f60008201527f6e6578697374656e7420746f6b656e0000000000000000000000000000000000602082015250565b60006130e8602f83612025565b91506130f38261308c565b604082019050919050565b60006020820190508181036000830152613117816130db565b9050919050565b600081905092915050565b60006131348261201a565b61313e818561311e565b935061314e818560208601612036565b80840191505092915050565b60006131668285613129565b91506131728284613129565b91508190509392505050565b600081519050919050565b600082825260208201905092915050565b60006131a58261317e565b6131af8185613189565b93506131bf818560208601612036565b6131c881612069565b840191505092915050565b60006080820190506131e8600083018761216a565b6131f5602083018661216a565b6132026040830185612465565b8181036060830152613214818461319a565b905095945050505050565b60008151905061322e81611f8b565b92915050565b60006020828403121561324a57613249611f55565b5b60006132588482850161321f565b91505092915050565b7f4e487b7100000000000000000000000000000000000000000000000000000000600052601260045260246000fd5b600061329b826120d5565b91506132a6836120d5565b9250826132b6576132b5613261565b5b828204905092915050565b60006132cc826120d5565b91506132d7836120d5565b9250826132e7576132e6613261565b5b828206905092915050565b7f4e487b7100000000000000000000000000000000000000000000000000000000600052603260045260246000fd5b7f4552433732313a206d696e7420746f20746865207a65726f2061646472657373600082015250565b6000613357602083612025565b915061336282613321565b602082019050919050565b600060208201905081810360008301526133868161334a565b9050919050565b7f4552433732313a20746f6b656e20616c7265616479206d696e74656400000000600082015250565b60006133c3601c83612025565b91506133ce8261338d565b602082019050919050565b600060208201905081810360008301526133f2816133b6565b905091905056fea2646970667358221220a246f6939bee0695a24be561a6e9b6548d0434bb1c3590d947d61b2beb23fdd864736f6c63430008090033",
  "immutableReferences": {},
  "source": "// SPDX-License-Identifier: MIT\npragma solidity ^0.8.9;\n\nimport \"@openzeppelin/contracts/token/ERC721/ERC721.sol\";\nimport \"@openzeppelin/contracts/access/Ownable.sol\";\n\ncontract YetiPunks is ERC721, Ownable {\n    \n    string public baseURI;\n    event yetiMintedAmount(uint16 amount);\n    uint16 MAX_YETIS = 10000;\n    uint16 totalSupply = 0;\n\n    constructor() ERC721(\"YetiPunks\", \"YETI\") {\n     \n    }\n\n    function withdraw() public onlyOwner {\n        uint256 balance = address(this).balance;\n        payable(msg.sender).transfer(balance);\n\n    }\n\n    function setBaseURI(string memory base) public onlyOwner {\n        baseURI = base;\n    }\n\n    function _baseURI() internal view virtual override returns (string memory) {\n        return baseURI;\n    }\n\n    // Despite the function being payable, I've removed any functionality for that here for the simplicity of the example.\n    function mint(uint16 numberOfTokens) public payable {\n        require(totalSupply + 1 < MAX_YETIS, \"All yeti punks have already been minted!\");\n        require(totalSupply + numberOfTokens <= MAX_YETIS, \"You are trying to mint more Yetis thatn are left, decrease the number of yetis and try again.\");\n        \n        for (uint i = 0; i < numberOfTokens; i++) {\n            _safeMint(msg.sender, totalSupply + 1);\n            totalSupply += 1;\n        }\n\n        emit yetiMintedAmount(numberOfTokens);\n    }\n\n    function tokenURI(uint256 tokenId) public view virtual override(ERC721) returns (string memory) {\n        return super.tokenURI(tokenId);\n    }\n\n    function _beforeTokenTransfer(address from, address to, uint256 tokenId) internal override(ERC721) {\n        super._beforeTokenTransfer(from, to, tokenId);\n    }\n\n    function _burn(uint256 tokenId) internal override(ERC721) {\n        super._burn(tokenId);\n    }\n\n    function supportsInterface(bytes4 interfaceId) public view override(ERC721) returns (bool) {\n        return super.supportsInterface(interfaceId);\n    }\n}",
  "sourcePath": "/Users/christopherfoley/nft/YetiPunks/src/contracts/YetiPunks.sol",
  "compiler": {
    "name": "solc",
    "version": "0.8.9+commit.e5eed63a.Emscripten.clang"
  },
  "schemaVersion": "3.4.4",
  "updatedAt": "2022-01-06T00:49:55.585Z",
  "networkType": "ethereum",
  "devdoc": {
    "kind": "dev",
    "methods": {
      "approve(address,uint256)": {
        "details": "See {IERC721-approve}."
      },
      "balanceOf(address)": {
        "details": "See {IERC721-balanceOf}."
      },
      "getApproved(uint256)": {
        "details": "See {IERC721-getApproved}."
      },
      "isApprovedForAll(address,address)": {
        "details": "See {IERC721-isApprovedForAll}."
      },
      "name()": {
        "details": "See {IERC721Metadata-name}."
      },
      "owner()": {
        "details": "Returns the address of the current owner."
      },
      "ownerOf(uint256)": {
        "details": "See {IERC721-ownerOf}."
      },
      "renounceOwnership()": {
        "details": "Leaves the contract without owner. It will not be possible to call `onlyOwner` functions anymore. Can only be called by the current owner. NOTE: Renouncing ownership will leave the contract without an owner, thereby removing any functionality that is only available to the owner."
      },
      "safeTransferFrom(address,address,uint256)": {
        "details": "See {IERC721-safeTransferFrom}."
      },
      "safeTransferFrom(address,address,uint256,bytes)": {
        "details": "See {IERC721-safeTransferFrom}."
      },
      "setApprovalForAll(address,bool)": {
        "details": "See {IERC721-setApprovalForAll}."
      },
      "supportsInterface(bytes4)": {
        "details": "See {IERC165-supportsInterface}."
      },
      "symbol()": {
        "details": "See {IERC721Metadata-symbol}."
      },
      "tokenURI(uint256)": {
        "details": "See {IERC721Metadata-tokenURI}."
      },
      "transferFrom(address,address,uint256)": {
        "details": "See {IERC721-transferFrom}."
      },
      "transferOwnership(address)": {
        "details": "Transfers ownership of the contract to a new account (`newOwner`). Can only be called by the current owner."
      }
    },
    "version": 1
  },
  "userdoc": {
    "kind": "user",
    "methods": {},
    "version": 1
  }
}