{
  "contractName": "YetiPunks",
  "abi": [
    {
      "inputs": [],
      "stateMutability": "nonpayable",
      "type": "constructor"
    },
    {
      "anonymous": false,
      "inputs": [
        {
          "indexed": true,
          "internalType": "address",
          "name": "owner",
          "type": "address"
        },
        {
          "indexed": true,
          "internalType": "address",
          "name": "approved",
          "type": "address"
        },
        {
          "indexed": true,
          "internalType": "uint256",
          "name": "tokenId",
          "type": "uint256"
        }
      ],
      "name": "Approval",
      "type": "event"
    },
    {
      "anonymous": false,
      "inputs": [
        {
          "indexed": true,
          "internalType": "address",
          "name": "owner",
          "type": "address"
        },
        {
          "indexed": true,
          "internalType": "address",
          "name": "operator",
          "type": "address"
        },
        {
          "indexed": false,
          "internalType": "bool",
          "name": "approved",
          "type": "bool"
        }
      ],
      "name": "ApprovalForAll",
      "type": "event"
    },
    {
      "anonymous": false,
      "inputs": [
        {
          "indexed": true,
          "internalType": "address",
          "name": "previousOwner",
          "type": "address"
        },
        {
          "indexed": true,
          "internalType": "address",
          "name": "newOwner",
          "type": "address"
        }
      ],
      "name": "OwnershipTransferred",
      "type": "event"
    },
    {
      "anonymous": false,
      "inputs": [
        {
          "indexed": false,
          "internalType": "uint256",
          "name": "tokenId",
          "type": "uint256"
        },
        {
          "components": [
            {
              "internalType": "address payable",
              "name": "account",
              "type": "address"
            },
            {
              "internalType": "uint96",
              "name": "value",
              "type": "uint96"
            }
          ],
          "indexed": false,
          "internalType": "struct LibPart.Part[]",
          "name": "royalties",
          "type": "tuple[]"
        }
      ],
      "name": "RoyaltiesSet",
      "type": "event"
    },
    {
      "anonymous": false,
      "inputs": [
        {
          "indexed": true,
          "internalType": "address",
          "name": "from",
          "type": "address"
        },
        {
          "indexed": true,
          "internalType": "address",
          "name": "to",
          "type": "address"
        },
        {
          "indexed": true,
          "internalType": "uint256",
          "name": "tokenId",
          "type": "uint256"
        }
      ],
      "name": "Transfer",
      "type": "event"
    },
    {
      "inputs": [
        {
          "internalType": "address",
          "name": "to",
          "type": "address"
        },
        {
          "internalType": "uint256",
          "name": "tokenId",
          "type": "uint256"
        }
      ],
      "name": "approve",
      "outputs": [],
      "stateMutability": "nonpayable",
      "type": "function"
    },
    {
      "inputs": [
        {
          "internalType": "address",
          "name": "owner",
          "type": "address"
        }
      ],
      "name": "balanceOf",
      "outputs": [
        {
          "internalType": "uint256",
          "name": "",
          "type": "uint256"
        }
      ],
      "stateMutability": "view",
      "type": "function",
      "constant": true
    },
    {
      "inputs": [
        {
          "internalType": "uint256",
          "name": "tokenId",
          "type": "uint256"
        }
      ],
      "name": "getApproved",
      "outputs": [
        {
          "internalType": "address",
          "name": "",
          "type": "address"
        }
      ],
      "stateMutability": "view",
      "type": "function",
      "constant": true
    },
    {
      "inputs": [
        {
          "internalType": "uint256",
          "name": "id",
          "type": "uint256"
        }
      ],
      "name": "getRaribleV2Royalties",
      "outputs": [
        {
          "components": [
            {
              "internalType": "address payable",
              "name": "account",
              "type": "address"
            },
            {
              "internalType": "uint96",
              "name": "value",
              "type": "uint96"
            }
          ],
          "internalType": "struct LibPart.Part[]",
          "name": "",
          "type": "tuple[]"
        }
      ],
      "stateMutability": "view",
      "type": "function",
      "constant": true
    },
    {
      "inputs": [
        {
          "internalType": "address",
          "name": "owner",
          "type": "address"
        },
        {
          "internalType": "address",
          "name": "operator",
          "type": "address"
        }
      ],
      "name": "isApprovedForAll",
      "outputs": [
        {
          "internalType": "bool",
          "name": "",
          "type": "bool"
        }
      ],
      "stateMutability": "view",
      "type": "function",
      "constant": true
    },
    {
      "inputs": [],
      "name": "name",
      "outputs": [
        {
          "internalType": "string",
          "name": "",
          "type": "string"
        }
      ],
      "stateMutability": "view",
      "type": "function",
      "constant": true
    },
    {
      "inputs": [],
      "name": "owner",
      "outputs": [
        {
          "internalType": "address",
          "name": "",
          "type": "address"
        }
      ],
      "stateMutability": "view",
      "type": "function",
      "constant": true
    },
    {
      "inputs": [
        {
          "internalType": "uint256",
          "name": "tokenId",
          "type": "uint256"
        }
      ],
      "name": "ownerOf",
      "outputs": [
        {
          "internalType": "address",
          "name": "",
          "type": "address"
        }
      ],
      "stateMutability": "view",
      "type": "function",
      "constant": true
    },
    {
      "inputs": [],
      "name": "renounceOwnership",
      "outputs": [],
      "stateMutability": "nonpayable",
      "type": "function"
    },
    {
      "inputs": [
        {
          "internalType": "address",
          "name": "from",
          "type": "address"
        },
        {
          "internalType": "address",
          "name": "to",
          "type": "address"
        },
        {
          "internalType": "uint256",
          "name": "tokenId",
          "type": "uint256"
        }
      ],
      "name": "safeTransferFrom",
      "outputs": [],
      "stateMutability": "nonpayable",
      "type": "function"
    },
    {
      "inputs": [
        {
          "internalType": "address",
          "name": "from",
          "type": "address"
        },
        {
          "internalType": "address",
          "name": "to",
          "type": "address"
        },
        {
          "internalType": "uint256",
          "name": "tokenId",
          "type": "uint256"
        },
        {
          "internalType": "bytes",
          "name": "_data",
          "type": "bytes"
        }
      ],
      "name": "safeTransferFrom",
      "outputs": [],
      "stateMutability": "nonpayable",
      "type": "function"
    },
    {
      "inputs": [
        {
          "internalType": "address",
          "name": "operator",
          "type": "address"
        },
        {
          "internalType": "bool",
          "name": "approved",
          "type": "bool"
        }
      ],
      "name": "setApprovalForAll",
      "outputs": [],
      "stateMutability": "nonpayable",
      "type": "function"
    },
    {
      "inputs": [],
      "name": "symbol",
      "outputs": [
        {
          "internalType": "string",
          "name": "",
          "type": "string"
        }
      ],
      "stateMutability": "view",
      "type": "function",
      "constant": true
    },
    {
      "inputs": [],
      "name": "totalSupply",
      "outputs": [
        {
          "internalType": "uint16",
          "name": "",
          "type": "uint16"
        }
      ],
      "stateMutability": "view",
      "type": "function",
      "constant": true
    },
    {
      "inputs": [
        {
          "internalType": "address",
          "name": "from",
          "type": "address"
        },
        {
          "internalType": "address",
          "name": "to",
          "type": "address"
        },
        {
          "internalType": "uint256",
          "name": "tokenId",
          "type": "uint256"
        }
      ],
      "name": "transferFrom",
      "outputs": [],
      "stateMutability": "nonpayable",
      "type": "function"
    },
    {
      "inputs": [
        {
          "internalType": "address",
          "name": "newOwner",
          "type": "address"
        }
      ],
      "name": "transferOwnership",
      "outputs": [],
      "stateMutability": "nonpayable",
      "type": "function"
    },
    {
      "inputs": [
        {
          "internalType": "uint256",
          "name": "tokenId",
          "type": "uint256"
        },
        {
          "internalType": "address payable",
          "name": "royaltyTo",
          "type": "address"
        },
        {
          "internalType": "uint96",
          "name": "percentageBasisPoints",
          "type": "uint96"
        }
      ],
      "name": "setRoyalties",
      "outputs": [],
      "stateMutability": "nonpayable",
      "type": "function"
    },
    {
      "inputs": [
        {
          "internalType": "uint256",
          "name": "_tokenId",
          "type": "uint256"
        },
        {
          "internalType": "uint256",
          "name": "_salePrice",
          "type": "uint256"
        }
      ],
      "name": "royaltyInfo",
      "outputs": [
        {
          "internalType": "address",
          "name": "receiver",
          "type": "address"
        },
        {
          "internalType": "uint256",
          "name": "royaltyAmount",
          "type": "uint256"
        }
      ],
      "stateMutability": "view",
      "type": "function",
      "constant": true
    },
    {
      "inputs": [
        {
          "internalType": "bytes4",
          "name": "interfaceId",
          "type": "bytes4"
        }
      ],
      "name": "supportsInterface",
      "outputs": [
        {
          "internalType": "bool",
          "name": "",
          "type": "bool"
        }
      ],
      "stateMutability": "view",
      "type": "function",
      "constant": true
    },
    {
      "inputs": [
        {
          "internalType": "string",
          "name": "base",
          "type": "string"
        }
      ],
      "name": "setBaseURI",
      "outputs": [],
      "stateMutability": "nonpayable",
      "type": "function"
    },
    {
      "inputs": [
        {
          "internalType": "uint16",
          "name": "numberOfTokens",
          "type": "uint16"
        }
      ],
      "name": "mint",
      "outputs": [],
      "stateMutability": "payable",
      "type": "function",
      "payable": true
    },
    {
      "inputs": [
        {
          "internalType": "uint256",
          "name": "tokenId",
          "type": "uint256"
        }
      ],
      "name": "tokenURI",
      "outputs": [
        {
          "internalType": "string",
          "name": "",
          "type": "string"
        }
      ],
      "stateMutability": "view",
      "type": "function",
      "constant": true
    },
    {
      "inputs": [],
      "name": "withdrawBalance",
      "outputs": [],
      "stateMutability": "nonpayable",
      "type": "function"
    }
  ],
  "bytecode": "0x60806040526000600960006101000a81548161ffff021916908361ffff160217905550612710600960026101000a81548161ffff021916908361ffff1602179055503480156200004e57600080fd5b506040518060400160405280600b81526020017f5065747479204d6f6e6b730000000000000000000000000000000000000000008152506040518060400160405280600281526020017f504d0000000000000000000000000000000000000000000000000000000000008152508160009080519060200190620000d3929190620001e3565b508060019080519060200190620000ec929190620001e3565b5050506200010f620001036200011560201b60201c565b6200011d60201b60201c565b620002f8565b600033905090565b6000600660009054906101000a900473ffffffffffffffffffffffffffffffffffffffff16905081600660006101000a81548173ffffffffffffffffffffffffffffffffffffffff021916908373ffffffffffffffffffffffffffffffffffffffff1602179055508173ffffffffffffffffffffffffffffffffffffffff168173ffffffffffffffffffffffffffffffffffffffff167f8be0079c531659141344cd1fd0a4f28419497f9722a3daafe3b4186f6b6457e060405160405180910390a35050565b828054620001f190620002c2565b90600052602060002090601f01602090048101928262000215576000855562000261565b82601f106200023057805160ff191683800117855562000261565b8280016001018555821562000261579182015b828111156200026057825182559160200191906001019062000243565b5b50905062000270919062000274565b5090565b5b808211156200028f57600081600090555060010162000275565b5090565b7f4e487b7100000000000000000000000000000000000000000000000000000000600052602260045260246000fd5b60006002820490506001821680620002db57607f821691505b60208210811415620002f257620002f162000293565b5b50919050565b6141fb80620003086000396000f3fe6080604052600436106101405760003560e01c80635fd8c710116100b6578063a22cb4651161006f578063a22cb4651461043a578063b88d4fde14610463578063c87b56dd1461048c578063cad96cca146104c9578063e985e9c514610506578063f2fde38b1461054357610140565b80635fd8c7101461033c5780636352211e1461035357806370a0823114610390578063715018a6146103cd5780638da5cb5b146103e457806395d89b411461040f57610140565b806318160ddd1161010857806318160ddd1461023c57806323b872dd1461026757806323cf0a22146102905780632a55205a146102ac57806342842e0e146102ea57806355f804b31461031357610140565b806301ffc9a71461014557806306fdde0314610182578063081812fc146101ad578063095ea7b3146101ea578063143094db14610213575b600080fd5b34801561015157600080fd5b5061016c600480360381019061016791906128ed565b61056c565b6040516101799190612935565b60405180910390f35b34801561018e57600080fd5b50610197610627565b6040516101a491906129e9565b60405180910390f35b3480156101b957600080fd5b506101d460048036038101906101cf9190612a41565b6106b9565b6040516101e19190612aaf565b60405180910390f35b3480156101f657600080fd5b50610211600480360381019061020c9190612af6565b61073e565b005b34801561021f57600080fd5b5061023a60048036038101906102359190612bb8565b610856565b005b34801561024857600080fd5b506102516109d1565b60405161025e9190612c28565b60405180910390f35b34801561027357600080fd5b5061028e60048036038101906102899190612c43565b6109e5565b005b6102aa60048036038101906102a59190612cc2565b610a45565b005b3480156102b857600080fd5b506102d360048036038101906102ce9190612cef565b610bbb565b6040516102e1929190612d3e565b60405180910390f35b3480156102f657600080fd5b50610311600480360381019061030c9190612c43565b610d45565b005b34801561031f57600080fd5b5061033a60048036038101906103359190612e9c565b610d65565b005b34801561034857600080fd5b50610351610dfb565b005b34801561035f57600080fd5b5061037a60048036038101906103759190612a41565b611038565b6040516103879190612aaf565b60405180910390f35b34801561039c57600080fd5b506103b760048036038101906103b29190612ee5565b6110ea565b6040516103c49190612f12565b60405180910390f35b3480156103d957600080fd5b506103e26111a2565b005b3480156103f057600080fd5b506103f961122a565b6040516104069190612aaf565b60405180910390f35b34801561041b57600080fd5b50610424611254565b60405161043191906129e9565b60405180910390f35b34801561044657600080fd5b50610461600480360381019061045c9190612f59565b6112e6565b005b34801561046f57600080fd5b5061048a6004803603810190610485919061303a565b6112fc565b005b34801561049857600080fd5b506104b360048036038101906104ae9190612a41565b61135e565b6040516104c091906129e9565b60405180910390f35b3480156104d557600080fd5b506104f060048036038101906104eb9190612a41565b611370565b6040516104fd91906131b9565b60405180910390f35b34801561051257600080fd5b5061052d600480360381019061052891906131db565b611472565b60405161053a9190612935565b60405180910390f35b34801561054f57600080fd5b5061056a60048036038101906105659190612ee5565b611506565b005b600063cad96cca60e01b7bffffffffffffffffffffffffffffffffffffffffffffffffffffffff1916827bffffffffffffffffffffffffffffffffffffffffffffffffffffffff191614156105c45760019050610622565b632a55205a60e01b7bffffffffffffffffffffffffffffffffffffffffffffffffffffffff1916827bffffffffffffffffffffffffffffffffffffffffffffffffffffffff191614156106215761061a826115fe565b9050610622565b5b919050565b6060600080546106369061324a565b80601f01602080910402602001604051908101604052809291908181526020018280546106629061324a565b80156106af5780601f10610684576101008083540402835291602001916106af565b820191906000526020600020905b81548152906001019060200180831161069257829003601f168201915b5050505050905090565b60006106c4826116e0565b610703576040517f08c379a00000000000000000000000000000000000000000000000000000000081526004016106fa906132ee565b60405180910390fd5b6004600083815260200190815260200160002060009054906101000a900473ffffffffffffffffffffffffffffffffffffffff169050919050565b600061074982611038565b90508073ffffffffffffffffffffffffffffffffffffffff168373ffffffffffffffffffffffffffffffffffffffff1614156107ba576040517f08c379a00000000000000000000000000000000000000000000000000000000081526004016107b190613380565b60405180910390fd5b8073ffffffffffffffffffffffffffffffffffffffff166107d961174c565b73ffffffffffffffffffffffffffffffffffffffff16148061080857506108078161080261174c565b611472565b5b610847576040517f08c379a000000000000000000000000000000000000000000000000000000000815260040161083e90613412565b60405180910390fd5b6108518383611754565b505050565b61085e61174c565b73ffffffffffffffffffffffffffffffffffffffff1661087c61122a565b73ffffffffffffffffffffffffffffffffffffffff16146108d2576040517f08c379a00000000000000000000000000000000000000000000000000000000081526004016108c99061347e565b60405180910390fd5b6000600167ffffffffffffffff8111156108ef576108ee612d71565b5b60405190808252806020026020018201604052801561092857816020015b6109156127a0565b81526020019060019003908161090d5790505b50905081816000815181106109405761093f61349e565b5b6020026020010151602001906bffffffffffffffffffffffff1690816bffffffffffffffffffffffff168152505082816000815181106109835761098261349e565b5b60200260200101516000019073ffffffffffffffffffffffffffffffffffffffff16908173ffffffffffffffffffffffffffffffffffffffff16815250506109cb848261180d565b50505050565b600960009054906101000a900461ffff1681565b6109f66109f061174c565b82611a90565b610a35576040517f08c379a0000000000000000000000000000000000000000000000000000000008152600401610a2c9061353f565b60405180910390fd5b610a40838383611b6e565b505050565b600960029054906101000a900461ffff1661ffff166001600960009054906101000a900461ffff16610a77919061358e565b61ffff1610610abb576040517f08c379a0000000000000000000000000000000000000000000000000000000008152600401610ab290613638565b60405180910390fd5b600960029054906101000a900461ffff1661ffff1681600960009054906101000a900461ffff16610aec919061358e565b61ffff161115610b31576040517f08c379a0000000000000000000000000000000000000000000000000000000008152600401610b28906136f0565b60405180910390fd5b60005b8161ffff16811015610bb757610b6a336001600960009054906101000a900461ffff16610b61919061358e565b61ffff16611dca565b6001600960008282829054906101000a900461ffff16610b8a919061358e565b92506101000a81548161ffff021916908361ffff1602179055508080610baf90613710565b915050610b34565b5050565b600080600060076000868152602001908152602001600020805480602002602001604051908101604052809291908181526020016000905b82821015610cb5578382906000526020600020016040518060400160405290816000820160009054906101000a900473ffffffffffffffffffffffffffffffffffffffff1673ffffffffffffffffffffffffffffffffffffffff1673ffffffffffffffffffffffffffffffffffffffff1681526020016000820160149054906101000a90046bffffffffffffffffffffffff166bffffffffffffffffffffffff166bffffffffffffffffffffffff168152505081526020019060010190610bf3565b505050509050600081511115610d355780600081518110610cd957610cd861349e565b5b60200260200101516000015161271082600081518110610cfc57610cfb61349e565b5b6020026020010151602001516bffffffffffffffffffffffff1686610d219190613759565b610d2b91906137e2565b9250925050610d3e565b60008092509250505b9250929050565b610d60838383604051806020016040528060008152506112fc565b505050565b610d6d61174c565b73ffffffffffffffffffffffffffffffffffffffff16610d8b61122a565b73ffffffffffffffffffffffffffffffffffffffff1614610de1576040517f08c379a0000000000000000000000000000000000000000000000000000000008152600401610dd89061347e565b60405180910390fd5b8060089080519060200190610df79291906127de565b5050565b610e0361174c565b73ffffffffffffffffffffffffffffffffffffffff16610e2161122a565b73ffffffffffffffffffffffffffffffffffffffff1614610e77576040517f08c379a0000000000000000000000000000000000000000000000000000000008152600401610e6e9061347e565b60405180910390fd5b60006064602147610e889190613759565b610e9291906137e2565b9050600073d61adc48afe9402b4411805ce6026ef74f94e71373ffffffffffffffffffffffffffffffffffffffff1682604051610ece90613844565b60006040518083038185875af1925050503d8060008114610f0b576040519150601f19603f3d011682016040523d82523d6000602084013e610f10565b606091505b5050905080610f1e57600080fd5b600073e3ce04b3bcbdfa219407870ca617e18fbf503f2873ffffffffffffffffffffffffffffffffffffffff1683604051610f5890613844565b60006040518083038185875af1925050503d8060008114610f95576040519150601f19603f3d011682016040523d82523d6000602084013e610f9a565b606091505b5050905080610fa857600080fd5b60007349cf0af1ce6a50e822a91a427b3e29007f9c6c0973ffffffffffffffffffffffffffffffffffffffff1647604051610fe290613844565b60006040518083038185875af1925050503d806000811461101f576040519150601f19603f3d011682016040523d82523d6000602084013e611024565b606091505b505090508061103257600080fd5b50505050565b6000806002600084815260200190815260200160002060009054906101000a900473ffffffffffffffffffffffffffffffffffffffff169050600073ffffffffffffffffffffffffffffffffffffffff168173ffffffffffffffffffffffffffffffffffffffff1614156110e1576040517f08c379a00000000000000000000000000000000000000000000000000000000081526004016110d8906138cb565b60405180910390fd5b80915050919050565b60008073ffffffffffffffffffffffffffffffffffffffff168273ffffffffffffffffffffffffffffffffffffffff16141561115b576040517f08c379a00000000000000000000000000000000000000000000000000000000081526004016111529061395d565b60405180910390fd5b600360008373ffffffffffffffffffffffffffffffffffffffff1673ffffffffffffffffffffffffffffffffffffffff168152602001908152602001600020549050919050565b6111aa61174c565b73ffffffffffffffffffffffffffffffffffffffff166111c861122a565b73ffffffffffffffffffffffffffffffffffffffff161461121e576040517f08c379a00000000000000000000000000000000000000000000000000000000081526004016112159061347e565b60405180910390fd5b6112286000611de8565b565b6000600660009054906101000a900473ffffffffffffffffffffffffffffffffffffffff16905090565b6060600180546112639061324a565b80601f016020809104026020016040519081016040528092919081815260200182805461128f9061324a565b80156112dc5780601f106112b1576101008083540402835291602001916112dc565b820191906000526020600020905b8154815290600101906020018083116112bf57829003601f168201915b5050505050905090565b6112f86112f161174c565b8383611eae565b5050565b61130d61130761174c565b83611a90565b61134c576040517f08c379a00000000000000000000000000000000000000000000000000000000081526004016113439061353f565b60405180910390fd5b6113588484848461201b565b50505050565b606061136982612077565b9050919050565b606060076000838152602001908152602001600020805480602002602001604051908101604052809291908181526020016000905b82821015611467578382906000526020600020016040518060400160405290816000820160009054906101000a900473ffffffffffffffffffffffffffffffffffffffff1673ffffffffffffffffffffffffffffffffffffffff1673ffffffffffffffffffffffffffffffffffffffff1681526020016000820160149054906101000a90046bffffffffffffffffffffffff166bffffffffffffffffffffffff166bffffffffffffffffffffffff1681525050815260200190600101906113a5565b505050509050919050565b6000600560008473ffffffffffffffffffffffffffffffffffffffff1673ffffffffffffffffffffffffffffffffffffffff16815260200190815260200160002060008373ffffffffffffffffffffffffffffffffffffffff1673ffffffffffffffffffffffffffffffffffffffff16815260200190815260200160002060009054906101000a900460ff16905092915050565b61150e61174c565b73ffffffffffffffffffffffffffffffffffffffff1661152c61122a565b73ffffffffffffffffffffffffffffffffffffffff1614611582576040517f08c379a00000000000000000000000000000000000000000000000000000000081526004016115799061347e565b60405180910390fd5b600073ffffffffffffffffffffffffffffffffffffffff168173ffffffffffffffffffffffffffffffffffffffff1614156115f2576040517f08c379a00000000000000000000000000000000000000000000000000000000081526004016115e9906139ef565b60405180910390fd5b6115fb81611de8565b50565b60007f80ac58cd000000000000000000000000000000000000000000000000000000007bffffffffffffffffffffffffffffffffffffffffffffffffffffffff1916827bffffffffffffffffffffffffffffffffffffffffffffffffffffffff191614806116c957507f5b5e139f000000000000000000000000000000000000000000000000000000007bffffffffffffffffffffffffffffffffffffffffffffffffffffffff1916827bffffffffffffffffffffffffffffffffffffffffffffffffffffffff1916145b806116d957506116d88261211e565b5b9050919050565b60008073ffffffffffffffffffffffffffffffffffffffff166002600084815260200190815260200160002060009054906101000a900473ffffffffffffffffffffffffffffffffffffffff1673ffffffffffffffffffffffffffffffffffffffff1614159050919050565b600033905090565b816004600083815260200190815260200160002060006101000a81548173ffffffffffffffffffffffffffffffffffffffff021916908373ffffffffffffffffffffffffffffffffffffffff160217905550808273ffffffffffffffffffffffffffffffffffffffff166117c783611038565b73ffffffffffffffffffffffffffffffffffffffff167f8c5be1e5ebec7d5bd14f71427d1e84f3dd0314c0f7b2291e5b200ac8c7c3b92560405160405180910390a45050565b600080600090505b8251811015611a3c57600073ffffffffffffffffffffffffffffffffffffffff168382815181106118495761184861349e565b5b60200260200101516000015173ffffffffffffffffffffffffffffffffffffffff1614156118ac576040517f08c379a00000000000000000000000000000000000000000000000000000000081526004016118a390613a5b565b60405180910390fd5b60008382815181106118c1576118c061349e565b5b6020026020010151602001516bffffffffffffffffffffffff16141561191c576040517f08c379a000000000000000000000000000000000000000000000000000000000815260040161191390613ac7565b60405180910390fd5b82818151811061192f5761192e61349e565b5b6020026020010151602001516bffffffffffffffffffffffff16826119549190613ae7565b91506007600085815260200190815260200160002083828151811061197c5761197b61349e565b5b60200260200101519080600181540180825580915050600190039060005260206000200160009091909190915060008201518160000160006101000a81548173ffffffffffffffffffffffffffffffffffffffff021916908373ffffffffffffffffffffffffffffffffffffffff16021790555060208201518160000160146101000a8154816bffffffffffffffffffffffff02191690836bffffffffffffffffffffffff16021790555050508080611a3490613710565b915050611815565b506127108110611a81576040517f08c379a0000000000000000000000000000000000000000000000000000000008152600401611a7890613baf565b60405180910390fd5b611a8b8383612188565b505050565b6000611a9b826116e0565b611ada576040517f08c379a0000000000000000000000000000000000000000000000000000000008152600401611ad190613c41565b60405180910390fd5b6000611ae583611038565b90508073ffffffffffffffffffffffffffffffffffffffff168473ffffffffffffffffffffffffffffffffffffffff161480611b5457508373ffffffffffffffffffffffffffffffffffffffff16611b3c846106b9565b73ffffffffffffffffffffffffffffffffffffffff16145b80611b655750611b648185611472565b5b91505092915050565b8273ffffffffffffffffffffffffffffffffffffffff16611b8e82611038565b73ffffffffffffffffffffffffffffffffffffffff1614611be4576040517f08c379a0000000000000000000000000000000000000000000000000000000008152600401611bdb90613cd3565b60405180910390fd5b600073ffffffffffffffffffffffffffffffffffffffff168273ffffffffffffffffffffffffffffffffffffffff161415611c54576040517f08c379a0000000000000000000000000000000000000000000000000000000008152600401611c4b90613d65565b60405180910390fd5b611c5f8383836121c5565b611c6a600082611754565b6001600360008573ffffffffffffffffffffffffffffffffffffffff1673ffffffffffffffffffffffffffffffffffffffff1681526020019081526020016000206000828254611cba9190613d85565b925050819055506001600360008473ffffffffffffffffffffffffffffffffffffffff1673ffffffffffffffffffffffffffffffffffffffff1681526020019081526020016000206000828254611d119190613ae7565b92505081905550816002600083815260200190815260200160002060006101000a81548173ffffffffffffffffffffffffffffffffffffffff021916908373ffffffffffffffffffffffffffffffffffffffff160217905550808273ffffffffffffffffffffffffffffffffffffffff168473ffffffffffffffffffffffffffffffffffffffff167fddf252ad1be2c89b69c2b068fc378daa952ba7f163c4a11628f55a4df523b3ef60405160405180910390a4505050565b611de48282604051806020016040528060008152506121d5565b5050565b6000600660009054906101000a900473ffffffffffffffffffffffffffffffffffffffff16905081600660006101000a81548173ffffffffffffffffffffffffffffffffffffffff021916908373ffffffffffffffffffffffffffffffffffffffff1602179055508173ffffffffffffffffffffffffffffffffffffffff168173ffffffffffffffffffffffffffffffffffffffff167f8be0079c531659141344cd1fd0a4f28419497f9722a3daafe3b4186f6b6457e060405160405180910390a35050565b8173ffffffffffffffffffffffffffffffffffffffff168373ffffffffffffffffffffffffffffffffffffffff161415611f1d576040517f08c379a0000000000000000000000000000000000000000000000000000000008152600401611f1490613e05565b60405180910390fd5b80600560008573ffffffffffffffffffffffffffffffffffffffff1673ffffffffffffffffffffffffffffffffffffffff16815260200190815260200160002060008473ffffffffffffffffffffffffffffffffffffffff1673ffffffffffffffffffffffffffffffffffffffff16815260200190815260200160002060006101000a81548160ff0219169083151502179055508173ffffffffffffffffffffffffffffffffffffffff168373ffffffffffffffffffffffffffffffffffffffff167f17307eab39ab6107e8899845ad3d59bd9653f200f220920489ca2b5937696c318360405161200e9190612935565b60405180910390a3505050565b612026848484611b6e565b61203284848484612230565b612071576040517f08c379a000000000000000000000000000000000000000000000000000000000815260040161206890613e97565b60405180910390fd5b50505050565b6060612082826116e0565b6120c1576040517f08c379a00000000000000000000000000000000000000000000000000000000081526004016120b890613f29565b60405180910390fd5b60006120cb6123c7565b905060008151116120eb5760405180602001604052806000815250612116565b806120f584612459565b604051602001612106929190613f85565b6040516020818303038152906040525b915050919050565b60007f01ffc9a7000000000000000000000000000000000000000000000000000000007bffffffffffffffffffffffffffffffffffffffffffffffffffffffff1916827bffffffffffffffffffffffffffffffffffffffffffffffffffffffff1916149050919050565b7f3fa96d7b6bcbfe71ef171666d84db3cf52fa2d1c8afdb1cc8e486177f208b7df82826040516121b9929190613fa9565b60405180910390a15050565b6121d08383836125ba565b505050565b6121df83836125bf565b6121ec6000848484612230565b61222b576040517f08c379a000000000000000000000000000000000000000000000000000000000815260040161222290613e97565b60405180910390fd5b505050565b60006122518473ffffffffffffffffffffffffffffffffffffffff1661278d565b156123ba578373ffffffffffffffffffffffffffffffffffffffff1663150b7a0261227a61174c565b8786866040518563ffffffff1660e01b815260040161229c949392919061402e565b602060405180830381600087803b1580156122b657600080fd5b505af19250505080156122e757506040513d601f19601f820116820180604052508101906122e4919061408f565b60015b61236a573d8060008114612317576040519150601f19603f3d011682016040523d82523d6000602084013e61231c565b606091505b50600081511415612362576040517f08c379a000000000000000000000000000000000000000000000000000000000815260040161235990613e97565b60405180910390fd5b805181602001fd5b63150b7a0260e01b7bffffffffffffffffffffffffffffffffffffffffffffffffffffffff1916817bffffffffffffffffffffffffffffffffffffffffffffffffffffffff1916149150506123bf565b600190505b949350505050565b6060600880546123d69061324a565b80601f01602080910402602001604051908101604052809291908181526020018280546124029061324a565b801561244f5780601f106124245761010080835404028352916020019161244f565b820191906000526020600020905b81548152906001019060200180831161243257829003601f168201915b5050505050905090565b606060008214156124a1576040518060400160405280600181526020017f300000000000000000000000000000000000000000000000000000000000000081525090506125b5565b600082905060005b600082146124d35780806124bc90613710565b915050600a826124cc91906137e2565b91506124a9565b60008167ffffffffffffffff8111156124ef576124ee612d71565b5b6040519080825280601f01601f1916602001820160405280156125215781602001600182028036833780820191505090505b5090505b600085146125ae5760018261253a9190613d85565b9150600a8561254991906140bc565b60306125559190613ae7565b60f81b81838151811061256b5761256a61349e565b5b60200101907effffffffffffffffffffffffffffffffffffffffffffffffffffffffffffff1916908160001a905350600a856125a791906137e2565b9450612525565b8093505050505b919050565b505050565b600073ffffffffffffffffffffffffffffffffffffffff168273ffffffffffffffffffffffffffffffffffffffff16141561262f576040517f08c379a000000000000000000000000000000000000000000000000000000000815260040161262690614139565b60405180910390fd5b612638816116e0565b15612678576040517f08c379a000000000000000000000000000000000000000000000000000000000815260040161266f906141a5565b60405180910390fd5b612684600083836121c5565b6001600360008473ffffffffffffffffffffffffffffffffffffffff1673ffffffffffffffffffffffffffffffffffffffff16815260200190815260200160002060008282546126d49190613ae7565b92505081905550816002600083815260200190815260200160002060006101000a81548173ffffffffffffffffffffffffffffffffffffffff021916908373ffffffffffffffffffffffffffffffffffffffff160217905550808273ffffffffffffffffffffffffffffffffffffffff16600073ffffffffffffffffffffffffffffffffffffffff167fddf252ad1be2c89b69c2b068fc378daa952ba7f163c4a11628f55a4df523b3ef60405160405180910390a45050565b600080823b905060008111915050919050565b6040518060400160405280600073ffffffffffffffffffffffffffffffffffffffff16815260200160006bffffffffffffffffffffffff1681525090565b8280546127ea9061324a565b90600052602060002090601f01602090048101928261280c5760008555612853565b82601f1061282557805160ff1916838001178555612853565b82800160010185558215612853579182015b82811115612852578251825591602001919060010190612837565b5b5090506128609190612864565b5090565b5b8082111561287d576000816000905550600101612865565b5090565b6000604051905090565b600080fd5b600080fd5b60007fffffffff0000000000000000000000000000000000000000000000000000000082169050919050565b6128ca81612895565b81146128d557600080fd5b50565b6000813590506128e7816128c1565b92915050565b6000602082840312156129035761290261288b565b5b6000612911848285016128d8565b91505092915050565b60008115159050919050565b61292f8161291a565b82525050565b600060208201905061294a6000830184612926565b92915050565b600081519050919050565b600082825260208201905092915050565b60005b8381101561298a57808201518184015260208101905061296f565b83811115612999576000848401525b50505050565b6000601f19601f8301169050919050565b60006129bb82612950565b6129c5818561295b565b93506129d581856020860161296c565b6129de8161299f565b840191505092915050565b60006020820190508181036000830152612a0381846129b0565b905092915050565b6000819050919050565b612a1e81612a0b565b8114612a2957600080fd5b50565b600081359050612a3b81612a15565b92915050565b600060208284031215612a5757612a5661288b565b5b6000612a6584828501612a2c565b91505092915050565b600073ffffffffffffffffffffffffffffffffffffffff82169050919050565b6000612a9982612a6e565b9050919050565b612aa981612a8e565b82525050565b6000602082019050612ac46000830184612aa0565b92915050565b612ad381612a8e565b8114612ade57600080fd5b50565b600081359050612af081612aca565b92915050565b60008060408385031215612b0d57612b0c61288b565b5b6000612b1b85828601612ae1565b9250506020612b2c85828601612a2c565b9150509250929050565b6000612b4182612a6e565b9050919050565b612b5181612b36565b8114612b5c57600080fd5b50565b600081359050612b6e81612b48565b92915050565b60006bffffffffffffffffffffffff82169050919050565b612b9581612b74565b8114612ba057600080fd5b50565b600081359050612bb281612b8c565b92915050565b600080600060608486031215612bd157612bd061288b565b5b6000612bdf86828701612a2c565b9350506020612bf086828701612b5f565b9250506040612c0186828701612ba3565b9150509250925092565b600061ffff82169050919050565b612c2281612c0b565b82525050565b6000602082019050612c3d6000830184612c19565b92915050565b600080600060608486031215612c5c57612c5b61288b565b5b6000612c6a86828701612ae1565b9350506020612c7b86828701612ae1565b9250506040612c8c86828701612a2c565b9150509250925092565b612c9f81612c0b565b8114612caa57600080fd5b50565b600081359050612cbc81612c96565b92915050565b600060208284031215612cd857612cd761288b565b5b6000612ce684828501612cad565b91505092915050565b60008060408385031215612d0657612d0561288b565b5b6000612d1485828601612a2c565b9250506020612d2585828601612a2c565b9150509250929050565b612d3881612a0b565b82525050565b6000604082019050612d536000830185612aa0565b612d606020830184612d2f565b9392505050565b600080fd5b600080fd5b7f4e487b7100000000000000000000000000000000000000000000000000000000600052604160045260246000fd5b612da98261299f565b810181811067ffffffffffffffff82111715612dc857612dc7612d71565b5b80604052505050565b6000612ddb612881565b9050612de78282612da0565b919050565b600067ffffffffffffffff821115612e0757612e06612d71565b5b612e108261299f565b9050602081019050919050565b82818337600083830152505050565b6000612e3f612e3a84612dec565b612dd1565b905082815260208101848484011115612e5b57612e5a612d6c565b5b612e66848285612e1d565b509392505050565b600082601f830112612e8357612e82612d67565b5b8135612e93848260208601612e2c565b91505092915050565b600060208284031215612eb257612eb161288b565b5b600082013567ffffffffffffffff811115612ed057612ecf612890565b5b612edc84828501612e6e565b91505092915050565b600060208284031215612efb57612efa61288b565b5b6000612f0984828501612ae1565b91505092915050565b6000602082019050612f276000830184612d2f565b92915050565b612f368161291a565b8114612f4157600080fd5b50565b600081359050612f5381612f2d565b92915050565b60008060408385031215612f7057612f6f61288b565b5b6000612f7e85828601612ae1565b9250506020612f8f85828601612f44565b9150509250929050565b600067ffffffffffffffff821115612fb457612fb3612d71565b5b612fbd8261299f565b9050602081019050919050565b6000612fdd612fd884612f99565b612dd1565b905082815260208101848484011115612ff957612ff8612d6c565b5b613004848285612e1d565b509392505050565b600082601f83011261302157613020612d67565b5b8135613031848260208601612fca565b91505092915050565b600080600080608085870312156130545761305361288b565b5b600061306287828801612ae1565b945050602061307387828801612ae1565b935050604061308487828801612a2c565b925050606085013567ffffffffffffffff8111156130a5576130a4612890565b5b6130b18782880161300c565b91505092959194509250565b600081519050919050565b600082825260208201905092915050565b6000819050602082019050919050565b6130f281612b36565b82525050565b61310181612b74565b82525050565b60408201600082015161311d60008501826130e9565b50602082015161313060208501826130f8565b50505050565b60006131428383613107565b60408301905092915050565b6000602082019050919050565b6000613166826130bd565b61317081856130c8565b935061317b836130d9565b8060005b838110156131ac5781516131938882613136565b975061319e8361314e565b92505060018101905061317f565b5085935050505092915050565b600060208201905081810360008301526131d3818461315b565b905092915050565b600080604083850312156131f2576131f161288b565b5b600061320085828601612ae1565b925050602061321185828601612ae1565b9150509250929050565b7f4e487b7100000000000000000000000000000000000000000000000000000000600052602260045260246000fd5b6000600282049050600182168061326257607f821691505b602082108114156132765761327561321b565b5b50919050565b7f4552433732313a20617070726f76656420717565727920666f72206e6f6e657860008201527f697374656e7420746f6b656e0000000000000000000000000000000000000000602082015250565b60006132d8602c8361295b565b91506132e38261327c565b604082019050919050565b60006020820190508181036000830152613307816132cb565b9050919050565b7f4552433732313a20617070726f76616c20746f2063757272656e74206f776e6560008201527f7200000000000000000000000000000000000000000000000000000000000000602082015250565b600061336a60218361295b565b91506133758261330e565b604082019050919050565b600060208201905081810360008301526133998161335d565b9050919050565b7f4552433732313a20617070726f76652063616c6c6572206973206e6f74206f7760008201527f6e6572206e6f7220617070726f76656420666f7220616c6c0000000000000000602082015250565b60006133fc60388361295b565b9150613407826133a0565b604082019050919050565b6000602082019050818103600083015261342b816133ef565b9050919050565b7f4f776e61626c653a2063616c6c6572206973206e6f7420746865206f776e6572600082015250565b600061346860208361295b565b915061347382613432565b602082019050919050565b600060208201905081810360008301526134978161345b565b9050919050565b7f4e487b7100000000000000000000000000000000000000000000000000000000600052603260045260246000fd5b7f4552433732313a207472616e736665722063616c6c6572206973206e6f74206f60008201527f776e6572206e6f7220617070726f766564000000000000000000000000000000602082015250565b600061352960318361295b565b9150613534826134cd565b604082019050919050565b600060208201905081810360008301526135588161351c565b9050919050565b7f4e487b7100000000000000000000000000000000000000000000000000000000600052601160045260246000fd5b600061359982612c0b565b91506135a483612c0b565b92508261ffff038211156135bb576135ba61355f565b5b828201905092915050565b7f416c6c20796574692070756e6b73206861766520616c7265616479206265656e60008201527f206d696e74656421000000000000000000000000000000000000000000000000602082015250565b600061362260288361295b565b915061362d826135c6565b604082019050919050565b6000602082019050818103600083015261365181613615565b9050919050565b7f596f752061726520747279696e6720746f206d696e74206d6f7265205965746960008201527f73207468616e20617265206c6566742c20646563726561736520746865206e7560208201527f6d626572206f6620796574697320616e642074727920616761696e2e00000000604082015250565b60006136da605c8361295b565b91506136e582613658565b606082019050919050565b60006020820190508181036000830152613709816136cd565b9050919050565b600061371b82612a0b565b91507fffffffffffffffffffffffffffffffffffffffffffffffffffffffffffffffff82141561374e5761374d61355f565b5b600182019050919050565b600061376482612a0b565b915061376f83612a0b565b9250817fffffffffffffffffffffffffffffffffffffffffffffffffffffffffffffffff04831182151516156137a8576137a761355f565b5b828202905092915050565b7f4e487b7100000000000000000000000000000000000000000000000000000000600052601260045260246000fd5b60006137ed82612a0b565b91506137f883612a0b565b925082613808576138076137b3565b5b828204905092915050565b600081905092915050565b50565b600061382e600083613813565b91506138398261381e565b600082019050919050565b600061384f82613821565b9150819050919050565b7f4552433732313a206f776e657220717565727920666f72206e6f6e657869737460008201527f656e7420746f6b656e0000000000000000000000000000000000000000000000602082015250565b60006138b560298361295b565b91506138c082613859565b604082019050919050565b600060208201905081810360008301526138e4816138a8565b9050919050565b7f4552433732313a2062616c616e636520717565727920666f7220746865207a6560008201527f726f206164647265737300000000000000000000000000000000000000000000602082015250565b6000613947602a8361295b565b9150613952826138eb565b604082019050919050565b600060208201905081810360008301526139768161393a565b9050919050565b7f4f776e61626c653a206e6577206f776e657220697320746865207a65726f206160008201527f6464726573730000000000000000000000000000000000000000000000000000602082015250565b60006139d960268361295b565b91506139e48261397d565b604082019050919050565b60006020820190508181036000830152613a08816139cc565b9050919050565b7f526563697069656e742073686f756c642062652070726573656e740000000000600082015250565b6000613a45601b8361295b565b9150613a5082613a0f565b602082019050919050565b60006020820190508181036000830152613a7481613a38565b9050919050565b7f526f79616c74792076616c75652073686f756c6420626520706f736974697665600082015250565b6000613ab160208361295b565b9150613abc82613a7b565b602082019050919050565b60006020820190508181036000830152613ae081613aa4565b9050919050565b6000613af282612a0b565b9150613afd83612a0b565b9250827fffffffffffffffffffffffffffffffffffffffffffffffffffffffffffffffff03821115613b3257613b3161355f565b5b828201905092915050565b7f526f79616c747920746f74616c2076616c75652073686f756c64206265203c2060008201527f3130303030000000000000000000000000000000000000000000000000000000602082015250565b6000613b9960258361295b565b9150613ba482613b3d565b604082019050919050565b60006020820190508181036000830152613bc881613b8c565b9050919050565b7f4552433732313a206f70657261746f7220717565727920666f72206e6f6e657860008201527f697374656e7420746f6b656e0000000000000000000000000000000000000000602082015250565b6000613c2b602c8361295b565b9150613c3682613bcf565b604082019050919050565b60006020820190508181036000830152613c5a81613c1e565b9050919050565b7f4552433732313a207472616e73666572206f6620746f6b656e2074686174206960008201527f73206e6f74206f776e0000000000000000000000000000000000000000000000602082015250565b6000613cbd60298361295b565b9150613cc882613c61565b604082019050919050565b60006020820190508181036000830152613cec81613cb0565b9050919050565b7f4552433732313a207472616e7366657220746f20746865207a65726f2061646460008201527f7265737300000000000000000000000000000000000000000000000000000000602082015250565b6000613d4f60248361295b565b9150613d5a82613cf3565b604082019050919050565b60006020820190508181036000830152613d7e81613d42565b9050919050565b6000613d9082612a0b565b9150613d9b83612a0b565b925082821015613dae57613dad61355f565b5b828203905092915050565b7f4552433732313a20617070726f766520746f2063616c6c657200000000000000600082015250565b6000613def60198361295b565b9150613dfa82613db9565b602082019050919050565b60006020820190508181036000830152613e1e81613de2565b9050919050565b7f4552433732313a207472616e7366657220746f206e6f6e20455243373231526560008201527f63656976657220696d706c656d656e7465720000000000000000000000000000602082015250565b6000613e8160328361295b565b9150613e8c82613e25565b604082019050919050565b60006020820190508181036000830152613eb081613e74565b9050919050565b7f4552433732314d657461646174613a2055524920717565727920666f72206e6f60008201527f6e6578697374656e7420746f6b656e0000000000000000000000000000000000602082015250565b6000613f13602f8361295b565b9150613f1e82613eb7565b604082019050919050565b60006020820190508181036000830152613f4281613f06565b9050919050565b600081905092915050565b6000613f5f82612950565b613f698185613f49565b9350613f7981856020860161296c565b80840191505092915050565b6000613f918285613f54565b9150613f9d8284613f54565b91508190509392505050565b6000604082019050613fbe6000830185612d2f565b8181036020830152613fd0818461315b565b90509392505050565b600081519050919050565b600082825260208201905092915050565b600061400082613fd9565b61400a8185613fe4565b935061401a81856020860161296c565b6140238161299f565b840191505092915050565b60006080820190506140436000830187612aa0565b6140506020830186612aa0565b61405d6040830185612d2f565b818103606083015261406f8184613ff5565b905095945050505050565b600081519050614089816128c1565b92915050565b6000602082840312156140a5576140a461288b565b5b60006140b38482850161407a565b91505092915050565b60006140c782612a0b565b91506140d283612a0b565b9250826140e2576140e16137b3565b5b828206905092915050565b7f4552433732313a206d696e7420746f20746865207a65726f2061646472657373600082015250565b600061412360208361295b565b915061412e826140ed565b602082019050919050565b6000602082019050818103600083015261415281614116565b9050919050565b7f4552433732313a20746f6b656e20616c7265616479206d696e74656400000000600082015250565b600061418f601c8361295b565b915061419a82614159565b602082019050919050565b600060208201905081810360008301526141be81614182565b905091905056fea2646970667358221220deb14c1483f4428b1836d6a053f58a35dfa2ed604cc37e56a90b2674c9ffde1564736f6c63430008090033",
  "immutableReferences": {},
  "source": "// SPDX-License-Identifier: MIT\n\npragma solidity ^0.8.9;\n\nimport \"@openzeppelin/contracts/token/ERC721/ERC721.sol\";\nimport \"@openzeppelin/contracts/access/Ownable.sol\";\nimport \"./@rarible/royalties/contracts/impl/RoyaltiesV2Impl.sol\";\nimport \"./@rarible/royalties/contracts/LibPart.sol\";\nimport \"./@rarible/royalties/contracts/LibRoyaltiesV2.sol\";\n\n\ncontract YetiPunks is ERC721, Ownable, RoyaltiesV2Impl {\n    \n    string private baseURI;\n    uint16 public totalSupply = 0;\n    uint16 MAX_YETIS = 10000;\n    bytes4 private constant _INTERFACE_ID_ERC2981 = 0x2a55205a;\n\n    constructor() ERC721(\"Petty Monks\", \"PM\") {\n\n    }\n\n    //Rarible\n    function setRoyalties(uint tokenId, address payable royaltyTo, uint96 percentageBasisPoints) public onlyOwner{\n        LibPart.Part[] memory _royalties = new LibPart.Part[](1);\n        _royalties[0].value = percentageBasisPoints;\n        _royalties[0].account = royaltyTo;\n        _saveRoyalties(tokenId, _royalties);\n    }\n\n    //Mintable\n    function royaltyInfo(uint256 _tokenId, uint256 _salePrice) external view returns (address receiver, uint256 royaltyAmount){\n        LibPart.Part[] memory _royalties = royalties[_tokenId];\n        if(_royalties.length > 0){\n            return (_royalties[0].account,(_salePrice * _royalties[0].value)/10000);\n        }\n        return (address(0), 0);\n    }\n\n    //rarible && mintable\n    function supportsInterface(bytes4 interfaceId) public view virtual override(ERC721) returns (bool){\n        if(interfaceId == LibRoyaltiesV2._INTERFACE_ID_ROYALTIES){\n            return true;\n        }\n\n        //mintable\n        if(interfaceId == _INTERFACE_ID_ERC2981)\n        return super.supportsInterface(interfaceId);\n    }\n\n    function setBaseURI(string memory base) public onlyOwner {\n        baseURI = base;\n    }\n\n    function _baseURI() internal view virtual override returns (string memory) {\n        return baseURI;\n    }\n\n    // Despite the function being payable, I've removed any functionality for that here for the simplicity of the example.\n    function mint(uint16 numberOfTokens) public payable {\n        require(totalSupply + 1 < MAX_YETIS, \"All yeti punks have already been minted!\");\n        require(totalSupply + numberOfTokens <= MAX_YETIS, \"You are trying to mint more Yetis than are left, decrease the number of yetis and try again.\");\n        \n        for (uint i = 0; i < numberOfTokens; i++) {\n            _safeMint(msg.sender, totalSupply + 1);\n            totalSupply += 1;\n        }\n    }\n\n    function tokenURI(uint256 tokenId) public view virtual override(ERC721) returns (string memory) {\n        return super.tokenURI(tokenId);\n    }\n\n    function _beforeTokenTransfer(address from, address to, uint256 tokenId) internal override(ERC721) {\n        super._beforeTokenTransfer(from, to, tokenId);\n    }\n\n    function _burn(uint256 tokenId) internal override(ERC721) {\n        super._burn(tokenId);\n    }\n\n    // function supportsInterface(bytes4 interfaceId) public view override(ERC721) returns (bool) {\n    //     return super.supportsInterface(interfaceId);\n    // }\n\n    function withdrawBalance() public onlyOwner {\n        uint256 oneThird = address(this).balance * 33 / 100;\n        (bool manduSuccess, ) = payable(0xD61ADc48afE9402B4411805Ce6026eF74F94E713).call{value: oneThird}(\"\");\n        require(manduSuccess);\n        (bool tenzingSuccess, ) = payable(0xE3Ce04B3BcbdFa219407870Ca617e18fBF503F28).call{value: oneThird}(\"\");\n        require(tenzingSuccess);\n        (bool tokiMoriSuccess, ) = payable(0x49Cf0aF1cE6a50e822A91a427B3E29007f9C6C09).call{value: address(this).balance}(\"\");\n        require(tokiMoriSuccess);\n    }\n}",
  "sourcePath": "/Users/christopherfoley/nft/YetiPunks/src/contracts/YetiPunks.sol",
  "compiler": {
    "name": "solc",
    "version": "0.8.9+commit.e5eed63a.Emscripten.clang"
  },
  "schemaVersion": "3.4.4",
  "updatedAt": "2022-01-09T02:10:44.794Z",
  "networkType": "ethereum",
  "devdoc": {
    "kind": "dev",
    "methods": {
      "approve(address,uint256)": {
        "details": "See {IERC721-approve}."
      },
      "balanceOf(address)": {
        "details": "See {IERC721-balanceOf}."
      },
      "getApproved(uint256)": {
        "details": "See {IERC721-getApproved}."
      },
      "isApprovedForAll(address,address)": {
        "details": "See {IERC721-isApprovedForAll}."
      },
      "name()": {
        "details": "See {IERC721Metadata-name}."
      },
      "owner()": {
        "details": "Returns the address of the current owner."
      },
      "ownerOf(uint256)": {
        "details": "See {IERC721-ownerOf}."
      },
      "renounceOwnership()": {
        "details": "Leaves the contract without owner. It will not be possible to call `onlyOwner` functions anymore. Can only be called by the current owner. NOTE: Renouncing ownership will leave the contract without an owner, thereby removing any functionality that is only available to the owner."
      },
      "safeTransferFrom(address,address,uint256)": {
        "details": "See {IERC721-safeTransferFrom}."
      },
      "safeTransferFrom(address,address,uint256,bytes)": {
        "details": "See {IERC721-safeTransferFrom}."
      },
      "setApprovalForAll(address,bool)": {
        "details": "See {IERC721-setApprovalForAll}."
      },
      "supportsInterface(bytes4)": {
        "details": "See {IERC165-supportsInterface}."
      },
      "symbol()": {
        "details": "See {IERC721Metadata-symbol}."
      },
      "tokenURI(uint256)": {
        "details": "See {IERC721Metadata-tokenURI}."
      },
      "transferFrom(address,address,uint256)": {
        "details": "See {IERC721-transferFrom}."
      },
      "transferOwnership(address)": {
        "details": "Transfers ownership of the contract to a new account (`newOwner`). Can only be called by the current owner."
      }
    },
    "version": 1
  },
  "userdoc": {
    "kind": "user",
    "methods": {},
    "version": 1
  }
}