{
  "contractName": "YetiPunks",
  "abi": [
    {
      "inputs": [
        {
          "internalType": "uint256",
          "name": "maxBatchSize_",
          "type": "uint256"
        },
        {
          "internalType": "uint256",
          "name": "collectionSize_",
          "type": "uint256"
        },
        {
          "internalType": "uint256",
          "name": "amountForAuctionAndDev_",
          "type": "uint256"
        },
        {
          "internalType": "uint256",
          "name": "amountForDevs_",
          "type": "uint256"
        }
      ],
      "stateMutability": "nonpayable",
      "type": "constructor"
    },
    {
      "anonymous": false,
      "inputs": [
        {
          "indexed": true,
          "internalType": "address",
          "name": "owner",
          "type": "address"
        },
        {
          "indexed": true,
          "internalType": "address",
          "name": "approved",
          "type": "address"
        },
        {
          "indexed": true,
          "internalType": "uint256",
          "name": "tokenId",
          "type": "uint256"
        }
      ],
      "name": "Approval",
      "type": "event"
    },
    {
      "anonymous": false,
      "inputs": [
        {
          "indexed": true,
          "internalType": "address",
          "name": "owner",
          "type": "address"
        },
        {
          "indexed": true,
          "internalType": "address",
          "name": "operator",
          "type": "address"
        },
        {
          "indexed": false,
          "internalType": "bool",
          "name": "approved",
          "type": "bool"
        }
      ],
      "name": "ApprovalForAll",
      "type": "event"
    },
    {
      "anonymous": false,
      "inputs": [
        {
          "indexed": true,
          "internalType": "address",
          "name": "previousOwner",
          "type": "address"
        },
        {
          "indexed": true,
          "internalType": "address",
          "name": "newOwner",
          "type": "address"
        }
      ],
      "name": "OwnershipTransferred",
      "type": "event"
    },
    {
      "anonymous": false,
      "inputs": [
        {
          "indexed": true,
          "internalType": "address",
          "name": "from",
          "type": "address"
        },
        {
          "indexed": true,
          "internalType": "address",
          "name": "to",
          "type": "address"
        },
        {
          "indexed": true,
          "internalType": "uint256",
          "name": "tokenId",
          "type": "uint256"
        }
      ],
      "name": "Transfer",
      "type": "event"
    },
    {
      "inputs": [
        {
          "internalType": "address",
          "name": "",
          "type": "address"
        }
      ],
      "name": "allowlist",
      "outputs": [
        {
          "internalType": "uint256",
          "name": "",
          "type": "uint256"
        }
      ],
      "stateMutability": "view",
      "type": "function",
      "constant": true
    },
    {
      "inputs": [],
      "name": "amountForAuctionAndDev",
      "outputs": [
        {
          "internalType": "uint256",
          "name": "",
          "type": "uint256"
        }
      ],
      "stateMutability": "view",
      "type": "function",
      "constant": true
    },
    {
      "inputs": [],
      "name": "amountForDevs",
      "outputs": [
        {
          "internalType": "uint256",
          "name": "",
          "type": "uint256"
        }
      ],
      "stateMutability": "view",
      "type": "function",
      "constant": true
    },
    {
      "inputs": [
        {
          "internalType": "address",
          "name": "to",
          "type": "address"
        },
        {
          "internalType": "uint256",
          "name": "tokenId",
          "type": "uint256"
        }
      ],
      "name": "approve",
      "outputs": [],
      "stateMutability": "nonpayable",
      "type": "function"
    },
    {
      "inputs": [
        {
          "internalType": "address",
          "name": "owner",
          "type": "address"
        }
      ],
      "name": "balanceOf",
      "outputs": [
        {
          "internalType": "uint256",
          "name": "",
          "type": "uint256"
        }
      ],
      "stateMutability": "view",
      "type": "function",
      "constant": true
    },
    {
      "inputs": [
        {
          "internalType": "uint256",
          "name": "tokenId",
          "type": "uint256"
        }
      ],
      "name": "getApproved",
      "outputs": [
        {
          "internalType": "address",
          "name": "",
          "type": "address"
        }
      ],
      "stateMutability": "view",
      "type": "function",
      "constant": true
    },
    {
      "inputs": [
        {
          "internalType": "address",
          "name": "owner",
          "type": "address"
        },
        {
          "internalType": "address",
          "name": "operator",
          "type": "address"
        }
      ],
      "name": "isApprovedForAll",
      "outputs": [
        {
          "internalType": "bool",
          "name": "",
          "type": "bool"
        }
      ],
      "stateMutability": "view",
      "type": "function",
      "constant": true
    },
    {
      "inputs": [],
      "name": "maxPerAddressDuringMint",
      "outputs": [
        {
          "internalType": "uint256",
          "name": "",
          "type": "uint256"
        }
      ],
      "stateMutability": "view",
      "type": "function",
      "constant": true
    },
    {
      "inputs": [],
      "name": "name",
      "outputs": [
        {
          "internalType": "string",
          "name": "",
          "type": "string"
        }
      ],
      "stateMutability": "view",
      "type": "function",
      "constant": true
    },
    {
      "inputs": [],
      "name": "nextOwnerToExplicitlySet",
      "outputs": [
        {
          "internalType": "uint256",
          "name": "",
          "type": "uint256"
        }
      ],
      "stateMutability": "view",
      "type": "function",
      "constant": true
    },
    {
      "inputs": [],
      "name": "owner",
      "outputs": [
        {
          "internalType": "address",
          "name": "",
          "type": "address"
        }
      ],
      "stateMutability": "view",
      "type": "function",
      "constant": true
    },
    {
      "inputs": [
        {
          "internalType": "uint256",
          "name": "tokenId",
          "type": "uint256"
        }
      ],
      "name": "ownerOf",
      "outputs": [
        {
          "internalType": "address",
          "name": "",
          "type": "address"
        }
      ],
      "stateMutability": "view",
      "type": "function",
      "constant": true
    },
    {
      "inputs": [],
      "name": "renounceOwnership",
      "outputs": [],
      "stateMutability": "nonpayable",
      "type": "function"
    },
    {
      "inputs": [
        {
          "internalType": "address",
          "name": "from",
          "type": "address"
        },
        {
          "internalType": "address",
          "name": "to",
          "type": "address"
        },
        {
          "internalType": "uint256",
          "name": "tokenId",
          "type": "uint256"
        }
      ],
      "name": "safeTransferFrom",
      "outputs": [],
      "stateMutability": "nonpayable",
      "type": "function"
    },
    {
      "inputs": [
        {
          "internalType": "address",
          "name": "from",
          "type": "address"
        },
        {
          "internalType": "address",
          "name": "to",
          "type": "address"
        },
        {
          "internalType": "uint256",
          "name": "tokenId",
          "type": "uint256"
        },
        {
          "internalType": "bytes",
          "name": "_data",
          "type": "bytes"
        }
      ],
      "name": "safeTransferFrom",
      "outputs": [],
      "stateMutability": "nonpayable",
      "type": "function"
    },
    {
      "inputs": [
        {
          "internalType": "address",
          "name": "operator",
          "type": "address"
        },
        {
          "internalType": "bool",
          "name": "approved",
          "type": "bool"
        }
      ],
      "name": "setApprovalForAll",
      "outputs": [],
      "stateMutability": "nonpayable",
      "type": "function"
    },
    {
      "inputs": [
        {
          "internalType": "bytes4",
          "name": "interfaceId",
          "type": "bytes4"
        }
      ],
      "name": "supportsInterface",
      "outputs": [
        {
          "internalType": "bool",
          "name": "",
          "type": "bool"
        }
      ],
      "stateMutability": "view",
      "type": "function",
      "constant": true
    },
    {
      "inputs": [],
      "name": "symbol",
      "outputs": [
        {
          "internalType": "string",
          "name": "",
          "type": "string"
        }
      ],
      "stateMutability": "view",
      "type": "function",
      "constant": true
    },
    {
      "inputs": [
        {
          "internalType": "uint256",
          "name": "index",
          "type": "uint256"
        }
      ],
      "name": "tokenByIndex",
      "outputs": [
        {
          "internalType": "uint256",
          "name": "",
          "type": "uint256"
        }
      ],
      "stateMutability": "view",
      "type": "function",
      "constant": true
    },
    {
      "inputs": [
        {
          "internalType": "address",
          "name": "owner",
          "type": "address"
        },
        {
          "internalType": "uint256",
          "name": "index",
          "type": "uint256"
        }
      ],
      "name": "tokenOfOwnerByIndex",
      "outputs": [
        {
          "internalType": "uint256",
          "name": "",
          "type": "uint256"
        }
      ],
      "stateMutability": "view",
      "type": "function",
      "constant": true
    },
    {
      "inputs": [
        {
          "internalType": "uint256",
          "name": "tokenId",
          "type": "uint256"
        }
      ],
      "name": "tokenURI",
      "outputs": [
        {
          "internalType": "string",
          "name": "",
          "type": "string"
        }
      ],
      "stateMutability": "view",
      "type": "function",
      "constant": true
    },
    {
      "inputs": [],
      "name": "totalSupply",
      "outputs": [
        {
          "internalType": "uint256",
          "name": "",
          "type": "uint256"
        }
      ],
      "stateMutability": "view",
      "type": "function",
      "constant": true
    },
    {
      "inputs": [
        {
          "internalType": "address",
          "name": "from",
          "type": "address"
        },
        {
          "internalType": "address",
          "name": "to",
          "type": "address"
        },
        {
          "internalType": "uint256",
          "name": "tokenId",
          "type": "uint256"
        }
      ],
      "name": "transferFrom",
      "outputs": [],
      "stateMutability": "nonpayable",
      "type": "function"
    },
    {
      "inputs": [
        {
          "internalType": "address",
          "name": "newOwner",
          "type": "address"
        }
      ],
      "name": "transferOwnership",
      "outputs": [],
      "stateMutability": "nonpayable",
      "type": "function"
    },
    {
      "inputs": [],
      "name": "allowlistMint",
      "outputs": [],
      "stateMutability": "payable",
      "type": "function",
      "payable": true
    },
    {
      "inputs": [
        {
          "internalType": "uint256",
          "name": "quantity",
          "type": "uint256"
        },
        {
          "internalType": "uint256",
          "name": "callerPublicSaleKey",
          "type": "uint256"
        }
      ],
      "name": "publicSaleMint",
      "outputs": [],
      "stateMutability": "payable",
      "type": "function",
      "payable": true
    },
    {
      "inputs": [
        {
          "internalType": "uint256",
          "name": "publicPriceWei",
          "type": "uint256"
        },
        {
          "internalType": "uint256",
          "name": "publicSaleKey",
          "type": "uint256"
        },
        {
          "internalType": "uint256",
          "name": "publicSaleStartTime",
          "type": "uint256"
        }
      ],
      "name": "isPublicSaleOn",
      "outputs": [
        {
          "internalType": "bool",
          "name": "",
          "type": "bool"
        }
      ],
      "stateMutability": "view",
      "type": "function",
      "constant": true
    },
    {
      "inputs": [
        {
          "internalType": "address[]",
          "name": "addresses",
          "type": "address[]"
        },
        {
          "internalType": "uint256[]",
          "name": "numSlots",
          "type": "uint256[]"
        }
      ],
      "name": "seedAllowlist",
      "outputs": [],
      "stateMutability": "nonpayable",
      "type": "function"
    },
    {
      "inputs": [
        {
          "internalType": "uint256",
          "name": "quantity",
          "type": "uint256"
        }
      ],
      "name": "devMint",
      "outputs": [],
      "stateMutability": "nonpayable",
      "type": "function"
    },
    {
      "inputs": [
        {
          "internalType": "string",
          "name": "baseURI",
          "type": "string"
        }
      ],
      "name": "setBaseURI",
      "outputs": [],
      "stateMutability": "nonpayable",
      "type": "function"
    },
    {
      "inputs": [],
      "name": "withdrawMoney",
      "outputs": [],
      "stateMutability": "nonpayable",
      "type": "function"
    },
    {
      "inputs": [
        {
          "internalType": "uint256",
          "name": "quantity",
          "type": "uint256"
        }
      ],
      "name": "setOwnersExplicit",
      "outputs": [],
      "stateMutability": "nonpayable",
      "type": "function"
    },
    {
      "inputs": [
        {
          "internalType": "address",
          "name": "owner",
          "type": "address"
        }
      ],
      "name": "numberMinted",
      "outputs": [
        {
          "internalType": "uint256",
          "name": "",
          "type": "uint256"
        }
      ],
      "stateMutability": "view",
      "type": "function",
      "constant": true
    },
    {
      "inputs": [
        {
          "internalType": "uint256",
          "name": "tokenId",
          "type": "uint256"
        }
      ],
      "name": "getOwnershipData",
      "outputs": [
        {
          "components": [
            {
              "internalType": "address",
              "name": "addr",
              "type": "address"
            },
            {
              "internalType": "uint64",
              "name": "startTimestamp",
              "type": "uint64"
            }
          ],
          "internalType": "struct ERC721A.TokenOwnership",
          "name": "",
          "type": "tuple"
        }
      ],
      "stateMutability": "view",
      "type": "function",
      "constant": true
    }
  ],
  "bytecode": "0x610120604052600060015560006008553480156200001c57600080fd5b5060405162005d6d38038062005d6d8339818101604052810190620000429190620003cf565b6040518060400160405280600b81526020017f5065747479204d6f6e6b730000000000000000000000000000000000000000008152506040518060400160405280600281526020017f504d0000000000000000000000000000000000000000000000000000000000008152508585620000d0620000c46200021360201b60201c565b6200021b60201b60201c565b6000811162000116576040517f08c379a00000000000000000000000000000000000000000000000000000000081526004016200010d90620004c8565b60405180910390fd5b600082116200015c576040517f08c379a0000000000000000000000000000000000000000000000000000000008152600401620001539062000560565b60405180910390fd5b836002908051906020019062000174929190620002df565b5082600390805190602001906200018d929190620002df565b508160a0818152505080608081815250505050505060016009819055508360c081815250508161010081815250508060e081815250508282111562000209576040517f08c379a00000000000000000000000000000000000000000000000000000000081526004016200020090620005d2565b60405180910390fd5b5050505062000659565b600033905090565b60008060009054906101000a900473ffffffffffffffffffffffffffffffffffffffff169050816000806101000a81548173ffffffffffffffffffffffffffffffffffffffff021916908373ffffffffffffffffffffffffffffffffffffffff1602179055508173ffffffffffffffffffffffffffffffffffffffff168173ffffffffffffffffffffffffffffffffffffffff167f8be0079c531659141344cd1fd0a4f28419497f9722a3daafe3b4186f6b6457e060405160405180910390a35050565b828054620002ed9062000623565b90600052602060002090601f0160209004810192826200031157600085556200035d565b82601f106200032c57805160ff19168380011785556200035d565b828001600101855582156200035d579182015b828111156200035c5782518255916020019190600101906200033f565b5b5090506200036c919062000370565b5090565b5b808211156200038b57600081600090555060010162000371565b5090565b600080fd5b6000819050919050565b620003a98162000394565b8114620003b557600080fd5b50565b600081519050620003c9816200039e565b92915050565b60008060008060808587031215620003ec57620003eb6200038f565b5b6000620003fc87828801620003b8565b94505060206200040f87828801620003b8565b93505060406200042287828801620003b8565b92505060606200043587828801620003b8565b91505092959194509250565b600082825260208201905092915050565b7f455243373231413a20636f6c6c656374696f6e206d757374206861766520612060008201527f6e6f6e7a65726f20737570706c79000000000000000000000000000000000000602082015250565b6000620004b0602e8362000441565b9150620004bd8262000452565b604082019050919050565b60006020820190508181036000830152620004e381620004a1565b9050919050565b7f455243373231413a206d61782062617463682073697a65206d7573742062652060008201527f6e6f6e7a65726f00000000000000000000000000000000000000000000000000602082015250565b60006200054860278362000441565b91506200055582620004ea565b604082019050919050565b600060208201905081810360008301526200057b8162000539565b9050919050565b7f6c617267657220636f6c6c656374696f6e2073697a65206e6565646564000000600082015250565b6000620005ba601d8362000441565b9150620005c78262000582565b602082019050919050565b60006020820190508181036000830152620005ed81620005ab565b9050919050565b7f4e487b7100000000000000000000000000000000000000000000000000000000600052602260045260246000fd5b600060028204905060018216806200063c57607f821691505b60208210811415620006535762000652620005f4565b5b50919050565b60805160a05160c05160e05161010051615689620006e460003960006113bd015260008181610f0e0152611f040152600081816115680152611cc7015260008181610f8501528181610ff301528181611030015281816129b2015281816129db01526131660152600081816111ae01528181611c520152818161267b01526126af01526156896000f3fe6080604052600436106101f95760003560e01c8063715018a61161010d578063b05863d5116100a0578063d7224ba01161006f578063d7224ba014610727578063dc33e68114610752578063e985e9c51461078f578063f2fde38b146107cc578063fbe1aa51146107f5576101f9565b8063b05863d51461067c578063b88d4fde146106a5578063c87b56dd146106ce578063cb91d8b31461070b576101f9565b806395d89b41116100dc57806395d89b41146105d4578063a22cb465146105ff578063a7cd52cb14610628578063ac44600214610665576101f9565b8063715018a61461052a5780638bc35c2f146105415780638da5cb5b1461056c5780639231ab2a14610597576101f9565b8063375a069a116101905780634f6ccce71161015f5780634f6ccce71461041f57806355f804b31461045c5780635666c880146104855780636352211e146104b057806370a08231146104ed576101f9565b8063375a069a1461038657806341fbddbd146103af578063422030ba146103b957806342842e0e146103f6576101f9565b806318160ddd116101cc57806318160ddd146102cc57806323b872dd146102f75780632d20fb60146103205780632f745c5914610349576101f9565b806301ffc9a7146101fe57806306fdde031461023b578063081812fc14610266578063095ea7b3146102a3575b600080fd5b34801561020a57600080fd5b50610225600480360381019061022091906136e0565b610820565b6040516102329190613728565b60405180910390f35b34801561024757600080fd5b5061025061096a565b60405161025d91906137dc565b60405180910390f35b34801561027257600080fd5b5061028d60048036038101906102889190613834565b6109fc565b60405161029a91906138a2565b60405180910390f35b3480156102af57600080fd5b506102ca60048036038101906102c591906138e9565b610a81565b005b3480156102d857600080fd5b506102e1610b9a565b6040516102ee9190613938565b60405180910390f35b34801561030357600080fd5b5061031e60048036038101906103199190613953565b610ba4565b005b34801561032c57600080fd5b5061034760048036038101906103429190613834565b610bb4565b005b34801561035557600080fd5b50610370600480360381019061036b91906138e9565b610c92565b60405161037d9190613938565b60405180910390f35b34801561039257600080fd5b506103ad60048036038101906103a89190613834565b610e90565b005b6103b761106c565b005b3480156103c557600080fd5b506103e060048036038101906103db91906139a6565b61128e565b6040516103ed9190613728565b60405180910390f35b34801561040257600080fd5b5061041d60048036038101906104189190613953565b6112b6565b005b34801561042b57600080fd5b5061044660048036038101906104419190613834565b6112d6565b6040516104539190613938565b60405180910390f35b34801561046857600080fd5b50610483600480360381019061047e9190613a5e565b611329565b005b34801561049157600080fd5b5061049a6113bb565b6040516104a79190613938565b60405180910390f35b3480156104bc57600080fd5b506104d760048036038101906104d29190613834565b6113df565b6040516104e491906138a2565b60405180910390f35b3480156104f957600080fd5b50610514600480360381019061050f9190613aab565b6113f5565b6040516105219190613938565b60405180910390f35b34801561053657600080fd5b5061053f6114de565b005b34801561054d57600080fd5b50610556611566565b6040516105639190613938565b60405180910390f35b34801561057857600080fd5b5061058161158a565b60405161058e91906138a2565b60405180910390f35b3480156105a357600080fd5b506105be60048036038101906105b99190613834565b6115b3565b6040516105cb9190613b39565b60405180910390f35b3480156105e057600080fd5b506105e96115cb565b6040516105f691906137dc565b60405180910390f35b34801561060b57600080fd5b5061062660048036038101906106219190613b80565b61165d565b005b34801561063457600080fd5b5061064f600480360381019061064a9190613aab565b6117de565b60405161065c9190613938565b60405180910390f35b34801561067157600080fd5b5061067a6117f6565b005b34801561068857600080fd5b506106a3600480360381019061069e9190613dc1565b611977565b005b3480156106b157600080fd5b506106cc60048036038101906106c79190613eee565b611ad3565b005b3480156106da57600080fd5b506106f560048036038101906106f09190613834565b611b2f565b60405161070291906137dc565b60405180910390f35b61072560048036038101906107209190613f71565b611bd6565b005b34801561073357600080fd5b5061073c611d5e565b6040516107499190613938565b60405180910390f35b34801561075e57600080fd5b5061077960048036038101906107749190613aab565b611d64565b6040516107869190613938565b60405180910390f35b34801561079b57600080fd5b506107b660048036038101906107b19190613fb1565b611d76565b6040516107c39190613728565b60405180910390f35b3480156107d857600080fd5b506107f360048036038101906107ee9190613aab565b611e0a565b005b34801561080157600080fd5b5061080a611f02565b6040516108179190613938565b60405180910390f35b60007f80ac58cd000000000000000000000000000000000000000000000000000000007bffffffffffffffffffffffffffffffffffffffffffffffffffffffff1916827bffffffffffffffffffffffffffffffffffffffffffffffffffffffff191614806108eb57507f5b5e139f000000000000000000000000000000000000000000000000000000007bffffffffffffffffffffffffffffffffffffffffffffffffffffffff1916827bffffffffffffffffffffffffffffffffffffffffffffffffffffffff1916145b8061095357507f780e9d63000000000000000000000000000000000000000000000000000000007bffffffffffffffffffffffffffffffffffffffffffffffffffffffff1916827bffffffffffffffffffffffffffffffffffffffffffffffffffffffff1916145b80610963575061096282611f26565b5b9050919050565b60606002805461097990614020565b80601f01602080910402602001604051908101604052809291908181526020018280546109a590614020565b80156109f25780601f106109c7576101008083540402835291602001916109f2565b820191906000526020600020905b8154815290600101906020018083116109d557829003601f168201915b5050505050905090565b6000610a0782611f90565b610a46576040517f08c379a0000000000000000000000000000000000000000000000000000000008152600401610a3d906140c4565b60405180910390fd5b6006600083815260200190815260200160002060009054906101000a900473ffffffffffffffffffffffffffffffffffffffff169050919050565b6000610a8c826113df565b90508073ffffffffffffffffffffffffffffffffffffffff168373ffffffffffffffffffffffffffffffffffffffff161415610afd576040517f08c379a0000000000000000000000000000000000000000000000000000000008152600401610af490614156565b60405180910390fd5b8073ffffffffffffffffffffffffffffffffffffffff16610b1c611f9e565b73ffffffffffffffffffffffffffffffffffffffff161480610b4b5750610b4a81610b45611f9e565b611d76565b5b610b8a576040517f08c379a0000000000000000000000000000000000000000000000000000000008152600401610b81906141e8565b60405180910390fd5b610b95838383611fa6565b505050565b6000600154905090565b610baf838383612058565b505050565b610bbc611f9e565b73ffffffffffffffffffffffffffffffffffffffff16610bda61158a565b73ffffffffffffffffffffffffffffffffffffffff1614610c30576040517f08c379a0000000000000000000000000000000000000000000000000000000008152600401610c2790614254565b60405180910390fd5b60026009541415610c76576040517f08c379a0000000000000000000000000000000000000000000000000000000008152600401610c6d906142c0565b60405180910390fd5b6002600981905550610c8781612611565b600160098190555050565b6000610c9d836113f5565b8210610cde576040517f08c379a0000000000000000000000000000000000000000000000000000000008152600401610cd590614352565b60405180910390fd5b6000610ce8610b9a565b905060008060005b83811015610e4e576000600460008381526020019081526020016000206040518060400160405290816000820160009054906101000a900473ffffffffffffffffffffffffffffffffffffffff1673ffffffffffffffffffffffffffffffffffffffff1673ffffffffffffffffffffffffffffffffffffffff1681526020016000820160149054906101000a900467ffffffffffffffff1667ffffffffffffffff1667ffffffffffffffff16815250509050600073ffffffffffffffffffffffffffffffffffffffff16816000015173ffffffffffffffffffffffffffffffffffffffff1614610de257806000015192505b8773ffffffffffffffffffffffffffffffffffffffff168373ffffffffffffffffffffffffffffffffffffffff161415610e3a5786841415610e2b578195505050505050610e8a565b8380610e36906143a1565b9450505b508080610e46906143a1565b915050610cf0565b506040517f08c379a0000000000000000000000000000000000000000000000000000000008152600401610e819061445c565b60405180910390fd5b92915050565b610e98611f9e565b73ffffffffffffffffffffffffffffffffffffffff16610eb661158a565b73ffffffffffffffffffffffffffffffffffffffff1614610f0c576040517f08c379a0000000000000000000000000000000000000000000000000000000008152600401610f0390614254565b60405180910390fd5b7f000000000000000000000000000000000000000000000000000000000000000081610f36610b9a565b610f40919061447c565b1115610f81576040517f08c379a0000000000000000000000000000000000000000000000000000000008152600401610f7890614544565b60405180910390fd5b60007f000000000000000000000000000000000000000000000000000000000000000082610faf9190614593565b14610fef576040517f08c379a0000000000000000000000000000000000000000000000000000000008152600401610fe690614636565b60405180910390fd5b60007f00000000000000000000000000000000000000000000000000000000000000008261101d9190614656565b905060005b8181101561106757611054337f000000000000000000000000000000000000000000000000000000000000000061289f565b808061105f906143a1565b915050611022565b505050565b3373ffffffffffffffffffffffffffffffffffffffff163273ffffffffffffffffffffffffffffffffffffffff16146110da576040517f08c379a00000000000000000000000000000000000000000000000000000000081526004016110d1906146d3565b60405180910390fd5b600066b1a2bc2ec500009050600081141561112a576040517f08c379a00000000000000000000000000000000000000000000000000000000081526004016111219061473f565b60405180910390fd5b6000600a60003373ffffffffffffffffffffffffffffffffffffffff1673ffffffffffffffffffffffffffffffffffffffff16815260200190815260200160002054116111ac576040517f08c379a00000000000000000000000000000000000000000000000000000000081526004016111a3906147ab565b60405180910390fd5b7f000000000000000000000000000000000000000000000000000000000000000060016111d7610b9a565b6111e1919061447c565b1115611222576040517f08c379a000000000000000000000000000000000000000000000000000000000815260040161121990614817565b60405180910390fd5b600a60003373ffffffffffffffffffffffffffffffffffffffff1673ffffffffffffffffffffffffffffffffffffffff168152602001908152602001600020600081548092919061127290614837565b919050555061128233600161289f565b61128b816128bd565b50565b60008084141580156112a1575060008314155b80156112ad5750814210155b90509392505050565b6112d183838360405180602001604052806000815250611ad3565b505050565b60006112e0610b9a565b8210611321576040517f08c379a0000000000000000000000000000000000000000000000000000000008152600401611318906148d3565b60405180910390fd5b819050919050565b611331611f9e565b73ffffffffffffffffffffffffffffffffffffffff1661134f61158a565b73ffffffffffffffffffffffffffffffffffffffff16146113a5576040517f08c379a000000000000000000000000000000000000000000000000000000000815260040161139c90614254565b60405180910390fd5b8181600b91906113b6929190613597565b505050565b7f000000000000000000000000000000000000000000000000000000000000000081565b60006113ea8261295e565b600001519050919050565b60008073ffffffffffffffffffffffffffffffffffffffff168273ffffffffffffffffffffffffffffffffffffffff161415611466576040517f08c379a000000000000000000000000000000000000000000000000000000000815260040161145d90614965565b60405180910390fd5b600560008373ffffffffffffffffffffffffffffffffffffffff1673ffffffffffffffffffffffffffffffffffffffff16815260200190815260200160002060000160009054906101000a90046fffffffffffffffffffffffffffffffff166fffffffffffffffffffffffffffffffff169050919050565b6114e6611f9e565b73ffffffffffffffffffffffffffffffffffffffff1661150461158a565b73ffffffffffffffffffffffffffffffffffffffff161461155a576040517f08c379a000000000000000000000000000000000000000000000000000000000815260040161155190614254565b60405180910390fd5b6115646000612b61565b565b7f000000000000000000000000000000000000000000000000000000000000000081565b60008060009054906101000a900473ffffffffffffffffffffffffffffffffffffffff16905090565b6115bb61361d565b6115c48261295e565b9050919050565b6060600380546115da90614020565b80601f016020809104026020016040519081016040528092919081815260200182805461160690614020565b80156116535780601f1061162857610100808354040283529160200191611653565b820191906000526020600020905b81548152906001019060200180831161163657829003601f168201915b5050505050905090565b611665611f9e565b73ffffffffffffffffffffffffffffffffffffffff168273ffffffffffffffffffffffffffffffffffffffff1614156116d3576040517f08c379a00000000000000000000000000000000000000000000000000000000081526004016116ca906149d1565b60405180910390fd5b80600760006116e0611f9e565b73ffffffffffffffffffffffffffffffffffffffff1673ffffffffffffffffffffffffffffffffffffffff16815260200190815260200160002060008473ffffffffffffffffffffffffffffffffffffffff1673ffffffffffffffffffffffffffffffffffffffff16815260200190815260200160002060006101000a81548160ff0219169083151502179055508173ffffffffffffffffffffffffffffffffffffffff1661178d611f9e565b73ffffffffffffffffffffffffffffffffffffffff167f17307eab39ab6107e8899845ad3d59bd9653f200f220920489ca2b5937696c31836040516117d29190613728565b60405180910390a35050565b600a6020528060005260406000206000915090505481565b6117fe611f9e565b73ffffffffffffffffffffffffffffffffffffffff1661181c61158a565b73ffffffffffffffffffffffffffffffffffffffff1614611872576040517f08c379a000000000000000000000000000000000000000000000000000000000815260040161186990614254565b60405180910390fd5b600260095414156118b8576040517f08c379a00000000000000000000000000000000000000000000000000000000081526004016118af906142c0565b60405180910390fd5b600260098190555060003373ffffffffffffffffffffffffffffffffffffffff16476040516118e690614a22565b60006040518083038185875af1925050503d8060008114611923576040519150601f19603f3d011682016040523d82523d6000602084013e611928565b606091505b505090508061196c576040517f08c379a000000000000000000000000000000000000000000000000000000000815260040161196390614a83565b60405180910390fd5b506001600981905550565b61197f611f9e565b73ffffffffffffffffffffffffffffffffffffffff1661199d61158a565b73ffffffffffffffffffffffffffffffffffffffff16146119f3576040517f08c379a00000000000000000000000000000000000000000000000000000000081526004016119ea90614254565b60405180910390fd5b8051825114611a37576040517f08c379a0000000000000000000000000000000000000000000000000000000008152600401611a2e90614b15565b60405180910390fd5b60005b8251811015611ace57818181518110611a5657611a55614b35565b5b6020026020010151600a6000858481518110611a7557611a74614b35565b5b602002602001015173ffffffffffffffffffffffffffffffffffffffff1673ffffffffffffffffffffffffffffffffffffffff168152602001908152602001600020819055508080611ac6906143a1565b915050611a3a565b505050565b611ade848484612058565b611aea84848484612c25565b611b29576040517f08c379a0000000000000000000000000000000000000000000000000000000008152600401611b2090614bd6565b60405180910390fd5b50505050565b6060611b3a82611f90565b611b79576040517f08c379a0000000000000000000000000000000000000000000000000000000008152600401611b7090614c68565b60405180910390fd5b6000611b83612dbc565b90506000815111611ba35760405180602001604052806000815250611bce565b80611bad84612e4e565b604051602001611bbe929190614cc4565b6040516020818303038152906040525b915050919050565b3373ffffffffffffffffffffffffffffffffffffffff163273ffffffffffffffffffffffffffffffffffffffff1614611c44576040517f08c379a0000000000000000000000000000000000000000000000000000000008152600401611c3b906146d3565b60405180910390fd5b600066b1a2bc2ec5000090507f000000000000000000000000000000000000000000000000000000000000000083611c7a610b9a565b611c84919061447c565b1115611cc5576040517f08c379a0000000000000000000000000000000000000000000000000000000008152600401611cbc90614817565b60405180910390fd5b7f000000000000000000000000000000000000000000000000000000000000000083611cf033611d64565b611cfa919061447c565b1115611d3b576040517f08c379a0000000000000000000000000000000000000000000000000000000008152600401611d3290614d34565b60405180910390fd5b611d45338461289f565b611d598382611d549190614d54565b6128bd565b505050565b60085481565b6000611d6f82612faf565b9050919050565b6000600760008473ffffffffffffffffffffffffffffffffffffffff1673ffffffffffffffffffffffffffffffffffffffff16815260200190815260200160002060008373ffffffffffffffffffffffffffffffffffffffff1673ffffffffffffffffffffffffffffffffffffffff16815260200190815260200160002060009054906101000a900460ff16905092915050565b611e12611f9e565b73ffffffffffffffffffffffffffffffffffffffff16611e3061158a565b73ffffffffffffffffffffffffffffffffffffffff1614611e86576040517f08c379a0000000000000000000000000000000000000000000000000000000008152600401611e7d90614254565b60405180910390fd5b600073ffffffffffffffffffffffffffffffffffffffff168173ffffffffffffffffffffffffffffffffffffffff161415611ef6576040517f08c379a0000000000000000000000000000000000000000000000000000000008152600401611eed90614e20565b60405180910390fd5b611eff81612b61565b50565b7f000000000000000000000000000000000000000000000000000000000000000081565b60007f01ffc9a7000000000000000000000000000000000000000000000000000000007bffffffffffffffffffffffffffffffffffffffffffffffffffffffff1916827bffffffffffffffffffffffffffffffffffffffffffffffffffffffff1916149050919050565b600060015482109050919050565b600033905090565b826006600084815260200190815260200160002060006101000a81548173ffffffffffffffffffffffffffffffffffffffff021916908373ffffffffffffffffffffffffffffffffffffffff160217905550818373ffffffffffffffffffffffffffffffffffffffff168273ffffffffffffffffffffffffffffffffffffffff167f8c5be1e5ebec7d5bd14f71427d1e84f3dd0314c0f7b2291e5b200ac8c7c3b92560405160405180910390a4505050565b60006120638261295e565b90506000816000015173ffffffffffffffffffffffffffffffffffffffff1661208a611f9e565b73ffffffffffffffffffffffffffffffffffffffff1614806120e657506120af611f9e565b73ffffffffffffffffffffffffffffffffffffffff166120ce846109fc565b73ffffffffffffffffffffffffffffffffffffffff16145b80612102575061210182600001516120fc611f9e565b611d76565b5b905080612144576040517f08c379a000000000000000000000000000000000000000000000000000000000815260040161213b90614eb2565b60405180910390fd5b8473ffffffffffffffffffffffffffffffffffffffff16826000015173ffffffffffffffffffffffffffffffffffffffff16146121b6576040517f08c379a00000000000000000000000000000000000000000000000000000000081526004016121ad90614f44565b60405180910390fd5b600073ffffffffffffffffffffffffffffffffffffffff168473ffffffffffffffffffffffffffffffffffffffff161415612226576040517f08c379a000000000000000000000000000000000000000000000000000000000815260040161221d90614fd6565b60405180910390fd5b6122338585856001613098565b6122436000848460000151611fa6565b6001600560008773ffffffffffffffffffffffffffffffffffffffff1673ffffffffffffffffffffffffffffffffffffffff16815260200190815260200160002060000160008282829054906101000a90046fffffffffffffffffffffffffffffffff166122b19190615012565b92506101000a8154816fffffffffffffffffffffffffffffffff02191690836fffffffffffffffffffffffffffffffff1602179055506001600560008673ffffffffffffffffffffffffffffffffffffffff1673ffffffffffffffffffffffffffffffffffffffff16815260200190815260200160002060000160008282829054906101000a90046fffffffffffffffffffffffffffffffff166123559190615046565b92506101000a8154816fffffffffffffffffffffffffffffffff02191690836fffffffffffffffffffffffffffffffff16021790555060405180604001604052808573ffffffffffffffffffffffffffffffffffffffff1681526020014267ffffffffffffffff168152506004600085815260200190815260200160002060008201518160000160006101000a81548173ffffffffffffffffffffffffffffffffffffffff021916908373ffffffffffffffffffffffffffffffffffffffff16021790555060208201518160000160146101000a81548167ffffffffffffffff021916908367ffffffffffffffff160217905550905050600060018461245b919061447c565b9050600073ffffffffffffffffffffffffffffffffffffffff166004600083815260200190815260200160002060000160009054906101000a900473ffffffffffffffffffffffffffffffffffffffff1673ffffffffffffffffffffffffffffffffffffffff1614156125a1576124d181611f90565b156125a0576040518060400160405280846000015173ffffffffffffffffffffffffffffffffffffffff168152602001846020015167ffffffffffffffff168152506004600083815260200190815260200160002060008201518160000160006101000a81548173ffffffffffffffffffffffffffffffffffffffff021916908373ffffffffffffffffffffffffffffffffffffffff16021790555060208201518160000160146101000a81548167ffffffffffffffff021916908367ffffffffffffffff1602179055509050505b5b838573ffffffffffffffffffffffffffffffffffffffff168773ffffffffffffffffffffffffffffffffffffffff167fddf252ad1be2c89b69c2b068fc378daa952ba7f163c4a11628f55a4df523b3ef60405160405180910390a4612609868686600161309e565b505050505050565b600060085490506000821161265b576040517f08c379a0000000000000000000000000000000000000000000000000000000008152600401612652906150d8565b60405180910390fd5b60006001838361266b919061447c565b61267591906150f8565b905060017f00000000000000000000000000000000000000000000000000000000000000006126a491906150f8565b8111156126db5760017f00000000000000000000000000000000000000000000000000000000000000006126d891906150f8565b90505b6126e481611f90565b612723576040517f08c379a000000000000000000000000000000000000000000000000000000000815260040161271a9061519e565b60405180910390fd5b60008290505b81811161288657600073ffffffffffffffffffffffffffffffffffffffff166004600083815260200190815260200160002060000160009054906101000a900473ffffffffffffffffffffffffffffffffffffffff1673ffffffffffffffffffffffffffffffffffffffff1614156128735760006127a68261295e565b90506040518060400160405280826000015173ffffffffffffffffffffffffffffffffffffffff168152602001826020015167ffffffffffffffff168152506004600084815260200190815260200160002060008201518160000160006101000a81548173ffffffffffffffffffffffffffffffffffffffff021916908373ffffffffffffffffffffffffffffffffffffffff16021790555060208201518160000160146101000a81548167ffffffffffffffff021916908367ffffffffffffffff160217905550905050505b808061287e906143a1565b915050612729565b50600181612894919061447c565b600881905550505050565b6128b98282604051806020016040528060008152506130a4565b5050565b80341015612900576040517f08c379a00000000000000000000000000000000000000000000000000000000081526004016128f79061520a565b60405180910390fd5b8034111561295b573373ffffffffffffffffffffffffffffffffffffffff166108fc823461292e91906150f8565b9081150290604051600060405180830381858888f19350505050158015612959573d6000803e3d6000fd5b505b50565b61296661361d565b61296f82611f90565b6129ae576040517f08c379a00000000000000000000000000000000000000000000000000000000081526004016129a59061529c565b60405180910390fd5b60007f00000000000000000000000000000000000000000000000000000000000000008310612a125760017f000000000000000000000000000000000000000000000000000000000000000084612a0591906150f8565b612a0f919061447c565b90505b60008390505b818110612b20576000600460008381526020019081526020016000206040518060400160405290816000820160009054906101000a900473ffffffffffffffffffffffffffffffffffffffff1673ffffffffffffffffffffffffffffffffffffffff1673ffffffffffffffffffffffffffffffffffffffff1681526020016000820160149054906101000a900467ffffffffffffffff1667ffffffffffffffff1667ffffffffffffffff16815250509050600073ffffffffffffffffffffffffffffffffffffffff16816000015173ffffffffffffffffffffffffffffffffffffffff1614612b0c57809350505050612b5c565b508080612b1890614837565b915050612a18565b506040517f08c379a0000000000000000000000000000000000000000000000000000000008152600401612b539061532e565b60405180910390fd5b919050565b60008060009054906101000a900473ffffffffffffffffffffffffffffffffffffffff169050816000806101000a81548173ffffffffffffffffffffffffffffffffffffffff021916908373ffffffffffffffffffffffffffffffffffffffff1602179055508173ffffffffffffffffffffffffffffffffffffffff168173ffffffffffffffffffffffffffffffffffffffff167f8be0079c531659141344cd1fd0a4f28419497f9722a3daafe3b4186f6b6457e060405160405180910390a35050565b6000612c468473ffffffffffffffffffffffffffffffffffffffff16613584565b15612daf578373ffffffffffffffffffffffffffffffffffffffff1663150b7a02612c6f611f9e565b8786866040518563ffffffff1660e01b8152600401612c9194939291906153a3565b602060405180830381600087803b158015612cab57600080fd5b505af1925050508015612cdc57506040513d601f19601f82011682018060405250810190612cd99190615404565b60015b612d5f573d8060008114612d0c576040519150601f19603f3d011682016040523d82523d6000602084013e612d11565b606091505b50600081511415612d57576040517f08c379a0000000000000000000000000000000000000000000000000000000008152600401612d4e90614bd6565b60405180910390fd5b805181602001fd5b63150b7a0260e01b7bffffffffffffffffffffffffffffffffffffffffffffffffffffffff1916817bffffffffffffffffffffffffffffffffffffffffffffffffffffffff191614915050612db4565b600190505b949350505050565b6060600b8054612dcb90614020565b80601f0160208091040260200160405190810160405280929190818152602001828054612df790614020565b8015612e445780601f10612e1957610100808354040283529160200191612e44565b820191906000526020600020905b815481529060010190602001808311612e2757829003601f168201915b5050505050905090565b60606000821415612e96576040518060400160405280600181526020017f30000000000000000000000000000000000000000000000000000000000000008152509050612faa565b600082905060005b60008214612ec8578080612eb1906143a1565b915050600a82612ec19190614656565b9150612e9e565b60008167ffffffffffffffff811115612ee457612ee3613bc0565b5b6040519080825280601f01601f191660200182016040528015612f165781602001600182028036833780820191505090505b5090505b60008514612fa357600182612f2f91906150f8565b9150600a85612f3e9190614593565b6030612f4a919061447c565b60f81b818381518110612f6057612f5f614b35565b5b60200101907effffffffffffffffffffffffffffffffffffffffffffffffffffffffffffff1916908160001a905350600a85612f9c9190614656565b9450612f1a565b8093505050505b919050565b60008073ffffffffffffffffffffffffffffffffffffffff168273ffffffffffffffffffffffffffffffffffffffff161415613020576040517f08c379a0000000000000000000000000000000000000000000000000000000008152600401613017906154a3565b60405180910390fd5b600560008373ffffffffffffffffffffffffffffffffffffffff1673ffffffffffffffffffffffffffffffffffffffff16815260200190815260200160002060000160109054906101000a90046fffffffffffffffffffffffffffffffff166fffffffffffffffffffffffffffffffff169050919050565b50505050565b50505050565b60006001549050600073ffffffffffffffffffffffffffffffffffffffff168473ffffffffffffffffffffffffffffffffffffffff16141561311b576040517f08c379a000000000000000000000000000000000000000000000000000000000815260040161311290615535565b60405180910390fd5b61312481611f90565b15613164576040517f08c379a000000000000000000000000000000000000000000000000000000000815260040161315b906155a1565b60405180910390fd5b7f00000000000000000000000000000000000000000000000000000000000000008311156131c7576040517f08c379a00000000000000000000000000000000000000000000000000000000081526004016131be90615633565b60405180910390fd5b6131d46000858386613098565b6000600560008673ffffffffffffffffffffffffffffffffffffffff1673ffffffffffffffffffffffffffffffffffffffff1681526020019081526020016000206040518060400160405290816000820160009054906101000a90046fffffffffffffffffffffffffffffffff166fffffffffffffffffffffffffffffffff166fffffffffffffffffffffffffffffffff1681526020016000820160109054906101000a90046fffffffffffffffffffffffffffffffff166fffffffffffffffffffffffffffffffff166fffffffffffffffffffffffffffffffff1681525050905060405180604001604052808583600001516132d19190615046565b6fffffffffffffffffffffffffffffffff1681526020018583602001516132f89190615046565b6fffffffffffffffffffffffffffffffff16815250600560008773ffffffffffffffffffffffffffffffffffffffff1673ffffffffffffffffffffffffffffffffffffffff16815260200190815260200160002060008201518160000160006101000a8154816fffffffffffffffffffffffffffffffff02191690836fffffffffffffffffffffffffffffffff16021790555060208201518160000160106101000a8154816fffffffffffffffffffffffffffffffff02191690836fffffffffffffffffffffffffffffffff16021790555090505060405180604001604052808673ffffffffffffffffffffffffffffffffffffffff1681526020014267ffffffffffffffff168152506004600084815260200190815260200160002060008201518160000160006101000a81548173ffffffffffffffffffffffffffffffffffffffff021916908373ffffffffffffffffffffffffffffffffffffffff16021790555060208201518160000160146101000a81548167ffffffffffffffff021916908367ffffffffffffffff160217905550905050600082905060005b8581101561356757818773ffffffffffffffffffffffffffffffffffffffff16600073ffffffffffffffffffffffffffffffffffffffff167fddf252ad1be2c89b69c2b068fc378daa952ba7f163c4a11628f55a4df523b3ef60405160405180910390a46135076000888488612c25565b613546576040517f08c379a000000000000000000000000000000000000000000000000000000000815260040161353d90614bd6565b60405180910390fd5b8180613551906143a1565b925050808061355f906143a1565b915050613496565b508060018190555061357c600087858861309e565b505050505050565b600080823b905060008111915050919050565b8280546135a390614020565b90600052602060002090601f0160209004810192826135c5576000855561360c565b82601f106135de57803560ff191683800117855561360c565b8280016001018555821561360c579182015b8281111561360b5782358255916020019190600101906135f0565b5b5090506136199190613657565b5090565b6040518060400160405280600073ffffffffffffffffffffffffffffffffffffffff168152602001600067ffffffffffffffff1681525090565b5b80821115613670576000816000905550600101613658565b5090565b6000604051905090565b600080fd5b600080fd5b60007fffffffff0000000000000000000000000000000000000000000000000000000082169050919050565b6136bd81613688565b81146136c857600080fd5b50565b6000813590506136da816136b4565b92915050565b6000602082840312156136f6576136f561367e565b5b6000613704848285016136cb565b91505092915050565b60008115159050919050565b6137228161370d565b82525050565b600060208201905061373d6000830184613719565b92915050565b600081519050919050565b600082825260208201905092915050565b60005b8381101561377d578082015181840152602081019050613762565b8381111561378c576000848401525b50505050565b6000601f19601f8301169050919050565b60006137ae82613743565b6137b8818561374e565b93506137c881856020860161375f565b6137d181613792565b840191505092915050565b600060208201905081810360008301526137f681846137a3565b905092915050565b6000819050919050565b613811816137fe565b811461381c57600080fd5b50565b60008135905061382e81613808565b92915050565b60006020828403121561384a5761384961367e565b5b60006138588482850161381f565b91505092915050565b600073ffffffffffffffffffffffffffffffffffffffff82169050919050565b600061388c82613861565b9050919050565b61389c81613881565b82525050565b60006020820190506138b76000830184613893565b92915050565b6138c681613881565b81146138d157600080fd5b50565b6000813590506138e3816138bd565b92915050565b60008060408385031215613900576138ff61367e565b5b600061390e858286016138d4565b925050602061391f8582860161381f565b9150509250929050565b613932816137fe565b82525050565b600060208201905061394d6000830184613929565b92915050565b60008060006060848603121561396c5761396b61367e565b5b600061397a868287016138d4565b935050602061398b868287016138d4565b925050604061399c8682870161381f565b9150509250925092565b6000806000606084860312156139bf576139be61367e565b5b60006139cd8682870161381f565b93505060206139de8682870161381f565b92505060406139ef8682870161381f565b9150509250925092565b600080fd5b600080fd5b600080fd5b60008083601f840112613a1e57613a1d6139f9565b5b8235905067ffffffffffffffff811115613a3b57613a3a6139fe565b5b602083019150836001820283011115613a5757613a56613a03565b5b9250929050565b60008060208385031215613a7557613a7461367e565b5b600083013567ffffffffffffffff811115613a9357613a92613683565b5b613a9f85828601613a08565b92509250509250929050565b600060208284031215613ac157613ac061367e565b5b6000613acf848285016138d4565b91505092915050565b613ae181613881565b82525050565b600067ffffffffffffffff82169050919050565b613b0481613ae7565b82525050565b604082016000820151613b206000850182613ad8565b506020820151613b336020850182613afb565b50505050565b6000604082019050613b4e6000830184613b0a565b92915050565b613b5d8161370d565b8114613b6857600080fd5b50565b600081359050613b7a81613b54565b92915050565b60008060408385031215613b9757613b9661367e565b5b6000613ba5858286016138d4565b9250506020613bb685828601613b6b565b9150509250929050565b7f4e487b7100000000000000000000000000000000000000000000000000000000600052604160045260246000fd5b613bf882613792565b810181811067ffffffffffffffff82111715613c1757613c16613bc0565b5b80604052505050565b6000613c2a613674565b9050613c368282613bef565b919050565b600067ffffffffffffffff821115613c5657613c55613bc0565b5b602082029050602081019050919050565b6000613c7a613c7584613c3b565b613c20565b90508083825260208201905060208402830185811115613c9d57613c9c613a03565b5b835b81811015613cc65780613cb288826138d4565b845260208401935050602081019050613c9f565b5050509392505050565b600082601f830112613ce557613ce46139f9565b5b8135613cf5848260208601613c67565b91505092915050565b600067ffffffffffffffff821115613d1957613d18613bc0565b5b602082029050602081019050919050565b6000613d3d613d3884613cfe565b613c20565b90508083825260208201905060208402830185811115613d6057613d5f613a03565b5b835b81811015613d895780613d75888261381f565b845260208401935050602081019050613d62565b5050509392505050565b600082601f830112613da857613da76139f9565b5b8135613db8848260208601613d2a565b91505092915050565b60008060408385031215613dd857613dd761367e565b5b600083013567ffffffffffffffff811115613df657613df5613683565b5b613e0285828601613cd0565b925050602083013567ffffffffffffffff811115613e2357613e22613683565b5b613e2f85828601613d93565b9150509250929050565b600080fd5b600067ffffffffffffffff821115613e5957613e58613bc0565b5b613e6282613792565b9050602081019050919050565b82818337600083830152505050565b6000613e91613e8c84613e3e565b613c20565b905082815260208101848484011115613ead57613eac613e39565b5b613eb8848285613e6f565b509392505050565b600082601f830112613ed557613ed46139f9565b5b8135613ee5848260208601613e7e565b91505092915050565b60008060008060808587031215613f0857613f0761367e565b5b6000613f16878288016138d4565b9450506020613f27878288016138d4565b9350506040613f388782880161381f565b925050606085013567ffffffffffffffff811115613f5957613f58613683565b5b613f6587828801613ec0565b91505092959194509250565b60008060408385031215613f8857613f8761367e565b5b6000613f968582860161381f565b9250506020613fa78582860161381f565b9150509250929050565b60008060408385031215613fc857613fc761367e565b5b6000613fd6858286016138d4565b9250506020613fe7858286016138d4565b9150509250929050565b7f4e487b7100000000000000000000000000000000000000000000000000000000600052602260045260246000fd5b6000600282049050600182168061403857607f821691505b6020821081141561404c5761404b613ff1565b5b50919050565b7f455243373231413a20617070726f76656420717565727920666f72206e6f6e6560008201527f78697374656e7420746f6b656e00000000000000000000000000000000000000602082015250565b60006140ae602d8361374e565b91506140b982614052565b604082019050919050565b600060208201905081810360008301526140dd816140a1565b9050919050565b7f455243373231413a20617070726f76616c20746f2063757272656e74206f776e60008201527f6572000000000000000000000000000000000000000000000000000000000000602082015250565b600061414060228361374e565b915061414b826140e4565b604082019050919050565b6000602082019050818103600083015261416f81614133565b9050919050565b7f455243373231413a20617070726f76652063616c6c6572206973206e6f74206f60008201527f776e6572206e6f7220617070726f76656420666f7220616c6c00000000000000602082015250565b60006141d260398361374e565b91506141dd82614176565b604082019050919050565b60006020820190508181036000830152614201816141c5565b9050919050565b7f4f776e61626c653a2063616c6c6572206973206e6f7420746865206f776e6572600082015250565b600061423e60208361374e565b915061424982614208565b602082019050919050565b6000602082019050818103600083015261426d81614231565b9050919050565b7f5265656e7472616e637947756172643a207265656e7472616e742063616c6c00600082015250565b60006142aa601f8361374e565b91506142b582614274565b602082019050919050565b600060208201905081810360008301526142d98161429d565b9050919050565b7f455243373231413a206f776e657220696e646578206f7574206f6620626f756e60008201527f6473000000000000000000000000000000000000000000000000000000000000602082015250565b600061433c60228361374e565b9150614347826142e0565b604082019050919050565b6000602082019050818103600083015261436b8161432f565b9050919050565b7f4e487b7100000000000000000000000000000000000000000000000000000000600052601160045260246000fd5b60006143ac826137fe565b91507fffffffffffffffffffffffffffffffffffffffffffffffffffffffffffffffff8214156143df576143de614372565b5b600182019050919050565b7f455243373231413a20756e61626c6520746f2067657420746f6b656e206f662060008201527f6f776e657220627920696e646578000000000000000000000000000000000000602082015250565b6000614446602e8361374e565b9150614451826143ea565b604082019050919050565b6000602082019050818103600083015261447581614439565b9050919050565b6000614487826137fe565b9150614492836137fe565b9250827fffffffffffffffffffffffffffffffffffffffffffffffffffffffffffffffff038211156144c7576144c6614372565b5b828201905092915050565b7f746f6f206d616e7920616c7265616479206d696e746564206265666f7265206460008201527f6576206d696e7400000000000000000000000000000000000000000000000000602082015250565b600061452e60278361374e565b9150614539826144d2565b604082019050919050565b6000602082019050818103600083015261455d81614521565b9050919050565b7f4e487b7100000000000000000000000000000000000000000000000000000000600052601260045260246000fd5b600061459e826137fe565b91506145a9836137fe565b9250826145b9576145b8614564565b5b828206905092915050565b7f63616e206f6e6c79206d696e742061206d756c7469706c65206f66207468652060008201527f6d6178426174636853697a650000000000000000000000000000000000000000602082015250565b6000614620602c8361374e565b915061462b826145c4565b604082019050919050565b6000602082019050818103600083015261464f81614613565b9050919050565b6000614661826137fe565b915061466c836137fe565b92508261467c5761467b614564565b5b828204905092915050565b7f5468652063616c6c657220697320616e6f7468657220636f6e74726163740000600082015250565b60006146bd601e8361374e565b91506146c882614687565b602082019050919050565b600060208201905081810360008301526146ec816146b0565b9050919050565b7f616c6c6f776c6973742073616c6520686173206e6f7420626567756e20796574600082015250565b600061472960208361374e565b9150614734826146f3565b602082019050919050565b600060208201905081810360008301526147588161471c565b9050919050565b7f6e6f7420656c696769626c6520666f7220616c6c6f776c697374206d696e7400600082015250565b6000614795601f8361374e565b91506147a08261475f565b602082019050919050565b600060208201905081810360008301526147c481614788565b9050919050565b7f72656163686564206d617820737570706c790000000000000000000000000000600082015250565b600061480160128361374e565b915061480c826147cb565b602082019050919050565b60006020820190508181036000830152614830816147f4565b9050919050565b6000614842826137fe565b9150600082141561485657614855614372565b5b600182039050919050565b7f455243373231413a20676c6f62616c20696e646578206f7574206f6620626f7560008201527f6e64730000000000000000000000000000000000000000000000000000000000602082015250565b60006148bd60238361374e565b91506148c882614861565b604082019050919050565b600060208201905081810360008301526148ec816148b0565b9050919050565b7f455243373231413a2062616c616e636520717565727920666f7220746865207a60008201527f65726f2061646472657373000000000000000000000000000000000000000000602082015250565b600061494f602b8361374e565b915061495a826148f3565b604082019050919050565b6000602082019050818103600083015261497e81614942565b9050919050565b7f455243373231413a20617070726f766520746f2063616c6c6572000000000000600082015250565b60006149bb601a8361374e565b91506149c682614985565b602082019050919050565b600060208201905081810360008301526149ea816149ae565b9050919050565b600081905092915050565b50565b6000614a0c6000836149f1565b9150614a17826149fc565b600082019050919050565b6000614a2d826149ff565b9150819050919050565b7f5472616e73666572206661696c65642e00000000000000000000000000000000600082015250565b6000614a6d60108361374e565b9150614a7882614a37565b602082019050919050565b60006020820190508181036000830152614a9c81614a60565b9050919050565b7f61646472657373657320646f6573206e6f74206d61746368206e756d536c6f7460008201527f73206c656e677468000000000000000000000000000000000000000000000000602082015250565b6000614aff60288361374e565b9150614b0a82614aa3565b604082019050919050565b60006020820190508181036000830152614b2e81614af2565b9050919050565b7f4e487b7100000000000000000000000000000000000000000000000000000000600052603260045260246000fd5b7f455243373231413a207472616e7366657220746f206e6f6e204552433732315260008201527f6563656976657220696d706c656d656e74657200000000000000000000000000602082015250565b6000614bc060338361374e565b9150614bcb82614b64565b604082019050919050565b60006020820190508181036000830152614bef81614bb3565b9050919050565b7f4552433732314d657461646174613a2055524920717565727920666f72206e6f60008201527f6e6578697374656e7420746f6b656e0000000000000000000000000000000000602082015250565b6000614c52602f8361374e565b9150614c5d82614bf6565b604082019050919050565b60006020820190508181036000830152614c8181614c45565b9050919050565b600081905092915050565b6000614c9e82613743565b614ca88185614c88565b9350614cb881856020860161375f565b80840191505092915050565b6000614cd08285614c93565b9150614cdc8284614c93565b91508190509392505050565b7f63616e206e6f74206d696e742074686973206d616e7900000000000000000000600082015250565b6000614d1e60168361374e565b9150614d2982614ce8565b602082019050919050565b60006020820190508181036000830152614d4d81614d11565b9050919050565b6000614d5f826137fe565b9150614d6a836137fe565b9250817fffffffffffffffffffffffffffffffffffffffffffffffffffffffffffffffff0483118215151615614da357614da2614372565b5b828202905092915050565b7f4f776e61626c653a206e6577206f776e657220697320746865207a65726f206160008201527f6464726573730000000000000000000000000000000000000000000000000000602082015250565b6000614e0a60268361374e565b9150614e1582614dae565b604082019050919050565b60006020820190508181036000830152614e3981614dfd565b9050919050565b7f455243373231413a207472616e736665722063616c6c6572206973206e6f742060008201527f6f776e6572206e6f7220617070726f7665640000000000000000000000000000602082015250565b6000614e9c60328361374e565b9150614ea782614e40565b604082019050919050565b60006020820190508181036000830152614ecb81614e8f565b9050919050565b7f455243373231413a207472616e736665722066726f6d20696e636f727265637460008201527f206f776e65720000000000000000000000000000000000000000000000000000602082015250565b6000614f2e60268361374e565b9150614f3982614ed2565b604082019050919050565b60006020820190508181036000830152614f5d81614f21565b9050919050565b7f455243373231413a207472616e7366657220746f20746865207a65726f20616460008201527f6472657373000000000000000000000000000000000000000000000000000000602082015250565b6000614fc060258361374e565b9150614fcb82614f64565b604082019050919050565b60006020820190508181036000830152614fef81614fb3565b9050919050565b60006fffffffffffffffffffffffffffffffff82169050919050565b600061501d82614ff6565b915061502883614ff6565b92508282101561503b5761503a614372565b5b828203905092915050565b600061505182614ff6565b915061505c83614ff6565b9250826fffffffffffffffffffffffffffffffff0382111561508157615080614372565b5b828201905092915050565b7f7175616e74697479206d757374206265206e6f6e7a65726f0000000000000000600082015250565b60006150c260188361374e565b91506150cd8261508c565b602082019050919050565b600060208201905081810360008301526150f1816150b5565b9050919050565b6000615103826137fe565b915061510e836137fe565b92508282101561512157615120614372565b5b828203905092915050565b7f6e6f7420656e6f756768206d696e7465642079657420666f722074686973206360008201527f6c65616e75700000000000000000000000000000000000000000000000000000602082015250565b600061518860268361374e565b91506151938261512c565b604082019050919050565b600060208201905081810360008301526151b78161517b565b9050919050565b7f4e65656420746f2073656e64206d6f7265204554482e00000000000000000000600082015250565b60006151f460168361374e565b91506151ff826151be565b602082019050919050565b60006020820190508181036000830152615223816151e7565b9050919050565b7f455243373231413a206f776e657220717565727920666f72206e6f6e6578697360008201527f74656e7420746f6b656e00000000000000000000000000000000000000000000602082015250565b6000615286602a8361374e565b91506152918261522a565b604082019050919050565b600060208201905081810360008301526152b581615279565b9050919050565b7f455243373231413a20756e61626c6520746f2064657465726d696e652074686560008201527f206f776e6572206f6620746f6b656e0000000000000000000000000000000000602082015250565b6000615318602f8361374e565b9150615323826152bc565b604082019050919050565b600060208201905081810360008301526153478161530b565b9050919050565b600081519050919050565b600082825260208201905092915050565b60006153758261534e565b61537f8185615359565b935061538f81856020860161375f565b61539881613792565b840191505092915050565b60006080820190506153b86000830187613893565b6153c56020830186613893565b6153d26040830185613929565b81810360608301526153e4818461536a565b905095945050505050565b6000815190506153fe816136b4565b92915050565b60006020828403121561541a5761541961367e565b5b6000615428848285016153ef565b91505092915050565b7f455243373231413a206e756d626572206d696e74656420717565727920666f7260008201527f20746865207a65726f2061646472657373000000000000000000000000000000602082015250565b600061548d60318361374e565b915061549882615431565b604082019050919050565b600060208201905081810360008301526154bc81615480565b9050919050565b7f455243373231413a206d696e7420746f20746865207a65726f2061646472657360008201527f7300000000000000000000000000000000000000000000000000000000000000602082015250565b600061551f60218361374e565b915061552a826154c3565b604082019050919050565b6000602082019050818103600083015261554e81615512565b9050919050565b7f455243373231413a20746f6b656e20616c7265616479206d696e746564000000600082015250565b600061558b601d8361374e565b915061559682615555565b602082019050919050565b600060208201905081810360008301526155ba8161557e565b9050919050565b7f455243373231413a207175616e7469747920746f206d696e7420746f6f20686960008201527f6768000000000000000000000000000000000000000000000000000000000000602082015250565b600061561d60228361374e565b9150615628826155c1565b604082019050919050565b6000602082019050818103600083015261564c81615610565b905091905056fea26469706673582212207115668d8e9b7f4b0dd13007e8e51753e5d5495b6d47863b317105f8a58196e164736f6c63430008090033",
  "immutableReferences": {
    "936": [
      {
        "length": 32,
        "start": 4526
      },
      {
        "length": 32,
        "start": 7250
      },
      {
        "length": 32,
        "start": 9851
      },
      {
        "length": 32,
        "start": 9903
      }
    ],
    "938": [
      {
        "length": 32,
        "start": 3973
      },
      {
        "length": 32,
        "start": 4083
      },
      {
        "length": 32,
        "start": 4144
      },
      {
        "length": 32,
        "start": 10674
      },
      {
        "length": 32,
        "start": 10715
      },
      {
        "length": 32,
        "start": 12646
      }
    ],
    "2103": [
      {
        "length": 32,
        "start": 5480
      },
      {
        "length": 32,
        "start": 7367
      }
    ],
    "2105": [
      {
        "length": 32,
        "start": 3854
      },
      {
        "length": 32,
        "start": 7940
      }
    ],
    "2107": [
      {
        "length": 32,
        "start": 5053
      }
    ]
  },
  "source": "// SPDX-License-Identifier: MIT\n\npragma solidity ^0.8.0;\n\nimport \"@openzeppelin/contracts/access/Ownable.sol\";\nimport \"@openzeppelin/contracts/security/ReentrancyGuard.sol\";\nimport \"./ERC721A.sol\";\nimport \"@openzeppelin/contracts/utils/Strings.sol\";\n\ncontract YetiPunks is Ownable, ERC721A, ReentrancyGuard {\n  uint256 public immutable maxPerAddressDuringMint;\n  uint256 public immutable amountForDevs;\n  uint256 public immutable amountForAuctionAndDev;\n\n  mapping(address => uint256) public allowlist;\n\n  constructor(\n    uint256 maxBatchSize_,\n    uint256 collectionSize_,\n    uint256 amountForAuctionAndDev_,\n    uint256 amountForDevs_\n  ) ERC721A(\"Petty Monks\", \"PM\", maxBatchSize_, collectionSize_) {\n    maxPerAddressDuringMint = maxBatchSize_;\n    amountForAuctionAndDev = amountForAuctionAndDev_;\n    amountForDevs = amountForDevs_;\n    require(\n      amountForAuctionAndDev_ <= collectionSize_,\n      \"larger collection size needed\"\n    );\n  }\n\n  modifier callerIsUser() {\n    require(tx.origin == msg.sender, \"The caller is another contract\");\n    _;\n  }\n\n  function allowlistMint() external payable callerIsUser {\n    uint256 price = 0.05 ether;\n    require(price != 0, \"allowlist sale has not begun yet\");\n    require(allowlist[msg.sender] > 0, \"not eligible for allowlist mint\");\n    require(totalSupply() + 1 <= collectionSize, \"reached max supply\");\n    allowlist[msg.sender]--;\n    _safeMint(msg.sender, 1);\n    refundIfOver(price);\n  }\n\n  function publicSaleMint(uint256 quantity, uint256 callerPublicSaleKey)\n    external\n    payable\n    callerIsUser\n  {\n    // SaleConfig memory config = saleConfig;\n    // uint256 publicSaleKey = uint256(config.publicSaleKey);\n    uint256 publicPrice = 0.05 ether;\n    // uint256 publicSaleStartTime = uint256(config.publicSaleStartTime);/\n    // require(\n    //   publicSaleKey == callerPublicSaleKey,\n    //   \"called with incorrect public sale key\"\n    // );\n\n    // require(\n    //   isPublicSaleOn(publicPrice, publicSaleKey, publicSaleStartTime),\n    //   \"public sale has not begun yet\"\n    // );\n    require(totalSupply() + quantity <= collectionSize, \"reached max supply\");\n    require(\n      numberMinted(msg.sender) + quantity <= maxPerAddressDuringMint,\n      \"can not mint this many\"\n    );\n    _safeMint(msg.sender, quantity);\n    refundIfOver(publicPrice * quantity);\n  }\n\n  function refundIfOver(uint256 price) private {\n    require(msg.value >= price, \"Need to send more ETH.\");\n    if (msg.value > price) {\n      payable(msg.sender).transfer(msg.value - price);\n    }\n  }\n\n  function isPublicSaleOn(\n    uint256 publicPriceWei,\n    uint256 publicSaleKey,\n    uint256 publicSaleStartTime\n  ) public view returns (bool) {\n    return\n      publicPriceWei != 0 &&\n      publicSaleKey != 0 &&\n      block.timestamp >= publicSaleStartTime;\n  }\n\n//   function setPublicSaleKey(uint32 key) external onlyOwner {\n//     saleConfig.publicSaleKey = key;\n//   }\n\n  function seedAllowlist(address[] memory addresses, uint256[] memory numSlots)\n    external\n    onlyOwner\n  {\n    require(\n      addresses.length == numSlots.length,\n      \"addresses does not match numSlots length\"\n    );\n    for (uint256 i = 0; i < addresses.length; i++) {\n      allowlist[addresses[i]] = numSlots[i];\n    }\n  }\n\n  // For marketing etc.\n  function devMint(uint256 quantity) external onlyOwner {\n    require(\n      totalSupply() + quantity <= amountForDevs,\n      \"too many already minted before dev mint\"\n    );\n    require(\n      quantity % maxBatchSize == 0,\n      \"can only mint a multiple of the maxBatchSize\"\n    );\n    uint256 numChunks = quantity / maxBatchSize;\n    for (uint256 i = 0; i < numChunks; i++) {\n      _safeMint(msg.sender, maxBatchSize);\n    }\n  }\n\n  // // metadata URI\n  string private _baseTokenURI;\n\n  function _baseURI() internal view virtual override returns (string memory) {\n    return _baseTokenURI;\n  }\n\n  function setBaseURI(string calldata baseURI) external onlyOwner {\n    _baseTokenURI = baseURI;\n  }\n\n  function withdrawMoney() external onlyOwner nonReentrant {\n    (bool success, ) = msg.sender.call{value: address(this).balance}(\"\");\n    require(success, \"Transfer failed.\");\n  }\n\n  function setOwnersExplicit(uint256 quantity) external onlyOwner nonReentrant {\n    _setOwnersExplicit(quantity);\n  }\n\n  function numberMinted(address owner) public view returns (uint256) {\n    return _numberMinted(owner);\n  }\n\n  function getOwnershipData(uint256 tokenId)\n    external\n    view\n    returns (TokenOwnership memory)\n  {\n    return ownershipOf(tokenId);\n  }\n}",
  "sourcePath": "/Users/christopherfoley/nft/YetiPunks/src/contracts/YetiPunks.sol",
  "compiler": {
    "name": "solc",
    "version": "0.8.9+commit.e5eed63a.Emscripten.clang"
  },
  "schemaVersion": "3.4.4",
  "updatedAt": "2022-02-07T03:18:54.120Z",
  "networkType": "ethereum",
  "devdoc": {
    "kind": "dev",
    "methods": {
      "approve(address,uint256)": {
        "details": "See {IERC721-approve}."
      },
      "balanceOf(address)": {
        "details": "See {IERC721-balanceOf}."
      },
      "getApproved(uint256)": {
        "details": "See {IERC721-getApproved}."
      },
      "isApprovedForAll(address,address)": {
        "details": "See {IERC721-isApprovedForAll}."
      },
      "name()": {
        "details": "See {IERC721Metadata-name}."
      },
      "owner()": {
        "details": "Returns the address of the current owner."
      },
      "ownerOf(uint256)": {
        "details": "See {IERC721-ownerOf}."
      },
      "renounceOwnership()": {
        "details": "Leaves the contract without owner. It will not be possible to call `onlyOwner` functions anymore. Can only be called by the current owner. NOTE: Renouncing ownership will leave the contract without an owner, thereby removing any functionality that is only available to the owner."
      },
      "safeTransferFrom(address,address,uint256)": {
        "details": "See {IERC721-safeTransferFrom}."
      },
      "safeTransferFrom(address,address,uint256,bytes)": {
        "details": "See {IERC721-safeTransferFrom}."
      },
      "setApprovalForAll(address,bool)": {
        "details": "See {IERC721-setApprovalForAll}."
      },
      "supportsInterface(bytes4)": {
        "details": "See {IERC165-supportsInterface}."
      },
      "symbol()": {
        "details": "See {IERC721Metadata-symbol}."
      },
      "tokenByIndex(uint256)": {
        "details": "See {IERC721Enumerable-tokenByIndex}."
      },
      "tokenOfOwnerByIndex(address,uint256)": {
        "details": "See {IERC721Enumerable-tokenOfOwnerByIndex}. This read function is O(collectionSize). If calling from a separate contract, be sure to test gas first. It may also degrade with extremely large collection sizes (e.g >> 10000), test for your use case."
      },
      "tokenURI(uint256)": {
        "details": "See {IERC721Metadata-tokenURI}."
      },
      "totalSupply()": {
        "details": "See {IERC721Enumerable-totalSupply}."
      },
      "transferFrom(address,address,uint256)": {
        "details": "See {IERC721-transferFrom}."
      },
      "transferOwnership(address)": {
        "details": "Transfers ownership of the contract to a new account (`newOwner`). Can only be called by the current owner."
      }
    },
    "version": 1
  },
  "userdoc": {
    "kind": "user",
    "methods": {},
    "version": 1
  }
}