{
  "contractName": "YetiPunks",
  "abi": [
    {
      "inputs": [
        {
          "internalType": "uint256",
          "name": "maxBatchSize_",
          "type": "uint256"
        },
        {
          "internalType": "uint256",
          "name": "collectionSize_",
          "type": "uint256"
        },
        {
          "internalType": "uint256",
          "name": "amountForAuctionAndDev_",
          "type": "uint256"
        },
        {
          "internalType": "uint256",
          "name": "amountForDevs_",
          "type": "uint256"
        },
        {
          "internalType": "string",
          "name": "_initNotRevealedUri",
          "type": "string"
        }
      ],
      "stateMutability": "nonpayable",
      "type": "constructor"
    },
    {
      "anonymous": false,
      "inputs": [
        {
          "indexed": true,
          "internalType": "address",
          "name": "owner",
          "type": "address"
        },
        {
          "indexed": true,
          "internalType": "address",
          "name": "approved",
          "type": "address"
        },
        {
          "indexed": true,
          "internalType": "uint256",
          "name": "tokenId",
          "type": "uint256"
        }
      ],
      "name": "Approval",
      "type": "event"
    },
    {
      "anonymous": false,
      "inputs": [
        {
          "indexed": true,
          "internalType": "address",
          "name": "owner",
          "type": "address"
        },
        {
          "indexed": true,
          "internalType": "address",
          "name": "operator",
          "type": "address"
        },
        {
          "indexed": false,
          "internalType": "bool",
          "name": "approved",
          "type": "bool"
        }
      ],
      "name": "ApprovalForAll",
      "type": "event"
    },
    {
      "anonymous": false,
      "inputs": [
        {
          "indexed": true,
          "internalType": "address",
          "name": "previousOwner",
          "type": "address"
        },
        {
          "indexed": true,
          "internalType": "address",
          "name": "newOwner",
          "type": "address"
        }
      ],
      "name": "OwnershipTransferred",
      "type": "event"
    },
    {
      "anonymous": false,
      "inputs": [
        {
          "indexed": true,
          "internalType": "address",
          "name": "from",
          "type": "address"
        },
        {
          "indexed": true,
          "internalType": "address",
          "name": "to",
          "type": "address"
        },
        {
          "indexed": true,
          "internalType": "uint256",
          "name": "tokenId",
          "type": "uint256"
        }
      ],
      "name": "Transfer",
      "type": "event"
    },
    {
      "inputs": [
        {
          "internalType": "address",
          "name": "owner",
          "type": "address"
        }
      ],
      "name": "_numberMinted",
      "outputs": [
        {
          "internalType": "uint256",
          "name": "",
          "type": "uint256"
        }
      ],
      "stateMutability": "view",
      "type": "function",
      "constant": true
    },
    {
      "inputs": [
        {
          "internalType": "address",
          "name": "",
          "type": "address"
        }
      ],
      "name": "allowlist",
      "outputs": [
        {
          "internalType": "uint256",
          "name": "",
          "type": "uint256"
        }
      ],
      "stateMutability": "view",
      "type": "function",
      "constant": true
    },
    {
      "inputs": [],
      "name": "amountForAuctionAndDev",
      "outputs": [
        {
          "internalType": "uint256",
          "name": "",
          "type": "uint256"
        }
      ],
      "stateMutability": "view",
      "type": "function",
      "constant": true
    },
    {
      "inputs": [],
      "name": "amountForDevs",
      "outputs": [
        {
          "internalType": "uint256",
          "name": "",
          "type": "uint256"
        }
      ],
      "stateMutability": "view",
      "type": "function",
      "constant": true
    },
    {
      "inputs": [
        {
          "internalType": "address",
          "name": "to",
          "type": "address"
        },
        {
          "internalType": "uint256",
          "name": "tokenId",
          "type": "uint256"
        }
      ],
      "name": "approve",
      "outputs": [],
      "stateMutability": "nonpayable",
      "type": "function"
    },
    {
      "inputs": [
        {
          "internalType": "address",
          "name": "owner",
          "type": "address"
        }
      ],
      "name": "balanceOf",
      "outputs": [
        {
          "internalType": "uint256",
          "name": "",
          "type": "uint256"
        }
      ],
      "stateMutability": "view",
      "type": "function",
      "constant": true
    },
    {
      "inputs": [
        {
          "internalType": "uint256",
          "name": "tokenId",
          "type": "uint256"
        }
      ],
      "name": "getApproved",
      "outputs": [
        {
          "internalType": "address",
          "name": "",
          "type": "address"
        }
      ],
      "stateMutability": "view",
      "type": "function",
      "constant": true
    },
    {
      "inputs": [
        {
          "internalType": "address",
          "name": "owner",
          "type": "address"
        },
        {
          "internalType": "address",
          "name": "operator",
          "type": "address"
        }
      ],
      "name": "isApprovedForAll",
      "outputs": [
        {
          "internalType": "bool",
          "name": "",
          "type": "bool"
        }
      ],
      "stateMutability": "view",
      "type": "function",
      "constant": true
    },
    {
      "inputs": [],
      "name": "maxPerAddressDuringPresale",
      "outputs": [
        {
          "internalType": "uint256",
          "name": "",
          "type": "uint256"
        }
      ],
      "stateMutability": "view",
      "type": "function",
      "constant": true
    },
    {
      "inputs": [],
      "name": "maxPerTxn",
      "outputs": [
        {
          "internalType": "uint256",
          "name": "",
          "type": "uint256"
        }
      ],
      "stateMutability": "view",
      "type": "function",
      "constant": true
    },
    {
      "inputs": [],
      "name": "name",
      "outputs": [
        {
          "internalType": "string",
          "name": "",
          "type": "string"
        }
      ],
      "stateMutability": "view",
      "type": "function",
      "constant": true
    },
    {
      "inputs": [],
      "name": "nextOwnerToExplicitlySet",
      "outputs": [
        {
          "internalType": "uint256",
          "name": "",
          "type": "uint256"
        }
      ],
      "stateMutability": "view",
      "type": "function",
      "constant": true
    },
    {
      "inputs": [],
      "name": "notRevealedUri",
      "outputs": [
        {
          "internalType": "string",
          "name": "",
          "type": "string"
        }
      ],
      "stateMutability": "view",
      "type": "function",
      "constant": true
    },
    {
      "inputs": [],
      "name": "owner",
      "outputs": [
        {
          "internalType": "address",
          "name": "",
          "type": "address"
        }
      ],
      "stateMutability": "view",
      "type": "function",
      "constant": true
    },
    {
      "inputs": [
        {
          "internalType": "uint256",
          "name": "tokenId",
          "type": "uint256"
        }
      ],
      "name": "ownerOf",
      "outputs": [
        {
          "internalType": "address",
          "name": "",
          "type": "address"
        }
      ],
      "stateMutability": "view",
      "type": "function",
      "constant": true
    },
    {
      "inputs": [],
      "name": "renounceOwnership",
      "outputs": [],
      "stateMutability": "nonpayable",
      "type": "function"
    },
    {
      "inputs": [
        {
          "internalType": "address",
          "name": "from",
          "type": "address"
        },
        {
          "internalType": "address",
          "name": "to",
          "type": "address"
        },
        {
          "internalType": "uint256",
          "name": "tokenId",
          "type": "uint256"
        }
      ],
      "name": "safeTransferFrom",
      "outputs": [],
      "stateMutability": "nonpayable",
      "type": "function"
    },
    {
      "inputs": [
        {
          "internalType": "address",
          "name": "from",
          "type": "address"
        },
        {
          "internalType": "address",
          "name": "to",
          "type": "address"
        },
        {
          "internalType": "uint256",
          "name": "tokenId",
          "type": "uint256"
        },
        {
          "internalType": "bytes",
          "name": "_data",
          "type": "bytes"
        }
      ],
      "name": "safeTransferFrom",
      "outputs": [],
      "stateMutability": "nonpayable",
      "type": "function"
    },
    {
      "inputs": [
        {
          "internalType": "address",
          "name": "operator",
          "type": "address"
        },
        {
          "internalType": "bool",
          "name": "approved",
          "type": "bool"
        }
      ],
      "name": "setApprovalForAll",
      "outputs": [],
      "stateMutability": "nonpayable",
      "type": "function"
    },
    {
      "inputs": [
        {
          "internalType": "bytes4",
          "name": "interfaceId",
          "type": "bytes4"
        }
      ],
      "name": "supportsInterface",
      "outputs": [
        {
          "internalType": "bool",
          "name": "",
          "type": "bool"
        }
      ],
      "stateMutability": "view",
      "type": "function",
      "constant": true
    },
    {
      "inputs": [],
      "name": "symbol",
      "outputs": [
        {
          "internalType": "string",
          "name": "",
          "type": "string"
        }
      ],
      "stateMutability": "view",
      "type": "function",
      "constant": true
    },
    {
      "inputs": [
        {
          "internalType": "uint256",
          "name": "index",
          "type": "uint256"
        }
      ],
      "name": "tokenByIndex",
      "outputs": [
        {
          "internalType": "uint256",
          "name": "",
          "type": "uint256"
        }
      ],
      "stateMutability": "view",
      "type": "function",
      "constant": true
    },
    {
      "inputs": [
        {
          "internalType": "address",
          "name": "owner",
          "type": "address"
        },
        {
          "internalType": "uint256",
          "name": "index",
          "type": "uint256"
        }
      ],
      "name": "tokenOfOwnerByIndex",
      "outputs": [
        {
          "internalType": "uint256",
          "name": "",
          "type": "uint256"
        }
      ],
      "stateMutability": "view",
      "type": "function",
      "constant": true
    },
    {
      "inputs": [],
      "name": "totalSupply",
      "outputs": [
        {
          "internalType": "uint256",
          "name": "",
          "type": "uint256"
        }
      ],
      "stateMutability": "view",
      "type": "function",
      "constant": true
    },
    {
      "inputs": [
        {
          "internalType": "address",
          "name": "from",
          "type": "address"
        },
        {
          "internalType": "address",
          "name": "to",
          "type": "address"
        },
        {
          "internalType": "uint256",
          "name": "tokenId",
          "type": "uint256"
        }
      ],
      "name": "transferFrom",
      "outputs": [],
      "stateMutability": "nonpayable",
      "type": "function"
    },
    {
      "inputs": [
        {
          "internalType": "address",
          "name": "newOwner",
          "type": "address"
        }
      ],
      "name": "transferOwnership",
      "outputs": [],
      "stateMutability": "nonpayable",
      "type": "function"
    },
    {
      "inputs": [
        {
          "internalType": "uint256",
          "name": "quantity",
          "type": "uint256"
        }
      ],
      "name": "allowlistMint",
      "outputs": [],
      "stateMutability": "payable",
      "type": "function",
      "payable": true
    },
    {
      "inputs": [
        {
          "internalType": "uint256",
          "name": "quantity",
          "type": "uint256"
        }
      ],
      "name": "publicSaleMint",
      "outputs": [],
      "stateMutability": "payable",
      "type": "function",
      "payable": true
    },
    {
      "inputs": [
        {
          "internalType": "uint256",
          "name": "publicPriceWei",
          "type": "uint256"
        },
        {
          "internalType": "uint256",
          "name": "publicSaleKey",
          "type": "uint256"
        },
        {
          "internalType": "uint256",
          "name": "publicSaleStartTime",
          "type": "uint256"
        }
      ],
      "name": "isPublicSaleOn",
      "outputs": [
        {
          "internalType": "bool",
          "name": "",
          "type": "bool"
        }
      ],
      "stateMutability": "view",
      "type": "function",
      "constant": true
    },
    {
      "inputs": [
        {
          "internalType": "address[]",
          "name": "addresses",
          "type": "address[]"
        },
        {
          "internalType": "uint256[]",
          "name": "numSlots",
          "type": "uint256[]"
        }
      ],
      "name": "seedAllowlist",
      "outputs": [],
      "stateMutability": "nonpayable",
      "type": "function"
    },
    {
      "inputs": [
        {
          "internalType": "uint256",
          "name": "quantity",
          "type": "uint256"
        }
      ],
      "name": "devMint",
      "outputs": [],
      "stateMutability": "nonpayable",
      "type": "function"
    },
    {
      "inputs": [
        {
          "internalType": "string",
          "name": "_notRevealedURI",
          "type": "string"
        }
      ],
      "name": "setNotRevealedURI",
      "outputs": [],
      "stateMutability": "nonpayable",
      "type": "function"
    },
    {
      "inputs": [
        {
          "internalType": "string",
          "name": "baseURI",
          "type": "string"
        }
      ],
      "name": "setBaseURI",
      "outputs": [],
      "stateMutability": "nonpayable",
      "type": "function"
    },
    {
      "inputs": [
        {
          "internalType": "uint256",
          "name": "tokenId",
          "type": "uint256"
        }
      ],
      "name": "tokenURI",
      "outputs": [
        {
          "internalType": "string",
          "name": "",
          "type": "string"
        }
      ],
      "stateMutability": "view",
      "type": "function",
      "constant": true
    },
    {
      "inputs": [],
      "name": "withdrawBalance",
      "outputs": [],
      "stateMutability": "nonpayable",
      "type": "function"
    },
    {
      "inputs": [
        {
          "internalType": "uint256",
          "name": "quantity",
          "type": "uint256"
        }
      ],
      "name": "setOwnersExplicit",
      "outputs": [],
      "stateMutability": "nonpayable",
      "type": "function"
    },
    {
      "inputs": [
        {
          "internalType": "address",
          "name": "owner",
          "type": "address"
        }
      ],
      "name": "numberMinted",
      "outputs": [
        {
          "internalType": "uint256",
          "name": "",
          "type": "uint256"
        }
      ],
      "stateMutability": "view",
      "type": "function",
      "constant": true
    },
    {
      "inputs": [
        {
          "internalType": "uint256",
          "name": "tokenId",
          "type": "uint256"
        }
      ],
      "name": "getOwnershipData",
      "outputs": [
        {
          "components": [
            {
              "internalType": "address",
              "name": "addr",
              "type": "address"
            },
            {
              "internalType": "uint64",
              "name": "startTimestamp",
              "type": "uint64"
            }
          ],
          "internalType": "struct ERC721A.TokenOwnership",
          "name": "",
          "type": "tuple"
        }
      ],
      "stateMutability": "view",
      "type": "function",
      "constant": true
    }
  ],
  "bytecode": "0x61014060405260006001556000600855600560e0908152503480156200002457600080fd5b506040516200641f3803806200641f83398181016040528101906200004a919062000656565b6040518060400160405280600b81526020017f5065747479204d6f6e6b730000000000000000000000000000000000000000008152506040518060400160405280600281526020017f504d0000000000000000000000000000000000000000000000000000000000008152508686620000d8620000cc6200022e60201b60201c565b6200023660201b60201c565b600081116200011e576040517f08c379a0000000000000000000000000000000000000000000000000000000008152600401620001159062000784565b60405180910390fd5b6000821162000164576040517f08c379a00000000000000000000000000000000000000000000000000000000081526004016200015b906200081c565b60405180910390fd5b83600290805190602001906200017c929190620003ce565b50826003908051906020019062000195929190620003ce565b508160a0818152505080608081815250505050505060016009819055508460c081815250508261012081815250508161010081815250508383111562000212576040517f08c379a000000000000000000000000000000000000000000000000000000000815260040162000209906200088e565b60405180910390fd5b6200022381620002fa60201b60201c565b505050505062000987565b600033905090565b60008060009054906101000a900473ffffffffffffffffffffffffffffffffffffffff169050816000806101000a81548173ffffffffffffffffffffffffffffffffffffffff021916908373ffffffffffffffffffffffffffffffffffffffff1602179055508173ffffffffffffffffffffffffffffffffffffffff168173ffffffffffffffffffffffffffffffffffffffff167f8be0079c531659141344cd1fd0a4f28419497f9722a3daafe3b4186f6b6457e060405160405180910390a35050565b6200030a6200022e60201b60201c565b73ffffffffffffffffffffffffffffffffffffffff1662000330620003a560201b60201c565b73ffffffffffffffffffffffffffffffffffffffff161462000389576040517f08c379a0000000000000000000000000000000000000000000000000000000008152600401620003809062000900565b60405180910390fd5b80600a9080519060200190620003a1929190620003ce565b5050565b60008060009054906101000a900473ffffffffffffffffffffffffffffffffffffffff16905090565b828054620003dc9062000951565b90600052602060002090601f0160209004810192826200040057600085556200044c565b82601f106200041b57805160ff19168380011785556200044c565b828001600101855582156200044c579182015b828111156200044b5782518255916020019190600101906200042e565b5b5090506200045b91906200045f565b5090565b5b808211156200047a57600081600090555060010162000460565b5090565b6000604051905090565b600080fd5b600080fd5b6000819050919050565b620004a78162000492565b8114620004b357600080fd5b50565b600081519050620004c7816200049c565b92915050565b600080fd5b600080fd5b6000601f19601f8301169050919050565b7f4e487b7100000000000000000000000000000000000000000000000000000000600052604160045260246000fd5b6200052282620004d7565b810181811067ffffffffffffffff82111715620005445762000543620004e8565b5b80604052505050565b6000620005596200047e565b905062000567828262000517565b919050565b600067ffffffffffffffff8211156200058a5762000589620004e8565b5b6200059582620004d7565b9050602081019050919050565b60005b83811015620005c2578082015181840152602081019050620005a5565b83811115620005d2576000848401525b50505050565b6000620005ef620005e9846200056c565b6200054d565b9050828152602081018484840111156200060e576200060d620004d2565b5b6200061b848285620005a2565b509392505050565b600082601f8301126200063b576200063a620004cd565b5b81516200064d848260208601620005d8565b91505092915050565b600080600080600060a0868803121562000675576200067462000488565b5b60006200068588828901620004b6565b95505060206200069888828901620004b6565b9450506040620006ab88828901620004b6565b9350506060620006be88828901620004b6565b925050608086015167ffffffffffffffff811115620006e257620006e16200048d565b5b620006f08882890162000623565b9150509295509295909350565b600082825260208201905092915050565b7f455243373231413a20636f6c6c656374696f6e206d757374206861766520612060008201527f6e6f6e7a65726f20737570706c79000000000000000000000000000000000000602082015250565b60006200076c602e83620006fd565b915062000779826200070e565b604082019050919050565b600060208201905081810360008301526200079f816200075d565b9050919050565b7f455243373231413a206d61782062617463682073697a65206d7573742062652060008201527f6e6f6e7a65726f00000000000000000000000000000000000000000000000000602082015250565b600062000804602783620006fd565b91506200081182620007a6565b604082019050919050565b600060208201905081810360008301526200083781620007f5565b9050919050565b7f6c617267657220636f6c6c656374696f6e2073697a65206e6565646564000000600082015250565b600062000876601d83620006fd565b915062000883826200083e565b602082019050919050565b60006020820190508181036000830152620008a98162000867565b9050919050565b7f4f776e61626c653a2063616c6c6572206973206e6f7420746865206f776e6572600082015250565b6000620008e8602083620006fd565b9150620008f582620008b0565b602082019050919050565b600060208201905081810360008301526200091b81620008d9565b9050919050565b7f4e487b7100000000000000000000000000000000000000000000000000000000600052602260045260246000fd5b600060028204905060018216806200096a57607f821691505b6020821081141562000981576200098062000922565b5b50919050565b60805160a05160c05160e0516101005161012051615a0962000a1660003960006113b50152600081816110960152612315015260008181611a090152611eca01526000818161110b0152818161117b0152611c78015260008181612d2201528181612d4b015261348e015260008181611c0301528181611e5501528181612a8c0152612ac00152615a096000f3fe6080604052600436106102255760003560e01c806370a0823111610123578063b3ab66b0116100ab578063dc33e6811161006f578063dc33e68114610823578063e985e9c514610860578063f2c4ce1e1461089d578063f2fde38b146108c6578063fbe1aa51146108ef57610225565b8063b3ab66b01461075a578063b88d4fde14610776578063c180526a1461079f578063c87b56dd146107bb578063d7224ba0146107f857610225565b806395d89b41116100f257806395d89b4114610675578063a22cb465146106a0578063a7cd52cb146106c9578063abdb297a14610706578063b05863d51461073157610225565b806370a08231146105b9578063715018a6146105f65780638da5cb5b1461060d5780639231ab2a1461063857610225565b8063375a069a116101b15780634f6ccce7116101755780634f6ccce7146104d457806355f804b3146105115780635666c8801461053a5780635fd8c710146105655780636352211e1461057c57610225565b8063375a069a146103dd5780633cb5199414610406578063422030ba1461043157806342842e0e1461046e5780634d388a981461049757610225565b8063095ea7b3116101f8578063095ea7b3146102fa57806318160ddd1461032357806323b872dd1461034e5780632d20fb60146103775780632f745c59146103a057610225565b806301ffc9a71461022a57806306fdde0314610267578063081812fc14610292578063081c8c44146102cf575b600080fd5b34801561023657600080fd5b50610251600480360381019061024c9190613a8e565b61091a565b60405161025e9190613ad6565b60405180910390f35b34801561027357600080fd5b5061027c610a64565b6040516102899190613b8a565b60405180910390f35b34801561029e57600080fd5b506102b960048036038101906102b49190613be2565b610af6565b6040516102c69190613c50565b60405180910390f35b3480156102db57600080fd5b506102e4610b7b565b6040516102f19190613b8a565b60405180910390f35b34801561030657600080fd5b50610321600480360381019061031c9190613c97565b610c09565b005b34801561032f57600080fd5b50610338610d22565b6040516103459190613ce6565b60405180910390f35b34801561035a57600080fd5b5061037560048036038101906103709190613d01565b610d2c565b005b34801561038357600080fd5b5061039e60048036038101906103999190613be2565b610d3c565b005b3480156103ac57600080fd5b506103c760048036038101906103c29190613c97565b610e1a565b6040516103d49190613ce6565b60405180910390f35b3480156103e957600080fd5b5061040460048036038101906103ff9190613be2565b611018565b005b34801561041257600080fd5b5061041b611179565b6040516104289190613ce6565b60405180910390f35b34801561043d57600080fd5b5061045860048036038101906104539190613d54565b61119d565b6040516104659190613ad6565b60405180910390f35b34801561047a57600080fd5b5061049560048036038101906104909190613d01565b6111c5565b005b3480156104a357600080fd5b506104be60048036038101906104b99190613da7565b6111e5565b6040516104cb9190613ce6565b60405180910390f35b3480156104e057600080fd5b506104fb60048036038101906104f69190613be2565b6112ce565b6040516105089190613ce6565b60405180910390f35b34801561051d57600080fd5b5061053860048036038101906105339190613e39565b611321565b005b34801561054657600080fd5b5061054f6113b3565b60405161055c9190613ce6565b60405180910390f35b34801561057157600080fd5b5061057a6113d7565b005b34801561058857600080fd5b506105a3600480360381019061059e9190613be2565b611614565b6040516105b09190613c50565b60405180910390f35b3480156105c557600080fd5b506105e060048036038101906105db9190613da7565b61162a565b6040516105ed9190613ce6565b60405180910390f35b34801561060257600080fd5b5061060b611713565b005b34801561061957600080fd5b5061062261179b565b60405161062f9190613c50565b60405180910390f35b34801561064457600080fd5b5061065f600480360381019061065a9190613be2565b6117c4565b60405161066c9190613ee7565b60405180910390f35b34801561068157600080fd5b5061068a6117dc565b6040516106979190613b8a565b60405180910390f35b3480156106ac57600080fd5b506106c760048036038101906106c29190613f2e565b61186e565b005b3480156106d557600080fd5b506106f060048036038101906106eb9190613da7565b6119ef565b6040516106fd9190613ce6565b60405180910390f35b34801561071257600080fd5b5061071b611a07565b6040516107289190613ce6565b60405180910390f35b34801561073d57600080fd5b506107586004803603810190610753919061416f565b611a2b565b005b610774600480360381019061076f9190613be2565b611b87565b005b34801561078257600080fd5b5061079d6004803603810190610798919061429c565b611cfb565b005b6107b960048036038101906107b49190613be2565b611d57565b005b3480156107c757600080fd5b506107e260048036038101906107dd9190613be2565b611fb6565b6040516107ef9190613b8a565b60405180910390f35b34801561080457600080fd5b5061080d6120d9565b60405161081a9190613ce6565b60405180910390f35b34801561082f57600080fd5b5061084a60048036038101906108459190613da7565b6120df565b6040516108579190613ce6565b60405180910390f35b34801561086c57600080fd5b506108876004803603810190610882919061431f565b6120f1565b6040516108949190613ad6565b60405180910390f35b3480156108a957600080fd5b506108c460048036038101906108bf9190614400565b612185565b005b3480156108d257600080fd5b506108ed60048036038101906108e89190613da7565b61221b565b005b3480156108fb57600080fd5b50610904612313565b6040516109119190613ce6565b60405180910390f35b60007f80ac58cd000000000000000000000000000000000000000000000000000000007bffffffffffffffffffffffffffffffffffffffffffffffffffffffff1916827bffffffffffffffffffffffffffffffffffffffffffffffffffffffff191614806109e557507f5b5e139f000000000000000000000000000000000000000000000000000000007bffffffffffffffffffffffffffffffffffffffffffffffffffffffff1916827bffffffffffffffffffffffffffffffffffffffffffffffffffffffff1916145b80610a4d57507f780e9d63000000000000000000000000000000000000000000000000000000007bffffffffffffffffffffffffffffffffffffffffffffffffffffffff1916827bffffffffffffffffffffffffffffffffffffffffffffffffffffffff1916145b80610a5d5750610a5c82612337565b5b9050919050565b606060028054610a7390614478565b80601f0160208091040260200160405190810160405280929190818152602001828054610a9f90614478565b8015610aec5780601f10610ac157610100808354040283529160200191610aec565b820191906000526020600020905b815481529060010190602001808311610acf57829003601f168201915b5050505050905090565b6000610b01826123a1565b610b40576040517f08c379a0000000000000000000000000000000000000000000000000000000008152600401610b379061451c565b60405180910390fd5b6006600083815260200190815260200160002060009054906101000a900473ffffffffffffffffffffffffffffffffffffffff169050919050565b600a8054610b8890614478565b80601f0160208091040260200160405190810160405280929190818152602001828054610bb490614478565b8015610c015780601f10610bd657610100808354040283529160200191610c01565b820191906000526020600020905b815481529060010190602001808311610be457829003601f168201915b505050505081565b6000610c1482611614565b90508073ffffffffffffffffffffffffffffffffffffffff168373ffffffffffffffffffffffffffffffffffffffff161415610c85576040517f08c379a0000000000000000000000000000000000000000000000000000000008152600401610c7c906145ae565b60405180910390fd5b8073ffffffffffffffffffffffffffffffffffffffff16610ca46123af565b73ffffffffffffffffffffffffffffffffffffffff161480610cd35750610cd281610ccd6123af565b6120f1565b5b610d12576040517f08c379a0000000000000000000000000000000000000000000000000000000008152600401610d0990614640565b60405180910390fd5b610d1d8383836123b7565b505050565b6000600154905090565b610d37838383612469565b505050565b610d446123af565b73ffffffffffffffffffffffffffffffffffffffff16610d6261179b565b73ffffffffffffffffffffffffffffffffffffffff1614610db8576040517f08c379a0000000000000000000000000000000000000000000000000000000008152600401610daf906146ac565b60405180910390fd5b60026009541415610dfe576040517f08c379a0000000000000000000000000000000000000000000000000000000008152600401610df590614718565b60405180910390fd5b6002600981905550610e0f81612a22565b600160098190555050565b6000610e258361162a565b8210610e66576040517f08c379a0000000000000000000000000000000000000000000000000000000008152600401610e5d906147aa565b60405180910390fd5b6000610e70610d22565b905060008060005b83811015610fd6576000600460008381526020019081526020016000206040518060400160405290816000820160009054906101000a900473ffffffffffffffffffffffffffffffffffffffff1673ffffffffffffffffffffffffffffffffffffffff1673ffffffffffffffffffffffffffffffffffffffff1681526020016000820160149054906101000a900467ffffffffffffffff1667ffffffffffffffff1667ffffffffffffffff16815250509050600073ffffffffffffffffffffffffffffffffffffffff16816000015173ffffffffffffffffffffffffffffffffffffffff1614610f6a57806000015192505b8773ffffffffffffffffffffffffffffffffffffffff168373ffffffffffffffffffffffffffffffffffffffff161415610fc25786841415610fb3578195505050505050611012565b8380610fbe906147f9565b9450505b508080610fce906147f9565b915050610e78565b506040517f08c379a0000000000000000000000000000000000000000000000000000000008152600401611009906148b4565b60405180910390fd5b92915050565b6110206123af565b73ffffffffffffffffffffffffffffffffffffffff1661103e61179b565b73ffffffffffffffffffffffffffffffffffffffff1614611094576040517f08c379a000000000000000000000000000000000000000000000000000000000815260040161108b906146ac565b60405180910390fd5b7f0000000000000000000000000000000000000000000000000000000000000000816110be610d22565b6110c891906148d4565b1115611109576040517f08c379a00000000000000000000000000000000000000000000000000000000081526004016111009061499c565b60405180910390fd5b7f000000000000000000000000000000000000000000000000000000000000000081111561116c576040517f08c379a000000000000000000000000000000000000000000000000000000000815260040161116390614a2e565b60405180910390fd5b6111763382612cb0565b50565b7f000000000000000000000000000000000000000000000000000000000000000081565b60008084141580156111b0575060008314155b80156111bc5750814210155b90509392505050565b6111e083838360405180602001604052806000815250611cfb565b505050565b60008073ffffffffffffffffffffffffffffffffffffffff168273ffffffffffffffffffffffffffffffffffffffff161415611256576040517f08c379a000000000000000000000000000000000000000000000000000000000815260040161124d90614ac0565b60405180910390fd5b600560008373ffffffffffffffffffffffffffffffffffffffff1673ffffffffffffffffffffffffffffffffffffffff16815260200190815260200160002060000160109054906101000a90046fffffffffffffffffffffffffffffffff166fffffffffffffffffffffffffffffffff169050919050565b60006112d8610d22565b8210611319576040517f08c379a000000000000000000000000000000000000000000000000000000000815260040161131090614b52565b60405180910390fd5b819050919050565b6113296123af565b73ffffffffffffffffffffffffffffffffffffffff1661134761179b565b73ffffffffffffffffffffffffffffffffffffffff161461139d576040517f08c379a0000000000000000000000000000000000000000000000000000000008152600401611394906146ac565b60405180910390fd5b8181600c91906113ae9291906138bf565b505050565b7f000000000000000000000000000000000000000000000000000000000000000081565b6113df6123af565b73ffffffffffffffffffffffffffffffffffffffff166113fd61179b565b73ffffffffffffffffffffffffffffffffffffffff1614611453576040517f08c379a000000000000000000000000000000000000000000000000000000000815260040161144a906146ac565b60405180910390fd5b600060646021476114649190614b72565b61146e9190614bfb565b9050600073d61adc48afe9402b4411805ce6026ef74f94e71373ffffffffffffffffffffffffffffffffffffffff16826040516114aa90614c5d565b60006040518083038185875af1925050503d80600081146114e7576040519150601f19603f3d011682016040523d82523d6000602084013e6114ec565b606091505b50509050806114fa57600080fd5b600073e3ce04b3bcbdfa219407870ca617e18fbf503f2873ffffffffffffffffffffffffffffffffffffffff168360405161153490614c5d565b60006040518083038185875af1925050503d8060008114611571576040519150601f19603f3d011682016040523d82523d6000602084013e611576565b606091505b505090508061158457600080fd5b60007349cf0af1ce6a50e822a91a427b3e29007f9c6c0973ffffffffffffffffffffffffffffffffffffffff16476040516115be90614c5d565b60006040518083038185875af1925050503d80600081146115fb576040519150601f19603f3d011682016040523d82523d6000602084013e611600565b606091505b505090508061160e57600080fd5b50505050565b600061161f82612cce565b600001519050919050565b60008073ffffffffffffffffffffffffffffffffffffffff168273ffffffffffffffffffffffffffffffffffffffff16141561169b576040517f08c379a000000000000000000000000000000000000000000000000000000000815260040161169290614ce4565b60405180910390fd5b600560008373ffffffffffffffffffffffffffffffffffffffff1673ffffffffffffffffffffffffffffffffffffffff16815260200190815260200160002060000160009054906101000a90046fffffffffffffffffffffffffffffffff166fffffffffffffffffffffffffffffffff169050919050565b61171b6123af565b73ffffffffffffffffffffffffffffffffffffffff1661173961179b565b73ffffffffffffffffffffffffffffffffffffffff161461178f576040517f08c379a0000000000000000000000000000000000000000000000000000000008152600401611786906146ac565b60405180910390fd5b6117996000612ed1565b565b60008060009054906101000a900473ffffffffffffffffffffffffffffffffffffffff16905090565b6117cc613945565b6117d582612cce565b9050919050565b6060600380546117eb90614478565b80601f016020809104026020016040519081016040528092919081815260200182805461181790614478565b80156118645780601f1061183957610100808354040283529160200191611864565b820191906000526020600020905b81548152906001019060200180831161184757829003601f168201915b5050505050905090565b6118766123af565b73ffffffffffffffffffffffffffffffffffffffff168273ffffffffffffffffffffffffffffffffffffffff1614156118e4576040517f08c379a00000000000000000000000000000000000000000000000000000000081526004016118db90614d50565b60405180910390fd5b80600760006118f16123af565b73ffffffffffffffffffffffffffffffffffffffff1673ffffffffffffffffffffffffffffffffffffffff16815260200190815260200160002060008473ffffffffffffffffffffffffffffffffffffffff1673ffffffffffffffffffffffffffffffffffffffff16815260200190815260200160002060006101000a81548160ff0219169083151502179055508173ffffffffffffffffffffffffffffffffffffffff1661199e6123af565b73ffffffffffffffffffffffffffffffffffffffff167f17307eab39ab6107e8899845ad3d59bd9653f200f220920489ca2b5937696c31836040516119e39190613ad6565b60405180910390a35050565b600b6020528060005260406000206000915090505481565b7f000000000000000000000000000000000000000000000000000000000000000081565b611a336123af565b73ffffffffffffffffffffffffffffffffffffffff16611a5161179b565b73ffffffffffffffffffffffffffffffffffffffff1614611aa7576040517f08c379a0000000000000000000000000000000000000000000000000000000008152600401611a9e906146ac565b60405180910390fd5b8051825114611aeb576040517f08c379a0000000000000000000000000000000000000000000000000000000008152600401611ae290614de2565b60405180910390fd5b60005b8251811015611b8257818181518110611b0a57611b09614e02565b5b6020026020010151600b6000858481518110611b2957611b28614e02565b5b602002602001015173ffffffffffffffffffffffffffffffffffffffff1673ffffffffffffffffffffffffffffffffffffffff168152602001908152602001600020819055508080611b7a906147f9565b915050611aee565b505050565b3373ffffffffffffffffffffffffffffffffffffffff163273ffffffffffffffffffffffffffffffffffffffff1614611bf5576040517f08c379a0000000000000000000000000000000000000000000000000000000008152600401611bec90614e7d565b60405180910390fd5b6000666a94d74f43000090507f000000000000000000000000000000000000000000000000000000000000000082611c2b610d22565b611c3591906148d4565b1115611c76576040517f08c379a0000000000000000000000000000000000000000000000000000000008152600401611c6d90614ee9565b60405180910390fd5b7f0000000000000000000000000000000000000000000000000000000000000000821115611cd9576040517f08c379a0000000000000000000000000000000000000000000000000000000008152600401611cd090614a2e565b60405180910390fd5b611ce33383612cb0565b611cf78282611cf29190614b72565b612f95565b5050565b611d06848484612469565b611d1284848484613036565b611d51576040517f08c379a0000000000000000000000000000000000000000000000000000000008152600401611d4890614f7b565b60405180910390fd5b50505050565b3373ffffffffffffffffffffffffffffffffffffffff163273ffffffffffffffffffffffffffffffffffffffff1614611dc5576040517f08c379a0000000000000000000000000000000000000000000000000000000008152600401611dbc90614e7d565b60405180910390fd5b6000666a94d74f43000090506000600b60003373ffffffffffffffffffffffffffffffffffffffff1673ffffffffffffffffffffffffffffffffffffffff1681526020019081526020016000205411611e53576040517f08c379a0000000000000000000000000000000000000000000000000000000008152600401611e4a90614fe7565b60405180910390fd5b7f000000000000000000000000000000000000000000000000000000000000000082611e7d610d22565b611e8791906148d4565b1115611ec8576040517f08c379a0000000000000000000000000000000000000000000000000000000008152600401611ebf90614ee9565b60405180910390fd5b7f000000000000000000000000000000000000000000000000000000000000000082611ef3336120df565b611efd91906148d4565b1115611f3e576040517f08c379a0000000000000000000000000000000000000000000000000000000008152600401611f3590615053565b60405180910390fd5b81600b60003373ffffffffffffffffffffffffffffffffffffffff1673ffffffffffffffffffffffffffffffffffffffff1681526020019081526020016000206000828254611f8d9190615073565b92505081905550611f9e3383612cb0565b611fb28282611fad9190614b72565b612f95565b5050565b6060611fc06123af565b73ffffffffffffffffffffffffffffffffffffffff16611fde61179b565b73ffffffffffffffffffffffffffffffffffffffff1614612034576040517f08c379a000000000000000000000000000000000000000000000000000000000815260040161202b906146ac565b60405180910390fd5b61203d826123a1565b61207c576040517f08c379a000000000000000000000000000000000000000000000000000000000815260040161207390615119565b60405180910390fd5b60006120866131cd565b905060008151116120a657604051806020016040528060008152506120d1565b806120b08461325f565b6040516020016120c1929190615175565b6040516020818303038152906040525b915050919050565b60085481565b60006120ea826111e5565b9050919050565b6000600760008473ffffffffffffffffffffffffffffffffffffffff1673ffffffffffffffffffffffffffffffffffffffff16815260200190815260200160002060008373ffffffffffffffffffffffffffffffffffffffff1673ffffffffffffffffffffffffffffffffffffffff16815260200190815260200160002060009054906101000a900460ff16905092915050565b61218d6123af565b73ffffffffffffffffffffffffffffffffffffffff166121ab61179b565b73ffffffffffffffffffffffffffffffffffffffff1614612201576040517f08c379a00000000000000000000000000000000000000000000000000000000081526004016121f8906146ac565b60405180910390fd5b80600a908051906020019061221792919061397f565b5050565b6122236123af565b73ffffffffffffffffffffffffffffffffffffffff1661224161179b565b73ffffffffffffffffffffffffffffffffffffffff1614612297576040517f08c379a000000000000000000000000000000000000000000000000000000000815260040161228e906146ac565b60405180910390fd5b600073ffffffffffffffffffffffffffffffffffffffff168173ffffffffffffffffffffffffffffffffffffffff161415612307576040517f08c379a00000000000000000000000000000000000000000000000000000000081526004016122fe9061520b565b60405180910390fd5b61231081612ed1565b50565b7f000000000000000000000000000000000000000000000000000000000000000081565b60007f01ffc9a7000000000000000000000000000000000000000000000000000000007bffffffffffffffffffffffffffffffffffffffffffffffffffffffff1916827bffffffffffffffffffffffffffffffffffffffffffffffffffffffff1916149050919050565b600060015482109050919050565b600033905090565b826006600084815260200190815260200160002060006101000a81548173ffffffffffffffffffffffffffffffffffffffff021916908373ffffffffffffffffffffffffffffffffffffffff160217905550818373ffffffffffffffffffffffffffffffffffffffff168273ffffffffffffffffffffffffffffffffffffffff167f8c5be1e5ebec7d5bd14f71427d1e84f3dd0314c0f7b2291e5b200ac8c7c3b92560405160405180910390a4505050565b600061247482612cce565b90506000816000015173ffffffffffffffffffffffffffffffffffffffff1661249b6123af565b73ffffffffffffffffffffffffffffffffffffffff1614806124f757506124c06123af565b73ffffffffffffffffffffffffffffffffffffffff166124df84610af6565b73ffffffffffffffffffffffffffffffffffffffff16145b806125135750612512826000015161250d6123af565b6120f1565b5b905080612555576040517f08c379a000000000000000000000000000000000000000000000000000000000815260040161254c9061529d565b60405180910390fd5b8473ffffffffffffffffffffffffffffffffffffffff16826000015173ffffffffffffffffffffffffffffffffffffffff16146125c7576040517f08c379a00000000000000000000000000000000000000000000000000000000081526004016125be9061532f565b60405180910390fd5b600073ffffffffffffffffffffffffffffffffffffffff168473ffffffffffffffffffffffffffffffffffffffff161415612637576040517f08c379a000000000000000000000000000000000000000000000000000000000815260040161262e906153c1565b60405180910390fd5b61264485858560016133c0565b61265460008484600001516123b7565b6001600560008773ffffffffffffffffffffffffffffffffffffffff1673ffffffffffffffffffffffffffffffffffffffff16815260200190815260200160002060000160008282829054906101000a90046fffffffffffffffffffffffffffffffff166126c291906153fd565b92506101000a8154816fffffffffffffffffffffffffffffffff02191690836fffffffffffffffffffffffffffffffff1602179055506001600560008673ffffffffffffffffffffffffffffffffffffffff1673ffffffffffffffffffffffffffffffffffffffff16815260200190815260200160002060000160008282829054906101000a90046fffffffffffffffffffffffffffffffff166127669190615431565b92506101000a8154816fffffffffffffffffffffffffffffffff02191690836fffffffffffffffffffffffffffffffff16021790555060405180604001604052808573ffffffffffffffffffffffffffffffffffffffff1681526020014267ffffffffffffffff168152506004600085815260200190815260200160002060008201518160000160006101000a81548173ffffffffffffffffffffffffffffffffffffffff021916908373ffffffffffffffffffffffffffffffffffffffff16021790555060208201518160000160146101000a81548167ffffffffffffffff021916908367ffffffffffffffff160217905550905050600060018461286c91906148d4565b9050600073ffffffffffffffffffffffffffffffffffffffff166004600083815260200190815260200160002060000160009054906101000a900473ffffffffffffffffffffffffffffffffffffffff1673ffffffffffffffffffffffffffffffffffffffff1614156129b2576128e2816123a1565b156129b1576040518060400160405280846000015173ffffffffffffffffffffffffffffffffffffffff168152602001846020015167ffffffffffffffff168152506004600083815260200190815260200160002060008201518160000160006101000a81548173ffffffffffffffffffffffffffffffffffffffff021916908373ffffffffffffffffffffffffffffffffffffffff16021790555060208201518160000160146101000a81548167ffffffffffffffff021916908367ffffffffffffffff1602179055509050505b5b838573ffffffffffffffffffffffffffffffffffffffff168773ffffffffffffffffffffffffffffffffffffffff167fddf252ad1be2c89b69c2b068fc378daa952ba7f163c4a11628f55a4df523b3ef60405160405180910390a4612a1a86868660016133c6565b505050505050565b6000600854905060008211612a6c576040517f08c379a0000000000000000000000000000000000000000000000000000000008152600401612a63906154c3565b60405180910390fd5b600060018383612a7c91906148d4565b612a869190615073565b905060017f0000000000000000000000000000000000000000000000000000000000000000612ab59190615073565b811115612aec5760017f0000000000000000000000000000000000000000000000000000000000000000612ae99190615073565b90505b612af5816123a1565b612b34576040517f08c379a0000000000000000000000000000000000000000000000000000000008152600401612b2b90615555565b60405180910390fd5b60008290505b818111612c9757600073ffffffffffffffffffffffffffffffffffffffff166004600083815260200190815260200160002060000160009054906101000a900473ffffffffffffffffffffffffffffffffffffffff1673ffffffffffffffffffffffffffffffffffffffff161415612c84576000612bb782612cce565b90506040518060400160405280826000015173ffffffffffffffffffffffffffffffffffffffff168152602001826020015167ffffffffffffffff168152506004600084815260200190815260200160002060008201518160000160006101000a81548173ffffffffffffffffffffffffffffffffffffffff021916908373ffffffffffffffffffffffffffffffffffffffff16021790555060208201518160000160146101000a81548167ffffffffffffffff021916908367ffffffffffffffff160217905550905050505b8080612c8f906147f9565b915050612b3a565b50600181612ca591906148d4565b600881905550505050565b612cca8282604051806020016040528060008152506133cc565b5050565b612cd6613945565b612cdf826123a1565b612d1e576040517f08c379a0000000000000000000000000000000000000000000000000000000008152600401612d15906155e7565b60405180910390fd5b60007f00000000000000000000000000000000000000000000000000000000000000008310612d825760017f000000000000000000000000000000000000000000000000000000000000000084612d759190615073565b612d7f91906148d4565b90505b60008390505b818110612e90576000600460008381526020019081526020016000206040518060400160405290816000820160009054906101000a900473ffffffffffffffffffffffffffffffffffffffff1673ffffffffffffffffffffffffffffffffffffffff1673ffffffffffffffffffffffffffffffffffffffff1681526020016000820160149054906101000a900467ffffffffffffffff1667ffffffffffffffff1667ffffffffffffffff16815250509050600073ffffffffffffffffffffffffffffffffffffffff16816000015173ffffffffffffffffffffffffffffffffffffffff1614612e7c57809350505050612ecc565b508080612e8890615607565b915050612d88565b506040517f08c379a0000000000000000000000000000000000000000000000000000000008152600401612ec3906156a3565b60405180910390fd5b919050565b60008060009054906101000a900473ffffffffffffffffffffffffffffffffffffffff169050816000806101000a81548173ffffffffffffffffffffffffffffffffffffffff021916908373ffffffffffffffffffffffffffffffffffffffff1602179055508173ffffffffffffffffffffffffffffffffffffffff168173ffffffffffffffffffffffffffffffffffffffff167f8be0079c531659141344cd1fd0a4f28419497f9722a3daafe3b4186f6b6457e060405160405180910390a35050565b80341015612fd8576040517f08c379a0000000000000000000000000000000000000000000000000000000008152600401612fcf9061570f565b60405180910390fd5b80341115613033573373ffffffffffffffffffffffffffffffffffffffff166108fc82346130069190615073565b9081150290604051600060405180830381858888f19350505050158015613031573d6000803e3d6000fd5b505b50565b60006130578473ffffffffffffffffffffffffffffffffffffffff166138ac565b156131c0578373ffffffffffffffffffffffffffffffffffffffff1663150b7a026130806123af565b8786866040518563ffffffff1660e01b81526004016130a29493929190615784565b602060405180830381600087803b1580156130bc57600080fd5b505af19250505080156130ed57506040513d601f19601f820116820180604052508101906130ea91906157e5565b60015b613170573d806000811461311d576040519150601f19603f3d011682016040523d82523d6000602084013e613122565b606091505b50600081511415613168576040517f08c379a000000000000000000000000000000000000000000000000000000000815260040161315f90614f7b565b60405180910390fd5b805181602001fd5b63150b7a0260e01b7bffffffffffffffffffffffffffffffffffffffffffffffffffffffff1916817bffffffffffffffffffffffffffffffffffffffffffffffffffffffff1916149150506131c5565b600190505b949350505050565b6060600c80546131dc90614478565b80601f016020809104026020016040519081016040528092919081815260200182805461320890614478565b80156132555780601f1061322a57610100808354040283529160200191613255565b820191906000526020600020905b81548152906001019060200180831161323857829003601f168201915b5050505050905090565b606060008214156132a7576040518060400160405280600181526020017f300000000000000000000000000000000000000000000000000000000000000081525090506133bb565b600082905060005b600082146132d95780806132c2906147f9565b915050600a826132d29190614bfb565b91506132af565b60008167ffffffffffffffff8111156132f5576132f4613f6e565b5b6040519080825280601f01601f1916602001820160405280156133275781602001600182028036833780820191505090505b5090505b600085146133b4576001826133409190615073565b9150600a8561334f9190615812565b603061335b91906148d4565b60f81b81838151811061337157613370614e02565b5b60200101907effffffffffffffffffffffffffffffffffffffffffffffffffffffffffffff1916908160001a905350600a856133ad9190614bfb565b945061332b565b8093505050505b919050565b50505050565b50505050565b60006001549050600073ffffffffffffffffffffffffffffffffffffffff168473ffffffffffffffffffffffffffffffffffffffff161415613443576040517f08c379a000000000000000000000000000000000000000000000000000000000815260040161343a906158b5565b60405180910390fd5b61344c816123a1565b1561348c576040517f08c379a000000000000000000000000000000000000000000000000000000000815260040161348390615921565b60405180910390fd5b7f00000000000000000000000000000000000000000000000000000000000000008311156134ef576040517f08c379a00000000000000000000000000000000000000000000000000000000081526004016134e6906159b3565b60405180910390fd5b6134fc60008583866133c0565b6000600560008673ffffffffffffffffffffffffffffffffffffffff1673ffffffffffffffffffffffffffffffffffffffff1681526020019081526020016000206040518060400160405290816000820160009054906101000a90046fffffffffffffffffffffffffffffffff166fffffffffffffffffffffffffffffffff166fffffffffffffffffffffffffffffffff1681526020016000820160109054906101000a90046fffffffffffffffffffffffffffffffff166fffffffffffffffffffffffffffffffff166fffffffffffffffffffffffffffffffff1681525050905060405180604001604052808583600001516135f99190615431565b6fffffffffffffffffffffffffffffffff1681526020018583602001516136209190615431565b6fffffffffffffffffffffffffffffffff16815250600560008773ffffffffffffffffffffffffffffffffffffffff1673ffffffffffffffffffffffffffffffffffffffff16815260200190815260200160002060008201518160000160006101000a8154816fffffffffffffffffffffffffffffffff02191690836fffffffffffffffffffffffffffffffff16021790555060208201518160000160106101000a8154816fffffffffffffffffffffffffffffffff02191690836fffffffffffffffffffffffffffffffff16021790555090505060405180604001604052808673ffffffffffffffffffffffffffffffffffffffff1681526020014267ffffffffffffffff168152506004600084815260200190815260200160002060008201518160000160006101000a81548173ffffffffffffffffffffffffffffffffffffffff021916908373ffffffffffffffffffffffffffffffffffffffff16021790555060208201518160000160146101000a81548167ffffffffffffffff021916908367ffffffffffffffff160217905550905050600082905060005b8581101561388f57818773ffffffffffffffffffffffffffffffffffffffff16600073ffffffffffffffffffffffffffffffffffffffff167fddf252ad1be2c89b69c2b068fc378daa952ba7f163c4a11628f55a4df523b3ef60405160405180910390a461382f6000888488613036565b61386e576040517f08c379a000000000000000000000000000000000000000000000000000000000815260040161386590614f7b565b60405180910390fd5b8180613879906147f9565b9250508080613887906147f9565b9150506137be565b50806001819055506138a460008785886133c6565b505050505050565b600080823b905060008111915050919050565b8280546138cb90614478565b90600052602060002090601f0160209004810192826138ed5760008555613934565b82601f1061390657803560ff1916838001178555613934565b82800160010185558215613934579182015b82811115613933578235825591602001919060010190613918565b5b5090506139419190613a05565b5090565b6040518060400160405280600073ffffffffffffffffffffffffffffffffffffffff168152602001600067ffffffffffffffff1681525090565b82805461398b90614478565b90600052602060002090601f0160209004810192826139ad57600085556139f4565b82601f106139c657805160ff19168380011785556139f4565b828001600101855582156139f4579182015b828111156139f35782518255916020019190600101906139d8565b5b509050613a019190613a05565b5090565b5b80821115613a1e576000816000905550600101613a06565b5090565b6000604051905090565b600080fd5b600080fd5b60007fffffffff0000000000000000000000000000000000000000000000000000000082169050919050565b613a6b81613a36565b8114613a7657600080fd5b50565b600081359050613a8881613a62565b92915050565b600060208284031215613aa457613aa3613a2c565b5b6000613ab284828501613a79565b91505092915050565b60008115159050919050565b613ad081613abb565b82525050565b6000602082019050613aeb6000830184613ac7565b92915050565b600081519050919050565b600082825260208201905092915050565b60005b83811015613b2b578082015181840152602081019050613b10565b83811115613b3a576000848401525b50505050565b6000601f19601f8301169050919050565b6000613b5c82613af1565b613b668185613afc565b9350613b76818560208601613b0d565b613b7f81613b40565b840191505092915050565b60006020820190508181036000830152613ba48184613b51565b905092915050565b6000819050919050565b613bbf81613bac565b8114613bca57600080fd5b50565b600081359050613bdc81613bb6565b92915050565b600060208284031215613bf857613bf7613a2c565b5b6000613c0684828501613bcd565b91505092915050565b600073ffffffffffffffffffffffffffffffffffffffff82169050919050565b6000613c3a82613c0f565b9050919050565b613c4a81613c2f565b82525050565b6000602082019050613c656000830184613c41565b92915050565b613c7481613c2f565b8114613c7f57600080fd5b50565b600081359050613c9181613c6b565b92915050565b60008060408385031215613cae57613cad613a2c565b5b6000613cbc85828601613c82565b9250506020613ccd85828601613bcd565b9150509250929050565b613ce081613bac565b82525050565b6000602082019050613cfb6000830184613cd7565b92915050565b600080600060608486031215613d1a57613d19613a2c565b5b6000613d2886828701613c82565b9350506020613d3986828701613c82565b9250506040613d4a86828701613bcd565b9150509250925092565b600080600060608486031215613d6d57613d6c613a2c565b5b6000613d7b86828701613bcd565b9350506020613d8c86828701613bcd565b9250506040613d9d86828701613bcd565b9150509250925092565b600060208284031215613dbd57613dbc613a2c565b5b6000613dcb84828501613c82565b91505092915050565b600080fd5b600080fd5b600080fd5b60008083601f840112613df957613df8613dd4565b5b8235905067ffffffffffffffff811115613e1657613e15613dd9565b5b602083019150836001820283011115613e3257613e31613dde565b5b9250929050565b60008060208385031215613e5057613e4f613a2c565b5b600083013567ffffffffffffffff811115613e6e57613e6d613a31565b5b613e7a85828601613de3565b92509250509250929050565b613e8f81613c2f565b82525050565b600067ffffffffffffffff82169050919050565b613eb281613e95565b82525050565b604082016000820151613ece6000850182613e86565b506020820151613ee16020850182613ea9565b50505050565b6000604082019050613efc6000830184613eb8565b92915050565b613f0b81613abb565b8114613f1657600080fd5b50565b600081359050613f2881613f02565b92915050565b60008060408385031215613f4557613f44613a2c565b5b6000613f5385828601613c82565b9250506020613f6485828601613f19565b9150509250929050565b7f4e487b7100000000000000000000000000000000000000000000000000000000600052604160045260246000fd5b613fa682613b40565b810181811067ffffffffffffffff82111715613fc557613fc4613f6e565b5b80604052505050565b6000613fd8613a22565b9050613fe48282613f9d565b919050565b600067ffffffffffffffff82111561400457614003613f6e565b5b602082029050602081019050919050565b600061402861402384613fe9565b613fce565b9050808382526020820190506020840283018581111561404b5761404a613dde565b5b835b8181101561407457806140608882613c82565b84526020840193505060208101905061404d565b5050509392505050565b600082601f83011261409357614092613dd4565b5b81356140a3848260208601614015565b91505092915050565b600067ffffffffffffffff8211156140c7576140c6613f6e565b5b602082029050602081019050919050565b60006140eb6140e6846140ac565b613fce565b9050808382526020820190506020840283018581111561410e5761410d613dde565b5b835b8181101561413757806141238882613bcd565b845260208401935050602081019050614110565b5050509392505050565b600082601f83011261415657614155613dd4565b5b81356141668482602086016140d8565b91505092915050565b6000806040838503121561418657614185613a2c565b5b600083013567ffffffffffffffff8111156141a4576141a3613a31565b5b6141b08582860161407e565b925050602083013567ffffffffffffffff8111156141d1576141d0613a31565b5b6141dd85828601614141565b9150509250929050565b600080fd5b600067ffffffffffffffff82111561420757614206613f6e565b5b61421082613b40565b9050602081019050919050565b82818337600083830152505050565b600061423f61423a846141ec565b613fce565b90508281526020810184848401111561425b5761425a6141e7565b5b61426684828561421d565b509392505050565b600082601f83011261428357614282613dd4565b5b813561429384826020860161422c565b91505092915050565b600080600080608085870312156142b6576142b5613a2c565b5b60006142c487828801613c82565b94505060206142d587828801613c82565b93505060406142e687828801613bcd565b925050606085013567ffffffffffffffff81111561430757614306613a31565b5b6143138782880161426e565b91505092959194509250565b6000806040838503121561433657614335613a2c565b5b600061434485828601613c82565b925050602061435585828601613c82565b9150509250929050565b600067ffffffffffffffff82111561437a57614379613f6e565b5b61438382613b40565b9050602081019050919050565b60006143a361439e8461435f565b613fce565b9050828152602081018484840111156143bf576143be6141e7565b5b6143ca84828561421d565b509392505050565b600082601f8301126143e7576143e6613dd4565b5b81356143f7848260208601614390565b91505092915050565b60006020828403121561441657614415613a2c565b5b600082013567ffffffffffffffff81111561443457614433613a31565b5b614440848285016143d2565b91505092915050565b7f4e487b7100000000000000000000000000000000000000000000000000000000600052602260045260246000fd5b6000600282049050600182168061449057607f821691505b602082108114156144a4576144a3614449565b5b50919050565b7f455243373231413a20617070726f76656420717565727920666f72206e6f6e6560008201527f78697374656e7420746f6b656e00000000000000000000000000000000000000602082015250565b6000614506602d83613afc565b9150614511826144aa565b604082019050919050565b60006020820190508181036000830152614535816144f9565b9050919050565b7f455243373231413a20617070726f76616c20746f2063757272656e74206f776e60008201527f6572000000000000000000000000000000000000000000000000000000000000602082015250565b6000614598602283613afc565b91506145a38261453c565b604082019050919050565b600060208201905081810360008301526145c78161458b565b9050919050565b7f455243373231413a20617070726f76652063616c6c6572206973206e6f74206f60008201527f776e6572206e6f7220617070726f76656420666f7220616c6c00000000000000602082015250565b600061462a603983613afc565b9150614635826145ce565b604082019050919050565b600060208201905081810360008301526146598161461d565b9050919050565b7f4f776e61626c653a2063616c6c6572206973206e6f7420746865206f776e6572600082015250565b6000614696602083613afc565b91506146a182614660565b602082019050919050565b600060208201905081810360008301526146c581614689565b9050919050565b7f5265656e7472616e637947756172643a207265656e7472616e742063616c6c00600082015250565b6000614702601f83613afc565b915061470d826146cc565b602082019050919050565b60006020820190508181036000830152614731816146f5565b9050919050565b7f455243373231413a206f776e657220696e646578206f7574206f6620626f756e60008201527f6473000000000000000000000000000000000000000000000000000000000000602082015250565b6000614794602283613afc565b915061479f82614738565b604082019050919050565b600060208201905081810360008301526147c381614787565b9050919050565b7f4e487b7100000000000000000000000000000000000000000000000000000000600052601160045260246000fd5b600061480482613bac565b91507fffffffffffffffffffffffffffffffffffffffffffffffffffffffffffffffff821415614837576148366147ca565b5b600182019050919050565b7f455243373231413a20756e61626c6520746f2067657420746f6b656e206f662060008201527f6f776e657220627920696e646578000000000000000000000000000000000000602082015250565b600061489e602e83613afc565b91506148a982614842565b604082019050919050565b600060208201905081810360008301526148cd81614891565b9050919050565b60006148df82613bac565b91506148ea83613bac565b9250827fffffffffffffffffffffffffffffffffffffffffffffffffffffffffffffffff0382111561491f5761491e6147ca565b5b828201905092915050565b7f746f6f206d616e7920616c7265616479206d696e746564206265666f7265206460008201527f6576206d696e7400000000000000000000000000000000000000000000000000602082015250565b6000614986602783613afc565b91506149918261492a565b604082019050919050565b600060208201905081810360008301526149b581614979565b9050919050565b7f63616e206e6f74206d696e742074686973206d616e7920696e206f6e6520626160008201527f7463680000000000000000000000000000000000000000000000000000000000602082015250565b6000614a18602383613afc565b9150614a23826149bc565b604082019050919050565b60006020820190508181036000830152614a4781614a0b565b9050919050565b7f455243373231413a206e756d626572206d696e74656420717565727920666f7260008201527f20746865207a65726f2061646472657373000000000000000000000000000000602082015250565b6000614aaa603183613afc565b9150614ab582614a4e565b604082019050919050565b60006020820190508181036000830152614ad981614a9d565b9050919050565b7f455243373231413a20676c6f62616c20696e646578206f7574206f6620626f7560008201527f6e64730000000000000000000000000000000000000000000000000000000000602082015250565b6000614b3c602383613afc565b9150614b4782614ae0565b604082019050919050565b60006020820190508181036000830152614b6b81614b2f565b9050919050565b6000614b7d82613bac565b9150614b8883613bac565b9250817fffffffffffffffffffffffffffffffffffffffffffffffffffffffffffffffff0483118215151615614bc157614bc06147ca565b5b828202905092915050565b7f4e487b7100000000000000000000000000000000000000000000000000000000600052601260045260246000fd5b6000614c0682613bac565b9150614c1183613bac565b925082614c2157614c20614bcc565b5b828204905092915050565b600081905092915050565b50565b6000614c47600083614c2c565b9150614c5282614c37565b600082019050919050565b6000614c6882614c3a565b9150819050919050565b7f455243373231413a2062616c616e636520717565727920666f7220746865207a60008201527f65726f2061646472657373000000000000000000000000000000000000000000602082015250565b6000614cce602b83613afc565b9150614cd982614c72565b604082019050919050565b60006020820190508181036000830152614cfd81614cc1565b9050919050565b7f455243373231413a20617070726f766520746f2063616c6c6572000000000000600082015250565b6000614d3a601a83613afc565b9150614d4582614d04565b602082019050919050565b60006020820190508181036000830152614d6981614d2d565b9050919050565b7f61646472657373657320646f6573206e6f74206d61746368206e756d536c6f7460008201527f73206c656e677468000000000000000000000000000000000000000000000000602082015250565b6000614dcc602883613afc565b9150614dd782614d70565b604082019050919050565b60006020820190508181036000830152614dfb81614dbf565b9050919050565b7f4e487b7100000000000000000000000000000000000000000000000000000000600052603260045260246000fd5b7f5468652063616c6c657220697320616e6f7468657220636f6e74726163740000600082015250565b6000614e67601e83613afc565b9150614e7282614e31565b602082019050919050565b60006020820190508181036000830152614e9681614e5a565b9050919050565b7f6578636565646564206d617820737570706c7900000000000000000000000000600082015250565b6000614ed3601383613afc565b9150614ede82614e9d565b602082019050919050565b60006020820190508181036000830152614f0281614ec6565b9050919050565b7f455243373231413a207472616e7366657220746f206e6f6e204552433732315260008201527f6563656976657220696d706c656d656e74657200000000000000000000000000602082015250565b6000614f65603383613afc565b9150614f7082614f09565b604082019050919050565b60006020820190508181036000830152614f9481614f58565b9050919050565b7f6e6f7420656c696769626c6520666f722077686974656c697374206d696e7400600082015250565b6000614fd1601f83613afc565b9150614fdc82614f9b565b602082019050919050565b6000602082019050818103600083015261500081614fc4565b9050919050565b7f6d696e7420616d6f756e7420657863656564732077686974656c697374000000600082015250565b600061503d601d83613afc565b915061504882615007565b602082019050919050565b6000602082019050818103600083015261506c81615030565b9050919050565b600061507e82613bac565b915061508983613bac565b92508282101561509c5761509b6147ca565b5b828203905092915050565b7f4552433732314d657461646174613a2055524920717565727920666f72206e6f60008201527f6e6578697374656e7420746f6b656e0000000000000000000000000000000000602082015250565b6000615103602f83613afc565b915061510e826150a7565b604082019050919050565b60006020820190508181036000830152615132816150f6565b9050919050565b600081905092915050565b600061514f82613af1565b6151598185615139565b9350615169818560208601613b0d565b80840191505092915050565b60006151818285615144565b915061518d8284615144565b91508190509392505050565b7f4f776e61626c653a206e6577206f776e657220697320746865207a65726f206160008201527f6464726573730000000000000000000000000000000000000000000000000000602082015250565b60006151f5602683613afc565b915061520082615199565b604082019050919050565b60006020820190508181036000830152615224816151e8565b9050919050565b7f455243373231413a207472616e736665722063616c6c6572206973206e6f742060008201527f6f776e6572206e6f7220617070726f7665640000000000000000000000000000602082015250565b6000615287603283613afc565b91506152928261522b565b604082019050919050565b600060208201905081810360008301526152b68161527a565b9050919050565b7f455243373231413a207472616e736665722066726f6d20696e636f727265637460008201527f206f776e65720000000000000000000000000000000000000000000000000000602082015250565b6000615319602683613afc565b9150615324826152bd565b604082019050919050565b600060208201905081810360008301526153488161530c565b9050919050565b7f455243373231413a207472616e7366657220746f20746865207a65726f20616460008201527f6472657373000000000000000000000000000000000000000000000000000000602082015250565b60006153ab602583613afc565b91506153b68261534f565b604082019050919050565b600060208201905081810360008301526153da8161539e565b9050919050565b60006fffffffffffffffffffffffffffffffff82169050919050565b6000615408826153e1565b9150615413836153e1565b925082821015615426576154256147ca565b5b828203905092915050565b600061543c826153e1565b9150615447836153e1565b9250826fffffffffffffffffffffffffffffffff0382111561546c5761546b6147ca565b5b828201905092915050565b7f7175616e74697479206d757374206265206e6f6e7a65726f0000000000000000600082015250565b60006154ad601883613afc565b91506154b882615477565b602082019050919050565b600060208201905081810360008301526154dc816154a0565b9050919050565b7f6e6f7420656e6f756768206d696e7465642079657420666f722074686973206360008201527f6c65616e75700000000000000000000000000000000000000000000000000000602082015250565b600061553f602683613afc565b915061554a826154e3565b604082019050919050565b6000602082019050818103600083015261556e81615532565b9050919050565b7f455243373231413a206f776e657220717565727920666f72206e6f6e6578697360008201527f74656e7420746f6b656e00000000000000000000000000000000000000000000602082015250565b60006155d1602a83613afc565b91506155dc82615575565b604082019050919050565b60006020820190508181036000830152615600816155c4565b9050919050565b600061561282613bac565b91506000821415615626576156256147ca565b5b600182039050919050565b7f455243373231413a20756e61626c6520746f2064657465726d696e652074686560008201527f206f776e6572206f6620746f6b656e0000000000000000000000000000000000602082015250565b600061568d602f83613afc565b915061569882615631565b604082019050919050565b600060208201905081810360008301526156bc81615680565b9050919050565b7f4e65656420746f2073656e64206d6f7265204554480000000000000000000000600082015250565b60006156f9601583613afc565b9150615704826156c3565b602082019050919050565b60006020820190508181036000830152615728816156ec565b9050919050565b600081519050919050565b600082825260208201905092915050565b60006157568261572f565b615760818561573a565b9350615770818560208601613b0d565b61577981613b40565b840191505092915050565b60006080820190506157996000830187613c41565b6157a66020830186613c41565b6157b36040830185613cd7565b81810360608301526157c5818461574b565b905095945050505050565b6000815190506157df81613a62565b92915050565b6000602082840312156157fb576157fa613a2c565b5b6000615809848285016157d0565b91505092915050565b600061581d82613bac565b915061582883613bac565b92508261583857615837614bcc565b5b828206905092915050565b7f455243373231413a206d696e7420746f20746865207a65726f2061646472657360008201527f7300000000000000000000000000000000000000000000000000000000000000602082015250565b600061589f602183613afc565b91506158aa82615843565b604082019050919050565b600060208201905081810360008301526158ce81615892565b9050919050565b7f455243373231413a20746f6b656e20616c7265616479206d696e746564000000600082015250565b600061590b601d83613afc565b9150615916826158d5565b602082019050919050565b6000602082019050818103600083015261593a816158fe565b9050919050565b7f455243373231413a207175616e7469747920746f206d696e7420746f6f20686960008201527f6768000000000000000000000000000000000000000000000000000000000000602082015250565b600061599d602283613afc565b91506159a882615941565b604082019050919050565b600060208201905081810360008301526159cc81615990565b905091905056fea2646970667358221220a1a128bd455c2e103b31954b96536fdb77b02b28e16204d057e19a49781ff72864736f6c63430008090033",
  "immutableReferences": {
    "936": [
      {
        "length": 32,
        "start": 7171
      },
      {
        "length": 32,
        "start": 7765
      },
      {
        "length": 32,
        "start": 10892
      },
      {
        "length": 32,
        "start": 10944
      }
    ],
    "938": [
      {
        "length": 32,
        "start": 11554
      },
      {
        "length": 32,
        "start": 11595
      },
      {
        "length": 32,
        "start": 13454
      }
    ],
    "2106": [
      {
        "length": 32,
        "start": 4363
      },
      {
        "length": 32,
        "start": 4475
      },
      {
        "length": 32,
        "start": 7288
      }
    ],
    "2109": [
      {
        "length": 32,
        "start": 6665
      },
      {
        "length": 32,
        "start": 7882
      }
    ],
    "2111": [
      {
        "length": 32,
        "start": 4246
      },
      {
        "length": 32,
        "start": 8981
      }
    ],
    "2113": [
      {
        "length": 32,
        "start": 5045
      }
    ]
  },
  "source": "// SPDX-License-Identifier: MIT\n\npragma solidity ^0.8.0;\n\nimport \"@openzeppelin/contracts/access/Ownable.sol\";\nimport \"@openzeppelin/contracts/security/ReentrancyGuard.sol\";\nimport \"./ERC721A.sol\";\nimport \"@openzeppelin/contracts/utils/Strings.sol\";\n\ncontract YetiPunks is Ownable, ERC721A, ReentrancyGuard {\n    using Strings for uint256;\n\n    uint256 public immutable maxPerTxn;\n    uint256 public immutable maxPerAddressDuringPresale = 5;\n    uint256 public immutable amountForDevs;\n    uint256 public immutable amountForAuctionAndDev;\n    string public notRevealedUri;\n\n    mapping(address => uint256) public allowlist; //seed this with the uint being 5\n\n    constructor(\n        uint256 maxBatchSize_,\n        uint256 collectionSize_,\n        uint256 amountForAuctionAndDev_,\n        uint256 amountForDevs_,\n        string memory _initNotRevealedUri\n    ) ERC721A(\"Petty Monks\", \"PM\", maxBatchSize_, collectionSize_) {\n        maxPerTxn = maxBatchSize_;\n        amountForAuctionAndDev = amountForAuctionAndDev_;\n        amountForDevs = amountForDevs_;\n        require(\n            amountForAuctionAndDev_ <= collectionSize_,\n            \"larger collection size needed\"\n        );\n        setNotRevealedURI(_initNotRevealedUri);\n    }\n\n    modifier callerIsUser() {\n        require(tx.origin == msg.sender, \"The caller is another contract\");\n        _;\n    }\n\n    function allowlistMint(uint256 quantity) external payable callerIsUser {\n        uint256 price = 0.03 ether;\n        require(allowlist[msg.sender] > 0, \"not eligible for whitelist mint\");\n        require(\n            totalSupply() + quantity <= collectionSize,\n            \"exceeded max supply\"\n        ); //is this possible?\n        require(\n            numberMinted(msg.sender) + quantity <= maxPerAddressDuringPresale,\n            \"mint amount exceeds whitelist\"\n        );\n        allowlist[msg.sender] -= quantity;\n        _safeMint(msg.sender, quantity);\n        refundIfOver(price * quantity);\n    }\n\n    function publicSaleMint(uint256 quantity) external payable callerIsUser {\n        uint256 publicPrice = 0.03 ether;\n\n        require(\n            totalSupply() + quantity <= collectionSize,\n            \"exceeded max supply\"\n        );\n        require(quantity <= maxPerTxn, \"can not mint this many in one batch\");\n        _safeMint(msg.sender, quantity);\n        refundIfOver(publicPrice * quantity);\n    }\n\n    function refundIfOver(uint256 price) private {\n        require(msg.value >= price, \"Need to send more ETH\");\n        if (msg.value > price) {\n            payable(msg.sender).transfer(msg.value - price);\n        }\n    }\n\n    function isPublicSaleOn(\n        uint256 publicPriceWei,\n        uint256 publicSaleKey,\n        uint256 publicSaleStartTime\n    ) public view returns (bool) {\n        return\n            publicPriceWei != 0 &&\n            publicSaleKey != 0 &&\n            block.timestamp >= publicSaleStartTime;\n    }\n\n    function seedAllowlist(\n        address[] memory addresses,\n        uint256[] memory numSlots\n    ) external onlyOwner {\n        require(\n            addresses.length == numSlots.length,\n            \"addresses does not match numSlots length\"\n        );\n        for (uint256 i = 0; i < addresses.length; i++) {\n            allowlist[addresses[i]] = numSlots[i];\n        }\n    }\n\n    // For marketing etc.\n    function devMint(uint256 quantity) external onlyOwner {\n        require(\n            totalSupply() + quantity <= amountForDevs,\n            \"too many already minted before dev mint\"\n        );\n        require(quantity <= maxPerTxn, \"can not mint this many in one batch\");\n\n        _safeMint(msg.sender, quantity);\n    }\n\n    // metadata URI\n    string private _baseTokenURI;\n\n    function _baseURI() internal view virtual override returns (string memory) {\n        return _baseTokenURI;\n    }\n\n    function setNotRevealedURI(string memory _notRevealedURI) public onlyOwner {\n        notRevealedUri = _notRevealedURI;\n    }\n\n    function setBaseURI(string calldata baseURI) external onlyOwner {\n        _baseTokenURI = baseURI;\n    }\n\n    /**\n     * @dev See {IERC721Metadata-tokenURI}.\n     */\n    function tokenURI(uint256 tokenId)\n        public\n        view\n        virtual\n        override\n        onlyOwner\n        returns (string memory)\n    {\n        require(\n            _exists(tokenId),\n            \"ERC721Metadata: URI query for nonexistent token\"\n        );\n\n        string memory baseURI = _baseURI();\n        return\n            bytes(baseURI).length > 0\n                ? string(abi.encodePacked(baseURI, tokenId.toString()))\n                : \"\";\n    }\n\n    function withdrawBalance() public onlyOwner {\n        uint256 oneThird = (address(this).balance * 33) / 100;\n        (bool manduSuccess, ) = payable(\n            0xD61ADc48afE9402B4411805Ce6026eF74F94E713\n        ).call{value: oneThird}(\"\");\n        require(manduSuccess);\n        (bool tenzingSuccess, ) = payable(\n            0xE3Ce04B3BcbdFa219407870Ca617e18fBF503F28\n        ).call{value: oneThird}(\"\");\n        require(tenzingSuccess);\n        (bool tokiMoriSuccess, ) = payable(\n            0x49Cf0aF1cE6a50e822A91a427B3E29007f9C6C09\n        ).call{value: address(this).balance}(\"\");\n        require(tokiMoriSuccess);\n    }\n\n    function setOwnersExplicit(uint256 quantity)\n        external\n        onlyOwner\n        nonReentrant\n    {\n        _setOwnersExplicit(quantity);\n    }\n\n    function numberMinted(address owner) public view returns (uint256) {\n        return _numberMinted(owner);\n    }\n\n    function getOwnershipData(uint256 tokenId)\n        external\n        view\n        returns (TokenOwnership memory)\n    {\n        return ownershipOf(tokenId);\n    }\n}\n",
  "sourcePath": "/Users/christopherfoley/nft/YetiPunks/src/contracts/YetiPunks.sol",
  "compiler": {
    "name": "solc",
    "version": "0.8.9+commit.e5eed63a.Emscripten.clang"
  },
  "schemaVersion": "3.4.4",
  "updatedAt": "2022-02-12T17:47:42.836Z",
  "networkType": "ethereum",
  "devdoc": {
    "kind": "dev",
    "methods": {
      "approve(address,uint256)": {
        "details": "See {IERC721-approve}."
      },
      "balanceOf(address)": {
        "details": "See {IERC721-balanceOf}."
      },
      "getApproved(uint256)": {
        "details": "See {IERC721-getApproved}."
      },
      "isApprovedForAll(address,address)": {
        "details": "See {IERC721-isApprovedForAll}."
      },
      "name()": {
        "details": "See {IERC721Metadata-name}."
      },
      "owner()": {
        "details": "Returns the address of the current owner."
      },
      "ownerOf(uint256)": {
        "details": "See {IERC721-ownerOf}."
      },
      "renounceOwnership()": {
        "details": "Leaves the contract without owner. It will not be possible to call `onlyOwner` functions anymore. Can only be called by the current owner. NOTE: Renouncing ownership will leave the contract without an owner, thereby removing any functionality that is only available to the owner."
      },
      "safeTransferFrom(address,address,uint256)": {
        "details": "See {IERC721-safeTransferFrom}."
      },
      "safeTransferFrom(address,address,uint256,bytes)": {
        "details": "See {IERC721-safeTransferFrom}."
      },
      "setApprovalForAll(address,bool)": {
        "details": "See {IERC721-setApprovalForAll}."
      },
      "supportsInterface(bytes4)": {
        "details": "See {IERC165-supportsInterface}."
      },
      "symbol()": {
        "details": "See {IERC721Metadata-symbol}."
      },
      "tokenByIndex(uint256)": {
        "details": "See {IERC721Enumerable-tokenByIndex}."
      },
      "tokenOfOwnerByIndex(address,uint256)": {
        "details": "See {IERC721Enumerable-tokenOfOwnerByIndex}. This read function is O(collectionSize). If calling from a separate contract, be sure to test gas first. It may also degrade with extremely large collection sizes (e.g >> 10000), test for your use case."
      },
      "tokenURI(uint256)": {
        "details": "See {IERC721Metadata-tokenURI}."
      },
      "totalSupply()": {
        "details": "See {IERC721Enumerable-totalSupply}."
      },
      "transferFrom(address,address,uint256)": {
        "details": "See {IERC721-transferFrom}."
      },
      "transferOwnership(address)": {
        "details": "Transfers ownership of the contract to a new account (`newOwner`). Can only be called by the current owner."
      }
    },
    "version": 1
  },
  "userdoc": {
    "kind": "user",
    "methods": {},
    "version": 1
  }
}