{
  "contractName": "YetiPunks",
  "abi": [
    {
      "inputs": [
        {
          "internalType": "uint256",
          "name": "maxBatchSize_",
          "type": "uint256"
        },
        {
          "internalType": "uint256",
          "name": "collectionSize_",
          "type": "uint256"
        },
        {
          "internalType": "uint256",
          "name": "amountForAuctionAndDev_",
          "type": "uint256"
        },
        {
          "internalType": "uint256",
          "name": "amountForDevs_",
          "type": "uint256"
        }
      ],
      "stateMutability": "nonpayable",
      "type": "constructor"
    },
    {
      "anonymous": false,
      "inputs": [
        {
          "indexed": true,
          "internalType": "address",
          "name": "owner",
          "type": "address"
        },
        {
          "indexed": true,
          "internalType": "address",
          "name": "approved",
          "type": "address"
        },
        {
          "indexed": true,
          "internalType": "uint256",
          "name": "tokenId",
          "type": "uint256"
        }
      ],
      "name": "Approval",
      "type": "event"
    },
    {
      "anonymous": false,
      "inputs": [
        {
          "indexed": true,
          "internalType": "address",
          "name": "owner",
          "type": "address"
        },
        {
          "indexed": true,
          "internalType": "address",
          "name": "operator",
          "type": "address"
        },
        {
          "indexed": false,
          "internalType": "bool",
          "name": "approved",
          "type": "bool"
        }
      ],
      "name": "ApprovalForAll",
      "type": "event"
    },
    {
      "anonymous": false,
      "inputs": [
        {
          "indexed": true,
          "internalType": "address",
          "name": "previousOwner",
          "type": "address"
        },
        {
          "indexed": true,
          "internalType": "address",
          "name": "newOwner",
          "type": "address"
        }
      ],
      "name": "OwnershipTransferred",
      "type": "event"
    },
    {
      "anonymous": false,
      "inputs": [
        {
          "indexed": true,
          "internalType": "address",
          "name": "from",
          "type": "address"
        },
        {
          "indexed": true,
          "internalType": "address",
          "name": "to",
          "type": "address"
        },
        {
          "indexed": true,
          "internalType": "uint256",
          "name": "tokenId",
          "type": "uint256"
        }
      ],
      "name": "Transfer",
      "type": "event"
    },
    {
      "inputs": [
        {
          "internalType": "address",
          "name": "owner",
          "type": "address"
        }
      ],
      "name": "_numberMinted",
      "outputs": [
        {
          "internalType": "uint256",
          "name": "",
          "type": "uint256"
        }
      ],
      "stateMutability": "view",
      "type": "function",
      "constant": true
    },
    {
      "inputs": [
        {
          "internalType": "address",
          "name": "",
          "type": "address"
        }
      ],
      "name": "allowlist",
      "outputs": [
        {
          "internalType": "uint256",
          "name": "",
          "type": "uint256"
        }
      ],
      "stateMutability": "view",
      "type": "function",
      "constant": true
    },
    {
      "inputs": [],
      "name": "amountForAuctionAndDev",
      "outputs": [
        {
          "internalType": "uint256",
          "name": "",
          "type": "uint256"
        }
      ],
      "stateMutability": "view",
      "type": "function",
      "constant": true
    },
    {
      "inputs": [],
      "name": "amountForDevs",
      "outputs": [
        {
          "internalType": "uint256",
          "name": "",
          "type": "uint256"
        }
      ],
      "stateMutability": "view",
      "type": "function",
      "constant": true
    },
    {
      "inputs": [
        {
          "internalType": "address",
          "name": "to",
          "type": "address"
        },
        {
          "internalType": "uint256",
          "name": "tokenId",
          "type": "uint256"
        }
      ],
      "name": "approve",
      "outputs": [],
      "stateMutability": "nonpayable",
      "type": "function"
    },
    {
      "inputs": [
        {
          "internalType": "address",
          "name": "owner",
          "type": "address"
        }
      ],
      "name": "balanceOf",
      "outputs": [
        {
          "internalType": "uint256",
          "name": "",
          "type": "uint256"
        }
      ],
      "stateMutability": "view",
      "type": "function",
      "constant": true
    },
    {
      "inputs": [
        {
          "internalType": "uint256",
          "name": "tokenId",
          "type": "uint256"
        }
      ],
      "name": "getApproved",
      "outputs": [
        {
          "internalType": "address",
          "name": "",
          "type": "address"
        }
      ],
      "stateMutability": "view",
      "type": "function",
      "constant": true
    },
    {
      "inputs": [
        {
          "internalType": "address",
          "name": "owner",
          "type": "address"
        },
        {
          "internalType": "address",
          "name": "operator",
          "type": "address"
        }
      ],
      "name": "isApprovedForAll",
      "outputs": [
        {
          "internalType": "bool",
          "name": "",
          "type": "bool"
        }
      ],
      "stateMutability": "view",
      "type": "function",
      "constant": true
    },
    {
      "inputs": [],
      "name": "maxPerAddressDuringMint",
      "outputs": [
        {
          "internalType": "uint256",
          "name": "",
          "type": "uint256"
        }
      ],
      "stateMutability": "view",
      "type": "function",
      "constant": true
    },
    {
      "inputs": [],
      "name": "name",
      "outputs": [
        {
          "internalType": "string",
          "name": "",
          "type": "string"
        }
      ],
      "stateMutability": "view",
      "type": "function",
      "constant": true
    },
    {
      "inputs": [],
      "name": "nextOwnerToExplicitlySet",
      "outputs": [
        {
          "internalType": "uint256",
          "name": "",
          "type": "uint256"
        }
      ],
      "stateMutability": "view",
      "type": "function",
      "constant": true
    },
    {
      "inputs": [],
      "name": "owner",
      "outputs": [
        {
          "internalType": "address",
          "name": "",
          "type": "address"
        }
      ],
      "stateMutability": "view",
      "type": "function",
      "constant": true
    },
    {
      "inputs": [
        {
          "internalType": "uint256",
          "name": "tokenId",
          "type": "uint256"
        }
      ],
      "name": "ownerOf",
      "outputs": [
        {
          "internalType": "address",
          "name": "",
          "type": "address"
        }
      ],
      "stateMutability": "view",
      "type": "function",
      "constant": true
    },
    {
      "inputs": [],
      "name": "renounceOwnership",
      "outputs": [],
      "stateMutability": "nonpayable",
      "type": "function"
    },
    {
      "inputs": [
        {
          "internalType": "address",
          "name": "from",
          "type": "address"
        },
        {
          "internalType": "address",
          "name": "to",
          "type": "address"
        },
        {
          "internalType": "uint256",
          "name": "tokenId",
          "type": "uint256"
        }
      ],
      "name": "safeTransferFrom",
      "outputs": [],
      "stateMutability": "nonpayable",
      "type": "function"
    },
    {
      "inputs": [
        {
          "internalType": "address",
          "name": "from",
          "type": "address"
        },
        {
          "internalType": "address",
          "name": "to",
          "type": "address"
        },
        {
          "internalType": "uint256",
          "name": "tokenId",
          "type": "uint256"
        },
        {
          "internalType": "bytes",
          "name": "_data",
          "type": "bytes"
        }
      ],
      "name": "safeTransferFrom",
      "outputs": [],
      "stateMutability": "nonpayable",
      "type": "function"
    },
    {
      "inputs": [
        {
          "internalType": "address",
          "name": "operator",
          "type": "address"
        },
        {
          "internalType": "bool",
          "name": "approved",
          "type": "bool"
        }
      ],
      "name": "setApprovalForAll",
      "outputs": [],
      "stateMutability": "nonpayable",
      "type": "function"
    },
    {
      "inputs": [
        {
          "internalType": "bytes4",
          "name": "interfaceId",
          "type": "bytes4"
        }
      ],
      "name": "supportsInterface",
      "outputs": [
        {
          "internalType": "bool",
          "name": "",
          "type": "bool"
        }
      ],
      "stateMutability": "view",
      "type": "function",
      "constant": true
    },
    {
      "inputs": [],
      "name": "symbol",
      "outputs": [
        {
          "internalType": "string",
          "name": "",
          "type": "string"
        }
      ],
      "stateMutability": "view",
      "type": "function",
      "constant": true
    },
    {
      "inputs": [
        {
          "internalType": "uint256",
          "name": "index",
          "type": "uint256"
        }
      ],
      "name": "tokenByIndex",
      "outputs": [
        {
          "internalType": "uint256",
          "name": "",
          "type": "uint256"
        }
      ],
      "stateMutability": "view",
      "type": "function",
      "constant": true
    },
    {
      "inputs": [
        {
          "internalType": "address",
          "name": "owner",
          "type": "address"
        },
        {
          "internalType": "uint256",
          "name": "index",
          "type": "uint256"
        }
      ],
      "name": "tokenOfOwnerByIndex",
      "outputs": [
        {
          "internalType": "uint256",
          "name": "",
          "type": "uint256"
        }
      ],
      "stateMutability": "view",
      "type": "function",
      "constant": true
    },
    {
      "inputs": [
        {
          "internalType": "uint256",
          "name": "tokenId",
          "type": "uint256"
        }
      ],
      "name": "tokenURI",
      "outputs": [
        {
          "internalType": "string",
          "name": "",
          "type": "string"
        }
      ],
      "stateMutability": "view",
      "type": "function",
      "constant": true
    },
    {
      "inputs": [],
      "name": "totalSupply",
      "outputs": [
        {
          "internalType": "uint256",
          "name": "",
          "type": "uint256"
        }
      ],
      "stateMutability": "view",
      "type": "function",
      "constant": true
    },
    {
      "inputs": [
        {
          "internalType": "address",
          "name": "from",
          "type": "address"
        },
        {
          "internalType": "address",
          "name": "to",
          "type": "address"
        },
        {
          "internalType": "uint256",
          "name": "tokenId",
          "type": "uint256"
        }
      ],
      "name": "transferFrom",
      "outputs": [],
      "stateMutability": "nonpayable",
      "type": "function"
    },
    {
      "inputs": [
        {
          "internalType": "address",
          "name": "newOwner",
          "type": "address"
        }
      ],
      "name": "transferOwnership",
      "outputs": [],
      "stateMutability": "nonpayable",
      "type": "function"
    },
    {
      "inputs": [],
      "name": "allowlistMint",
      "outputs": [],
      "stateMutability": "payable",
      "type": "function",
      "payable": true
    },
    {
      "inputs": [
        {
          "internalType": "uint256",
          "name": "quantity",
          "type": "uint256"
        }
      ],
      "name": "publicSaleMint",
      "outputs": [],
      "stateMutability": "payable",
      "type": "function",
      "payable": true
    },
    {
      "inputs": [
        {
          "internalType": "uint256",
          "name": "publicPriceWei",
          "type": "uint256"
        },
        {
          "internalType": "uint256",
          "name": "publicSaleKey",
          "type": "uint256"
        },
        {
          "internalType": "uint256",
          "name": "publicSaleStartTime",
          "type": "uint256"
        }
      ],
      "name": "isPublicSaleOn",
      "outputs": [
        {
          "internalType": "bool",
          "name": "",
          "type": "bool"
        }
      ],
      "stateMutability": "view",
      "type": "function",
      "constant": true
    },
    {
      "inputs": [
        {
          "internalType": "address[]",
          "name": "addresses",
          "type": "address[]"
        },
        {
          "internalType": "uint256[]",
          "name": "numSlots",
          "type": "uint256[]"
        }
      ],
      "name": "seedAllowlist",
      "outputs": [],
      "stateMutability": "nonpayable",
      "type": "function"
    },
    {
      "inputs": [
        {
          "internalType": "uint256",
          "name": "quantity",
          "type": "uint256"
        }
      ],
      "name": "devMint",
      "outputs": [],
      "stateMutability": "nonpayable",
      "type": "function"
    },
    {
      "inputs": [
        {
          "internalType": "string",
          "name": "baseURI",
          "type": "string"
        }
      ],
      "name": "setBaseURI",
      "outputs": [],
      "stateMutability": "nonpayable",
      "type": "function"
    },
    {
      "inputs": [],
      "name": "withdrawBalance",
      "outputs": [],
      "stateMutability": "nonpayable",
      "type": "function"
    },
    {
      "inputs": [
        {
          "internalType": "uint256",
          "name": "quantity",
          "type": "uint256"
        }
      ],
      "name": "setOwnersExplicit",
      "outputs": [],
      "stateMutability": "nonpayable",
      "type": "function"
    },
    {
      "inputs": [
        {
          "internalType": "address",
          "name": "owner",
          "type": "address"
        }
      ],
      "name": "numberMinted",
      "outputs": [
        {
          "internalType": "uint256",
          "name": "",
          "type": "uint256"
        }
      ],
      "stateMutability": "view",
      "type": "function",
      "constant": true
    },
    {
      "inputs": [
        {
          "internalType": "uint256",
          "name": "tokenId",
          "type": "uint256"
        }
      ],
      "name": "getOwnershipData",
      "outputs": [
        {
          "components": [
            {
              "internalType": "address",
              "name": "addr",
              "type": "address"
            },
            {
              "internalType": "uint64",
              "name": "startTimestamp",
              "type": "uint64"
            }
          ],
          "internalType": "struct ERC721A.TokenOwnership",
          "name": "",
          "type": "tuple"
        }
      ],
      "stateMutability": "view",
      "type": "function",
      "constant": true
    }
  ],
  "bytecode": "0x610120604052600060015560006008553480156200001c57600080fd5b5060405162005d1438038062005d148339818101604052810190620000429190620003cf565b6040518060400160405280600b81526020017f5065747479204d6f6e6b730000000000000000000000000000000000000000008152506040518060400160405280600281526020017f504d0000000000000000000000000000000000000000000000000000000000008152508585620000d0620000c46200021360201b60201c565b6200021b60201b60201c565b6000811162000116576040517f08c379a00000000000000000000000000000000000000000000000000000000081526004016200010d90620004c8565b60405180910390fd5b600082116200015c576040517f08c379a0000000000000000000000000000000000000000000000000000000008152600401620001539062000560565b60405180910390fd5b836002908051906020019062000174929190620002df565b5082600390805190602001906200018d929190620002df565b508160a0818152505080608081815250505050505060016009819055508360c081815250508161010081815250508060e081815250508282111562000209576040517f08c379a00000000000000000000000000000000000000000000000000000000081526004016200020090620005d2565b60405180910390fd5b5050505062000659565b600033905090565b60008060009054906101000a900473ffffffffffffffffffffffffffffffffffffffff169050816000806101000a81548173ffffffffffffffffffffffffffffffffffffffff021916908373ffffffffffffffffffffffffffffffffffffffff1602179055508173ffffffffffffffffffffffffffffffffffffffff168173ffffffffffffffffffffffffffffffffffffffff167f8be0079c531659141344cd1fd0a4f28419497f9722a3daafe3b4186f6b6457e060405160405180910390a35050565b828054620002ed9062000623565b90600052602060002090601f0160209004810192826200031157600085556200035d565b82601f106200032c57805160ff19168380011785556200035d565b828001600101855582156200035d579182015b828111156200035c5782518255916020019190600101906200033f565b5b5090506200036c919062000370565b5090565b5b808211156200038b57600081600090555060010162000371565b5090565b600080fd5b6000819050919050565b620003a98162000394565b8114620003b557600080fd5b50565b600081519050620003c9816200039e565b92915050565b60008060008060808587031215620003ec57620003eb6200038f565b5b6000620003fc87828801620003b8565b94505060206200040f87828801620003b8565b93505060406200042287828801620003b8565b92505060606200043587828801620003b8565b91505092959194509250565b600082825260208201905092915050565b7f455243373231413a20636f6c6c656374696f6e206d757374206861766520612060008201527f6e6f6e7a65726f20737570706c79000000000000000000000000000000000000602082015250565b6000620004b0602e8362000441565b9150620004bd8262000452565b604082019050919050565b60006020820190508181036000830152620004e381620004a1565b9050919050565b7f455243373231413a206d61782062617463682073697a65206d7573742062652060008201527f6e6f6e7a65726f00000000000000000000000000000000000000000000000000602082015250565b60006200054860278362000441565b91506200055582620004ea565b604082019050919050565b600060208201905081810360008301526200057b8162000539565b9050919050565b7f6c617267657220636f6c6c656374696f6e2073697a65206e6565646564000000600082015250565b6000620005ba601d8362000441565b9150620005c78262000582565b602082019050919050565b60006020820190508181036000830152620005ed81620005ab565b9050919050565b7f4e487b7100000000000000000000000000000000000000000000000000000000600052602260045260246000fd5b600060028204905060018216806200063c57607f821691505b60208210811415620006535762000652620005f4565b5b50919050565b60805160a05160c05160e05161010051615630620006e460003960006114aa015260008181610f5601526120ac0152600081816118920152611d6d015260008181610fcd0152818161103b0152818161107801528181612b5a01528181612b8301526132250152600081816111b201528181611cf801528181612823015261285701526156306000f3fe6080604052600436106102045760003560e01c80636352211e11610118578063b05863d5116100a0578063d7224ba01161006f578063d7224ba01461076f578063dc33e6811461079a578063e985e9c5146107d7578063f2fde38b14610814578063fbe1aa511461083d57610204565b8063b05863d5146106c4578063b3ab66b0146106ed578063b88d4fde14610709578063c87b56dd1461073257610204565b80638da5cb5b116100e75780638da5cb5b146105cb5780639231ab2a146105f657806395d89b4114610633578063a22cb4651461065e578063a7cd52cb1461068757610204565b80636352211e1461050f57806370a082311461054c578063715018a6146105895780638bc35c2f146105a057610204565b8063375a069a1161019b5780634d388a981161016a5780634d388a981461042a5780634f6ccce71461046757806355f804b3146104a45780635666c880146104cd5780635fd8c710146104f857610204565b8063375a069a1461039157806341fbddbd146103ba578063422030ba146103c457806342842e0e1461040157610204565b806318160ddd116101d757806318160ddd146102d757806323b872dd146103025780632d20fb601461032b5780632f745c591461035457610204565b806301ffc9a71461020957806306fdde0314610246578063081812fc14610271578063095ea7b3146102ae575b600080fd5b34801561021557600080fd5b50610230600480360381019061022b919061379f565b610868565b60405161023d91906137e7565b60405180910390f35b34801561025257600080fd5b5061025b6109b2565b604051610268919061389b565b60405180910390f35b34801561027d57600080fd5b50610298600480360381019061029391906138f3565b610a44565b6040516102a59190613961565b60405180910390f35b3480156102ba57600080fd5b506102d560048036038101906102d091906139a8565b610ac9565b005b3480156102e357600080fd5b506102ec610be2565b6040516102f991906139f7565b60405180910390f35b34801561030e57600080fd5b5061032960048036038101906103249190613a12565b610bec565b005b34801561033757600080fd5b50610352600480360381019061034d91906138f3565b610bfc565b005b34801561036057600080fd5b5061037b600480360381019061037691906139a8565b610cda565b60405161038891906139f7565b60405180910390f35b34801561039d57600080fd5b506103b860048036038101906103b391906138f3565b610ed8565b005b6103c26110b4565b005b3480156103d057600080fd5b506103eb60048036038101906103e69190613a65565b611292565b6040516103f891906137e7565b60405180910390f35b34801561040d57600080fd5b5061042860048036038101906104239190613a12565b6112ba565b005b34801561043657600080fd5b50610451600480360381019061044c9190613ab8565b6112da565b60405161045e91906139f7565b60405180910390f35b34801561047357600080fd5b5061048e600480360381019061048991906138f3565b6113c3565b60405161049b91906139f7565b60405180910390f35b3480156104b057600080fd5b506104cb60048036038101906104c69190613b4a565b611416565b005b3480156104d957600080fd5b506104e26114a8565b6040516104ef91906139f7565b60405180910390f35b34801561050457600080fd5b5061050d6114cc565b005b34801561051b57600080fd5b50610536600480360381019061053191906138f3565b611709565b6040516105439190613961565b60405180910390f35b34801561055857600080fd5b50610573600480360381019061056e9190613ab8565b61171f565b60405161058091906139f7565b60405180910390f35b34801561059557600080fd5b5061059e611808565b005b3480156105ac57600080fd5b506105b5611890565b6040516105c291906139f7565b60405180910390f35b3480156105d757600080fd5b506105e06118b4565b6040516105ed9190613961565b60405180910390f35b34801561060257600080fd5b5061061d600480360381019061061891906138f3565b6118dd565b60405161062a9190613bf8565b60405180910390f35b34801561063f57600080fd5b506106486118f5565b604051610655919061389b565b60405180910390f35b34801561066a57600080fd5b5061068560048036038101906106809190613c3f565b611987565b005b34801561069357600080fd5b506106ae60048036038101906106a99190613ab8565b611b08565b6040516106bb91906139f7565b60405180910390f35b3480156106d057600080fd5b506106eb60048036038101906106e69190613e80565b611b20565b005b610707600480360381019061070291906138f3565b611c7c565b005b34801561071557600080fd5b50610730600480360381019061072b9190613fad565b611e03565b005b34801561073e57600080fd5b50610759600480360381019061075491906138f3565b611e5f565b604051610766919061389b565b60405180910390f35b34801561077b57600080fd5b50610784611f06565b60405161079191906139f7565b60405180910390f35b3480156107a657600080fd5b506107c160048036038101906107bc9190613ab8565b611f0c565b6040516107ce91906139f7565b60405180910390f35b3480156107e357600080fd5b506107fe60048036038101906107f99190614030565b611f1e565b60405161080b91906137e7565b60405180910390f35b34801561082057600080fd5b5061083b60048036038101906108369190613ab8565b611fb2565b005b34801561084957600080fd5b506108526120aa565b60405161085f91906139f7565b60405180910390f35b60007f80ac58cd000000000000000000000000000000000000000000000000000000007bffffffffffffffffffffffffffffffffffffffffffffffffffffffff1916827bffffffffffffffffffffffffffffffffffffffffffffffffffffffff1916148061093357507f5b5e139f000000000000000000000000000000000000000000000000000000007bffffffffffffffffffffffffffffffffffffffffffffffffffffffff1916827bffffffffffffffffffffffffffffffffffffffffffffffffffffffff1916145b8061099b57507f780e9d63000000000000000000000000000000000000000000000000000000007bffffffffffffffffffffffffffffffffffffffffffffffffffffffff1916827bffffffffffffffffffffffffffffffffffffffffffffffffffffffff1916145b806109ab57506109aa826120ce565b5b9050919050565b6060600280546109c19061409f565b80601f01602080910402602001604051908101604052809291908181526020018280546109ed9061409f565b8015610a3a5780601f10610a0f57610100808354040283529160200191610a3a565b820191906000526020600020905b815481529060010190602001808311610a1d57829003601f168201915b5050505050905090565b6000610a4f82612138565b610a8e576040517f08c379a0000000000000000000000000000000000000000000000000000000008152600401610a8590614143565b60405180910390fd5b6006600083815260200190815260200160002060009054906101000a900473ffffffffffffffffffffffffffffffffffffffff169050919050565b6000610ad482611709565b90508073ffffffffffffffffffffffffffffffffffffffff168373ffffffffffffffffffffffffffffffffffffffff161415610b45576040517f08c379a0000000000000000000000000000000000000000000000000000000008152600401610b3c906141d5565b60405180910390fd5b8073ffffffffffffffffffffffffffffffffffffffff16610b64612146565b73ffffffffffffffffffffffffffffffffffffffff161480610b935750610b9281610b8d612146565b611f1e565b5b610bd2576040517f08c379a0000000000000000000000000000000000000000000000000000000008152600401610bc990614267565b60405180910390fd5b610bdd83838361214e565b505050565b6000600154905090565b610bf7838383612200565b505050565b610c04612146565b73ffffffffffffffffffffffffffffffffffffffff16610c226118b4565b73ffffffffffffffffffffffffffffffffffffffff1614610c78576040517f08c379a0000000000000000000000000000000000000000000000000000000008152600401610c6f906142d3565b60405180910390fd5b60026009541415610cbe576040517f08c379a0000000000000000000000000000000000000000000000000000000008152600401610cb59061433f565b60405180910390fd5b6002600981905550610ccf816127b9565b600160098190555050565b6000610ce58361171f565b8210610d26576040517f08c379a0000000000000000000000000000000000000000000000000000000008152600401610d1d906143d1565b60405180910390fd5b6000610d30610be2565b905060008060005b83811015610e96576000600460008381526020019081526020016000206040518060400160405290816000820160009054906101000a900473ffffffffffffffffffffffffffffffffffffffff1673ffffffffffffffffffffffffffffffffffffffff1673ffffffffffffffffffffffffffffffffffffffff1681526020016000820160149054906101000a900467ffffffffffffffff1667ffffffffffffffff1667ffffffffffffffff16815250509050600073ffffffffffffffffffffffffffffffffffffffff16816000015173ffffffffffffffffffffffffffffffffffffffff1614610e2a57806000015192505b8773ffffffffffffffffffffffffffffffffffffffff168373ffffffffffffffffffffffffffffffffffffffff161415610e825786841415610e73578195505050505050610ed2565b8380610e7e90614420565b9450505b508080610e8e90614420565b915050610d38565b506040517f08c379a0000000000000000000000000000000000000000000000000000000008152600401610ec9906144db565b60405180910390fd5b92915050565b610ee0612146565b73ffffffffffffffffffffffffffffffffffffffff16610efe6118b4565b73ffffffffffffffffffffffffffffffffffffffff1614610f54576040517f08c379a0000000000000000000000000000000000000000000000000000000008152600401610f4b906142d3565b60405180910390fd5b7f000000000000000000000000000000000000000000000000000000000000000081610f7e610be2565b610f8891906144fb565b1115610fc9576040517f08c379a0000000000000000000000000000000000000000000000000000000008152600401610fc0906145c3565b60405180910390fd5b60007f000000000000000000000000000000000000000000000000000000000000000082610ff79190614612565b14611037576040517f08c379a000000000000000000000000000000000000000000000000000000000815260040161102e906146b5565b60405180910390fd5b60007f00000000000000000000000000000000000000000000000000000000000000008261106591906146d5565b905060005b818110156110af5761109c337f0000000000000000000000000000000000000000000000000000000000000000612a47565b80806110a790614420565b91505061106a565b505050565b3373ffffffffffffffffffffffffffffffffffffffff163273ffffffffffffffffffffffffffffffffffffffff1614611122576040517f08c379a000000000000000000000000000000000000000000000000000000000815260040161111990614752565b60405180910390fd5b6000666a94d74f43000090506000600a60003373ffffffffffffffffffffffffffffffffffffffff1673ffffffffffffffffffffffffffffffffffffffff16815260200190815260200160002054116111b0576040517f08c379a00000000000000000000000000000000000000000000000000000000081526004016111a7906147be565b60405180910390fd5b7f000000000000000000000000000000000000000000000000000000000000000060016111db610be2565b6111e591906144fb565b1115611226576040517f08c379a000000000000000000000000000000000000000000000000000000000815260040161121d9061482a565b60405180910390fd5b600a60003373ffffffffffffffffffffffffffffffffffffffff1673ffffffffffffffffffffffffffffffffffffffff16815260200190815260200160002060008154809291906112769061484a565b9190505550611286336001612a47565b61128f81612a65565b50565b60008084141580156112a5575060008314155b80156112b15750814210155b90509392505050565b6112d583838360405180602001604052806000815250611e03565b505050565b60008073ffffffffffffffffffffffffffffffffffffffff168273ffffffffffffffffffffffffffffffffffffffff16141561134b576040517f08c379a0000000000000000000000000000000000000000000000000000000008152600401611342906148e6565b60405180910390fd5b600560008373ffffffffffffffffffffffffffffffffffffffff1673ffffffffffffffffffffffffffffffffffffffff16815260200190815260200160002060000160109054906101000a90046fffffffffffffffffffffffffffffffff166fffffffffffffffffffffffffffffffff169050919050565b60006113cd610be2565b821061140e576040517f08c379a000000000000000000000000000000000000000000000000000000000815260040161140590614978565b60405180910390fd5b819050919050565b61141e612146565b73ffffffffffffffffffffffffffffffffffffffff1661143c6118b4565b73ffffffffffffffffffffffffffffffffffffffff1614611492576040517f08c379a0000000000000000000000000000000000000000000000000000000008152600401611489906142d3565b60405180910390fd5b8181600b91906114a3929190613656565b505050565b7f000000000000000000000000000000000000000000000000000000000000000081565b6114d4612146565b73ffffffffffffffffffffffffffffffffffffffff166114f26118b4565b73ffffffffffffffffffffffffffffffffffffffff1614611548576040517f08c379a000000000000000000000000000000000000000000000000000000000815260040161153f906142d3565b60405180910390fd5b600060646021476115599190614998565b61156391906146d5565b9050600073d61adc48afe9402b4411805ce6026ef74f94e71373ffffffffffffffffffffffffffffffffffffffff168260405161159f90614a23565b60006040518083038185875af1925050503d80600081146115dc576040519150601f19603f3d011682016040523d82523d6000602084013e6115e1565b606091505b50509050806115ef57600080fd5b600073e3ce04b3bcbdfa219407870ca617e18fbf503f2873ffffffffffffffffffffffffffffffffffffffff168360405161162990614a23565b60006040518083038185875af1925050503d8060008114611666576040519150601f19603f3d011682016040523d82523d6000602084013e61166b565b606091505b505090508061167957600080fd5b60007349cf0af1ce6a50e822a91a427b3e29007f9c6c0973ffffffffffffffffffffffffffffffffffffffff16476040516116b390614a23565b60006040518083038185875af1925050503d80600081146116f0576040519150601f19603f3d011682016040523d82523d6000602084013e6116f5565b606091505b505090508061170357600080fd5b50505050565b600061171482612b06565b600001519050919050565b60008073ffffffffffffffffffffffffffffffffffffffff168273ffffffffffffffffffffffffffffffffffffffff161415611790576040517f08c379a000000000000000000000000000000000000000000000000000000000815260040161178790614aaa565b60405180910390fd5b600560008373ffffffffffffffffffffffffffffffffffffffff1673ffffffffffffffffffffffffffffffffffffffff16815260200190815260200160002060000160009054906101000a90046fffffffffffffffffffffffffffffffff166fffffffffffffffffffffffffffffffff169050919050565b611810612146565b73ffffffffffffffffffffffffffffffffffffffff1661182e6118b4565b73ffffffffffffffffffffffffffffffffffffffff1614611884576040517f08c379a000000000000000000000000000000000000000000000000000000000815260040161187b906142d3565b60405180910390fd5b61188e6000612d09565b565b7f000000000000000000000000000000000000000000000000000000000000000081565b60008060009054906101000a900473ffffffffffffffffffffffffffffffffffffffff16905090565b6118e56136dc565b6118ee82612b06565b9050919050565b6060600380546119049061409f565b80601f01602080910402602001604051908101604052809291908181526020018280546119309061409f565b801561197d5780601f106119525761010080835404028352916020019161197d565b820191906000526020600020905b81548152906001019060200180831161196057829003601f168201915b5050505050905090565b61198f612146565b73ffffffffffffffffffffffffffffffffffffffff168273ffffffffffffffffffffffffffffffffffffffff1614156119fd576040517f08c379a00000000000000000000000000000000000000000000000000000000081526004016119f490614b16565b60405180910390fd5b8060076000611a0a612146565b73ffffffffffffffffffffffffffffffffffffffff1673ffffffffffffffffffffffffffffffffffffffff16815260200190815260200160002060008473ffffffffffffffffffffffffffffffffffffffff1673ffffffffffffffffffffffffffffffffffffffff16815260200190815260200160002060006101000a81548160ff0219169083151502179055508173ffffffffffffffffffffffffffffffffffffffff16611ab7612146565b73ffffffffffffffffffffffffffffffffffffffff167f17307eab39ab6107e8899845ad3d59bd9653f200f220920489ca2b5937696c3183604051611afc91906137e7565b60405180910390a35050565b600a6020528060005260406000206000915090505481565b611b28612146565b73ffffffffffffffffffffffffffffffffffffffff16611b466118b4565b73ffffffffffffffffffffffffffffffffffffffff1614611b9c576040517f08c379a0000000000000000000000000000000000000000000000000000000008152600401611b93906142d3565b60405180910390fd5b8051825114611be0576040517f08c379a0000000000000000000000000000000000000000000000000000000008152600401611bd790614ba8565b60405180910390fd5b60005b8251811015611c7757818181518110611bff57611bfe614bc8565b5b6020026020010151600a6000858481518110611c1e57611c1d614bc8565b5b602002602001015173ffffffffffffffffffffffffffffffffffffffff1673ffffffffffffffffffffffffffffffffffffffff168152602001908152602001600020819055508080611c6f90614420565b915050611be3565b505050565b3373ffffffffffffffffffffffffffffffffffffffff163273ffffffffffffffffffffffffffffffffffffffff1614611cea576040517f08c379a0000000000000000000000000000000000000000000000000000000008152600401611ce190614752565b60405180910390fd5b6000666a94d74f43000090507f000000000000000000000000000000000000000000000000000000000000000082611d20610be2565b611d2a91906144fb565b1115611d6b576040517f08c379a0000000000000000000000000000000000000000000000000000000008152600401611d629061482a565b60405180910390fd5b7f000000000000000000000000000000000000000000000000000000000000000082611d9633611f0c565b611da091906144fb565b1115611de1576040517f08c379a0000000000000000000000000000000000000000000000000000000008152600401611dd890614c43565b60405180910390fd5b611deb3383612a47565b611dff8282611dfa9190614998565b612a65565b5050565b611e0e848484612200565b611e1a84848484612dcd565b611e59576040517f08c379a0000000000000000000000000000000000000000000000000000000008152600401611e5090614cd5565b60405180910390fd5b50505050565b6060611e6a82612138565b611ea9576040517f08c379a0000000000000000000000000000000000000000000000000000000008152600401611ea090614d67565b60405180910390fd5b6000611eb3612f64565b90506000815111611ed35760405180602001604052806000815250611efe565b80611edd84612ff6565b604051602001611eee929190614dc3565b6040516020818303038152906040525b915050919050565b60085481565b6000611f17826112da565b9050919050565b6000600760008473ffffffffffffffffffffffffffffffffffffffff1673ffffffffffffffffffffffffffffffffffffffff16815260200190815260200160002060008373ffffffffffffffffffffffffffffffffffffffff1673ffffffffffffffffffffffffffffffffffffffff16815260200190815260200160002060009054906101000a900460ff16905092915050565b611fba612146565b73ffffffffffffffffffffffffffffffffffffffff16611fd86118b4565b73ffffffffffffffffffffffffffffffffffffffff161461202e576040517f08c379a0000000000000000000000000000000000000000000000000000000008152600401612025906142d3565b60405180910390fd5b600073ffffffffffffffffffffffffffffffffffffffff168173ffffffffffffffffffffffffffffffffffffffff16141561209e576040517f08c379a000000000000000000000000000000000000000000000000000000000815260040161209590614e59565b60405180910390fd5b6120a781612d09565b50565b7f000000000000000000000000000000000000000000000000000000000000000081565b60007f01ffc9a7000000000000000000000000000000000000000000000000000000007bffffffffffffffffffffffffffffffffffffffffffffffffffffffff1916827bffffffffffffffffffffffffffffffffffffffffffffffffffffffff1916149050919050565b600060015482109050919050565b600033905090565b826006600084815260200190815260200160002060006101000a81548173ffffffffffffffffffffffffffffffffffffffff021916908373ffffffffffffffffffffffffffffffffffffffff160217905550818373ffffffffffffffffffffffffffffffffffffffff168273ffffffffffffffffffffffffffffffffffffffff167f8c5be1e5ebec7d5bd14f71427d1e84f3dd0314c0f7b2291e5b200ac8c7c3b92560405160405180910390a4505050565b600061220b82612b06565b90506000816000015173ffffffffffffffffffffffffffffffffffffffff16612232612146565b73ffffffffffffffffffffffffffffffffffffffff16148061228e5750612257612146565b73ffffffffffffffffffffffffffffffffffffffff1661227684610a44565b73ffffffffffffffffffffffffffffffffffffffff16145b806122aa57506122a982600001516122a4612146565b611f1e565b5b9050806122ec576040517f08c379a00000000000000000000000000000000000000000000000000000000081526004016122e390614eeb565b60405180910390fd5b8473ffffffffffffffffffffffffffffffffffffffff16826000015173ffffffffffffffffffffffffffffffffffffffff161461235e576040517f08c379a000000000000000000000000000000000000000000000000000000000815260040161235590614f7d565b60405180910390fd5b600073ffffffffffffffffffffffffffffffffffffffff168473ffffffffffffffffffffffffffffffffffffffff1614156123ce576040517f08c379a00000000000000000000000000000000000000000000000000000000081526004016123c59061500f565b60405180910390fd5b6123db8585856001613157565b6123eb600084846000015161214e565b6001600560008773ffffffffffffffffffffffffffffffffffffffff1673ffffffffffffffffffffffffffffffffffffffff16815260200190815260200160002060000160008282829054906101000a90046fffffffffffffffffffffffffffffffff16612459919061504b565b92506101000a8154816fffffffffffffffffffffffffffffffff02191690836fffffffffffffffffffffffffffffffff1602179055506001600560008673ffffffffffffffffffffffffffffffffffffffff1673ffffffffffffffffffffffffffffffffffffffff16815260200190815260200160002060000160008282829054906101000a90046fffffffffffffffffffffffffffffffff166124fd919061507f565b92506101000a8154816fffffffffffffffffffffffffffffffff02191690836fffffffffffffffffffffffffffffffff16021790555060405180604001604052808573ffffffffffffffffffffffffffffffffffffffff1681526020014267ffffffffffffffff168152506004600085815260200190815260200160002060008201518160000160006101000a81548173ffffffffffffffffffffffffffffffffffffffff021916908373ffffffffffffffffffffffffffffffffffffffff16021790555060208201518160000160146101000a81548167ffffffffffffffff021916908367ffffffffffffffff160217905550905050600060018461260391906144fb565b9050600073ffffffffffffffffffffffffffffffffffffffff166004600083815260200190815260200160002060000160009054906101000a900473ffffffffffffffffffffffffffffffffffffffff1673ffffffffffffffffffffffffffffffffffffffff1614156127495761267981612138565b15612748576040518060400160405280846000015173ffffffffffffffffffffffffffffffffffffffff168152602001846020015167ffffffffffffffff168152506004600083815260200190815260200160002060008201518160000160006101000a81548173ffffffffffffffffffffffffffffffffffffffff021916908373ffffffffffffffffffffffffffffffffffffffff16021790555060208201518160000160146101000a81548167ffffffffffffffff021916908367ffffffffffffffff1602179055509050505b5b838573ffffffffffffffffffffffffffffffffffffffff168773ffffffffffffffffffffffffffffffffffffffff167fddf252ad1be2c89b69c2b068fc378daa952ba7f163c4a11628f55a4df523b3ef60405160405180910390a46127b1868686600161315d565b505050505050565b6000600854905060008211612803576040517f08c379a00000000000000000000000000000000000000000000000000000000081526004016127fa90615111565b60405180910390fd5b60006001838361281391906144fb565b61281d9190615131565b905060017f000000000000000000000000000000000000000000000000000000000000000061284c9190615131565b8111156128835760017f00000000000000000000000000000000000000000000000000000000000000006128809190615131565b90505b61288c81612138565b6128cb576040517f08c379a00000000000000000000000000000000000000000000000000000000081526004016128c2906151d7565b60405180910390fd5b60008290505b818111612a2e57600073ffffffffffffffffffffffffffffffffffffffff166004600083815260200190815260200160002060000160009054906101000a900473ffffffffffffffffffffffffffffffffffffffff1673ffffffffffffffffffffffffffffffffffffffff161415612a1b57600061294e82612b06565b90506040518060400160405280826000015173ffffffffffffffffffffffffffffffffffffffff168152602001826020015167ffffffffffffffff168152506004600084815260200190815260200160002060008201518160000160006101000a81548173ffffffffffffffffffffffffffffffffffffffff021916908373ffffffffffffffffffffffffffffffffffffffff16021790555060208201518160000160146101000a81548167ffffffffffffffff021916908367ffffffffffffffff160217905550905050505b8080612a2690614420565b9150506128d1565b50600181612a3c91906144fb565b600881905550505050565b612a61828260405180602001604052806000815250613163565b5050565b80341015612aa8576040517f08c379a0000000000000000000000000000000000000000000000000000000008152600401612a9f90615243565b60405180910390fd5b80341115612b03573373ffffffffffffffffffffffffffffffffffffffff166108fc8234612ad69190615131565b9081150290604051600060405180830381858888f19350505050158015612b01573d6000803e3d6000fd5b505b50565b612b0e6136dc565b612b1782612138565b612b56576040517f08c379a0000000000000000000000000000000000000000000000000000000008152600401612b4d906152d5565b60405180910390fd5b60007f00000000000000000000000000000000000000000000000000000000000000008310612bba5760017f000000000000000000000000000000000000000000000000000000000000000084612bad9190615131565b612bb791906144fb565b90505b60008390505b818110612cc8576000600460008381526020019081526020016000206040518060400160405290816000820160009054906101000a900473ffffffffffffffffffffffffffffffffffffffff1673ffffffffffffffffffffffffffffffffffffffff1673ffffffffffffffffffffffffffffffffffffffff1681526020016000820160149054906101000a900467ffffffffffffffff1667ffffffffffffffff1667ffffffffffffffff16815250509050600073ffffffffffffffffffffffffffffffffffffffff16816000015173ffffffffffffffffffffffffffffffffffffffff1614612cb457809350505050612d04565b508080612cc09061484a565b915050612bc0565b506040517f08c379a0000000000000000000000000000000000000000000000000000000008152600401612cfb90615367565b60405180910390fd5b919050565b60008060009054906101000a900473ffffffffffffffffffffffffffffffffffffffff169050816000806101000a81548173ffffffffffffffffffffffffffffffffffffffff021916908373ffffffffffffffffffffffffffffffffffffffff1602179055508173ffffffffffffffffffffffffffffffffffffffff168173ffffffffffffffffffffffffffffffffffffffff167f8be0079c531659141344cd1fd0a4f28419497f9722a3daafe3b4186f6b6457e060405160405180910390a35050565b6000612dee8473ffffffffffffffffffffffffffffffffffffffff16613643565b15612f57578373ffffffffffffffffffffffffffffffffffffffff1663150b7a02612e17612146565b8786866040518563ffffffff1660e01b8152600401612e3994939291906153dc565b602060405180830381600087803b158015612e5357600080fd5b505af1925050508015612e8457506040513d601f19601f82011682018060405250810190612e81919061543d565b60015b612f07573d8060008114612eb4576040519150601f19603f3d011682016040523d82523d6000602084013e612eb9565b606091505b50600081511415612eff576040517f08c379a0000000000000000000000000000000000000000000000000000000008152600401612ef690614cd5565b60405180910390fd5b805181602001fd5b63150b7a0260e01b7bffffffffffffffffffffffffffffffffffffffffffffffffffffffff1916817bffffffffffffffffffffffffffffffffffffffffffffffffffffffff191614915050612f5c565b600190505b949350505050565b6060600b8054612f739061409f565b80601f0160208091040260200160405190810160405280929190818152602001828054612f9f9061409f565b8015612fec5780601f10612fc157610100808354040283529160200191612fec565b820191906000526020600020905b815481529060010190602001808311612fcf57829003601f168201915b5050505050905090565b6060600082141561303e576040518060400160405280600181526020017f30000000000000000000000000000000000000000000000000000000000000008152509050613152565b600082905060005b6000821461307057808061305990614420565b915050600a8261306991906146d5565b9150613046565b60008167ffffffffffffffff81111561308c5761308b613c7f565b5b6040519080825280601f01601f1916602001820160405280156130be5781602001600182028036833780820191505090505b5090505b6000851461314b576001826130d79190615131565b9150600a856130e69190614612565b60306130f291906144fb565b60f81b81838151811061310857613107614bc8565b5b60200101907effffffffffffffffffffffffffffffffffffffffffffffffffffffffffffff1916908160001a905350600a8561314491906146d5565b94506130c2565b8093505050505b919050565b50505050565b50505050565b60006001549050600073ffffffffffffffffffffffffffffffffffffffff168473ffffffffffffffffffffffffffffffffffffffff1614156131da576040517f08c379a00000000000000000000000000000000000000000000000000000000081526004016131d1906154dc565b60405180910390fd5b6131e381612138565b15613223576040517f08c379a000000000000000000000000000000000000000000000000000000000815260040161321a90615548565b60405180910390fd5b7f0000000000000000000000000000000000000000000000000000000000000000831115613286576040517f08c379a000000000000000000000000000000000000000000000000000000000815260040161327d906155da565b60405180910390fd5b6132936000858386613157565b6000600560008673ffffffffffffffffffffffffffffffffffffffff1673ffffffffffffffffffffffffffffffffffffffff1681526020019081526020016000206040518060400160405290816000820160009054906101000a90046fffffffffffffffffffffffffffffffff166fffffffffffffffffffffffffffffffff166fffffffffffffffffffffffffffffffff1681526020016000820160109054906101000a90046fffffffffffffffffffffffffffffffff166fffffffffffffffffffffffffffffffff166fffffffffffffffffffffffffffffffff168152505090506040518060400160405280858360000151613390919061507f565b6fffffffffffffffffffffffffffffffff1681526020018583602001516133b7919061507f565b6fffffffffffffffffffffffffffffffff16815250600560008773ffffffffffffffffffffffffffffffffffffffff1673ffffffffffffffffffffffffffffffffffffffff16815260200190815260200160002060008201518160000160006101000a8154816fffffffffffffffffffffffffffffffff02191690836fffffffffffffffffffffffffffffffff16021790555060208201518160000160106101000a8154816fffffffffffffffffffffffffffffffff02191690836fffffffffffffffffffffffffffffffff16021790555090505060405180604001604052808673ffffffffffffffffffffffffffffffffffffffff1681526020014267ffffffffffffffff168152506004600084815260200190815260200160002060008201518160000160006101000a81548173ffffffffffffffffffffffffffffffffffffffff021916908373ffffffffffffffffffffffffffffffffffffffff16021790555060208201518160000160146101000a81548167ffffffffffffffff021916908367ffffffffffffffff160217905550905050600082905060005b8581101561362657818773ffffffffffffffffffffffffffffffffffffffff16600073ffffffffffffffffffffffffffffffffffffffff167fddf252ad1be2c89b69c2b068fc378daa952ba7f163c4a11628f55a4df523b3ef60405160405180910390a46135c66000888488612dcd565b613605576040517f08c379a00000000000000000000000000000000000000000000000000000000081526004016135fc90614cd5565b60405180910390fd5b818061361090614420565b925050808061361e90614420565b915050613555565b508060018190555061363b600087858861315d565b505050505050565b600080823b905060008111915050919050565b8280546136629061409f565b90600052602060002090601f01602090048101928261368457600085556136cb565b82601f1061369d57803560ff19168380011785556136cb565b828001600101855582156136cb579182015b828111156136ca5782358255916020019190600101906136af565b5b5090506136d89190613716565b5090565b6040518060400160405280600073ffffffffffffffffffffffffffffffffffffffff168152602001600067ffffffffffffffff1681525090565b5b8082111561372f576000816000905550600101613717565b5090565b6000604051905090565b600080fd5b600080fd5b60007fffffffff0000000000000000000000000000000000000000000000000000000082169050919050565b61377c81613747565b811461378757600080fd5b50565b60008135905061379981613773565b92915050565b6000602082840312156137b5576137b461373d565b5b60006137c38482850161378a565b91505092915050565b60008115159050919050565b6137e1816137cc565b82525050565b60006020820190506137fc60008301846137d8565b92915050565b600081519050919050565b600082825260208201905092915050565b60005b8381101561383c578082015181840152602081019050613821565b8381111561384b576000848401525b50505050565b6000601f19601f8301169050919050565b600061386d82613802565b613877818561380d565b935061388781856020860161381e565b61389081613851565b840191505092915050565b600060208201905081810360008301526138b58184613862565b905092915050565b6000819050919050565b6138d0816138bd565b81146138db57600080fd5b50565b6000813590506138ed816138c7565b92915050565b6000602082840312156139095761390861373d565b5b6000613917848285016138de565b91505092915050565b600073ffffffffffffffffffffffffffffffffffffffff82169050919050565b600061394b82613920565b9050919050565b61395b81613940565b82525050565b60006020820190506139766000830184613952565b92915050565b61398581613940565b811461399057600080fd5b50565b6000813590506139a28161397c565b92915050565b600080604083850312156139bf576139be61373d565b5b60006139cd85828601613993565b92505060206139de858286016138de565b9150509250929050565b6139f1816138bd565b82525050565b6000602082019050613a0c60008301846139e8565b92915050565b600080600060608486031215613a2b57613a2a61373d565b5b6000613a3986828701613993565b9350506020613a4a86828701613993565b9250506040613a5b868287016138de565b9150509250925092565b600080600060608486031215613a7e57613a7d61373d565b5b6000613a8c868287016138de565b9350506020613a9d868287016138de565b9250506040613aae868287016138de565b9150509250925092565b600060208284031215613ace57613acd61373d565b5b6000613adc84828501613993565b91505092915050565b600080fd5b600080fd5b600080fd5b60008083601f840112613b0a57613b09613ae5565b5b8235905067ffffffffffffffff811115613b2757613b26613aea565b5b602083019150836001820283011115613b4357613b42613aef565b5b9250929050565b60008060208385031215613b6157613b6061373d565b5b600083013567ffffffffffffffff811115613b7f57613b7e613742565b5b613b8b85828601613af4565b92509250509250929050565b613ba081613940565b82525050565b600067ffffffffffffffff82169050919050565b613bc381613ba6565b82525050565b604082016000820151613bdf6000850182613b97565b506020820151613bf26020850182613bba565b50505050565b6000604082019050613c0d6000830184613bc9565b92915050565b613c1c816137cc565b8114613c2757600080fd5b50565b600081359050613c3981613c13565b92915050565b60008060408385031215613c5657613c5561373d565b5b6000613c6485828601613993565b9250506020613c7585828601613c2a565b9150509250929050565b7f4e487b7100000000000000000000000000000000000000000000000000000000600052604160045260246000fd5b613cb782613851565b810181811067ffffffffffffffff82111715613cd657613cd5613c7f565b5b80604052505050565b6000613ce9613733565b9050613cf58282613cae565b919050565b600067ffffffffffffffff821115613d1557613d14613c7f565b5b602082029050602081019050919050565b6000613d39613d3484613cfa565b613cdf565b90508083825260208201905060208402830185811115613d5c57613d5b613aef565b5b835b81811015613d855780613d718882613993565b845260208401935050602081019050613d5e565b5050509392505050565b600082601f830112613da457613da3613ae5565b5b8135613db4848260208601613d26565b91505092915050565b600067ffffffffffffffff821115613dd857613dd7613c7f565b5b602082029050602081019050919050565b6000613dfc613df784613dbd565b613cdf565b90508083825260208201905060208402830185811115613e1f57613e1e613aef565b5b835b81811015613e485780613e3488826138de565b845260208401935050602081019050613e21565b5050509392505050565b600082601f830112613e6757613e66613ae5565b5b8135613e77848260208601613de9565b91505092915050565b60008060408385031215613e9757613e9661373d565b5b600083013567ffffffffffffffff811115613eb557613eb4613742565b5b613ec185828601613d8f565b925050602083013567ffffffffffffffff811115613ee257613ee1613742565b5b613eee85828601613e52565b9150509250929050565b600080fd5b600067ffffffffffffffff821115613f1857613f17613c7f565b5b613f2182613851565b9050602081019050919050565b82818337600083830152505050565b6000613f50613f4b84613efd565b613cdf565b905082815260208101848484011115613f6c57613f6b613ef8565b5b613f77848285613f2e565b509392505050565b600082601f830112613f9457613f93613ae5565b5b8135613fa4848260208601613f3d565b91505092915050565b60008060008060808587031215613fc757613fc661373d565b5b6000613fd587828801613993565b9450506020613fe687828801613993565b9350506040613ff7878288016138de565b925050606085013567ffffffffffffffff81111561401857614017613742565b5b61402487828801613f7f565b91505092959194509250565b600080604083850312156140475761404661373d565b5b600061405585828601613993565b925050602061406685828601613993565b9150509250929050565b7f4e487b7100000000000000000000000000000000000000000000000000000000600052602260045260246000fd5b600060028204905060018216806140b757607f821691505b602082108114156140cb576140ca614070565b5b50919050565b7f455243373231413a20617070726f76656420717565727920666f72206e6f6e6560008201527f78697374656e7420746f6b656e00000000000000000000000000000000000000602082015250565b600061412d602d8361380d565b9150614138826140d1565b604082019050919050565b6000602082019050818103600083015261415c81614120565b9050919050565b7f455243373231413a20617070726f76616c20746f2063757272656e74206f776e60008201527f6572000000000000000000000000000000000000000000000000000000000000602082015250565b60006141bf60228361380d565b91506141ca82614163565b604082019050919050565b600060208201905081810360008301526141ee816141b2565b9050919050565b7f455243373231413a20617070726f76652063616c6c6572206973206e6f74206f60008201527f776e6572206e6f7220617070726f76656420666f7220616c6c00000000000000602082015250565b600061425160398361380d565b915061425c826141f5565b604082019050919050565b6000602082019050818103600083015261428081614244565b9050919050565b7f4f776e61626c653a2063616c6c6572206973206e6f7420746865206f776e6572600082015250565b60006142bd60208361380d565b91506142c882614287565b602082019050919050565b600060208201905081810360008301526142ec816142b0565b9050919050565b7f5265656e7472616e637947756172643a207265656e7472616e742063616c6c00600082015250565b6000614329601f8361380d565b9150614334826142f3565b602082019050919050565b600060208201905081810360008301526143588161431c565b9050919050565b7f455243373231413a206f776e657220696e646578206f7574206f6620626f756e60008201527f6473000000000000000000000000000000000000000000000000000000000000602082015250565b60006143bb60228361380d565b91506143c68261435f565b604082019050919050565b600060208201905081810360008301526143ea816143ae565b9050919050565b7f4e487b7100000000000000000000000000000000000000000000000000000000600052601160045260246000fd5b600061442b826138bd565b91507fffffffffffffffffffffffffffffffffffffffffffffffffffffffffffffffff82141561445e5761445d6143f1565b5b600182019050919050565b7f455243373231413a20756e61626c6520746f2067657420746f6b656e206f662060008201527f6f776e657220627920696e646578000000000000000000000000000000000000602082015250565b60006144c5602e8361380d565b91506144d082614469565b604082019050919050565b600060208201905081810360008301526144f4816144b8565b9050919050565b6000614506826138bd565b9150614511836138bd565b9250827fffffffffffffffffffffffffffffffffffffffffffffffffffffffffffffffff03821115614546576145456143f1565b5b828201905092915050565b7f746f6f206d616e7920616c7265616479206d696e746564206265666f7265206460008201527f6576206d696e7400000000000000000000000000000000000000000000000000602082015250565b60006145ad60278361380d565b91506145b882614551565b604082019050919050565b600060208201905081810360008301526145dc816145a0565b9050919050565b7f4e487b7100000000000000000000000000000000000000000000000000000000600052601260045260246000fd5b600061461d826138bd565b9150614628836138bd565b925082614638576146376145e3565b5b828206905092915050565b7f63616e206f6e6c79206d696e742061206d756c7469706c65206f66207468652060008201527f6d6178426174636853697a650000000000000000000000000000000000000000602082015250565b600061469f602c8361380d565b91506146aa82614643565b604082019050919050565b600060208201905081810360008301526146ce81614692565b9050919050565b60006146e0826138bd565b91506146eb836138bd565b9250826146fb576146fa6145e3565b5b828204905092915050565b7f5468652063616c6c657220697320616e6f7468657220636f6e74726163740000600082015250565b600061473c601e8361380d565b915061474782614706565b602082019050919050565b6000602082019050818103600083015261476b8161472f565b9050919050565b7f6e6f7420656c696769626c6520666f7220616c6c6f776c697374206d696e7400600082015250565b60006147a8601f8361380d565b91506147b382614772565b602082019050919050565b600060208201905081810360008301526147d78161479b565b9050919050565b7f72656163686564206d617820737570706c790000000000000000000000000000600082015250565b600061481460128361380d565b915061481f826147de565b602082019050919050565b6000602082019050818103600083015261484381614807565b9050919050565b6000614855826138bd565b91506000821415614869576148686143f1565b5b600182039050919050565b7f455243373231413a206e756d626572206d696e74656420717565727920666f7260008201527f20746865207a65726f2061646472657373000000000000000000000000000000602082015250565b60006148d060318361380d565b91506148db82614874565b604082019050919050565b600060208201905081810360008301526148ff816148c3565b9050919050565b7f455243373231413a20676c6f62616c20696e646578206f7574206f6620626f7560008201527f6e64730000000000000000000000000000000000000000000000000000000000602082015250565b600061496260238361380d565b915061496d82614906565b604082019050919050565b6000602082019050818103600083015261499181614955565b9050919050565b60006149a3826138bd565b91506149ae836138bd565b9250817fffffffffffffffffffffffffffffffffffffffffffffffffffffffffffffffff04831182151516156149e7576149e66143f1565b5b828202905092915050565b600081905092915050565b50565b6000614a0d6000836149f2565b9150614a18826149fd565b600082019050919050565b6000614a2e82614a00565b9150819050919050565b7f455243373231413a2062616c616e636520717565727920666f7220746865207a60008201527f65726f2061646472657373000000000000000000000000000000000000000000602082015250565b6000614a94602b8361380d565b9150614a9f82614a38565b604082019050919050565b60006020820190508181036000830152614ac381614a87565b9050919050565b7f455243373231413a20617070726f766520746f2063616c6c6572000000000000600082015250565b6000614b00601a8361380d565b9150614b0b82614aca565b602082019050919050565b60006020820190508181036000830152614b2f81614af3565b9050919050565b7f61646472657373657320646f6573206e6f74206d61746368206e756d536c6f7460008201527f73206c656e677468000000000000000000000000000000000000000000000000602082015250565b6000614b9260288361380d565b9150614b9d82614b36565b604082019050919050565b60006020820190508181036000830152614bc181614b85565b9050919050565b7f4e487b7100000000000000000000000000000000000000000000000000000000600052603260045260246000fd5b7f63616e206e6f74206d696e742074686973206d616e7900000000000000000000600082015250565b6000614c2d60168361380d565b9150614c3882614bf7565b602082019050919050565b60006020820190508181036000830152614c5c81614c20565b9050919050565b7f455243373231413a207472616e7366657220746f206e6f6e204552433732315260008201527f6563656976657220696d706c656d656e74657200000000000000000000000000602082015250565b6000614cbf60338361380d565b9150614cca82614c63565b604082019050919050565b60006020820190508181036000830152614cee81614cb2565b9050919050565b7f4552433732314d657461646174613a2055524920717565727920666f72206e6f60008201527f6e6578697374656e7420746f6b656e0000000000000000000000000000000000602082015250565b6000614d51602f8361380d565b9150614d5c82614cf5565b604082019050919050565b60006020820190508181036000830152614d8081614d44565b9050919050565b600081905092915050565b6000614d9d82613802565b614da78185614d87565b9350614db781856020860161381e565b80840191505092915050565b6000614dcf8285614d92565b9150614ddb8284614d92565b91508190509392505050565b7f4f776e61626c653a206e6577206f776e657220697320746865207a65726f206160008201527f6464726573730000000000000000000000000000000000000000000000000000602082015250565b6000614e4360268361380d565b9150614e4e82614de7565b604082019050919050565b60006020820190508181036000830152614e7281614e36565b9050919050565b7f455243373231413a207472616e736665722063616c6c6572206973206e6f742060008201527f6f776e6572206e6f7220617070726f7665640000000000000000000000000000602082015250565b6000614ed560328361380d565b9150614ee082614e79565b604082019050919050565b60006020820190508181036000830152614f0481614ec8565b9050919050565b7f455243373231413a207472616e736665722066726f6d20696e636f727265637460008201527f206f776e65720000000000000000000000000000000000000000000000000000602082015250565b6000614f6760268361380d565b9150614f7282614f0b565b604082019050919050565b60006020820190508181036000830152614f9681614f5a565b9050919050565b7f455243373231413a207472616e7366657220746f20746865207a65726f20616460008201527f6472657373000000000000000000000000000000000000000000000000000000602082015250565b6000614ff960258361380d565b915061500482614f9d565b604082019050919050565b6000602082019050818103600083015261502881614fec565b9050919050565b60006fffffffffffffffffffffffffffffffff82169050919050565b60006150568261502f565b91506150618361502f565b925082821015615074576150736143f1565b5b828203905092915050565b600061508a8261502f565b91506150958361502f565b9250826fffffffffffffffffffffffffffffffff038211156150ba576150b96143f1565b5b828201905092915050565b7f7175616e74697479206d757374206265206e6f6e7a65726f0000000000000000600082015250565b60006150fb60188361380d565b9150615106826150c5565b602082019050919050565b6000602082019050818103600083015261512a816150ee565b9050919050565b600061513c826138bd565b9150615147836138bd565b92508282101561515a576151596143f1565b5b828203905092915050565b7f6e6f7420656e6f756768206d696e7465642079657420666f722074686973206360008201527f6c65616e75700000000000000000000000000000000000000000000000000000602082015250565b60006151c160268361380d565b91506151cc82615165565b604082019050919050565b600060208201905081810360008301526151f0816151b4565b9050919050565b7f4e65656420746f2073656e64206d6f7265204554482e00000000000000000000600082015250565b600061522d60168361380d565b9150615238826151f7565b602082019050919050565b6000602082019050818103600083015261525c81615220565b9050919050565b7f455243373231413a206f776e657220717565727920666f72206e6f6e6578697360008201527f74656e7420746f6b656e00000000000000000000000000000000000000000000602082015250565b60006152bf602a8361380d565b91506152ca82615263565b604082019050919050565b600060208201905081810360008301526152ee816152b2565b9050919050565b7f455243373231413a20756e61626c6520746f2064657465726d696e652074686560008201527f206f776e6572206f6620746f6b656e0000000000000000000000000000000000602082015250565b6000615351602f8361380d565b915061535c826152f5565b604082019050919050565b6000602082019050818103600083015261538081615344565b9050919050565b600081519050919050565b600082825260208201905092915050565b60006153ae82615387565b6153b88185615392565b93506153c881856020860161381e565b6153d181613851565b840191505092915050565b60006080820190506153f16000830187613952565b6153fe6020830186613952565b61540b60408301856139e8565b818103606083015261541d81846153a3565b905095945050505050565b60008151905061543781613773565b92915050565b6000602082840312156154535761545261373d565b5b600061546184828501615428565b91505092915050565b7f455243373231413a206d696e7420746f20746865207a65726f2061646472657360008201527f7300000000000000000000000000000000000000000000000000000000000000602082015250565b60006154c660218361380d565b91506154d18261546a565b604082019050919050565b600060208201905081810360008301526154f5816154b9565b9050919050565b7f455243373231413a20746f6b656e20616c7265616479206d696e746564000000600082015250565b6000615532601d8361380d565b915061553d826154fc565b602082019050919050565b6000602082019050818103600083015261556181615525565b9050919050565b7f455243373231413a207175616e7469747920746f206d696e7420746f6f20686960008201527f6768000000000000000000000000000000000000000000000000000000000000602082015250565b60006155c460228361380d565b91506155cf82615568565b604082019050919050565b600060208201905081810360008301526155f3816155b7565b905091905056fea2646970667358221220b1886e299fcee7b73a8359dec264450ec948ca2d0d0aeea15f41d3c19ce2a21364736f6c63430008090033",
  "immutableReferences": {
    "936": [
      {
        "length": 32,
        "start": 4530
      },
      {
        "length": 32,
        "start": 7416
      },
      {
        "length": 32,
        "start": 10275
      },
      {
        "length": 32,
        "start": 10327
      }
    ],
    "938": [
      {
        "length": 32,
        "start": 4045
      },
      {
        "length": 32,
        "start": 4155
      },
      {
        "length": 32,
        "start": 4216
      },
      {
        "length": 32,
        "start": 11098
      },
      {
        "length": 32,
        "start": 11139
      },
      {
        "length": 32,
        "start": 12837
      }
    ],
    "2103": [
      {
        "length": 32,
        "start": 6290
      },
      {
        "length": 32,
        "start": 7533
      }
    ],
    "2105": [
      {
        "length": 32,
        "start": 3926
      },
      {
        "length": 32,
        "start": 8364
      }
    ],
    "2107": [
      {
        "length": 32,
        "start": 5290
      }
    ]
  },
  "source": "// SPDX-License-Identifier: MIT\n\npragma solidity ^0.8.0;\n\nimport \"@openzeppelin/contracts/access/Ownable.sol\";\nimport \"@openzeppelin/contracts/security/ReentrancyGuard.sol\";\nimport \"./ERC721A.sol\";\nimport \"@openzeppelin/contracts/utils/Strings.sol\";\n\ncontract YetiPunks is Ownable, ERC721A, ReentrancyGuard {\n  uint256 public immutable maxPerAddressDuringMint;\n  uint256 public immutable amountForDevs;\n  uint256 public immutable amountForAuctionAndDev;\n\n  mapping(address => uint256) public allowlist;\n\n  constructor(\n    uint256 maxBatchSize_,\n    uint256 collectionSize_,\n    uint256 amountForAuctionAndDev_,\n    uint256 amountForDevs_\n  ) ERC721A(\"Petty Monks\", \"PM\", maxBatchSize_, collectionSize_) {\n    maxPerAddressDuringMint = maxBatchSize_;\n    amountForAuctionAndDev = amountForAuctionAndDev_;\n    amountForDevs = amountForDevs_;\n    require(\n      amountForAuctionAndDev_ <= collectionSize_,\n      \"larger collection size needed\"\n    );\n  }\n\n  modifier callerIsUser() {\n    require(tx.origin == msg.sender, \"The caller is another contract\");\n    _;\n  }\n\n  function allowlistMint() external payable callerIsUser {\n    uint256 price = 0.03 ether;\n    require(allowlist[msg.sender] > 0, \"not eligible for allowlist mint\");\n    require(totalSupply() + 1 <= collectionSize, \"reached max supply\");\n    allowlist[msg.sender]--;\n    _safeMint(msg.sender, 1);\n    refundIfOver(price);\n  }\n\n  function publicSaleMint(uint256 quantity)\n    external\n    payable\n    callerIsUser\n  {\n\n    uint256 publicPrice = 0.03 ether;\n\n    require(totalSupply() + quantity <= collectionSize, \"reached max supply\");\n    require(\n      numberMinted(msg.sender) + quantity <= maxPerAddressDuringMint,\n      \"can not mint this many\"\n    );\n    _safeMint(msg.sender, quantity);\n    refundIfOver(publicPrice * quantity);\n  }\n\n  function refundIfOver(uint256 price) private {\n    require(msg.value >= price, \"Need to send more ETH.\");\n    if (msg.value > price) {\n      payable(msg.sender).transfer(msg.value - price);\n    }\n  }\n\n  function isPublicSaleOn(\n    uint256 publicPriceWei,\n    uint256 publicSaleKey,\n    uint256 publicSaleStartTime\n  ) public view returns (bool) {\n    return\n      publicPriceWei != 0 &&\n      publicSaleKey != 0 &&\n      block.timestamp >= publicSaleStartTime;\n  }\n\n  function seedAllowlist(address[] memory addresses, uint256[] memory numSlots)\n    external\n    onlyOwner\n  {\n    require(\n      addresses.length == numSlots.length,\n      \"addresses does not match numSlots length\"\n    );\n    for (uint256 i = 0; i < addresses.length; i++) {\n      allowlist[addresses[i]] = numSlots[i];\n    }\n  }\n\n  // For marketing etc.\n  function devMint(uint256 quantity) external onlyOwner {\n    require(\n      totalSupply() + quantity <= amountForDevs,\n      \"too many already minted before dev mint\"\n    );\n    require(\n      quantity % maxBatchSize == 0,\n      \"can only mint a multiple of the maxBatchSize\"\n    );\n    uint256 numChunks = quantity / maxBatchSize;\n    for (uint256 i = 0; i < numChunks; i++) {\n      _safeMint(msg.sender, maxBatchSize);\n    }\n  }\n\n  // metadata URI\n  string private _baseTokenURI;\n\n  function _baseURI() internal view virtual override returns (string memory) {\n    return _baseTokenURI;\n  }\n\n  function setBaseURI(string calldata baseURI) external onlyOwner {\n    _baseTokenURI = baseURI;\n  }\n\n  function withdrawBalance() public onlyOwner {\n      uint256 oneThird = (address(this).balance * 33) / 100;\n      (bool manduSuccess, ) = payable(\n          0xD61ADc48afE9402B4411805Ce6026eF74F94E713\n      ).call{value: oneThird}(\"\");\n      require(manduSuccess);\n      (bool tenzingSuccess, ) = payable(\n          0xE3Ce04B3BcbdFa219407870Ca617e18fBF503F28\n      ).call{value: oneThird}(\"\");\n      require(tenzingSuccess);\n      (bool tokiMoriSuccess, ) = payable(\n          0x49Cf0aF1cE6a50e822A91a427B3E29007f9C6C09\n      ).call{value: address(this).balance}(\"\");\n      require(tokiMoriSuccess);\n  }\n\n  function setOwnersExplicit(uint256 quantity) external onlyOwner nonReentrant {\n    _setOwnersExplicit(quantity);\n  }\n\n  function numberMinted(address owner) public view returns (uint256) {\n    return _numberMinted(owner);\n  }\n\n  function getOwnershipData(uint256 tokenId)\n    external\n    view\n    returns (TokenOwnership memory)\n  {\n    return ownershipOf(tokenId);\n  }\n}",
  "sourcePath": "/Users/christopherfoley/nft/YetiPunks/src/contracts/YetiPunks.sol",
  "compiler": {
    "name": "solc",
    "version": "0.8.9+commit.e5eed63a.Emscripten.clang"
  },
  "schemaVersion": "3.4.4",
  "updatedAt": "2022-02-08T03:33:56.936Z",
  "networkType": "ethereum",
  "devdoc": {
    "kind": "dev",
    "methods": {
      "approve(address,uint256)": {
        "details": "See {IERC721-approve}."
      },
      "balanceOf(address)": {
        "details": "See {IERC721-balanceOf}."
      },
      "getApproved(uint256)": {
        "details": "See {IERC721-getApproved}."
      },
      "isApprovedForAll(address,address)": {
        "details": "See {IERC721-isApprovedForAll}."
      },
      "name()": {
        "details": "See {IERC721Metadata-name}."
      },
      "owner()": {
        "details": "Returns the address of the current owner."
      },
      "ownerOf(uint256)": {
        "details": "See {IERC721-ownerOf}."
      },
      "renounceOwnership()": {
        "details": "Leaves the contract without owner. It will not be possible to call `onlyOwner` functions anymore. Can only be called by the current owner. NOTE: Renouncing ownership will leave the contract without an owner, thereby removing any functionality that is only available to the owner."
      },
      "safeTransferFrom(address,address,uint256)": {
        "details": "See {IERC721-safeTransferFrom}."
      },
      "safeTransferFrom(address,address,uint256,bytes)": {
        "details": "See {IERC721-safeTransferFrom}."
      },
      "setApprovalForAll(address,bool)": {
        "details": "See {IERC721-setApprovalForAll}."
      },
      "supportsInterface(bytes4)": {
        "details": "See {IERC165-supportsInterface}."
      },
      "symbol()": {
        "details": "See {IERC721Metadata-symbol}."
      },
      "tokenByIndex(uint256)": {
        "details": "See {IERC721Enumerable-tokenByIndex}."
      },
      "tokenOfOwnerByIndex(address,uint256)": {
        "details": "See {IERC721Enumerable-tokenOfOwnerByIndex}. This read function is O(collectionSize). If calling from a separate contract, be sure to test gas first. It may also degrade with extremely large collection sizes (e.g >> 10000), test for your use case."
      },
      "tokenURI(uint256)": {
        "details": "See {IERC721Metadata-tokenURI}."
      },
      "totalSupply()": {
        "details": "See {IERC721Enumerable-totalSupply}."
      },
      "transferFrom(address,address,uint256)": {
        "details": "See {IERC721-transferFrom}."
      },
      "transferOwnership(address)": {
        "details": "Transfers ownership of the contract to a new account (`newOwner`). Can only be called by the current owner."
      }
    },
    "version": 1
  },
  "userdoc": {
    "kind": "user",
    "methods": {},
    "version": 1
  }
}