{
  "contractName": "YetiPunks",
  "abi": [
    {
      "inputs": [],
      "stateMutability": "nonpayable",
      "type": "constructor"
    },
    {
      "anonymous": false,
      "inputs": [
        {
          "indexed": true,
          "internalType": "address",
          "name": "owner",
          "type": "address"
        },
        {
          "indexed": true,
          "internalType": "address",
          "name": "approved",
          "type": "address"
        },
        {
          "indexed": true,
          "internalType": "uint256",
          "name": "tokenId",
          "type": "uint256"
        }
      ],
      "name": "Approval",
      "type": "event"
    },
    {
      "anonymous": false,
      "inputs": [
        {
          "indexed": true,
          "internalType": "address",
          "name": "owner",
          "type": "address"
        },
        {
          "indexed": true,
          "internalType": "address",
          "name": "operator",
          "type": "address"
        },
        {
          "indexed": false,
          "internalType": "bool",
          "name": "approved",
          "type": "bool"
        }
      ],
      "name": "ApprovalForAll",
      "type": "event"
    },
    {
      "anonymous": false,
      "inputs": [
        {
          "indexed": true,
          "internalType": "address",
          "name": "previousOwner",
          "type": "address"
        },
        {
          "indexed": true,
          "internalType": "address",
          "name": "newOwner",
          "type": "address"
        }
      ],
      "name": "OwnershipTransferred",
      "type": "event"
    },
    {
      "anonymous": false,
      "inputs": [
        {
          "indexed": true,
          "internalType": "address",
          "name": "from",
          "type": "address"
        },
        {
          "indexed": true,
          "internalType": "address",
          "name": "to",
          "type": "address"
        },
        {
          "indexed": true,
          "internalType": "uint256",
          "name": "tokenId",
          "type": "uint256"
        }
      ],
      "name": "Transfer",
      "type": "event"
    },
    {
      "inputs": [
        {
          "internalType": "address",
          "name": "to",
          "type": "address"
        },
        {
          "internalType": "uint256",
          "name": "tokenId",
          "type": "uint256"
        }
      ],
      "name": "approve",
      "outputs": [],
      "stateMutability": "nonpayable",
      "type": "function"
    },
    {
      "inputs": [
        {
          "internalType": "address",
          "name": "owner",
          "type": "address"
        }
      ],
      "name": "balanceOf",
      "outputs": [
        {
          "internalType": "uint256",
          "name": "",
          "type": "uint256"
        }
      ],
      "stateMutability": "view",
      "type": "function",
      "constant": true
    },
    {
      "inputs": [],
      "name": "baseURI",
      "outputs": [
        {
          "internalType": "string",
          "name": "",
          "type": "string"
        }
      ],
      "stateMutability": "view",
      "type": "function",
      "constant": true
    },
    {
      "inputs": [
        {
          "internalType": "uint256",
          "name": "tokenId",
          "type": "uint256"
        }
      ],
      "name": "getApproved",
      "outputs": [
        {
          "internalType": "address",
          "name": "",
          "type": "address"
        }
      ],
      "stateMutability": "view",
      "type": "function",
      "constant": true
    },
    {
      "inputs": [
        {
          "internalType": "address",
          "name": "owner",
          "type": "address"
        },
        {
          "internalType": "address",
          "name": "operator",
          "type": "address"
        }
      ],
      "name": "isApprovedForAll",
      "outputs": [
        {
          "internalType": "bool",
          "name": "",
          "type": "bool"
        }
      ],
      "stateMutability": "view",
      "type": "function",
      "constant": true
    },
    {
      "inputs": [],
      "name": "name",
      "outputs": [
        {
          "internalType": "string",
          "name": "",
          "type": "string"
        }
      ],
      "stateMutability": "view",
      "type": "function",
      "constant": true
    },
    {
      "inputs": [],
      "name": "owner",
      "outputs": [
        {
          "internalType": "address",
          "name": "",
          "type": "address"
        }
      ],
      "stateMutability": "view",
      "type": "function",
      "constant": true
    },
    {
      "inputs": [
        {
          "internalType": "uint256",
          "name": "tokenId",
          "type": "uint256"
        }
      ],
      "name": "ownerOf",
      "outputs": [
        {
          "internalType": "address",
          "name": "",
          "type": "address"
        }
      ],
      "stateMutability": "view",
      "type": "function",
      "constant": true
    },
    {
      "inputs": [],
      "name": "renounceOwnership",
      "outputs": [],
      "stateMutability": "nonpayable",
      "type": "function"
    },
    {
      "inputs": [
        {
          "internalType": "address",
          "name": "from",
          "type": "address"
        },
        {
          "internalType": "address",
          "name": "to",
          "type": "address"
        },
        {
          "internalType": "uint256",
          "name": "tokenId",
          "type": "uint256"
        }
      ],
      "name": "safeTransferFrom",
      "outputs": [],
      "stateMutability": "nonpayable",
      "type": "function"
    },
    {
      "inputs": [
        {
          "internalType": "address",
          "name": "from",
          "type": "address"
        },
        {
          "internalType": "address",
          "name": "to",
          "type": "address"
        },
        {
          "internalType": "uint256",
          "name": "tokenId",
          "type": "uint256"
        },
        {
          "internalType": "bytes",
          "name": "_data",
          "type": "bytes"
        }
      ],
      "name": "safeTransferFrom",
      "outputs": [],
      "stateMutability": "nonpayable",
      "type": "function"
    },
    {
      "inputs": [
        {
          "internalType": "address",
          "name": "operator",
          "type": "address"
        },
        {
          "internalType": "bool",
          "name": "approved",
          "type": "bool"
        }
      ],
      "name": "setApprovalForAll",
      "outputs": [],
      "stateMutability": "nonpayable",
      "type": "function"
    },
    {
      "inputs": [],
      "name": "symbol",
      "outputs": [
        {
          "internalType": "string",
          "name": "",
          "type": "string"
        }
      ],
      "stateMutability": "view",
      "type": "function",
      "constant": true
    },
    {
      "inputs": [
        {
          "internalType": "address",
          "name": "from",
          "type": "address"
        },
        {
          "internalType": "address",
          "name": "to",
          "type": "address"
        },
        {
          "internalType": "uint256",
          "name": "tokenId",
          "type": "uint256"
        }
      ],
      "name": "transferFrom",
      "outputs": [],
      "stateMutability": "nonpayable",
      "type": "function"
    },
    {
      "inputs": [
        {
          "internalType": "address",
          "name": "newOwner",
          "type": "address"
        }
      ],
      "name": "transferOwnership",
      "outputs": [],
      "stateMutability": "nonpayable",
      "type": "function"
    },
    {
      "inputs": [],
      "name": "withdraw",
      "outputs": [],
      "stateMutability": "nonpayable",
      "type": "function"
    },
    {
      "inputs": [
        {
          "internalType": "string",
          "name": "base",
          "type": "string"
        }
      ],
      "name": "setBaseURI",
      "outputs": [],
      "stateMutability": "nonpayable",
      "type": "function"
    },
    {
      "inputs": [],
      "name": "mint",
      "outputs": [],
      "stateMutability": "payable",
      "type": "function",
      "payable": true
    },
    {
      "inputs": [
        {
          "internalType": "uint256",
          "name": "tokenId",
          "type": "uint256"
        }
      ],
      "name": "tokenURI",
      "outputs": [
        {
          "internalType": "string",
          "name": "",
          "type": "string"
        }
      ],
      "stateMutability": "view",
      "type": "function",
      "constant": true
    },
    {
      "inputs": [
        {
          "internalType": "bytes4",
          "name": "interfaceId",
          "type": "bytes4"
        }
      ],
      "name": "supportsInterface",
      "outputs": [
        {
          "internalType": "bool",
          "name": "",
          "type": "bool"
        }
      ],
      "stateMutability": "view",
      "type": "function",
      "constant": true
    }
  ],
  "bytecode": "0x6080604052612710600860006101000a81548161ffff021916908361ffff1602179055506000600860026101000a81548161ffff021916908361ffff1602179055503480156200004e57600080fd5b506040518060400160405280600981526020017f5965746950756e6b7300000000000000000000000000000000000000000000008152506040518060400160405280600481526020017f59455449000000000000000000000000000000000000000000000000000000008152508160009080519060200190620000d3929190620001e3565b508060019080519060200190620000ec929190620001e3565b5050506200010f620001036200011560201b60201c565b6200011d60201b60201c565b620002f8565b600033905090565b6000600660009054906101000a900473ffffffffffffffffffffffffffffffffffffffff16905081600660006101000a81548173ffffffffffffffffffffffffffffffffffffffff021916908373ffffffffffffffffffffffffffffffffffffffff1602179055508173ffffffffffffffffffffffffffffffffffffffff168173ffffffffffffffffffffffffffffffffffffffff167f8be0079c531659141344cd1fd0a4f28419497f9722a3daafe3b4186f6b6457e060405160405180910390a35050565b828054620001f190620002c2565b90600052602060002090601f01602090048101928262000215576000855562000261565b82601f106200023057805160ff191683800117855562000261565b8280016001018555821562000261579182015b828111156200026057825182559160200191906001019062000243565b5b50905062000270919062000274565b5090565b5b808211156200028f57600081600090555060010162000275565b5090565b7f4e487b7100000000000000000000000000000000000000000000000000000000600052602260045260246000fd5b60006002820490506001821680620002db57607f821691505b60208210811415620002f257620002f162000293565b5b50919050565b61321180620003086000396000f3fe60806040526004361061011f5760003560e01c80636c0360eb116100a0578063a22cb46511610064578063a22cb465146103a0578063b88d4fde146103c9578063c87b56dd146103f2578063e985e9c51461042f578063f2fde38b1461046c5761011f565b80636c0360eb146102cb57806370a08231146102f6578063715018a6146103335780638da5cb5b1461034a57806395d89b41146103755761011f565b806323b872dd116100e757806323b872dd146101fc5780633ccfd60b1461022557806342842e0e1461023c57806355f804b3146102655780636352211e1461028e5761011f565b806301ffc9a71461012457806306fdde0314610161578063081812fc1461018c578063095ea7b3146101c95780631249c58b146101f2575b600080fd5b34801561013057600080fd5b5061014b60048036038101906101469190611ed4565b610495565b6040516101589190611f1c565b60405180910390f35b34801561016d57600080fd5b506101766104a7565b6040516101839190611fd0565b60405180910390f35b34801561019857600080fd5b506101b360048036038101906101ae9190612028565b610539565b6040516101c09190612096565b60405180910390f35b3480156101d557600080fd5b506101f060048036038101906101eb91906120dd565b6105be565b005b6101fa6106d6565b005b34801561020857600080fd5b50610223600480360381019061021e919061211d565b6107b2565b005b34801561023157600080fd5b5061023a610812565b005b34801561024857600080fd5b50610263600480360381019061025e919061211d565b6108dd565b005b34801561027157600080fd5b5061028c600480360381019061028791906122a5565b6108fd565b005b34801561029a57600080fd5b506102b560048036038101906102b09190612028565b610993565b6040516102c29190612096565b60405180910390f35b3480156102d757600080fd5b506102e0610a45565b6040516102ed9190611fd0565b60405180910390f35b34801561030257600080fd5b5061031d600480360381019061031891906122ee565b610ad3565b60405161032a919061232a565b60405180910390f35b34801561033f57600080fd5b50610348610b8b565b005b34801561035657600080fd5b5061035f610c13565b60405161036c9190612096565b60405180910390f35b34801561038157600080fd5b5061038a610c3d565b6040516103979190611fd0565b60405180910390f35b3480156103ac57600080fd5b506103c760048036038101906103c29190612371565b610ccf565b005b3480156103d557600080fd5b506103f060048036038101906103eb9190612452565b610e50565b005b3480156103fe57600080fd5b5061041960048036038101906104149190612028565b610eb2565b6040516104269190611fd0565b60405180910390f35b34801561043b57600080fd5b50610456600480360381019061045191906124d5565b610ec4565b6040516104639190611f1c565b60405180910390f35b34801561047857600080fd5b50610493600480360381019061048e91906122ee565b610f58565b005b60006104a082611050565b9050919050565b6060600080546104b690612544565b80601f01602080910402602001604051908101604052809291908181526020018280546104e290612544565b801561052f5780601f106105045761010080835404028352916020019161052f565b820191906000526020600020905b81548152906001019060200180831161051257829003601f168201915b5050505050905090565b600061054482611132565b610583576040517f08c379a000000000000000000000000000000000000000000000000000000000815260040161057a906125e8565b60405180910390fd5b6004600083815260200190815260200160002060009054906101000a900473ffffffffffffffffffffffffffffffffffffffff169050919050565b60006105c982610993565b90508073ffffffffffffffffffffffffffffffffffffffff168373ffffffffffffffffffffffffffffffffffffffff16141561063a576040517f08c379a00000000000000000000000000000000000000000000000000000000081526004016106319061267a565b60405180910390fd5b8073ffffffffffffffffffffffffffffffffffffffff1661065961119e565b73ffffffffffffffffffffffffffffffffffffffff16148061068857506106878161068261119e565b610ec4565b5b6106c7576040517f08c379a00000000000000000000000000000000000000000000000000000000081526004016106be9061270c565b60405180910390fd5b6106d183836111a6565b505050565b600860009054906101000a900461ffff1661ffff166001600860029054906101000a900461ffff166107089190612769565b61ffff161061074c576040517f08c379a000000000000000000000000000000000000000000000000000000000815260040161074390612813565b60405180910390fd5b610776336001600860029054906101000a900461ffff1661076d9190612769565b61ffff1661125f565b6001600860028282829054906101000a900461ffff166107969190612769565b92506101000a81548161ffff021916908361ffff160217905550565b6107c36107bd61119e565b8261127d565b610802576040517f08c379a00000000000000000000000000000000000000000000000000000000081526004016107f9906128a5565b60405180910390fd5b61080d83838361135b565b505050565b61081a61119e565b73ffffffffffffffffffffffffffffffffffffffff16610838610c13565b73ffffffffffffffffffffffffffffffffffffffff161461088e576040517f08c379a000000000000000000000000000000000000000000000000000000000815260040161088590612911565b60405180910390fd5b60004790503373ffffffffffffffffffffffffffffffffffffffff166108fc829081150290604051600060405180830381858888f193505050501580156108d9573d6000803e3d6000fd5b5050565b6108f883838360405180602001604052806000815250610e50565b505050565b61090561119e565b73ffffffffffffffffffffffffffffffffffffffff16610923610c13565b73ffffffffffffffffffffffffffffffffffffffff1614610979576040517f08c379a000000000000000000000000000000000000000000000000000000000815260040161097090612911565b60405180910390fd5b806007908051906020019061098f929190611dc5565b5050565b6000806002600084815260200190815260200160002060009054906101000a900473ffffffffffffffffffffffffffffffffffffffff169050600073ffffffffffffffffffffffffffffffffffffffff168173ffffffffffffffffffffffffffffffffffffffff161415610a3c576040517f08c379a0000000000000000000000000000000000000000000000000000000008152600401610a33906129a3565b60405180910390fd5b80915050919050565b60078054610a5290612544565b80601f0160208091040260200160405190810160405280929190818152602001828054610a7e90612544565b8015610acb5780601f10610aa057610100808354040283529160200191610acb565b820191906000526020600020905b815481529060010190602001808311610aae57829003601f168201915b505050505081565b60008073ffffffffffffffffffffffffffffffffffffffff168273ffffffffffffffffffffffffffffffffffffffff161415610b44576040517f08c379a0000000000000000000000000000000000000000000000000000000008152600401610b3b90612a35565b60405180910390fd5b600360008373ffffffffffffffffffffffffffffffffffffffff1673ffffffffffffffffffffffffffffffffffffffff168152602001908152602001600020549050919050565b610b9361119e565b73ffffffffffffffffffffffffffffffffffffffff16610bb1610c13565b73ffffffffffffffffffffffffffffffffffffffff1614610c07576040517f08c379a0000000000000000000000000000000000000000000000000000000008152600401610bfe90612911565b60405180910390fd5b610c1160006115b7565b565b6000600660009054906101000a900473ffffffffffffffffffffffffffffffffffffffff16905090565b606060018054610c4c90612544565b80601f0160208091040260200160405190810160405280929190818152602001828054610c7890612544565b8015610cc55780601f10610c9a57610100808354040283529160200191610cc5565b820191906000526020600020905b815481529060010190602001808311610ca857829003601f168201915b5050505050905090565b610cd761119e565b73ffffffffffffffffffffffffffffffffffffffff168273ffffffffffffffffffffffffffffffffffffffff161415610d45576040517f08c379a0000000000000000000000000000000000000000000000000000000008152600401610d3c90612aa1565b60405180910390fd5b8060056000610d5261119e565b73ffffffffffffffffffffffffffffffffffffffff1673ffffffffffffffffffffffffffffffffffffffff16815260200190815260200160002060008473ffffffffffffffffffffffffffffffffffffffff1673ffffffffffffffffffffffffffffffffffffffff16815260200190815260200160002060006101000a81548160ff0219169083151502179055508173ffffffffffffffffffffffffffffffffffffffff16610dff61119e565b73ffffffffffffffffffffffffffffffffffffffff167f17307eab39ab6107e8899845ad3d59bd9653f200f220920489ca2b5937696c3183604051610e449190611f1c565b60405180910390a35050565b610e61610e5b61119e565b8361127d565b610ea0576040517f08c379a0000000000000000000000000000000000000000000000000000000008152600401610e97906128a5565b60405180910390fd5b610eac8484848461167d565b50505050565b6060610ebd826116d9565b9050919050565b6000600560008473ffffffffffffffffffffffffffffffffffffffff1673ffffffffffffffffffffffffffffffffffffffff16815260200190815260200160002060008373ffffffffffffffffffffffffffffffffffffffff1673ffffffffffffffffffffffffffffffffffffffff16815260200190815260200160002060009054906101000a900460ff16905092915050565b610f6061119e565b73ffffffffffffffffffffffffffffffffffffffff16610f7e610c13565b73ffffffffffffffffffffffffffffffffffffffff1614610fd4576040517f08c379a0000000000000000000000000000000000000000000000000000000008152600401610fcb90612911565b60405180910390fd5b600073ffffffffffffffffffffffffffffffffffffffff168173ffffffffffffffffffffffffffffffffffffffff161415611044576040517f08c379a000000000000000000000000000000000000000000000000000000000815260040161103b90612b33565b60405180910390fd5b61104d816115b7565b50565b60007f80ac58cd000000000000000000000000000000000000000000000000000000007bffffffffffffffffffffffffffffffffffffffffffffffffffffffff1916827bffffffffffffffffffffffffffffffffffffffffffffffffffffffff1916148061111b57507f5b5e139f000000000000000000000000000000000000000000000000000000007bffffffffffffffffffffffffffffffffffffffffffffffffffffffff1916827bffffffffffffffffffffffffffffffffffffffffffffffffffffffff1916145b8061112b575061112a82611780565b5b9050919050565b60008073ffffffffffffffffffffffffffffffffffffffff166002600084815260200190815260200160002060009054906101000a900473ffffffffffffffffffffffffffffffffffffffff1673ffffffffffffffffffffffffffffffffffffffff1614159050919050565b600033905090565b816004600083815260200190815260200160002060006101000a81548173ffffffffffffffffffffffffffffffffffffffff021916908373ffffffffffffffffffffffffffffffffffffffff160217905550808273ffffffffffffffffffffffffffffffffffffffff1661121983610993565b73ffffffffffffffffffffffffffffffffffffffff167f8c5be1e5ebec7d5bd14f71427d1e84f3dd0314c0f7b2291e5b200ac8c7c3b92560405160405180910390a45050565b6112798282604051806020016040528060008152506117ea565b5050565b600061128882611132565b6112c7576040517f08c379a00000000000000000000000000000000000000000000000000000000081526004016112be90612bc5565b60405180910390fd5b60006112d283610993565b90508073ffffffffffffffffffffffffffffffffffffffff168473ffffffffffffffffffffffffffffffffffffffff16148061134157508373ffffffffffffffffffffffffffffffffffffffff1661132984610539565b73ffffffffffffffffffffffffffffffffffffffff16145b8061135257506113518185610ec4565b5b91505092915050565b8273ffffffffffffffffffffffffffffffffffffffff1661137b82610993565b73ffffffffffffffffffffffffffffffffffffffff16146113d1576040517f08c379a00000000000000000000000000000000000000000000000000000000081526004016113c890612c57565b60405180910390fd5b600073ffffffffffffffffffffffffffffffffffffffff168273ffffffffffffffffffffffffffffffffffffffff161415611441576040517f08c379a000000000000000000000000000000000000000000000000000000000815260040161143890612ce9565b60405180910390fd5b61144c838383611845565b6114576000826111a6565b6001600360008573ffffffffffffffffffffffffffffffffffffffff1673ffffffffffffffffffffffffffffffffffffffff16815260200190815260200160002060008282546114a79190612d09565b925050819055506001600360008473ffffffffffffffffffffffffffffffffffffffff1673ffffffffffffffffffffffffffffffffffffffff16815260200190815260200160002060008282546114fe9190612d3d565b92505081905550816002600083815260200190815260200160002060006101000a81548173ffffffffffffffffffffffffffffffffffffffff021916908373ffffffffffffffffffffffffffffffffffffffff160217905550808273ffffffffffffffffffffffffffffffffffffffff168473ffffffffffffffffffffffffffffffffffffffff167fddf252ad1be2c89b69c2b068fc378daa952ba7f163c4a11628f55a4df523b3ef60405160405180910390a4505050565b6000600660009054906101000a900473ffffffffffffffffffffffffffffffffffffffff16905081600660006101000a81548173ffffffffffffffffffffffffffffffffffffffff021916908373ffffffffffffffffffffffffffffffffffffffff1602179055508173ffffffffffffffffffffffffffffffffffffffff168173ffffffffffffffffffffffffffffffffffffffff167f8be0079c531659141344cd1fd0a4f28419497f9722a3daafe3b4186f6b6457e060405160405180910390a35050565b61168884848461135b565b61169484848484611855565b6116d3576040517f08c379a00000000000000000000000000000000000000000000000000000000081526004016116ca90612e05565b60405180910390fd5b50505050565b60606116e482611132565b611723576040517f08c379a000000000000000000000000000000000000000000000000000000000815260040161171a90612e97565b60405180910390fd5b600061172d6119ec565b9050600081511161174d5760405180602001604052806000815250611778565b8061175784611a7e565b604051602001611768929190612ef3565b6040516020818303038152906040525b915050919050565b60007f01ffc9a7000000000000000000000000000000000000000000000000000000007bffffffffffffffffffffffffffffffffffffffffffffffffffffffff1916827bffffffffffffffffffffffffffffffffffffffffffffffffffffffff1916149050919050565b6117f48383611bdf565b6118016000848484611855565b611840576040517f08c379a000000000000000000000000000000000000000000000000000000000815260040161183790612e05565b60405180910390fd5b505050565b611850838383611dad565b505050565b60006118768473ffffffffffffffffffffffffffffffffffffffff16611db2565b156119df578373ffffffffffffffffffffffffffffffffffffffff1663150b7a0261189f61119e565b8786866040518563ffffffff1660e01b81526004016118c19493929190612f6c565b602060405180830381600087803b1580156118db57600080fd5b505af192505050801561190c57506040513d601f19601f820116820180604052508101906119099190612fcd565b60015b61198f573d806000811461193c576040519150601f19603f3d011682016040523d82523d6000602084013e611941565b606091505b50600081511415611987576040517f08c379a000000000000000000000000000000000000000000000000000000000815260040161197e90612e05565b60405180910390fd5b805181602001fd5b63150b7a0260e01b7bffffffffffffffffffffffffffffffffffffffffffffffffffffffff1916817bffffffffffffffffffffffffffffffffffffffffffffffffffffffff1916149150506119e4565b600190505b949350505050565b6060600780546119fb90612544565b80601f0160208091040260200160405190810160405280929190818152602001828054611a2790612544565b8015611a745780601f10611a4957610100808354040283529160200191611a74565b820191906000526020600020905b815481529060010190602001808311611a5757829003601f168201915b5050505050905090565b60606000821415611ac6576040518060400160405280600181526020017f30000000000000000000000000000000000000000000000000000000000000008152509050611bda565b600082905060005b60008214611af8578080611ae190612ffa565b915050600a82611af19190613072565b9150611ace565b60008167ffffffffffffffff811115611b1457611b1361217a565b5b6040519080825280601f01601f191660200182016040528015611b465781602001600182028036833780820191505090505b5090505b60008514611bd357600182611b5f9190612d09565b9150600a85611b6e91906130a3565b6030611b7a9190612d3d565b60f81b818381518110611b9057611b8f6130d4565b5b60200101907effffffffffffffffffffffffffffffffffffffffffffffffffffffffffffff1916908160001a905350600a85611bcc9190613072565b9450611b4a565b8093505050505b919050565b600073ffffffffffffffffffffffffffffffffffffffff168273ffffffffffffffffffffffffffffffffffffffff161415611c4f576040517f08c379a0000000000000000000000000000000000000000000000000000000008152600401611c469061314f565b60405180910390fd5b611c5881611132565b15611c98576040517f08c379a0000000000000000000000000000000000000000000000000000000008152600401611c8f906131bb565b60405180910390fd5b611ca460008383611845565b6001600360008473ffffffffffffffffffffffffffffffffffffffff1673ffffffffffffffffffffffffffffffffffffffff1681526020019081526020016000206000828254611cf49190612d3d565b92505081905550816002600083815260200190815260200160002060006101000a81548173ffffffffffffffffffffffffffffffffffffffff021916908373ffffffffffffffffffffffffffffffffffffffff160217905550808273ffffffffffffffffffffffffffffffffffffffff16600073ffffffffffffffffffffffffffffffffffffffff167fddf252ad1be2c89b69c2b068fc378daa952ba7f163c4a11628f55a4df523b3ef60405160405180910390a45050565b505050565b600080823b905060008111915050919050565b828054611dd190612544565b90600052602060002090601f016020900481019282611df35760008555611e3a565b82601f10611e0c57805160ff1916838001178555611e3a565b82800160010185558215611e3a579182015b82811115611e39578251825591602001919060010190611e1e565b5b509050611e479190611e4b565b5090565b5b80821115611e64576000816000905550600101611e4c565b5090565b6000604051905090565b600080fd5b600080fd5b60007fffffffff0000000000000000000000000000000000000000000000000000000082169050919050565b611eb181611e7c565b8114611ebc57600080fd5b50565b600081359050611ece81611ea8565b92915050565b600060208284031215611eea57611ee9611e72565b5b6000611ef884828501611ebf565b91505092915050565b60008115159050919050565b611f1681611f01565b82525050565b6000602082019050611f316000830184611f0d565b92915050565b600081519050919050565b600082825260208201905092915050565b60005b83811015611f71578082015181840152602081019050611f56565b83811115611f80576000848401525b50505050565b6000601f19601f8301169050919050565b6000611fa282611f37565b611fac8185611f42565b9350611fbc818560208601611f53565b611fc581611f86565b840191505092915050565b60006020820190508181036000830152611fea8184611f97565b905092915050565b6000819050919050565b61200581611ff2565b811461201057600080fd5b50565b60008135905061202281611ffc565b92915050565b60006020828403121561203e5761203d611e72565b5b600061204c84828501612013565b91505092915050565b600073ffffffffffffffffffffffffffffffffffffffff82169050919050565b600061208082612055565b9050919050565b61209081612075565b82525050565b60006020820190506120ab6000830184612087565b92915050565b6120ba81612075565b81146120c557600080fd5b50565b6000813590506120d7816120b1565b92915050565b600080604083850312156120f4576120f3611e72565b5b6000612102858286016120c8565b925050602061211385828601612013565b9150509250929050565b60008060006060848603121561213657612135611e72565b5b6000612144868287016120c8565b9350506020612155868287016120c8565b925050604061216686828701612013565b9150509250925092565b600080fd5b600080fd5b7f4e487b7100000000000000000000000000000000000000000000000000000000600052604160045260246000fd5b6121b282611f86565b810181811067ffffffffffffffff821117156121d1576121d061217a565b5b80604052505050565b60006121e4611e68565b90506121f082826121a9565b919050565b600067ffffffffffffffff8211156122105761220f61217a565b5b61221982611f86565b9050602081019050919050565b82818337600083830152505050565b6000612248612243846121f5565b6121da565b90508281526020810184848401111561226457612263612175565b5b61226f848285612226565b509392505050565b600082601f83011261228c5761228b612170565b5b813561229c848260208601612235565b91505092915050565b6000602082840312156122bb576122ba611e72565b5b600082013567ffffffffffffffff8111156122d9576122d8611e77565b5b6122e584828501612277565b91505092915050565b60006020828403121561230457612303611e72565b5b6000612312848285016120c8565b91505092915050565b61232481611ff2565b82525050565b600060208201905061233f600083018461231b565b92915050565b61234e81611f01565b811461235957600080fd5b50565b60008135905061236b81612345565b92915050565b6000806040838503121561238857612387611e72565b5b6000612396858286016120c8565b92505060206123a78582860161235c565b9150509250929050565b600067ffffffffffffffff8211156123cc576123cb61217a565b5b6123d582611f86565b9050602081019050919050565b60006123f56123f0846123b1565b6121da565b90508281526020810184848401111561241157612410612175565b5b61241c848285612226565b509392505050565b600082601f83011261243957612438612170565b5b81356124498482602086016123e2565b91505092915050565b6000806000806080858703121561246c5761246b611e72565b5b600061247a878288016120c8565b945050602061248b878288016120c8565b935050604061249c87828801612013565b925050606085013567ffffffffffffffff8111156124bd576124bc611e77565b5b6124c987828801612424565b91505092959194509250565b600080604083850312156124ec576124eb611e72565b5b60006124fa858286016120c8565b925050602061250b858286016120c8565b9150509250929050565b7f4e487b7100000000000000000000000000000000000000000000000000000000600052602260045260246000fd5b6000600282049050600182168061255c57607f821691505b602082108114156125705761256f612515565b5b50919050565b7f4552433732313a20617070726f76656420717565727920666f72206e6f6e657860008201527f697374656e7420746f6b656e0000000000000000000000000000000000000000602082015250565b60006125d2602c83611f42565b91506125dd82612576565b604082019050919050565b60006020820190508181036000830152612601816125c5565b9050919050565b7f4552433732313a20617070726f76616c20746f2063757272656e74206f776e6560008201527f7200000000000000000000000000000000000000000000000000000000000000602082015250565b6000612664602183611f42565b915061266f82612608565b604082019050919050565b6000602082019050818103600083015261269381612657565b9050919050565b7f4552433732313a20617070726f76652063616c6c6572206973206e6f74206f7760008201527f6e6572206e6f7220617070726f76656420666f7220616c6c0000000000000000602082015250565b60006126f6603883611f42565b91506127018261269a565b604082019050919050565b60006020820190508181036000830152612725816126e9565b9050919050565b600061ffff82169050919050565b7f4e487b7100000000000000000000000000000000000000000000000000000000600052601160045260246000fd5b60006127748261272c565b915061277f8361272c565b92508261ffff038211156127965761279561273a565b5b828201905092915050565b7f416c6c20796574692070756e6b73206861766520616c7265616479206265656e60008201527f206d696e74656421000000000000000000000000000000000000000000000000602082015250565b60006127fd602883611f42565b9150612808826127a1565b604082019050919050565b6000602082019050818103600083015261282c816127f0565b9050919050565b7f4552433732313a207472616e736665722063616c6c6572206973206e6f74206f60008201527f776e6572206e6f7220617070726f766564000000000000000000000000000000602082015250565b600061288f603183611f42565b915061289a82612833565b604082019050919050565b600060208201905081810360008301526128be81612882565b9050919050565b7f4f776e61626c653a2063616c6c6572206973206e6f7420746865206f776e6572600082015250565b60006128fb602083611f42565b9150612906826128c5565b602082019050919050565b6000602082019050818103600083015261292a816128ee565b9050919050565b7f4552433732313a206f776e657220717565727920666f72206e6f6e657869737460008201527f656e7420746f6b656e0000000000000000000000000000000000000000000000602082015250565b600061298d602983611f42565b915061299882612931565b604082019050919050565b600060208201905081810360008301526129bc81612980565b9050919050565b7f4552433732313a2062616c616e636520717565727920666f7220746865207a6560008201527f726f206164647265737300000000000000000000000000000000000000000000602082015250565b6000612a1f602a83611f42565b9150612a2a826129c3565b604082019050919050565b60006020820190508181036000830152612a4e81612a12565b9050919050565b7f4552433732313a20617070726f766520746f2063616c6c657200000000000000600082015250565b6000612a8b601983611f42565b9150612a9682612a55565b602082019050919050565b60006020820190508181036000830152612aba81612a7e565b9050919050565b7f4f776e61626c653a206e6577206f776e657220697320746865207a65726f206160008201527f6464726573730000000000000000000000000000000000000000000000000000602082015250565b6000612b1d602683611f42565b9150612b2882612ac1565b604082019050919050565b60006020820190508181036000830152612b4c81612b10565b9050919050565b7f4552433732313a206f70657261746f7220717565727920666f72206e6f6e657860008201527f697374656e7420746f6b656e0000000000000000000000000000000000000000602082015250565b6000612baf602c83611f42565b9150612bba82612b53565b604082019050919050565b60006020820190508181036000830152612bde81612ba2565b9050919050565b7f4552433732313a207472616e73666572206f6620746f6b656e2074686174206960008201527f73206e6f74206f776e0000000000000000000000000000000000000000000000602082015250565b6000612c41602983611f42565b9150612c4c82612be5565b604082019050919050565b60006020820190508181036000830152612c7081612c34565b9050919050565b7f4552433732313a207472616e7366657220746f20746865207a65726f2061646460008201527f7265737300000000000000000000000000000000000000000000000000000000602082015250565b6000612cd3602483611f42565b9150612cde82612c77565b604082019050919050565b60006020820190508181036000830152612d0281612cc6565b9050919050565b6000612d1482611ff2565b9150612d1f83611ff2565b925082821015612d3257612d3161273a565b5b828203905092915050565b6000612d4882611ff2565b9150612d5383611ff2565b9250827fffffffffffffffffffffffffffffffffffffffffffffffffffffffffffffffff03821115612d8857612d8761273a565b5b828201905092915050565b7f4552433732313a207472616e7366657220746f206e6f6e20455243373231526560008201527f63656976657220696d706c656d656e7465720000000000000000000000000000602082015250565b6000612def603283611f42565b9150612dfa82612d93565b604082019050919050565b60006020820190508181036000830152612e1e81612de2565b9050919050565b7f4552433732314d657461646174613a2055524920717565727920666f72206e6f60008201527f6e6578697374656e7420746f6b656e0000000000000000000000000000000000602082015250565b6000612e81602f83611f42565b9150612e8c82612e25565b604082019050919050565b60006020820190508181036000830152612eb081612e74565b9050919050565b600081905092915050565b6000612ecd82611f37565b612ed78185612eb7565b9350612ee7818560208601611f53565b80840191505092915050565b6000612eff8285612ec2565b9150612f0b8284612ec2565b91508190509392505050565b600081519050919050565b600082825260208201905092915050565b6000612f3e82612f17565b612f488185612f22565b9350612f58818560208601611f53565b612f6181611f86565b840191505092915050565b6000608082019050612f816000830187612087565b612f8e6020830186612087565b612f9b604083018561231b565b8181036060830152612fad8184612f33565b905095945050505050565b600081519050612fc781611ea8565b92915050565b600060208284031215612fe357612fe2611e72565b5b6000612ff184828501612fb8565b91505092915050565b600061300582611ff2565b91507fffffffffffffffffffffffffffffffffffffffffffffffffffffffffffffffff8214156130385761303761273a565b5b600182019050919050565b7f4e487b7100000000000000000000000000000000000000000000000000000000600052601260045260246000fd5b600061307d82611ff2565b915061308883611ff2565b92508261309857613097613043565b5b828204905092915050565b60006130ae82611ff2565b91506130b983611ff2565b9250826130c9576130c8613043565b5b828206905092915050565b7f4e487b7100000000000000000000000000000000000000000000000000000000600052603260045260246000fd5b7f4552433732313a206d696e7420746f20746865207a65726f2061646472657373600082015250565b6000613139602083611f42565b915061314482613103565b602082019050919050565b600060208201905081810360008301526131688161312c565b9050919050565b7f4552433732313a20746f6b656e20616c7265616479206d696e74656400000000600082015250565b60006131a5601c83611f42565b91506131b08261316f565b602082019050919050565b600060208201905081810360008301526131d481613198565b905091905056fea2646970667358221220a5336666e9ff41eb22319e6ee6f5dcc14054dc7495c000332d6c8b5af72cab1c64736f6c63430008090033",
  "immutableReferences": {},
  "source": "// SPDX-License-Identifier: MIT\npragma solidity ^0.8.9;\n\nimport \"@openzeppelin/contracts/token/ERC721/ERC721.sol\";\nimport \"@openzeppelin/contracts/access/Ownable.sol\";\n\ncontract YetiPunks is ERC721, Ownable {\n    \n    string public baseURI;\n    \n    uint16 MAX_YETIS = 10000;\n    uint16 totalSupply = 0;\n\n    constructor() ERC721(\"YetiPunks\", \"YETI\") {\n     \n    }\n\n    function withdraw() public onlyOwner {\n        uint256 balance = address(this).balance;\n        payable(msg.sender).transfer(balance);\n    }\n\n    function setBaseURI(string memory base) public onlyOwner {\n        baseURI = base;\n    }\n\n    function _baseURI() internal view virtual override returns (string memory) {\n        return baseURI;\n    }\n\n    // Despite the function being payable, I've removed any functionality for that here for the simplicity of the example.\n    function mint() public payable {\n        require(totalSupply + 1 < MAX_YETIS, \"All yeti punks have already been minted!\");\n        \n        _safeMint(msg.sender, totalSupply + 1);\n        \n        totalSupply += 1;\n    }\n\n    function tokenURI(uint256 tokenId) public view virtual override(ERC721) returns (string memory) {\n        return super.tokenURI(tokenId);\n    }\n\n    function _beforeTokenTransfer(address from, address to, uint256 tokenId) internal override(ERC721) {\n        super._beforeTokenTransfer(from, to, tokenId);\n    }\n\n    function _burn(uint256 tokenId) internal override(ERC721) {\n        super._burn(tokenId);\n    }\n\n    function supportsInterface(bytes4 interfaceId) public view override(ERC721) returns (bool) {\n        return super.supportsInterface(interfaceId);\n    }\n}",
  "sourcePath": "/Users/christopherfoley/nft/YetiPunks/src/contracts/ZetiPunks.sol",
  "compiler": {
    "name": "solc",
    "version": "0.8.9+commit.e5eed63a.Emscripten.clang"
  },
  "schemaVersion": "3.4.4",
  "updatedAt": "2022-01-05T03:39:57.107Z",
  "networkType": "ethereum",
  "devdoc": {
    "kind": "dev",
    "methods": {
      "approve(address,uint256)": {
        "details": "See {IERC721-approve}."
      },
      "balanceOf(address)": {
        "details": "See {IERC721-balanceOf}."
      },
      "getApproved(uint256)": {
        "details": "See {IERC721-getApproved}."
      },
      "isApprovedForAll(address,address)": {
        "details": "See {IERC721-isApprovedForAll}."
      },
      "name()": {
        "details": "See {IERC721Metadata-name}."
      },
      "owner()": {
        "details": "Returns the address of the current owner."
      },
      "ownerOf(uint256)": {
        "details": "See {IERC721-ownerOf}."
      },
      "renounceOwnership()": {
        "details": "Leaves the contract without owner. It will not be possible to call `onlyOwner` functions anymore. Can only be called by the current owner. NOTE: Renouncing ownership will leave the contract without an owner, thereby removing any functionality that is only available to the owner."
      },
      "safeTransferFrom(address,address,uint256)": {
        "details": "See {IERC721-safeTransferFrom}."
      },
      "safeTransferFrom(address,address,uint256,bytes)": {
        "details": "See {IERC721-safeTransferFrom}."
      },
      "setApprovalForAll(address,bool)": {
        "details": "See {IERC721-setApprovalForAll}."
      },
      "supportsInterface(bytes4)": {
        "details": "See {IERC165-supportsInterface}."
      },
      "symbol()": {
        "details": "See {IERC721Metadata-symbol}."
      },
      "tokenURI(uint256)": {
        "details": "See {IERC721Metadata-tokenURI}."
      },
      "transferFrom(address,address,uint256)": {
        "details": "See {IERC721-transferFrom}."
      },
      "transferOwnership(address)": {
        "details": "Transfers ownership of the contract to a new account (`newOwner`). Can only be called by the current owner."
      }
    },
    "version": 1
  },
  "userdoc": {
    "kind": "user",
    "methods": {},
    "version": 1
  }
}