{
  "contractName": "YetiPunks",
  "abi": [
    {
      "inputs": [
        {
          "internalType": "uint256",
          "name": "maxBatchSize_",
          "type": "uint256"
        },
        {
          "internalType": "uint256",
          "name": "collectionSize_",
          "type": "uint256"
        },
        {
          "internalType": "uint256",
          "name": "amountForAuctionAndDev_",
          "type": "uint256"
        },
        {
          "internalType": "uint256",
          "name": "amountForDevs_",
          "type": "uint256"
        },
        {
          "internalType": "string",
          "name": "_initNotRevealedUri",
          "type": "string"
        }
      ],
      "stateMutability": "nonpayable",
      "type": "constructor"
    },
    {
      "anonymous": false,
      "inputs": [
        {
          "indexed": true,
          "internalType": "address",
          "name": "owner",
          "type": "address"
        },
        {
          "indexed": true,
          "internalType": "address",
          "name": "approved",
          "type": "address"
        },
        {
          "indexed": true,
          "internalType": "uint256",
          "name": "tokenId",
          "type": "uint256"
        }
      ],
      "name": "Approval",
      "type": "event"
    },
    {
      "anonymous": false,
      "inputs": [
        {
          "indexed": true,
          "internalType": "address",
          "name": "owner",
          "type": "address"
        },
        {
          "indexed": true,
          "internalType": "address",
          "name": "operator",
          "type": "address"
        },
        {
          "indexed": false,
          "internalType": "bool",
          "name": "approved",
          "type": "bool"
        }
      ],
      "name": "ApprovalForAll",
      "type": "event"
    },
    {
      "anonymous": false,
      "inputs": [
        {
          "indexed": true,
          "internalType": "address",
          "name": "previousOwner",
          "type": "address"
        },
        {
          "indexed": true,
          "internalType": "address",
          "name": "newOwner",
          "type": "address"
        }
      ],
      "name": "OwnershipTransferred",
      "type": "event"
    },
    {
      "anonymous": false,
      "inputs": [
        {
          "indexed": true,
          "internalType": "address",
          "name": "from",
          "type": "address"
        },
        {
          "indexed": true,
          "internalType": "address",
          "name": "to",
          "type": "address"
        },
        {
          "indexed": true,
          "internalType": "uint256",
          "name": "tokenId",
          "type": "uint256"
        }
      ],
      "name": "Transfer",
      "type": "event"
    },
    {
      "inputs": [
        {
          "internalType": "address",
          "name": "owner",
          "type": "address"
        }
      ],
      "name": "_numberMinted",
      "outputs": [
        {
          "internalType": "uint256",
          "name": "",
          "type": "uint256"
        }
      ],
      "stateMutability": "view",
      "type": "function",
      "constant": true
    },
    {
      "inputs": [
        {
          "internalType": "address",
          "name": "",
          "type": "address"
        }
      ],
      "name": "allowlist",
      "outputs": [
        {
          "internalType": "uint256",
          "name": "",
          "type": "uint256"
        }
      ],
      "stateMutability": "view",
      "type": "function",
      "constant": true
    },
    {
      "inputs": [],
      "name": "amountForAuctionAndDev",
      "outputs": [
        {
          "internalType": "uint256",
          "name": "",
          "type": "uint256"
        }
      ],
      "stateMutability": "view",
      "type": "function",
      "constant": true
    },
    {
      "inputs": [],
      "name": "amountForDevs",
      "outputs": [
        {
          "internalType": "uint256",
          "name": "",
          "type": "uint256"
        }
      ],
      "stateMutability": "view",
      "type": "function",
      "constant": true
    },
    {
      "inputs": [
        {
          "internalType": "address",
          "name": "to",
          "type": "address"
        },
        {
          "internalType": "uint256",
          "name": "tokenId",
          "type": "uint256"
        }
      ],
      "name": "approve",
      "outputs": [],
      "stateMutability": "nonpayable",
      "type": "function"
    },
    {
      "inputs": [
        {
          "internalType": "address",
          "name": "owner",
          "type": "address"
        }
      ],
      "name": "balanceOf",
      "outputs": [
        {
          "internalType": "uint256",
          "name": "",
          "type": "uint256"
        }
      ],
      "stateMutability": "view",
      "type": "function",
      "constant": true
    },
    {
      "inputs": [
        {
          "internalType": "uint256",
          "name": "tokenId",
          "type": "uint256"
        }
      ],
      "name": "getApproved",
      "outputs": [
        {
          "internalType": "address",
          "name": "",
          "type": "address"
        }
      ],
      "stateMutability": "view",
      "type": "function",
      "constant": true
    },
    {
      "inputs": [
        {
          "internalType": "address",
          "name": "owner",
          "type": "address"
        },
        {
          "internalType": "address",
          "name": "operator",
          "type": "address"
        }
      ],
      "name": "isApprovedForAll",
      "outputs": [
        {
          "internalType": "bool",
          "name": "",
          "type": "bool"
        }
      ],
      "stateMutability": "view",
      "type": "function",
      "constant": true
    },
    {
      "inputs": [],
      "name": "maxPerAddressDuringPresale",
      "outputs": [
        {
          "internalType": "uint256",
          "name": "",
          "type": "uint256"
        }
      ],
      "stateMutability": "view",
      "type": "function",
      "constant": true
    },
    {
      "inputs": [],
      "name": "maxPerTxn",
      "outputs": [
        {
          "internalType": "uint256",
          "name": "",
          "type": "uint256"
        }
      ],
      "stateMutability": "view",
      "type": "function",
      "constant": true
    },
    {
      "inputs": [],
      "name": "name",
      "outputs": [
        {
          "internalType": "string",
          "name": "",
          "type": "string"
        }
      ],
      "stateMutability": "view",
      "type": "function",
      "constant": true
    },
    {
      "inputs": [],
      "name": "nextOwnerToExplicitlySet",
      "outputs": [
        {
          "internalType": "uint256",
          "name": "",
          "type": "uint256"
        }
      ],
      "stateMutability": "view",
      "type": "function",
      "constant": true
    },
    {
      "inputs": [],
      "name": "notRevealedUri",
      "outputs": [
        {
          "internalType": "string",
          "name": "",
          "type": "string"
        }
      ],
      "stateMutability": "view",
      "type": "function",
      "constant": true
    },
    {
      "inputs": [],
      "name": "owner",
      "outputs": [
        {
          "internalType": "address",
          "name": "",
          "type": "address"
        }
      ],
      "stateMutability": "view",
      "type": "function",
      "constant": true
    },
    {
      "inputs": [
        {
          "internalType": "uint256",
          "name": "tokenId",
          "type": "uint256"
        }
      ],
      "name": "ownerOf",
      "outputs": [
        {
          "internalType": "address",
          "name": "",
          "type": "address"
        }
      ],
      "stateMutability": "view",
      "type": "function",
      "constant": true
    },
    {
      "inputs": [],
      "name": "renounceOwnership",
      "outputs": [],
      "stateMutability": "nonpayable",
      "type": "function"
    },
    {
      "inputs": [
        {
          "internalType": "address",
          "name": "from",
          "type": "address"
        },
        {
          "internalType": "address",
          "name": "to",
          "type": "address"
        },
        {
          "internalType": "uint256",
          "name": "tokenId",
          "type": "uint256"
        }
      ],
      "name": "safeTransferFrom",
      "outputs": [],
      "stateMutability": "nonpayable",
      "type": "function"
    },
    {
      "inputs": [
        {
          "internalType": "address",
          "name": "from",
          "type": "address"
        },
        {
          "internalType": "address",
          "name": "to",
          "type": "address"
        },
        {
          "internalType": "uint256",
          "name": "tokenId",
          "type": "uint256"
        },
        {
          "internalType": "bytes",
          "name": "_data",
          "type": "bytes"
        }
      ],
      "name": "safeTransferFrom",
      "outputs": [],
      "stateMutability": "nonpayable",
      "type": "function"
    },
    {
      "inputs": [
        {
          "internalType": "address",
          "name": "operator",
          "type": "address"
        },
        {
          "internalType": "bool",
          "name": "approved",
          "type": "bool"
        }
      ],
      "name": "setApprovalForAll",
      "outputs": [],
      "stateMutability": "nonpayable",
      "type": "function"
    },
    {
      "inputs": [
        {
          "internalType": "bytes4",
          "name": "interfaceId",
          "type": "bytes4"
        }
      ],
      "name": "supportsInterface",
      "outputs": [
        {
          "internalType": "bool",
          "name": "",
          "type": "bool"
        }
      ],
      "stateMutability": "view",
      "type": "function",
      "constant": true
    },
    {
      "inputs": [],
      "name": "symbol",
      "outputs": [
        {
          "internalType": "string",
          "name": "",
          "type": "string"
        }
      ],
      "stateMutability": "view",
      "type": "function",
      "constant": true
    },
    {
      "inputs": [
        {
          "internalType": "uint256",
          "name": "index",
          "type": "uint256"
        }
      ],
      "name": "tokenByIndex",
      "outputs": [
        {
          "internalType": "uint256",
          "name": "",
          "type": "uint256"
        }
      ],
      "stateMutability": "view",
      "type": "function",
      "constant": true
    },
    {
      "inputs": [
        {
          "internalType": "address",
          "name": "owner",
          "type": "address"
        },
        {
          "internalType": "uint256",
          "name": "index",
          "type": "uint256"
        }
      ],
      "name": "tokenOfOwnerByIndex",
      "outputs": [
        {
          "internalType": "uint256",
          "name": "",
          "type": "uint256"
        }
      ],
      "stateMutability": "view",
      "type": "function",
      "constant": true
    },
    {
      "inputs": [
        {
          "internalType": "uint256",
          "name": "tokenId",
          "type": "uint256"
        }
      ],
      "name": "tokenURI",
      "outputs": [
        {
          "internalType": "string",
          "name": "",
          "type": "string"
        }
      ],
      "stateMutability": "view",
      "type": "function",
      "constant": true
    },
    {
      "inputs": [],
      "name": "totalSupply",
      "outputs": [
        {
          "internalType": "uint256",
          "name": "",
          "type": "uint256"
        }
      ],
      "stateMutability": "view",
      "type": "function",
      "constant": true
    },
    {
      "inputs": [
        {
          "internalType": "address",
          "name": "from",
          "type": "address"
        },
        {
          "internalType": "address",
          "name": "to",
          "type": "address"
        },
        {
          "internalType": "uint256",
          "name": "tokenId",
          "type": "uint256"
        }
      ],
      "name": "transferFrom",
      "outputs": [],
      "stateMutability": "nonpayable",
      "type": "function"
    },
    {
      "inputs": [
        {
          "internalType": "address",
          "name": "newOwner",
          "type": "address"
        }
      ],
      "name": "transferOwnership",
      "outputs": [],
      "stateMutability": "nonpayable",
      "type": "function"
    },
    {
      "inputs": [
        {
          "internalType": "uint256",
          "name": "quantity",
          "type": "uint256"
        }
      ],
      "name": "allowlistMint",
      "outputs": [],
      "stateMutability": "payable",
      "type": "function",
      "payable": true
    },
    {
      "inputs": [
        {
          "internalType": "uint256",
          "name": "quantity",
          "type": "uint256"
        }
      ],
      "name": "publicSaleMint",
      "outputs": [],
      "stateMutability": "payable",
      "type": "function",
      "payable": true
    },
    {
      "inputs": [
        {
          "internalType": "uint256",
          "name": "publicPriceWei",
          "type": "uint256"
        },
        {
          "internalType": "uint256",
          "name": "publicSaleKey",
          "type": "uint256"
        },
        {
          "internalType": "uint256",
          "name": "publicSaleStartTime",
          "type": "uint256"
        }
      ],
      "name": "isPublicSaleOn",
      "outputs": [
        {
          "internalType": "bool",
          "name": "",
          "type": "bool"
        }
      ],
      "stateMutability": "view",
      "type": "function",
      "constant": true
    },
    {
      "inputs": [
        {
          "internalType": "address[]",
          "name": "addresses",
          "type": "address[]"
        },
        {
          "internalType": "uint256[]",
          "name": "numSlots",
          "type": "uint256[]"
        }
      ],
      "name": "seedAllowlist",
      "outputs": [],
      "stateMutability": "nonpayable",
      "type": "function"
    },
    {
      "inputs": [
        {
          "internalType": "uint256",
          "name": "quantity",
          "type": "uint256"
        }
      ],
      "name": "devMint",
      "outputs": [],
      "stateMutability": "nonpayable",
      "type": "function"
    },
    {
      "inputs": [
        {
          "internalType": "string",
          "name": "_notRevealedURI",
          "type": "string"
        }
      ],
      "name": "setNotRevealedURI",
      "outputs": [],
      "stateMutability": "nonpayable",
      "type": "function"
    },
    {
      "inputs": [
        {
          "internalType": "string",
          "name": "baseURI",
          "type": "string"
        }
      ],
      "name": "setBaseURI",
      "outputs": [],
      "stateMutability": "nonpayable",
      "type": "function"
    },
    {
      "inputs": [],
      "name": "withdrawBalance",
      "outputs": [],
      "stateMutability": "nonpayable",
      "type": "function"
    },
    {
      "inputs": [
        {
          "internalType": "uint256",
          "name": "quantity",
          "type": "uint256"
        }
      ],
      "name": "setOwnersExplicit",
      "outputs": [],
      "stateMutability": "nonpayable",
      "type": "function"
    },
    {
      "inputs": [
        {
          "internalType": "address",
          "name": "owner",
          "type": "address"
        }
      ],
      "name": "numberMinted",
      "outputs": [
        {
          "internalType": "uint256",
          "name": "",
          "type": "uint256"
        }
      ],
      "stateMutability": "view",
      "type": "function",
      "constant": true
    },
    {
      "inputs": [
        {
          "internalType": "uint256",
          "name": "tokenId",
          "type": "uint256"
        }
      ],
      "name": "getOwnershipData",
      "outputs": [
        {
          "components": [
            {
              "internalType": "address",
              "name": "addr",
              "type": "address"
            },
            {
              "internalType": "uint64",
              "name": "startTimestamp",
              "type": "uint64"
            }
          ],
          "internalType": "struct ERC721A.TokenOwnership",
          "name": "",
          "type": "tuple"
        }
      ],
      "stateMutability": "view",
      "type": "function",
      "constant": true
    }
  ],
  "bytecode": "0x61014060405260006001556000600855600560e0908152503480156200002457600080fd5b50604051620063a3380380620063a383398181016040528101906200004a919062000656565b6040518060400160405280600b81526020017f5065747479204d6f6e6b730000000000000000000000000000000000000000008152506040518060400160405280600281526020017f504d0000000000000000000000000000000000000000000000000000000000008152508686620000d8620000cc6200022e60201b60201c565b6200023660201b60201c565b600081116200011e576040517f08c379a0000000000000000000000000000000000000000000000000000000008152600401620001159062000784565b60405180910390fd5b6000821162000164576040517f08c379a00000000000000000000000000000000000000000000000000000000081526004016200015b906200081c565b60405180910390fd5b83600290805190602001906200017c929190620003ce565b50826003908051906020019062000195929190620003ce565b508160a0818152505080608081815250505050505060016009819055508460c081815250508261012081815250508161010081815250508383111562000212576040517f08c379a000000000000000000000000000000000000000000000000000000000815260040162000209906200088e565b60405180910390fd5b6200022381620002fa60201b60201c565b505050505062000987565b600033905090565b60008060009054906101000a900473ffffffffffffffffffffffffffffffffffffffff169050816000806101000a81548173ffffffffffffffffffffffffffffffffffffffff021916908373ffffffffffffffffffffffffffffffffffffffff1602179055508173ffffffffffffffffffffffffffffffffffffffff168173ffffffffffffffffffffffffffffffffffffffff167f8be0079c531659141344cd1fd0a4f28419497f9722a3daafe3b4186f6b6457e060405160405180910390a35050565b6200030a6200022e60201b60201c565b73ffffffffffffffffffffffffffffffffffffffff1662000330620003a560201b60201c565b73ffffffffffffffffffffffffffffffffffffffff161462000389576040517f08c379a0000000000000000000000000000000000000000000000000000000008152600401620003809062000900565b60405180910390fd5b80600c9080519060200190620003a1929190620003ce565b5050565b60008060009054906101000a900473ffffffffffffffffffffffffffffffffffffffff16905090565b828054620003dc9062000951565b90600052602060002090601f0160209004810192826200040057600085556200044c565b82601f106200041b57805160ff19168380011785556200044c565b828001600101855582156200044c579182015b828111156200044b5782518255916020019190600101906200042e565b5b5090506200045b91906200045f565b5090565b5b808211156200047a57600081600090555060010162000460565b5090565b6000604051905090565b600080fd5b600080fd5b6000819050919050565b620004a78162000492565b8114620004b357600080fd5b50565b600081519050620004c7816200049c565b92915050565b600080fd5b600080fd5b6000601f19601f8301169050919050565b7f4e487b7100000000000000000000000000000000000000000000000000000000600052604160045260246000fd5b6200052282620004d7565b810181811067ffffffffffffffff82111715620005445762000543620004e8565b5b80604052505050565b6000620005596200047e565b905062000567828262000517565b919050565b600067ffffffffffffffff8211156200058a5762000589620004e8565b5b6200059582620004d7565b9050602081019050919050565b60005b83811015620005c2578082015181840152602081019050620005a5565b83811115620005d2576000848401525b50505050565b6000620005ef620005e9846200056c565b6200054d565b9050828152602081018484840111156200060e576200060d620004d2565b5b6200061b848285620005a2565b509392505050565b600082601f8301126200063b576200063a620004cd565b5b81516200064d848260208601620005d8565b91505092915050565b600080600080600060a0868803121562000675576200067462000488565b5b60006200068588828901620004b6565b95505060206200069888828901620004b6565b9450506040620006ab88828901620004b6565b9350506060620006be88828901620004b6565b925050608086015167ffffffffffffffff811115620006e257620006e16200048d565b5b620006f08882890162000623565b9150509295509295909350565b600082825260208201905092915050565b7f455243373231413a20636f6c6c656374696f6e206d757374206861766520612060008201527f6e6f6e7a65726f20737570706c79000000000000000000000000000000000000602082015250565b60006200076c602e83620006fd565b915062000779826200070e565b604082019050919050565b600060208201905081810360008301526200079f816200075d565b9050919050565b7f455243373231413a206d61782062617463682073697a65206d7573742062652060008201527f6e6f6e7a65726f00000000000000000000000000000000000000000000000000602082015250565b600062000804602783620006fd565b91506200081182620007a6565b604082019050919050565b600060208201905081810360008301526200083781620007f5565b9050919050565b7f6c617267657220636f6c6c656374696f6e2073697a65206e6565646564000000600082015250565b600062000876601d83620006fd565b915062000883826200083e565b602082019050919050565b60006020820190508181036000830152620008a98162000867565b9050919050565b7f4f776e61626c653a2063616c6c6572206973206e6f7420746865206f776e6572600082015250565b6000620008e8602083620006fd565b9150620008f582620008b0565b602082019050919050565b600060208201905081810360008301526200091b81620008d9565b9050919050565b7f4e487b7100000000000000000000000000000000000000000000000000000000600052602260045260246000fd5b600060028204905060018216806200096a57607f821691505b6020821081141562000981576200098062000922565b5b50919050565b60805160a05160c05160e051610100516101205161598d62000a1660003960006113b50152600081816110960152612299015260008181611a090152611eca01526000818161110b0152818161117b0152611c78015260008181612ca601528181612ccf0152613412015260008181611c0301528181611e5501528181612a100152612a44015261598d6000f3fe6080604052600436106102255760003560e01c806370a0823111610123578063b3ab66b0116100ab578063dc33e6811161006f578063dc33e68114610823578063e985e9c514610860578063f2c4ce1e1461089d578063f2fde38b146108c6578063fbe1aa51146108ef57610225565b8063b3ab66b01461075a578063b88d4fde14610776578063c180526a1461079f578063c87b56dd146107bb578063d7224ba0146107f857610225565b806395d89b41116100f257806395d89b4114610675578063a22cb465146106a0578063a7cd52cb146106c9578063abdb297a14610706578063b05863d51461073157610225565b806370a08231146105b9578063715018a6146105f65780638da5cb5b1461060d5780639231ab2a1461063857610225565b8063375a069a116101b15780634f6ccce7116101755780634f6ccce7146104d457806355f804b3146105115780635666c8801461053a5780635fd8c710146105655780636352211e1461057c57610225565b8063375a069a146103dd5780633cb5199414610406578063422030ba1461043157806342842e0e1461046e5780634d388a981461049757610225565b8063095ea7b3116101f8578063095ea7b3146102fa57806318160ddd1461032357806323b872dd1461034e5780632d20fb60146103775780632f745c59146103a057610225565b806301ffc9a71461022a57806306fdde0314610267578063081812fc14610292578063081c8c44146102cf575b600080fd5b34801561023657600080fd5b50610251600480360381019061024c9190613a12565b61091a565b60405161025e9190613a5a565b60405180910390f35b34801561027357600080fd5b5061027c610a64565b6040516102899190613b0e565b60405180910390f35b34801561029e57600080fd5b506102b960048036038101906102b49190613b66565b610af6565b6040516102c69190613bd4565b60405180910390f35b3480156102db57600080fd5b506102e4610b7b565b6040516102f19190613b0e565b60405180910390f35b34801561030657600080fd5b50610321600480360381019061031c9190613c1b565b610c09565b005b34801561032f57600080fd5b50610338610d22565b6040516103459190613c6a565b60405180910390f35b34801561035a57600080fd5b5061037560048036038101906103709190613c85565b610d2c565b005b34801561038357600080fd5b5061039e60048036038101906103999190613b66565b610d3c565b005b3480156103ac57600080fd5b506103c760048036038101906103c29190613c1b565b610e1a565b6040516103d49190613c6a565b60405180910390f35b3480156103e957600080fd5b5061040460048036038101906103ff9190613b66565b611018565b005b34801561041257600080fd5b5061041b611179565b6040516104289190613c6a565b60405180910390f35b34801561043d57600080fd5b5061045860048036038101906104539190613cd8565b61119d565b6040516104659190613a5a565b60405180910390f35b34801561047a57600080fd5b5061049560048036038101906104909190613c85565b6111c5565b005b3480156104a357600080fd5b506104be60048036038101906104b99190613d2b565b6111e5565b6040516104cb9190613c6a565b60405180910390f35b3480156104e057600080fd5b506104fb60048036038101906104f69190613b66565b6112ce565b6040516105089190613c6a565b60405180910390f35b34801561051d57600080fd5b5061053860048036038101906105339190613dbd565b611321565b005b34801561054657600080fd5b5061054f6113b3565b60405161055c9190613c6a565b60405180910390f35b34801561057157600080fd5b5061057a6113d7565b005b34801561058857600080fd5b506105a3600480360381019061059e9190613b66565b611614565b6040516105b09190613bd4565b60405180910390f35b3480156105c557600080fd5b506105e060048036038101906105db9190613d2b565b61162a565b6040516105ed9190613c6a565b60405180910390f35b34801561060257600080fd5b5061060b611713565b005b34801561061957600080fd5b5061062261179b565b60405161062f9190613bd4565b60405180910390f35b34801561064457600080fd5b5061065f600480360381019061065a9190613b66565b6117c4565b60405161066c9190613e6b565b60405180910390f35b34801561068157600080fd5b5061068a6117dc565b6040516106979190613b0e565b60405180910390f35b3480156106ac57600080fd5b506106c760048036038101906106c29190613eb2565b61186e565b005b3480156106d557600080fd5b506106f060048036038101906106eb9190613d2b565b6119ef565b6040516106fd9190613c6a565b60405180910390f35b34801561071257600080fd5b5061071b611a07565b6040516107289190613c6a565b60405180910390f35b34801561073d57600080fd5b50610758600480360381019061075391906140f3565b611a2b565b005b610774600480360381019061076f9190613b66565b611b87565b005b34801561078257600080fd5b5061079d60048036038101906107989190614220565b611cfb565b005b6107b960048036038101906107b49190613b66565b611d57565b005b3480156107c757600080fd5b506107e260048036038101906107dd9190613b66565b611fb6565b6040516107ef9190613b0e565b60405180910390f35b34801561080457600080fd5b5061080d61205d565b60405161081a9190613c6a565b60405180910390f35b34801561082f57600080fd5b5061084a60048036038101906108459190613d2b565b612063565b6040516108579190613c6a565b60405180910390f35b34801561086c57600080fd5b50610887600480360381019061088291906142a3565b612075565b6040516108949190613a5a565b60405180910390f35b3480156108a957600080fd5b506108c460048036038101906108bf9190614384565b612109565b005b3480156108d257600080fd5b506108ed60048036038101906108e89190613d2b565b61219f565b005b3480156108fb57600080fd5b50610904612297565b6040516109119190613c6a565b60405180910390f35b60007f80ac58cd000000000000000000000000000000000000000000000000000000007bffffffffffffffffffffffffffffffffffffffffffffffffffffffff1916827bffffffffffffffffffffffffffffffffffffffffffffffffffffffff191614806109e557507f5b5e139f000000000000000000000000000000000000000000000000000000007bffffffffffffffffffffffffffffffffffffffffffffffffffffffff1916827bffffffffffffffffffffffffffffffffffffffffffffffffffffffff1916145b80610a4d57507f780e9d63000000000000000000000000000000000000000000000000000000007bffffffffffffffffffffffffffffffffffffffffffffffffffffffff1916827bffffffffffffffffffffffffffffffffffffffffffffffffffffffff1916145b80610a5d5750610a5c826122bb565b5b9050919050565b606060028054610a73906143fc565b80601f0160208091040260200160405190810160405280929190818152602001828054610a9f906143fc565b8015610aec5780601f10610ac157610100808354040283529160200191610aec565b820191906000526020600020905b815481529060010190602001808311610acf57829003601f168201915b5050505050905090565b6000610b0182612325565b610b40576040517f08c379a0000000000000000000000000000000000000000000000000000000008152600401610b37906144a0565b60405180910390fd5b6006600083815260200190815260200160002060009054906101000a900473ffffffffffffffffffffffffffffffffffffffff169050919050565b600a8054610b88906143fc565b80601f0160208091040260200160405190810160405280929190818152602001828054610bb4906143fc565b8015610c015780601f10610bd657610100808354040283529160200191610c01565b820191906000526020600020905b815481529060010190602001808311610be457829003601f168201915b505050505081565b6000610c1482611614565b90508073ffffffffffffffffffffffffffffffffffffffff168373ffffffffffffffffffffffffffffffffffffffff161415610c85576040517f08c379a0000000000000000000000000000000000000000000000000000000008152600401610c7c90614532565b60405180910390fd5b8073ffffffffffffffffffffffffffffffffffffffff16610ca4612333565b73ffffffffffffffffffffffffffffffffffffffff161480610cd35750610cd281610ccd612333565b612075565b5b610d12576040517f08c379a0000000000000000000000000000000000000000000000000000000008152600401610d09906145c4565b60405180910390fd5b610d1d83838361233b565b505050565b6000600154905090565b610d378383836123ed565b505050565b610d44612333565b73ffffffffffffffffffffffffffffffffffffffff16610d6261179b565b73ffffffffffffffffffffffffffffffffffffffff1614610db8576040517f08c379a0000000000000000000000000000000000000000000000000000000008152600401610daf90614630565b60405180910390fd5b60026009541415610dfe576040517f08c379a0000000000000000000000000000000000000000000000000000000008152600401610df59061469c565b60405180910390fd5b6002600981905550610e0f816129a6565b600160098190555050565b6000610e258361162a565b8210610e66576040517f08c379a0000000000000000000000000000000000000000000000000000000008152600401610e5d9061472e565b60405180910390fd5b6000610e70610d22565b905060008060005b83811015610fd6576000600460008381526020019081526020016000206040518060400160405290816000820160009054906101000a900473ffffffffffffffffffffffffffffffffffffffff1673ffffffffffffffffffffffffffffffffffffffff1673ffffffffffffffffffffffffffffffffffffffff1681526020016000820160149054906101000a900467ffffffffffffffff1667ffffffffffffffff1667ffffffffffffffff16815250509050600073ffffffffffffffffffffffffffffffffffffffff16816000015173ffffffffffffffffffffffffffffffffffffffff1614610f6a57806000015192505b8773ffffffffffffffffffffffffffffffffffffffff168373ffffffffffffffffffffffffffffffffffffffff161415610fc25786841415610fb3578195505050505050611012565b8380610fbe9061477d565b9450505b508080610fce9061477d565b915050610e78565b506040517f08c379a000000000000000000000000000000000000000000000000000000000815260040161100990614838565b60405180910390fd5b92915050565b611020612333565b73ffffffffffffffffffffffffffffffffffffffff1661103e61179b565b73ffffffffffffffffffffffffffffffffffffffff1614611094576040517f08c379a000000000000000000000000000000000000000000000000000000000815260040161108b90614630565b60405180910390fd5b7f0000000000000000000000000000000000000000000000000000000000000000816110be610d22565b6110c89190614858565b1115611109576040517f08c379a000000000000000000000000000000000000000000000000000000000815260040161110090614920565b60405180910390fd5b7f000000000000000000000000000000000000000000000000000000000000000081111561116c576040517f08c379a0000000000000000000000000000000000000000000000000000000008152600401611163906149b2565b60405180910390fd5b6111763382612c34565b50565b7f000000000000000000000000000000000000000000000000000000000000000081565b60008084141580156111b0575060008314155b80156111bc5750814210155b90509392505050565b6111e083838360405180602001604052806000815250611cfb565b505050565b60008073ffffffffffffffffffffffffffffffffffffffff168273ffffffffffffffffffffffffffffffffffffffff161415611256576040517f08c379a000000000000000000000000000000000000000000000000000000000815260040161124d90614a44565b60405180910390fd5b600560008373ffffffffffffffffffffffffffffffffffffffff1673ffffffffffffffffffffffffffffffffffffffff16815260200190815260200160002060000160109054906101000a90046fffffffffffffffffffffffffffffffff166fffffffffffffffffffffffffffffffff169050919050565b60006112d8610d22565b8210611319576040517f08c379a000000000000000000000000000000000000000000000000000000000815260040161131090614ad6565b60405180910390fd5b819050919050565b611329612333565b73ffffffffffffffffffffffffffffffffffffffff1661134761179b565b73ffffffffffffffffffffffffffffffffffffffff161461139d576040517f08c379a000000000000000000000000000000000000000000000000000000000815260040161139490614630565b60405180910390fd5b8181600c91906113ae929190613843565b505050565b7f000000000000000000000000000000000000000000000000000000000000000081565b6113df612333565b73ffffffffffffffffffffffffffffffffffffffff166113fd61179b565b73ffffffffffffffffffffffffffffffffffffffff1614611453576040517f08c379a000000000000000000000000000000000000000000000000000000000815260040161144a90614630565b60405180910390fd5b600060646021476114649190614af6565b61146e9190614b7f565b9050600073d61adc48afe9402b4411805ce6026ef74f94e71373ffffffffffffffffffffffffffffffffffffffff16826040516114aa90614be1565b60006040518083038185875af1925050503d80600081146114e7576040519150601f19603f3d011682016040523d82523d6000602084013e6114ec565b606091505b50509050806114fa57600080fd5b600073e3ce04b3bcbdfa219407870ca617e18fbf503f2873ffffffffffffffffffffffffffffffffffffffff168360405161153490614be1565b60006040518083038185875af1925050503d8060008114611571576040519150601f19603f3d011682016040523d82523d6000602084013e611576565b606091505b505090508061158457600080fd5b60007349cf0af1ce6a50e822a91a427b3e29007f9c6c0973ffffffffffffffffffffffffffffffffffffffff16476040516115be90614be1565b60006040518083038185875af1925050503d80600081146115fb576040519150601f19603f3d011682016040523d82523d6000602084013e611600565b606091505b505090508061160e57600080fd5b50505050565b600061161f82612c52565b600001519050919050565b60008073ffffffffffffffffffffffffffffffffffffffff168273ffffffffffffffffffffffffffffffffffffffff16141561169b576040517f08c379a000000000000000000000000000000000000000000000000000000000815260040161169290614c68565b60405180910390fd5b600560008373ffffffffffffffffffffffffffffffffffffffff1673ffffffffffffffffffffffffffffffffffffffff16815260200190815260200160002060000160009054906101000a90046fffffffffffffffffffffffffffffffff166fffffffffffffffffffffffffffffffff169050919050565b61171b612333565b73ffffffffffffffffffffffffffffffffffffffff1661173961179b565b73ffffffffffffffffffffffffffffffffffffffff161461178f576040517f08c379a000000000000000000000000000000000000000000000000000000000815260040161178690614630565b60405180910390fd5b6117996000612e55565b565b60008060009054906101000a900473ffffffffffffffffffffffffffffffffffffffff16905090565b6117cc6138c9565b6117d582612c52565b9050919050565b6060600380546117eb906143fc565b80601f0160208091040260200160405190810160405280929190818152602001828054611817906143fc565b80156118645780601f1061183957610100808354040283529160200191611864565b820191906000526020600020905b81548152906001019060200180831161184757829003601f168201915b5050505050905090565b611876612333565b73ffffffffffffffffffffffffffffffffffffffff168273ffffffffffffffffffffffffffffffffffffffff1614156118e4576040517f08c379a00000000000000000000000000000000000000000000000000000000081526004016118db90614cd4565b60405180910390fd5b80600760006118f1612333565b73ffffffffffffffffffffffffffffffffffffffff1673ffffffffffffffffffffffffffffffffffffffff16815260200190815260200160002060008473ffffffffffffffffffffffffffffffffffffffff1673ffffffffffffffffffffffffffffffffffffffff16815260200190815260200160002060006101000a81548160ff0219169083151502179055508173ffffffffffffffffffffffffffffffffffffffff1661199e612333565b73ffffffffffffffffffffffffffffffffffffffff167f17307eab39ab6107e8899845ad3d59bd9653f200f220920489ca2b5937696c31836040516119e39190613a5a565b60405180910390a35050565b600b6020528060005260406000206000915090505481565b7f000000000000000000000000000000000000000000000000000000000000000081565b611a33612333565b73ffffffffffffffffffffffffffffffffffffffff16611a5161179b565b73ffffffffffffffffffffffffffffffffffffffff1614611aa7576040517f08c379a0000000000000000000000000000000000000000000000000000000008152600401611a9e90614630565b60405180910390fd5b8051825114611aeb576040517f08c379a0000000000000000000000000000000000000000000000000000000008152600401611ae290614d66565b60405180910390fd5b60005b8251811015611b8257818181518110611b0a57611b09614d86565b5b6020026020010151600b6000858481518110611b2957611b28614d86565b5b602002602001015173ffffffffffffffffffffffffffffffffffffffff1673ffffffffffffffffffffffffffffffffffffffff168152602001908152602001600020819055508080611b7a9061477d565b915050611aee565b505050565b3373ffffffffffffffffffffffffffffffffffffffff163273ffffffffffffffffffffffffffffffffffffffff1614611bf5576040517f08c379a0000000000000000000000000000000000000000000000000000000008152600401611bec90614e01565b60405180910390fd5b6000666a94d74f43000090507f000000000000000000000000000000000000000000000000000000000000000082611c2b610d22565b611c359190614858565b1115611c76576040517f08c379a0000000000000000000000000000000000000000000000000000000008152600401611c6d90614e6d565b60405180910390fd5b7f0000000000000000000000000000000000000000000000000000000000000000821115611cd9576040517f08c379a0000000000000000000000000000000000000000000000000000000008152600401611cd0906149b2565b60405180910390fd5b611ce33383612c34565b611cf78282611cf29190614af6565b612f19565b5050565b611d068484846123ed565b611d1284848484612fba565b611d51576040517f08c379a0000000000000000000000000000000000000000000000000000000008152600401611d4890614eff565b60405180910390fd5b50505050565b3373ffffffffffffffffffffffffffffffffffffffff163273ffffffffffffffffffffffffffffffffffffffff1614611dc5576040517f08c379a0000000000000000000000000000000000000000000000000000000008152600401611dbc90614e01565b60405180910390fd5b6000666a94d74f43000090506000600b60003373ffffffffffffffffffffffffffffffffffffffff1673ffffffffffffffffffffffffffffffffffffffff1681526020019081526020016000205411611e53576040517f08c379a0000000000000000000000000000000000000000000000000000000008152600401611e4a90614f6b565b60405180910390fd5b7f000000000000000000000000000000000000000000000000000000000000000082611e7d610d22565b611e879190614858565b1115611ec8576040517f08c379a0000000000000000000000000000000000000000000000000000000008152600401611ebf90614e6d565b60405180910390fd5b7f000000000000000000000000000000000000000000000000000000000000000082611ef333612063565b611efd9190614858565b1115611f3e576040517f08c379a0000000000000000000000000000000000000000000000000000000008152600401611f3590614fd7565b60405180910390fd5b81600b60003373ffffffffffffffffffffffffffffffffffffffff1673ffffffffffffffffffffffffffffffffffffffff1681526020019081526020016000206000828254611f8d9190614ff7565b92505081905550611f9e3383612c34565b611fb28282611fad9190614af6565b612f19565b5050565b6060611fc182612325565b612000576040517f08c379a0000000000000000000000000000000000000000000000000000000008152600401611ff79061509d565b60405180910390fd5b600061200a613151565b9050600081511161202a5760405180602001604052806000815250612055565b80612034846131e3565b6040516020016120459291906150f9565b6040516020818303038152906040525b915050919050565b60085481565b600061206e826111e5565b9050919050565b6000600760008473ffffffffffffffffffffffffffffffffffffffff1673ffffffffffffffffffffffffffffffffffffffff16815260200190815260200160002060008373ffffffffffffffffffffffffffffffffffffffff1673ffffffffffffffffffffffffffffffffffffffff16815260200190815260200160002060009054906101000a900460ff16905092915050565b612111612333565b73ffffffffffffffffffffffffffffffffffffffff1661212f61179b565b73ffffffffffffffffffffffffffffffffffffffff1614612185576040517f08c379a000000000000000000000000000000000000000000000000000000000815260040161217c90614630565b60405180910390fd5b80600c908051906020019061219b929190613903565b5050565b6121a7612333565b73ffffffffffffffffffffffffffffffffffffffff166121c561179b565b73ffffffffffffffffffffffffffffffffffffffff161461221b576040517f08c379a000000000000000000000000000000000000000000000000000000000815260040161221290614630565b60405180910390fd5b600073ffffffffffffffffffffffffffffffffffffffff168173ffffffffffffffffffffffffffffffffffffffff16141561228b576040517f08c379a00000000000000000000000000000000000000000000000000000000081526004016122829061518f565b60405180910390fd5b61229481612e55565b50565b7f000000000000000000000000000000000000000000000000000000000000000081565b60007f01ffc9a7000000000000000000000000000000000000000000000000000000007bffffffffffffffffffffffffffffffffffffffffffffffffffffffff1916827bffffffffffffffffffffffffffffffffffffffffffffffffffffffff1916149050919050565b600060015482109050919050565b600033905090565b826006600084815260200190815260200160002060006101000a81548173ffffffffffffffffffffffffffffffffffffffff021916908373ffffffffffffffffffffffffffffffffffffffff160217905550818373ffffffffffffffffffffffffffffffffffffffff168273ffffffffffffffffffffffffffffffffffffffff167f8c5be1e5ebec7d5bd14f71427d1e84f3dd0314c0f7b2291e5b200ac8c7c3b92560405160405180910390a4505050565b60006123f882612c52565b90506000816000015173ffffffffffffffffffffffffffffffffffffffff1661241f612333565b73ffffffffffffffffffffffffffffffffffffffff16148061247b5750612444612333565b73ffffffffffffffffffffffffffffffffffffffff1661246384610af6565b73ffffffffffffffffffffffffffffffffffffffff16145b8061249757506124968260000151612491612333565b612075565b5b9050806124d9576040517f08c379a00000000000000000000000000000000000000000000000000000000081526004016124d090615221565b60405180910390fd5b8473ffffffffffffffffffffffffffffffffffffffff16826000015173ffffffffffffffffffffffffffffffffffffffff161461254b576040517f08c379a0000000000000000000000000000000000000000000000000000000008152600401612542906152b3565b60405180910390fd5b600073ffffffffffffffffffffffffffffffffffffffff168473ffffffffffffffffffffffffffffffffffffffff1614156125bb576040517f08c379a00000000000000000000000000000000000000000000000000000000081526004016125b290615345565b60405180910390fd5b6125c88585856001613344565b6125d8600084846000015161233b565b6001600560008773ffffffffffffffffffffffffffffffffffffffff1673ffffffffffffffffffffffffffffffffffffffff16815260200190815260200160002060000160008282829054906101000a90046fffffffffffffffffffffffffffffffff166126469190615381565b92506101000a8154816fffffffffffffffffffffffffffffffff02191690836fffffffffffffffffffffffffffffffff1602179055506001600560008673ffffffffffffffffffffffffffffffffffffffff1673ffffffffffffffffffffffffffffffffffffffff16815260200190815260200160002060000160008282829054906101000a90046fffffffffffffffffffffffffffffffff166126ea91906153b5565b92506101000a8154816fffffffffffffffffffffffffffffffff02191690836fffffffffffffffffffffffffffffffff16021790555060405180604001604052808573ffffffffffffffffffffffffffffffffffffffff1681526020014267ffffffffffffffff168152506004600085815260200190815260200160002060008201518160000160006101000a81548173ffffffffffffffffffffffffffffffffffffffff021916908373ffffffffffffffffffffffffffffffffffffffff16021790555060208201518160000160146101000a81548167ffffffffffffffff021916908367ffffffffffffffff16021790555090505060006001846127f09190614858565b9050600073ffffffffffffffffffffffffffffffffffffffff166004600083815260200190815260200160002060000160009054906101000a900473ffffffffffffffffffffffffffffffffffffffff1673ffffffffffffffffffffffffffffffffffffffff1614156129365761286681612325565b15612935576040518060400160405280846000015173ffffffffffffffffffffffffffffffffffffffff168152602001846020015167ffffffffffffffff168152506004600083815260200190815260200160002060008201518160000160006101000a81548173ffffffffffffffffffffffffffffffffffffffff021916908373ffffffffffffffffffffffffffffffffffffffff16021790555060208201518160000160146101000a81548167ffffffffffffffff021916908367ffffffffffffffff1602179055509050505b5b838573ffffffffffffffffffffffffffffffffffffffff168773ffffffffffffffffffffffffffffffffffffffff167fddf252ad1be2c89b69c2b068fc378daa952ba7f163c4a11628f55a4df523b3ef60405160405180910390a461299e868686600161334a565b505050505050565b60006008549050600082116129f0576040517f08c379a00000000000000000000000000000000000000000000000000000000081526004016129e790615447565b60405180910390fd5b600060018383612a009190614858565b612a0a9190614ff7565b905060017f0000000000000000000000000000000000000000000000000000000000000000612a399190614ff7565b811115612a705760017f0000000000000000000000000000000000000000000000000000000000000000612a6d9190614ff7565b90505b612a7981612325565b612ab8576040517f08c379a0000000000000000000000000000000000000000000000000000000008152600401612aaf906154d9565b60405180910390fd5b60008290505b818111612c1b57600073ffffffffffffffffffffffffffffffffffffffff166004600083815260200190815260200160002060000160009054906101000a900473ffffffffffffffffffffffffffffffffffffffff1673ffffffffffffffffffffffffffffffffffffffff161415612c08576000612b3b82612c52565b90506040518060400160405280826000015173ffffffffffffffffffffffffffffffffffffffff168152602001826020015167ffffffffffffffff168152506004600084815260200190815260200160002060008201518160000160006101000a81548173ffffffffffffffffffffffffffffffffffffffff021916908373ffffffffffffffffffffffffffffffffffffffff16021790555060208201518160000160146101000a81548167ffffffffffffffff021916908367ffffffffffffffff160217905550905050505b8080612c139061477d565b915050612abe565b50600181612c299190614858565b600881905550505050565b612c4e828260405180602001604052806000815250613350565b5050565b612c5a6138c9565b612c6382612325565b612ca2576040517f08c379a0000000000000000000000000000000000000000000000000000000008152600401612c999061556b565b60405180910390fd5b60007f00000000000000000000000000000000000000000000000000000000000000008310612d065760017f000000000000000000000000000000000000000000000000000000000000000084612cf99190614ff7565b612d039190614858565b90505b60008390505b818110612e14576000600460008381526020019081526020016000206040518060400160405290816000820160009054906101000a900473ffffffffffffffffffffffffffffffffffffffff1673ffffffffffffffffffffffffffffffffffffffff1673ffffffffffffffffffffffffffffffffffffffff1681526020016000820160149054906101000a900467ffffffffffffffff1667ffffffffffffffff1667ffffffffffffffff16815250509050600073ffffffffffffffffffffffffffffffffffffffff16816000015173ffffffffffffffffffffffffffffffffffffffff1614612e0057809350505050612e50565b508080612e0c9061558b565b915050612d0c565b506040517f08c379a0000000000000000000000000000000000000000000000000000000008152600401612e4790615627565b60405180910390fd5b919050565b60008060009054906101000a900473ffffffffffffffffffffffffffffffffffffffff169050816000806101000a81548173ffffffffffffffffffffffffffffffffffffffff021916908373ffffffffffffffffffffffffffffffffffffffff1602179055508173ffffffffffffffffffffffffffffffffffffffff168173ffffffffffffffffffffffffffffffffffffffff167f8be0079c531659141344cd1fd0a4f28419497f9722a3daafe3b4186f6b6457e060405160405180910390a35050565b80341015612f5c576040517f08c379a0000000000000000000000000000000000000000000000000000000008152600401612f5390615693565b60405180910390fd5b80341115612fb7573373ffffffffffffffffffffffffffffffffffffffff166108fc8234612f8a9190614ff7565b9081150290604051600060405180830381858888f19350505050158015612fb5573d6000803e3d6000fd5b505b50565b6000612fdb8473ffffffffffffffffffffffffffffffffffffffff16613830565b15613144578373ffffffffffffffffffffffffffffffffffffffff1663150b7a02613004612333565b8786866040518563ffffffff1660e01b81526004016130269493929190615708565b602060405180830381600087803b15801561304057600080fd5b505af192505050801561307157506040513d601f19601f8201168201806040525081019061306e9190615769565b60015b6130f4573d80600081146130a1576040519150601f19603f3d011682016040523d82523d6000602084013e6130a6565b606091505b506000815114156130ec576040517f08c379a00000000000000000000000000000000000000000000000000000000081526004016130e390614eff565b60405180910390fd5b805181602001fd5b63150b7a0260e01b7bffffffffffffffffffffffffffffffffffffffffffffffffffffffff1916817bffffffffffffffffffffffffffffffffffffffffffffffffffffffff191614915050613149565b600190505b949350505050565b6060600c8054613160906143fc565b80601f016020809104026020016040519081016040528092919081815260200182805461318c906143fc565b80156131d95780601f106131ae576101008083540402835291602001916131d9565b820191906000526020600020905b8154815290600101906020018083116131bc57829003601f168201915b5050505050905090565b6060600082141561322b576040518060400160405280600181526020017f3000000000000000000000000000000000000000000000000000000000000000815250905061333f565b600082905060005b6000821461325d5780806132469061477d565b915050600a826132569190614b7f565b9150613233565b60008167ffffffffffffffff81111561327957613278613ef2565b5b6040519080825280601f01601f1916602001820160405280156132ab5781602001600182028036833780820191505090505b5090505b60008514613338576001826132c49190614ff7565b9150600a856132d39190615796565b60306132df9190614858565b60f81b8183815181106132f5576132f4614d86565b5b60200101907effffffffffffffffffffffffffffffffffffffffffffffffffffffffffffff1916908160001a905350600a856133319190614b7f565b94506132af565b8093505050505b919050565b50505050565b50505050565b60006001549050600073ffffffffffffffffffffffffffffffffffffffff168473ffffffffffffffffffffffffffffffffffffffff1614156133c7576040517f08c379a00000000000000000000000000000000000000000000000000000000081526004016133be90615839565b60405180910390fd5b6133d081612325565b15613410576040517f08c379a0000000000000000000000000000000000000000000000000000000008152600401613407906158a5565b60405180910390fd5b7f0000000000000000000000000000000000000000000000000000000000000000831115613473576040517f08c379a000000000000000000000000000000000000000000000000000000000815260040161346a90615937565b60405180910390fd5b6134806000858386613344565b6000600560008673ffffffffffffffffffffffffffffffffffffffff1673ffffffffffffffffffffffffffffffffffffffff1681526020019081526020016000206040518060400160405290816000820160009054906101000a90046fffffffffffffffffffffffffffffffff166fffffffffffffffffffffffffffffffff166fffffffffffffffffffffffffffffffff1681526020016000820160109054906101000a90046fffffffffffffffffffffffffffffffff166fffffffffffffffffffffffffffffffff166fffffffffffffffffffffffffffffffff16815250509050604051806040016040528085836000015161357d91906153b5565b6fffffffffffffffffffffffffffffffff1681526020018583602001516135a491906153b5565b6fffffffffffffffffffffffffffffffff16815250600560008773ffffffffffffffffffffffffffffffffffffffff1673ffffffffffffffffffffffffffffffffffffffff16815260200190815260200160002060008201518160000160006101000a8154816fffffffffffffffffffffffffffffffff02191690836fffffffffffffffffffffffffffffffff16021790555060208201518160000160106101000a8154816fffffffffffffffffffffffffffffffff02191690836fffffffffffffffffffffffffffffffff16021790555090505060405180604001604052808673ffffffffffffffffffffffffffffffffffffffff1681526020014267ffffffffffffffff168152506004600084815260200190815260200160002060008201518160000160006101000a81548173ffffffffffffffffffffffffffffffffffffffff021916908373ffffffffffffffffffffffffffffffffffffffff16021790555060208201518160000160146101000a81548167ffffffffffffffff021916908367ffffffffffffffff160217905550905050600082905060005b8581101561381357818773ffffffffffffffffffffffffffffffffffffffff16600073ffffffffffffffffffffffffffffffffffffffff167fddf252ad1be2c89b69c2b068fc378daa952ba7f163c4a11628f55a4df523b3ef60405160405180910390a46137b36000888488612fba565b6137f2576040517f08c379a00000000000000000000000000000000000000000000000000000000081526004016137e990614eff565b60405180910390fd5b81806137fd9061477d565b925050808061380b9061477d565b915050613742565b5080600181905550613828600087858861334a565b505050505050565b600080823b905060008111915050919050565b82805461384f906143fc565b90600052602060002090601f01602090048101928261387157600085556138b8565b82601f1061388a57803560ff19168380011785556138b8565b828001600101855582156138b8579182015b828111156138b757823582559160200191906001019061389c565b5b5090506138c59190613989565b5090565b6040518060400160405280600073ffffffffffffffffffffffffffffffffffffffff168152602001600067ffffffffffffffff1681525090565b82805461390f906143fc565b90600052602060002090601f0160209004810192826139315760008555613978565b82601f1061394a57805160ff1916838001178555613978565b82800160010185558215613978579182015b8281111561397757825182559160200191906001019061395c565b5b5090506139859190613989565b5090565b5b808211156139a257600081600090555060010161398a565b5090565b6000604051905090565b600080fd5b600080fd5b60007fffffffff0000000000000000000000000000000000000000000000000000000082169050919050565b6139ef816139ba565b81146139fa57600080fd5b50565b600081359050613a0c816139e6565b92915050565b600060208284031215613a2857613a276139b0565b5b6000613a36848285016139fd565b91505092915050565b60008115159050919050565b613a5481613a3f565b82525050565b6000602082019050613a6f6000830184613a4b565b92915050565b600081519050919050565b600082825260208201905092915050565b60005b83811015613aaf578082015181840152602081019050613a94565b83811115613abe576000848401525b50505050565b6000601f19601f8301169050919050565b6000613ae082613a75565b613aea8185613a80565b9350613afa818560208601613a91565b613b0381613ac4565b840191505092915050565b60006020820190508181036000830152613b288184613ad5565b905092915050565b6000819050919050565b613b4381613b30565b8114613b4e57600080fd5b50565b600081359050613b6081613b3a565b92915050565b600060208284031215613b7c57613b7b6139b0565b5b6000613b8a84828501613b51565b91505092915050565b600073ffffffffffffffffffffffffffffffffffffffff82169050919050565b6000613bbe82613b93565b9050919050565b613bce81613bb3565b82525050565b6000602082019050613be96000830184613bc5565b92915050565b613bf881613bb3565b8114613c0357600080fd5b50565b600081359050613c1581613bef565b92915050565b60008060408385031215613c3257613c316139b0565b5b6000613c4085828601613c06565b9250506020613c5185828601613b51565b9150509250929050565b613c6481613b30565b82525050565b6000602082019050613c7f6000830184613c5b565b92915050565b600080600060608486031215613c9e57613c9d6139b0565b5b6000613cac86828701613c06565b9350506020613cbd86828701613c06565b9250506040613cce86828701613b51565b9150509250925092565b600080600060608486031215613cf157613cf06139b0565b5b6000613cff86828701613b51565b9350506020613d1086828701613b51565b9250506040613d2186828701613b51565b9150509250925092565b600060208284031215613d4157613d406139b0565b5b6000613d4f84828501613c06565b91505092915050565b600080fd5b600080fd5b600080fd5b60008083601f840112613d7d57613d7c613d58565b5b8235905067ffffffffffffffff811115613d9a57613d99613d5d565b5b602083019150836001820283011115613db657613db5613d62565b5b9250929050565b60008060208385031215613dd457613dd36139b0565b5b600083013567ffffffffffffffff811115613df257613df16139b5565b5b613dfe85828601613d67565b92509250509250929050565b613e1381613bb3565b82525050565b600067ffffffffffffffff82169050919050565b613e3681613e19565b82525050565b604082016000820151613e526000850182613e0a565b506020820151613e656020850182613e2d565b50505050565b6000604082019050613e806000830184613e3c565b92915050565b613e8f81613a3f565b8114613e9a57600080fd5b50565b600081359050613eac81613e86565b92915050565b60008060408385031215613ec957613ec86139b0565b5b6000613ed785828601613c06565b9250506020613ee885828601613e9d565b9150509250929050565b7f4e487b7100000000000000000000000000000000000000000000000000000000600052604160045260246000fd5b613f2a82613ac4565b810181811067ffffffffffffffff82111715613f4957613f48613ef2565b5b80604052505050565b6000613f5c6139a6565b9050613f688282613f21565b919050565b600067ffffffffffffffff821115613f8857613f87613ef2565b5b602082029050602081019050919050565b6000613fac613fa784613f6d565b613f52565b90508083825260208201905060208402830185811115613fcf57613fce613d62565b5b835b81811015613ff85780613fe48882613c06565b845260208401935050602081019050613fd1565b5050509392505050565b600082601f83011261401757614016613d58565b5b8135614027848260208601613f99565b91505092915050565b600067ffffffffffffffff82111561404b5761404a613ef2565b5b602082029050602081019050919050565b600061406f61406a84614030565b613f52565b9050808382526020820190506020840283018581111561409257614091613d62565b5b835b818110156140bb57806140a78882613b51565b845260208401935050602081019050614094565b5050509392505050565b600082601f8301126140da576140d9613d58565b5b81356140ea84826020860161405c565b91505092915050565b6000806040838503121561410a576141096139b0565b5b600083013567ffffffffffffffff811115614128576141276139b5565b5b61413485828601614002565b925050602083013567ffffffffffffffff811115614155576141546139b5565b5b614161858286016140c5565b9150509250929050565b600080fd5b600067ffffffffffffffff82111561418b5761418a613ef2565b5b61419482613ac4565b9050602081019050919050565b82818337600083830152505050565b60006141c36141be84614170565b613f52565b9050828152602081018484840111156141df576141de61416b565b5b6141ea8482856141a1565b509392505050565b600082601f83011261420757614206613d58565b5b81356142178482602086016141b0565b91505092915050565b6000806000806080858703121561423a576142396139b0565b5b600061424887828801613c06565b945050602061425987828801613c06565b935050604061426a87828801613b51565b925050606085013567ffffffffffffffff81111561428b5761428a6139b5565b5b614297878288016141f2565b91505092959194509250565b600080604083850312156142ba576142b96139b0565b5b60006142c885828601613c06565b92505060206142d985828601613c06565b9150509250929050565b600067ffffffffffffffff8211156142fe576142fd613ef2565b5b61430782613ac4565b9050602081019050919050565b6000614327614322846142e3565b613f52565b9050828152602081018484840111156143435761434261416b565b5b61434e8482856141a1565b509392505050565b600082601f83011261436b5761436a613d58565b5b813561437b848260208601614314565b91505092915050565b60006020828403121561439a576143996139b0565b5b600082013567ffffffffffffffff8111156143b8576143b76139b5565b5b6143c484828501614356565b91505092915050565b7f4e487b7100000000000000000000000000000000000000000000000000000000600052602260045260246000fd5b6000600282049050600182168061441457607f821691505b60208210811415614428576144276143cd565b5b50919050565b7f455243373231413a20617070726f76656420717565727920666f72206e6f6e6560008201527f78697374656e7420746f6b656e00000000000000000000000000000000000000602082015250565b600061448a602d83613a80565b91506144958261442e565b604082019050919050565b600060208201905081810360008301526144b98161447d565b9050919050565b7f455243373231413a20617070726f76616c20746f2063757272656e74206f776e60008201527f6572000000000000000000000000000000000000000000000000000000000000602082015250565b600061451c602283613a80565b9150614527826144c0565b604082019050919050565b6000602082019050818103600083015261454b8161450f565b9050919050565b7f455243373231413a20617070726f76652063616c6c6572206973206e6f74206f60008201527f776e6572206e6f7220617070726f76656420666f7220616c6c00000000000000602082015250565b60006145ae603983613a80565b91506145b982614552565b604082019050919050565b600060208201905081810360008301526145dd816145a1565b9050919050565b7f4f776e61626c653a2063616c6c6572206973206e6f7420746865206f776e6572600082015250565b600061461a602083613a80565b9150614625826145e4565b602082019050919050565b600060208201905081810360008301526146498161460d565b9050919050565b7f5265656e7472616e637947756172643a207265656e7472616e742063616c6c00600082015250565b6000614686601f83613a80565b915061469182614650565b602082019050919050565b600060208201905081810360008301526146b581614679565b9050919050565b7f455243373231413a206f776e657220696e646578206f7574206f6620626f756e60008201527f6473000000000000000000000000000000000000000000000000000000000000602082015250565b6000614718602283613a80565b9150614723826146bc565b604082019050919050565b600060208201905081810360008301526147478161470b565b9050919050565b7f4e487b7100000000000000000000000000000000000000000000000000000000600052601160045260246000fd5b600061478882613b30565b91507fffffffffffffffffffffffffffffffffffffffffffffffffffffffffffffffff8214156147bb576147ba61474e565b5b600182019050919050565b7f455243373231413a20756e61626c6520746f2067657420746f6b656e206f662060008201527f6f776e657220627920696e646578000000000000000000000000000000000000602082015250565b6000614822602e83613a80565b915061482d826147c6565b604082019050919050565b6000602082019050818103600083015261485181614815565b9050919050565b600061486382613b30565b915061486e83613b30565b9250827fffffffffffffffffffffffffffffffffffffffffffffffffffffffffffffffff038211156148a3576148a261474e565b5b828201905092915050565b7f746f6f206d616e7920616c7265616479206d696e746564206265666f7265206460008201527f6576206d696e7400000000000000000000000000000000000000000000000000602082015250565b600061490a602783613a80565b9150614915826148ae565b604082019050919050565b60006020820190508181036000830152614939816148fd565b9050919050565b7f63616e206e6f74206d696e742074686973206d616e7920696e206f6e6520626160008201527f7463680000000000000000000000000000000000000000000000000000000000602082015250565b600061499c602383613a80565b91506149a782614940565b604082019050919050565b600060208201905081810360008301526149cb8161498f565b9050919050565b7f455243373231413a206e756d626572206d696e74656420717565727920666f7260008201527f20746865207a65726f2061646472657373000000000000000000000000000000602082015250565b6000614a2e603183613a80565b9150614a39826149d2565b604082019050919050565b60006020820190508181036000830152614a5d81614a21565b9050919050565b7f455243373231413a20676c6f62616c20696e646578206f7574206f6620626f7560008201527f6e64730000000000000000000000000000000000000000000000000000000000602082015250565b6000614ac0602383613a80565b9150614acb82614a64565b604082019050919050565b60006020820190508181036000830152614aef81614ab3565b9050919050565b6000614b0182613b30565b9150614b0c83613b30565b9250817fffffffffffffffffffffffffffffffffffffffffffffffffffffffffffffffff0483118215151615614b4557614b4461474e565b5b828202905092915050565b7f4e487b7100000000000000000000000000000000000000000000000000000000600052601260045260246000fd5b6000614b8a82613b30565b9150614b9583613b30565b925082614ba557614ba4614b50565b5b828204905092915050565b600081905092915050565b50565b6000614bcb600083614bb0565b9150614bd682614bbb565b600082019050919050565b6000614bec82614bbe565b9150819050919050565b7f455243373231413a2062616c616e636520717565727920666f7220746865207a60008201527f65726f2061646472657373000000000000000000000000000000000000000000602082015250565b6000614c52602b83613a80565b9150614c5d82614bf6565b604082019050919050565b60006020820190508181036000830152614c8181614c45565b9050919050565b7f455243373231413a20617070726f766520746f2063616c6c6572000000000000600082015250565b6000614cbe601a83613a80565b9150614cc982614c88565b602082019050919050565b60006020820190508181036000830152614ced81614cb1565b9050919050565b7f61646472657373657320646f6573206e6f74206d61746368206e756d536c6f7460008201527f73206c656e677468000000000000000000000000000000000000000000000000602082015250565b6000614d50602883613a80565b9150614d5b82614cf4565b604082019050919050565b60006020820190508181036000830152614d7f81614d43565b9050919050565b7f4e487b7100000000000000000000000000000000000000000000000000000000600052603260045260246000fd5b7f5468652063616c6c657220697320616e6f7468657220636f6e74726163740000600082015250565b6000614deb601e83613a80565b9150614df682614db5565b602082019050919050565b60006020820190508181036000830152614e1a81614dde565b9050919050565b7f6578636565646564206d617820737570706c7900000000000000000000000000600082015250565b6000614e57601383613a80565b9150614e6282614e21565b602082019050919050565b60006020820190508181036000830152614e8681614e4a565b9050919050565b7f455243373231413a207472616e7366657220746f206e6f6e204552433732315260008201527f6563656976657220696d706c656d656e74657200000000000000000000000000602082015250565b6000614ee9603383613a80565b9150614ef482614e8d565b604082019050919050565b60006020820190508181036000830152614f1881614edc565b9050919050565b7f6e6f7420656c696769626c6520666f722077686974656c697374206d696e7400600082015250565b6000614f55601f83613a80565b9150614f6082614f1f565b602082019050919050565b60006020820190508181036000830152614f8481614f48565b9050919050565b7f6d696e7420616d6f756e7420657863656564732077686974656c697374000000600082015250565b6000614fc1601d83613a80565b9150614fcc82614f8b565b602082019050919050565b60006020820190508181036000830152614ff081614fb4565b9050919050565b600061500282613b30565b915061500d83613b30565b9250828210156150205761501f61474e565b5b828203905092915050565b7f4552433732314d657461646174613a2055524920717565727920666f72206e6f60008201527f6e6578697374656e7420746f6b656e0000000000000000000000000000000000602082015250565b6000615087602f83613a80565b91506150928261502b565b604082019050919050565b600060208201905081810360008301526150b68161507a565b9050919050565b600081905092915050565b60006150d382613a75565b6150dd81856150bd565b93506150ed818560208601613a91565b80840191505092915050565b600061510582856150c8565b915061511182846150c8565b91508190509392505050565b7f4f776e61626c653a206e6577206f776e657220697320746865207a65726f206160008201527f6464726573730000000000000000000000000000000000000000000000000000602082015250565b6000615179602683613a80565b91506151848261511d565b604082019050919050565b600060208201905081810360008301526151a88161516c565b9050919050565b7f455243373231413a207472616e736665722063616c6c6572206973206e6f742060008201527f6f776e6572206e6f7220617070726f7665640000000000000000000000000000602082015250565b600061520b603283613a80565b9150615216826151af565b604082019050919050565b6000602082019050818103600083015261523a816151fe565b9050919050565b7f455243373231413a207472616e736665722066726f6d20696e636f727265637460008201527f206f776e65720000000000000000000000000000000000000000000000000000602082015250565b600061529d602683613a80565b91506152a882615241565b604082019050919050565b600060208201905081810360008301526152cc81615290565b9050919050565b7f455243373231413a207472616e7366657220746f20746865207a65726f20616460008201527f6472657373000000000000000000000000000000000000000000000000000000602082015250565b600061532f602583613a80565b915061533a826152d3565b604082019050919050565b6000602082019050818103600083015261535e81615322565b9050919050565b60006fffffffffffffffffffffffffffffffff82169050919050565b600061538c82615365565b915061539783615365565b9250828210156153aa576153a961474e565b5b828203905092915050565b60006153c082615365565b91506153cb83615365565b9250826fffffffffffffffffffffffffffffffff038211156153f0576153ef61474e565b5b828201905092915050565b7f7175616e74697479206d757374206265206e6f6e7a65726f0000000000000000600082015250565b6000615431601883613a80565b915061543c826153fb565b602082019050919050565b6000602082019050818103600083015261546081615424565b9050919050565b7f6e6f7420656e6f756768206d696e7465642079657420666f722074686973206360008201527f6c65616e75700000000000000000000000000000000000000000000000000000602082015250565b60006154c3602683613a80565b91506154ce82615467565b604082019050919050565b600060208201905081810360008301526154f2816154b6565b9050919050565b7f455243373231413a206f776e657220717565727920666f72206e6f6e6578697360008201527f74656e7420746f6b656e00000000000000000000000000000000000000000000602082015250565b6000615555602a83613a80565b9150615560826154f9565b604082019050919050565b6000602082019050818103600083015261558481615548565b9050919050565b600061559682613b30565b915060008214156155aa576155a961474e565b5b600182039050919050565b7f455243373231413a20756e61626c6520746f2064657465726d696e652074686560008201527f206f776e6572206f6620746f6b656e0000000000000000000000000000000000602082015250565b6000615611602f83613a80565b915061561c826155b5565b604082019050919050565b6000602082019050818103600083015261564081615604565b9050919050565b7f4e65656420746f2073656e64206d6f7265204554480000000000000000000000600082015250565b600061567d601583613a80565b915061568882615647565b602082019050919050565b600060208201905081810360008301526156ac81615670565b9050919050565b600081519050919050565b600082825260208201905092915050565b60006156da826156b3565b6156e481856156be565b93506156f4818560208601613a91565b6156fd81613ac4565b840191505092915050565b600060808201905061571d6000830187613bc5565b61572a6020830186613bc5565b6157376040830185613c5b565b818103606083015261574981846156cf565b905095945050505050565b600081519050615763816139e6565b92915050565b60006020828403121561577f5761577e6139b0565b5b600061578d84828501615754565b91505092915050565b60006157a182613b30565b91506157ac83613b30565b9250826157bc576157bb614b50565b5b828206905092915050565b7f455243373231413a206d696e7420746f20746865207a65726f2061646472657360008201527f7300000000000000000000000000000000000000000000000000000000000000602082015250565b6000615823602183613a80565b915061582e826157c7565b604082019050919050565b6000602082019050818103600083015261585281615816565b9050919050565b7f455243373231413a20746f6b656e20616c7265616479206d696e746564000000600082015250565b600061588f601d83613a80565b915061589a82615859565b602082019050919050565b600060208201905081810360008301526158be81615882565b9050919050565b7f455243373231413a207175616e7469747920746f206d696e7420746f6f20686960008201527f6768000000000000000000000000000000000000000000000000000000000000602082015250565b6000615921602283613a80565b915061592c826158c5565b604082019050919050565b6000602082019050818103600083015261595081615914565b905091905056fea2646970667358221220749017898cd62630f8e25d16d0046363d24db63f1cd91a777c71e7430f17b19b64736f6c63430008090033",
  "immutableReferences": {
    "936": [
      {
        "length": 32,
        "start": 7171
      },
      {
        "length": 32,
        "start": 7765
      },
      {
        "length": 32,
        "start": 10768
      },
      {
        "length": 32,
        "start": 10820
      }
    ],
    "938": [
      {
        "length": 32,
        "start": 11430
      },
      {
        "length": 32,
        "start": 11471
      },
      {
        "length": 32,
        "start": 13330
      }
    ],
    "2103": [
      {
        "length": 32,
        "start": 4363
      },
      {
        "length": 32,
        "start": 4475
      },
      {
        "length": 32,
        "start": 7288
      }
    ],
    "2106": [
      {
        "length": 32,
        "start": 6665
      },
      {
        "length": 32,
        "start": 7882
      }
    ],
    "2108": [
      {
        "length": 32,
        "start": 4246
      },
      {
        "length": 32,
        "start": 8857
      }
    ],
    "2110": [
      {
        "length": 32,
        "start": 5045
      }
    ]
  },
  "source": "// SPDX-License-Identifier: MIT\n\npragma solidity ^0.8.0;\n\nimport \"@openzeppelin/contracts/access/Ownable.sol\";\nimport \"@openzeppelin/contracts/security/ReentrancyGuard.sol\";\nimport \"./ERC721A.sol\";\nimport \"@openzeppelin/contracts/utils/Strings.sol\";\n\ncontract YetiPunks is Ownable, ERC721A, ReentrancyGuard {\n    uint256 public immutable maxPerTxn;\n    uint256 public immutable maxPerAddressDuringPresale = 5;\n    uint256 public immutable amountForDevs;\n    uint256 public immutable amountForAuctionAndDev;\n    string public notRevealedUri;\n\n    mapping(address => uint256) public allowlist; //seed this with the uint being 5\n\n    constructor(\n        uint256 maxBatchSize_,\n        uint256 collectionSize_,\n        uint256 amountForAuctionAndDev_,\n        uint256 amountForDevs_,\n        string memory _initNotRevealedUri\n    ) ERC721A(\"Petty Monks\", \"PM\", maxBatchSize_, collectionSize_) {\n        maxPerTxn = maxBatchSize_;\n        amountForAuctionAndDev = amountForAuctionAndDev_;\n        amountForDevs = amountForDevs_;\n        require(\n            amountForAuctionAndDev_ <= collectionSize_,\n            \"larger collection size needed\"\n        );\n        setNotRevealedURI(_initNotRevealedUri);\n    }\n\n    modifier callerIsUser() {\n        require(tx.origin == msg.sender, \"The caller is another contract\");\n        _;\n    }\n\n    function allowlistMint(uint256 quantity) external payable callerIsUser {\n        uint256 price = 0.03 ether;\n        require(allowlist[msg.sender] > 0, \"not eligible for whitelist mint\");\n        require(\n            totalSupply() + quantity <= collectionSize,\n            \"exceeded max supply\"\n        ); //is this possible?\n        require(\n            numberMinted(msg.sender) + quantity <= maxPerAddressDuringPresale,\n            \"mint amount exceeds whitelist\"\n        );\n        allowlist[msg.sender] -= quantity;\n        _safeMint(msg.sender, quantity);\n        refundIfOver(price * quantity);\n    }\n\n    function publicSaleMint(uint256 quantity) external payable callerIsUser {\n        uint256 publicPrice = 0.03 ether;\n\n        require(\n            totalSupply() + quantity <= collectionSize,\n            \"exceeded max supply\"\n        );\n        require(quantity <= maxPerTxn, \"can not mint this many in one batch\");\n        _safeMint(msg.sender, quantity);\n        refundIfOver(publicPrice * quantity);\n    }\n\n    function refundIfOver(uint256 price) private {\n        require(msg.value >= price, \"Need to send more ETH\");\n        if (msg.value > price) {\n            payable(msg.sender).transfer(msg.value - price);\n        }\n    }\n\n    function isPublicSaleOn(\n        uint256 publicPriceWei,\n        uint256 publicSaleKey,\n        uint256 publicSaleStartTime\n    ) public view returns (bool) {\n        return\n            publicPriceWei != 0 &&\n            publicSaleKey != 0 &&\n            block.timestamp >= publicSaleStartTime;\n    }\n\n    function seedAllowlist(\n        address[] memory addresses,\n        uint256[] memory numSlots\n    ) external onlyOwner {\n        require(\n            addresses.length == numSlots.length,\n            \"addresses does not match numSlots length\"\n        );\n        for (uint256 i = 0; i < addresses.length; i++) {\n            allowlist[addresses[i]] = numSlots[i];\n        }\n    }\n\n    // For marketing etc.\n    function devMint(uint256 quantity) external onlyOwner {\n        require(\n            totalSupply() + quantity <= amountForDevs,\n            \"too many already minted before dev mint\"\n        );\n        require(quantity <= maxPerTxn, \"can not mint this many in one batch\");\n\n        _safeMint(msg.sender, quantity);\n    }\n\n    // metadata URI\n    string private _baseTokenURI;\n\n    function _baseURI() internal view virtual override returns (string memory) {\n        return _baseTokenURI;\n    }\n\n    function setNotRevealedURI(string memory _notRevealedURI) public onlyOwner {\n        _baseTokenURI = _notRevealedURI;\n    }\n\n    function setBaseURI(string calldata baseURI) external onlyOwner {\n        _baseTokenURI = baseURI;\n    }\n\n    function withdrawBalance() public onlyOwner {\n        uint256 oneThird = (address(this).balance * 33) / 100;\n        (bool manduSuccess, ) = payable(\n            0xD61ADc48afE9402B4411805Ce6026eF74F94E713\n        ).call{value: oneThird}(\"\");\n        require(manduSuccess);\n        (bool tenzingSuccess, ) = payable(\n            0xE3Ce04B3BcbdFa219407870Ca617e18fBF503F28\n        ).call{value: oneThird}(\"\");\n        require(tenzingSuccess);\n        (bool tokiMoriSuccess, ) = payable(\n            0x49Cf0aF1cE6a50e822A91a427B3E29007f9C6C09\n        ).call{value: address(this).balance}(\"\");\n        require(tokiMoriSuccess);\n    }\n\n    function setOwnersExplicit(uint256 quantity)\n        external\n        onlyOwner\n        nonReentrant\n    {\n        _setOwnersExplicit(quantity);\n    }\n\n    function numberMinted(address owner) public view returns (uint256) {\n        return _numberMinted(owner);\n    }\n\n    function getOwnershipData(uint256 tokenId)\n        external\n        view\n        returns (TokenOwnership memory)\n    {\n        return ownershipOf(tokenId);\n    }\n}\n",
  "sourcePath": "/Users/christopherfoley/nft/YetiPunks/src/contracts/YetiPunks.sol",
  "compiler": {
    "name": "solc",
    "version": "0.8.9+commit.e5eed63a.Emscripten.clang"
  },
  "schemaVersion": "3.4.4",
  "updatedAt": "2022-02-12T16:36:19.304Z",
  "networkType": "ethereum",
  "devdoc": {
    "kind": "dev",
    "methods": {
      "approve(address,uint256)": {
        "details": "See {IERC721-approve}."
      },
      "balanceOf(address)": {
        "details": "See {IERC721-balanceOf}."
      },
      "getApproved(uint256)": {
        "details": "See {IERC721-getApproved}."
      },
      "isApprovedForAll(address,address)": {
        "details": "See {IERC721-isApprovedForAll}."
      },
      "name()": {
        "details": "See {IERC721Metadata-name}."
      },
      "owner()": {
        "details": "Returns the address of the current owner."
      },
      "ownerOf(uint256)": {
        "details": "See {IERC721-ownerOf}."
      },
      "renounceOwnership()": {
        "details": "Leaves the contract without owner. It will not be possible to call `onlyOwner` functions anymore. Can only be called by the current owner. NOTE: Renouncing ownership will leave the contract without an owner, thereby removing any functionality that is only available to the owner."
      },
      "safeTransferFrom(address,address,uint256)": {
        "details": "See {IERC721-safeTransferFrom}."
      },
      "safeTransferFrom(address,address,uint256,bytes)": {
        "details": "See {IERC721-safeTransferFrom}."
      },
      "setApprovalForAll(address,bool)": {
        "details": "See {IERC721-setApprovalForAll}."
      },
      "supportsInterface(bytes4)": {
        "details": "See {IERC165-supportsInterface}."
      },
      "symbol()": {
        "details": "See {IERC721Metadata-symbol}."
      },
      "tokenByIndex(uint256)": {
        "details": "See {IERC721Enumerable-tokenByIndex}."
      },
      "tokenOfOwnerByIndex(address,uint256)": {
        "details": "See {IERC721Enumerable-tokenOfOwnerByIndex}. This read function is O(collectionSize). If calling from a separate contract, be sure to test gas first. It may also degrade with extremely large collection sizes (e.g >> 10000), test for your use case."
      },
      "tokenURI(uint256)": {
        "details": "See {IERC721Metadata-tokenURI}."
      },
      "totalSupply()": {
        "details": "See {IERC721Enumerable-totalSupply}."
      },
      "transferFrom(address,address,uint256)": {
        "details": "See {IERC721-transferFrom}."
      },
      "transferOwnership(address)": {
        "details": "Transfers ownership of the contract to a new account (`newOwner`). Can only be called by the current owner."
      }
    },
    "version": 1
  },
  "userdoc": {
    "kind": "user",
    "methods": {},
    "version": 1
  }
}