{
  "contractName": "YetiPunks",
  "abi": [
    {
      "inputs": [],
      "stateMutability": "nonpayable",
      "type": "constructor"
    },
    {
      "anonymous": false,
      "inputs": [
        {
          "indexed": true,
          "internalType": "address",
          "name": "owner",
          "type": "address"
        },
        {
          "indexed": true,
          "internalType": "address",
          "name": "approved",
          "type": "address"
        },
        {
          "indexed": true,
          "internalType": "uint256",
          "name": "tokenId",
          "type": "uint256"
        }
      ],
      "name": "Approval",
      "type": "event"
    },
    {
      "anonymous": false,
      "inputs": [
        {
          "indexed": true,
          "internalType": "address",
          "name": "owner",
          "type": "address"
        },
        {
          "indexed": true,
          "internalType": "address",
          "name": "operator",
          "type": "address"
        },
        {
          "indexed": false,
          "internalType": "bool",
          "name": "approved",
          "type": "bool"
        }
      ],
      "name": "ApprovalForAll",
      "type": "event"
    },
    {
      "anonymous": false,
      "inputs": [
        {
          "indexed": true,
          "internalType": "address",
          "name": "previousOwner",
          "type": "address"
        },
        {
          "indexed": true,
          "internalType": "address",
          "name": "newOwner",
          "type": "address"
        }
      ],
      "name": "OwnershipTransferred",
      "type": "event"
    },
    {
      "anonymous": false,
      "inputs": [
        {
          "indexed": true,
          "internalType": "address",
          "name": "from",
          "type": "address"
        },
        {
          "indexed": true,
          "internalType": "address",
          "name": "to",
          "type": "address"
        },
        {
          "indexed": true,
          "internalType": "uint256",
          "name": "tokenId",
          "type": "uint256"
        }
      ],
      "name": "Transfer",
      "type": "event"
    },
    {
      "inputs": [],
      "name": "MAX_SUPPLY",
      "outputs": [
        {
          "internalType": "uint256",
          "name": "",
          "type": "uint256"
        }
      ],
      "stateMutability": "view",
      "type": "function",
      "constant": true
    },
    {
      "inputs": [
        {
          "internalType": "address",
          "name": "to",
          "type": "address"
        },
        {
          "internalType": "uint256",
          "name": "tokenId",
          "type": "uint256"
        }
      ],
      "name": "approve",
      "outputs": [],
      "stateMutability": "nonpayable",
      "type": "function"
    },
    {
      "inputs": [
        {
          "internalType": "address",
          "name": "owner",
          "type": "address"
        }
      ],
      "name": "balanceOf",
      "outputs": [
        {
          "internalType": "uint256",
          "name": "",
          "type": "uint256"
        }
      ],
      "stateMutability": "view",
      "type": "function",
      "constant": true
    },
    {
      "inputs": [],
      "name": "cost",
      "outputs": [
        {
          "internalType": "uint256",
          "name": "",
          "type": "uint256"
        }
      ],
      "stateMutability": "view",
      "type": "function",
      "constant": true
    },
    {
      "inputs": [
        {
          "internalType": "uint256",
          "name": "tokenId",
          "type": "uint256"
        }
      ],
      "name": "getApproved",
      "outputs": [
        {
          "internalType": "address",
          "name": "",
          "type": "address"
        }
      ],
      "stateMutability": "view",
      "type": "function",
      "constant": true
    },
    {
      "inputs": [
        {
          "internalType": "address",
          "name": "owner",
          "type": "address"
        },
        {
          "internalType": "address",
          "name": "operator",
          "type": "address"
        }
      ],
      "name": "isApprovedForAll",
      "outputs": [
        {
          "internalType": "bool",
          "name": "",
          "type": "bool"
        }
      ],
      "stateMutability": "view",
      "type": "function",
      "constant": true
    },
    {
      "inputs": [],
      "name": "name",
      "outputs": [
        {
          "internalType": "string",
          "name": "",
          "type": "string"
        }
      ],
      "stateMutability": "view",
      "type": "function",
      "constant": true
    },
    {
      "inputs": [],
      "name": "owner",
      "outputs": [
        {
          "internalType": "address",
          "name": "",
          "type": "address"
        }
      ],
      "stateMutability": "view",
      "type": "function",
      "constant": true
    },
    {
      "inputs": [
        {
          "internalType": "uint256",
          "name": "tokenId",
          "type": "uint256"
        }
      ],
      "name": "ownerOf",
      "outputs": [
        {
          "internalType": "address",
          "name": "",
          "type": "address"
        }
      ],
      "stateMutability": "view",
      "type": "function",
      "constant": true
    },
    {
      "inputs": [],
      "name": "renounceOwnership",
      "outputs": [],
      "stateMutability": "nonpayable",
      "type": "function"
    },
    {
      "inputs": [
        {
          "internalType": "address",
          "name": "from",
          "type": "address"
        },
        {
          "internalType": "address",
          "name": "to",
          "type": "address"
        },
        {
          "internalType": "uint256",
          "name": "tokenId",
          "type": "uint256"
        }
      ],
      "name": "safeTransferFrom",
      "outputs": [],
      "stateMutability": "nonpayable",
      "type": "function"
    },
    {
      "inputs": [
        {
          "internalType": "address",
          "name": "from",
          "type": "address"
        },
        {
          "internalType": "address",
          "name": "to",
          "type": "address"
        },
        {
          "internalType": "uint256",
          "name": "tokenId",
          "type": "uint256"
        },
        {
          "internalType": "bytes",
          "name": "_data",
          "type": "bytes"
        }
      ],
      "name": "safeTransferFrom",
      "outputs": [],
      "stateMutability": "nonpayable",
      "type": "function"
    },
    {
      "inputs": [],
      "name": "saleIsActive",
      "outputs": [
        {
          "internalType": "bool",
          "name": "",
          "type": "bool"
        }
      ],
      "stateMutability": "view",
      "type": "function",
      "constant": true
    },
    {
      "inputs": [
        {
          "internalType": "address",
          "name": "operator",
          "type": "address"
        },
        {
          "internalType": "bool",
          "name": "approved",
          "type": "bool"
        }
      ],
      "name": "setApprovalForAll",
      "outputs": [],
      "stateMutability": "nonpayable",
      "type": "function"
    },
    {
      "inputs": [
        {
          "internalType": "bytes4",
          "name": "interfaceId",
          "type": "bytes4"
        }
      ],
      "name": "supportsInterface",
      "outputs": [
        {
          "internalType": "bool",
          "name": "",
          "type": "bool"
        }
      ],
      "stateMutability": "view",
      "type": "function",
      "constant": true
    },
    {
      "inputs": [],
      "name": "symbol",
      "outputs": [
        {
          "internalType": "string",
          "name": "",
          "type": "string"
        }
      ],
      "stateMutability": "view",
      "type": "function",
      "constant": true
    },
    {
      "inputs": [
        {
          "internalType": "uint256",
          "name": "tokenId",
          "type": "uint256"
        }
      ],
      "name": "tokenURI",
      "outputs": [
        {
          "internalType": "string",
          "name": "",
          "type": "string"
        }
      ],
      "stateMutability": "view",
      "type": "function",
      "constant": true
    },
    {
      "inputs": [
        {
          "internalType": "address",
          "name": "from",
          "type": "address"
        },
        {
          "internalType": "address",
          "name": "to",
          "type": "address"
        },
        {
          "internalType": "uint256",
          "name": "tokenId",
          "type": "uint256"
        }
      ],
      "name": "transferFrom",
      "outputs": [],
      "stateMutability": "nonpayable",
      "type": "function"
    },
    {
      "inputs": [
        {
          "internalType": "address",
          "name": "newOwner",
          "type": "address"
        }
      ],
      "name": "transferOwnership",
      "outputs": [],
      "stateMutability": "nonpayable",
      "type": "function"
    },
    {
      "inputs": [],
      "name": "mint",
      "outputs": [],
      "stateMutability": "payable",
      "type": "function",
      "payable": true
    },
    {
      "inputs": [],
      "name": "remainingSupply",
      "outputs": [
        {
          "internalType": "uint256",
          "name": "",
          "type": "uint256"
        }
      ],
      "stateMutability": "view",
      "type": "function",
      "constant": true
    },
    {
      "inputs": [],
      "name": "tokenSupply",
      "outputs": [
        {
          "internalType": "uint256",
          "name": "",
          "type": "uint256"
        }
      ],
      "stateMutability": "view",
      "type": "function",
      "constant": true
    },
    {
      "inputs": [],
      "name": "getBaseUri",
      "outputs": [
        {
          "internalType": "string",
          "name": "",
          "type": "string"
        }
      ],
      "stateMutability": "view",
      "type": "function",
      "constant": true
    },
    {
      "inputs": [
        {
          "internalType": "string",
          "name": "baseURI",
          "type": "string"
        }
      ],
      "name": "setBaseURI",
      "outputs": [],
      "stateMutability": "nonpayable",
      "type": "function"
    },
    {
      "inputs": [
        {
          "internalType": "bool",
          "name": "_state",
          "type": "bool"
        }
      ],
      "name": "toggleSale",
      "outputs": [],
      "stateMutability": "nonpayable",
      "type": "function"
    },
    {
      "inputs": [],
      "name": "withdrawBalance",
      "outputs": [],
      "stateMutability": "nonpayable",
      "type": "function"
    }
  ],
  "bytecode": "0x6080604052666a94d74f4300006008556000600960006101000a81548160ff0219169083151502179055503480156200003757600080fd5b506040518060400160405280600981526020017f5965746950756e6b7300000000000000000000000000000000000000000000008152506040518060400160405280600481526020017f59455449000000000000000000000000000000000000000000000000000000008152508160009080519060200190620000bc92919062000214565b508060019080519060200190620000d592919062000214565b505050620000f8620000ec6200013060201b60201c565b6200013860201b60201c565b6200010f6007620001fe60201b620015811760201c565b6001600960006101000a81548160ff02191690831515021790555062000329565b600033905090565b6000600660009054906101000a900473ffffffffffffffffffffffffffffffffffffffff16905081600660006101000a81548173ffffffffffffffffffffffffffffffffffffffff021916908373ffffffffffffffffffffffffffffffffffffffff1602179055508173ffffffffffffffffffffffffffffffffffffffff168173ffffffffffffffffffffffffffffffffffffffff167f8be0079c531659141344cd1fd0a4f28419497f9722a3daafe3b4186f6b6457e060405160405180910390a35050565b6001816000016000828254019250508190555050565b8280546200022290620002f3565b90600052602060002090601f01602090048101928262000246576000855562000292565b82601f106200026157805160ff191683800117855562000292565b8280016001018555821562000292579182015b828111156200029157825182559160200191906001019062000274565b5b509050620002a19190620002a5565b5090565b5b80821115620002c0576000816000905550600101620002a6565b5090565b7f4e487b7100000000000000000000000000000000000000000000000000000000600052602260045260246000fd5b600060028204905060018216806200030c57607f821691505b60208210811415620003235762000322620002c4565b5b50919050565b61369a80620003396000396000f3fe6080604052600436106101815760003560e01c806370a08231116100d1578063aab402e51161008a578063da0239a611610064578063da0239a61461053b578063e985e9c514610566578063eb8d2444146105a3578063f2fde38b146105ce57610181565b8063aab402e5146104ac578063b88d4fde146104d5578063c87b56dd146104fe57610181565b806370a08231146103ae578063715018a6146103eb5780637824407f146104025780638da5cb5b1461042d57806395d89b4114610458578063a22cb4651461048357610181565b806313faede61161013e57806342842e0e1161011857806342842e0e1461030857806355f804b3146103315780635fd8c7101461035a5780636352211e1461037157610181565b806313faede61461028957806323b872dd146102b457806332cb6b0c146102dd57610181565b806301ffc9a71461018657806306fdde03146101c3578063081812fc146101ee578063095ea7b31461022b5780630cac36b2146102545780631249c58b1461027f575b600080fd5b34801561019257600080fd5b506101ad60048036038101906101a89190612290565b6105f7565b6040516101ba91906122d8565b60405180910390f35b3480156101cf57600080fd5b506101d86106d9565b6040516101e5919061238c565b60405180910390f35b3480156101fa57600080fd5b50610215600480360381019061021091906123e4565b61076b565b6040516102229190612452565b60405180910390f35b34801561023757600080fd5b50610252600480360381019061024d9190612499565b6107f0565b005b34801561026057600080fd5b50610269610908565b604051610276919061238c565b60405180910390f35b610287610a16565b005b34801561029557600080fd5b5061029e610adb565b6040516102ab91906124e8565b60405180910390f35b3480156102c057600080fd5b506102db60048036038101906102d69190612503565b610ae1565b005b3480156102e957600080fd5b506102f2610b41565b6040516102ff91906124e8565b60405180910390f35b34801561031457600080fd5b5061032f600480360381019061032a9190612503565b610b47565b005b34801561033d57600080fd5b506103586004803603810190610353919061268b565b610b67565b005b34801561036657600080fd5b5061036f610bfd565b005b34801561037d57600080fd5b50610398600480360381019061039391906123e4565b610de2565b6040516103a59190612452565b60405180910390f35b3480156103ba57600080fd5b506103d560048036038101906103d091906126d4565b610e94565b6040516103e291906124e8565b60405180910390f35b3480156103f757600080fd5b50610400610f4c565b005b34801561040e57600080fd5b50610417610fd4565b60405161042491906124e8565b60405180910390f35b34801561043957600080fd5b50610442610fe5565b60405161044f9190612452565b60405180910390f35b34801561046457600080fd5b5061046d61100f565b60405161047a919061238c565b60405180910390f35b34801561048f57600080fd5b506104aa60048036038101906104a5919061272d565b6110a1565b005b3480156104b857600080fd5b506104d360048036038101906104ce919061276d565b611222565b005b3480156104e157600080fd5b506104fc60048036038101906104f7919061283b565b6112bb565b005b34801561050a57600080fd5b50610525600480360381019061052091906123e4565b61131d565b604051610532919061238c565b60405180910390f35b34801561054757600080fd5b506105506113c4565b60405161055d91906124e8565b60405180910390f35b34801561057257600080fd5b5061058d600480360381019061058891906128be565b6113e2565b60405161059a91906122d8565b60405180910390f35b3480156105af57600080fd5b506105b8611476565b6040516105c591906122d8565b60405180910390f35b3480156105da57600080fd5b506105f560048036038101906105f091906126d4565b611489565b005b60007f80ac58cd000000000000000000000000000000000000000000000000000000007bffffffffffffffffffffffffffffffffffffffffffffffffffffffff1916827bffffffffffffffffffffffffffffffffffffffffffffffffffffffff191614806106c257507f5b5e139f000000000000000000000000000000000000000000000000000000007bffffffffffffffffffffffffffffffffffffffffffffffffffffffff1916827bffffffffffffffffffffffffffffffffffffffffffffffffffffffff1916145b806106d257506106d182611597565b5b9050919050565b6060600080546106e89061292d565b80601f01602080910402602001604051908101604052809291908181526020018280546107149061292d565b80156107615780601f1061073657610100808354040283529160200191610761565b820191906000526020600020905b81548152906001019060200180831161074457829003601f168201915b5050505050905090565b600061077682611601565b6107b5576040517f08c379a00000000000000000000000000000000000000000000000000000000081526004016107ac906129d1565b60405180910390fd5b6004600083815260200190815260200160002060009054906101000a900473ffffffffffffffffffffffffffffffffffffffff169050919050565b60006107fb82610de2565b90508073ffffffffffffffffffffffffffffffffffffffff168373ffffffffffffffffffffffffffffffffffffffff16141561086c576040517f08c379a000000000000000000000000000000000000000000000000000000000815260040161086390612a63565b60405180910390fd5b8073ffffffffffffffffffffffffffffffffffffffff1661088b61166d565b73ffffffffffffffffffffffffffffffffffffffff1614806108ba57506108b9816108b461166d565b6113e2565b5b6108f9576040517f08c379a00000000000000000000000000000000000000000000000000000000081526004016108f090612af5565b60405180910390fd5b6109038383611675565b505050565b606061091261166d565b73ffffffffffffffffffffffffffffffffffffffff16610930610fe5565b73ffffffffffffffffffffffffffffffffffffffff1614610986576040517f08c379a000000000000000000000000000000000000000000000000000000000815260040161097d90612b61565b60405180910390fd5b600a80546109939061292d565b80601f01602080910402602001604051908101604052809291908181526020018280546109bf9061292d565b8015610a0c5780601f106109e157610100808354040283529160200191610a0c565b820191906000526020600020905b8154815290600101906020018083116109ef57829003601f168201915b5050505050905090565b600960009054906101000a900460ff16610a65576040517f08c379a0000000000000000000000000000000000000000000000000000000008152600401610a5c90612bcd565b60405180910390fd5b60006001610a73600761172e565b610a7d9190612c1c565b9050612710811115610ac4576040517f08c379a0000000000000000000000000000000000000000000000000000000008152600401610abb90612cbe565b60405180910390fd5b610ace6007611581565b610ad8338261173c565b50565b60085481565b610af2610aec61166d565b8261175a565b610b31576040517f08c379a0000000000000000000000000000000000000000000000000000000008152600401610b2890612d50565b60405180910390fd5b610b3c838383611838565b505050565b61271081565b610b62838383604051806020016040528060008152506112bb565b505050565b610b6f61166d565b73ffffffffffffffffffffffffffffffffffffffff16610b8d610fe5565b73ffffffffffffffffffffffffffffffffffffffff1614610be3576040517f08c379a0000000000000000000000000000000000000000000000000000000008152600401610bda90612b61565b60405180910390fd5b80600a9080519060200190610bf9929190612181565b5050565b610c0561166d565b73ffffffffffffffffffffffffffffffffffffffff16610c23610fe5565b73ffffffffffffffffffffffffffffffffffffffff1614610c79576040517f08c379a0000000000000000000000000000000000000000000000000000000008152600401610c7090612b61565b60405180910390fd5b60003390503373ffffffffffffffffffffffffffffffffffffffff166108fc6064602147610ca79190612d70565b610cb19190612df9565b9081150290604051600060405180830381858888f19350505050158015610cdc573d6000803e3d6000fd5b508073ffffffffffffffffffffffffffffffffffffffff166108fc6064602147610d069190612d70565b610d109190612df9565b9081150290604051600060405180830381858888f19350505050158015610d3b573d6000803e3d6000fd5b50600073943590a42c27d08e3744202c4ae5ed55c2de240d73ffffffffffffffffffffffffffffffffffffffff166064602147610d789190612d70565b610d829190612df9565b604051610d8e90612e5b565b60006040518083038185875af1925050503d8060008114610dcb576040519150601f19603f3d011682016040523d82523d6000602084013e610dd0565b606091505b5050905080610dde57600080fd5b5050565b6000806002600084815260200190815260200160002060009054906101000a900473ffffffffffffffffffffffffffffffffffffffff169050600073ffffffffffffffffffffffffffffffffffffffff168173ffffffffffffffffffffffffffffffffffffffff161415610e8b576040517f08c379a0000000000000000000000000000000000000000000000000000000008152600401610e8290612ee2565b60405180910390fd5b80915050919050565b60008073ffffffffffffffffffffffffffffffffffffffff168273ffffffffffffffffffffffffffffffffffffffff161415610f05576040517f08c379a0000000000000000000000000000000000000000000000000000000008152600401610efc90612f74565b60405180910390fd5b600360008373ffffffffffffffffffffffffffffffffffffffff1673ffffffffffffffffffffffffffffffffffffffff168152602001908152602001600020549050919050565b610f5461166d565b73ffffffffffffffffffffffffffffffffffffffff16610f72610fe5565b73ffffffffffffffffffffffffffffffffffffffff1614610fc8576040517f08c379a0000000000000000000000000000000000000000000000000000000008152600401610fbf90612b61565b60405180910390fd5b610fd26000611a94565b565b6000610fe0600761172e565b905090565b6000600660009054906101000a900473ffffffffffffffffffffffffffffffffffffffff16905090565b60606001805461101e9061292d565b80601f016020809104026020016040519081016040528092919081815260200182805461104a9061292d565b80156110975780601f1061106c57610100808354040283529160200191611097565b820191906000526020600020905b81548152906001019060200180831161107a57829003601f168201915b5050505050905090565b6110a961166d565b73ffffffffffffffffffffffffffffffffffffffff168273ffffffffffffffffffffffffffffffffffffffff161415611117576040517f08c379a000000000000000000000000000000000000000000000000000000000815260040161110e90612fe0565b60405180910390fd5b806005600061112461166d565b73ffffffffffffffffffffffffffffffffffffffff1673ffffffffffffffffffffffffffffffffffffffff16815260200190815260200160002060008473ffffffffffffffffffffffffffffffffffffffff1673ffffffffffffffffffffffffffffffffffffffff16815260200190815260200160002060006101000a81548160ff0219169083151502179055508173ffffffffffffffffffffffffffffffffffffffff166111d161166d565b73ffffffffffffffffffffffffffffffffffffffff167f17307eab39ab6107e8899845ad3d59bd9653f200f220920489ca2b5937696c318360405161121691906122d8565b60405180910390a35050565b61122a61166d565b73ffffffffffffffffffffffffffffffffffffffff16611248610fe5565b73ffffffffffffffffffffffffffffffffffffffff161461129e576040517f08c379a000000000000000000000000000000000000000000000000000000000815260040161129590612b61565b60405180910390fd5b80600960006101000a81548160ff02191690831515021790555050565b6112cc6112c661166d565b8361175a565b61130b576040517f08c379a000000000000000000000000000000000000000000000000000000000815260040161130290612d50565b60405180910390fd5b61131784848484611b5a565b50505050565b606061132882611601565b611367576040517f08c379a000000000000000000000000000000000000000000000000000000000815260040161135e90613072565b60405180910390fd5b6000611371611bb6565b9050600081511161139157604051806020016040528060008152506113bc565b8061139b84611c48565b6040516020016113ac9291906130ce565b6040516020818303038152906040525b915050919050565b60006113d0600761172e565b6127106113dd91906130f2565b905090565b6000600560008473ffffffffffffffffffffffffffffffffffffffff1673ffffffffffffffffffffffffffffffffffffffff16815260200190815260200160002060008373ffffffffffffffffffffffffffffffffffffffff1673ffffffffffffffffffffffffffffffffffffffff16815260200190815260200160002060009054906101000a900460ff16905092915050565b600960009054906101000a900460ff1681565b61149161166d565b73ffffffffffffffffffffffffffffffffffffffff166114af610fe5565b73ffffffffffffffffffffffffffffffffffffffff1614611505576040517f08c379a00000000000000000000000000000000000000000000000000000000081526004016114fc90612b61565b60405180910390fd5b600073ffffffffffffffffffffffffffffffffffffffff168173ffffffffffffffffffffffffffffffffffffffff161415611575576040517f08c379a000000000000000000000000000000000000000000000000000000000815260040161156c90613198565b60405180910390fd5b61157e81611a94565b50565b6001816000016000828254019250508190555050565b60007f01ffc9a7000000000000000000000000000000000000000000000000000000007bffffffffffffffffffffffffffffffffffffffffffffffffffffffff1916827bffffffffffffffffffffffffffffffffffffffffffffffffffffffff1916149050919050565b60008073ffffffffffffffffffffffffffffffffffffffff166002600084815260200190815260200160002060009054906101000a900473ffffffffffffffffffffffffffffffffffffffff1673ffffffffffffffffffffffffffffffffffffffff1614159050919050565b600033905090565b816004600083815260200190815260200160002060006101000a81548173ffffffffffffffffffffffffffffffffffffffff021916908373ffffffffffffffffffffffffffffffffffffffff160217905550808273ffffffffffffffffffffffffffffffffffffffff166116e883610de2565b73ffffffffffffffffffffffffffffffffffffffff167f8c5be1e5ebec7d5bd14f71427d1e84f3dd0314c0f7b2291e5b200ac8c7c3b92560405160405180910390a45050565b600081600001549050919050565b611756828260405180602001604052806000815250611da9565b5050565b600061176582611601565b6117a4576040517f08c379a000000000000000000000000000000000000000000000000000000000815260040161179b9061322a565b60405180910390fd5b60006117af83610de2565b90508073ffffffffffffffffffffffffffffffffffffffff168473ffffffffffffffffffffffffffffffffffffffff16148061181e57508373ffffffffffffffffffffffffffffffffffffffff166118068461076b565b73ffffffffffffffffffffffffffffffffffffffff16145b8061182f575061182e81856113e2565b5b91505092915050565b8273ffffffffffffffffffffffffffffffffffffffff1661185882610de2565b73ffffffffffffffffffffffffffffffffffffffff16146118ae576040517f08c379a00000000000000000000000000000000000000000000000000000000081526004016118a5906132bc565b60405180910390fd5b600073ffffffffffffffffffffffffffffffffffffffff168273ffffffffffffffffffffffffffffffffffffffff16141561191e576040517f08c379a00000000000000000000000000000000000000000000000000000000081526004016119159061334e565b60405180910390fd5b611929838383611e04565b611934600082611675565b6001600360008573ffffffffffffffffffffffffffffffffffffffff1673ffffffffffffffffffffffffffffffffffffffff168152602001908152602001600020600082825461198491906130f2565b925050819055506001600360008473ffffffffffffffffffffffffffffffffffffffff1673ffffffffffffffffffffffffffffffffffffffff16815260200190815260200160002060008282546119db9190612c1c565b92505081905550816002600083815260200190815260200160002060006101000a81548173ffffffffffffffffffffffffffffffffffffffff021916908373ffffffffffffffffffffffffffffffffffffffff160217905550808273ffffffffffffffffffffffffffffffffffffffff168473ffffffffffffffffffffffffffffffffffffffff167fddf252ad1be2c89b69c2b068fc378daa952ba7f163c4a11628f55a4df523b3ef60405160405180910390a4505050565b6000600660009054906101000a900473ffffffffffffffffffffffffffffffffffffffff16905081600660006101000a81548173ffffffffffffffffffffffffffffffffffffffff021916908373ffffffffffffffffffffffffffffffffffffffff1602179055508173ffffffffffffffffffffffffffffffffffffffff168173ffffffffffffffffffffffffffffffffffffffff167f8be0079c531659141344cd1fd0a4f28419497f9722a3daafe3b4186f6b6457e060405160405180910390a35050565b611b65848484611838565b611b7184848484611e09565b611bb0576040517f08c379a0000000000000000000000000000000000000000000000000000000008152600401611ba7906133e0565b60405180910390fd5b50505050565b6060600a8054611bc59061292d565b80601f0160208091040260200160405190810160405280929190818152602001828054611bf19061292d565b8015611c3e5780601f10611c1357610100808354040283529160200191611c3e565b820191906000526020600020905b815481529060010190602001808311611c2157829003601f168201915b5050505050905090565b60606000821415611c90576040518060400160405280600181526020017f30000000000000000000000000000000000000000000000000000000000000008152509050611da4565b600082905060005b60008214611cc2578080611cab90613400565b915050600a82611cbb9190612df9565b9150611c98565b60008167ffffffffffffffff811115611cde57611cdd612560565b5b6040519080825280601f01601f191660200182016040528015611d105781602001600182028036833780820191505090505b5090505b60008514611d9d57600182611d2991906130f2565b9150600a85611d389190613449565b6030611d449190612c1c565b60f81b818381518110611d5a57611d5961347a565b5b60200101907effffffffffffffffffffffffffffffffffffffffffffffffffffffffffffff1916908160001a905350600a85611d969190612df9565b9450611d14565b8093505050505b919050565b611db38383611fa0565b611dc06000848484611e09565b611dff576040517f08c379a0000000000000000000000000000000000000000000000000000000008152600401611df6906133e0565b60405180910390fd5b505050565b505050565b6000611e2a8473ffffffffffffffffffffffffffffffffffffffff1661216e565b15611f93578373ffffffffffffffffffffffffffffffffffffffff1663150b7a02611e5361166d565b8786866040518563ffffffff1660e01b8152600401611e7594939291906134fe565b602060405180830381600087803b158015611e8f57600080fd5b505af1925050508015611ec057506040513d601f19601f82011682018060405250810190611ebd919061355f565b60015b611f43573d8060008114611ef0576040519150601f19603f3d011682016040523d82523d6000602084013e611ef5565b606091505b50600081511415611f3b576040517f08c379a0000000000000000000000000000000000000000000000000000000008152600401611f32906133e0565b60405180910390fd5b805181602001fd5b63150b7a0260e01b7bffffffffffffffffffffffffffffffffffffffffffffffffffffffff1916817bffffffffffffffffffffffffffffffffffffffffffffffffffffffff191614915050611f98565b600190505b949350505050565b600073ffffffffffffffffffffffffffffffffffffffff168273ffffffffffffffffffffffffffffffffffffffff161415612010576040517f08c379a0000000000000000000000000000000000000000000000000000000008152600401612007906135d8565b60405180910390fd5b61201981611601565b15612059576040517f08c379a000000000000000000000000000000000000000000000000000000000815260040161205090613644565b60405180910390fd5b61206560008383611e04565b6001600360008473ffffffffffffffffffffffffffffffffffffffff1673ffffffffffffffffffffffffffffffffffffffff16815260200190815260200160002060008282546120b59190612c1c565b92505081905550816002600083815260200190815260200160002060006101000a81548173ffffffffffffffffffffffffffffffffffffffff021916908373ffffffffffffffffffffffffffffffffffffffff160217905550808273ffffffffffffffffffffffffffffffffffffffff16600073ffffffffffffffffffffffffffffffffffffffff167fddf252ad1be2c89b69c2b068fc378daa952ba7f163c4a11628f55a4df523b3ef60405160405180910390a45050565b600080823b905060008111915050919050565b82805461218d9061292d565b90600052602060002090601f0160209004810192826121af57600085556121f6565b82601f106121c857805160ff19168380011785556121f6565b828001600101855582156121f6579182015b828111156121f55782518255916020019190600101906121da565b5b5090506122039190612207565b5090565b5b80821115612220576000816000905550600101612208565b5090565b6000604051905090565b600080fd5b600080fd5b60007fffffffff0000000000000000000000000000000000000000000000000000000082169050919050565b61226d81612238565b811461227857600080fd5b50565b60008135905061228a81612264565b92915050565b6000602082840312156122a6576122a561222e565b5b60006122b48482850161227b565b91505092915050565b60008115159050919050565b6122d2816122bd565b82525050565b60006020820190506122ed60008301846122c9565b92915050565b600081519050919050565b600082825260208201905092915050565b60005b8381101561232d578082015181840152602081019050612312565b8381111561233c576000848401525b50505050565b6000601f19601f8301169050919050565b600061235e826122f3565b61236881856122fe565b935061237881856020860161230f565b61238181612342565b840191505092915050565b600060208201905081810360008301526123a68184612353565b905092915050565b6000819050919050565b6123c1816123ae565b81146123cc57600080fd5b50565b6000813590506123de816123b8565b92915050565b6000602082840312156123fa576123f961222e565b5b6000612408848285016123cf565b91505092915050565b600073ffffffffffffffffffffffffffffffffffffffff82169050919050565b600061243c82612411565b9050919050565b61244c81612431565b82525050565b60006020820190506124676000830184612443565b92915050565b61247681612431565b811461248157600080fd5b50565b6000813590506124938161246d565b92915050565b600080604083850312156124b0576124af61222e565b5b60006124be85828601612484565b92505060206124cf858286016123cf565b9150509250929050565b6124e2816123ae565b82525050565b60006020820190506124fd60008301846124d9565b92915050565b60008060006060848603121561251c5761251b61222e565b5b600061252a86828701612484565b935050602061253b86828701612484565b925050604061254c868287016123cf565b9150509250925092565b600080fd5b600080fd5b7f4e487b7100000000000000000000000000000000000000000000000000000000600052604160045260246000fd5b61259882612342565b810181811067ffffffffffffffff821117156125b7576125b6612560565b5b80604052505050565b60006125ca612224565b90506125d6828261258f565b919050565b600067ffffffffffffffff8211156125f6576125f5612560565b5b6125ff82612342565b9050602081019050919050565b82818337600083830152505050565b600061262e612629846125db565b6125c0565b90508281526020810184848401111561264a5761264961255b565b5b61265584828561260c565b509392505050565b600082601f83011261267257612671612556565b5b813561268284826020860161261b565b91505092915050565b6000602082840312156126a1576126a061222e565b5b600082013567ffffffffffffffff8111156126bf576126be612233565b5b6126cb8482850161265d565b91505092915050565b6000602082840312156126ea576126e961222e565b5b60006126f884828501612484565b91505092915050565b61270a816122bd565b811461271557600080fd5b50565b60008135905061272781612701565b92915050565b600080604083850312156127445761274361222e565b5b600061275285828601612484565b925050602061276385828601612718565b9150509250929050565b6000602082840312156127835761278261222e565b5b600061279184828501612718565b91505092915050565b600067ffffffffffffffff8211156127b5576127b4612560565b5b6127be82612342565b9050602081019050919050565b60006127de6127d98461279a565b6125c0565b9050828152602081018484840111156127fa576127f961255b565b5b61280584828561260c565b509392505050565b600082601f83011261282257612821612556565b5b81356128328482602086016127cb565b91505092915050565b600080600080608085870312156128555761285461222e565b5b600061286387828801612484565b945050602061287487828801612484565b9350506040612885878288016123cf565b925050606085013567ffffffffffffffff8111156128a6576128a5612233565b5b6128b28782880161280d565b91505092959194509250565b600080604083850312156128d5576128d461222e565b5b60006128e385828601612484565b92505060206128f485828601612484565b9150509250929050565b7f4e487b7100000000000000000000000000000000000000000000000000000000600052602260045260246000fd5b6000600282049050600182168061294557607f821691505b60208210811415612959576129586128fe565b5b50919050565b7f4552433732313a20617070726f76656420717565727920666f72206e6f6e657860008201527f697374656e7420746f6b656e0000000000000000000000000000000000000000602082015250565b60006129bb602c836122fe565b91506129c68261295f565b604082019050919050565b600060208201905081810360008301526129ea816129ae565b9050919050565b7f4552433732313a20617070726f76616c20746f2063757272656e74206f776e6560008201527f7200000000000000000000000000000000000000000000000000000000000000602082015250565b6000612a4d6021836122fe565b9150612a58826129f1565b604082019050919050565b60006020820190508181036000830152612a7c81612a40565b9050919050565b7f4552433732313a20617070726f76652063616c6c6572206973206e6f74206f7760008201527f6e6572206e6f7220617070726f76656420666f7220616c6c0000000000000000602082015250565b6000612adf6038836122fe565b9150612aea82612a83565b604082019050919050565b60006020820190508181036000830152612b0e81612ad2565b9050919050565b7f4f776e61626c653a2063616c6c6572206973206e6f7420746865206f776e6572600082015250565b6000612b4b6020836122fe565b9150612b5682612b15565b602082019050919050565b60006020820190508181036000830152612b7a81612b3e565b9050919050565b7f596574697320617265206e6f7420666f722073616c6520796574210000000000600082015250565b6000612bb7601b836122fe565b9150612bc282612b81565b602082019050919050565b60006020820190508181036000830152612be681612baa565b9050919050565b7f4e487b7100000000000000000000000000000000000000000000000000000000600052601160045260246000fd5b6000612c27826123ae565b9150612c32836123ae565b9250827fffffffffffffffffffffffffffffffffffffffffffffffffffffffffffffffff03821115612c6757612c66612bed565b5b828201905092915050565b7f59657469732061726520736f6c64206f75742100000000000000000000000000600082015250565b6000612ca86013836122fe565b9150612cb382612c72565b602082019050919050565b60006020820190508181036000830152612cd781612c9b565b9050919050565b7f4552433732313a207472616e736665722063616c6c6572206973206e6f74206f60008201527f776e6572206e6f7220617070726f766564000000000000000000000000000000602082015250565b6000612d3a6031836122fe565b9150612d4582612cde565b604082019050919050565b60006020820190508181036000830152612d6981612d2d565b9050919050565b6000612d7b826123ae565b9150612d86836123ae565b9250817fffffffffffffffffffffffffffffffffffffffffffffffffffffffffffffffff0483118215151615612dbf57612dbe612bed565b5b828202905092915050565b7f4e487b7100000000000000000000000000000000000000000000000000000000600052601260045260246000fd5b6000612e04826123ae565b9150612e0f836123ae565b925082612e1f57612e1e612dca565b5b828204905092915050565b600081905092915050565b50565b6000612e45600083612e2a565b9150612e5082612e35565b600082019050919050565b6000612e6682612e38565b9150819050919050565b7f4552433732313a206f776e657220717565727920666f72206e6f6e657869737460008201527f656e7420746f6b656e0000000000000000000000000000000000000000000000602082015250565b6000612ecc6029836122fe565b9150612ed782612e70565b604082019050919050565b60006020820190508181036000830152612efb81612ebf565b9050919050565b7f4552433732313a2062616c616e636520717565727920666f7220746865207a6560008201527f726f206164647265737300000000000000000000000000000000000000000000602082015250565b6000612f5e602a836122fe565b9150612f6982612f02565b604082019050919050565b60006020820190508181036000830152612f8d81612f51565b9050919050565b7f4552433732313a20617070726f766520746f2063616c6c657200000000000000600082015250565b6000612fca6019836122fe565b9150612fd582612f94565b602082019050919050565b60006020820190508181036000830152612ff981612fbd565b9050919050565b7f4552433732314d657461646174613a2055524920717565727920666f72206e6f60008201527f6e6578697374656e7420746f6b656e0000000000000000000000000000000000602082015250565b600061305c602f836122fe565b915061306782613000565b604082019050919050565b6000602082019050818103600083015261308b8161304f565b9050919050565b600081905092915050565b60006130a8826122f3565b6130b28185613092565b93506130c281856020860161230f565b80840191505092915050565b60006130da828561309d565b91506130e6828461309d565b91508190509392505050565b60006130fd826123ae565b9150613108836123ae565b92508282101561311b5761311a612bed565b5b828203905092915050565b7f4f776e61626c653a206e6577206f776e657220697320746865207a65726f206160008201527f6464726573730000000000000000000000000000000000000000000000000000602082015250565b60006131826026836122fe565b915061318d82613126565b604082019050919050565b600060208201905081810360008301526131b181613175565b9050919050565b7f4552433732313a206f70657261746f7220717565727920666f72206e6f6e657860008201527f697374656e7420746f6b656e0000000000000000000000000000000000000000602082015250565b6000613214602c836122fe565b915061321f826131b8565b604082019050919050565b6000602082019050818103600083015261324381613207565b9050919050565b7f4552433732313a207472616e73666572206f6620746f6b656e2074686174206960008201527f73206e6f74206f776e0000000000000000000000000000000000000000000000602082015250565b60006132a66029836122fe565b91506132b18261324a565b604082019050919050565b600060208201905081810360008301526132d581613299565b9050919050565b7f4552433732313a207472616e7366657220746f20746865207a65726f2061646460008201527f7265737300000000000000000000000000000000000000000000000000000000602082015250565b60006133386024836122fe565b9150613343826132dc565b604082019050919050565b600060208201905081810360008301526133678161332b565b9050919050565b7f4552433732313a207472616e7366657220746f206e6f6e20455243373231526560008201527f63656976657220696d706c656d656e7465720000000000000000000000000000602082015250565b60006133ca6032836122fe565b91506133d58261336e565b604082019050919050565b600060208201905081810360008301526133f9816133bd565b9050919050565b600061340b826123ae565b91507fffffffffffffffffffffffffffffffffffffffffffffffffffffffffffffffff82141561343e5761343d612bed565b5b600182019050919050565b6000613454826123ae565b915061345f836123ae565b92508261346f5761346e612dca565b5b828206905092915050565b7f4e487b7100000000000000000000000000000000000000000000000000000000600052603260045260246000fd5b600081519050919050565b600082825260208201905092915050565b60006134d0826134a9565b6134da81856134b4565b93506134ea81856020860161230f565b6134f381612342565b840191505092915050565b60006080820190506135136000830187612443565b6135206020830186612443565b61352d60408301856124d9565b818103606083015261353f81846134c5565b905095945050505050565b60008151905061355981612264565b92915050565b6000602082840312156135755761357461222e565b5b60006135838482850161354a565b91505092915050565b7f4552433732313a206d696e7420746f20746865207a65726f2061646472657373600082015250565b60006135c26020836122fe565b91506135cd8261358c565b602082019050919050565b600060208201905081810360008301526135f1816135b5565b9050919050565b7f4552433732313a20746f6b656e20616c7265616479206d696e74656400000000600082015250565b600061362e601c836122fe565b9150613639826135f8565b602082019050919050565b6000602082019050818103600083015261365d81613621565b905091905056fea2646970667358221220a72c29ffa65cae54a0db8136d1a1a83c0ee24f43ffdd2c18d3de4e196a1a1f2c64736f6c63430008090033",
  "immutableReferences": {},
  "source": "// SPDX-License-Identifier: MIT\npragma solidity 0.8.9;\n\nimport \"@openzeppelin/contracts/token/ERC721/ERC721.sol\";\nimport \"@openzeppelin/contracts/access/Ownable.sol\";\nimport \"@openzeppelin/contracts/utils/Counters.sol\";\n\ncontract YetiPunks is ERC721, Ownable {\n    using Counters for Counters.Counter;\n    Counters.Counter private _tokenSupply;\n\n    uint256 public constant MAX_SUPPLY = 10000;\n    uint256 public cost = 0.03 ether;\n\n    bool public saleIsActive = false;\n    string private _baseTokenURI;\n\n    constructor() ERC721(\"YetiPunks\", \"YETI\") { \n        _tokenSupply.increment(); // Start Token Ids at 1\n        saleIsActive = true;\n    }\n\n    // This is the new mint function leveraging the counter library\n    function mint() public payable {\n        require(saleIsActive, \"Yetis are not for sale yet!\");\n\n        // Would this revert if a mint fails?\n        uint256 mintIndex = _tokenSupply.current() + 1; // Start IDs at 1\n        require(mintIndex <= MAX_SUPPLY, \"Yetis are sold out!\");\n\n        // uint256 mintPrice = 30000000000000000 wei;\n        // require(msg.value >= mintPrice, \"Not enough ETH to buy a Yeti!\");\n\n        _tokenSupply.increment();\n        _safeMint(msg.sender, mintIndex);\n    }\n\n    function remainingSupply() public view returns (uint256) {\n        return MAX_SUPPLY - _tokenSupply.current();\n    }\n\n    function tokenSupply() public view returns (uint256) {\n        return _tokenSupply.current();\n    }\n\n    function _baseURI() internal view virtual override returns (string memory) { //onlyOwner\n        return _baseTokenURI;\n    }\n\n    function getBaseUri() external view onlyOwner returns (string memory) {\n        return _baseTokenURI;\n    }\n\n    function setBaseURI(string memory baseURI) external onlyOwner {\n        _baseTokenURI = baseURI;\n    }\n\n    function toggleSale(bool _state) public onlyOwner { //maybe don't need this\n        saleIsActive = _state;\n    }\n\n    function withdrawBalance() public onlyOwner {\n        //TODO: divide evenly between 3 wallets\n        address payable tokimori = payable(msg.sender);\n        payable(msg.sender).transfer(address(this).balance * 33/100);\n        payable(tokimori).transfer(address(this).balance * 33/100);\n    \n        //alt syntax: saves on gas?\n        (bool hs, ) = payable(0x943590A42C27D08e3744202c4Ae5eD55c2dE240D).call{value: address(this).balance * 33 / 100}(\"\");\n        require(hs);\n\n        // function sendViaTransfer(address payable _to) public payable {\n        //     // This function is no longer recommended for sending Ether.\n        //     _to.transfer(msg.value);\n        // }\n\n        // function sendViaSend(address payable _to) public payable {\n        //     // Send returns a boolean value indicating success or failure.\n        //     // This function is not recommended for sending Ether.\n        //     bool sent = _to.send(msg.value);\n        //     require(sent, \"Failed to send Ether\");\n        // }\n\n        // function sendViaCall(address payable _to) public payable {\n        //     // Call returns a boolean value indicating success or failure.\n        //     // This is the current recommended method to use.\n        //     (bool sent, bytes memory data) = _to.call{value: msg.value}(\"\");\n        //     require(sent, \"Failed to send Ether\");\n        // }\n    }\n}",
  "sourcePath": "/Users/christopherfoley/nft/YetiPunks/src/contracts/YetiPunks.sol",
  "compiler": {
    "name": "solc",
    "version": "0.8.9+commit.e5eed63a.Emscripten.clang"
  },
  "schemaVersion": "3.4.4",
  "updatedAt": "2022-01-02T04:51:21.674Z",
  "networkType": "ethereum",
  "devdoc": {
    "kind": "dev",
    "methods": {
      "approve(address,uint256)": {
        "details": "See {IERC721-approve}."
      },
      "balanceOf(address)": {
        "details": "See {IERC721-balanceOf}."
      },
      "getApproved(uint256)": {
        "details": "See {IERC721-getApproved}."
      },
      "isApprovedForAll(address,address)": {
        "details": "See {IERC721-isApprovedForAll}."
      },
      "name()": {
        "details": "See {IERC721Metadata-name}."
      },
      "owner()": {
        "details": "Returns the address of the current owner."
      },
      "ownerOf(uint256)": {
        "details": "See {IERC721-ownerOf}."
      },
      "renounceOwnership()": {
        "details": "Leaves the contract without owner. It will not be possible to call `onlyOwner` functions anymore. Can only be called by the current owner. NOTE: Renouncing ownership will leave the contract without an owner, thereby removing any functionality that is only available to the owner."
      },
      "safeTransferFrom(address,address,uint256)": {
        "details": "See {IERC721-safeTransferFrom}."
      },
      "safeTransferFrom(address,address,uint256,bytes)": {
        "details": "See {IERC721-safeTransferFrom}."
      },
      "setApprovalForAll(address,bool)": {
        "details": "See {IERC721-setApprovalForAll}."
      },
      "supportsInterface(bytes4)": {
        "details": "See {IERC165-supportsInterface}."
      },
      "symbol()": {
        "details": "See {IERC721Metadata-symbol}."
      },
      "tokenURI(uint256)": {
        "details": "See {IERC721Metadata-tokenURI}."
      },
      "transferFrom(address,address,uint256)": {
        "details": "See {IERC721-transferFrom}."
      },
      "transferOwnership(address)": {
        "details": "Transfers ownership of the contract to a new account (`newOwner`). Can only be called by the current owner."
      }
    },
    "version": 1
  },
  "userdoc": {
    "kind": "user",
    "methods": {},
    "version": 1
  }
}