{
  "contractName": "YetiPunks",
  "abi": [
    {
      "inputs": [],
      "stateMutability": "nonpayable",
      "type": "constructor"
    },
    {
      "anonymous": false,
      "inputs": [
        {
          "indexed": true,
          "internalType": "address",
          "name": "owner",
          "type": "address"
        },
        {
          "indexed": true,
          "internalType": "address",
          "name": "approved",
          "type": "address"
        },
        {
          "indexed": true,
          "internalType": "uint256",
          "name": "tokenId",
          "type": "uint256"
        }
      ],
      "name": "Approval",
      "type": "event"
    },
    {
      "anonymous": false,
      "inputs": [
        {
          "indexed": true,
          "internalType": "address",
          "name": "owner",
          "type": "address"
        },
        {
          "indexed": true,
          "internalType": "address",
          "name": "operator",
          "type": "address"
        },
        {
          "indexed": false,
          "internalType": "bool",
          "name": "approved",
          "type": "bool"
        }
      ],
      "name": "ApprovalForAll",
      "type": "event"
    },
    {
      "anonymous": false,
      "inputs": [
        {
          "indexed": true,
          "internalType": "address",
          "name": "previousOwner",
          "type": "address"
        },
        {
          "indexed": true,
          "internalType": "address",
          "name": "newOwner",
          "type": "address"
        }
      ],
      "name": "OwnershipTransferred",
      "type": "event"
    },
    {
      "anonymous": false,
      "inputs": [
        {
          "indexed": true,
          "internalType": "address",
          "name": "from",
          "type": "address"
        },
        {
          "indexed": true,
          "internalType": "address",
          "name": "to",
          "type": "address"
        },
        {
          "indexed": true,
          "internalType": "uint256",
          "name": "tokenId",
          "type": "uint256"
        }
      ],
      "name": "Transfer",
      "type": "event"
    },
    {
      "inputs": [
        {
          "internalType": "address",
          "name": "to",
          "type": "address"
        },
        {
          "internalType": "uint256",
          "name": "tokenId",
          "type": "uint256"
        }
      ],
      "name": "approve",
      "outputs": [],
      "stateMutability": "nonpayable",
      "type": "function"
    },
    {
      "inputs": [
        {
          "internalType": "address",
          "name": "owner",
          "type": "address"
        }
      ],
      "name": "balanceOf",
      "outputs": [
        {
          "internalType": "uint256",
          "name": "",
          "type": "uint256"
        }
      ],
      "stateMutability": "view",
      "type": "function",
      "constant": true
    },
    {
      "inputs": [],
      "name": "baseURI",
      "outputs": [
        {
          "internalType": "string",
          "name": "",
          "type": "string"
        }
      ],
      "stateMutability": "view",
      "type": "function",
      "constant": true
    },
    {
      "inputs": [
        {
          "internalType": "uint256",
          "name": "tokenId",
          "type": "uint256"
        }
      ],
      "name": "getApproved",
      "outputs": [
        {
          "internalType": "address",
          "name": "",
          "type": "address"
        }
      ],
      "stateMutability": "view",
      "type": "function",
      "constant": true
    },
    {
      "inputs": [
        {
          "internalType": "address",
          "name": "owner",
          "type": "address"
        },
        {
          "internalType": "address",
          "name": "operator",
          "type": "address"
        }
      ],
      "name": "isApprovedForAll",
      "outputs": [
        {
          "internalType": "bool",
          "name": "",
          "type": "bool"
        }
      ],
      "stateMutability": "view",
      "type": "function",
      "constant": true
    },
    {
      "inputs": [],
      "name": "name",
      "outputs": [
        {
          "internalType": "string",
          "name": "",
          "type": "string"
        }
      ],
      "stateMutability": "view",
      "type": "function",
      "constant": true
    },
    {
      "inputs": [],
      "name": "owner",
      "outputs": [
        {
          "internalType": "address",
          "name": "",
          "type": "address"
        }
      ],
      "stateMutability": "view",
      "type": "function",
      "constant": true
    },
    {
      "inputs": [
        {
          "internalType": "uint256",
          "name": "tokenId",
          "type": "uint256"
        }
      ],
      "name": "ownerOf",
      "outputs": [
        {
          "internalType": "address",
          "name": "",
          "type": "address"
        }
      ],
      "stateMutability": "view",
      "type": "function",
      "constant": true
    },
    {
      "inputs": [],
      "name": "renounceOwnership",
      "outputs": [],
      "stateMutability": "nonpayable",
      "type": "function"
    },
    {
      "inputs": [
        {
          "internalType": "address",
          "name": "from",
          "type": "address"
        },
        {
          "internalType": "address",
          "name": "to",
          "type": "address"
        },
        {
          "internalType": "uint256",
          "name": "tokenId",
          "type": "uint256"
        }
      ],
      "name": "safeTransferFrom",
      "outputs": [],
      "stateMutability": "nonpayable",
      "type": "function"
    },
    {
      "inputs": [
        {
          "internalType": "address",
          "name": "from",
          "type": "address"
        },
        {
          "internalType": "address",
          "name": "to",
          "type": "address"
        },
        {
          "internalType": "uint256",
          "name": "tokenId",
          "type": "uint256"
        },
        {
          "internalType": "bytes",
          "name": "_data",
          "type": "bytes"
        }
      ],
      "name": "safeTransferFrom",
      "outputs": [],
      "stateMutability": "nonpayable",
      "type": "function"
    },
    {
      "inputs": [
        {
          "internalType": "address",
          "name": "operator",
          "type": "address"
        },
        {
          "internalType": "bool",
          "name": "approved",
          "type": "bool"
        }
      ],
      "name": "setApprovalForAll",
      "outputs": [],
      "stateMutability": "nonpayable",
      "type": "function"
    },
    {
      "inputs": [],
      "name": "symbol",
      "outputs": [
        {
          "internalType": "string",
          "name": "",
          "type": "string"
        }
      ],
      "stateMutability": "view",
      "type": "function",
      "constant": true
    },
    {
      "inputs": [
        {
          "internalType": "address",
          "name": "from",
          "type": "address"
        },
        {
          "internalType": "address",
          "name": "to",
          "type": "address"
        },
        {
          "internalType": "uint256",
          "name": "tokenId",
          "type": "uint256"
        }
      ],
      "name": "transferFrom",
      "outputs": [],
      "stateMutability": "nonpayable",
      "type": "function"
    },
    {
      "inputs": [
        {
          "internalType": "address",
          "name": "newOwner",
          "type": "address"
        }
      ],
      "name": "transferOwnership",
      "outputs": [],
      "stateMutability": "nonpayable",
      "type": "function"
    },
    {
      "inputs": [],
      "name": "withdraw",
      "outputs": [],
      "stateMutability": "nonpayable",
      "type": "function"
    },
    {
      "inputs": [
        {
          "internalType": "string",
          "name": "base",
          "type": "string"
        }
      ],
      "name": "setBaseURI",
      "outputs": [],
      "stateMutability": "nonpayable",
      "type": "function"
    },
    {
      "inputs": [
        {
          "internalType": "uint256",
          "name": "numberOfTokens",
          "type": "uint256"
        }
      ],
      "name": "mint",
      "outputs": [],
      "stateMutability": "payable",
      "type": "function",
      "payable": true
    },
    {
      "inputs": [
        {
          "internalType": "uint256",
          "name": "tokenId",
          "type": "uint256"
        }
      ],
      "name": "tokenURI",
      "outputs": [
        {
          "internalType": "string",
          "name": "",
          "type": "string"
        }
      ],
      "stateMutability": "view",
      "type": "function",
      "constant": true
    },
    {
      "inputs": [
        {
          "internalType": "bytes4",
          "name": "interfaceId",
          "type": "bytes4"
        }
      ],
      "name": "supportsInterface",
      "outputs": [
        {
          "internalType": "bool",
          "name": "",
          "type": "bool"
        }
      ],
      "stateMutability": "view",
      "type": "function",
      "constant": true
    }
  ],
  "bytecode": "0x6080604052612710600860006101000a81548161ffff021916908361ffff1602179055506000600860026101000a81548161ffff021916908361ffff1602179055503480156200004e57600080fd5b506040518060400160405280600981526020017f5965746950756e6b7300000000000000000000000000000000000000000000008152506040518060400160405280600481526020017f59455449000000000000000000000000000000000000000000000000000000008152508160009080519060200190620000d3929190620001e3565b508060019080519060200190620000ec929190620001e3565b5050506200010f620001036200011560201b60201c565b6200011d60201b60201c565b620002f8565b600033905090565b6000600660009054906101000a900473ffffffffffffffffffffffffffffffffffffffff16905081600660006101000a81548173ffffffffffffffffffffffffffffffffffffffff021916908373ffffffffffffffffffffffffffffffffffffffff1602179055508173ffffffffffffffffffffffffffffffffffffffff168173ffffffffffffffffffffffffffffffffffffffff167f8be0079c531659141344cd1fd0a4f28419497f9722a3daafe3b4186f6b6457e060405160405180910390a35050565b828054620001f190620002c2565b90600052602060002090601f01602090048101928262000215576000855562000261565b82601f106200023057805160ff191683800117855562000261565b8280016001018555821562000261579182015b828111156200026057825182559160200191906001019062000243565b5b50905062000270919062000274565b5090565b5b808211156200028f57600081600090555060010162000275565b5090565b7f4e487b7100000000000000000000000000000000000000000000000000000000600052602260045260246000fd5b60006002820490506001821680620002db57607f821691505b60208210811415620002f257620002f162000293565b5b50919050565b61324380620003086000396000f3fe60806040526004361061011f5760003560e01c806370a08231116100a0578063a22cb46511610064578063a22cb465146103b2578063b88d4fde146103db578063c87b56dd14610404578063e985e9c514610441578063f2fde38b1461047e5761011f565b806370a08231146102ec578063715018a6146103295780638da5cb5b1461034057806395d89b411461036b578063a0712d68146103965761011f565b80633ccfd60b116100e75780633ccfd60b1461021b57806342842e0e1461023257806355f804b31461025b5780636352211e146102845780636c0360eb146102c15761011f565b806301ffc9a71461012457806306fdde0314610161578063081812fc1461018c578063095ea7b3146101c957806323b872dd146101f2575b600080fd5b34801561013057600080fd5b5061014b60048036038101906101469190611f06565b6104a7565b6040516101589190611f4e565b60405180910390f35b34801561016d57600080fd5b506101766104b9565b6040516101839190612002565b60405180910390f35b34801561019857600080fd5b506101b360048036038101906101ae919061205a565b61054b565b6040516101c091906120c8565b60405180910390f35b3480156101d557600080fd5b506101f060048036038101906101eb919061210f565b6105d0565b005b3480156101fe57600080fd5b506102196004803603810190610214919061214f565b6106e8565b005b34801561022757600080fd5b50610230610748565b005b34801561023e57600080fd5b506102596004803603810190610254919061214f565b610813565b005b34801561026757600080fd5b50610282600480360381019061027d91906122d7565b610833565b005b34801561029057600080fd5b506102ab60048036038101906102a6919061205a565b6108c9565b6040516102b891906120c8565b60405180910390f35b3480156102cd57600080fd5b506102d661097b565b6040516102e39190612002565b60405180910390f35b3480156102f857600080fd5b50610313600480360381019061030e9190612320565b610a09565b604051610320919061235c565b60405180910390f35b34801561033557600080fd5b5061033e610ac1565b005b34801561034c57600080fd5b50610355610b49565b60405161036291906120c8565b60405180910390f35b34801561037757600080fd5b50610380610b73565b60405161038d9190612002565b60405180910390f35b6103b060048036038101906103ab919061205a565b610c05565b005b3480156103be57600080fd5b506103d960048036038101906103d491906123a3565b610d01565b005b3480156103e757600080fd5b5061040260048036038101906103fd9190612484565b610e82565b005b34801561041057600080fd5b5061042b6004803603810190610426919061205a565b610ee4565b6040516104389190612002565b60405180910390f35b34801561044d57600080fd5b5061046860048036038101906104639190612507565b610ef6565b6040516104759190611f4e565b60405180910390f35b34801561048a57600080fd5b506104a560048036038101906104a09190612320565b610f8a565b005b60006104b282611082565b9050919050565b6060600080546104c890612576565b80601f01602080910402602001604051908101604052809291908181526020018280546104f490612576565b80156105415780601f1061051657610100808354040283529160200191610541565b820191906000526020600020905b81548152906001019060200180831161052457829003601f168201915b5050505050905090565b600061055682611164565b610595576040517f08c379a000000000000000000000000000000000000000000000000000000000815260040161058c9061261a565b60405180910390fd5b6004600083815260200190815260200160002060009054906101000a900473ffffffffffffffffffffffffffffffffffffffff169050919050565b60006105db826108c9565b90508073ffffffffffffffffffffffffffffffffffffffff168373ffffffffffffffffffffffffffffffffffffffff16141561064c576040517f08c379a0000000000000000000000000000000000000000000000000000000008152600401610643906126ac565b60405180910390fd5b8073ffffffffffffffffffffffffffffffffffffffff1661066b6111d0565b73ffffffffffffffffffffffffffffffffffffffff16148061069a5750610699816106946111d0565b610ef6565b5b6106d9576040517f08c379a00000000000000000000000000000000000000000000000000000000081526004016106d09061273e565b60405180910390fd5b6106e383836111d8565b505050565b6106f96106f36111d0565b82611291565b610738576040517f08c379a000000000000000000000000000000000000000000000000000000000815260040161072f906127d0565b60405180910390fd5b61074383838361136f565b505050565b6107506111d0565b73ffffffffffffffffffffffffffffffffffffffff1661076e610b49565b73ffffffffffffffffffffffffffffffffffffffff16146107c4576040517f08c379a00000000000000000000000000000000000000000000000000000000081526004016107bb9061283c565b60405180910390fd5b60004790503373ffffffffffffffffffffffffffffffffffffffff166108fc829081150290604051600060405180830381858888f1935050505015801561080f573d6000803e3d6000fd5b5050565b61082e83838360405180602001604052806000815250610e82565b505050565b61083b6111d0565b73ffffffffffffffffffffffffffffffffffffffff16610859610b49565b73ffffffffffffffffffffffffffffffffffffffff16146108af576040517f08c379a00000000000000000000000000000000000000000000000000000000081526004016108a69061283c565b60405180910390fd5b80600790805190602001906108c5929190611df7565b5050565b6000806002600084815260200190815260200160002060009054906101000a900473ffffffffffffffffffffffffffffffffffffffff169050600073ffffffffffffffffffffffffffffffffffffffff168173ffffffffffffffffffffffffffffffffffffffff161415610972576040517f08c379a0000000000000000000000000000000000000000000000000000000008152600401610969906128ce565b60405180910390fd5b80915050919050565b6007805461098890612576565b80601f01602080910402602001604051908101604052809291908181526020018280546109b490612576565b8015610a015780601f106109d657610100808354040283529160200191610a01565b820191906000526020600020905b8154815290600101906020018083116109e457829003601f168201915b505050505081565b60008073ffffffffffffffffffffffffffffffffffffffff168273ffffffffffffffffffffffffffffffffffffffff161415610a7a576040517f08c379a0000000000000000000000000000000000000000000000000000000008152600401610a7190612960565b60405180910390fd5b600360008373ffffffffffffffffffffffffffffffffffffffff1673ffffffffffffffffffffffffffffffffffffffff168152602001908152602001600020549050919050565b610ac96111d0565b73ffffffffffffffffffffffffffffffffffffffff16610ae7610b49565b73ffffffffffffffffffffffffffffffffffffffff1614610b3d576040517f08c379a0000000000000000000000000000000000000000000000000000000008152600401610b349061283c565b60405180910390fd5b610b4760006115cb565b565b6000600660009054906101000a900473ffffffffffffffffffffffffffffffffffffffff16905090565b606060018054610b8290612576565b80601f0160208091040260200160405190810160405280929190818152602001828054610bae90612576565b8015610bfb5780601f10610bd057610100808354040283529160200191610bfb565b820191906000526020600020905b815481529060010190602001808311610bde57829003601f168201915b5050505050905090565b600860009054906101000a900461ffff1661ffff166001600860029054906101000a900461ffff16610c3791906129bd565b61ffff1610610c7b576040517f08c379a0000000000000000000000000000000000000000000000000000000008152600401610c7290612a67565b60405180910390fd5b60005b81811015610cfd57610cb0336001600860029054906101000a900461ffff16610ca791906129bd565b61ffff16611691565b6001600860028282829054906101000a900461ffff16610cd091906129bd565b92506101000a81548161ffff021916908361ffff1602179055508080610cf590612a87565b915050610c7e565b5050565b610d096111d0565b73ffffffffffffffffffffffffffffffffffffffff168273ffffffffffffffffffffffffffffffffffffffff161415610d77576040517f08c379a0000000000000000000000000000000000000000000000000000000008152600401610d6e90612b1c565b60405180910390fd5b8060056000610d846111d0565b73ffffffffffffffffffffffffffffffffffffffff1673ffffffffffffffffffffffffffffffffffffffff16815260200190815260200160002060008473ffffffffffffffffffffffffffffffffffffffff1673ffffffffffffffffffffffffffffffffffffffff16815260200190815260200160002060006101000a81548160ff0219169083151502179055508173ffffffffffffffffffffffffffffffffffffffff16610e316111d0565b73ffffffffffffffffffffffffffffffffffffffff167f17307eab39ab6107e8899845ad3d59bd9653f200f220920489ca2b5937696c3183604051610e769190611f4e565b60405180910390a35050565b610e93610e8d6111d0565b83611291565b610ed2576040517f08c379a0000000000000000000000000000000000000000000000000000000008152600401610ec9906127d0565b60405180910390fd5b610ede848484846116af565b50505050565b6060610eef8261170b565b9050919050565b6000600560008473ffffffffffffffffffffffffffffffffffffffff1673ffffffffffffffffffffffffffffffffffffffff16815260200190815260200160002060008373ffffffffffffffffffffffffffffffffffffffff1673ffffffffffffffffffffffffffffffffffffffff16815260200190815260200160002060009054906101000a900460ff16905092915050565b610f926111d0565b73ffffffffffffffffffffffffffffffffffffffff16610fb0610b49565b73ffffffffffffffffffffffffffffffffffffffff1614611006576040517f08c379a0000000000000000000000000000000000000000000000000000000008152600401610ffd9061283c565b60405180910390fd5b600073ffffffffffffffffffffffffffffffffffffffff168173ffffffffffffffffffffffffffffffffffffffff161415611076576040517f08c379a000000000000000000000000000000000000000000000000000000000815260040161106d90612bae565b60405180910390fd5b61107f816115cb565b50565b60007f80ac58cd000000000000000000000000000000000000000000000000000000007bffffffffffffffffffffffffffffffffffffffffffffffffffffffff1916827bffffffffffffffffffffffffffffffffffffffffffffffffffffffff1916148061114d57507f5b5e139f000000000000000000000000000000000000000000000000000000007bffffffffffffffffffffffffffffffffffffffffffffffffffffffff1916827bffffffffffffffffffffffffffffffffffffffffffffffffffffffff1916145b8061115d575061115c826117b2565b5b9050919050565b60008073ffffffffffffffffffffffffffffffffffffffff166002600084815260200190815260200160002060009054906101000a900473ffffffffffffffffffffffffffffffffffffffff1673ffffffffffffffffffffffffffffffffffffffff1614159050919050565b600033905090565b816004600083815260200190815260200160002060006101000a81548173ffffffffffffffffffffffffffffffffffffffff021916908373ffffffffffffffffffffffffffffffffffffffff160217905550808273ffffffffffffffffffffffffffffffffffffffff1661124b836108c9565b73ffffffffffffffffffffffffffffffffffffffff167f8c5be1e5ebec7d5bd14f71427d1e84f3dd0314c0f7b2291e5b200ac8c7c3b92560405160405180910390a45050565b600061129c82611164565b6112db576040517f08c379a00000000000000000000000000000000000000000000000000000000081526004016112d290612c40565b60405180910390fd5b60006112e6836108c9565b90508073ffffffffffffffffffffffffffffffffffffffff168473ffffffffffffffffffffffffffffffffffffffff16148061135557508373ffffffffffffffffffffffffffffffffffffffff1661133d8461054b565b73ffffffffffffffffffffffffffffffffffffffff16145b8061136657506113658185610ef6565b5b91505092915050565b8273ffffffffffffffffffffffffffffffffffffffff1661138f826108c9565b73ffffffffffffffffffffffffffffffffffffffff16146113e5576040517f08c379a00000000000000000000000000000000000000000000000000000000081526004016113dc90612cd2565b60405180910390fd5b600073ffffffffffffffffffffffffffffffffffffffff168273ffffffffffffffffffffffffffffffffffffffff161415611455576040517f08c379a000000000000000000000000000000000000000000000000000000000815260040161144c90612d64565b60405180910390fd5b61146083838361181c565b61146b6000826111d8565b6001600360008573ffffffffffffffffffffffffffffffffffffffff1673ffffffffffffffffffffffffffffffffffffffff16815260200190815260200160002060008282546114bb9190612d84565b925050819055506001600360008473ffffffffffffffffffffffffffffffffffffffff1673ffffffffffffffffffffffffffffffffffffffff16815260200190815260200160002060008282546115129190612db8565b92505081905550816002600083815260200190815260200160002060006101000a81548173ffffffffffffffffffffffffffffffffffffffff021916908373ffffffffffffffffffffffffffffffffffffffff160217905550808273ffffffffffffffffffffffffffffffffffffffff168473ffffffffffffffffffffffffffffffffffffffff167fddf252ad1be2c89b69c2b068fc378daa952ba7f163c4a11628f55a4df523b3ef60405160405180910390a4505050565b6000600660009054906101000a900473ffffffffffffffffffffffffffffffffffffffff16905081600660006101000a81548173ffffffffffffffffffffffffffffffffffffffff021916908373ffffffffffffffffffffffffffffffffffffffff1602179055508173ffffffffffffffffffffffffffffffffffffffff168173ffffffffffffffffffffffffffffffffffffffff167f8be0079c531659141344cd1fd0a4f28419497f9722a3daafe3b4186f6b6457e060405160405180910390a35050565b6116ab82826040518060200160405280600081525061182c565b5050565b6116ba84848461136f565b6116c684848484611887565b611705576040517f08c379a00000000000000000000000000000000000000000000000000000000081526004016116fc90612e80565b60405180910390fd5b50505050565b606061171682611164565b611755576040517f08c379a000000000000000000000000000000000000000000000000000000000815260040161174c90612f12565b60405180910390fd5b600061175f611a1e565b9050600081511161177f57604051806020016040528060008152506117aa565b8061178984611ab0565b60405160200161179a929190612f6e565b6040516020818303038152906040525b915050919050565b60007f01ffc9a7000000000000000000000000000000000000000000000000000000007bffffffffffffffffffffffffffffffffffffffffffffffffffffffff1916827bffffffffffffffffffffffffffffffffffffffffffffffffffffffff1916149050919050565b611827838383611c11565b505050565b6118368383611c16565b6118436000848484611887565b611882576040517f08c379a000000000000000000000000000000000000000000000000000000000815260040161187990612e80565b60405180910390fd5b505050565b60006118a88473ffffffffffffffffffffffffffffffffffffffff16611de4565b15611a11578373ffffffffffffffffffffffffffffffffffffffff1663150b7a026118d16111d0565b8786866040518563ffffffff1660e01b81526004016118f39493929190612fe7565b602060405180830381600087803b15801561190d57600080fd5b505af192505050801561193e57506040513d601f19601f8201168201806040525081019061193b9190613048565b60015b6119c1573d806000811461196e576040519150601f19603f3d011682016040523d82523d6000602084013e611973565b606091505b506000815114156119b9576040517f08c379a00000000000000000000000000000000000000000000000000000000081526004016119b090612e80565b60405180910390fd5b805181602001fd5b63150b7a0260e01b7bffffffffffffffffffffffffffffffffffffffffffffffffffffffff1916817bffffffffffffffffffffffffffffffffffffffffffffffffffffffff191614915050611a16565b600190505b949350505050565b606060078054611a2d90612576565b80601f0160208091040260200160405190810160405280929190818152602001828054611a5990612576565b8015611aa65780601f10611a7b57610100808354040283529160200191611aa6565b820191906000526020600020905b815481529060010190602001808311611a8957829003601f168201915b5050505050905090565b60606000821415611af8576040518060400160405280600181526020017f30000000000000000000000000000000000000000000000000000000000000008152509050611c0c565b600082905060005b60008214611b2a578080611b1390612a87565b915050600a82611b2391906130a4565b9150611b00565b60008167ffffffffffffffff811115611b4657611b456121ac565b5b6040519080825280601f01601f191660200182016040528015611b785781602001600182028036833780820191505090505b5090505b60008514611c0557600182611b919190612d84565b9150600a85611ba091906130d5565b6030611bac9190612db8565b60f81b818381518110611bc257611bc1613106565b5b60200101907effffffffffffffffffffffffffffffffffffffffffffffffffffffffffffff1916908160001a905350600a85611bfe91906130a4565b9450611b7c565b8093505050505b919050565b505050565b600073ffffffffffffffffffffffffffffffffffffffff168273ffffffffffffffffffffffffffffffffffffffff161415611c86576040517f08c379a0000000000000000000000000000000000000000000000000000000008152600401611c7d90613181565b60405180910390fd5b611c8f81611164565b15611ccf576040517f08c379a0000000000000000000000000000000000000000000000000000000008152600401611cc6906131ed565b60405180910390fd5b611cdb6000838361181c565b6001600360008473ffffffffffffffffffffffffffffffffffffffff1673ffffffffffffffffffffffffffffffffffffffff1681526020019081526020016000206000828254611d2b9190612db8565b92505081905550816002600083815260200190815260200160002060006101000a81548173ffffffffffffffffffffffffffffffffffffffff021916908373ffffffffffffffffffffffffffffffffffffffff160217905550808273ffffffffffffffffffffffffffffffffffffffff16600073ffffffffffffffffffffffffffffffffffffffff167fddf252ad1be2c89b69c2b068fc378daa952ba7f163c4a11628f55a4df523b3ef60405160405180910390a45050565b600080823b905060008111915050919050565b828054611e0390612576565b90600052602060002090601f016020900481019282611e255760008555611e6c565b82601f10611e3e57805160ff1916838001178555611e6c565b82800160010185558215611e6c579182015b82811115611e6b578251825591602001919060010190611e50565b5b509050611e799190611e7d565b5090565b5b80821115611e96576000816000905550600101611e7e565b5090565b6000604051905090565b600080fd5b600080fd5b60007fffffffff0000000000000000000000000000000000000000000000000000000082169050919050565b611ee381611eae565b8114611eee57600080fd5b50565b600081359050611f0081611eda565b92915050565b600060208284031215611f1c57611f1b611ea4565b5b6000611f2a84828501611ef1565b91505092915050565b60008115159050919050565b611f4881611f33565b82525050565b6000602082019050611f636000830184611f3f565b92915050565b600081519050919050565b600082825260208201905092915050565b60005b83811015611fa3578082015181840152602081019050611f88565b83811115611fb2576000848401525b50505050565b6000601f19601f8301169050919050565b6000611fd482611f69565b611fde8185611f74565b9350611fee818560208601611f85565b611ff781611fb8565b840191505092915050565b6000602082019050818103600083015261201c8184611fc9565b905092915050565b6000819050919050565b61203781612024565b811461204257600080fd5b50565b6000813590506120548161202e565b92915050565b6000602082840312156120705761206f611ea4565b5b600061207e84828501612045565b91505092915050565b600073ffffffffffffffffffffffffffffffffffffffff82169050919050565b60006120b282612087565b9050919050565b6120c2816120a7565b82525050565b60006020820190506120dd60008301846120b9565b92915050565b6120ec816120a7565b81146120f757600080fd5b50565b600081359050612109816120e3565b92915050565b6000806040838503121561212657612125611ea4565b5b6000612134858286016120fa565b925050602061214585828601612045565b9150509250929050565b60008060006060848603121561216857612167611ea4565b5b6000612176868287016120fa565b9350506020612187868287016120fa565b925050604061219886828701612045565b9150509250925092565b600080fd5b600080fd5b7f4e487b7100000000000000000000000000000000000000000000000000000000600052604160045260246000fd5b6121e482611fb8565b810181811067ffffffffffffffff82111715612203576122026121ac565b5b80604052505050565b6000612216611e9a565b905061222282826121db565b919050565b600067ffffffffffffffff821115612242576122416121ac565b5b61224b82611fb8565b9050602081019050919050565b82818337600083830152505050565b600061227a61227584612227565b61220c565b905082815260208101848484011115612296576122956121a7565b5b6122a1848285612258565b509392505050565b600082601f8301126122be576122bd6121a2565b5b81356122ce848260208601612267565b91505092915050565b6000602082840312156122ed576122ec611ea4565b5b600082013567ffffffffffffffff81111561230b5761230a611ea9565b5b612317848285016122a9565b91505092915050565b60006020828403121561233657612335611ea4565b5b6000612344848285016120fa565b91505092915050565b61235681612024565b82525050565b6000602082019050612371600083018461234d565b92915050565b61238081611f33565b811461238b57600080fd5b50565b60008135905061239d81612377565b92915050565b600080604083850312156123ba576123b9611ea4565b5b60006123c8858286016120fa565b92505060206123d98582860161238e565b9150509250929050565b600067ffffffffffffffff8211156123fe576123fd6121ac565b5b61240782611fb8565b9050602081019050919050565b6000612427612422846123e3565b61220c565b905082815260208101848484011115612443576124426121a7565b5b61244e848285612258565b509392505050565b600082601f83011261246b5761246a6121a2565b5b813561247b848260208601612414565b91505092915050565b6000806000806080858703121561249e5761249d611ea4565b5b60006124ac878288016120fa565b94505060206124bd878288016120fa565b93505060406124ce87828801612045565b925050606085013567ffffffffffffffff8111156124ef576124ee611ea9565b5b6124fb87828801612456565b91505092959194509250565b6000806040838503121561251e5761251d611ea4565b5b600061252c858286016120fa565b925050602061253d858286016120fa565b9150509250929050565b7f4e487b7100000000000000000000000000000000000000000000000000000000600052602260045260246000fd5b6000600282049050600182168061258e57607f821691505b602082108114156125a2576125a1612547565b5b50919050565b7f4552433732313a20617070726f76656420717565727920666f72206e6f6e657860008201527f697374656e7420746f6b656e0000000000000000000000000000000000000000602082015250565b6000612604602c83611f74565b915061260f826125a8565b604082019050919050565b60006020820190508181036000830152612633816125f7565b9050919050565b7f4552433732313a20617070726f76616c20746f2063757272656e74206f776e6560008201527f7200000000000000000000000000000000000000000000000000000000000000602082015250565b6000612696602183611f74565b91506126a18261263a565b604082019050919050565b600060208201905081810360008301526126c581612689565b9050919050565b7f4552433732313a20617070726f76652063616c6c6572206973206e6f74206f7760008201527f6e6572206e6f7220617070726f76656420666f7220616c6c0000000000000000602082015250565b6000612728603883611f74565b9150612733826126cc565b604082019050919050565b600060208201905081810360008301526127578161271b565b9050919050565b7f4552433732313a207472616e736665722063616c6c6572206973206e6f74206f60008201527f776e6572206e6f7220617070726f766564000000000000000000000000000000602082015250565b60006127ba603183611f74565b91506127c58261275e565b604082019050919050565b600060208201905081810360008301526127e9816127ad565b9050919050565b7f4f776e61626c653a2063616c6c6572206973206e6f7420746865206f776e6572600082015250565b6000612826602083611f74565b9150612831826127f0565b602082019050919050565b6000602082019050818103600083015261285581612819565b9050919050565b7f4552433732313a206f776e657220717565727920666f72206e6f6e657869737460008201527f656e7420746f6b656e0000000000000000000000000000000000000000000000602082015250565b60006128b8602983611f74565b91506128c38261285c565b604082019050919050565b600060208201905081810360008301526128e7816128ab565b9050919050565b7f4552433732313a2062616c616e636520717565727920666f7220746865207a6560008201527f726f206164647265737300000000000000000000000000000000000000000000602082015250565b600061294a602a83611f74565b9150612955826128ee565b604082019050919050565b600060208201905081810360008301526129798161293d565b9050919050565b600061ffff82169050919050565b7f4e487b7100000000000000000000000000000000000000000000000000000000600052601160045260246000fd5b60006129c882612980565b91506129d383612980565b92508261ffff038211156129ea576129e961298e565b5b828201905092915050565b7f416c6c20796574692070756e6b73206861766520616c7265616479206265656e60008201527f206d696e74656421000000000000000000000000000000000000000000000000602082015250565b6000612a51602883611f74565b9150612a5c826129f5565b604082019050919050565b60006020820190508181036000830152612a8081612a44565b9050919050565b6000612a9282612024565b91507fffffffffffffffffffffffffffffffffffffffffffffffffffffffffffffffff821415612ac557612ac461298e565b5b600182019050919050565b7f4552433732313a20617070726f766520746f2063616c6c657200000000000000600082015250565b6000612b06601983611f74565b9150612b1182612ad0565b602082019050919050565b60006020820190508181036000830152612b3581612af9565b9050919050565b7f4f776e61626c653a206e6577206f776e657220697320746865207a65726f206160008201527f6464726573730000000000000000000000000000000000000000000000000000602082015250565b6000612b98602683611f74565b9150612ba382612b3c565b604082019050919050565b60006020820190508181036000830152612bc781612b8b565b9050919050565b7f4552433732313a206f70657261746f7220717565727920666f72206e6f6e657860008201527f697374656e7420746f6b656e0000000000000000000000000000000000000000602082015250565b6000612c2a602c83611f74565b9150612c3582612bce565b604082019050919050565b60006020820190508181036000830152612c5981612c1d565b9050919050565b7f4552433732313a207472616e73666572206f6620746f6b656e2074686174206960008201527f73206e6f74206f776e0000000000000000000000000000000000000000000000602082015250565b6000612cbc602983611f74565b9150612cc782612c60565b604082019050919050565b60006020820190508181036000830152612ceb81612caf565b9050919050565b7f4552433732313a207472616e7366657220746f20746865207a65726f2061646460008201527f7265737300000000000000000000000000000000000000000000000000000000602082015250565b6000612d4e602483611f74565b9150612d5982612cf2565b604082019050919050565b60006020820190508181036000830152612d7d81612d41565b9050919050565b6000612d8f82612024565b9150612d9a83612024565b925082821015612dad57612dac61298e565b5b828203905092915050565b6000612dc382612024565b9150612dce83612024565b9250827fffffffffffffffffffffffffffffffffffffffffffffffffffffffffffffffff03821115612e0357612e0261298e565b5b828201905092915050565b7f4552433732313a207472616e7366657220746f206e6f6e20455243373231526560008201527f63656976657220696d706c656d656e7465720000000000000000000000000000602082015250565b6000612e6a603283611f74565b9150612e7582612e0e565b604082019050919050565b60006020820190508181036000830152612e9981612e5d565b9050919050565b7f4552433732314d657461646174613a2055524920717565727920666f72206e6f60008201527f6e6578697374656e7420746f6b656e0000000000000000000000000000000000602082015250565b6000612efc602f83611f74565b9150612f0782612ea0565b604082019050919050565b60006020820190508181036000830152612f2b81612eef565b9050919050565b600081905092915050565b6000612f4882611f69565b612f528185612f32565b9350612f62818560208601611f85565b80840191505092915050565b6000612f7a8285612f3d565b9150612f868284612f3d565b91508190509392505050565b600081519050919050565b600082825260208201905092915050565b6000612fb982612f92565b612fc38185612f9d565b9350612fd3818560208601611f85565b612fdc81611fb8565b840191505092915050565b6000608082019050612ffc60008301876120b9565b61300960208301866120b9565b613016604083018561234d565b81810360608301526130288184612fae565b905095945050505050565b60008151905061304281611eda565b92915050565b60006020828403121561305e5761305d611ea4565b5b600061306c84828501613033565b91505092915050565b7f4e487b7100000000000000000000000000000000000000000000000000000000600052601260045260246000fd5b60006130af82612024565b91506130ba83612024565b9250826130ca576130c9613075565b5b828204905092915050565b60006130e082612024565b91506130eb83612024565b9250826130fb576130fa613075565b5b828206905092915050565b7f4e487b7100000000000000000000000000000000000000000000000000000000600052603260045260246000fd5b7f4552433732313a206d696e7420746f20746865207a65726f2061646472657373600082015250565b600061316b602083611f74565b915061317682613135565b602082019050919050565b6000602082019050818103600083015261319a8161315e565b9050919050565b7f4552433732313a20746f6b656e20616c7265616479206d696e74656400000000600082015250565b60006131d7601c83611f74565b91506131e2826131a1565b602082019050919050565b60006020820190508181036000830152613206816131ca565b905091905056fea264697066735822122043ec9611016a48486da73239041f21a8a41e00a70e56558d42d369061a33212464736f6c63430008090033",
  "immutableReferences": {},
  "source": "// SPDX-License-Identifier: MIT\npragma solidity ^0.8.9;\n\nimport \"@openzeppelin/contracts/token/ERC721/ERC721.sol\";\nimport \"@openzeppelin/contracts/access/Ownable.sol\";\n\ncontract YetiPunks is ERC721, Ownable {\n    \n    string public baseURI;\n    \n    uint16 MAX_YETIS = 10000;\n    uint16 totalSupply = 0;\n\n    constructor() ERC721(\"YetiPunks\", \"YETI\") {\n     \n    }\n\n    function withdraw() public onlyOwner {\n        uint256 balance = address(this).balance;\n        payable(msg.sender).transfer(balance);\n    }\n\n    function setBaseURI(string memory base) public onlyOwner {\n        baseURI = base;\n    }\n\n    function _baseURI() internal view virtual override returns (string memory) {\n        return baseURI;\n    }\n\n    // Despite the function being payable, I've removed any functionality for that here for the simplicity of the example.\n    function mint(uint256 numberOfTokens) public payable {\n        require(totalSupply + 1 < MAX_YETIS, \"All yeti punks have already been minted!\");\n        \n        for (uint i = 0; i < numberOfTokens; i++) {\n            _safeMint(msg.sender, totalSupply + 1);\n            totalSupply += 1;\n        }\n    }\n\n    function tokenURI(uint256 tokenId) public view virtual override(ERC721) returns (string memory) {\n        return super.tokenURI(tokenId);\n    }\n\n    function _beforeTokenTransfer(address from, address to, uint256 tokenId) internal override(ERC721) {\n        super._beforeTokenTransfer(from, to, tokenId);\n    }\n\n    function _burn(uint256 tokenId) internal override(ERC721) {\n        super._burn(tokenId);\n    }\n\n    function supportsInterface(bytes4 interfaceId) public view override(ERC721) returns (bool) {\n        return super.supportsInterface(interfaceId);\n    }\n}",
  "sourcePath": "/Users/christopherfoley/nft/YetiPunks/src/contracts/YetiPunks.sol",
  "compiler": {
    "name": "solc",
    "version": "0.8.9+commit.e5eed63a.Emscripten.clang"
  },
  "schemaVersion": "3.4.4",
  "updatedAt": "2022-01-05T05:22:00.491Z",
  "networkType": "ethereum",
  "devdoc": {
    "kind": "dev",
    "methods": {
      "approve(address,uint256)": {
        "details": "See {IERC721-approve}."
      },
      "balanceOf(address)": {
        "details": "See {IERC721-balanceOf}."
      },
      "getApproved(uint256)": {
        "details": "See {IERC721-getApproved}."
      },
      "isApprovedForAll(address,address)": {
        "details": "See {IERC721-isApprovedForAll}."
      },
      "name()": {
        "details": "See {IERC721Metadata-name}."
      },
      "owner()": {
        "details": "Returns the address of the current owner."
      },
      "ownerOf(uint256)": {
        "details": "See {IERC721-ownerOf}."
      },
      "renounceOwnership()": {
        "details": "Leaves the contract without owner. It will not be possible to call `onlyOwner` functions anymore. Can only be called by the current owner. NOTE: Renouncing ownership will leave the contract without an owner, thereby removing any functionality that is only available to the owner."
      },
      "safeTransferFrom(address,address,uint256)": {
        "details": "See {IERC721-safeTransferFrom}."
      },
      "safeTransferFrom(address,address,uint256,bytes)": {
        "details": "See {IERC721-safeTransferFrom}."
      },
      "setApprovalForAll(address,bool)": {
        "details": "See {IERC721-setApprovalForAll}."
      },
      "supportsInterface(bytes4)": {
        "details": "See {IERC165-supportsInterface}."
      },
      "symbol()": {
        "details": "See {IERC721Metadata-symbol}."
      },
      "tokenURI(uint256)": {
        "details": "See {IERC721Metadata-tokenURI}."
      },
      "transferFrom(address,address,uint256)": {
        "details": "See {IERC721-transferFrom}."
      },
      "transferOwnership(address)": {
        "details": "Transfers ownership of the contract to a new account (`newOwner`). Can only be called by the current owner."
      }
    },
    "version": 1
  },
  "userdoc": {
    "kind": "user",
    "methods": {},
    "version": 1
  }
}