{
  "contractName": "YetiPunks",
  "abi": [
    {
      "inputs": [
        {
          "internalType": "uint256",
          "name": "maxBatchSize_",
          "type": "uint256"
        },
        {
          "internalType": "uint256",
          "name": "collectionSize_",
          "type": "uint256"
        },
        {
          "internalType": "uint256",
          "name": "amountForGiveaway_",
          "type": "uint256"
        },
        {
          "internalType": "uint256",
          "name": "amountForDevs_",
          "type": "uint256"
        },
        {
          "internalType": "string",
          "name": "_initNotRevealedUri",
          "type": "string"
        }
      ],
      "stateMutability": "nonpayable",
      "type": "constructor"
    },
    {
      "anonymous": false,
      "inputs": [
        {
          "indexed": true,
          "internalType": "address",
          "name": "owner",
          "type": "address"
        },
        {
          "indexed": true,
          "internalType": "address",
          "name": "approved",
          "type": "address"
        },
        {
          "indexed": true,
          "internalType": "uint256",
          "name": "tokenId",
          "type": "uint256"
        }
      ],
      "name": "Approval",
      "type": "event"
    },
    {
      "anonymous": false,
      "inputs": [
        {
          "indexed": true,
          "internalType": "address",
          "name": "owner",
          "type": "address"
        },
        {
          "indexed": true,
          "internalType": "address",
          "name": "operator",
          "type": "address"
        },
        {
          "indexed": false,
          "internalType": "bool",
          "name": "approved",
          "type": "bool"
        }
      ],
      "name": "ApprovalForAll",
      "type": "event"
    },
    {
      "anonymous": false,
      "inputs": [
        {
          "indexed": true,
          "internalType": "address",
          "name": "previousOwner",
          "type": "address"
        },
        {
          "indexed": true,
          "internalType": "address",
          "name": "newOwner",
          "type": "address"
        }
      ],
      "name": "OwnershipTransferred",
      "type": "event"
    },
    {
      "anonymous": false,
      "inputs": [
        {
          "indexed": true,
          "internalType": "address",
          "name": "from",
          "type": "address"
        },
        {
          "indexed": true,
          "internalType": "address",
          "name": "to",
          "type": "address"
        },
        {
          "indexed": true,
          "internalType": "uint256",
          "name": "tokenId",
          "type": "uint256"
        }
      ],
      "name": "Transfer",
      "type": "event"
    },
    {
      "inputs": [
        {
          "internalType": "address",
          "name": "owner",
          "type": "address"
        }
      ],
      "name": "_numberMinted",
      "outputs": [
        {
          "internalType": "uint256",
          "name": "",
          "type": "uint256"
        }
      ],
      "stateMutability": "view",
      "type": "function",
      "constant": true
    },
    {
      "inputs": [
        {
          "internalType": "address",
          "name": "",
          "type": "address"
        }
      ],
      "name": "allowlist",
      "outputs": [
        {
          "internalType": "uint256",
          "name": "",
          "type": "uint256"
        }
      ],
      "stateMutability": "view",
      "type": "function",
      "constant": true
    },
    {
      "inputs": [],
      "name": "amountForDevs",
      "outputs": [
        {
          "internalType": "uint256",
          "name": "",
          "type": "uint256"
        }
      ],
      "stateMutability": "view",
      "type": "function",
      "constant": true
    },
    {
      "inputs": [],
      "name": "amountForGiveaway",
      "outputs": [
        {
          "internalType": "uint256",
          "name": "",
          "type": "uint256"
        }
      ],
      "stateMutability": "view",
      "type": "function",
      "constant": true
    },
    {
      "inputs": [
        {
          "internalType": "address",
          "name": "to",
          "type": "address"
        },
        {
          "internalType": "uint256",
          "name": "tokenId",
          "type": "uint256"
        }
      ],
      "name": "approve",
      "outputs": [],
      "stateMutability": "nonpayable",
      "type": "function"
    },
    {
      "inputs": [
        {
          "internalType": "address",
          "name": "owner",
          "type": "address"
        }
      ],
      "name": "balanceOf",
      "outputs": [
        {
          "internalType": "uint256",
          "name": "",
          "type": "uint256"
        }
      ],
      "stateMutability": "view",
      "type": "function",
      "constant": true
    },
    {
      "inputs": [
        {
          "internalType": "uint256",
          "name": "tokenId",
          "type": "uint256"
        }
      ],
      "name": "getApproved",
      "outputs": [
        {
          "internalType": "address",
          "name": "",
          "type": "address"
        }
      ],
      "stateMutability": "view",
      "type": "function",
      "constant": true
    },
    {
      "inputs": [
        {
          "internalType": "address",
          "name": "owner",
          "type": "address"
        },
        {
          "internalType": "address",
          "name": "operator",
          "type": "address"
        }
      ],
      "name": "isApprovedForAll",
      "outputs": [
        {
          "internalType": "bool",
          "name": "",
          "type": "bool"
        }
      ],
      "stateMutability": "view",
      "type": "function",
      "constant": true
    },
    {
      "inputs": [],
      "name": "maxPerAddressDuringPresale",
      "outputs": [
        {
          "internalType": "uint256",
          "name": "",
          "type": "uint256"
        }
      ],
      "stateMutability": "view",
      "type": "function",
      "constant": true
    },
    {
      "inputs": [],
      "name": "maxPerAddressDuringPublicSale",
      "outputs": [
        {
          "internalType": "uint256",
          "name": "",
          "type": "uint256"
        }
      ],
      "stateMutability": "view",
      "type": "function",
      "constant": true
    },
    {
      "inputs": [],
      "name": "name",
      "outputs": [
        {
          "internalType": "string",
          "name": "",
          "type": "string"
        }
      ],
      "stateMutability": "view",
      "type": "function",
      "constant": true
    },
    {
      "inputs": [],
      "name": "nextOwnerToExplicitlySet",
      "outputs": [
        {
          "internalType": "uint256",
          "name": "",
          "type": "uint256"
        }
      ],
      "stateMutability": "view",
      "type": "function",
      "constant": true
    },
    {
      "inputs": [],
      "name": "notRevealedUri",
      "outputs": [
        {
          "internalType": "string",
          "name": "",
          "type": "string"
        }
      ],
      "stateMutability": "view",
      "type": "function",
      "constant": true
    },
    {
      "inputs": [],
      "name": "owner",
      "outputs": [
        {
          "internalType": "address",
          "name": "",
          "type": "address"
        }
      ],
      "stateMutability": "view",
      "type": "function",
      "constant": true
    },
    {
      "inputs": [
        {
          "internalType": "uint256",
          "name": "tokenId",
          "type": "uint256"
        }
      ],
      "name": "ownerOf",
      "outputs": [
        {
          "internalType": "address",
          "name": "",
          "type": "address"
        }
      ],
      "stateMutability": "view",
      "type": "function",
      "constant": true
    },
    {
      "inputs": [],
      "name": "renounceOwnership",
      "outputs": [],
      "stateMutability": "nonpayable",
      "type": "function"
    },
    {
      "inputs": [
        {
          "internalType": "address",
          "name": "from",
          "type": "address"
        },
        {
          "internalType": "address",
          "name": "to",
          "type": "address"
        },
        {
          "internalType": "uint256",
          "name": "tokenId",
          "type": "uint256"
        }
      ],
      "name": "safeTransferFrom",
      "outputs": [],
      "stateMutability": "nonpayable",
      "type": "function"
    },
    {
      "inputs": [
        {
          "internalType": "address",
          "name": "from",
          "type": "address"
        },
        {
          "internalType": "address",
          "name": "to",
          "type": "address"
        },
        {
          "internalType": "uint256",
          "name": "tokenId",
          "type": "uint256"
        },
        {
          "internalType": "bytes",
          "name": "_data",
          "type": "bytes"
        }
      ],
      "name": "safeTransferFrom",
      "outputs": [],
      "stateMutability": "nonpayable",
      "type": "function"
    },
    {
      "inputs": [
        {
          "internalType": "address",
          "name": "operator",
          "type": "address"
        },
        {
          "internalType": "bool",
          "name": "approved",
          "type": "bool"
        }
      ],
      "name": "setApprovalForAll",
      "outputs": [],
      "stateMutability": "nonpayable",
      "type": "function"
    },
    {
      "inputs": [
        {
          "internalType": "bytes4",
          "name": "interfaceId",
          "type": "bytes4"
        }
      ],
      "name": "supportsInterface",
      "outputs": [
        {
          "internalType": "bool",
          "name": "",
          "type": "bool"
        }
      ],
      "stateMutability": "view",
      "type": "function",
      "constant": true
    },
    {
      "inputs": [],
      "name": "symbol",
      "outputs": [
        {
          "internalType": "string",
          "name": "",
          "type": "string"
        }
      ],
      "stateMutability": "view",
      "type": "function",
      "constant": true
    },
    {
      "inputs": [
        {
          "internalType": "uint256",
          "name": "index",
          "type": "uint256"
        }
      ],
      "name": "tokenByIndex",
      "outputs": [
        {
          "internalType": "uint256",
          "name": "",
          "type": "uint256"
        }
      ],
      "stateMutability": "view",
      "type": "function",
      "constant": true
    },
    {
      "inputs": [
        {
          "internalType": "address",
          "name": "owner",
          "type": "address"
        },
        {
          "internalType": "uint256",
          "name": "index",
          "type": "uint256"
        }
      ],
      "name": "tokenOfOwnerByIndex",
      "outputs": [
        {
          "internalType": "uint256",
          "name": "",
          "type": "uint256"
        }
      ],
      "stateMutability": "view",
      "type": "function",
      "constant": true
    },
    {
      "inputs": [],
      "name": "totalSupply",
      "outputs": [
        {
          "internalType": "uint256",
          "name": "",
          "type": "uint256"
        }
      ],
      "stateMutability": "view",
      "type": "function",
      "constant": true
    },
    {
      "inputs": [
        {
          "internalType": "address",
          "name": "from",
          "type": "address"
        },
        {
          "internalType": "address",
          "name": "to",
          "type": "address"
        },
        {
          "internalType": "uint256",
          "name": "tokenId",
          "type": "uint256"
        }
      ],
      "name": "transferFrom",
      "outputs": [],
      "stateMutability": "nonpayable",
      "type": "function"
    },
    {
      "inputs": [
        {
          "internalType": "address",
          "name": "newOwner",
          "type": "address"
        }
      ],
      "name": "transferOwnership",
      "outputs": [],
      "stateMutability": "nonpayable",
      "type": "function"
    },
    {
      "inputs": [
        {
          "internalType": "uint256",
          "name": "quantity",
          "type": "uint256"
        }
      ],
      "name": "allowlistMint",
      "outputs": [],
      "stateMutability": "payable",
      "type": "function",
      "payable": true
    },
    {
      "inputs": [
        {
          "internalType": "uint256",
          "name": "quantity",
          "type": "uint256"
        }
      ],
      "name": "publicSaleMint",
      "outputs": [],
      "stateMutability": "payable",
      "type": "function",
      "payable": true
    },
    {
      "inputs": [
        {
          "internalType": "uint256",
          "name": "publicPriceWei",
          "type": "uint256"
        },
        {
          "internalType": "uint256",
          "name": "publicSaleKey",
          "type": "uint256"
        },
        {
          "internalType": "uint256",
          "name": "publicSaleStartTime",
          "type": "uint256"
        }
      ],
      "name": "isPublicSaleOn",
      "outputs": [
        {
          "internalType": "bool",
          "name": "",
          "type": "bool"
        }
      ],
      "stateMutability": "view",
      "type": "function",
      "constant": true
    },
    {
      "inputs": [
        {
          "internalType": "address[]",
          "name": "addresses",
          "type": "address[]"
        },
        {
          "internalType": "uint256[]",
          "name": "numSlots",
          "type": "uint256[]"
        }
      ],
      "name": "seedAllowlist",
      "outputs": [],
      "stateMutability": "nonpayable",
      "type": "function"
    },
    {
      "inputs": [
        {
          "internalType": "address[]",
          "name": "receiverAddresses",
          "type": "address[]"
        },
        {
          "internalType": "uint256",
          "name": "mintAmount",
          "type": "uint256"
        }
      ],
      "name": "devMint",
      "outputs": [],
      "stateMutability": "nonpayable",
      "type": "function"
    },
    {
      "inputs": [
        {
          "internalType": "string",
          "name": "_notRevealedURI",
          "type": "string"
        }
      ],
      "name": "setNotRevealedURI",
      "outputs": [],
      "stateMutability": "nonpayable",
      "type": "function"
    },
    {
      "inputs": [
        {
          "internalType": "string",
          "name": "baseURI",
          "type": "string"
        }
      ],
      "name": "setBaseURI",
      "outputs": [],
      "stateMutability": "nonpayable",
      "type": "function"
    },
    {
      "inputs": [
        {
          "internalType": "uint256",
          "name": "tokenId",
          "type": "uint256"
        }
      ],
      "name": "tokenURI",
      "outputs": [
        {
          "internalType": "string",
          "name": "",
          "type": "string"
        }
      ],
      "stateMutability": "view",
      "type": "function",
      "constant": true
    },
    {
      "inputs": [],
      "name": "withdrawBalance",
      "outputs": [],
      "stateMutability": "nonpayable",
      "type": "function"
    },
    {
      "inputs": [
        {
          "internalType": "uint256",
          "name": "quantity",
          "type": "uint256"
        }
      ],
      "name": "setOwnersExplicit",
      "outputs": [],
      "stateMutability": "nonpayable",
      "type": "function"
    },
    {
      "inputs": [
        {
          "internalType": "address",
          "name": "owner",
          "type": "address"
        }
      ],
      "name": "numberMinted",
      "outputs": [
        {
          "internalType": "uint256",
          "name": "",
          "type": "uint256"
        }
      ],
      "stateMutability": "view",
      "type": "function",
      "constant": true
    },
    {
      "inputs": [
        {
          "internalType": "uint256",
          "name": "tokenId",
          "type": "uint256"
        }
      ],
      "name": "getOwnershipData",
      "outputs": [
        {
          "components": [
            {
              "internalType": "address",
              "name": "addr",
              "type": "address"
            },
            {
              "internalType": "uint64",
              "name": "startTimestamp",
              "type": "uint64"
            }
          ],
          "internalType": "struct ERC721A.TokenOwnership",
          "name": "",
          "type": "tuple"
        }
      ],
      "stateMutability": "view",
      "type": "function",
      "constant": true
    }
  ],
  "bytecode": "0x61014060405260006001556000600855600360e0908152503480156200002457600080fd5b50604051620074b1380380620074b183398181016040528101906200004a919062001048565b6040518060400160405280600b81526020017f5065747479204d6f6e6b730000000000000000000000000000000000000000008152506040518060400160405280600281526020017f504d0000000000000000000000000000000000000000000000000000000000008152508686620000d8620000cc620003c660201b60201c565b620003ce60201b60201c565b600081116200011e576040517f08c379a0000000000000000000000000000000000000000000000000000000008152600401620001159062001176565b60405180910390fd5b6000821162000164576040517f08c379a00000000000000000000000000000000000000000000000000000000081526004016200015b906200120e565b60405180910390fd5b83600290805190602001906200017c92919062000dc0565b5082600390805190602001906200019592919062000dc0565b508160a0818152505080608081815250505050505060016009819055508460c081815250508261012081815250508161010081815250508383111562000212576040517f08c379a0000000000000000000000000000000000000000000000000000000008152600401620002099062001280565b60405180910390fd5b62000223816200049260201b60201c565b6000600367ffffffffffffffff81111562000243576200024262000eda565b5b604051908082528060200260200182016040528015620002725781602001602082028036833780820191505090505b50905073d61adc48afe9402b4411805ce6026ef74f94e71381600081518110620002a157620002a0620012a2565b5b602002602001019073ffffffffffffffffffffffffffffffffffffffff16908173ffffffffffffffffffffffffffffffffffffffff168152505073e3ce04b3bcbdfa219407870ca617e18fbf503f2881600181518110620003075762000306620012a2565b5b602002602001019073ffffffffffffffffffffffffffffffffffffffff16908173ffffffffffffffffffffffffffffffffffffffff16815250507349cf0af1ce6a50e822a91a427b3e29007f9c6c09816002815181106200036d576200036c620012a2565b5b602002602001019073ffffffffffffffffffffffffffffffffffffffff16908173ffffffffffffffffffffffffffffffffffffffff1681525050620003ba8160076200053d60201b60201c565b50505050505062001953565b600033905090565b60008060009054906101000a900473ffffffffffffffffffffffffffffffffffffffff169050816000806101000a81548173ffffffffffffffffffffffffffffffffffffffff021916908373ffffffffffffffffffffffffffffffffffffffff1602179055508173ffffffffffffffffffffffffffffffffffffffff168173ffffffffffffffffffffffffffffffffffffffff167f8be0079c531659141344cd1fd0a4f28419497f9722a3daafe3b4186f6b6457e060405160405180910390a35050565b620004a2620003c660201b60201c565b73ffffffffffffffffffffffffffffffffffffffff16620004c86200068860201b60201c565b73ffffffffffffffffffffffffffffffffffffffff161462000521576040517f08c379a0000000000000000000000000000000000000000000000000000000008152600401620005189062001321565b60405180910390fd5b80600a90805190602001906200053992919062000dc0565b5050565b6200054d620003c660201b60201c565b73ffffffffffffffffffffffffffffffffffffffff16620005736200068860201b60201c565b73ffffffffffffffffffffffffffffffffffffffff1614620005cc576040517f08c379a0000000000000000000000000000000000000000000000000000000008152600401620005c39062001321565b60405180910390fd5b6101005181620005e1620006b160201b60201c565b620005ed919062001372565b111562000631576040517f08c379a0000000000000000000000000000000000000000000000000000000008152600401620006289062001445565b60405180910390fd5b60005b825181101562000683576200066d838281518110620006585762000657620012a2565b5b602002602001015183620006bb60201b60201c565b80806200067a9062001467565b91505062000634565b505050565b60008060009054906101000a900473ffffffffffffffffffffffffffffffffffffffff16905090565b6000600154905090565b620006dd828260405180602001604052806000815250620006e160201b60201c565b5050565b60006001549050600073ffffffffffffffffffffffffffffffffffffffff168473ffffffffffffffffffffffffffffffffffffffff1614156200075b576040517f08c379a000000000000000000000000000000000000000000000000000000000815260040162000752906200152b565b60405180910390fd5b6200076c8162000bd960201b60201c565b15620007af576040517f08c379a0000000000000000000000000000000000000000000000000000000008152600401620007a6906200159d565b60405180910390fd5b60a051831115620007f7576040517f08c379a0000000000000000000000000000000000000000000000000000000008152600401620007ee9062001635565b60405180910390fd5b6200080c600085838662000be760201b60201c565b6000600560008673ffffffffffffffffffffffffffffffffffffffff1673ffffffffffffffffffffffffffffffffffffffff1681526020019081526020016000206040518060400160405290816000820160009054906101000a90046fffffffffffffffffffffffffffffffff166fffffffffffffffffffffffffffffffff166fffffffffffffffffffffffffffffffff1681526020016000820160109054906101000a90046fffffffffffffffffffffffffffffffff166fffffffffffffffffffffffffffffffff166fffffffffffffffffffffffffffffffff1681525050905060405180604001604052808583600001516200090b919062001673565b6fffffffffffffffffffffffffffffffff16815260200185836020015162000934919062001673565b6fffffffffffffffffffffffffffffffff16815250600560008773ffffffffffffffffffffffffffffffffffffffff1673ffffffffffffffffffffffffffffffffffffffff16815260200190815260200160002060008201518160000160006101000a8154816fffffffffffffffffffffffffffffffff02191690836fffffffffffffffffffffffffffffffff16021790555060208201518160000160106101000a8154816fffffffffffffffffffffffffffffffff02191690836fffffffffffffffffffffffffffffffff16021790555090505060405180604001604052808673ffffffffffffffffffffffffffffffffffffffff1681526020014267ffffffffffffffff168152506004600084815260200190815260200160002060008201518160000160006101000a81548173ffffffffffffffffffffffffffffffffffffffff021916908373ffffffffffffffffffffffffffffffffffffffff16021790555060208201518160000160146101000a81548167ffffffffffffffff021916908367ffffffffffffffff160217905550905050600082905060005b8581101562000bb457818773ffffffffffffffffffffffffffffffffffffffff16600073ffffffffffffffffffffffffffffffffffffffff167fddf252ad1be2c89b69c2b068fc378daa952ba7f163c4a11628f55a4df523b3ef60405160405180910390a462000b4c600088848862000bed60201b60201c565b62000b8e576040517f08c379a000000000000000000000000000000000000000000000000000000000815260040162000b859062001736565b60405180910390fd5b818062000b9b9062001467565b925050808062000bab9062001467565b91505062000ad2565b508060018190555062000bd1600087858862000da760201b60201c565b505050505050565b600060015482109050919050565b50505050565b600062000c1b8473ffffffffffffffffffffffffffffffffffffffff1662000dad60201b620023a81760201c565b1562000d9a578373ffffffffffffffffffffffffffffffffffffffff1663150b7a0262000c4d620003c660201b60201c565b8786866040518563ffffffff1660e01b815260040162000c7194939291906200180b565b602060405180830381600087803b15801562000c8c57600080fd5b505af192505050801562000cc057506040513d601f19601f8201168201806040525081019062000cbd9190620018bc565b60015b62000d49573d806000811462000cf3576040519150601f19603f3d011682016040523d82523d6000602084013e62000cf8565b606091505b5060008151141562000d41576040517f08c379a000000000000000000000000000000000000000000000000000000000815260040162000d389062001736565b60405180910390fd5b805181602001fd5b63150b7a0260e01b7bffffffffffffffffffffffffffffffffffffffffffffffffffffffff1916817bffffffffffffffffffffffffffffffffffffffffffffffffffffffff19161491505062000d9f565b600190505b949350505050565b50505050565b600080823b905060008111915050919050565b82805462000dce906200191d565b90600052602060002090601f01602090048101928262000df2576000855562000e3e565b82601f1062000e0d57805160ff191683800117855562000e3e565b8280016001018555821562000e3e579182015b8281111562000e3d57825182559160200191906001019062000e20565b5b50905062000e4d919062000e51565b5090565b5b8082111562000e6c57600081600090555060010162000e52565b5090565b6000604051905090565b600080fd5b600080fd5b6000819050919050565b62000e998162000e84565b811462000ea557600080fd5b50565b60008151905062000eb98162000e8e565b92915050565b600080fd5b600080fd5b6000601f19601f8301169050919050565b7f4e487b7100000000000000000000000000000000000000000000000000000000600052604160045260246000fd5b62000f148262000ec9565b810181811067ffffffffffffffff8211171562000f365762000f3562000eda565b5b80604052505050565b600062000f4b62000e70565b905062000f59828262000f09565b919050565b600067ffffffffffffffff82111562000f7c5762000f7b62000eda565b5b62000f878262000ec9565b9050602081019050919050565b60005b8381101562000fb457808201518184015260208101905062000f97565b8381111562000fc4576000848401525b50505050565b600062000fe162000fdb8462000f5e565b62000f3f565b905082815260208101848484011115620010005762000fff62000ec4565b5b6200100d84828562000f94565b509392505050565b600082601f8301126200102d576200102c62000ebf565b5b81516200103f84826020860162000fca565b91505092915050565b600080600080600060a0868803121562001067576200106662000e7a565b5b6000620010778882890162000ea8565b95505060206200108a8882890162000ea8565b94505060406200109d8882890162000ea8565b9350506060620010b08882890162000ea8565b925050608086015167ffffffffffffffff811115620010d457620010d362000e7f565b5b620010e28882890162001015565b9150509295509295909350565b600082825260208201905092915050565b7f455243373231413a20636f6c6c656374696f6e206d757374206861766520612060008201527f6e6f6e7a65726f20737570706c79000000000000000000000000000000000000602082015250565b60006200115e602e83620010ef565b91506200116b8262001100565b604082019050919050565b6000602082019050818103600083015262001191816200114f565b9050919050565b7f455243373231413a206d61782062617463682073697a65206d7573742062652060008201527f6e6f6e7a65726f00000000000000000000000000000000000000000000000000602082015250565b6000620011f6602783620010ef565b9150620012038262001198565b604082019050919050565b600060208201905081810360008301526200122981620011e7565b9050919050565b7f6c617267657220636f6c6c656374696f6e2073697a65206e6565646564000000600082015250565b600062001268601d83620010ef565b9150620012758262001230565b602082019050919050565b600060208201905081810360008301526200129b8162001259565b9050919050565b7f4e487b7100000000000000000000000000000000000000000000000000000000600052603260045260246000fd5b7f4f776e61626c653a2063616c6c6572206973206e6f7420746865206f776e6572600082015250565b600062001309602083620010ef565b91506200131682620012d1565b602082019050919050565b600060208201905081810360008301526200133c81620012fa565b9050919050565b7f4e487b7100000000000000000000000000000000000000000000000000000000600052601160045260246000fd5b60006200137f8262000e84565b91506200138c8362000e84565b9250827fffffffffffffffffffffffffffffffffffffffffffffffffffffffffffffffff03821115620013c457620013c362001343565b5b828201905092915050565b7f746f6f206d616e7920616c7265616479206d696e746564206265666f7265206460008201527f6576206d696e7400000000000000000000000000000000000000000000000000602082015250565b60006200142d602783620010ef565b91506200143a82620013cf565b604082019050919050565b6000602082019050818103600083015262001460816200141e565b9050919050565b6000620014748262000e84565b91507fffffffffffffffffffffffffffffffffffffffffffffffffffffffffffffffff821415620014aa57620014a962001343565b5b600182019050919050565b7f455243373231413a206d696e7420746f20746865207a65726f2061646472657360008201527f7300000000000000000000000000000000000000000000000000000000000000602082015250565b600062001513602183620010ef565b91506200152082620014b5565b604082019050919050565b60006020820190508181036000830152620015468162001504565b9050919050565b7f455243373231413a20746f6b656e20616c7265616479206d696e746564000000600082015250565b600062001585601d83620010ef565b915062001592826200154d565b602082019050919050565b60006020820190508181036000830152620015b88162001576565b9050919050565b7f455243373231413a207175616e7469747920746f206d696e7420746f6f20686960008201527f6768000000000000000000000000000000000000000000000000000000000000602082015250565b60006200161d602283620010ef565b91506200162a82620015bf565b604082019050919050565b6000602082019050818103600083015262001650816200160e565b9050919050565b60006fffffffffffffffffffffffffffffffff82169050919050565b6000620016808262001657565b91506200168d8362001657565b9250826fffffffffffffffffffffffffffffffff03821115620016b557620016b462001343565b5b828201905092915050565b7f455243373231413a207472616e7366657220746f206e6f6e204552433732315260008201527f6563656976657220696d706c656d656e74657200000000000000000000000000602082015250565b60006200171e603383620010ef565b91506200172b82620016c0565b604082019050919050565b6000602082019050818103600083015262001751816200170f565b9050919050565b600073ffffffffffffffffffffffffffffffffffffffff82169050919050565b6000620017858262001758565b9050919050565b620017978162001778565b82525050565b620017a88162000e84565b82525050565b600081519050919050565b600082825260208201905092915050565b6000620017d782620017ae565b620017e38185620017b9565b9350620017f581856020860162000f94565b620018008162000ec9565b840191505092915050565b60006080820190506200182260008301876200178c565b6200183160208301866200178c565b6200184060408301856200179d565b8181036060830152620018548184620017ca565b905095945050505050565b60007fffffffff0000000000000000000000000000000000000000000000000000000082169050919050565b62001896816200185f565b8114620018a257600080fd5b50565b600081519050620018b6816200188b565b92915050565b600060208284031215620018d557620018d462000e7a565b5b6000620018e584828501620018a5565b91505092915050565b7f4e487b7100000000000000000000000000000000000000000000000000000000600052602260045260246000fd5b600060028204905060018216806200193657607f821691505b602082108114156200194d576200194c620018ee565b5b50919050565b60805160a05160c05160e0516101005161012051615ad6620019db6000396000611baa0152600081816120a701526123860152600081816118600152611d9b015260008181611acf0152612007015260008181612d8801528181612db10152613512015260008181611a5a01528181611d2601528181612b100152612b440152615ad66000f3fe6080604052600436106102255760003560e01c80639231ab2a11610123578063c180526a116100ab578063e9566bf61161006f578063e9566bf614610837578063e985e9c514610860578063f2c4ce1e1461089d578063f2fde38b146108c6578063fbe1aa51146108ef57610225565b8063c180526a1461074b578063c87b56dd14610767578063d7224ba0146107a4578063dc33e681146107cf578063e686801e1461080c57610225565b8063abdb297a116100f2578063abdb297a14610687578063b05863d5146106b2578063b3ab66b0146106db578063b5148d43146106f7578063b88d4fde1461072257610225565b80639231ab2a146105b957806395d89b41146105f6578063a22cb46514610621578063a7cd52cb1461064a57610225565b8063422030ba116101b15780635fd8c710116101755780635fd8c710146104e65780636352211e146104fd57806370a082311461053a578063715018a6146105775780638da5cb5b1461058e57610225565b8063422030ba146103dd57806342842e0e1461041a5780634d388a98146104435780634f6ccce71461048057806355f804b3146104bd57610225565b8063095ea7b3116101f8578063095ea7b3146102fa57806318160ddd1461032357806323b872dd1461034e5780632d20fb60146103775780632f745c59146103a057610225565b806301ffc9a71461022a57806306fdde0314610267578063081812fc14610292578063081c8c44146102cf575b600080fd5b34801561023657600080fd5b50610251600480360381019061024c9190613aff565b61091a565b60405161025e9190613b47565b60405180910390f35b34801561027357600080fd5b5061027c610a64565b6040516102899190613bfb565b60405180910390f35b34801561029e57600080fd5b506102b960048036038101906102b49190613c53565b610af6565b6040516102c69190613cc1565b60405180910390f35b3480156102db57600080fd5b506102e4610b7b565b6040516102f19190613bfb565b60405180910390f35b34801561030657600080fd5b50610321600480360381019061031c9190613d08565b610c09565b005b34801561032f57600080fd5b50610338610d22565b6040516103459190613d57565b60405180910390f35b34801561035a57600080fd5b5061037560048036038101906103709190613d72565b610d2c565b005b34801561038357600080fd5b5061039e60048036038101906103999190613c53565b610d3c565b005b3480156103ac57600080fd5b506103c760048036038101906103c29190613d08565b610e1a565b6040516103d49190613d57565b60405180910390f35b3480156103e957600080fd5b5061040460048036038101906103ff9190613dc5565b611018565b6040516104119190613b47565b60405180910390f35b34801561042657600080fd5b50610441600480360381019061043c9190613d72565b611040565b005b34801561044f57600080fd5b5061046a60048036038101906104659190613e18565b611060565b6040516104779190613d57565b60405180910390f35b34801561048c57600080fd5b506104a760048036038101906104a29190613c53565b611149565b6040516104b49190613d57565b60405180910390f35b3480156104c957600080fd5b506104e460048036038101906104df9190613eaa565b61119c565b005b3480156104f257600080fd5b506104fb61122e565b005b34801561050957600080fd5b50610524600480360381019061051f9190613c53565b61146b565b6040516105319190613cc1565b60405180910390f35b34801561054657600080fd5b50610561600480360381019061055c9190613e18565b611481565b60405161056e9190613d57565b60405180910390f35b34801561058357600080fd5b5061058c61156a565b005b34801561059a57600080fd5b506105a36115f2565b6040516105b09190613cc1565b60405180910390f35b3480156105c557600080fd5b506105e060048036038101906105db9190613c53565b61161b565b6040516105ed9190613f58565b60405180910390f35b34801561060257600080fd5b5061060b611633565b6040516106189190613bfb565b60405180910390f35b34801561062d57600080fd5b5061064860048036038101906106439190613f9f565b6116c5565b005b34801561065657600080fd5b50610671600480360381019061066c9190613e18565b611846565b60405161067e9190613d57565b60405180910390f35b34801561069357600080fd5b5061069c61185e565b6040516106a99190613d57565b60405180910390f35b3480156106be57600080fd5b506106d960048036038101906106d491906141e0565b611882565b005b6106f560048036038101906106f09190613c53565b6119de565b005b34801561070357600080fd5b5061070c611ba8565b6040516107199190613d57565b60405180910390f35b34801561072e57600080fd5b506107496004803603810190610744919061430d565b611bcc565b005b61076560048036038101906107609190613c53565b611c28565b005b34801561077357600080fd5b5061078e60048036038101906107899190613c53565b611eca565b60405161079b9190613bfb565b60405180910390f35b3480156107b057600080fd5b506107b9611fed565b6040516107c69190613d57565b60405180910390f35b3480156107db57600080fd5b506107f660048036038101906107f19190613e18565b611ff3565b6040516108039190613d57565b60405180910390f35b34801561081857600080fd5b50610821612005565b60405161082e9190613d57565b60405180910390f35b34801561084357600080fd5b5061085e60048036038101906108599190614390565b612029565b005b34801561086c57600080fd5b50610887600480360381019061088291906143ec565b612162565b6040516108949190613b47565b60405180910390f35b3480156108a957600080fd5b506108c460048036038101906108bf91906144cd565b6121f6565b005b3480156108d257600080fd5b506108ed60048036038101906108e89190613e18565b61228c565b005b3480156108fb57600080fd5b50610904612384565b6040516109119190613d57565b60405180910390f35b60007f80ac58cd000000000000000000000000000000000000000000000000000000007bffffffffffffffffffffffffffffffffffffffffffffffffffffffff1916827bffffffffffffffffffffffffffffffffffffffffffffffffffffffff191614806109e557507f5b5e139f000000000000000000000000000000000000000000000000000000007bffffffffffffffffffffffffffffffffffffffffffffffffffffffff1916827bffffffffffffffffffffffffffffffffffffffffffffffffffffffff1916145b80610a4d57507f780e9d63000000000000000000000000000000000000000000000000000000007bffffffffffffffffffffffffffffffffffffffffffffffffffffffff1916827bffffffffffffffffffffffffffffffffffffffffffffffffffffffff1916145b80610a5d5750610a5c826123bb565b5b9050919050565b606060028054610a7390614545565b80601f0160208091040260200160405190810160405280929190818152602001828054610a9f90614545565b8015610aec5780601f10610ac157610100808354040283529160200191610aec565b820191906000526020600020905b815481529060010190602001808311610acf57829003601f168201915b5050505050905090565b6000610b0182612425565b610b40576040517f08c379a0000000000000000000000000000000000000000000000000000000008152600401610b37906145e9565b60405180910390fd5b6006600083815260200190815260200160002060009054906101000a900473ffffffffffffffffffffffffffffffffffffffff169050919050565b600a8054610b8890614545565b80601f0160208091040260200160405190810160405280929190818152602001828054610bb490614545565b8015610c015780601f10610bd657610100808354040283529160200191610c01565b820191906000526020600020905b815481529060010190602001808311610be457829003601f168201915b505050505081565b6000610c148261146b565b90508073ffffffffffffffffffffffffffffffffffffffff168373ffffffffffffffffffffffffffffffffffffffff161415610c85576040517f08c379a0000000000000000000000000000000000000000000000000000000008152600401610c7c9061467b565b60405180910390fd5b8073ffffffffffffffffffffffffffffffffffffffff16610ca4612433565b73ffffffffffffffffffffffffffffffffffffffff161480610cd35750610cd281610ccd612433565b612162565b5b610d12576040517f08c379a0000000000000000000000000000000000000000000000000000000008152600401610d099061470d565b60405180910390fd5b610d1d83838361243b565b505050565b6000600154905090565b610d378383836124ed565b505050565b610d44612433565b73ffffffffffffffffffffffffffffffffffffffff16610d626115f2565b73ffffffffffffffffffffffffffffffffffffffff1614610db8576040517f08c379a0000000000000000000000000000000000000000000000000000000008152600401610daf90614779565b60405180910390fd5b60026009541415610dfe576040517f08c379a0000000000000000000000000000000000000000000000000000000008152600401610df5906147e5565b60405180910390fd5b6002600981905550610e0f81612aa6565b600160098190555050565b6000610e2583611481565b8210610e66576040517f08c379a0000000000000000000000000000000000000000000000000000000008152600401610e5d90614877565b60405180910390fd5b6000610e70610d22565b905060008060005b83811015610fd6576000600460008381526020019081526020016000206040518060400160405290816000820160009054906101000a900473ffffffffffffffffffffffffffffffffffffffff1673ffffffffffffffffffffffffffffffffffffffff1673ffffffffffffffffffffffffffffffffffffffff1681526020016000820160149054906101000a900467ffffffffffffffff1667ffffffffffffffff1667ffffffffffffffff16815250509050600073ffffffffffffffffffffffffffffffffffffffff16816000015173ffffffffffffffffffffffffffffffffffffffff1614610f6a57806000015192505b8773ffffffffffffffffffffffffffffffffffffffff168373ffffffffffffffffffffffffffffffffffffffff161415610fc25786841415610fb3578195505050505050611012565b8380610fbe906148c6565b9450505b508080610fce906148c6565b915050610e78565b506040517f08c379a000000000000000000000000000000000000000000000000000000000815260040161100990614981565b60405180910390fd5b92915050565b600080841415801561102b575060008314155b80156110375750814210155b90509392505050565b61105b83838360405180602001604052806000815250611bcc565b505050565b60008073ffffffffffffffffffffffffffffffffffffffff168273ffffffffffffffffffffffffffffffffffffffff1614156110d1576040517f08c379a00000000000000000000000000000000000000000000000000000000081526004016110c890614a13565b60405180910390fd5b600560008373ffffffffffffffffffffffffffffffffffffffff1673ffffffffffffffffffffffffffffffffffffffff16815260200190815260200160002060000160109054906101000a90046fffffffffffffffffffffffffffffffff166fffffffffffffffffffffffffffffffff169050919050565b6000611153610d22565b8210611194576040517f08c379a000000000000000000000000000000000000000000000000000000000815260040161118b90614aa5565b60405180910390fd5b819050919050565b6111a4612433565b73ffffffffffffffffffffffffffffffffffffffff166111c26115f2565b73ffffffffffffffffffffffffffffffffffffffff1614611218576040517f08c379a000000000000000000000000000000000000000000000000000000000815260040161120f90614779565b60405180910390fd5b8181600c9190611229929190613930565b505050565b611236612433565b73ffffffffffffffffffffffffffffffffffffffff166112546115f2565b73ffffffffffffffffffffffffffffffffffffffff16146112aa576040517f08c379a00000000000000000000000000000000000000000000000000000000081526004016112a190614779565b60405180910390fd5b600060646021476112bb9190614ac5565b6112c59190614b4e565b9050600073d61adc48afe9402b4411805ce6026ef74f94e71373ffffffffffffffffffffffffffffffffffffffff168260405161130190614bb0565b60006040518083038185875af1925050503d806000811461133e576040519150601f19603f3d011682016040523d82523d6000602084013e611343565b606091505b505090508061135157600080fd5b600073e3ce04b3bcbdfa219407870ca617e18fbf503f2873ffffffffffffffffffffffffffffffffffffffff168360405161138b90614bb0565b60006040518083038185875af1925050503d80600081146113c8576040519150601f19603f3d011682016040523d82523d6000602084013e6113cd565b606091505b50509050806113db57600080fd5b60007349cf0af1ce6a50e822a91a427b3e29007f9c6c0973ffffffffffffffffffffffffffffffffffffffff164760405161141590614bb0565b60006040518083038185875af1925050503d8060008114611452576040519150601f19603f3d011682016040523d82523d6000602084013e611457565b606091505b505090508061146557600080fd5b50505050565b600061147682612d34565b600001519050919050565b60008073ffffffffffffffffffffffffffffffffffffffff168273ffffffffffffffffffffffffffffffffffffffff1614156114f2576040517f08c379a00000000000000000000000000000000000000000000000000000000081526004016114e990614c37565b60405180910390fd5b600560008373ffffffffffffffffffffffffffffffffffffffff1673ffffffffffffffffffffffffffffffffffffffff16815260200190815260200160002060000160009054906101000a90046fffffffffffffffffffffffffffffffff166fffffffffffffffffffffffffffffffff169050919050565b611572612433565b73ffffffffffffffffffffffffffffffffffffffff166115906115f2565b73ffffffffffffffffffffffffffffffffffffffff16146115e6576040517f08c379a00000000000000000000000000000000000000000000000000000000081526004016115dd90614779565b60405180910390fd5b6115f06000612f37565b565b60008060009054906101000a900473ffffffffffffffffffffffffffffffffffffffff16905090565b6116236139b6565b61162c82612d34565b9050919050565b60606003805461164290614545565b80601f016020809104026020016040519081016040528092919081815260200182805461166e90614545565b80156116bb5780601f10611690576101008083540402835291602001916116bb565b820191906000526020600020905b81548152906001019060200180831161169e57829003601f168201915b5050505050905090565b6116cd612433565b73ffffffffffffffffffffffffffffffffffffffff168273ffffffffffffffffffffffffffffffffffffffff16141561173b576040517f08c379a000000000000000000000000000000000000000000000000000000000815260040161173290614ca3565b60405180910390fd5b8060076000611748612433565b73ffffffffffffffffffffffffffffffffffffffff1673ffffffffffffffffffffffffffffffffffffffff16815260200190815260200160002060008473ffffffffffffffffffffffffffffffffffffffff1673ffffffffffffffffffffffffffffffffffffffff16815260200190815260200160002060006101000a81548160ff0219169083151502179055508173ffffffffffffffffffffffffffffffffffffffff166117f5612433565b73ffffffffffffffffffffffffffffffffffffffff167f17307eab39ab6107e8899845ad3d59bd9653f200f220920489ca2b5937696c318360405161183a9190613b47565b60405180910390a35050565b600b6020528060005260406000206000915090505481565b7f000000000000000000000000000000000000000000000000000000000000000081565b61188a612433565b73ffffffffffffffffffffffffffffffffffffffff166118a86115f2565b73ffffffffffffffffffffffffffffffffffffffff16146118fe576040517f08c379a00000000000000000000000000000000000000000000000000000000081526004016118f590614779565b60405180910390fd5b8051825114611942576040517f08c379a000000000000000000000000000000000000000000000000000000000815260040161193990614d35565b60405180910390fd5b60005b82518110156119d95781818151811061196157611960614d55565b5b6020026020010151600b60008584815181106119805761197f614d55565b5b602002602001015173ffffffffffffffffffffffffffffffffffffffff1673ffffffffffffffffffffffffffffffffffffffff1681526020019081526020016000208190555080806119d1906148c6565b915050611945565b505050565b3373ffffffffffffffffffffffffffffffffffffffff163273ffffffffffffffffffffffffffffffffffffffff1614611a4c576040517f08c379a0000000000000000000000000000000000000000000000000000000008152600401611a4390614dd0565b60405180910390fd5b6000665543df729c000090507f000000000000000000000000000000000000000000000000000000000000000082611a82610d22565b611a8c9190614df0565b1115611acd576040517f08c379a0000000000000000000000000000000000000000000000000000000008152600401611ac490614e92565b60405180910390fd5b7f000000000000000000000000000000000000000000000000000000000000000082611af833611ff3565b611b029190614df0565b1115611b43576040517f08c379a0000000000000000000000000000000000000000000000000000000008152600401611b3a90614f24565b60405180910390fd5b80341015611b86576040517f08c379a0000000000000000000000000000000000000000000000000000000008152600401611b7d90614f90565b60405180910390fd5b611b903383612ffb565b611ba48282611b9f9190614ac5565b613019565b5050565b7f000000000000000000000000000000000000000000000000000000000000000081565b611bd78484846124ed565b611be3848484846130ba565b611c22576040517f08c379a0000000000000000000000000000000000000000000000000000000008152600401611c1990615022565b60405180910390fd5b50505050565b3373ffffffffffffffffffffffffffffffffffffffff163273ffffffffffffffffffffffffffffffffffffffff1614611c96576040517f08c379a0000000000000000000000000000000000000000000000000000000008152600401611c8d90614dd0565b60405180910390fd5b6000665543df729c000090506000600b60003373ffffffffffffffffffffffffffffffffffffffff1673ffffffffffffffffffffffffffffffffffffffff1681526020019081526020016000205411611d24576040517f08c379a0000000000000000000000000000000000000000000000000000000008152600401611d1b9061508e565b60405180910390fd5b7f000000000000000000000000000000000000000000000000000000000000000082611d4e610d22565b611d589190614df0565b1115611d99576040517f08c379a0000000000000000000000000000000000000000000000000000000008152600401611d9090614e92565b60405180910390fd5b7f000000000000000000000000000000000000000000000000000000000000000082611dc433611ff3565b611dce9190614df0565b1115611e0f576040517f08c379a0000000000000000000000000000000000000000000000000000000008152600401611e06906150fa565b60405180910390fd5b80341015611e52576040517f08c379a0000000000000000000000000000000000000000000000000000000008152600401611e4990614f90565b60405180910390fd5b81600b60003373ffffffffffffffffffffffffffffffffffffffff1673ffffffffffffffffffffffffffffffffffffffff1681526020019081526020016000206000828254611ea1919061511a565b92505081905550611eb23383612ffb565b611ec68282611ec19190614ac5565b613019565b5050565b6060611ed4612433565b73ffffffffffffffffffffffffffffffffffffffff16611ef26115f2565b73ffffffffffffffffffffffffffffffffffffffff1614611f48576040517f08c379a0000000000000000000000000000000000000000000000000000000008152600401611f3f90614779565b60405180910390fd5b611f5182612425565b611f90576040517f08c379a0000000000000000000000000000000000000000000000000000000008152600401611f87906151c0565b60405180910390fd5b6000611f9a613251565b90506000815111611fba5760405180602001604052806000815250611fe5565b80611fc4846132e3565b604051602001611fd592919061521c565b6040516020818303038152906040525b915050919050565b60085481565b6000611ffe82611060565b9050919050565b7f000000000000000000000000000000000000000000000000000000000000000081565b612031612433565b73ffffffffffffffffffffffffffffffffffffffff1661204f6115f2565b73ffffffffffffffffffffffffffffffffffffffff16146120a5576040517f08c379a000000000000000000000000000000000000000000000000000000000815260040161209c90614779565b60405180910390fd5b7f0000000000000000000000000000000000000000000000000000000000000000816120cf610d22565b6120d99190614df0565b111561211a576040517f08c379a0000000000000000000000000000000000000000000000000000000008152600401612111906152b2565b60405180910390fd5b60005b825181101561215d5761214a83828151811061213c5761213b614d55565b5b602002602001015183612ffb565b8080612155906148c6565b91505061211d565b505050565b6000600760008473ffffffffffffffffffffffffffffffffffffffff1673ffffffffffffffffffffffffffffffffffffffff16815260200190815260200160002060008373ffffffffffffffffffffffffffffffffffffffff1673ffffffffffffffffffffffffffffffffffffffff16815260200190815260200160002060009054906101000a900460ff16905092915050565b6121fe612433565b73ffffffffffffffffffffffffffffffffffffffff1661221c6115f2565b73ffffffffffffffffffffffffffffffffffffffff1614612272576040517f08c379a000000000000000000000000000000000000000000000000000000000815260040161226990614779565b60405180910390fd5b80600a90805190602001906122889291906139f0565b5050565b612294612433565b73ffffffffffffffffffffffffffffffffffffffff166122b26115f2565b73ffffffffffffffffffffffffffffffffffffffff1614612308576040517f08c379a00000000000000000000000000000000000000000000000000000000081526004016122ff90614779565b60405180910390fd5b600073ffffffffffffffffffffffffffffffffffffffff168173ffffffffffffffffffffffffffffffffffffffff161415612378576040517f08c379a000000000000000000000000000000000000000000000000000000000815260040161236f90615344565b60405180910390fd5b61238181612f37565b50565b7f000000000000000000000000000000000000000000000000000000000000000081565b600080823b905060008111915050919050565b60007f01ffc9a7000000000000000000000000000000000000000000000000000000007bffffffffffffffffffffffffffffffffffffffffffffffffffffffff1916827bffffffffffffffffffffffffffffffffffffffffffffffffffffffff1916149050919050565b600060015482109050919050565b600033905090565b826006600084815260200190815260200160002060006101000a81548173ffffffffffffffffffffffffffffffffffffffff021916908373ffffffffffffffffffffffffffffffffffffffff160217905550818373ffffffffffffffffffffffffffffffffffffffff168273ffffffffffffffffffffffffffffffffffffffff167f8c5be1e5ebec7d5bd14f71427d1e84f3dd0314c0f7b2291e5b200ac8c7c3b92560405160405180910390a4505050565b60006124f882612d34565b90506000816000015173ffffffffffffffffffffffffffffffffffffffff1661251f612433565b73ffffffffffffffffffffffffffffffffffffffff16148061257b5750612544612433565b73ffffffffffffffffffffffffffffffffffffffff1661256384610af6565b73ffffffffffffffffffffffffffffffffffffffff16145b8061259757506125968260000151612591612433565b612162565b5b9050806125d9576040517f08c379a00000000000000000000000000000000000000000000000000000000081526004016125d0906153d6565b60405180910390fd5b8473ffffffffffffffffffffffffffffffffffffffff16826000015173ffffffffffffffffffffffffffffffffffffffff161461264b576040517f08c379a000000000000000000000000000000000000000000000000000000000815260040161264290615468565b60405180910390fd5b600073ffffffffffffffffffffffffffffffffffffffff168473ffffffffffffffffffffffffffffffffffffffff1614156126bb576040517f08c379a00000000000000000000000000000000000000000000000000000000081526004016126b2906154fa565b60405180910390fd5b6126c88585856001613444565b6126d8600084846000015161243b565b6001600560008773ffffffffffffffffffffffffffffffffffffffff1673ffffffffffffffffffffffffffffffffffffffff16815260200190815260200160002060000160008282829054906101000a90046fffffffffffffffffffffffffffffffff166127469190615536565b92506101000a8154816fffffffffffffffffffffffffffffffff02191690836fffffffffffffffffffffffffffffffff1602179055506001600560008673ffffffffffffffffffffffffffffffffffffffff1673ffffffffffffffffffffffffffffffffffffffff16815260200190815260200160002060000160008282829054906101000a90046fffffffffffffffffffffffffffffffff166127ea919061556a565b92506101000a8154816fffffffffffffffffffffffffffffffff02191690836fffffffffffffffffffffffffffffffff16021790555060405180604001604052808573ffffffffffffffffffffffffffffffffffffffff1681526020014267ffffffffffffffff168152506004600085815260200190815260200160002060008201518160000160006101000a81548173ffffffffffffffffffffffffffffffffffffffff021916908373ffffffffffffffffffffffffffffffffffffffff16021790555060208201518160000160146101000a81548167ffffffffffffffff021916908367ffffffffffffffff16021790555090505060006001846128f09190614df0565b9050600073ffffffffffffffffffffffffffffffffffffffff166004600083815260200190815260200160002060000160009054906101000a900473ffffffffffffffffffffffffffffffffffffffff1673ffffffffffffffffffffffffffffffffffffffff161415612a365761296681612425565b15612a35576040518060400160405280846000015173ffffffffffffffffffffffffffffffffffffffff168152602001846020015167ffffffffffffffff168152506004600083815260200190815260200160002060008201518160000160006101000a81548173ffffffffffffffffffffffffffffffffffffffff021916908373ffffffffffffffffffffffffffffffffffffffff16021790555060208201518160000160146101000a81548167ffffffffffffffff021916908367ffffffffffffffff1602179055509050505b5b838573ffffffffffffffffffffffffffffffffffffffff168773ffffffffffffffffffffffffffffffffffffffff167fddf252ad1be2c89b69c2b068fc378daa952ba7f163c4a11628f55a4df523b3ef60405160405180910390a4612a9e868686600161344a565b505050505050565b6000600854905060008211612af0576040517f08c379a0000000000000000000000000000000000000000000000000000000008152600401612ae7906155fc565b60405180910390fd5b600060018383612b009190614df0565b612b0a919061511a565b905060017f0000000000000000000000000000000000000000000000000000000000000000612b39919061511a565b811115612b705760017f0000000000000000000000000000000000000000000000000000000000000000612b6d919061511a565b90505b612b7981612425565b612bb8576040517f08c379a0000000000000000000000000000000000000000000000000000000008152600401612baf9061568e565b60405180910390fd5b60008290505b818111612d1b57600073ffffffffffffffffffffffffffffffffffffffff166004600083815260200190815260200160002060000160009054906101000a900473ffffffffffffffffffffffffffffffffffffffff1673ffffffffffffffffffffffffffffffffffffffff161415612d08576000612c3b82612d34565b90506040518060400160405280826000015173ffffffffffffffffffffffffffffffffffffffff168152602001826020015167ffffffffffffffff168152506004600084815260200190815260200160002060008201518160000160006101000a81548173ffffffffffffffffffffffffffffffffffffffff021916908373ffffffffffffffffffffffffffffffffffffffff16021790555060208201518160000160146101000a81548167ffffffffffffffff021916908367ffffffffffffffff160217905550905050505b8080612d13906148c6565b915050612bbe565b50600181612d299190614df0565b600881905550505050565b612d3c6139b6565b612d4582612425565b612d84576040517f08c379a0000000000000000000000000000000000000000000000000000000008152600401612d7b90615720565b60405180910390fd5b60007f00000000000000000000000000000000000000000000000000000000000000008310612de85760017f000000000000000000000000000000000000000000000000000000000000000084612ddb919061511a565b612de59190614df0565b90505b60008390505b818110612ef6576000600460008381526020019081526020016000206040518060400160405290816000820160009054906101000a900473ffffffffffffffffffffffffffffffffffffffff1673ffffffffffffffffffffffffffffffffffffffff1673ffffffffffffffffffffffffffffffffffffffff1681526020016000820160149054906101000a900467ffffffffffffffff1667ffffffffffffffff1667ffffffffffffffff16815250509050600073ffffffffffffffffffffffffffffffffffffffff16816000015173ffffffffffffffffffffffffffffffffffffffff1614612ee257809350505050612f32565b508080612eee90615740565b915050612dee565b506040517f08c379a0000000000000000000000000000000000000000000000000000000008152600401612f29906157dc565b60405180910390fd5b919050565b60008060009054906101000a900473ffffffffffffffffffffffffffffffffffffffff169050816000806101000a81548173ffffffffffffffffffffffffffffffffffffffff021916908373ffffffffffffffffffffffffffffffffffffffff1602179055508173ffffffffffffffffffffffffffffffffffffffff168173ffffffffffffffffffffffffffffffffffffffff167f8be0079c531659141344cd1fd0a4f28419497f9722a3daafe3b4186f6b6457e060405160405180910390a35050565b613015828260405180602001604052806000815250613450565b5050565b8034101561305c576040517f08c379a000000000000000000000000000000000000000000000000000000000815260040161305390614f90565b60405180910390fd5b803411156130b7573373ffffffffffffffffffffffffffffffffffffffff166108fc823461308a919061511a565b9081150290604051600060405180830381858888f193505050501580156130b5573d6000803e3d6000fd5b505b50565b60006130db8473ffffffffffffffffffffffffffffffffffffffff166123a8565b15613244578373ffffffffffffffffffffffffffffffffffffffff1663150b7a02613104612433565b8786866040518563ffffffff1660e01b81526004016131269493929190615851565b602060405180830381600087803b15801561314057600080fd5b505af192505050801561317157506040513d601f19601f8201168201806040525081019061316e91906158b2565b60015b6131f4573d80600081146131a1576040519150601f19603f3d011682016040523d82523d6000602084013e6131a6565b606091505b506000815114156131ec576040517f08c379a00000000000000000000000000000000000000000000000000000000081526004016131e390615022565b60405180910390fd5b805181602001fd5b63150b7a0260e01b7bffffffffffffffffffffffffffffffffffffffffffffffffffffffff1916817bffffffffffffffffffffffffffffffffffffffffffffffffffffffff191614915050613249565b600190505b949350505050565b6060600c805461326090614545565b80601f016020809104026020016040519081016040528092919081815260200182805461328c90614545565b80156132d95780601f106132ae576101008083540402835291602001916132d9565b820191906000526020600020905b8154815290600101906020018083116132bc57829003601f168201915b5050505050905090565b6060600082141561332b576040518060400160405280600181526020017f3000000000000000000000000000000000000000000000000000000000000000815250905061343f565b600082905060005b6000821461335d578080613346906148c6565b915050600a826133569190614b4e565b9150613333565b60008167ffffffffffffffff81111561337957613378613fdf565b5b6040519080825280601f01601f1916602001820160405280156133ab5781602001600182028036833780820191505090505b5090505b60008514613438576001826133c4919061511a565b9150600a856133d391906158df565b60306133df9190614df0565b60f81b8183815181106133f5576133f4614d55565b5b60200101907effffffffffffffffffffffffffffffffffffffffffffffffffffffffffffff1916908160001a905350600a856134319190614b4e565b94506133af565b8093505050505b919050565b50505050565b50505050565b60006001549050600073ffffffffffffffffffffffffffffffffffffffff168473ffffffffffffffffffffffffffffffffffffffff1614156134c7576040517f08c379a00000000000000000000000000000000000000000000000000000000081526004016134be90615982565b60405180910390fd5b6134d081612425565b15613510576040517f08c379a0000000000000000000000000000000000000000000000000000000008152600401613507906159ee565b60405180910390fd5b7f0000000000000000000000000000000000000000000000000000000000000000831115613573576040517f08c379a000000000000000000000000000000000000000000000000000000000815260040161356a90615a80565b60405180910390fd5b6135806000858386613444565b6000600560008673ffffffffffffffffffffffffffffffffffffffff1673ffffffffffffffffffffffffffffffffffffffff1681526020019081526020016000206040518060400160405290816000820160009054906101000a90046fffffffffffffffffffffffffffffffff166fffffffffffffffffffffffffffffffff166fffffffffffffffffffffffffffffffff1681526020016000820160109054906101000a90046fffffffffffffffffffffffffffffffff166fffffffffffffffffffffffffffffffff166fffffffffffffffffffffffffffffffff16815250509050604051806040016040528085836000015161367d919061556a565b6fffffffffffffffffffffffffffffffff1681526020018583602001516136a4919061556a565b6fffffffffffffffffffffffffffffffff16815250600560008773ffffffffffffffffffffffffffffffffffffffff1673ffffffffffffffffffffffffffffffffffffffff16815260200190815260200160002060008201518160000160006101000a8154816fffffffffffffffffffffffffffffffff02191690836fffffffffffffffffffffffffffffffff16021790555060208201518160000160106101000a8154816fffffffffffffffffffffffffffffffff02191690836fffffffffffffffffffffffffffffffff16021790555090505060405180604001604052808673ffffffffffffffffffffffffffffffffffffffff1681526020014267ffffffffffffffff168152506004600084815260200190815260200160002060008201518160000160006101000a81548173ffffffffffffffffffffffffffffffffffffffff021916908373ffffffffffffffffffffffffffffffffffffffff16021790555060208201518160000160146101000a81548167ffffffffffffffff021916908367ffffffffffffffff160217905550905050600082905060005b8581101561391357818773ffffffffffffffffffffffffffffffffffffffff16600073ffffffffffffffffffffffffffffffffffffffff167fddf252ad1be2c89b69c2b068fc378daa952ba7f163c4a11628f55a4df523b3ef60405160405180910390a46138b360008884886130ba565b6138f2576040517f08c379a00000000000000000000000000000000000000000000000000000000081526004016138e990615022565b60405180910390fd5b81806138fd906148c6565b925050808061390b906148c6565b915050613842565b5080600181905550613928600087858861344a565b505050505050565b82805461393c90614545565b90600052602060002090601f01602090048101928261395e57600085556139a5565b82601f1061397757803560ff19168380011785556139a5565b828001600101855582156139a5579182015b828111156139a4578235825591602001919060010190613989565b5b5090506139b29190613a76565b5090565b6040518060400160405280600073ffffffffffffffffffffffffffffffffffffffff168152602001600067ffffffffffffffff1681525090565b8280546139fc90614545565b90600052602060002090601f016020900481019282613a1e5760008555613a65565b82601f10613a3757805160ff1916838001178555613a65565b82800160010185558215613a65579182015b82811115613a64578251825591602001919060010190613a49565b5b509050613a729190613a76565b5090565b5b80821115613a8f576000816000905550600101613a77565b5090565b6000604051905090565b600080fd5b600080fd5b60007fffffffff0000000000000000000000000000000000000000000000000000000082169050919050565b613adc81613aa7565b8114613ae757600080fd5b50565b600081359050613af981613ad3565b92915050565b600060208284031215613b1557613b14613a9d565b5b6000613b2384828501613aea565b91505092915050565b60008115159050919050565b613b4181613b2c565b82525050565b6000602082019050613b5c6000830184613b38565b92915050565b600081519050919050565b600082825260208201905092915050565b60005b83811015613b9c578082015181840152602081019050613b81565b83811115613bab576000848401525b50505050565b6000601f19601f8301169050919050565b6000613bcd82613b62565b613bd78185613b6d565b9350613be7818560208601613b7e565b613bf081613bb1565b840191505092915050565b60006020820190508181036000830152613c158184613bc2565b905092915050565b6000819050919050565b613c3081613c1d565b8114613c3b57600080fd5b50565b600081359050613c4d81613c27565b92915050565b600060208284031215613c6957613c68613a9d565b5b6000613c7784828501613c3e565b91505092915050565b600073ffffffffffffffffffffffffffffffffffffffff82169050919050565b6000613cab82613c80565b9050919050565b613cbb81613ca0565b82525050565b6000602082019050613cd66000830184613cb2565b92915050565b613ce581613ca0565b8114613cf057600080fd5b50565b600081359050613d0281613cdc565b92915050565b60008060408385031215613d1f57613d1e613a9d565b5b6000613d2d85828601613cf3565b9250506020613d3e85828601613c3e565b9150509250929050565b613d5181613c1d565b82525050565b6000602082019050613d6c6000830184613d48565b92915050565b600080600060608486031215613d8b57613d8a613a9d565b5b6000613d9986828701613cf3565b9350506020613daa86828701613cf3565b9250506040613dbb86828701613c3e565b9150509250925092565b600080600060608486031215613dde57613ddd613a9d565b5b6000613dec86828701613c3e565b9350506020613dfd86828701613c3e565b9250506040613e0e86828701613c3e565b9150509250925092565b600060208284031215613e2e57613e2d613a9d565b5b6000613e3c84828501613cf3565b91505092915050565b600080fd5b600080fd5b600080fd5b60008083601f840112613e6a57613e69613e45565b5b8235905067ffffffffffffffff811115613e8757613e86613e4a565b5b602083019150836001820283011115613ea357613ea2613e4f565b5b9250929050565b60008060208385031215613ec157613ec0613a9d565b5b600083013567ffffffffffffffff811115613edf57613ede613aa2565b5b613eeb85828601613e54565b92509250509250929050565b613f0081613ca0565b82525050565b600067ffffffffffffffff82169050919050565b613f2381613f06565b82525050565b604082016000820151613f3f6000850182613ef7565b506020820151613f526020850182613f1a565b50505050565b6000604082019050613f6d6000830184613f29565b92915050565b613f7c81613b2c565b8114613f8757600080fd5b50565b600081359050613f9981613f73565b92915050565b60008060408385031215613fb657613fb5613a9d565b5b6000613fc485828601613cf3565b9250506020613fd585828601613f8a565b9150509250929050565b7f4e487b7100000000000000000000000000000000000000000000000000000000600052604160045260246000fd5b61401782613bb1565b810181811067ffffffffffffffff8211171561403657614035613fdf565b5b80604052505050565b6000614049613a93565b9050614055828261400e565b919050565b600067ffffffffffffffff82111561407557614074613fdf565b5b602082029050602081019050919050565b60006140996140948461405a565b61403f565b905080838252602082019050602084028301858111156140bc576140bb613e4f565b5b835b818110156140e557806140d18882613cf3565b8452602084019350506020810190506140be565b5050509392505050565b600082601f83011261410457614103613e45565b5b8135614114848260208601614086565b91505092915050565b600067ffffffffffffffff82111561413857614137613fdf565b5b602082029050602081019050919050565b600061415c6141578461411d565b61403f565b9050808382526020820190506020840283018581111561417f5761417e613e4f565b5b835b818110156141a857806141948882613c3e565b845260208401935050602081019050614181565b5050509392505050565b600082601f8301126141c7576141c6613e45565b5b81356141d7848260208601614149565b91505092915050565b600080604083850312156141f7576141f6613a9d565b5b600083013567ffffffffffffffff81111561421557614214613aa2565b5b614221858286016140ef565b925050602083013567ffffffffffffffff81111561424257614241613aa2565b5b61424e858286016141b2565b9150509250929050565b600080fd5b600067ffffffffffffffff82111561427857614277613fdf565b5b61428182613bb1565b9050602081019050919050565b82818337600083830152505050565b60006142b06142ab8461425d565b61403f565b9050828152602081018484840111156142cc576142cb614258565b5b6142d784828561428e565b509392505050565b600082601f8301126142f4576142f3613e45565b5b813561430484826020860161429d565b91505092915050565b6000806000806080858703121561432757614326613a9d565b5b600061433587828801613cf3565b945050602061434687828801613cf3565b935050604061435787828801613c3e565b925050606085013567ffffffffffffffff81111561437857614377613aa2565b5b614384878288016142df565b91505092959194509250565b600080604083850312156143a7576143a6613a9d565b5b600083013567ffffffffffffffff8111156143c5576143c4613aa2565b5b6143d1858286016140ef565b92505060206143e285828601613c3e565b9150509250929050565b6000806040838503121561440357614402613a9d565b5b600061441185828601613cf3565b925050602061442285828601613cf3565b9150509250929050565b600067ffffffffffffffff82111561444757614446613fdf565b5b61445082613bb1565b9050602081019050919050565b600061447061446b8461442c565b61403f565b90508281526020810184848401111561448c5761448b614258565b5b61449784828561428e565b509392505050565b600082601f8301126144b4576144b3613e45565b5b81356144c484826020860161445d565b91505092915050565b6000602082840312156144e3576144e2613a9d565b5b600082013567ffffffffffffffff81111561450157614500613aa2565b5b61450d8482850161449f565b91505092915050565b7f4e487b7100000000000000000000000000000000000000000000000000000000600052602260045260246000fd5b6000600282049050600182168061455d57607f821691505b6020821081141561457157614570614516565b5b50919050565b7f455243373231413a20617070726f76656420717565727920666f72206e6f6e6560008201527f78697374656e7420746f6b656e00000000000000000000000000000000000000602082015250565b60006145d3602d83613b6d565b91506145de82614577565b604082019050919050565b60006020820190508181036000830152614602816145c6565b9050919050565b7f455243373231413a20617070726f76616c20746f2063757272656e74206f776e60008201527f6572000000000000000000000000000000000000000000000000000000000000602082015250565b6000614665602283613b6d565b915061467082614609565b604082019050919050565b6000602082019050818103600083015261469481614658565b9050919050565b7f455243373231413a20617070726f76652063616c6c6572206973206e6f74206f60008201527f776e6572206e6f7220617070726f76656420666f7220616c6c00000000000000602082015250565b60006146f7603983613b6d565b91506147028261469b565b604082019050919050565b60006020820190508181036000830152614726816146ea565b9050919050565b7f4f776e61626c653a2063616c6c6572206973206e6f7420746865206f776e6572600082015250565b6000614763602083613b6d565b915061476e8261472d565b602082019050919050565b6000602082019050818103600083015261479281614756565b9050919050565b7f5265656e7472616e637947756172643a207265656e7472616e742063616c6c00600082015250565b60006147cf601f83613b6d565b91506147da82614799565b602082019050919050565b600060208201905081810360008301526147fe816147c2565b9050919050565b7f455243373231413a206f776e657220696e646578206f7574206f6620626f756e60008201527f6473000000000000000000000000000000000000000000000000000000000000602082015250565b6000614861602283613b6d565b915061486c82614805565b604082019050919050565b6000602082019050818103600083015261489081614854565b9050919050565b7f4e487b7100000000000000000000000000000000000000000000000000000000600052601160045260246000fd5b60006148d182613c1d565b91507fffffffffffffffffffffffffffffffffffffffffffffffffffffffffffffffff82141561490457614903614897565b5b600182019050919050565b7f455243373231413a20756e61626c6520746f2067657420746f6b656e206f662060008201527f6f776e657220627920696e646578000000000000000000000000000000000000602082015250565b600061496b602e83613b6d565b91506149768261490f565b604082019050919050565b6000602082019050818103600083015261499a8161495e565b9050919050565b7f455243373231413a206e756d626572206d696e74656420717565727920666f7260008201527f20746865207a65726f2061646472657373000000000000000000000000000000602082015250565b60006149fd603183613b6d565b9150614a08826149a1565b604082019050919050565b60006020820190508181036000830152614a2c816149f0565b9050919050565b7f455243373231413a20676c6f62616c20696e646578206f7574206f6620626f7560008201527f6e64730000000000000000000000000000000000000000000000000000000000602082015250565b6000614a8f602383613b6d565b9150614a9a82614a33565b604082019050919050565b60006020820190508181036000830152614abe81614a82565b9050919050565b6000614ad082613c1d565b9150614adb83613c1d565b9250817fffffffffffffffffffffffffffffffffffffffffffffffffffffffffffffffff0483118215151615614b1457614b13614897565b5b828202905092915050565b7f4e487b7100000000000000000000000000000000000000000000000000000000600052601260045260246000fd5b6000614b5982613c1d565b9150614b6483613c1d565b925082614b7457614b73614b1f565b5b828204905092915050565b600081905092915050565b50565b6000614b9a600083614b7f565b9150614ba582614b8a565b600082019050919050565b6000614bbb82614b8d565b9150819050919050565b7f455243373231413a2062616c616e636520717565727920666f7220746865207a60008201527f65726f2061646472657373000000000000000000000000000000000000000000602082015250565b6000614c21602b83613b6d565b9150614c2c82614bc5565b604082019050919050565b60006020820190508181036000830152614c5081614c14565b9050919050565b7f455243373231413a20617070726f766520746f2063616c6c6572000000000000600082015250565b6000614c8d601a83613b6d565b9150614c9882614c57565b602082019050919050565b60006020820190508181036000830152614cbc81614c80565b9050919050565b7f61646472657373657320646f6573206e6f74206d61746368206e756d536c6f7460008201527f73206c656e677468000000000000000000000000000000000000000000000000602082015250565b6000614d1f602883613b6d565b9150614d2a82614cc3565b604082019050919050565b60006020820190508181036000830152614d4e81614d12565b9050919050565b7f4e487b7100000000000000000000000000000000000000000000000000000000600052603260045260246000fd5b7f5468652063616c6c657220697320616e6f7468657220636f6e74726163740000600082015250565b6000614dba601e83613b6d565b9150614dc582614d84565b602082019050919050565b60006020820190508181036000830152614de981614dad565b9050919050565b6000614dfb82613c1d565b9150614e0683613c1d565b9250827fffffffffffffffffffffffffffffffffffffffffffffffffffffffffffffffff03821115614e3b57614e3a614897565b5b828201905092915050565b7f6578636565646564206d617820737570706c7900000000000000000000000000600082015250565b6000614e7c601383613b6d565b9150614e8782614e46565b602082019050919050565b60006020820190508181036000830152614eab81614e6f565b9050919050565b7f7075626c69632073616c65206d696e74696e67206c696d69742065786365656460008201527f6564000000000000000000000000000000000000000000000000000000000000602082015250565b6000614f0e602283613b6d565b9150614f1982614eb2565b604082019050919050565b60006020820190508181036000830152614f3d81614f01565b9050919050565b7f4e65656420746f2073656e64206d6f7265204554480000000000000000000000600082015250565b6000614f7a601583613b6d565b9150614f8582614f44565b602082019050919050565b60006020820190508181036000830152614fa981614f6d565b9050919050565b7f455243373231413a207472616e7366657220746f206e6f6e204552433732315260008201527f6563656976657220696d706c656d656e74657200000000000000000000000000602082015250565b600061500c603383613b6d565b915061501782614fb0565b604082019050919050565b6000602082019050818103600083015261503b81614fff565b9050919050565b7f6e6f7420656c696769626c6520666f722077686974656c697374206d696e7400600082015250565b6000615078601f83613b6d565b915061508382615042565b602082019050919050565b600060208201905081810360008301526150a78161506b565b9050919050565b7f6d696e7420616d6f756e7420657863656564732077686974656c697374000000600082015250565b60006150e4601d83613b6d565b91506150ef826150ae565b602082019050919050565b60006020820190508181036000830152615113816150d7565b9050919050565b600061512582613c1d565b915061513083613c1d565b92508282101561514357615142614897565b5b828203905092915050565b7f4552433732314d657461646174613a2055524920717565727920666f72206e6f60008201527f6e6578697374656e7420746f6b656e0000000000000000000000000000000000602082015250565b60006151aa602f83613b6d565b91506151b58261514e565b604082019050919050565b600060208201905081810360008301526151d98161519d565b9050919050565b600081905092915050565b60006151f682613b62565b61520081856151e0565b9350615210818560208601613b7e565b80840191505092915050565b600061522882856151eb565b915061523482846151eb565b91508190509392505050565b7f746f6f206d616e7920616c7265616479206d696e746564206265666f7265206460008201527f6576206d696e7400000000000000000000000000000000000000000000000000602082015250565b600061529c602783613b6d565b91506152a782615240565b604082019050919050565b600060208201905081810360008301526152cb8161528f565b9050919050565b7f4f776e61626c653a206e6577206f776e657220697320746865207a65726f206160008201527f6464726573730000000000000000000000000000000000000000000000000000602082015250565b600061532e602683613b6d565b9150615339826152d2565b604082019050919050565b6000602082019050818103600083015261535d81615321565b9050919050565b7f455243373231413a207472616e736665722063616c6c6572206973206e6f742060008201527f6f776e6572206e6f7220617070726f7665640000000000000000000000000000602082015250565b60006153c0603283613b6d565b91506153cb82615364565b604082019050919050565b600060208201905081810360008301526153ef816153b3565b9050919050565b7f455243373231413a207472616e736665722066726f6d20696e636f727265637460008201527f206f776e65720000000000000000000000000000000000000000000000000000602082015250565b6000615452602683613b6d565b915061545d826153f6565b604082019050919050565b6000602082019050818103600083015261548181615445565b9050919050565b7f455243373231413a207472616e7366657220746f20746865207a65726f20616460008201527f6472657373000000000000000000000000000000000000000000000000000000602082015250565b60006154e4602583613b6d565b91506154ef82615488565b604082019050919050565b60006020820190508181036000830152615513816154d7565b9050919050565b60006fffffffffffffffffffffffffffffffff82169050919050565b60006155418261551a565b915061554c8361551a565b92508282101561555f5761555e614897565b5b828203905092915050565b60006155758261551a565b91506155808361551a565b9250826fffffffffffffffffffffffffffffffff038211156155a5576155a4614897565b5b828201905092915050565b7f7175616e74697479206d757374206265206e6f6e7a65726f0000000000000000600082015250565b60006155e6601883613b6d565b91506155f1826155b0565b602082019050919050565b60006020820190508181036000830152615615816155d9565b9050919050565b7f6e6f7420656e6f756768206d696e7465642079657420666f722074686973206360008201527f6c65616e75700000000000000000000000000000000000000000000000000000602082015250565b6000615678602683613b6d565b91506156838261561c565b604082019050919050565b600060208201905081810360008301526156a78161566b565b9050919050565b7f455243373231413a206f776e657220717565727920666f72206e6f6e6578697360008201527f74656e7420746f6b656e00000000000000000000000000000000000000000000602082015250565b600061570a602a83613b6d565b9150615715826156ae565b604082019050919050565b60006020820190508181036000830152615739816156fd565b9050919050565b600061574b82613c1d565b9150600082141561575f5761575e614897565b5b600182039050919050565b7f455243373231413a20756e61626c6520746f2064657465726d696e652074686560008201527f206f776e6572206f6620746f6b656e0000000000000000000000000000000000602082015250565b60006157c6602f83613b6d565b91506157d18261576a565b604082019050919050565b600060208201905081810360008301526157f5816157b9565b9050919050565b600081519050919050565b600082825260208201905092915050565b6000615823826157fc565b61582d8185615807565b935061583d818560208601613b7e565b61584681613bb1565b840191505092915050565b60006080820190506158666000830187613cb2565b6158736020830186613cb2565b6158806040830185613d48565b81810360608301526158928184615818565b905095945050505050565b6000815190506158ac81613ad3565b92915050565b6000602082840312156158c8576158c7613a9d565b5b60006158d68482850161589d565b91505092915050565b60006158ea82613c1d565b91506158f583613c1d565b92508261590557615904614b1f565b5b828206905092915050565b7f455243373231413a206d696e7420746f20746865207a65726f2061646472657360008201527f7300000000000000000000000000000000000000000000000000000000000000602082015250565b600061596c602183613b6d565b915061597782615910565b604082019050919050565b6000602082019050818103600083015261599b8161595f565b9050919050565b7f455243373231413a20746f6b656e20616c7265616479206d696e746564000000600082015250565b60006159d8601d83613b6d565b91506159e3826159a2565b602082019050919050565b60006020820190508181036000830152615a07816159cb565b9050919050565b7f455243373231413a207175616e7469747920746f206d696e7420746f6f20686960008201527f6768000000000000000000000000000000000000000000000000000000000000602082015250565b6000615a6a602283613b6d565b9150615a7582615a0e565b604082019050919050565b60006020820190508181036000830152615a9981615a5d565b905091905056fea264697066735822122095f881408217566aaf2a411b64d2a0e717d2765a9e6786c7f5ff92bbdca1e19464736f6c63430008090033",
  "immutableReferences": {
    "936": [
      {
        "length": 32,
        "start": 6746
      },
      {
        "length": 32,
        "start": 7462
      },
      {
        "length": 32,
        "start": 11024
      },
      {
        "length": 32,
        "start": 11076
      }
    ],
    "938": [
      {
        "length": 32,
        "start": 11656
      },
      {
        "length": 32,
        "start": 11697
      },
      {
        "length": 32,
        "start": 13586
      }
    ],
    "2106": [
      {
        "length": 32,
        "start": 6863
      },
      {
        "length": 32,
        "start": 8199
      }
    ],
    "2109": [
      {
        "length": 32,
        "start": 6240
      },
      {
        "length": 32,
        "start": 7579
      }
    ],
    "2111": [
      {
        "length": 32,
        "start": 8359
      },
      {
        "length": 32,
        "start": 9094
      }
    ],
    "2113": [
      {
        "length": 32,
        "start": 7082
      }
    ]
  },
  "source": "// SPDX-License-Identifier: MIT\n\npragma solidity ^0.8.0;\n\nimport \"@openzeppelin/contracts/access/Ownable.sol\";\nimport \"@openzeppelin/contracts/security/ReentrancyGuard.sol\";\nimport \"./ERC721A.sol\";\nimport \"@openzeppelin/contracts/utils/Strings.sol\";\n\ncontract YetiPunks is Ownable, ERC721A, ReentrancyGuard {\n    using Strings for uint256;\n\n    uint256 public immutable maxPerAddressDuringPublicSale;\n    uint256 public immutable maxPerAddressDuringPresale = 3;\n    uint256 public immutable amountForDevs;\n    uint256 public immutable amountForGiveaway;\n    string public notRevealedUri;\n\n    mapping(address => uint256) public allowlist; //seed this with the uint being 3\n\n    constructor(\n        uint256 maxBatchSize_,\n        uint256 collectionSize_,\n        uint256 amountForGiveaway_,\n        uint256 amountForDevs_,\n        string memory _initNotRevealedUri\n    ) ERC721A(\"Petty Monks\", \"PM\", maxBatchSize_, collectionSize_) {\n        maxPerAddressDuringPublicSale = maxBatchSize_;\n        amountForGiveaway = amountForGiveaway_;\n        amountForDevs = amountForDevs_;\n        require(\n            amountForGiveaway_ <= collectionSize_,\n            \"larger collection size needed\"\n        );\n        setNotRevealedURI(_initNotRevealedUri);\n        address[] memory devAddresses = new address[](3);\n        devAddresses[0] = 0xD61ADc48afE9402B4411805Ce6026eF74F94E713;\n        devAddresses[1] = 0xE3Ce04B3BcbdFa219407870Ca617e18fBF503F28;\n        devAddresses[2] = 0x49Cf0aF1cE6a50e822A91a427B3E29007f9C6C09;\n        devMint(devAddresses, 7);\n    }\n\n    modifier callerIsUser() {\n        require(tx.origin == msg.sender, \"The caller is another contract\");\n        _;\n    }\n\n    function allowlistMint(uint256 quantity) external payable callerIsUser {\n        uint256 price = 0.024 ether;\n        require(allowlist[msg.sender] > 0, \"not eligible for whitelist mint\");\n        require(\n            totalSupply() + quantity <= collectionSize,\n            \"exceeded max supply\"\n        ); //is this possible?\n        require(\n            numberMinted(msg.sender) + quantity <= maxPerAddressDuringPresale,\n            \"mint amount exceeds whitelist\"\n        );\n        require(msg.value >= price, \"Need to send more ETH\");\n        allowlist[msg.sender] -= quantity;\n        _safeMint(msg.sender, quantity);\n        refundIfOver(price * quantity);\n    }\n\n    function publicSaleMint(uint256 quantity) external payable callerIsUser {\n        uint256 publicPrice = 0.024 ether;\n        require(\n            totalSupply() + quantity <= collectionSize,\n            \"exceeded max supply\"\n        );\n        require(\n            numberMinted(msg.sender) + quantity <=\n                maxPerAddressDuringPublicSale,\n            \"public sale minting limit exceeded\"\n        );\n        require(msg.value >= publicPrice, \"Need to send more ETH\");\n        _safeMint(msg.sender, quantity);\n        refundIfOver(publicPrice * quantity);\n    }\n\n    function refundIfOver(uint256 price) private {\n        require(msg.value >= price, \"Need to send more ETH\");\n        if (msg.value > price) {\n            payable(msg.sender).transfer(msg.value - price);\n        }\n    }\n\n    function isPublicSaleOn(\n        uint256 publicPriceWei,\n        uint256 publicSaleKey,\n        uint256 publicSaleStartTime\n    ) public view returns (bool) {\n        return\n            publicPriceWei != 0 &&\n            publicSaleKey != 0 &&\n            block.timestamp >= publicSaleStartTime;\n    }\n\n    function seedAllowlist(\n        address[] memory addresses,\n        uint256[] memory numSlots\n    ) external onlyOwner {\n        require(\n            addresses.length == numSlots.length,\n            \"addresses does not match numSlots length\"\n        );\n        for (uint256 i = 0; i < addresses.length; i++) {\n            allowlist[addresses[i]] = numSlots[i];\n        }\n    }\n\n    // For marketing etc.\n    function devMint(address[] memory receiverAddresses, uint256 mintAmount)\n        public\n        onlyOwner\n    {\n        require(\n            totalSupply() + mintAmount <= amountForDevs,\n            \"too many already minted before dev mint\"\n        );\n\n        for (uint256 i = 0; i < receiverAddresses.length; i++) {\n            _safeMint(receiverAddresses[i], mintAmount);\n        }\n    }\n\n    // metadata URI\n    string private _baseTokenURI;\n\n    function _baseURI() internal view virtual override returns (string memory) {\n        return _baseTokenURI;\n    }\n\n    function setNotRevealedURI(string memory _notRevealedURI) public onlyOwner {\n        notRevealedUri = _notRevealedURI;\n    }\n\n    function setBaseURI(string calldata baseURI) external onlyOwner {\n        _baseTokenURI = baseURI;\n    }\n\n    /**\n     * @dev See {IERC721Metadata-tokenURI}.\n     */\n    function tokenURI(uint256 tokenId)\n        public\n        view\n        virtual\n        override\n        onlyOwner\n        returns (string memory)\n    {\n        require(\n            _exists(tokenId),\n            \"ERC721Metadata: URI query for nonexistent token\"\n        );\n\n        string memory baseURI = _baseURI();\n        return\n            bytes(baseURI).length > 0\n                ? string(abi.encodePacked(baseURI, tokenId.toString()))\n                : \"\";\n    }\n\n    function withdrawBalance() public onlyOwner {\n        uint256 oneThird = (address(this).balance * 33) / 100;\n        (bool manduSuccess, ) = payable(\n            0xD61ADc48afE9402B4411805Ce6026eF74F94E713\n        ).call{value: oneThird}(\"\");\n        require(manduSuccess);\n        (bool tenzingSuccess, ) = payable(\n            0xE3Ce04B3BcbdFa219407870Ca617e18fBF503F28\n        ).call{value: oneThird}(\"\");\n        require(tenzingSuccess);\n        (bool tokiMoriSuccess, ) = payable(\n            0x49Cf0aF1cE6a50e822A91a427B3E29007f9C6C09\n        ).call{value: address(this).balance}(\"\");\n        require(tokiMoriSuccess);\n    }\n\n    function setOwnersExplicit(uint256 quantity)\n        external\n        onlyOwner\n        nonReentrant\n    {\n        _setOwnersExplicit(quantity);\n    }\n\n    function numberMinted(address owner) public view returns (uint256) {\n        return _numberMinted(owner);\n    }\n\n    function getOwnershipData(uint256 tokenId)\n        external\n        view\n        returns (TokenOwnership memory)\n    {\n        return ownershipOf(tokenId);\n    }\n}\n",
  "sourcePath": "/Users/christopherfoley/nft/YetiPunks/src/contracts/YetiPunks.sol",
  "compiler": {
    "name": "solc",
    "version": "0.8.9+commit.e5eed63a.Emscripten.clang"
  },
  "schemaVersion": "3.4.4",
  "updatedAt": "2022-02-13T22:07:26.122Z",
  "networkType": "ethereum",
  "devdoc": {
    "kind": "dev",
    "methods": {
      "approve(address,uint256)": {
        "details": "See {IERC721-approve}."
      },
      "balanceOf(address)": {
        "details": "See {IERC721-balanceOf}."
      },
      "getApproved(uint256)": {
        "details": "See {IERC721-getApproved}."
      },
      "isApprovedForAll(address,address)": {
        "details": "See {IERC721-isApprovedForAll}."
      },
      "name()": {
        "details": "See {IERC721Metadata-name}."
      },
      "owner()": {
        "details": "Returns the address of the current owner."
      },
      "ownerOf(uint256)": {
        "details": "See {IERC721-ownerOf}."
      },
      "renounceOwnership()": {
        "details": "Leaves the contract without owner. It will not be possible to call `onlyOwner` functions anymore. Can only be called by the current owner. NOTE: Renouncing ownership will leave the contract without an owner, thereby removing any functionality that is only available to the owner."
      },
      "safeTransferFrom(address,address,uint256)": {
        "details": "See {IERC721-safeTransferFrom}."
      },
      "safeTransferFrom(address,address,uint256,bytes)": {
        "details": "See {IERC721-safeTransferFrom}."
      },
      "setApprovalForAll(address,bool)": {
        "details": "See {IERC721-setApprovalForAll}."
      },
      "supportsInterface(bytes4)": {
        "details": "See {IERC165-supportsInterface}."
      },
      "symbol()": {
        "details": "See {IERC721Metadata-symbol}."
      },
      "tokenByIndex(uint256)": {
        "details": "See {IERC721Enumerable-tokenByIndex}."
      },
      "tokenOfOwnerByIndex(address,uint256)": {
        "details": "See {IERC721Enumerable-tokenOfOwnerByIndex}. This read function is O(collectionSize). If calling from a separate contract, be sure to test gas first. It may also degrade with extremely large collection sizes (e.g >> 10000), test for your use case."
      },
      "tokenURI(uint256)": {
        "details": "See {IERC721Metadata-tokenURI}."
      },
      "totalSupply()": {
        "details": "See {IERC721Enumerable-totalSupply}."
      },
      "transferFrom(address,address,uint256)": {
        "details": "See {IERC721-transferFrom}."
      },
      "transferOwnership(address)": {
        "details": "Transfers ownership of the contract to a new account (`newOwner`). Can only be called by the current owner."
      }
    },
    "version": 1
  },
  "userdoc": {
    "kind": "user",
    "methods": {},
    "version": 1
  }
}