{
  "contractName": "YetiPunks",
  "abi": [
    {
      "inputs": [
        {
          "internalType": "string",
          "name": "_name",
          "type": "string"
        },
        {
          "internalType": "string",
          "name": "_symbol",
          "type": "string"
        }
      ],
      "stateMutability": "nonpayable",
      "type": "constructor"
    },
    {
      "anonymous": false,
      "inputs": [
        {
          "indexed": true,
          "internalType": "address",
          "name": "owner",
          "type": "address"
        },
        {
          "indexed": true,
          "internalType": "address",
          "name": "approved",
          "type": "address"
        },
        {
          "indexed": true,
          "internalType": "uint256",
          "name": "tokenId",
          "type": "uint256"
        }
      ],
      "name": "Approval",
      "type": "event"
    },
    {
      "anonymous": false,
      "inputs": [
        {
          "indexed": true,
          "internalType": "address",
          "name": "owner",
          "type": "address"
        },
        {
          "indexed": true,
          "internalType": "address",
          "name": "operator",
          "type": "address"
        },
        {
          "indexed": false,
          "internalType": "bool",
          "name": "approved",
          "type": "bool"
        }
      ],
      "name": "ApprovalForAll",
      "type": "event"
    },
    {
      "anonymous": false,
      "inputs": [
        {
          "indexed": true,
          "internalType": "address",
          "name": "previousOwner",
          "type": "address"
        },
        {
          "indexed": true,
          "internalType": "address",
          "name": "newOwner",
          "type": "address"
        }
      ],
      "name": "OwnershipTransferred",
      "type": "event"
    },
    {
      "anonymous": false,
      "inputs": [
        {
          "indexed": true,
          "internalType": "address",
          "name": "from",
          "type": "address"
        },
        {
          "indexed": true,
          "internalType": "address",
          "name": "to",
          "type": "address"
        },
        {
          "indexed": true,
          "internalType": "uint256",
          "name": "tokenId",
          "type": "uint256"
        }
      ],
      "name": "Transfer",
      "type": "event"
    },
    {
      "inputs": [],
      "name": "MAX_SUPPLY",
      "outputs": [
        {
          "internalType": "uint256",
          "name": "",
          "type": "uint256"
        }
      ],
      "stateMutability": "view",
      "type": "function",
      "constant": true
    },
    {
      "inputs": [
        {
          "internalType": "address",
          "name": "to",
          "type": "address"
        },
        {
          "internalType": "uint256",
          "name": "tokenId",
          "type": "uint256"
        }
      ],
      "name": "approve",
      "outputs": [],
      "stateMutability": "nonpayable",
      "type": "function"
    },
    {
      "inputs": [
        {
          "internalType": "address",
          "name": "owner",
          "type": "address"
        }
      ],
      "name": "balanceOf",
      "outputs": [
        {
          "internalType": "uint256",
          "name": "",
          "type": "uint256"
        }
      ],
      "stateMutability": "view",
      "type": "function",
      "constant": true
    },
    {
      "inputs": [],
      "name": "cost",
      "outputs": [
        {
          "internalType": "uint256",
          "name": "",
          "type": "uint256"
        }
      ],
      "stateMutability": "view",
      "type": "function",
      "constant": true
    },
    {
      "inputs": [
        {
          "internalType": "uint256",
          "name": "tokenId",
          "type": "uint256"
        }
      ],
      "name": "getApproved",
      "outputs": [
        {
          "internalType": "address",
          "name": "",
          "type": "address"
        }
      ],
      "stateMutability": "view",
      "type": "function",
      "constant": true
    },
    {
      "inputs": [
        {
          "internalType": "address",
          "name": "owner",
          "type": "address"
        },
        {
          "internalType": "address",
          "name": "operator",
          "type": "address"
        }
      ],
      "name": "isApprovedForAll",
      "outputs": [
        {
          "internalType": "bool",
          "name": "",
          "type": "bool"
        }
      ],
      "stateMutability": "view",
      "type": "function",
      "constant": true
    },
    {
      "inputs": [],
      "name": "name",
      "outputs": [
        {
          "internalType": "string",
          "name": "",
          "type": "string"
        }
      ],
      "stateMutability": "view",
      "type": "function",
      "constant": true
    },
    {
      "inputs": [],
      "name": "owner",
      "outputs": [
        {
          "internalType": "address",
          "name": "",
          "type": "address"
        }
      ],
      "stateMutability": "view",
      "type": "function",
      "constant": true
    },
    {
      "inputs": [
        {
          "internalType": "uint256",
          "name": "tokenId",
          "type": "uint256"
        }
      ],
      "name": "ownerOf",
      "outputs": [
        {
          "internalType": "address",
          "name": "",
          "type": "address"
        }
      ],
      "stateMutability": "view",
      "type": "function",
      "constant": true
    },
    {
      "inputs": [],
      "name": "renounceOwnership",
      "outputs": [],
      "stateMutability": "nonpayable",
      "type": "function"
    },
    {
      "inputs": [
        {
          "internalType": "address",
          "name": "from",
          "type": "address"
        },
        {
          "internalType": "address",
          "name": "to",
          "type": "address"
        },
        {
          "internalType": "uint256",
          "name": "tokenId",
          "type": "uint256"
        }
      ],
      "name": "safeTransferFrom",
      "outputs": [],
      "stateMutability": "nonpayable",
      "type": "function"
    },
    {
      "inputs": [
        {
          "internalType": "address",
          "name": "from",
          "type": "address"
        },
        {
          "internalType": "address",
          "name": "to",
          "type": "address"
        },
        {
          "internalType": "uint256",
          "name": "tokenId",
          "type": "uint256"
        },
        {
          "internalType": "bytes",
          "name": "_data",
          "type": "bytes"
        }
      ],
      "name": "safeTransferFrom",
      "outputs": [],
      "stateMutability": "nonpayable",
      "type": "function"
    },
    {
      "inputs": [],
      "name": "saleIsActive",
      "outputs": [
        {
          "internalType": "bool",
          "name": "",
          "type": "bool"
        }
      ],
      "stateMutability": "view",
      "type": "function",
      "constant": true
    },
    {
      "inputs": [
        {
          "internalType": "address",
          "name": "operator",
          "type": "address"
        },
        {
          "internalType": "bool",
          "name": "approved",
          "type": "bool"
        }
      ],
      "name": "setApprovalForAll",
      "outputs": [],
      "stateMutability": "nonpayable",
      "type": "function"
    },
    {
      "inputs": [
        {
          "internalType": "bytes4",
          "name": "interfaceId",
          "type": "bytes4"
        }
      ],
      "name": "supportsInterface",
      "outputs": [
        {
          "internalType": "bool",
          "name": "",
          "type": "bool"
        }
      ],
      "stateMutability": "view",
      "type": "function",
      "constant": true
    },
    {
      "inputs": [],
      "name": "symbol",
      "outputs": [
        {
          "internalType": "string",
          "name": "",
          "type": "string"
        }
      ],
      "stateMutability": "view",
      "type": "function",
      "constant": true
    },
    {
      "inputs": [
        {
          "internalType": "uint256",
          "name": "tokenId",
          "type": "uint256"
        }
      ],
      "name": "tokenURI",
      "outputs": [
        {
          "internalType": "string",
          "name": "",
          "type": "string"
        }
      ],
      "stateMutability": "view",
      "type": "function",
      "constant": true
    },
    {
      "inputs": [
        {
          "internalType": "address",
          "name": "from",
          "type": "address"
        },
        {
          "internalType": "address",
          "name": "to",
          "type": "address"
        },
        {
          "internalType": "uint256",
          "name": "tokenId",
          "type": "uint256"
        }
      ],
      "name": "transferFrom",
      "outputs": [],
      "stateMutability": "nonpayable",
      "type": "function"
    },
    {
      "inputs": [
        {
          "internalType": "address",
          "name": "newOwner",
          "type": "address"
        }
      ],
      "name": "transferOwnership",
      "outputs": [],
      "stateMutability": "nonpayable",
      "type": "function"
    },
    {
      "inputs": [],
      "name": "mint",
      "outputs": [],
      "stateMutability": "payable",
      "type": "function",
      "payable": true
    },
    {
      "inputs": [],
      "name": "remainingSupply",
      "outputs": [
        {
          "internalType": "uint256",
          "name": "",
          "type": "uint256"
        }
      ],
      "stateMutability": "view",
      "type": "function",
      "constant": true
    },
    {
      "inputs": [],
      "name": "tokenSupply",
      "outputs": [
        {
          "internalType": "uint256",
          "name": "",
          "type": "uint256"
        }
      ],
      "stateMutability": "view",
      "type": "function",
      "constant": true
    },
    {
      "inputs": [
        {
          "internalType": "string",
          "name": "baseURI",
          "type": "string"
        }
      ],
      "name": "setBaseURI",
      "outputs": [],
      "stateMutability": "nonpayable",
      "type": "function"
    },
    {
      "inputs": [],
      "name": "toggleSale",
      "outputs": [],
      "stateMutability": "nonpayable",
      "type": "function"
    },
    {
      "inputs": [],
      "name": "withdrawBalance",
      "outputs": [],
      "stateMutability": "nonpayable",
      "type": "function"
    }
  ],
  "bytecode": "0x6080604052666a94d74f4300006008556000600960006101000a81548160ff0219169083151502179055503480156200003757600080fd5b50604051620038e2380380620038e283398181016040528101906200005d9190620003d6565b818181600090805190602001906200007792919062000189565b5080600190805190602001906200009092919062000189565b505050620000b3620000a7620000bb60201b60201c565b620000c360201b60201c565b5050620004c0565b600033905090565b6000600660009054906101000a900473ffffffffffffffffffffffffffffffffffffffff16905081600660006101000a81548173ffffffffffffffffffffffffffffffffffffffff021916908373ffffffffffffffffffffffffffffffffffffffff1602179055508173ffffffffffffffffffffffffffffffffffffffff168173ffffffffffffffffffffffffffffffffffffffff167f8be0079c531659141344cd1fd0a4f28419497f9722a3daafe3b4186f6b6457e060405160405180910390a35050565b82805462000197906200048a565b90600052602060002090601f016020900481019282620001bb576000855562000207565b82601f10620001d657805160ff191683800117855562000207565b8280016001018555821562000207579182015b8281111562000206578251825591602001919060010190620001e9565b5b5090506200021691906200021a565b5090565b5b80821115620002355760008160009055506001016200021b565b5090565b6000604051905090565b600080fd5b600080fd5b600080fd5b600080fd5b6000601f19601f8301169050919050565b7f4e487b7100000000000000000000000000000000000000000000000000000000600052604160045260246000fd5b620002a28262000257565b810181811067ffffffffffffffff82111715620002c457620002c362000268565b5b80604052505050565b6000620002d962000239565b9050620002e7828262000297565b919050565b600067ffffffffffffffff8211156200030a576200030962000268565b5b620003158262000257565b9050602081019050919050565b60005b838110156200034257808201518184015260208101905062000325565b8381111562000352576000848401525b50505050565b60006200036f6200036984620002ec565b620002cd565b9050828152602081018484840111156200038e576200038d62000252565b5b6200039b84828562000322565b509392505050565b600082601f830112620003bb57620003ba6200024d565b5b8151620003cd84826020860162000358565b91505092915050565b60008060408385031215620003f057620003ef62000243565b5b600083015167ffffffffffffffff81111562000411576200041062000248565b5b6200041f85828601620003a3565b925050602083015167ffffffffffffffff81111562000443576200044262000248565b5b6200045185828601620003a3565b9150509250929050565b7f4e487b7100000000000000000000000000000000000000000000000000000000600052602260045260246000fd5b60006002820490506001821680620004a357607f821691505b60208210811415620004ba57620004b96200045b565b5b50919050565b61341280620004d06000396000f3fe6080604052600436106101665760003560e01c806370a08231116100d1578063a22cb4651161008a578063da0239a611610064578063da0239a6146104e3578063e985e9c51461050e578063eb8d24441461054b578063f2fde38b1461057657610166565b8063a22cb46514610454578063b88d4fde1461047d578063c87b56dd146104a657610166565b806370a0823114610368578063715018a6146103a55780637824407f146103bc5780637d8966e4146103e75780638da5cb5b146103fe57806395d89b411461042957610166565b806323b872dd1161012357806323b872dd1461026e57806332cb6b0c1461029757806342842e0e146102c257806355f804b3146102eb5780635fd8c710146103145780636352211e1461032b57610166565b806301ffc9a71461016b57806306fdde03146101a8578063081812fc146101d3578063095ea7b3146102105780631249c58b1461023957806313faede614610243575b600080fd5b34801561017757600080fd5b50610192600480360381019061018d9190612069565b61059f565b60405161019f91906120b1565b60405180910390f35b3480156101b457600080fd5b506101bd610681565b6040516101ca9190612165565b60405180910390f35b3480156101df57600080fd5b506101fa60048036038101906101f591906121bd565b610713565b604051610207919061222b565b60405180910390f35b34801561021c57600080fd5b5061023760048036038101906102329190612272565b610798565b005b6102416108b0565b005b34801561024f57600080fd5b506102586109c5565b60405161026591906122c1565b60405180910390f35b34801561027a57600080fd5b50610295600480360381019061029091906122dc565b6109cb565b005b3480156102a357600080fd5b506102ac610a2b565b6040516102b991906122c1565b60405180910390f35b3480156102ce57600080fd5b506102e960048036038101906102e491906122dc565b610a31565b005b3480156102f757600080fd5b50610312600480360381019061030d9190612464565b610a51565b005b34801561032057600080fd5b50610329610ae7565b005b34801561033757600080fd5b50610352600480360381019061034d91906121bd565b610bac565b60405161035f919061222b565b60405180910390f35b34801561037457600080fd5b5061038f600480360381019061038a91906124ad565b610c5e565b60405161039c91906122c1565b60405180910390f35b3480156103b157600080fd5b506103ba610d16565b005b3480156103c857600080fd5b506103d1610d9e565b6040516103de91906122c1565b60405180910390f35b3480156103f357600080fd5b506103fc610daf565b005b34801561040a57600080fd5b50610413610e57565b604051610420919061222b565b60405180910390f35b34801561043557600080fd5b5061043e610e81565b60405161044b9190612165565b60405180910390f35b34801561046057600080fd5b5061047b60048036038101906104769190612506565b610f13565b005b34801561048957600080fd5b506104a4600480360381019061049f91906125e7565b611094565b005b3480156104b257600080fd5b506104cd60048036038101906104c891906121bd565b6110f6565b6040516104da9190612165565b60405180910390f35b3480156104ef57600080fd5b506104f861119d565b60405161050591906122c1565b60405180910390f35b34801561051a57600080fd5b506105356004803603810190610530919061266a565b6111bb565b60405161054291906120b1565b60405180910390f35b34801561055757600080fd5b5061056061124f565b60405161056d91906120b1565b60405180910390f35b34801561058257600080fd5b5061059d600480360381019061059891906124ad565b611262565b005b60007f80ac58cd000000000000000000000000000000000000000000000000000000007bffffffffffffffffffffffffffffffffffffffffffffffffffffffff1916827bffffffffffffffffffffffffffffffffffffffffffffffffffffffff1916148061066a57507f5b5e139f000000000000000000000000000000000000000000000000000000007bffffffffffffffffffffffffffffffffffffffffffffffffffffffff1916827bffffffffffffffffffffffffffffffffffffffffffffffffffffffff1916145b8061067a57506106798261135a565b5b9050919050565b606060008054610690906126d9565b80601f01602080910402602001604051908101604052809291908181526020018280546106bc906126d9565b80156107095780601f106106de57610100808354040283529160200191610709565b820191906000526020600020905b8154815290600101906020018083116106ec57829003601f168201915b5050505050905090565b600061071e826113c4565b61075d576040517f08c379a00000000000000000000000000000000000000000000000000000000081526004016107549061277d565b60405180910390fd5b6004600083815260200190815260200160002060009054906101000a900473ffffffffffffffffffffffffffffffffffffffff169050919050565b60006107a382610bac565b90508073ffffffffffffffffffffffffffffffffffffffff168373ffffffffffffffffffffffffffffffffffffffff161415610814576040517f08c379a000000000000000000000000000000000000000000000000000000000815260040161080b9061280f565b60405180910390fd5b8073ffffffffffffffffffffffffffffffffffffffff16610833611430565b73ffffffffffffffffffffffffffffffffffffffff16148061086257506108618161085c611430565b6111bb565b5b6108a1576040517f08c379a0000000000000000000000000000000000000000000000000000000008152600401610898906128a1565b60405180910390fd5b6108ab8383611438565b505050565b600960009054906101000a900460ff166108ff576040517f08c379a00000000000000000000000000000000000000000000000000000000081526004016108f69061290d565b60405180910390fd5b6000600161090d60076114f1565b610917919061295c565b905061138881111561095e576040517f08c379a0000000000000000000000000000000000000000000000000000000008152600401610955906129fe565b60405180910390fd5b6000666a94d74f4300009050803410156109ad576040517f08c379a00000000000000000000000000000000000000000000000000000000081526004016109a490612a6a565b60405180910390fd5b6109b760076114ff565b6109c13383611515565b5050565b60085481565b6109dc6109d6611430565b82611533565b610a1b576040517f08c379a0000000000000000000000000000000000000000000000000000000008152600401610a1290612afc565b60405180910390fd5b610a26838383611611565b505050565b61138881565b610a4c83838360405180602001604052806000815250611094565b505050565b610a59611430565b73ffffffffffffffffffffffffffffffffffffffff16610a77610e57565b73ffffffffffffffffffffffffffffffffffffffff1614610acd576040517f08c379a0000000000000000000000000000000000000000000000000000000008152600401610ac490612b68565b60405180910390fd5b80600a9080519060200190610ae3929190611f5a565b5050565b610aef611430565b73ffffffffffffffffffffffffffffffffffffffff16610b0d610e57565b73ffffffffffffffffffffffffffffffffffffffff1614610b63576040517f08c379a0000000000000000000000000000000000000000000000000000000008152600401610b5a90612b68565b60405180910390fd5b3373ffffffffffffffffffffffffffffffffffffffff166108fc479081150290604051600060405180830381858888f19350505050158015610ba9573d6000803e3d6000fd5b50565b6000806002600084815260200190815260200160002060009054906101000a900473ffffffffffffffffffffffffffffffffffffffff169050600073ffffffffffffffffffffffffffffffffffffffff168173ffffffffffffffffffffffffffffffffffffffff161415610c55576040517f08c379a0000000000000000000000000000000000000000000000000000000008152600401610c4c90612bfa565b60405180910390fd5b80915050919050565b60008073ffffffffffffffffffffffffffffffffffffffff168273ffffffffffffffffffffffffffffffffffffffff161415610ccf576040517f08c379a0000000000000000000000000000000000000000000000000000000008152600401610cc690612c8c565b60405180910390fd5b600360008373ffffffffffffffffffffffffffffffffffffffff1673ffffffffffffffffffffffffffffffffffffffff168152602001908152602001600020549050919050565b610d1e611430565b73ffffffffffffffffffffffffffffffffffffffff16610d3c610e57565b73ffffffffffffffffffffffffffffffffffffffff1614610d92576040517f08c379a0000000000000000000000000000000000000000000000000000000008152600401610d8990612b68565b60405180910390fd5b610d9c600061186d565b565b6000610daa60076114f1565b905090565b610db7611430565b73ffffffffffffffffffffffffffffffffffffffff16610dd5610e57565b73ffffffffffffffffffffffffffffffffffffffff1614610e2b576040517f08c379a0000000000000000000000000000000000000000000000000000000008152600401610e2290612b68565b60405180910390fd5b600960009054906101000a900460ff1615600960006101000a81548160ff021916908315150217905550565b6000600660009054906101000a900473ffffffffffffffffffffffffffffffffffffffff16905090565b606060018054610e90906126d9565b80601f0160208091040260200160405190810160405280929190818152602001828054610ebc906126d9565b8015610f095780601f10610ede57610100808354040283529160200191610f09565b820191906000526020600020905b815481529060010190602001808311610eec57829003601f168201915b5050505050905090565b610f1b611430565b73ffffffffffffffffffffffffffffffffffffffff168273ffffffffffffffffffffffffffffffffffffffff161415610f89576040517f08c379a0000000000000000000000000000000000000000000000000000000008152600401610f8090612cf8565b60405180910390fd5b8060056000610f96611430565b73ffffffffffffffffffffffffffffffffffffffff1673ffffffffffffffffffffffffffffffffffffffff16815260200190815260200160002060008473ffffffffffffffffffffffffffffffffffffffff1673ffffffffffffffffffffffffffffffffffffffff16815260200190815260200160002060006101000a81548160ff0219169083151502179055508173ffffffffffffffffffffffffffffffffffffffff16611043611430565b73ffffffffffffffffffffffffffffffffffffffff167f17307eab39ab6107e8899845ad3d59bd9653f200f220920489ca2b5937696c318360405161108891906120b1565b60405180910390a35050565b6110a561109f611430565b83611533565b6110e4576040517f08c379a00000000000000000000000000000000000000000000000000000000081526004016110db90612afc565b60405180910390fd5b6110f084848484611933565b50505050565b6060611101826113c4565b611140576040517f08c379a000000000000000000000000000000000000000000000000000000000815260040161113790612d8a565b60405180910390fd5b600061114a61198f565b9050600081511161116a5760405180602001604052806000815250611195565b8061117484611a21565b604051602001611185929190612de6565b6040516020818303038152906040525b915050919050565b60006111a960076114f1565b6113886111b69190612e0a565b905090565b6000600560008473ffffffffffffffffffffffffffffffffffffffff1673ffffffffffffffffffffffffffffffffffffffff16815260200190815260200160002060008373ffffffffffffffffffffffffffffffffffffffff1673ffffffffffffffffffffffffffffffffffffffff16815260200190815260200160002060009054906101000a900460ff16905092915050565b600960009054906101000a900460ff1681565b61126a611430565b73ffffffffffffffffffffffffffffffffffffffff16611288610e57565b73ffffffffffffffffffffffffffffffffffffffff16146112de576040517f08c379a00000000000000000000000000000000000000000000000000000000081526004016112d590612b68565b60405180910390fd5b600073ffffffffffffffffffffffffffffffffffffffff168173ffffffffffffffffffffffffffffffffffffffff16141561134e576040517f08c379a000000000000000000000000000000000000000000000000000000000815260040161134590612eb0565b60405180910390fd5b6113578161186d565b50565b60007f01ffc9a7000000000000000000000000000000000000000000000000000000007bffffffffffffffffffffffffffffffffffffffffffffffffffffffff1916827bffffffffffffffffffffffffffffffffffffffffffffffffffffffff1916149050919050565b60008073ffffffffffffffffffffffffffffffffffffffff166002600084815260200190815260200160002060009054906101000a900473ffffffffffffffffffffffffffffffffffffffff1673ffffffffffffffffffffffffffffffffffffffff1614159050919050565b600033905090565b816004600083815260200190815260200160002060006101000a81548173ffffffffffffffffffffffffffffffffffffffff021916908373ffffffffffffffffffffffffffffffffffffffff160217905550808273ffffffffffffffffffffffffffffffffffffffff166114ab83610bac565b73ffffffffffffffffffffffffffffffffffffffff167f8c5be1e5ebec7d5bd14f71427d1e84f3dd0314c0f7b2291e5b200ac8c7c3b92560405160405180910390a45050565b600081600001549050919050565b6001816000016000828254019250508190555050565b61152f828260405180602001604052806000815250611b82565b5050565b600061153e826113c4565b61157d576040517f08c379a000000000000000000000000000000000000000000000000000000000815260040161157490612f42565b60405180910390fd5b600061158883610bac565b90508073ffffffffffffffffffffffffffffffffffffffff168473ffffffffffffffffffffffffffffffffffffffff1614806115f757508373ffffffffffffffffffffffffffffffffffffffff166115df84610713565b73ffffffffffffffffffffffffffffffffffffffff16145b80611608575061160781856111bb565b5b91505092915050565b8273ffffffffffffffffffffffffffffffffffffffff1661163182610bac565b73ffffffffffffffffffffffffffffffffffffffff1614611687576040517f08c379a000000000000000000000000000000000000000000000000000000000815260040161167e90612fd4565b60405180910390fd5b600073ffffffffffffffffffffffffffffffffffffffff168273ffffffffffffffffffffffffffffffffffffffff1614156116f7576040517f08c379a00000000000000000000000000000000000000000000000000000000081526004016116ee90613066565b60405180910390fd5b611702838383611bdd565b61170d600082611438565b6001600360008573ffffffffffffffffffffffffffffffffffffffff1673ffffffffffffffffffffffffffffffffffffffff168152602001908152602001600020600082825461175d9190612e0a565b925050819055506001600360008473ffffffffffffffffffffffffffffffffffffffff1673ffffffffffffffffffffffffffffffffffffffff16815260200190815260200160002060008282546117b4919061295c565b92505081905550816002600083815260200190815260200160002060006101000a81548173ffffffffffffffffffffffffffffffffffffffff021916908373ffffffffffffffffffffffffffffffffffffffff160217905550808273ffffffffffffffffffffffffffffffffffffffff168473ffffffffffffffffffffffffffffffffffffffff167fddf252ad1be2c89b69c2b068fc378daa952ba7f163c4a11628f55a4df523b3ef60405160405180910390a4505050565b6000600660009054906101000a900473ffffffffffffffffffffffffffffffffffffffff16905081600660006101000a81548173ffffffffffffffffffffffffffffffffffffffff021916908373ffffffffffffffffffffffffffffffffffffffff1602179055508173ffffffffffffffffffffffffffffffffffffffff168173ffffffffffffffffffffffffffffffffffffffff167f8be0079c531659141344cd1fd0a4f28419497f9722a3daafe3b4186f6b6457e060405160405180910390a35050565b61193e848484611611565b61194a84848484611be2565b611989576040517f08c379a0000000000000000000000000000000000000000000000000000000008152600401611980906130f8565b60405180910390fd5b50505050565b6060600a805461199e906126d9565b80601f01602080910402602001604051908101604052809291908181526020018280546119ca906126d9565b8015611a175780601f106119ec57610100808354040283529160200191611a17565b820191906000526020600020905b8154815290600101906020018083116119fa57829003601f168201915b5050505050905090565b60606000821415611a69576040518060400160405280600181526020017f30000000000000000000000000000000000000000000000000000000000000008152509050611b7d565b600082905060005b60008214611a9b578080611a8490613118565b915050600a82611a949190613190565b9150611a71565b60008167ffffffffffffffff811115611ab757611ab6612339565b5b6040519080825280601f01601f191660200182016040528015611ae95781602001600182028036833780820191505090505b5090505b60008514611b7657600182611b029190612e0a565b9150600a85611b1191906131c1565b6030611b1d919061295c565b60f81b818381518110611b3357611b326131f2565b5b60200101907effffffffffffffffffffffffffffffffffffffffffffffffffffffffffffff1916908160001a905350600a85611b6f9190613190565b9450611aed565b8093505050505b919050565b611b8c8383611d79565b611b996000848484611be2565b611bd8576040517f08c379a0000000000000000000000000000000000000000000000000000000008152600401611bcf906130f8565b60405180910390fd5b505050565b505050565b6000611c038473ffffffffffffffffffffffffffffffffffffffff16611f47565b15611d6c578373ffffffffffffffffffffffffffffffffffffffff1663150b7a02611c2c611430565b8786866040518563ffffffff1660e01b8152600401611c4e9493929190613276565b602060405180830381600087803b158015611c6857600080fd5b505af1925050508015611c9957506040513d601f19601f82011682018060405250810190611c9691906132d7565b60015b611d1c573d8060008114611cc9576040519150601f19603f3d011682016040523d82523d6000602084013e611cce565b606091505b50600081511415611d14576040517f08c379a0000000000000000000000000000000000000000000000000000000008152600401611d0b906130f8565b60405180910390fd5b805181602001fd5b63150b7a0260e01b7bffffffffffffffffffffffffffffffffffffffffffffffffffffffff1916817bffffffffffffffffffffffffffffffffffffffffffffffffffffffff191614915050611d71565b600190505b949350505050565b600073ffffffffffffffffffffffffffffffffffffffff168273ffffffffffffffffffffffffffffffffffffffff161415611de9576040517f08c379a0000000000000000000000000000000000000000000000000000000008152600401611de090613350565b60405180910390fd5b611df2816113c4565b15611e32576040517f08c379a0000000000000000000000000000000000000000000000000000000008152600401611e29906133bc565b60405180910390fd5b611e3e60008383611bdd565b6001600360008473ffffffffffffffffffffffffffffffffffffffff1673ffffffffffffffffffffffffffffffffffffffff1681526020019081526020016000206000828254611e8e919061295c565b92505081905550816002600083815260200190815260200160002060006101000a81548173ffffffffffffffffffffffffffffffffffffffff021916908373ffffffffffffffffffffffffffffffffffffffff160217905550808273ffffffffffffffffffffffffffffffffffffffff16600073ffffffffffffffffffffffffffffffffffffffff167fddf252ad1be2c89b69c2b068fc378daa952ba7f163c4a11628f55a4df523b3ef60405160405180910390a45050565b600080823b905060008111915050919050565b828054611f66906126d9565b90600052602060002090601f016020900481019282611f885760008555611fcf565b82601f10611fa157805160ff1916838001178555611fcf565b82800160010185558215611fcf579182015b82811115611fce578251825591602001919060010190611fb3565b5b509050611fdc9190611fe0565b5090565b5b80821115611ff9576000816000905550600101611fe1565b5090565b6000604051905090565b600080fd5b600080fd5b60007fffffffff0000000000000000000000000000000000000000000000000000000082169050919050565b61204681612011565b811461205157600080fd5b50565b6000813590506120638161203d565b92915050565b60006020828403121561207f5761207e612007565b5b600061208d84828501612054565b91505092915050565b60008115159050919050565b6120ab81612096565b82525050565b60006020820190506120c660008301846120a2565b92915050565b600081519050919050565b600082825260208201905092915050565b60005b838110156121065780820151818401526020810190506120eb565b83811115612115576000848401525b50505050565b6000601f19601f8301169050919050565b6000612137826120cc565b61214181856120d7565b93506121518185602086016120e8565b61215a8161211b565b840191505092915050565b6000602082019050818103600083015261217f818461212c565b905092915050565b6000819050919050565b61219a81612187565b81146121a557600080fd5b50565b6000813590506121b781612191565b92915050565b6000602082840312156121d3576121d2612007565b5b60006121e1848285016121a8565b91505092915050565b600073ffffffffffffffffffffffffffffffffffffffff82169050919050565b6000612215826121ea565b9050919050565b6122258161220a565b82525050565b6000602082019050612240600083018461221c565b92915050565b61224f8161220a565b811461225a57600080fd5b50565b60008135905061226c81612246565b92915050565b6000806040838503121561228957612288612007565b5b60006122978582860161225d565b92505060206122a8858286016121a8565b9150509250929050565b6122bb81612187565b82525050565b60006020820190506122d660008301846122b2565b92915050565b6000806000606084860312156122f5576122f4612007565b5b60006123038682870161225d565b93505060206123148682870161225d565b9250506040612325868287016121a8565b9150509250925092565b600080fd5b600080fd5b7f4e487b7100000000000000000000000000000000000000000000000000000000600052604160045260246000fd5b6123718261211b565b810181811067ffffffffffffffff821117156123905761238f612339565b5b80604052505050565b60006123a3611ffd565b90506123af8282612368565b919050565b600067ffffffffffffffff8211156123cf576123ce612339565b5b6123d88261211b565b9050602081019050919050565b82818337600083830152505050565b6000612407612402846123b4565b612399565b90508281526020810184848401111561242357612422612334565b5b61242e8482856123e5565b509392505050565b600082601f83011261244b5761244a61232f565b5b813561245b8482602086016123f4565b91505092915050565b60006020828403121561247a57612479612007565b5b600082013567ffffffffffffffff8111156124985761249761200c565b5b6124a484828501612436565b91505092915050565b6000602082840312156124c3576124c2612007565b5b60006124d18482850161225d565b91505092915050565b6124e381612096565b81146124ee57600080fd5b50565b600081359050612500816124da565b92915050565b6000806040838503121561251d5761251c612007565b5b600061252b8582860161225d565b925050602061253c858286016124f1565b9150509250929050565b600067ffffffffffffffff82111561256157612560612339565b5b61256a8261211b565b9050602081019050919050565b600061258a61258584612546565b612399565b9050828152602081018484840111156125a6576125a5612334565b5b6125b18482856123e5565b509392505050565b600082601f8301126125ce576125cd61232f565b5b81356125de848260208601612577565b91505092915050565b6000806000806080858703121561260157612600612007565b5b600061260f8782880161225d565b94505060206126208782880161225d565b9350506040612631878288016121a8565b925050606085013567ffffffffffffffff8111156126525761265161200c565b5b61265e878288016125b9565b91505092959194509250565b6000806040838503121561268157612680612007565b5b600061268f8582860161225d565b92505060206126a08582860161225d565b9150509250929050565b7f4e487b7100000000000000000000000000000000000000000000000000000000600052602260045260246000fd5b600060028204905060018216806126f157607f821691505b60208210811415612705576127046126aa565b5b50919050565b7f4552433732313a20617070726f76656420717565727920666f72206e6f6e657860008201527f697374656e7420746f6b656e0000000000000000000000000000000000000000602082015250565b6000612767602c836120d7565b91506127728261270b565b604082019050919050565b600060208201905081810360008301526127968161275a565b9050919050565b7f4552433732313a20617070726f76616c20746f2063757272656e74206f776e6560008201527f7200000000000000000000000000000000000000000000000000000000000000602082015250565b60006127f96021836120d7565b91506128048261279d565b604082019050919050565b60006020820190508181036000830152612828816127ec565b9050919050565b7f4552433732313a20617070726f76652063616c6c6572206973206e6f74206f7760008201527f6e6572206e6f7220617070726f76656420666f7220616c6c0000000000000000602082015250565b600061288b6038836120d7565b91506128968261282f565b604082019050919050565b600060208201905081810360008301526128ba8161287e565b9050919050565b7f596574697320617265206e6f7420666f722073616c6520796574210000000000600082015250565b60006128f7601b836120d7565b9150612902826128c1565b602082019050919050565b60006020820190508181036000830152612926816128ea565b9050919050565b7f4e487b7100000000000000000000000000000000000000000000000000000000600052601160045260246000fd5b600061296782612187565b915061297283612187565b9250827fffffffffffffffffffffffffffffffffffffffffffffffffffffffffffffffff038211156129a7576129a661292d565b5b828201905092915050565b7f59657469732061726520736f6c64206f75742100000000000000000000000000600082015250565b60006129e86013836120d7565b91506129f3826129b2565b602082019050919050565b60006020820190508181036000830152612a17816129db565b9050919050565b7f4e6f7420656e6f7567682045544820746f206275792061205965746921000000600082015250565b6000612a54601d836120d7565b9150612a5f82612a1e565b602082019050919050565b60006020820190508181036000830152612a8381612a47565b9050919050565b7f4552433732313a207472616e736665722063616c6c6572206973206e6f74206f60008201527f776e6572206e6f7220617070726f766564000000000000000000000000000000602082015250565b6000612ae66031836120d7565b9150612af182612a8a565b604082019050919050565b60006020820190508181036000830152612b1581612ad9565b9050919050565b7f4f776e61626c653a2063616c6c6572206973206e6f7420746865206f776e6572600082015250565b6000612b526020836120d7565b9150612b5d82612b1c565b602082019050919050565b60006020820190508181036000830152612b8181612b45565b9050919050565b7f4552433732313a206f776e657220717565727920666f72206e6f6e657869737460008201527f656e7420746f6b656e0000000000000000000000000000000000000000000000602082015250565b6000612be46029836120d7565b9150612bef82612b88565b604082019050919050565b60006020820190508181036000830152612c1381612bd7565b9050919050565b7f4552433732313a2062616c616e636520717565727920666f7220746865207a6560008201527f726f206164647265737300000000000000000000000000000000000000000000602082015250565b6000612c76602a836120d7565b9150612c8182612c1a565b604082019050919050565b60006020820190508181036000830152612ca581612c69565b9050919050565b7f4552433732313a20617070726f766520746f2063616c6c657200000000000000600082015250565b6000612ce26019836120d7565b9150612ced82612cac565b602082019050919050565b60006020820190508181036000830152612d1181612cd5565b9050919050565b7f4552433732314d657461646174613a2055524920717565727920666f72206e6f60008201527f6e6578697374656e7420746f6b656e0000000000000000000000000000000000602082015250565b6000612d74602f836120d7565b9150612d7f82612d18565b604082019050919050565b60006020820190508181036000830152612da381612d67565b9050919050565b600081905092915050565b6000612dc0826120cc565b612dca8185612daa565b9350612dda8185602086016120e8565b80840191505092915050565b6000612df28285612db5565b9150612dfe8284612db5565b91508190509392505050565b6000612e1582612187565b9150612e2083612187565b925082821015612e3357612e3261292d565b5b828203905092915050565b7f4f776e61626c653a206e6577206f776e657220697320746865207a65726f206160008201527f6464726573730000000000000000000000000000000000000000000000000000602082015250565b6000612e9a6026836120d7565b9150612ea582612e3e565b604082019050919050565b60006020820190508181036000830152612ec981612e8d565b9050919050565b7f4552433732313a206f70657261746f7220717565727920666f72206e6f6e657860008201527f697374656e7420746f6b656e0000000000000000000000000000000000000000602082015250565b6000612f2c602c836120d7565b9150612f3782612ed0565b604082019050919050565b60006020820190508181036000830152612f5b81612f1f565b9050919050565b7f4552433732313a207472616e73666572206f6620746f6b656e2074686174206960008201527f73206e6f74206f776e0000000000000000000000000000000000000000000000602082015250565b6000612fbe6029836120d7565b9150612fc982612f62565b604082019050919050565b60006020820190508181036000830152612fed81612fb1565b9050919050565b7f4552433732313a207472616e7366657220746f20746865207a65726f2061646460008201527f7265737300000000000000000000000000000000000000000000000000000000602082015250565b60006130506024836120d7565b915061305b82612ff4565b604082019050919050565b6000602082019050818103600083015261307f81613043565b9050919050565b7f4552433732313a207472616e7366657220746f206e6f6e20455243373231526560008201527f63656976657220696d706c656d656e7465720000000000000000000000000000602082015250565b60006130e26032836120d7565b91506130ed82613086565b604082019050919050565b60006020820190508181036000830152613111816130d5565b9050919050565b600061312382612187565b91507fffffffffffffffffffffffffffffffffffffffffffffffffffffffffffffffff8214156131565761315561292d565b5b600182019050919050565b7f4e487b7100000000000000000000000000000000000000000000000000000000600052601260045260246000fd5b600061319b82612187565b91506131a683612187565b9250826131b6576131b5613161565b5b828204905092915050565b60006131cc82612187565b91506131d783612187565b9250826131e7576131e6613161565b5b828206905092915050565b7f4e487b7100000000000000000000000000000000000000000000000000000000600052603260045260246000fd5b600081519050919050565b600082825260208201905092915050565b600061324882613221565b613252818561322c565b93506132628185602086016120e8565b61326b8161211b565b840191505092915050565b600060808201905061328b600083018761221c565b613298602083018661221c565b6132a560408301856122b2565b81810360608301526132b7818461323d565b905095945050505050565b6000815190506132d18161203d565b92915050565b6000602082840312156132ed576132ec612007565b5b60006132fb848285016132c2565b91505092915050565b7f4552433732313a206d696e7420746f20746865207a65726f2061646472657373600082015250565b600061333a6020836120d7565b915061334582613304565b602082019050919050565b600060208201905081810360008301526133698161332d565b9050919050565b7f4552433732313a20746f6b656e20616c7265616479206d696e74656400000000600082015250565b60006133a6601c836120d7565b91506133b182613370565b602082019050919050565b600060208201905081810360008301526133d581613399565b905091905056fea264697066735822122095ac775b33d00a2632ee1cb49262ecadfe080b3deb19486dd55071ec8c89a6e264736f6c63430008090033",
  "immutableReferences": {},
  "source": "// SPDX-License-Identifier: MIT\npragma solidity 0.8.9;\n\nimport \"@openzeppelin/contracts/token/ERC721/ERC721.sol\";\nimport \"@openzeppelin/contracts/access/Ownable.sol\";\nimport \"@openzeppelin/contracts/utils/Counters.sol\";\n\ncontract YetiPunks is ERC721, Ownable {\n\n    using Counters for Counters.Counter;\n    Counters.Counter private _tokenSupply;\n\n    uint256 public constant MAX_SUPPLY = 5000;\n    \n    uint256 public cost = 0.03 ether;\n\n    bool public saleIsActive = false;\n    string private _baseTokenURI;\n\n    constructor(\n        string memory _name,\n        string memory _symbol\n        // string memory _initBaseURI,\n        // string memory _initNotRevealedUri,\n        // uint256 _revealTime\n    ) ERC721(_name, _symbol) { \n        //Set baseURI here?\n        //set pre-reveal image here?\n        //set deploy time here?\n    }\n\n    // This is the new mint function leveraging the counter library\n    function mint() public payable {\n        require(saleIsActive, \"Yetis are not for sale yet!\");\n\n        uint256 mintIndex = _tokenSupply.current() + 1; // Start IDs at 1\n        require(mintIndex <= MAX_SUPPLY, \"Yetis are sold out!\");\n\n        uint256 mintPrice = 0.03 ether;\n        require(msg.value >= mintPrice, \"Not enough ETH to buy a Yeti!\");\n\n        _tokenSupply.increment();\n        _safeMint(msg.sender, mintIndex);\n    }\n\n    function remainingSupply() public view returns (uint256) {\n        return MAX_SUPPLY - _tokenSupply.current();\n    }\n\n    function tokenSupply() public view returns (uint256) {\n        return _tokenSupply.current();\n    }\n\n    function _baseURI() internal view virtual override returns (string memory) {\n        return _baseTokenURI;\n    }\n\n    function setBaseURI(string memory baseURI) external onlyOwner {\n        _baseTokenURI = baseURI;\n    }\n\n    function toggleSale() public onlyOwner {\n        saleIsActive = !saleIsActive;\n    }\n\n    function withdrawBalance() public onlyOwner {\n        //TODO: divide evenly between 3 wallets\n        payable(msg.sender).transfer(address(this).balance);\n    }\n}",
  "sourcePath": "/Users/christopherfoley/nft/YetiPunks/src/contracts/YetiPunks.sol",
  "compiler": {
    "name": "solc",
    "version": "0.8.9+commit.e5eed63a.Emscripten.clang"
  },
  "schemaVersion": "3.4.4",
  "updatedAt": "2021-12-28T05:59:47.773Z",
  "networkType": "ethereum",
  "devdoc": {
    "kind": "dev",
    "methods": {
      "approve(address,uint256)": {
        "details": "See {IERC721-approve}."
      },
      "balanceOf(address)": {
        "details": "See {IERC721-balanceOf}."
      },
      "getApproved(uint256)": {
        "details": "See {IERC721-getApproved}."
      },
      "isApprovedForAll(address,address)": {
        "details": "See {IERC721-isApprovedForAll}."
      },
      "name()": {
        "details": "See {IERC721Metadata-name}."
      },
      "owner()": {
        "details": "Returns the address of the current owner."
      },
      "ownerOf(uint256)": {
        "details": "See {IERC721-ownerOf}."
      },
      "renounceOwnership()": {
        "details": "Leaves the contract without owner. It will not be possible to call `onlyOwner` functions anymore. Can only be called by the current owner. NOTE: Renouncing ownership will leave the contract without an owner, thereby removing any functionality that is only available to the owner."
      },
      "safeTransferFrom(address,address,uint256)": {
        "details": "See {IERC721-safeTransferFrom}."
      },
      "safeTransferFrom(address,address,uint256,bytes)": {
        "details": "See {IERC721-safeTransferFrom}."
      },
      "setApprovalForAll(address,bool)": {
        "details": "See {IERC721-setApprovalForAll}."
      },
      "supportsInterface(bytes4)": {
        "details": "See {IERC165-supportsInterface}."
      },
      "symbol()": {
        "details": "See {IERC721Metadata-symbol}."
      },
      "tokenURI(uint256)": {
        "details": "See {IERC721Metadata-tokenURI}."
      },
      "transferFrom(address,address,uint256)": {
        "details": "See {IERC721-transferFrom}."
      },
      "transferOwnership(address)": {
        "details": "Transfers ownership of the contract to a new account (`newOwner`). Can only be called by the current owner."
      }
    },
    "version": 1
  },
  "userdoc": {
    "kind": "user",
    "methods": {},
    "version": 1
  }
}